:020000040800F2
:10000000903B012015420008390200083B0200081D
:100010003D0200083F020008410200080000000005
:10002000000000000000000000000000A101000826
:100030004302000800000000E50100085D710008AF
:100040002F4200082F4200082F4200082F420008CC
:100050002F4200082F420008C50400082F42000864
:10006000C30400082F4200082F4200083303000891
:100070000D030008A1030008AB0300086902000893
:100080002F4200087F0300082F4200082F4200087B
:100090002F4200082F4200082F420008CB0400081E
:1000A0002F420008110400083D0400082F420008F8
:1000B0003F0400085F0400087F0400082F42000886
:1000C0002F4200082F4200082F420008BF040008FA
:1000D0002F420008490200082F4200082F42000862
:1000E000030700082F4200082F4200082F42000893
:1000F0002F4200082F4200082F4200085503000835
:100100002F4200082F4200089F040008C104000885
:100110002F420008231A0008D7030008090400082A
:100120009702000871020008BD0200082F42000873
:100130002F4200082F4200082F4200082F420008DB
:100140002F4200082F4200082F4200082F420008CB
:10015000030300082F4200082F4200082F42000826
:100160002F4200082F4200082F4200082F420008AB
:100170002F4200082F4200082F4200082F4200089B
:100180002F4200082F420008DFF810D007F0BCFC17
:1001900000480047E33F0008AFF30080903B012098
:1001A000224B19680868B0E8F00F80F30988BFF3A4
:1001B0006F8F4FF0000080F311884EF00D0E7047E6
:1001C0000000000006480068006880F3088862B6F6
:1001D00061B6BFF34F8FBFF36F8F00DF00BF00BF6B
:1001E00008ED00E0EFF30980BFF36F8F0F4B1A6843
:1001F00020E9F00F106008B54FF0500080F311882F
:10020000BFF34F8FBFF36F8F06F08AF84FF00000F7
:1002100080F31188BDE8084019680868B0E8F00F5D
:1002200080F30988BFF36F8F704700BFA0010020E3
:10023000EFF30580704700007047FEE7FEE7FEE73A
:10024000FEE770477047704710B5F84C40F22551F3
:10025000204605F044FD002805D02046BDE81040AA
:10026000202105F039BD10BDF149F24804F049BE26
:1002700070B5F14CF14D2146284604F01FFE0028D0
:1002800008D02146284604F03CFE01F059FCEC4918
:100290000120087070BD70B5E84DEA4C183D21464C
:1002A000284604F00BFE002807D001F08FFF2146FE
:1002B0002846BDE8704004F024BE70BDDF4810B58C
:1002C000E149183004F01DFEE048417A0D2905D0BF
:1002D000BDE810400021D54805F040BC41780278C7
:1002E00041EA0221DA4A1180C178827841EA02218A
:1002F000D84A11804179007941EA0020D649088026
:1003000010BDCE48D549603004F0FBBD70B5C94D75
:10031000C94C483D2146284604F0D0FD002807D0AE
:100320002146284604F0EDFDBDE8704000F0A7BB73
:1003300070BD70B5BF4DC34C603D2146284604F0EA
:10034000BDFD002805D021462846BDE8704004F0D8
:10035000D8BD70BD70B5B74CC14D48342946204654
:1003600004F0ACFD002809D00021204604F01BFD5C
:1003700029462046BDE8704004F0C3BD70BD70B58D
:10038000AC4DB84C30352146284604F097FD002886
:1003900005D021462846BDE8704004F0B2BD70BDCE
:1003A000A448A349303804F0ACBD10B5A14CAE4907
:1003B000183C204604F082FD00280BD04FF0C051BD
:1003C000204604F054FD0021204604F0ECFCA7492F
:1003D0000020086010BD10B50121A54805F05DFAA8
:1003E000A4480078914CA08003F026F90121A2488E
:1003F00005F0B4FB0121A14805F0B0FB2046BDE8A3
:100400001040012105F0AABB01219D4805F045BA25
:1004100010B59C4C0121204605F033FA00280CD081
:100420000121204605F039FA2088C1069648016866
:1004300001D5491E00E0491C016010BD704710B590
:1004400001218C07204605F028FA2088C1068F4834
:10045000016801D5491E00E0491C016010BD10B5BE
:100460008B4C0121204605F018FA2088C1068948E6
:10047000016801D5491E00E0491C016010BD10B59E
:10048000854C0121204605F008FA2088C1068348E2
:10049000016801D5491E00E0491C016010BD10B57E
:1004A0007F4C0121204605F0F8F92088C1067D48DF
:1004B000016801D5491E00E0491C016010BD70476C
:1004C00070477047012004F09BBD2DE9F05F4FF4A9
:1004D000807B754D5C465946284603F0CBFF0746A6
:1004E0004FF4007A5146284603F0C4FF0646202107
:1004F0006E4803F0BFFF0546204604F081FD6C4CBA
:100500004FF0000948B3012F03D0B6B3012E38D005
:1005100020E0DFF86C81404604F05CFE65490A6823
:1005200002EB421202EB42021044634A1060C1F82F
:1005300000900021404604F049FE012E01D026B172
:1005400008E03DB92068401C03E0012D02D120687D
:10055000401E2060584604F061FDD346504604F02A
:100560004FFDDFF858814FF0010A90B3012E0BD0F8
:1005700098F80000012812D01BE0FFE7012DE1D020
:10058000E8E7002DE3D0E5E73D4804F023FEC8F896
:10059000100088F800A087B1012F13D016E038486A
:1005A00004F018FED8F81020801AC8F8080088F85F
:1005B0000090012F1AD0E7B108E0012D06D1206884
:1005C000401C02E015B92068401E2060584604F027
:1005D00025FD202004F014FD002826D0012D0BD08D
:1005E00098F801004546012811D018E0002DE6D00A
:1005F000ECE7012DE7D0E9E7214804F0EBFDC8F86E
:10060000140088F801A0012F5AD067B161E01C489E
:1006100004F0E0FD6969401AE86085F801901FB1B7
:10062000012F5ED055E04FE058E05DE00010014042
:100630002080002070600240008800102864024082
:100640001A00002020800010008020100A0A0020DC
:1006500030000020740100203400002000880020B9
:1006600000800028008020200080001874000020F6
:100670000010004024000020004800400014014009
:100680000014004000000140D4000020D8000020E9
:1006900000040040DC00002000080040E0000020D2
:1006A000000C0040E400002000080240001002405E
:1006B00078010020700100206C0100200000002063
:1006C0003EB92068401C03E0012E02D12068401E84
:1006D0002060BDE8F05F202004F0A0BC012EF0D027
:1006E000F7E7002EF2D0F4E7BDE8F09F074948682D
:1006F0008A68824200D98868CA68824200D9C8687C
:1007000070474FF4004004F07BBC00000000002064
:1007100070B5054606F07EFD04462946FC4806F005
:1007200080FD002816D095222946F94806F066FD7E
:10073000F84D0021284604F036FBF648F449B83855
:10074000C0F8C410C0F8BC402846BDE87040012184
:1007500004F029BB70BD70B5EF4D06460024315D35
:1007600000290BD0284605F01FFA8021284605F005
:10077000ACFA0028F9D0641CE4B2F0E770BD70B5A3
:10078000E54E05460024002D0DD02946304605F0E3
:100790000BFA8021304605F098FA0028F9D0641C45
:1007A000E4B2032CEFD370BD13B50C460020FFF765
:1007B000E6FFDAA0FFF7CFFFD5482346D8A296215F
:1007C000E63807F0EBF9D248E638FFF7C4FFD5A0CA
:1007D000FFF7C1FFCE48D2A29621E638009B07F072
:1007E000DDF9CB48E638FFF7B6FFD0A0FFF7B3FF3F
:1007F000FF20FFF7C4FFFF20FFF7C1FFBDE81C404B
:10080000FF20BCE770B505460C46C4A0FFF7A3FF68
:10081000BF482246C2A1E63807F0DAF9BC48E638FC
:10082000FFF799FFBFA0FFF796FF2846FFF793FF5A
:10083000BEA0FFF790FFBDE87040FF209FE777B5AF
:10084000B8A185B00646D1E90001CDE90001B7A005
:10085000002200680390B1A0AD4D0068283DA5F1CD
:1008600028030290AA4C1146A3F19600A95499546A
:100870008154A154521CD2B21E2AF7D30A2101700E
:10088000FF2444708470C470A148A5A15038079A11
:1008900007F09EF99E4902A8503906F0A3FC9C4837
:1008A00002A9E63806F09EFC99486946E63806F04B
:1008B00099FC97483146E63806F094FC944898A194
:1008C0005038069A07F084F991495039A1F1960001
:1008D00006F088FC8E4803A9E63806F083FC8C49B4
:1008E0002C706C702839AC70A1F1BE0006F07AFC57
:1008F0008748E638FFF70CFF08B070BD2DE9F741D7
:10090000884688A185B00646D1E90001CDE90001FD
:1009100086A000220068039080A07D4D0068283DDD
:10092000A5F1280102901446A1F19600AC548C5414
:100930008454521CD2B20A2AF8D30A210170FF272C
:1009400047708770C770724875A15038079A07F0D2
:100950003FF96F4902A8503906F044FC6C4802A9DF
:10096000E63806F03FFC6A486946E63806F03AFC8D
:1009700067483146E63806F035FC65484146E638BA
:1009800006F030FC624803A9E63806F02BFC2F7015
:100990006F705F49AF70EC7028392C71A1F1BE0007
:1009A00006F020FC5A48E638FFF7B2FE08B0BDE872
:1009B000F08101B58EB05EA2322168460E9B07F031
:1009C000EDF86846FFF7A4FE0FB000BD73B555A162
:1009D00084B00646D1E90001CDE9000153A0002210
:1009E000006803904DA04A4D0068283DA5F12803FA
:1009F0000290474C1146A3F19600A9549954815492
:100A0000A154521CD2B21E2AF7D30A210170FF242E
:100A100044708470C4703E4841A15038059A07F074
:100A2000D7F83B4902A8503906F0DCFB384802A948
:100A3000E63806F0D7FB36486946E63806F0D2FBC2
:100A400033483146E63806F0CDFB31495039A1F143
:100A5000960006F0C7FB2E4803A9E63806F0C2FB55
:100A60002B492C706C702839AC70A1F1BE0006F0D7
:100A7000B9FB2748E638FFF74BFE06B070BDF0B56E
:100A80002E4885B001784278C4780A4481780B19E1
:100A90001A4403791A4443791A4483791A44C3796E
:100AA0001344027A1344DBB202F00F0202938DF872
:100AB0000020407A984201D10D2A0AD09DF800000A
:100AC0000D2869D005B00021BDE8F0401C4805F0B4
:100AD00045B8C1F17F0006F025FE0546A4F181006E
:100AE00006F020FE044615F0FF4F4FF07E5000D177
:100AF000054614F0FF4F00D10446284606F02CFEB0
:100B00000746204606F028FE002F1BDB3A461AE077
:100B1000F6020020B860024000500040740000005F
:100B2000256400002E7478743D220000220000002D
:100B30006A302E76616C3D2564000000190A0020A1
:100B4000004800407A42011E00DA4142114401EBA4
:100B5000D1714910FE4E7166002800DA40423228F9
:100B600006DA380000D57842322801DA002012E097
:100B7000204606F029FE07460C46284606F024FECD
:100B80003A46234607F054FD4FF00042F14B06F081
:100B9000D1FC06F0FAFD306605B0F0BDEE48017AF2
:100BA00001F00F010D2904D10078C00701D00D20FC
:100BB00070470020704701B581B0019800EBC0007C
:100BC00040000090002801D0401EFAE70CBD01B59E
:100BD00081B044F25061019848430090002801D050
:100BE000401EFAE70CBD1CB501210F2003F0AAFD41
:100BF0004CF6804000906946D84803F0D5FB4FF48E
:100C0000034000906946D64803F0CEFB41F603103E
:100C1000009001208DF8040000218DF806108DF859
:100C2000070003208DF805006946CE4803F0BCFBA1
:100C30004FF6C17000906946CB4803F0B5FB1CBD70
:100C40001CB50121162003F07DFD00208DF8040065
:100C500001208DF8070002208DF805004FF4C040F8
:100C600000906946BE4803F09FFB03200090694650
:100C7000BA4803F099FB4FF2FF5000906946BB4819
:100C800003F092FB1CBD1FB54FF4E06003F0D4FAF3
:100C900036208DF80C0002208DF80D008DF80E0026
:100CA00001208DF80F0003A803F0CBFA01211020DA
:100CB00003F066FD3220ADF8000040F2E73001900D
:100CC0000020AB4CADF80800ADF8020069462046A4
:100CD00004F03AFA0121204604F0DFFD012211461A
:100CE000204604F0BAFD0021204604F06FFA0121ED
:100CF000204604F0A1FA1FBD1FB54FF4E06003F0D9
:100D00009BFA37208DF80C0000248DF80D408DF8EB
:100D10000E4001208DF80F0003A803F092FA012184
:100D2000202003F02DFD3220ADF80000ADF8084082
:100D3000ADF8024063208F4C01906946204604F0D4
:100D400003FA0121204604F0A8FD012211462046A5
:100D500004F083FD0021204604F038FA01212046EA
:100D600004F06AFA1FBD70B58AB00121042003F0B7
:100D700007FD01210D2003F0E5FC784E02220C2135
:100D8000304603F09AFB02220D21304603F095FB1A
:100D900002220E21304603F090FB02220F21304642
:100DA00003F08BFB4FF47040059002208DF8180083
:100DB00003208DF8190000248DF81A4001258DF8C4
:100DC0001B5005A9304603F0EFFAA420ADF81C0033
:100DD0002802694E0890ADF82400ADF81E4007A91E
:100DE000304604F0B1F97020ADF80000ADF80250C3
:100DF0000294ADF80C400121304604F01DFA0021A8
:100E0000304604F0E3F96946304604F01FFA6946BB
:100E1000304604F047FA6946304604F07FFA6946E6
:100E2000304604F0B5FA0AB070BD2DE9F047012153
:100E30008AB0084603F0A4FC0121022003F0A0FCC4
:100E40000121032003F07EFCDFF8189101220F211D
:100E5000484603F032FBDFF81081012203214046AF
:100E600003F02BFB02220421404603F026FB022262
:100E70000521404603F021FB02268DF8046003277C
:100E800038208DF80570002400908DF8064001256B
:100E90008DF807506946404603F086FA8DF80460E5
:100EA000E8038DF8057000908DF806408DF8075026
:100EB0006946484603F078FA4FF6FF70ADF80C40EB
:100EC00004904FF08049ADF81440ADF80E4003A9EE
:100ED000484604F039F9DFF8A4A003A9504604F00D
:100EE00033F94FF004081420ADF81880ADF8200055
:100EF000ADF81A60ADF81C5006A9484604F0DEFBB8
:100F000006A9504604F0DAFB02231A46032148469C
:100F100004F03DFD02231A460321504604F037FD3C
:100F20000121484604F0B9FC0121504604F0B5FC0B
:100F300001221146484604F090FC01221146504619
:100F400004F08BFC0121484604F076F9012117E0FA
:100F500098000020A9E78140190A0020000C0240F7
:100F6000000802400000024000040240001002405D
:100F70000010004000140040000800400004004041
:100F8000504604F059F90021484604F01FF90021A9
:100F9000504604F01BF9780203F04EF91D208DF83D
:100FA00008008DF809708DF80A408DF80B5002A8E2
:100FB00003F047F91C208DF808008DF809808DF8A2
:100FC0000A408DF80B5002A803F03BF90AB0BDE8C7
:100FD000F0872DE9F04101218AB0084603F0DAFBE1
:100FE0000121102003F0AEFB4FF4206000904FF081
:100FF000020803208DF8048000248DF805008DF888
:10100000064001258DF807506946FE4F384603F02B
:10101000CBF94FF6FF70FC4EADF808400390ADF8E9
:101020001040ADF80A4002A9304604F08DF80122C4
:101030000921384603F041FA01220B21384603F01A
:101040003CFA0427C820ADF81470ADF81C00ADF8C8
:101050001680ADF8185005A9304604F02FFB022386
:101060001A460321304604F092FC0121304604F078
:1010700014FC01221146304604F0EFFB01213046FA
:1010800004F0DAF80021304604F0A0F8B48235808C
:101090004FF4C06003F0D0F819208DF820008DF8CF
:1010A00021708DF822408DF8235008A803F0C9F86C
:1010B0000AB07CE42DE9F0418AB00121042003F05C
:1010C0005FFB0121082003F03DFB4FF44050022656
:1010D00000908DF8046003208DF805000024CB4FAC
:1010E0008DF8064001258DF807506946384603F013
:1010F0005BF94FF6FF70DFF81883ADF808400390F6
:10110000ADF81040ADF80A4002A9404604F01CF8C2
:1011100002220C21384603F0D0F902220D21384674
:1011200003F0CBF90427C820ADF81470ADF81C000B
:10113000ADF81660ADF8185005A9404604F0BEFAA7
:1011400002231A460321404604F021FC01214046B7
:1011500004F0A3FB01221146404604F07EFB01216E
:10116000404604F069F80021404604F02FF8A848F2
:1011700014300480A8F800504FF4C06003F05CF80D
:101180001E208DF820008DF821708DF822408DF8FA
:10119000235008A803F055F88AE72DE9F0418AB0FA
:1011A0000121082003F0ECFA0121084603F0CAFAF5
:1011B000032002268DF804608DF805000024954F69
:1011C00000908DF8064001258DF807506946384695
:1011D00003F0EAF84FF6FF70DFF83C82ADF8084004
:1011E0000390ADF81040ADF80A4002A9404603F064
:1011F000ABFF02220021384603F05FF902220121F1
:10120000384603F05AF90427C820ADF81470ADF839
:101210001C00ADF81660ADF8185005A9404604F062
:101220004DFA02231A460321404604F0B0FB012187
:10123000404604F032FB01221146404604F00DFB0B
:101240000121404603F0F8FF0021404603F0BEFFB5
:10125000714814300480A8F800504FF4C06002F0C8
:10126000EBFF32208DF820008DF821708DF82240A0
:101270008DF8235008A802F0E4FF19E72DE9F041AA
:101280009CB00121654803F05DFA01210E02304651
:1012900003F080FADFF8888101221021404603F034
:1012A000F7FD38208DF86C0000248DF86D408DF826
:1012B0006E4001258DF86F501BA802F0C2FF5948FF
:1012C00002A9CDE9004058480E2781E89100A80204
:1012D000CDE90540400007908000CDE908060AA945
:1012E000000181E831000D94694640460E9403F0F8
:1012F00021FD0121404603F056FD012003F04FFB84
:10130000FC2003260F908DF840608DF843400FA914
:10131000404803F049F830020F908DF840608DF896
:1013200043400FA9414803F03FF83F200F908DF84C
:1013300040608DF843400FA93D4803F035F8300474
:10134000CDE91740199417A81A9403F0F8FA1194EC
:10135000139414941594334C8DF848504C3C8DF8EC
:1013600049508DF8587011A9204603F0BDFA0723A3
:1013700001220221204603F02CFB07230222032135
:10138000204603F026FB072303220421204603F016
:1013900020FB072304220521204603F01AFB072324
:1013A00005220621204603F014FB072306221946D6
:1013B000204603F00EFB07231A460821204603F0BF
:1013C00008FB072308220921204603F002FB07231C
:1013D00009220A21204603F0FCFA07230A220B21E6
:1013E000204603F0F6FA07230B220C21204603F0D7
:1013F000F0FA07230C220D21204603F0EAFA072316
:101400000D2217E00010024000000140000C0240D5
:101410000008004000000240000C004007004000AF
:10142000106402404C2001408C0300200004024064
:10143000000802400E21204603F0CBFA07230E22BB
:101440000F21204603F0C5FA0121204603F03EFBA0
:101450000121204603F030FB0121204603F086FAEB
:10146000204603F0F0FA1CB0BDE8F08170B50546E7
:1014700096B00121102003F08DF90121084603F0F8
:1014800061F90121880503F05DF94FF4C060139004
:1014900002208DF8500000248DF852408DF8534002
:1014A000FF4E8DF8510013A9304602F07DFF072250
:1014B0000921304603F001F807220A21304602F0E4
:1014C000FCFF0F95ADF844400C20F64DADF84040C0
:1014D000ADF84600ADF84240ADF848400FA92846A7
:1014E00004F0CBFA0121284604F038FB4FF4A06049
:1014F00002F0A2FE3A208DF8540001218DF855101B
:101500008DF856108DF8571015A802F09AFEE64E89
:10151000304603F087FB4FF000600090E348CDE9D0
:1015200002040A200490281D01900015CDE9054011
:101530008010CDE9084040020A9004200B900794E7
:101540000320CDE90C04694630460E9403F0F2FB0B
:1015500001224021284604F098FB01221021304648
:1015600003F096FC0121304603F01DFC16B070BD5F
:101570002DE9F04F8046012197B0880403F000F96F
:101580000121082003F0DEF80121480503F0DAF814
:1015900002268DF8546000244FF440708DF85640B8
:1015A0000125C34F14908DF857508DF8556014A93C
:1015B000384602F0F9FE07220821384602F07DFF86
:1015C00007220921384602F078FFDFF8E8B2ADF8CB
:1015D0004440ADF848400C27CDF84080ADF8464077
:1015E000ADF84C40ADF84A7010A9584604F045FAE1
:1015F0000121584604F0B2FA4FF4A06002F01CFE3C
:101600008DF83C708DF83D508DF83E508DF83F5070
:101610000FA802F016FE0E208DF83C008DF83D60FC
:101620008DF83E408DF83F500FA802F00AFEDFF81B
:1016300088A2504603F0F6FA9C48ED060F30CDE93B
:10164000020404A90A206F1481E8910008A84FF44D
:1016500080784FF40039079480E810030BF10406FA
:101660000B94CDE900566946504603F063FB012216
:101670004021584604F009FB01221021504603F096
:1016800007FC0121504603F08EFBDFF82CA20AF183
:10169000300A504603F0C6FA844800952138CDE957
:1016A00001604020039004A9212081E8910008A84E
:1016B000079480E81003694650460B9403F03AFB08
:1016C00001228021584604F0E0FA01221021504600
:1016D00003F0DEFB0121504603F065FB17B0BDE8C7
:1016E000F08FF0B50646012197B0C80403F048F822
:1016F0000121084603F026F80121480503F022F8ED
:1017000002208DF8500000248DF852408DF853408F
:10171000634F03258DF85100139513A9384602F045
:1017200043FE08220021384602F0C7FE08220121AC
:10173000384602F0C2FE0F96ADF844400C205F4ED2
:10174000ADF84040ADF84600ADF84240ADF8484035
:101750000FA9304604F091F90121304604F0FEF95A
:101760004FF4A06002F068FD0D208DF854008DF854
:1017700055408DF8564001208DF8570015A802F00D
:1017800060FD4D4F1837384603F04CFA780500904D
:10179000464869461E30CDE9020408200490301DF9
:1017A00001900015CDE905408010CDE908404002C8
:1017B00007940A900420CDE90C540B9038460E94FF
:1017C00003F0B8FA01224021304604F05EFA01220B
:1017D0004021304604F059FA01221021384603F026
:1017E00057FB0121384603F0DEFA17B0F0BD2DE9B2
:1017F000F0478246012196B0480502F0A3FF01217F
:10180000080502F0BDFF01210C2002F09BFF02261B
:101810008DF84460002404208DF846400125DFF84F
:10182000908010908DF8475003278DF8457010A9CF
:10183000404602F0B9FD2803DFF8849010908DF83F
:1018400044608DF8475010A9484602F0ADFD0822CB
:101850000221404602F031FE08220C21484602F0E7
:101860002CFECDF848A0ADF850400C20DFF854A075
:10187000ADF84C40ADF85200ADF84E40ADF85440D4
:1018800012A9504604F0F9F84FF4A06002F0D4FC1D
:101890002F208DF83C0005208DF83D0014E000005D
:1018A0000000024000100140406402400A0A00208B
:1018B000000C02400048004028600240004C0040FC
:1018C00000080240005000408DF83E008DF83F5067
:1018D0000FA802F0B6FC0B208DF83C008DF83D609F
:1018E0008DF83E608DF83F500FA802F0AAFC35201D
:1018F0008DF83C008DF83D508DF83E508DF83F50EE
:101900000FA802F09EFCDFF80494484603F08AF921
:1019100040200390FE48ED06029004A995206E1425
:1019200081E851000794A8120894CDE90940CDE957
:101930000B470AF10408CDE900580D946946484662
:101940000E9403F0F7F901221021484603F0A0FAA3
:10195000EE4FA83F384603F065F9EE48CDE90204A2
:1019600004A9802081E851004000CDE908404FF4EF
:101970004030CDE90A04CDE9005807940C940D9449
:10198000694638460E9403F0D5F9012240F224410D
:10199000504604F082F901228021504604F075F986
:1019A00001224021504604F070F90121384603F02D
:1019B000FAF90121504604F0D1F816B0BDE8F087DD
:1019C00070B5D248A83803F00EFAD34CC0F18000AD
:1019D0000104A08A090C00F10100A0821BD00020A4
:1019E000CC4A4B1E1AE0155C552D15D115186D7893
:1019F0000C2D11D100F10E058D420DD8C44B0021E4
:101A0000F23B45181544AD785D54491C89B20C2948
:101A1000F7D30120607070BD401C80B29842E2DBB9
:101A200070BD10B5BD4C40F22441204604F057F97A
:101A3000002804D02088A088BDE81040C0E710BD71
:101A4000F0B5054697B00121202002F0A3FE012148
:101A5000042002F077FE0121880502F073FEC02009
:101A6000139002208DF8500000248DF852408DF81C
:101A70005340AB4E8DF8510013A9304602F094FC50
:101A800008220621304602F018FD082207213046C0
:101A900002F013FDADF844400C20A24EADF84040DA
:101AA000ADF846000F95ADF84240ADF848400FA99B
:101AB000304603F0E2FF0121304604F04FF84FF4C6
:101AC000A06002F0B9FB39208DF8540003258DF891
:101AD000555001218DF856108DF8571015A802F0B9
:101AE000B0FB914F384603F09DF8B8050090894847
:101AF00069468030CDE902040F200490301D01902A
:101B00000015CDE905408010CDE90840400207945A
:101B10000A900420CDE90C540B9038460E9403F043
:101B200009F901224021304604F0AFF801221021CA
:101B3000384603F0ADF90121384603F034F954E694
:101B4000744A18B5803250788DF800009DF8000076
:101B5000104483789DF80000AA30C1B2002004E050
:101B60001418A478401C2144C9B29DF80040A0423A
:101B7000F6DB12786848AA2A03D18B4201D10121F1
:101B800000E00021817018BDF0B50646012197B034
:101B9000480502F0D7FD01214D04284602F0F0FD72
:101BA0000121082002F0CEFD6020139002208DF864
:101BB000500000248DF852408DF853405B4F8DF853
:101BC000510013A9384602F0EFFB072205213846E1
:101BD00002F073FC07220621384602F06EFC0F96D5
:101BE000ADF844400C20524EADF84040ADF84600F0
:101BF000ADF84240ADF848400FA9304603F03DFF34
:101C00000121304603F0AAFF4FF4A06002F014FB5C
:101C100011208DF854008DF855408DF85640012064
:101C20008DF8570015A802F00CFB384F183F3846C6
:101C300002F0F8FFA8020090402003903D48029077
:101C40003C200490301D01900015CDE90540801026
:101C5000CDE908400420CDE90A5007940320CDE9DE
:101C60000C04694638460E9403F064F80122802182
:101C7000304604F00AF801228021304604F005F8CD
:101C800001221021384603F003F90121384603F000
:101C90008AF8AAE530B585B00121142002F052FD82
:101CA0000121880302F076FD00254FF440708DF885
:101CB0000450012400908DF807406946184802F04E
:101CC00073FB6020009069461B4802F06DFB082101
:101CD000022004F044F80921022004F040F8052114
:101CE000042004F03CF80621042004F038F84FF4F6
:101CF000587002908DF80C5010208DF80D008DF862
:101D00000E4002A803F02CF9172017E0B86002403B
:101D1000F6020020370A0020180000200050004082
:101D2000000802400014014028640240000C0240F8
:101D30000044004030010020001002408DF81000E7
:101D40008DF811408DF812508DF8134004A802F060
:101D500078FA05B030BD10B5C378002202219B1C73
:101D6000DBB204E0445C491C224492B2C9B28B420B
:101D7000F8D2D0B2C0F1FF0010BD10B51C4603462A
:101D8000FF2020706070A3700720E0700320207196
:101D90002A206071080AA071E171100A2072627233
:101DA0002046FFF7D8FFA07210BD30B50C4615468F
:101DB0000146FB4BC8220120FFF7DFFFF84BC8228A
:101DC0000B3321460220FFF7D8FFF54BC82216330C
:101DD00029460320FFF7D1FFF1484438416CC0F891
:101DE0006510816CC0F86910B0F84C10A0F86D1047
:101DF00090F84E1080F86F10D0F84F100167D0F8AF
:101E000053104167B0F85710A0F8781090F85910A7
:101E100080F87A10D0F85A10C0F87B10D0F85E1015
:101E2000C0F87F10B0F86210A0F8831090F864102A
:101E300080F8851030BD70B5DA4CE06D002817D100
:101E4000628A218AE089FFF7B0FFD549D64821315F
:101E500041662121C165D44D4FF0C0515835284607
:101E600003F005F80121284602F09DFF0120E065FE
:101E700070BD10B5012810D0032819D0042822D035
:101E8000052809D1C94C204603F08EFE402120468A
:101E900003F01BFF0028F9D010BDC54C204603F00D
:101EA00083FE4021204603F010FF0028F9D010BD2A
:101EB000C04C204603F078FE4021204603F005FF89
:101EC0000028F9D010BDBC4C204603F06DFE402127
:101ED000204603F0FAFE0028F9D010BD2DE9FC41A0
:101EE000B64E304603F076F9AE4D8035E96BB0461C
:101EF00040EA014000244CF250364FF6E85701907A
:101F0000404603F067F9E96B40EA014000900100A8
:101F1000019800D54942002800DA4042081AB04230
:101F200000DA641C00980190BC4201DC022CE7DB63
:101F30000098BDE8FC812DE9FC41A04E304603F03D
:101F400049F9984D8035E96BB04640EA01400024DC
:101F50004CF250364FF6E8570190404603F03AF9FC
:101F6000E96B40EA014000900100019800D5494228
:101F7000002800DA4042081AB04200DA641C0098D7
:101F80000190BC4201DC022CE7DB0098642190FB4D
:101F9000F1F0CEE72DE9FC414FF08046304603F0EA
:101FA00019F9804D8035296CB04640EA0140002483
:101FB0004CF250364FF6E8570190404603F00AF9CC
:101FC000296C40EA014000900100019800D5494287
:101FD000002800DA4042081AB04200DA641C009877
:101FE0000190BC4201DC022CE7DB0098A1E72DE95F
:101FF000FC41734E304603F0EDF86A4D8035696C54
:10200000B04640EA014000244CF250364FF6E85703
:102010000190404603F0DEF8696C40EA0140009010
:102020000100019800D54942002800DA4042081A10
:10203000B04200DA641C00980190BC4201DC022C22
:10204000E7DB009875E72DE9FC415E4E304603F072
:10205000C1F8544D8035A96CB04640EA01400024D7
:102060004CF250364FF6E8570190404603F0B2F874
:10207000A96C40EA014000900100019800D5494256
:10208000002800DA4042081AB04200DA641C0098C6
:102090000190BC4201DC022CE7DB009849E72DE906
:1020A000FC41494E304603F095F83E4D8035E96CD1
:1020B000B04640EA014000244CF250364FF6E85753
:1020C0000190404603F086F8E96C40EA0140009038
:1020D0000100019800D54942002800DA4042081A60
:1020E000B04200DA641C00980190BC4201DC022C72
:1020F000E7DB00981DE72B4A0021803201280CD035
:1021000002280ED0032811D0042814D0052803D1AA
:102110002D4824300160D164704728484162D16362
:1021200070474FF08040416211647047244824306A
:102130000160516470472348243001609164704706
:102140003EB501680091416801910089ADF8080031
:1021500000206A46411C0C460BE000BF32F81030EC
:1021600032F81150AB4203D922F8105022F8113046
:10217000491C89B20529F1D3A0B20428EAD3BDF8DD
:1021800004003EBD0022114630F81130491C89B2CE
:102190001A443229F8D33220B2FBF0F080B27047F3
:1021A000C8090020180000200060024000500040D4
:1021B0000010014000440040004C0040000001407D
:1021C0000004004000080040000C0040F0B5FE4F45
:1021D000FE4D002407F18C0604EB8402042107EB7A
:1021E000420000BF00EB410333F8023C20F81130FD
:1021F000491E0904090CF5D1F349383931F8141096
:1022000027F81210FFF79CFF04EBC40101EB041147
:102210002A7806EB8101641CA4B221F812000E2C6E
:10222000DAD32878401CC0B22870322801D30020AD
:102230002870E54D00241C3D04EBC40000EB0410A5
:1022400006EB8000FFF79EFF25F81400641CA4B283
:102250000E2CF1D3F0BD10B5DC4C00206073612072
:1022600020736420FEF7B3FC012060737A20207392
:1022700010BD10B5D54C0020607361202073642020
:10228000FEF7A5FC012060737A20207310BD2DE9B4
:10229000F0410E46054605F097FA07460C463046D3
:1022A00005F092FA3A46234606F0C2F9C84AC94BED
:1022B00005F040F905F069FAC44F8037B866314639
:1022C000084605F014F804462946084605F00FF8BC
:1022D000214604F0B4FF05F077FA06F043FC05F060
:1022E00054FAF866BDE8F0812DE9F14F9AB000206C
:1022F000B54A00901C3A8DF83C00A2F5D271DDF889
:10230000688091F80BC091F80AA091F8099091F8B3
:1023100008E0CB7906938B790593AC4C91F805B026
:102320000F79CE788D784B78097804F180000B9185
:10233000B8F1290F7ED2DFE808F0153135393D417B
:1023400045494D5155595D61636567CFFCFBFAF90D
:10235000F8F7F67D7DF5F47DF3F2F1F0EFEEEDEDBB
:10236000ECEBEA0002219C4802F084F850B1012213
:10237000D1039A4802F096F88021994802F08EF82D
:102380000022CBE100224FF40041944802F08AF889
:102390008021934802F084F80022CEE1C168012236
:1023A00090A01EE28168022293A01AE241680322F3
:1023B00096A016E2E16F042299A012E201680522BC
:1023C0009BA00EE2A16F06229DA00AE2416B0722AC
:1023D00094A006E2816B082296A002E2016B09221A
:1023E00098A0FEE1918A0A2299A0FAE1618C0B2261
:1023F0009DA0F6E1D1880C229FA0F2E10D22A1E17F
:102400000E22A3E10F22A5E1A04F0121384602F0E0
:1024100031F8724D4FF400540E902146284602F0D8
:1024200029F80D900221384602F024F86600314662
:102430000C9000E0B0E1284602F01CF80B9004215B
:10244000384602F017F88346A100384602F012F829
:1024500081460821384602F00DF88046314638465C
:1024600002F008F807901021384602F003F80646FB
:102470002146384601F0FEFF594C8246082120468D
:1024800001F0F8FF0546A114384601F0F3FF039070
:102490001021204601F0EEFF02902115384601F090
:1024A000E9FF01908021384601F0E4FF0446B915A8
:1024B000384601F0DFFF0094CDE9045A08AC0696D7
:1024C00084E8000B034672A228210FA805F066FBE2
:1024D00010220FA977A05DE1DFF8FC808021404643
:1024E00001F0D2FF0E900121404601F0CDFF0D908A
:1024F0004021404601F0C8FF394C4FF400470C9092
:102500003946204601F0C0FFA514294612E065E1D6
:1025100060E159E153E14EE149E144E13FE129E164
:1025200023E11EE119E114E10FE10AE1E7E0D7E060
:10253000D0E0C9E0DFF884A10B90504601F0A4FF81
:1025400026150A903146404601F09EFF4FF400697F
:1025500009904946504601F097FF08904946404689
:1025600001F092FF07903146204601F08DFF069062
:102570002946404601F088FF05904946204601F073
:1025800083FF83466900404601F07EFF8146AD002F
:102590002946204601F078FF06462946404601F0CC
:1025A00073FF0546A115504601F06EFF04463946FB
:1025B000404601F069FF8DE8700A034634A22821E5
:1025C0000FA805F0EBFA7BE0C40300201800002000
:1025D00078612288A9E78140000402400008024097
:1025E000000C0240736572766F5F76616C75655F93
:1025F000706861693A200000736572766F5F76617A
:102600006C75655F7361753A2000000073657276C2
:102610006F5F76616C75655F747261693A20000066
:10262000676F635F62616E685F706861693A20001E
:10263000676F635F62616E685F7361753A20000067
:10264000676F635F62616E685F747261693A2000F0
:102650005F414443315F46696C74657265645B3108
:10266000305D203A200000006C617365725F747207
:10267000756F633A200000005F414443315F466953
:102680006C74657265643A2000000000001002401E
:1026900025642564256425642564256425642564F2
:1026A00025642564256425642564256425642564E2
:1026B00000000000496E3A200000000000000240C7
:1026C00011220FA9E0A065E0FFF764FC0146122289
:1026D000DFA086E0FFF78BFC01461322E1A080E03B
:1026E000CDF81CE08DE8E80808A8E3A280E8001611
:1026F00028210FA80B9B05F051FA142248E0022173
:10270000E74801F0B7FE68B10122D103E54801F0C6
:10271000C9FE8021E44801F0C1FE1522B4F9181069
:10272000E2A05EE000224FF40041DE4801F0BAFE74
:102730008021DD4801F0B4FE1522B4F91810E2A0A2
:102740004FE016220169E8A04BE017228169EBA057
:1027500047E01822C169EDA043E01B222179F0A0D7
:102760003FE01C22E178F1A03BE0B4F91C101E22EE
:10277000F1A036E0CDF81CE08DE8E80808A8BEA27C
:1027800080E8001628210FA80B9B05F007FA1F22EE
:102790000FA9EBA0FEF7B2F81BB0BDE8F08FD18A0D
:1027A0002022EAA01DE0118B2122EEA019E0518B1E
:1027B0002222F2A015E0918B2322F6A011E0FB4823
:1027C00025224169FAA00CE0FD48007A0109262281
:1027D000FCA006E0A18C2722FCA002E0E18C2822CC
:1027E000FDA0FEF72CF8D7E70121FE4802F0DBBA86
:1027F00011B4EE488038016D009A914201DD00214C
:1028000001E0016D491C0165006D18BC6CE500BF5D
:10281000FEF7C4F9082003F0E7FCF9E72DE9FF41D2
:1028200082B015460C9C12F1FF4F01D382F0004597
:102830004FF07E56B4F5000F01DAEB4C02E0B442E3
:1028400000DD3446DDE90201401A00D5404247F27E
:10285000F858009088B30599374688420ADA084646
:1028600004F060FF0746009804F05CFF394604F06E
:1028700070FD07462146304604F033FD394604F02A
:1028800036FD214604F0DBFC294604F030FD044609
:10289000294604F0D3FF00D22C46204605F096FFCF
:1028A00004F05AFF0190012801DA01200190DDE9CE
:1028B0000001884206DC02980CE0FFE74246002156
:1028C00003980AE0DDE902108842019901DA084420
:1028D00000E0401A42460021039006B0BDE8F041F6
:1028E00001F0D6BB2DE9F05F0C4607464FF4804B54
:1028F000904659466B4801F0BDFDDFF8F0924FF06D
:10290000010A002509F58C7618B9FFF743FBB84298
:1029100009DB4FF40051634801F0ACFD78BBFFF7D1
:1029200039FBB8423FDD86F8395099F80B004C4628
:1029300018B9FFF72FFBC4E91505FFF72BFB616DF5
:102940000F1A00D57F42322F2BDBA06D381A1E28BC
:1029500027DB59465348A76501F08CFD80B186F806
:10296000385000BFC7EB071040004FF47A7190FB5E
:10297000F1F00A30C0B2282805D9282006E012E07C
:1029800086F838A0EEE70A2800D20A2086F8390037
:10299000E07A401CC0B2E072022802D386F83950B7
:1029A000E572BDE8F09F89F80B50FFF7F3FA391A8A
:1029B00001D4084600E04842032802DC86F839507A
:1029C000EFE7002902DD86F8385001E086F838A0EC
:1029D000404503DC604390FBF8F0C4B2052C00D204
:1029E000052486F83940DCE72DE9F8437F4C2E4E6C
:1029F000DFF8FC91207A4FF480454FF4807801286D
:102A000003D0607901281ED022E100222F462946FA
:102A1000304601F047FD4FF416752A4637217548B8
:102A2000FFF760FF00223946304601F03BFD724E51
:102A30008021304601F01EFD20B90121304601F011
:102A400019FDDBE0DBE0F7E04F55543A20000000D1
:102A5000524541445F454E434F4445525F323A2010
:102A600000000000524541445F454E434F444552EB
:102A70005F333A20000000002025642025642025D3
:102A80006420256420256420256420256420256495
:102A9000202564202564202564202564250000006D
:102AA0000004024000080240000C02402D2D2D20A1
:102AB000504147452031202D2D2D2053414E20449B
:102AC0004F20494D553A20002D2D2D20504147458E
:102AD0002031202D2D2D2053414E2058414E48208D
:102AE000494D553A200000006E616E675F63686172
:102AF0006E5F747261693A20000000006E616E675B
:102B00005F6368616E5F7361753A20006E616E6726
:102B10005F6368616E5F706861693A200000000061
:102B2000666C61675F52323A20000000666C616734
:102B30005F52313A20000000494D555F593A20005C
:102B40004269745F484D493A200000005F414443A8
:102B5000325F46696C74657265645B31315D3A2041
:102B6000000000005F414443315F46696C74657248
:102B700065645B31325D3A20000000005F414443F0
:102B8000315F46696C74657265645B31335D3A2010
:102B9000000000005F414443315F46696C74657218
:102BA00065645B31345D3A200000000018010020AC
:102BB0007361695F736F5F6C617A653A2000000032
:102BC000190A00204241543A200000006C617365EC
:102BD000725F32203A2000006C617365725F333A95
:102BE00020000000A0600240CDCC4C3D1800002029
:102BF00000000240905F01000010024038B1012146
:102C0000304601F037FC18B3607920B120E047F27C
:102C10003050E0821CE0A07A012819D101224146FF
:102C2000484601F03FFC42F6F820E0822A4628217F
:102C3000F948FFF757FE0BE000224146484601F0F5
:102C400031FC0A20E08201222946304601F02AFCAC
:102C5000F24D4FF07E50009069694FF47A734FF057
:102C60008242E08AFFF7DAFD6861696905F1980040
:102C700080F835106969090A80F83410BDE8F883D6
:102C8000FFF7B2FE0A2003F0AFFAF9E72920FFF7B9
:102C9000AFFD0A2003F0A8FAF8E710B50121E048DB
:102CA00001F0E8FB002807D04FF4967003F09CFA7F
:102CB000DA4901208039887210BD07B5D7488038BD
:102CC00081660099016642660EBD2DE9FF411E46F0
:102CD0000A9F019804F026FDD04CD04D803C20671F
:102CE0000198A867A66602982066009804F01AFD6D
:102CF0006067002060662867B4F91800E867384606
:102D000004F02AFD2084B4F920000A2801DD0A20FD
:102D100001E04FF4FA60E083BDE8FF812DE9F84F50
:102D2000C04EDFF8F892C049707809F18009C207F7
:102D30004FF080474FEA807007D0002813DB2D202A
:102D4000C9F80000C9F8107012E000280BDAB07959
:102D5000192806D90120C9F80000B448C9F81000A4
:102D600006E0142000E01920C9F80000C9F810108E
:102D7000D9F800001530C9F80C00FDF70FFF0D2839
:102D800006D0BDE8F84F00224FF08141104694E78D
:102D90003278DFF88882A14812F0480F4FF00A0518
:102DA0004FF00004A8F180083ED191063CD4D10632
:102DB0003AD431794FF0050AC82906D9436E322B2F
:102DC00003DAD8F85000404206E032292CD2416E96
:102DD000322929DAD8F85000B8F9181000EBC000F1
:102DE00001EB8000C8F84C00C9F804400121D9F873
:102DF000100004F0ECFAD9F80C10034691FBFAF23B
:102E00008B480090D9F80410D8F84C00FFF75DFF0C
:102E1000B8F91800C8F84C00C9F80850B8F91800FB
:102E2000C8F84C00BDE8F88F11074FEA426125D57C
:102E3000002944DB910642D4D10640D43179C82917
:102E400008D9416E32293ADAB8F91800D8F850108A
:102E5000401A09E0322932D2416E32292FDAB8F90C
:102E60001800D8F850100844C8F84C00C9F80440BD
:102E70000094D9E90323D9F8041029E200291EDAC5
:102E800091061CD4D1061AD43179C82908D9416ECB
:102E9000322914DAB8F91800D8F85010401A09E0AD
:102EA00032290CD2416E322909DAB8F91800D8F863
:102EB00050100844C8F84C004FF46170DEE012F086
:102EC000480F4FF4E1613CD193064FEAC2631BD532
:102ED000002B36DB3379C82B08D9436E322B30DA1E
:102EE000B8F91800D8F85010401A09E0322B28D24F
:102EF000436E322B25DAB8F91800D8F85010084480
:102F0000C8F84C004B48B9E0002B1ADA3379C82BCB
:102F100008D9436E322B14DAB8F91800D8F85020CB
:102F2000801A09E0322B0CD2436E322B09DAB8F941
:102F30001800D8F850201044C8F84C00C9F8041004
:102F400096E713074FF4E17ACAF1000B40F2465EB0
:102F50004FEA42633FD5002B4FEA82631DDA002B14
:102F60006ADBD30668D43379C82B08D9436E322B79
:102F700062DAB8F91800D8F85010401A09E0322B7C
:102F80005AD2436E322B57DAB8F91800D8F85010DD
:102F90000844C8F84C00504670E0002B4CDAD306C9
:102FA0004AD43379C82B08D9436E322B44DAB8F9A6
:102FB0001800D8F85010401A09E0322B3CD2436E6A
:102FC000322B39DAB8F91800D8F850100844C8F88C
:102FD0004C00584652E0002B2EDA93062CD4D30630
:102FE0002AD53379C82B08D9436E322B24DAB8F9A5
:102FF0001800D8F85010401A09E0322B1CD2436E4A
:10300000322B19DAB8F91800D8F850100844C8F86B
:103010004C00704632E00FE0F8B3FEFF980000204D
:1030200000100240190A00206666263F9A99993FCF
:103030000000A0417CFCFFFFDFF8A4C412F0480FA1
:103040001FD193061DD5D3061BD53379C82B08D9BC
:10305000436E322B15DAB8F91800D8F85010401A20
:1030600009E0322B0DD2436E322B0ADAB8F9180080
:10307000D8F850100844C8F84C006046C9F804005D
:10308000F6E6130708D5530606D4930604D4D306F0
:1030900002D4C9F8044008E012F0480F13D1930697
:1030A00011D4D3060FD5C9F804100094D9F8103004
:1030B000D9F80020D9F80410D8F84C00FFF705FE25
:1030C000C9F80850AEE6130708D4530606D5930690
:1030D00004D4D30602D44FF461702CE012F0480FF0
:1030E00005D1930603D5D30601D4FE4823E0130788
:1030F0004FEA42630FD5002B4FEA826305DA002BBB
:1031000011DBD3060FD4504615E0002B0BDAD306A3
:1031100009D458460FE0002B05DA930603D4D306F2
:1031200001D5704607E012F0480F7DD1930605D512
:10313000D00679D56046C9F80400B6E7D20673D444
:1031400072794FF07E5A4FF07C5B322A31D2B8F957
:103150001820C8F84C20C9F80410CDF800A0D9F800
:10316000041053460A22D8F84C00FFF7AEFD5F4624
:103170000EE00A2003F038F8B07920B14FF0804219
:10318000D949642002E0D94A39461420FFF795FD59
:1031900070793228EDD3B8F91800C8F84C00C9F896
:1031A00008500094D9F8041053460222D8F84C0075
:1031B00037E0C82A39D9B8F91810C8F84C100022DD
:1031C000C9F80420CDF800A0D9F80410544653469D
:1031D0000A22D8F84C00FFF778FDDFF814A35F4609
:1031E0000EE00A2003F000F8B07920B14FF08042E1
:1031F0002146C82002E0524639461420FFF75DFD03
:103200007079C828EDD8B8F91810C8F84C10C9F86A
:10321000085000220092D9F8041023460222D8F860
:103220004C00FFF752FDFDE55EE0416E0A2936DDF8
:103230000094D9F81030D9F800204C46016ED8F827
:103240004C00FFF742FDA560B846A94F54465D46C5
:103250000DE00A2002F0C8FFB07918B142462146BD
:10326000322002E03A4629461420FFF726FD307945
:103270003228EED39F4F4FF040483079C828D2D93A
:103280000A2002F0B1FFB07918B14246214632203F
:1032900002E03A4629461420FFF70FFDEDE7416EA4
:1032A000322921DD3179C82905D9B8F91810D8F8A3
:1032B0005020891A06E032290FD2B8F91810D8F830
:1032C00050201144C8F84C100094D9E90323016E32
:1032D000D8F84C00FFF7F9FC9EE50094D9F81030BF
:1032E000D9F80020016EE7E6B8F91800C8F84C00DC
:1032F000009400221146D9F81030D8F84C0090E71D
:103300007D4E012700257D4C4FF40048DFF8F091F9
:10331000FFF704FD7078410702D56771257217E049
:10332000810602D52772657112E0C10603D5E771E7
:10333000A57165720FE0000703D5E571A77165728D
:1033400023E03078400703D5E571A57167721CE072
:10335000E079012819D101224146484601F0A2F83E
:103360001021684801F086F801280ED1002241465C
:10337000484601F097F801229103484601F092F87F
:103380004FF47A7002F030FFE571FFF786FC0720FA
:1033900002F02AFFBCE77CB501200024CDE900043F
:1033A000050223462A4658A15A4802F066FD042029
:1033B000CDE9000400232A4657A15A4802F05DFDDA
:1033C0000220CDE9000400232A4657A15A4802F002
:1033D00054FD0320CDE9000400232A4657A15B4891
:1033E00002F04BFDBDE87C4003F0D1B82DE9F04779
:1033F00091460E46044603F077FF054620F0004054
:10340000074616F0FF4F01D0314601E04FF07E51E4
:1034100003F09FFF374903F06AFF04F0D5F905F088
:103420005FFADFF82C810022434604F080F8012285
:1034300004F061F904F0DBF92C49B5F5000F2DDB40
:103440008F4207DD0121484603F0C1FF214603F00A
:10345000F6FE1DE004F0B8F94FF0FF3204F04BF92E
:103460000022434603F0BFFF07460D46484604F0DE
:10347000ABF93A462B4604F05DF807460D46204668
:1034800004F0A2F93A462B4603F0ADFF04F0AFF981
:103490000446314604F0D2F96FD26DE015F1FF4FCA
:1034A0006BD38F4207DD0121484603F090FF214690
:1034B00003F01AFF5BE004F087F94FF03332254B3D
:1034C00004F038F80022434603F08DFF07460D460E
:1034D000484604F079F93A462B4604F02BF83BE0D5
:1034E000BAFAFFFF7CFCFFFFCDCC4C3D0000A041B1
:1034F0000000A0400000A0C0190A00201800002011
:1035000000040240000C02405461736B5F4D61691E
:103510006E000000013300085461736B5F484D4931
:10352000000000008D2C00085461736B5F436F6EC8
:1035300074726F6C5F310000812C00085461736BF2
:103540005F436F6E74726F6C5F3200000F2800086B
:103550000000F03F3333D33F07460D46204604F0CA
:1035600033F93A462B4603F0DFFF04F040F90446F6
:10357000314604F059F900D234462046BDE8F087C0
:103580002DE9F041F94C4FF07E51206F03F057FECA
:1035900005462067A4F180000027416EBE1EB1F5EC
:1035A000000F1BDB8046284604F048F93ED2314626
:1035B0004546D8F86C0003F00AFF0646696F03F031
:1035C0003EFE6867A06FB5F91810401AE16F084415
:1035D00004F0A8F8314603F084FE25E011F1FF4F16
:1035E00026D38046084604F0B7F8002800DA4042A7
:1035F00004F098F8294604F017F917D231464546E9
:10360000D8F86C0003F0E3FE0646696F03F06CFE29
:103610006867A06FB5F918100844E16F401A04F00C
:1036200081F8314603F00BFE28672767BDE8F0817B
:103630000121C1620163F9E72DE9F05FCB4D803DC7
:10364000686E04F089F8400001D0FFF799FF286EFA
:1036500004F068F80146D5E91A20FFF7C7FE814655
:10366000E866686E04F078F84000DFF80483C14F24
:10367000BE4CB5F918004FF4E16614D004F052F8CE
:10368000696F03F02EFE414603F031FE04F064F84A
:10369000E062E06AB04201DDE66219E0E06AB84249
:1036A00016DAE76214E004F03DF8696F03F019FEE2
:1036B000414603F01CFE04F04FF8E062E16A4FF46B
:1036C0006160814203DCE16A4042814200DAE062EB
:1036D000286FA949804603F03CFE04F03DF84FF402
:1036E0006161484304F01EF8414603F0FDFD04F01B
:1036F00033F86883E06A00280BDD286CB5F91A10EE
:10370000401A2062686CB5F91A10401A6062A86C01
:103710000DE0E06A00280FDA686BB5F91A10401A5C
:103720002062A86BB5F91A10401A6062E86BB5F90F
:103730001A10401AA06205E0484604F00DF8A06394
:1037400060632063206AB042206A02DDA0F56160F8
:1037500004E0B84203DA206A00F561602062606A22
:10376000B042606A02DDA0F5616004E0B84203DAAD
:10377000606A00F561606062A06AB042A06A02DD22
:10378000A0F5616004E0B84203DAA06A00F5616068
:10379000A062E06AA146002800DA4042774CDFF8D8
:1037A000E0B1B04273DDD9F82C00002800DA4042C5
:1037B00003F0C1FF80468A46D9F8200003F0BBFF22
:1037C00000225B4603F028FF4246534603F0B2FE58
:1037D00080468A46B5F91A0003F0ADFF42465346CB
:1037E00003F001FE03F0D1FFA867D9F82C000028F0
:1037F00000DA404203F09FFF80468A46D9F8240051
:1038000003F099FF00225E4B03F006FF4246534649
:1038100003F090FE80468A46B5F91A0003F08BFF4C
:103820004246534603F0DFFD03F0AFFFE867D9F8E7
:103830002C00002800DA404203F07DFF82468B46D0
:10384000C846D9F8280003F076FF00224C4B03F05D
:10385000E3FE52465B4603F06DFE83468A46B5F9A9
:103860001A0003F068FF5A46534603F0BCFD03F00C
:103870008CFFC8F80000D8F85400A96F401A40F631
:103880008C21884204DDA86F00F5616009E089E0C1
:10389000D8F85400AA6F801AA04203DAA86FA0F5E6
:1038A0006160A867D8F854204046AB6F4FF4617848
:1038B000D31AC8F10002434503DDAB6F03F5E163A2
:1038C00009E0436DD5F878C0A3EB0C03934203DA0B
:1038D000AB6FA3F5E163AB67836DD5F87CC0A3EB59
:1038E0000C038B4203DDEB6F03F5616309E0836D2D
:1038F000D5F87CC0A3EB0C03A34203DAEB6FA3F56E
:103900006163EB67836DD5F87CC0A3EB0C03434583
:1039100003DDEB6F03F5E16309E0836DD5F87CC04F
:10392000A3EB0C03934203DAEB6FA3F5E163EB67C0
:10393000C36DD0F800C0A3EB0C038B4203DD01681C
:1039400001F5616107E0C16D0368C91AA14203DA9C
:103950000168A1F561610160C16D0368C91A414543
:1039600010DD016801F5E16114E00000980000201D
:1039700000004040F8F8FFFF0000614574F5FFFFCC
:103980000020AC40C16D0368C91A914203DA016896
:10399000A1F5E1610160A96F4165E96F8165016889
:1039A000C165F3E0B5F91A00A867B5F91A00E86730
:1039B000B5F91A104846C9F80010D9F85410AA6F82
:1039C00040F68C28891A414503DDA96F01F5616134
:1039D00007E0416DAA6F891AA14203DAA96FA1F528
:1039E0006161A967416DAA6F8B1A40F246514A4244
:1039F0008B4203DDAB6F03F5E16309E0436DD5F85E
:103A000078C0A3EB0C03934203DAAB6FA3F5E16339
:103A1000AB67836DD5F87CC0A3EB0C03434503DD96
:103A2000EB6F03F5616309E0836DD5F87CC0A3EB10
:103A30000C03A34203DAEB6FA3F56163EB67836DBD
:103A4000D5F87CC0A3EB0C038B4203DDEB6F03F5D1
:103A5000E16309E0836DD5F87CC0A3EB0C039342CE
:103A600003DAEB6FA3F5E163EB67C36DD0F800C039
:103A7000A3EB0C03434503DD036803F5616309E031
:103A8000C36DD0F800C0A3EB0C03A34203DA0368B4
:103A9000A3F561630360C36D04681B1B8B4203DDE8
:103AA000016801F5E16107E0C16D0368C91A91423F
:103AB00003DA0168A1F5E1610160A96F4165E96F71
:103AC00081650168C165C06A002800DA404203F0E0
:103AD00032FE04468846D9F8200003F02CFE00226E
:103AE0005B4603F099FD2246434603F023FD04465E
:103AF0008846A86F03F01FFE2246434603F073FC7E
:103B000003F043FEA867D9F82C00002800DA4042F1
:103B100003F011FE80460C46D9F8240003F00BFE9A
:103B200000225B4603F078FD4246234603F002FD87
:103B300004468846E86F03F0FEFD2246434603F044
:103B400052FC03F022FEE867D9F82C00002800DAC6
:103B5000404203F0F0FD80468A464C46D9F82800E2
:103B600003F0E9FD00225B4603F056FD4246534652
:103B700003F0E0FC80468A46206803F0DCFD424604
:103B8000534603F030FC03F000FE2060A86FB842FB
:103B900001DA384602E0B04200DD3046C0F5E162AD
:103BA000E86FB84201DA384602E0B04200DD304644
:103BB000C0F5E161D9F800004C46B84201DA384658
:103BC00002E0B04200DD3046C0F5E163C2EB0232F4
:103BD0004FF4616092FBF0F214326260C1EB01318C
:103BE00091FBF0F10A31E160C3EB033191FBF0F09E
:103BF0001438A0606068E881A0682882E068688264
:103C0000FEF719F9E06A002800DA4042B2460A26B7
:103C1000FE4F50457DDDE06A00284ADDE86E03F086
:103C2000D3FD804620688946A96C401A90FBF6F0C7
:103C300003F078FDBB46394603F059FB03F0C4FDA1
:103C400004F000FE42464B4603F074FC03F09DFD79
:103C5000A063E86E03F0B8FD0746E86F8846696C1C
:103C6000401A90FBF6F003F05DFD594603F03FFB70
:103C700003F0AAFD04F0E6FD3A46434603F05AFC81
:103C800003F083FD6063E86E03F09EFD8046A86F3D
:103C90000F46296C401A90FBF6F003F043FD59469D
:103CA00003F025FB03F090FD04F0CCFD42463B46BB
:103CB0004EE0E06A002850DAE86E03F085FD8046A9
:103CC00020688946E96B401A90FBF6F003F02AFD64
:103CD000BB46394603F00BFB03F076FD04F0B2FD62
:103CE00042464B4603F026FC03F04FFDA063E86E0E
:103CF00003F06AFD8046E86F0F46A96B401A90FBFF
:103D0000F6F003F00FFD594603F0F1FA03F05CFD05
:103D100000E02EE004F096FD42463B4603F00AFC2C
:103D200003F033FD6063E86E03F04EFD0746A86FB5
:103D30008846696B401A90FBF6F003F0F3FC594695
:103D400003F0D5FA03F040FD04F07CFD3A4643460B
:103D500003F0F0FB03F019FD2063E86E4FF07E5294
:103D600090426BDC616F0020002942DC6067E866EE
:103D700046E0E86E03F028FD804620688946B5F9E4
:103D80001A10401A90FBF6F003F0CCFCBB46394603
:103D900003F0ADFA03F018FD04F054FD42464B4623
:103DA00003F0C8FB03F0F1FCA063E86E03F00CFD28
:103DB0008046E86F0F46B5F91A10401A90FBF6F0EE
:103DC00003F0B0FC594603F092FA03F0FDFC04F056
:103DD00039FD42463B4603F0ADFB03F0D6FC606381
:103DE000E86E03F0F1FC8046A86F0F46B5F91A1093
:103DF00050E7491E61670121EA6621636163A1639F
:103E0000616FB1F5FA7F1CDA616D002900DA494271
:103E1000524691420BDAA16D002900DA49429142E3
:103E200005DAE16D002900DA4942514509DBA8674E
:103E30006065E867A0652060E06502E0B5F91E00F6
:103E40006067206B414272480171216B4942090A47
:103E5000C170616B0176616B090AC175A16B494242
:103E60008173A16B4942090A4173BDE8F09F2DE9B6
:103E7000F041054640F2862085423ADD40F60E10BC
:103E8000854202DBB420BDE8F0816248002400BF17
:103E900050F82410A94229DC00EB84014968A942AA
:103EA00024DB00EB840150F824704968C81B03F040
:103EB00039FC0646E81B03F035FC314603F049FAAD
:103EC00005465448903800EB840150F82440496876
:103ED000081B03F027FC294603F009FA4FF07C5138
:103EE00003F0ADF903F038FC2044CCE7641C232C2C
:103EF000CEDB0520C7E770B5474CA08AFFF7B7FFB8
:103F0000464D6884E08AFFF7B2FFA884208BFFF754
:103F1000AEFFE884608BFFF7AAFF2885A08BFFF730
:103F2000A6FF688570BD70472DE9F8433C483B4CBF
:103F3000212140783B4D3C4E814304F1800434D034
:103F400041071CD5C0071AD0009541F26807E16906
:103F50003B4632460020FEF761FCE0610095216996
:103F60003B4632460020FEF759FC20610095A169CE
:103F70003B4632465FF00000FEF750FCA061E1696D
:103F8000234880F83010E169090A80F82F10216970
:103F900080F826102169090A00F8251FA16981719E
:103FA000A169090A4171BDE8F883009544F63828F3
:103FB000E1694346324644F620673846FEF72EFC58
:103FC000E06100952169434632463846FEF726FCFB
:103FD00020610095A169434632463846CCE77047D8
:103FE000704738B5FCF7FFFDFCF72AFEFCF7F1FF40
:103FF000FCF71BFFFDF75EF8FDF7CFF8FDF73EF984
:10400000FCF741FE094C0021204611E035FA8E3CB8
:1040100030010020408C0008A80300201800002078
:10402000190A0020CDCCCC3D0000204100100040FA
:1040300001F002F94FF4E1352846FDF717FA28465A
:10404000FDF796FA2846FDF7FBFCE800FDF7CFFBED
:10405000FDF7E7FC2846FDF797FD0A20FCF7B7FDC2
:104060000121204601F0E8F80A20FCF7B0FDFEF738
:10407000F2F800204FF07E53024601460090FEF712
:1040800024FE6420FCF7A3FDFFF785F9002038BD6E
:1040900007B5DDE90001884202DB0299884200DDB4
:1040A00008460EBD0CB500205149019000900A68E9
:1040B00042F480320A604FF4A0630A6802F40032CE
:1040C0000092019A521C0192009A12B9019A9A42E6
:1040D000F3D10A68920334D501200090444840305F
:1040E000026842F0805202604248026842F4804214
:1040F00002603F48083002680260026842F40042F1
:104100000260026842F4A0520260031F3A4A1A6039
:104110000A6842F080720A600A689201FCD5374A48
:1041200040F205611160016821F00301016001683E
:1041300041F0020101600168C1F381010229FAD155
:104140000CBD00900CBD2A4810B5016841F001017A
:104150000160274A0021083211600268284B1A408A
:104160000260031D274A1A60026822F4802202605E
:104170001F480C300160FFF795FF23494FF00060A6
:10418000086010BD70B51A4C083420681F4A10F042
:104190000C011F4804D05510042903D0082903D06E
:1041A00002601BE0056019E01149091D0B68C3F3AB
:1041B00080560B6803F03F0316B1B5FBF3F201E044
:1041C000B2FBF3F20B680968C3F388135A43C1F3D7
:1041D0000141491C4900B2FBF1F1016021680C4A20
:1041E000C1F30311121D515C0268CA40026070BD28
:1041F000003802400070004008544007003C024074
:10420000FFFFF6FE1030002408ED00E00024F4006B
:104210007C0100200648804706480047FEE7FEE78D
:10422000FEE7FEE7FEE7FEE7FEE7FEE7FEE7FEE766
:1042300047410008890100082849084328490860C7
:10424000704730B50F22C47801780123FCB1244CAB
:10425000246801F1E02104F4E064C4F5E064C4F3EF
:104260000724C4F10405E2404478AC408578154049
:1042700025432A0181F80024007800F01F018B40BB
:104280004009800000F1E020C0F8003130BD01F0AD
:104290001F0083404809800000F1E020C0F8803111
:1042A00030BD104A114001430D48001F01607047A6
:1042B0000B4A121D0029116801D0014300E081431F
:1042C000116070474FF0E0210428086903D020F006
:1042D00004000861704740F00400FAE70000FA05A6
:1042E0000CED00E080FFFF1F7C4910B5884206D12D
:1042F0000121084600F058FA002101204FE07849DA
:10430000884206D10121022000F04EFA002102204D
:1043100045E07449884206D10121042000F044FAA6
:10432000002104203BE07049884206D10121082089
:1043300000F03AFA0021082031E06C49884206D1A9
:104340000121102000F030FA0021102027E06849F8
:10435000884206D10121202000F026FA00212020E9
:104360001DE06449884206D10121402000F01CFA7A
:104370000021402013E06049884206D101218020BD
:1043800000F012FA0021802009E05C4988420AD13D
:1043900084150121204600F007FA00212046BDE8DF
:1043A000104000F001BA10BDF0B50023012403272E
:1043B0000D6804FA03F21540954242D1D0F800C0CE
:1043C0005E0007FA06F52CEA050CC0F800C091F86B
:1043D00004C0D0F800E00CFA06FC4CEA0E0CC0F861
:1043E00000C091F804C0BCF1010F02D0BCF1020F73
:1043F0001FD1D0F808C02CEA050CC0F808C091F80D
:1044000005C0D0F808E00CFA06FC4CEA0E0CC0F827
:1044100008C0D0F804C02CEA020CC0F804C04268FE
:1044200091F806C00CFA03FC1FFA8CFC42EA0C025D
:104430004260C268AA43C260CA79C568B2402A43D2
:10444000C2605B1C102BB3D3F0BD4FF6FF7101604F
:104450000021017141718171C171704708B541F44A
:1044600080320092C261C1610099C161C169C069B5
:10447000009008BD0246002012690A4200D00120C7
:104480007047006980B270470246002052690A42B4
:1044900000D001207047406980B2704701837047A7
:1044A000418370470AB1018370474183704741617E
:1044B000704742694A40426170474B07DB0E9A40A1
:1044C000C90810B500EB8100016A0F249C40A1438C
:1044D0000162016A1143016210BD00000000024048
:1044E0000004024000080240000C0240001002409C
:1044F0000014024000180240001C0240002002404C
:10450000EA48016841F001010160E84A00210832EF
:1045100011600268E64B1A400260031DE54A1A600A
:10452000026822F480220260E0480C30016070478B
:10453000DE490022891C0A7008707047024600207C
:10454000510901290CD002290CD0D84974310968CD
:1045500002F01F02012393400B4200D0012070475C
:10456000D249F4E7D1497031F1E718B500204FF492
:10457000A06400903120FFF7E1FF0099491C0091F1
:10458000A14201D00028F5D03120FFF7D7FF002845
:1045900000D0012018BDC5490A6822F0F80242EA9D
:1045A000C00008607047C44908607047BF490022D6
:1045B00070310A700A70012802D0042801D1052048
:1045C00008707047BD490860704741EA82115A0877
:1045D00010B5BB4B029C03EB02421143014341EA7D
:1045E0000460B249091D086010BDB34908667047F0
:1045F000800140EA0170AD49843108607047AE49DE
:1046000088667047AC49C8647047A84A0832136886
:10461000084323F0EC63184310607047A34A083244
:104620001368084323F078431843106070479F4A8B
:104630000832116821F003010143116070479B4863
:104640000830006800F00C007047984A0832116882
:1046500021F0F001014311607047944A083211685B
:1046600021F4E051014311607047904908310A6814
:1046700022F4604242EAC0000860704770B58B4A7D
:10468000083211688F4C11F00C0104D06610042917
:1046900003D0082903D004601BE0066019E08349B9
:1046A000091D0B68C3F380550B6803F03F0315B178
:1046B000B6FBF3F301E0B4FBF3F30C680968C4F351
:1046C00088146343C1F30141491C4900B3FBF1F174
:1046D000016011680F2303EA11117B4B5C5C0168D8
:1046E000E14041601468072505EA94241C5D21FA25
:1046F00004F48460126805EA52329A5CD140C160C9
:1047000070BDC0F30121032908D1684A083211683D
:1047100021F4F8136D490140194311606349703168
:104720000A68C0F30B0002430A60704763494439CA
:104730000860704761494039086070475E49C1F8B8
:104740005C017047594A30320029116801D0014399
:1047500000E0814311607047544A343200291168E7
:1047600001D0014300E08143116070474F4A383265
:104770000029116801D0014300E0814311607047B6
:104780004A4A40320029116801D0014300E08143C8
:1047900011607047454A44320029116801D0014335
:1047A00000E0814311607047404A103200291168CF
:1047B00001D0014300E08143116070473B4A14324D
:1047C0000029116801D0014300E081431160704766
:1047D000364A18320029116801D0014300E08143B4
:1047E00011607047314A20320029116801D001431D
:1047F00000E08143116070472C4A2432002911687F
:1048000001D0014300E0814311607047274A5032D4
:104810000029116801D0014300E081431160704715
:10482000224A54320029116801D0014300E081433B
:10483000116070471D4A58320029116801D00143A8
:1048400000E0814311607047184A60320029116806
:1048500001D0014300E0814311607047134A643284
:104860000029116801D0014300E0814311607047C5
:104870000E4A0D320029117801D0014300E0814336
:104880001170704709487430016841F0807101600F
:1048900070470146054A00200C3212680A4200D0D7
:1048A0000120704701490E310870704700380240FE
:1048B000FFFFF6FE1030002400004742800E474202
:1048C0000000FFFF0024F40090010020FFFCFF0F18
:1048D00010B501210C022046FFF78EFF2046BDE8EF
:1048E00010400021FFF788BF30B54268C84B0C79F3
:1048F0001A400B6842EA0422134343608268C54BA6
:104900004D791A40D1E9034323438C6844EA4504B6
:10491000234313438360C26A097D22F47002491E57
:10492000C9B242EA0151C16230BD0021016001718A
:1049300041718160C1600161012101757047B64B11
:1049400010B5D3F80423B5490A40D0E90014214337
:10495000D0E90240044321431143C3F8041310BDBE
:104960000021016041608160C16070470029816859
:1049700002D041F0010101E021F0010181607047A6
:104980004268A74B1A400A43426070474162826204
:104990007047426822F01F020A43426070479E49F6
:1049A0000028D1F8040302D040F4000001E020F414
:1049B0000000C1F80403704797490028D1F80403A8
:1049C00002D040F4800001E020F48000C1F804032C
:1049D000704770B5072409290AD9C568A1F10A06EC
:1049E00006EB4606B440A543B3401D43C56007E04F
:1049F000056901EB4106B440A543B3401D43056181
:104A00001F23072A09D2446B521E02EB82029340F5
:104A10009C4391400C43446370BD0D2A09D2046B42
:104A2000D21F02EB820293409C4391400C430463EB
:104A300070BDC46A0D3A02EB820293409C439140E0
:104A40000C43C46270BD816841F080418160704751
:104A5000014600208968490200D5012070470029DD
:104A6000816802D041F4806101E021F480618160BD
:104A700070470029816802D041F0020101E021F075
:104A80000201816070474268491E22F4604242EA96
:104A90004131416070470029416802D041F4006112
:104AA00001E021F4006141607047C06C80B2704742
:104AB0005948D0F8080370470029816802D041F4B2
:104AC000807101E021F48071816070470029816864
:104AD00002D041F4007101E021F40071816070475F
:104AE0004D490028D1F8040302D040F4005001E001
:104AF00020F40050C1F80403704770B50724092959
:104B00000AD9C568A1F10A0606EB4606B440A543DA
:104B1000B3401D43C56007E0056901EB4106B440A1
:104B2000A543B3401D430561836BC3F30154121BBE
:104B3000921C02EB82041F22A2409343A1400B432C
:104B4000836370BD826B491E22F4401242EA015118
:104B50008163704708B508440090026008BD826810
:104B600022F470220A4382607047826822F4401265
:104B70000A4382607047816841F480018160704718
:104B8000014600208968490200D5012070470029AC
:104B9000416802D041F4806101E021F4806141600C
:104BA00070470029416802D041F4805101E021F4AE
:104BB00080514160704708B5084428300090006873
:104BC00080B208BD01238B4041680AB1194300E05F
:104BD0009943416070470246002012680A4200D0A3
:104BE00001207047C9430160704730B5024600207C
:104BF00053680C0A01258D4011682B40214202D0D8
:104C0000002B00D0012030BD6FEA112101607047F8
:104C1000FFFEFFFCFDF7FFC000200140E030FCFF7D
:104C2000FFFD3FFF2DE9F043016821F00101016024
:104C30000021016041608160C16001612121416109
:104C4000B849B84A3D251039904202D18D60BDE87F
:104C5000F083B44A4FF474661832904201D18E60EA
:104C6000F5E7B04A4FF474173032904201D18F60AB
:104C7000EDE7AC4A4FF0746C4832904202D1C1F873
:104C800008C0E4E7A74BA84A6033984201D1CA6044
:104C9000DDE7A44CA54B7834A04201D1CB60D6E728
:104CA000DFF88082A24C08F19008404501D1CC6029
:104CB000CDE7DFF870824FF03D5908F1A808404574
:104CC00002D1C1F80C90C2E79A49DFF8688208392E
:104CD000404501D10D60BAE7964D1835A84201D183
:104CE0000E60B4E7934D3035A84201D10F60AEE7B6
:104CF000904D4835A84202D1C1F800C0A7E78D4DBC
:104D00008C496035091FA84201D10A609FE7894A92
:104D10007832904201D10B6099E7864A90329042F6
:104D200001D10C6093E7834AA83290428FD1C1F839
:104D300000908CE730B503687F4ACC6813400A685E
:104D40002243D1E905452C432243CC6922430C6A16
:104D500022434C6A22438C6A22434C6B22438C6B65
:104D600022431A430260426922F00703D1E90B246F
:104D700022431A4342610A6942604A688260896834
:104D8000C16030BD0021016041608160C16001618E
:104D900041618161C161016241628162C1620163FD
:104DA0004163816370470029016802D041F001012D
:104DB00001E021F00101016070470029016802D083
:104DC00041F4004101E021F40041016070470029F5
:104DD000016802D041F0200101E021F020010160D2
:104DE000704741607047406880B27047002A02688F
:104DF00002D042F4002201E022F4002202600161AC
:104E000070470029016802D041F4802101E021F4BB
:104E10008021016070470AB101617047C16070472D
:104E2000014600200968090300D5012070470146AA
:104E300000200968C90700D001207047406900F0D0
:104E40003800704702463B4B00209A4202D2354A56
:104E5000103A01E0374A103A8B0001D5526800E061
:104E60001268364B1A400A4200D001207047314A7E
:104E7000904202D22B48103801E02E4810382F4AB9
:104E80008B0001EA020101D5C16070478160704763
:104E90000B0607D5436912B143F0800301E023F00C
:104EA00080034361802908D0002A026801F01E01B6
:104EB00001D00A4300E08A430260704730B51D4AC2
:104EC0000024904202D2174B103B01E0194B103BDB
:104ED0001B4A114205D01E2202EAD12502682A404F
:104EE00002E0406900F08002880001D5586800E0C7
:104EF0001868124B1840084201D002B10124204624
:104F000030BD0C4A904202D20648103801E00948F0
:104F100010380A4A8B0001EA020101D5C1607047CE
:104F200081607047106002403D000020400F00206B
:104F300000003D20106402403F801CF07D0F7D0F7B
:104F40003C0F3C0F374900200860091D0860091D0F
:104F50000860091D08603349334814310860704700
:104F600030B530498379026853B30B6893430B60C3
:104F70000A1D13680468A343136002790A44136886
:104F8000046823431360274A083213680468A34364
:104F90001360131D1C680568AC431C604479102C19
:104FA00005D021440A68006802430A6030BD1168D8
:104FB000046821431160196800680143196030BD1D
:104FC0000079084401689143016030BD002101600F
:104FD00001710C22427181717047124910310A68C7
:104FE00002430A60704701460E4A002014321268DC
:104FF0000A4200D0012070470A4914310860704706
:10500000084A014600201268064B0A4014331B6808
:105010000B4202D0002A00D0012070470149143110
:1050200008607047003C0140FFFF7F00FE4910B55B
:10503000884206D101210846FFF7DEFB002101204E
:105040005BE0B0F1804F09D0F84988420DD10121D1
:105050000220FFF7C7FB0021022070E00121084673
:10506000FFF7C0FB0021012069E0F149884206D129
:1050700001210420FFF7B6FB002104205FE0ED4989
:10508000884206D101210820FFF7ACFB002108204F
:1050900055E0E949884206D101211020FFF7A2FB23
:1050A000002110204BE0E549884206D10121202053
:1050B000FFF798FB0021202041E0E149884206D11A
:1050C00001210220FFF798FB0021022015E0DD49B5
:1050D000884202D101210C040AE0DB49884202D156
:1050E00001214C0404E0D94988420AD101218C04F1
:1050F0002046FFF781FB00212046BDE81040FFF766
:105100007BBBD349884206D101214020FFF76AFBCF
:105110000021402013E0CF49884206D101218020A0
:10512000FFF760FB0021802009E0CB4988420AD1CB
:10513000841501212046FFF755FB00212046BDE8DC
:105140001040FFF74FBB10BD30B50288B64BBC4CCA
:1051500098420DD0A0420BD0B0F1804F08D0B34D93
:10516000A84205D0B24DA84202D0B24DA84203D108
:1051700022F070054A882A43AF4DA84206D0AF4DB1
:10518000A84203D022F440750A892A4302804A6863
:10519000C2620A880285984201D0A04201D1897A70
:1051A00001860121818230BD4FF0FF314160002135
:1051B0000180018141808172704701858282704740
:1051C000028822F070020A430280704741627047F1
:1051D000C1627047406A7047008D7047002901889E
:1051E00002D041F0020101E021F00201018070478C
:1051F0000029018802D041F0040101E021F00401FE
:10520000018070470029018802D041F0800101E04F
:1052100021F0800101807047028822F0080202809C
:1052200002880A4302807047028822F4407202809A
:1052300002880A43028070470029018802D041F0A9
:10524000010101E021F001010180704730B5028CBD
:1052500022F001020284028C8388048B22F0020275
:1052600024F073050C882C438D8915434A882A4302
:105270006D4DA84202D0724DA8420DD122F0080512
:10528000CA8923F440732A4322F004058A882A43FA
:105290000D8A1D434B8A2B438380048389684163B5
:1052A000028430BD70B5028C22F010020284028CA0
:1052B0008488038B0D8823F4E6464FF6FF7303EAD8
:1052C000052535438E8922F0200203EA061616438F
:1052D0004A8803EA02123243534EB04202D0584E7B
:1052E000B04215D122F08006CA8924F4406403EA52
:1052F0000212324322F040068A8803EA0212324345
:105300000E8A03EA860626434C8A03EA8404344361
:105310008480058389688163028470BD70B5028CC6
:1053200022F480720284028C8488838B0D8823F09F
:1053300073031D4322F400738E894FF6FF7202EA55
:1053400006261E434B8802EA03233343364EB042FF
:1053500002D03B4EB04215D123F40066CB8924F431
:10536000405402EA0323334323F480668B8802EA25
:10537000032333430E8A02EA061626434C8A02EAC6
:1053800004143443848085838968C163038470BDB9
:1053900070B5028C22F480520284048C8288838B44
:1053A0000D8823F4E6464FF6FF7303EA05253543DF
:1053B00024F400568C8903EA043434434E8803EA0B
:1053C00006362643184CA04202D01D4CA04205D1FF
:1053D00022F480440A8A03EA82122243828085836F
:1053E00089680164068470BD00210180418081804C
:1053F00081608181C18101824182704730B5012481
:10540000058C00F118038C40A543058431B30829AD
:105410002CD0091FC1F34E001844016848F6FF73F1
:105420001940016001681AE00000014000040040DA
:1054300000080040000C0040001000400014004034
:105440000004014000400140004401400048014088
:1054500000180040001C00400020004006E04FF60D
:10546000FF7303EA02221143016030BD03EB5100D8
:1054700001684FF68F73194001600168F3E74163DB
:10548000704781637047C163704701647047028B46
:1054900022F070020A4302837047028B4FF6FF73BB
:1054A00022F4E04203EA0121114301837047828B19
:1054B00022F070020A4382837047828B4FF6FF739B
:1054C00022F4E04203EA0121114381837047028BF9
:1054D00022F008020A4302837047028B4FF6FF73E3
:1054E00022F4006203EA0121114301837047828B99
:1054F00022F008020A4382837047828B4FF6FF73C3
:1055000022F4006203EA0121114381837047028B78
:1055100022F004020A4302837047028B4FF6FF73A6
:1055200022F4806203EA0121114301837047828BD8
:1055300022F004020A4382837047828B4FF6FF7386
:1055400022F4806203EA0121114381837047028BB8
:1055500022F080020A4302837047028B4FF6FF73EA
:10556000C2F30E0203EA0121114301837047828BCB
:1055700022F080020A4382837047828B4FF6FF73CA
:10558000C2F30E0203EA0121114381837047028CAA
:1055900022F002020A4302847047028C22F00802C1
:1055A0000A4302847047028C4FF6FF7322F02002F8
:1055B00003EA0111114301847047028C4FF6FF7317
:1055C00022F0800203EA0111114301847047028C2A
:1055D0004FF6FF7322F4007203EA012111430184A4
:1055E0007047028C4FF6FF7322F4006203EA012138
:1055F000114301847047028C4FF6FF7322F400526E
:1056000003EA013111430184704710B50123048C72
:105610008B409C430484038C8A401343038410BD55
:1056200010B50423048C8B409C430484038C8A4073
:105630001343038410BD828B22F440628283828BE9
:105640004FF6FF7303EA01210A4382837047828B7E
:1056500022F00C028283828B0A4382837047028B82
:1056600022F440620283028B4FF6FF7303EA0121AA
:105670000A4302837047F0B5048C24F010040484BC
:10568000078B068C4FF6FF7404EA011527F4734765
:1056900004EA0331394304EA02220A4326F0A00156
:1056A000294341F0100102830184F0BD028B22F0F6
:1056B0000C020283028B0A43028370472DE9F041FA
:1056C0000D460E884988AA882B8904460EB3042EFD
:1056D00026D0082E268C4FF6FF7028D026F4805650
:1056E0002684A78B268C00EA022200EA013127F4E7
:1056F00073473A4300EA0330104326F420420A433A
:1057000042F48051A0832184E9882046BDE8F0411D
:1057100091E700F062F9E9882046BDE8F041C5E76D
:10572000FFF7A9FFE9882046BDE8F04197E726F496
:1057300080762684A78B268C00EA012100EA0310DC
:10574000104327F0F307384326F420620A4342F45B
:105750008071A0832184E9882046BDE8F04176E786
:1057600000210180418001228280C1800181704737
:105770002DE9F0410C46002649880746012501B96C
:105780000226A288012A00D1022520882389002828
:10579000384610D0FFF76FFFE1883846FFF75FFF0C
:1057A00023892A463146384600F017F9E188384601
:1057B000BDE8F0417AE700F010F9E1883846FFF7DC
:1057C00075FF23892A4631463846FFF754FFE188A2
:1057D0003846BDE8F04142E7406B7047806B704748
:1057E000C06B7047006C704710B50A884B88CC8836
:1057F0001A438B8823431A430B891A434B8989899F
:105800001A430A43A0F8442010BD002101804180C2
:105810008180C1800181418181817047002930F8F8
:10582000441F02D041F4004101E0C1F30E010180A8
:1058300070470029818802D041F0040101E021F085
:105840000401818070470029818802D041F0010164
:1058500001E021F0010181807047002A828901D096
:105860000A4300E08A438281704781827047024682
:105870000020128A0A4200D001207047C9430182E9
:10588000704702460020138A92890B4202EA010205
:1058900002D0002A00D001207047C943018270471E
:1058A0001143A0F848107047002A828901D00A43AA
:1058B00000E08A43828170470029818802D041F04C
:1058C000080101E021F0080181807047018921F081
:1058D000070101817047028922F070020A430281A8
:1058E000704700B50346FFF7F6FF188940F0070040
:1058F000188100BD70B516460D46602904464FF06C
:10590000010231460AD000F068F829462046FFF728
:10591000E2FF208940F00700208170BDFFF7ABFE59
:10592000F3E730B504894FF6FF7505EA0323134307
:10593000E4B20B432343038130BD10B50446FFF7A7
:10594000F0FF208940F07700208110BD10B504469B
:10595000FFF7E7FF208940F48040208110BD828856
:1059600022F07002828082880A4382807047028916
:1059700022F00702028102890A43028170470289EC
:1059800022F08002028102890A430281704770B5C9
:105990000589048B068C25F007050D434FF6FC4165
:1059A0000C4040F201110C434FF6FF7101EA031164
:1059B00026F022061143314305810483018470BD22
:1059C0000029818802D041F0800101E021F08001AE
:1059D00081807047A0F85010704770B5048C24F097
:1059E00001040484058B048C4FF6FF7606EA03134A
:1059F000134325F0F3052B4324F00A020A4342F037
:105A000001010383018470BDC74910B5884206D1E6
:105A100001211020FEF7F0FE0021102028E0C349EC
:105A2000884202D101214C0410E0C149884202D1D0
:105A300001218C040AE0BF49884202D10121CC0433
:105A400004E0BD4988420AD101210C052046FEF739
:105A5000C9FE2046BDE810400021FEF7C3BEB7498D
:105A6000884209D101212020FEF7C6FE0021202016
:105A7000BDE81040FEF7C0BE10BD7FB50446008AE9
:105A80000D4620F44051E88808432082A08941F265
:105A90000C618843A9882A8911436A89024311430A
:105AA000A181A08A20F44071A8890843A082684699
:105AB000FEF7E4FD9C48844202D0A048844201D114
:105AC000039800E00298A189090400EBC00101EBF2
:105AD0000010296801D5490000E08900B0FBF1F20F
