:020000040800F2
:10000000803B012045420008390200083B020008FD
:100010003D0200083F020008410200080000000005
:10002000000000000000000000000000A101000826
:100030004302000800000000E50100088D7100087F
:100040005F4200085F4200085F4200085F4200080C
:100050005F4200085F420008C50400085F420008D4
:10006000C30400085F4200085F4200083303000831
:100070000D030008A1030008AB0300086902000893
:100080005F4200087F0300085F4200085F420008EB
:100090005F4200085F4200085F420008CB0400088E
:1000A0005F420008110400083D0400085F42000898
:1000B0003F0400085F0400087F0400085F42000856
:1000C0005F4200085F4200085F420008BF0400086A
:1000D0005F420008490200085F4200085F420008D2
:1000E000030700085F4200085F4200085F42000803
:1000F0005F4200085F4200085F42000855030008A5
:100100005F4200085F4200089F040008C104000825
:100110005F420008331A0008D703000809040008EA
:100120009702000871020008BD0200085F42000843
:100130005F4200085F4200085F4200085F4200081B
:100140005F4200085F4200085F4200085F4200080B
:10015000030300085F4200085F4200085F42000896
:100160005F4200085F4200085F4200085F420008EB
:100170005F4200085F4200085F4200085F420008DB
:100180005F4200085F420008DFF810D007F0D4FC9F
:100190000048004721400008AFF30080803B012069
:1001A000224B19680868B0E8F00F80F30988BFF3A4
:1001B0006F8F4FF0000080F311884EF00D0E7047E6
:1001C0000000000006480068006880F3088862B6F6
:1001D00061B6BFF34F8FBFF36F8F00DF00BF00BF6B
:1001E00008ED00E0EFF30980BFF36F8F0F4B1A6843
:1001F00020E9F00F106008B54FF0500080F311882F
:10020000BFF34F8FBFF36F8F06F0A2F84FF00000DF
:1002100080F31188BDE8084019680868B0E8F00F5D
:1002200080F30988BFF36F8F704700BF90010020F3
:10023000EFF30580704700007047FEE7FEE7FEE73A
:10024000FEE770477047704710B5F84C40F22551F3
:10025000204605F05CFD002805D02046BDE8104092
:10026000202105F051BD10BDF149F24804F061BEF6
:1002700070B5F14CF14D2146284604F037FE0028B8
:1002800008D02146284604F054FE01F061FCEC49F8
:100290000120087070BD70B5E84DEA4C183D21464C
:1002A000284604F023FE002807D001F097FF2146DE
:1002B0002846BDE8704004F03CBE70BDDF4810B574
:1002C000E149183004F035FEE048417A0D2905D0A7
:1002D000BDE810400021D54805F058BC41780278AF
:1002E00041EA0221DA4A1180C178827841EA02218A
:1002F000D84A11804179007941EA0020D649088026
:1003000010BDCE48D549603004F013BE70B5C94D5C
:10031000C94C483D2146284604F0E8FD002807D096
:100320002146284604F005FEBDE8704000F0A7BB5A
:1003300070BD70B5BF4DC34C603D2146284604F0EA
:10034000D5FD002805D021462846BDE8704004F0C0
:10035000F0BD70BD70B5B74CC14D4834294620463C
:1003600004F0C4FD002809D00021204604F033FD2C
:1003700029462046BDE8704004F0DBBD70BD70B575
:10038000AC4DB84C30352146284604F0AFFD00286E
:1003900005D021462846BDE8704004F0CABD70BDB6
:1003A000A448A349303804F0C4BD10B5A14CAE49EF
:1003B000183C204604F09AFD00280BD04FF0C051A5
:1003C000204604F06CFD0021204604F004FDA749FE
:1003D0000020086010BD10B50121A54805F075FA90
:1003E000A4480078914CA08003F072F90121A24842
:1003F00005F0CCFB0121A14805F0C8FB2046BDE873
:100400001040012105F0C2BB01219D4805F05DBAF5
:1004100010B59C4C0121204605F04BFA00280CD069
:100420000121204605F051FA2088C106964801684E
:1004300001D5491E00E0491C016010BD704710B590
:1004400001218C07204605F040FA2088C1068F481C
:10045000016801D5491E00E0491C016010BD10B5BE
:100460008B4C0121204605F030FA2088C1068948CE
:10047000016801D5491E00E0491C016010BD10B59E
:10048000854C0121204605F020FA2088C1068348CA
:10049000016801D5491E00E0491C016010BD10B57E
:1004A0007F4C0121204605F010FA2088C1067D48C6
:1004B000016801D5491E00E0491C016010BD70476C
:1004C00070477047012004F0B3BD2DE9F05F4FF491
:1004D000807B754D5C465946284603F0E3FF07468E
:1004E0004FF4007A5146284603F0DCFF06462021EF
:1004F0006E4803F0D7FF0546204604F099FD6C4C8A
:100500004FF0000948B3012F03D0B6B3012E38D005
:1005100020E0DFF86C81404604F074FE65490A680B
:1005200002EB421202EB42021044634A1060C1F82F
:1005300000900021404604F061FE012E01D026B15A
:1005400008E03DB92068401C03E0012D02D120687D
:10055000401E2060584604F079FDD346504604F012
:1005600067FDDFF858814FF0010A90B3012E0BD0E0
:1005700098F80000012812D01BE0FFE7012DE1D020
:10058000E8E7002DE3D0E5E73D4804F03BFEC8F87E
:10059000100088F800A087B1012F13D016E038486A
:1005A00004F030FED8F81020801AC8F8080088F847
:1005B0000090012F1AD0E7B108E0012D06D1206884
:1005C000401C02E015B92068401E2060584604F027
:1005D0003DFD202004F02CFD002826D0012D0BD05D
:1005E00098F801004546012811D018E0002DE6D00A
:1005F000ECE7012DE7D0E9E7214804F003FEC8F855
:10060000140088F801A0012F5AD067B161E01C489E
:1006100004F0F8FD6969401AE86085F801901FB19F
:10062000012F5ED055E04FE058E05DE00010014042
:100630002080002070600240008800102864024082
:100640001A0000202080001000802010FA090020ED
:10065000280000202C0000202E0000200088002010
:1006600000800028008020200080001870000020FA
:10067000001000401D000020004800400014014010
:100680000014004000000140CC000020D0000020F9
:1006900000040040D400002000080040D8000020E2
:1006A000000C0040DC000020000802400010024066
:1006B000680100206401002060010020000000208B
:1006C0003EB92068401C03E0012E02D12068401E84
:1006D0002060BDE8F05F202004F0B8BC012EF0D00F
:1006E000F7E7002EF2D0F4E7BDE8F09F074948682D
:1006F0008A68824200D98868CA68824200D9C8687C
:1007000070474FF4004004F093BC0000000000204C
:1007100070B5054606F096FD04462946FC4806F0ED
:1007200098FD002816D095222946F94806F07EFD4E
:10073000F84D0021284604F04EFBF648F449B8383D
:10074000C0F8C410C0F8BC402846BDE87040012184
:1007500004F041BB70BD70B5EF4D06460024315D1D
:1007600000290BD0284605F037FA8021284605F0ED
:10077000C4FA0028F9D0641CE4B2F0E770BD70B58B
:10078000E54E05460024002D0DD02946304605F0E3
:1007900023FA8021304605F0B0FA0028F9D0641C15
:1007A000E4B2032CEFD370BD13B50C460020FFF765
:1007B000E6FFDAA0FFF7CFFFD5482346D8A296215F
:1007C000E63807F003FAD248E638FFF7C4FFD5A0B1
:1007D000FFF7C1FFCE48D2A29621E638009B07F072
:1007E000F5F9CB48E638FFF7B6FFD0A0FFF7B3FF27
:1007F000FF20FFF7C4FFFF20FFF7C1FFBDE81C404B
:10080000FF20BCE770B505460C46C4A0FFF7A3FF68
:10081000BF482246C2A1E63807F0F2F9BC48E638E4
:10082000FFF799FFBFA0FFF796FF2846FFF793FF5A
:10083000BEA0FFF790FFBDE87040FF209FE777B5AF
:10084000B8A185B00646D1E90001CDE90001B7A005
:10085000002200680390B1A0AD4D0068283DA5F1CD
:1008600028030290AA4C1146A3F19600A95499546A
:100870008154A154521CD2B21E2AF7D30A2101700E
:10088000FF2444708470C470A148A5A15038079A11
:1008900007F0B6F99E4902A8503906F0BBFC9C4807
:1008A00002A9E63806F0B6FC99486946E63806F033
:1008B000B1FC97483146E63806F0ACFC944898A164
:1008C0005038069A07F09CF991495039A1F19600E9
:1008D00006F0A0FC8E4803A9E63806F09BFC8C4984
:1008E0002C706C702839AC70A1F1BE0006F092FC3F
:1008F0008748E638FFF70CFF08B070BD2DE9F741D7
:10090000884688A185B00646D1E90001CDE90001FD
:1009100086A000220068039080A07D4D0068283DDD
:10092000A5F1280102901446A1F19600AC548C5414
:100930008454521CD2B20A2AF8D30A210170FF272C
:1009400047708770C770724875A15038079A07F0D2
:1009500057F96F4902A8503906F05CFC6C4802A9AF
:10096000E63806F057FC6A486946E63806F052FC5D
:1009700067483146E63806F04DFC65484146E638A2
:1009800006F048FC624803A9E63806F043FC2F70E5
:100990006F705F49AF70EC7028392C71A1F1BE0007
:1009A00006F038FC5A48E638FFF7B2FE08B0BDE85A
:1009B000F08101B58EB05EA2322168460E9B07F031
:1009C00005F96846FFF7A4FE0FB000BD73B555A149
:1009D00084B00646D1E90001CDE9000153A0002210
:1009E000006803904DA04A4D0068283DA5F12803FA
:1009F0000290474C1146A3F19600A9549954815492
:100A0000A154521CD2B21E2AF7D30A210170FF242E
:100A100044708470C4703E4841A15038059A07F074
:100A2000EFF83B4902A8503906F0F4FB384802A918
:100A3000E63806F0EFFB36486946E63806F0EAFB92
:100A400033483146E63806F0E5FB31495039A1F12B
:100A5000960006F0DFFB2E4803A9E63806F0DAFB25
:100A60002B492C706C702839AC70A1F1BE0006F0D7
:100A7000D1FB2748E638FFF74BFE06B070BDF0B556
:100A80002E4885B001784278C4780A4481780B19E1
:100A90001A4403791A4443791A4483791A44C3796E
:100AA0001344027A1344DBB202F00F0202938DF872
:100AB0000020407A984201D10D2A0AD09DF800000A
:100AC0000D2869D005B00021BDE8F0401C4805F0B4
:100AD0005DB8C1F17F0006F03DFE0546A4F181003E
:100AE00006F038FE044615F0FF4F4FF07E5000D15F
:100AF000054614F0FF4F00D10446284606F044FE98
:100B00000746204606F040FE002F1BDB3A461AE05F
:100B1000E6020020B860024000500040740000006F
:100B2000256400002E7478743D220000220000002D
:100B30006A302E76616C3D2564000000090A0020B1
:100B4000004800407A42011E00DA4142114401EBA4
:100B5000D1714910FE4EF165002800DA404232287A
:100B600006DA380000D57842322801DA002012E097
:100B7000204606F041FE07460C46284606F03CFE9D
:100B80003A46234607F06CFD4FF00042F14B06F069
:100B9000E9FC06F012FEB06505B0F0BDEE48017A42
:100BA00001F00F010D2904D10078C00701D00D20FC
:100BB000704700207047E8480078800701D5012081
:100BC00070470020704701B581B0019800EBC0006C
:100BD00040000090002801D0401EFAE70CBD01B58E
:100BE00081B044F25061019848430090002801D040
:100BF000401EFAE70CBD1CB501210F2003F0BAFD21
:100C00004CF6804000906946D44803F0E5FB4FF471
:100C1000034000906946D24803F0DEFB41F6031022
:100C2000009001208DF8040000218DF806108DF849
:100C3000070003208DF805006946CA4803F0CCFB85
:100C40004FF6C17000906946C74803F0C5FB1CBD54
:100C50001CB50121162003F08DFD00208DF8040045
:100C600001208DF8070002208DF805004FF4C040E8
:100C700000906946BA4803F0AFFB03200090694634
:100C8000B64803F0A9FB4FF2FF5000906946B74801
:100C900003F0A2FB1CBD1FB54FF4E06003F0E4FAC3
:100CA00036208DF80C0002208DF80D008DF80E0016
:100CB00001208DF80F0003A803F0DBFA01211020BA
:100CC00003F076FD3220ADF8000040F2E7300190ED
:100CD0000020A74CADF80800ADF802006946204698
:100CE00004F04AFA0121204604F0EFFD01221146EA
:100CF000204604F0CAFD0021204604F07FFA0121BD
:100D0000204604F0B1FA1FBD1FB54FF4E06003F0B8
:100D1000ABFA37208DF80C0000248DF80D408DF8CB
:100D20000E4001208DF80F0003A803F0A2FA012164
:100D3000202003F03DFD3220ADF80000ADF8084062
:100D4000ADF8024063208B4C01906946204604F0C8
:100D500013FA0121204604F0B8FD01221146204675
:100D600004F093FD0021204604F048FA01212046BA
:100D700004F07AFA1FBD70B58AB00121042003F097
:100D800017FD01210D2003F0F5FC744E02220C2109
:100D9000304603F0AAFB02220D21304603F0A5FBEA
:100DA00002220E21304603F0A0FB02220F21304622
:100DB00003F09BFB4FF47040059002208DF8180063
:100DC00003208DF8190000248DF81A4001258DF8B4
:100DD0001B5005A9304603F0FFFAA420ADF81C0013
:100DE0002802654E0890ADF82400ADF81E4007A912
:100DF000304604F0C1F97020ADF80000ADF80250A3
:100E00000294ADF80C400121304604F02DFA002187
:100E1000304604F0F3F96946304604F02FFA69468B
:100E2000304604F057FA6946304604F08FFA6946B6
:100E3000304604F0C5FA0AB070BD2DE9F047012133
:100E40008AB0084603F0B4FC0121022003F0B0FC94
:100E50000121032003F08EFCDFF8089101220F210D
:100E6000484603F042FBDFF800810122032140469F
:100E700003F03BFB02220421404603F036FB022232
:100E80000521404603F031FB02268DF8046003275C
:100E900038208DF80570002400908DF8064001255B
:100EA0008DF807506946404603F096FA8DF80460C5
:100EB000E8038DF8057000908DF806408DF8075016
:100EC0006946484603F088FA4FF6FF70ADF80C40CB
:100ED00004904FF08049ADF81440ADF80E4003A9DE
:100EE000484604F049F9DFF894A003A9504604F0FD
:100EF00043F94FF004081420ADF81880ADF8200035
:100F0000ADF81A60ADF81C5006A9484604F0EEFB97
:100F100006A9504604F0EAFB02231A46032148467C
:100F200004F04DFD02231A460321504604F047FD0C
:100F30000121484604F0C9FC0121504604F0C5FCDB
:100F400001221146484604F0A0FC0122114617E098
:100F500098000020A9E78140090A0020000C024007
:100F6000000802400000024000040240001002405D
:100F70000010004000140040000800400004004041
:100F8000504604F082FC0121484604F06DF901212D
:100F9000504604F069F90021484604F02FF9002179
:100FA000504604F02BF9780203F05EF91D208DF80D
:100FB00008008DF809708DF80A408DF80B5002A8D2
:100FC00003F057F91C208DF808008DF809808DF882
:100FD0000A408DF80B5002A803F04BF90AB0BDE8A7
:100FE000F0872DE9F04101218AB0084603F0EAFBC1
:100FF0000121102003F0BEFB4FF4206000904FF061
:10100000020803208DF8048000248DF805008DF877
:10101000064001258DF807506946FE4F384603F01B
:10102000DBF94FF6FF70FC4EADF808400390ADF8C9
:101030001040ADF80A4002A9304604F09DF80122A4
:101040000921384603F051FA01220B21384603F0FA
:101050004CFA0427C820ADF81470ADF81C00ADF8A8
:101060001680ADF8185005A9304604F03FFB022366
:101070001A460321304604F0A2FC0121304604F058
:1010800024FC01221146304604F0FFFB01213046CA
:1010900004F0EAF80021304604F0B0F8B48235805C
:1010A0004FF4C06003F0E0F819208DF820008DF8AF
:1010B00021708DF822408DF8235008A803F0D9F84C
:1010C0000AB074E42DE9F0418AB00121042003F054
:1010D0006FFB0121082003F04DFB4FF44050022626
:1010E00000908DF8046003208DF805000024CB4F9C
:1010F0008DF8064001258DF807506946384603F003
:101100006BF94FF6FF70DFF81883ADF808400390D5
:10111000ADF81040ADF80A4002A9404604F02CF8A2
:1011200002220C21384603F0E0F902220D21384654
:1011300003F0DBF90427C820ADF81470ADF81C00EB
:10114000ADF81660ADF8185005A9404604F0CEFA87
:1011500002231A460321404604F031FC0121404697
:1011600004F0B3FB01221146404604F08EFB01213E
:10117000404604F079F80021404604F03FF8A848C2
:1011800014300480A8F800504FF4C06003F06CF8ED
:101190001E208DF820008DF821708DF822408DF8EA
:1011A000235008A803F065F88AE72DE9F0418AB0DA
:1011B0000121082003F0FCFA0121084603F0DAFAC5
:1011C000032002268DF804608DF805000024954F59
:1011D00000908DF8064001258DF807506946384685
:1011E00003F0FAF84FF6FF70DFF83C82ADF80840E4
:1011F0000390ADF81040ADF80A4002A9404603F054
:10120000BBFF02220021384603F06FF902220121C0
:10121000384603F06AF90427C820ADF81470ADF819
:101220001C00ADF81660ADF8185005A9404604F052
:101230005DFA02231A460321404604F0C0FB012157
:10124000404604F042FB01221146404604F01DFBDB
:101250000121404604F008F80021404603F0CEFF8B
:10126000714814300480A8F800504FF4C06002F0B8
:10127000FBFF32208DF820008DF821708DF8224080
:101280008DF8235008A802F0F4FF19E72DE9F0418A
:101290009CB00121654803F06DFA01210E02304631
:1012A00003F090FADFF8888101221021404603F014
:1012B00007FE38208DF86C0000248DF86D408DF805
:1012C0006E4001258DF86F501BA802F0D2FF5948DF
:1012D00002A9CDE9004058480E2781E89100A802F4
:1012E000CDE90540400007908000CDE908060AA935
:1012F000000181E831000D94694640460E9403F0E8
:1013000031FD0121404603F066FD012003F05FFB43
:10131000FC2003260F908DF840608DF843400FA904
:10132000404803F059F830020F908DF840608DF876
:1013300043400FA9414803F04FF83F200F908DF82C
:1013400040608DF843400FA93D4803F045F8300454
:10135000CDE91740199417A81A9403F008FB1194CB
:10136000139414941594334C8DF848504C3C8DF8DC
:1013700049508DF8587011A9204603F0CDFA072383
:1013800001220221204603F03CFB07230222032115
:10139000204603F036FB072303220421204603F0F6
:1013A00030FB072304220521204603F02AFB0723F4
:1013B00005220621204603F024FB072306221946B6
:1013C000204603F01EFB07231A460821204603F09F
:1013D00018FB072308220921204603F012FB0723EC
:1013E00009220A21204603F00CFB07230A220B21C5
:1013F000204603F006FB07230B220C21204603F0B6
:1014000000FB07230C220D21204603F0FAFA0723E4
:101410000D2217E00010024000000140000C0240C5
:101420000008004000000240000C0040070040009F
:10143000106402404C2001407C0300200004024064
:10144000000802400E21204603F0DBFA07230E229B
:101450000F21204603F0D5FA0121204603F04EFB70
:101460000121204603F040FB0121204603F096FABB
:10147000204603F000FB1CB0BDE8F08170B50546C6
:1014800096B00121102003F09DF90121084603F0D8
:1014900071F90121880503F06DF94FF4C0601390D4
:1014A00002208DF8500000248DF852408DF85340F2
:1014B000FF4E8DF8510013A9304602F08DFF072230
:1014C0000921304603F011F807220A21304603F0C3
:1014D0000CF80F95ADF844400C20F64DADF84040A7
:1014E000ADF84600ADF84240ADF848400FA9284697
:1014F00004F0DBFA0121284604F048FB4FF4A06019
:1015000002F0B2FE3A208DF8540001218DF85510FA
:101510008DF856108DF8571015A802F0AAFEE64E69
:10152000304603F097FB4FF000600090E348CDE9B0
:1015300002040A200490281D01900015CDE9054001
:101540008010CDE9084040020A9004200B900794D7
:101550000320CDE90C04694630460E9403F002FCEA
:1015600001224021284604F0A8FB01221021304628
:1015700003F0A6FC0121304603F02DFC16B070BD2F
:101580002DE9F04F8046012197B0880403F010F94F
:101590000121082003F0EEF80121480503F0EAF8E4
:1015A00002268DF8546000244FF440708DF85640A8
:1015B0000125C34F14908DF857508DF8556014A92C
:1015C000384602F009FF07220821384602F08DFF55
:1015D00007220921384602F088FFDFF8E8B2ADF8AB
:1015E0004440ADF848400C27CDF84080ADF8464067
:1015F000ADF84C40ADF84A7010A9584604F055FAC1
:101600000121584604F0C2FA4FF4A06002F02CFE0B
:101610008DF83C708DF83D508DF83E508DF83F5060
:101620000FA802F026FE0E208DF83C008DF83D60DC
:101630008DF83E408DF83F500FA802F01AFEDFF8FB
:1016400088A2504603F006FB9C48ED060F30CDE91A
:10165000020404A90A206F1481E8910008A84FF43D
:1016600080784FF40039079480E810030BF10406EA
:101670000B94CDE900566946504603F073FB0122F6
:101680004021584604F019FB01221021504603F076
:1016900017FC0121504603F09EFBDFF82CA20AF153
:1016A000300A504603F0D6FA844800952138CDE937
:1016B00001604020039004A9212081E8910008A83E
:1016C000079480E81003694650460B9403F04AFBE8
:1016D00001228021584604F0F0FA012210215046E0
:1016E00003F0EEFB0121504603F075FB17B0BDE897
:1016F000F08FF0B50646012197B0C80403F058F802
:101700000121084603F036F80121480503F032F8BC
:1017100002208DF8500000248DF852408DF853407F
:10172000634F03258DF85100139513A9384602F035
:1017300053FE08220021384602F0D7FE082201217C
:10174000384602F0D2FE0F96ADF844400C205F4EB2
:10175000ADF84040ADF84600ADF84240ADF8484025
:101760000FA9304604F0A1F90121304604F00EFA29
:101770004FF4A06002F078FD0D208DF854008DF834
:1017800055408DF8564001208DF8570015A802F0FD
:1017900070FD4D4F1837384603F05CFA780500901D
:1017A000464869461E30CDE9020408200490301DE9
:1017B00001900015CDE905408010CDE908404002B8
:1017C00007940A900420CDE90C540B9038460E94EF
:1017D00003F0C8FA01224021304604F06EFA0122DB
:1017E0004021304604F069FA01221021384603F006
:1017F00067FB0121384603F0EEFA17B0F0BD2DE982
:10180000F0478246012196B0480502F0B3FF01215E
:10181000080502F0CDFF01210C2002F0ABFF0226EB
:101820008DF84460002404208DF846400125DFF83F
:10183000908010908DF8475003278DF8457010A9BF
:10184000404602F0C9FD2803DFF8849010908DF81F
:1018500044608DF8475010A9484602F0BDFD0822AB
:101860000221404602F041FE08220C21484602F0C7
:101870003CFECDF848A0ADF850400C20DFF854A055
:10188000ADF84C40ADF85200ADF84E40ADF85440C4
:1018900012A9504604F009F94FF4A06002F0E4FCEC
:1018A0002F208DF83C0005208DF83D0014E000004D
:1018B000000002400010014040640240FA0900208C
:1018C000000C02400048004028600240004C0040EC
:1018D00000080240005000408DF83E008DF83F5057
:1018E0000FA802F0C6FC0B208DF83C008DF83D607F
:1018F0008DF83E608DF83F500FA802F0BAFC3520FD
:101900008DF83C008DF83D508DF83E508DF83F50DD
:101910000FA802F0AEFCDFF80494484603F09AF9F1
:1019200040200390FE48ED06029004A995206E1415
:1019300081E851000794A8120894CDE90940CDE947
:101940000B470AF10408CDE900580D946946484652
:101950000E9403F007FA01221021484603F0B0FA72
:10196000EE4FA83F384603F075F9EE48CDE9020482
:1019700004A9802081E851004000CDE908404FF4DF
:101980004030CDE90A04CDE9005807940C940D9439
:10199000694638460E9403F0E5F9012240F22441ED
:1019A000504604F092F901228021504604F085F956
:1019B00001224021504604F080F90121384603F00D
:1019C0000AFA0121504604F0E1F816B0BDE8F087AC
:1019D00070B5D248A83803F01EFAD34CC0F180008D
:1019E0000104E089090C00F10100E0811BD0002016
:1019F000CC4A4B1E1AE0155C552D15D115186D7883
:101A00000C2D11D100F10E058D420DD8C44B0021D3
:101A1000F23B45181544AD785D54491C89B20C2938
:101A2000F7D30120607070BD401C80B29842E2DBA9
:101A300070BD10B5BD4C40F22441204604F067F95A
:101A4000002804D02088A088BDE81040C0E710BD61
:101A5000F0B5054697B00121202002F0B3FE012128
:101A6000042002F087FE0121880502F083FEC020D9
:101A7000139002208DF8500000248DF852408DF80C
:101A80005340AB4E8DF8510013A9304602F0A4FC30
:101A900008220621304602F028FD082207213046A0
:101AA00002F023FDADF844400C20A24EADF84040BA
:101AB000ADF846000F95ADF84240ADF848400FA98B
:101AC000304603F0F2FF0121304604F05FF84FF496
:101AD000A06002F0C9FB39208DF8540003258DF871
:101AE000555001218DF856108DF8571015A802F0A9
:101AF000C0FB914F384603F0ADF8B8050090894817
:101B000069468030CDE902040F200490301D019019
:101B10000015CDE905408010CDE90840400207944A
:101B20000A900420CDE90C540B9038460E9403F033
:101B300019F901224021304604F0BFF8012210219A
:101B4000384603F0BDF90121384603F044F954E664
:101B5000744A18B5803250788DF800009DF8000066
:101B6000104483789DF80000AA30C1B2002004E040
:101B70001418A478401C2144C9B29DF80040A0422A
:101B8000F6DB12786848AA2A03D18B4201D10121E1
:101B900000E00021817018BDF0B50646012197B024
:101BA000480502F0E7FD01214D04284602F000FE41
:101BB0000121082002F0DEFD6020139002208DF844
:101BC000500000248DF852408DF853405B4F8DF843
:101BD000510013A9384602F0FFFB072205213846C1
:101BE00002F083FC07220621384602F07EFC0F96A5
:101BF000ADF844400C20524EADF84040ADF84600E0
:101C0000ADF84240ADF848400FA9304603F04DFF13
:101C10000121304603F0BAFF4FF4A06002F024FB2C
:101C200011208DF854008DF855408DF85640012054
:101C30008DF8570015A802F01CFB384F183F3846A6
:101C400003F008F8A8020090402003903D4802905D
:101C50003C200490301D01900015CDE90540801016
:101C6000CDE908400420CDE90A5007940320CDE9CE
:101C70000C04694638460E9403F074F80122802162
:101C8000304604F01AF801228021304604F015F89D
:101C900001221021384603F013F90121384603F0E0
:101CA0009AF8AAE530B585B00121142002F062FD52
:101CB0000121880302F086FD00254FF440708DF865
:101CC0000450012400908DF807406946184802F03E
:101CD00083FB6020009069461B4802F07DFB0821D1
:101CE000022004F054F80921022004F050F80521E4
:101CF000042004F04CF80621042004F048F84FF4C6
:101D0000587002908DF80C5010208DF80D008DF851
:101D10000E4002A803F03CF9172017E0B86002401B
:101D2000E6020020270A0020180000200050004092
:101D3000000802400014014028640240000C0240E8
:101D40000044004024010020001002408DF81000E3
:101D50008DF811408DF812508DF8134004A802F050
:101D600088FA05B030BD10B5C378002202219B1C53
:101D7000DBB204E0445C491C224492B2C9B28B42FB
:101D8000F8D2D0B2C0F1FF0010BD10B51C4603461A
:101D9000FF2020706070A3700720E0700320207186
:101DA0002A206071080AA071E171100A2072627223
:101DB0002046FFF7D8FFA07210BD30B50C4615467F
:101DC0000146FB4BC8220120FFF7DFFFF84BC8227A
:101DD0000B3321460220FFF7D8FFF54BC8221633FC
:101DE00029460320FFF7D1FFF1484438416CC0F881
:101DF0006510816CC0F86910B0F84C10A0F86D1037
:101E000090F84E1080F86F10D0F84F100167D0F89E
:101E100053104167B0F85710A0F8781090F8591097
:101E200080F87A10D0F85A10C0F87B10D0F85E1005
:101E3000C0F87F10B0F86210A0F8831090F864101A
:101E400080F8851030BD70B5DA4CA06D002817D130
:101E5000A28961892089FFF7B0FFD549D648213191
:101E600041662121C165D44D4FF0C05158352846F7
:101E700003F015F80121284602F0ADFF0120A0650E
:101E800070BD10B5012810D0032819D0042822D025
:101E9000052809D1C94C204603F09EFE402120466A
:101EA00003F02BFF0028F9D010BDC54C204603F0ED
:101EB00093FE4021204603F020FF0028F9D010BDFA
:101EC000C04C204603F088FE4021204603F015FF59
:101ED0000028F9D010BDBC4C204603F07DFE402107
:101EE000204603F00AFF0028F9D010BD2DE9FC417F
:101EF000B64E304603F086F9AE4D8035696BB0467C
:101F000040EA014000244CF250364FF6E857019069
:101F1000404603F077F9696B40EA01400090010008
:101F2000019800D54942002800DA4042081AB04220
:101F300000DA641C00980190BC4201DC022CE7DB53
:101F40000098BDE8FC812DE9FC41A04E304603F02D
:101F500059F9984D8035696BB04640EA014000243C
:101F60004CF250364FF6E8570190404603F04AF9DC
:101F7000696B40EA014000900100019800D5494298
:101F8000002800DA4042081AB04200DA641C0098C7
:101F90000190BC4201DC022CE7DB0098642190FB3D
:101FA000F1F0CEE72DE9FC414FF08046304603F0DA
:101FB00029F9804D8035A96BB04640EA01400024E4
:101FC0004CF250364FF6E8570190404603F01AF9AC
:101FD000A96B40EA014000900100019800D54942F8
:101FE000002800DA4042081AB04200DA641C009867
:101FF0000190BC4201DC022CE7DB0098A1E72DE94F
:10200000FC41734E304603F0FDF86A4D8035E96BB4
:10201000B04640EA014000244CF250364FF6E857F3
:102020000190404603F0EEF8E96B40EA0140009071
:102030000100019800D54942002800DA4042081A00
:10204000B04200DA641C00980190BC4201DC022C12
:10205000E7DB009875E72DE9FC415E4E304603F062
:10206000D1F8544D8035296CB04640EA0140002437
:102070004CF250364FF6E8570190404603F0C2F854
:10208000296C40EA014000900100019800D54942C6
:10209000002800DA4042081AB04200DA641C0098B6
:1020A0000190BC4201DC022CE7DB009849E72DE9F6
:1020B000FC41494E304603F0A5F83E4D8035696C31
:1020C000B04640EA014000244CF250364FF6E85743
:1020D0000190404603F096F8696C40EA0140009098
:1020E0000100019800D54942002800DA4042081A50
:1020F000B04200DA641C00980190BC4201DC022C62
:10210000E7DB00981DE72B4A0021803201280CD024
:1021100002280ED0032811D0042814D0052803D19A
:102120002D48243001605164704728484162516352
:1021300070474FF0804041629163704724482430DB
:102140000160D163704723482430016011647047F7
:102150003EB501680091416801910089ADF8080021
:1021600000206A46411C0C460BE000BF32F81030DC
:1021700032F81150AB4203D922F8105022F8113036
:10218000491C89B20529F1D3A0B20428EAD3BDF8CD
:1021900004003EBD0022114630F81130491C89B2BE
:1021A0001A443229F8D33220B2FBF0F080B27047E3
:1021B000B8090020180000200060024000500040D4
:1021C0000010014000440040004C0040000001406D
:1021D0000004004000080040000C0040F0B5FE4F35
:1021E000FE4D002407F18C0604EB8402042107EB6A
:1021F000420000BF00EB410333F8023C20F81130ED
:10220000491E0904090CF5D1F349383931F8141085
:1022100027F81210FFF79CFF04EBC40101EB041137
:102220002A7806EB8101641CA4B221F812000E2C5E
:10223000DAD32878401CC0B22870322801D300209D
:102240002870E54D00241C3D04EBC40000EB041095
:1022500006EB8000FFF79EFF25F81400641CA4B273
:102260000E2CF1D3F0BD10B5DC4C0020A071612024
:1022700060716420FEF7B3FC0120A0717A206071C8
:1022800010BD10B5D54C0020A07161206071642094
:10229000FEF7A5FC0120A0717A20607110BD2DE928
:1022A000F0410E46054605F0A7FA07460C463046B3
:1022B00005F0A2FA3A46234606F0D2F9C84AC94BBD
:1022C00005F050F905F079FAC44F80373866314689
:1022D000084605F024F804462946084605F01FF88C
:1022E000214604F0C4FF05F087FA06F053FC05F020
:1022F00064FA7866BDE8F0812DE9F14F9AB00020CC
:10230000B54A00908DF83C001C3AA2F5D270DDF879
:1023100068C090F80BB0877A90F809A0037A079309
:10232000C37906938379059390F805E090F80490BB
:10233000C6788578437890F80080A84CCDF8308036
:10234000B2F8148004F18001CDF82080BCF12A0F8E
:1023500070D2DFE80CF0153135393D4145494B4F1E
:1023600053575B696B6D70D7FEFDFCFBFAF9F8F70C
:10237000F6F56FF4F3F2F1F0EFEEEDEC6F6F6FEB5B
:102380000221994802F08EF850B10122D1039748FA
:1023900002F0A0F88021964802F098F80022D5E1DA
:1023A00000224FF40041914802F094F880219048B7
:1023B00002F08EF80022D8E1896801228DA038E26F
:1023C0004968022290A034E20968032293A030E217
:1023D000A16F042296A02CE2E16F052298A028E2CA
:1023E000616F06229AA024E207229CE1096B082271
:1023F00094A01EE2896A092296A01AE20A2298A0F5
:10240000089916E2A18B0B229BA012E2CDF828B00E
:102410008DE86842CDE908A79BA228210FA80C9B54
:1024200005F0D4FB0C22F8E10D22A3E10E22A5E178
:102430000F22A7E1F5E19E4F0121384602F032F864
:102440006A4D4FF400540E902146284602F02AF8B7
:102450000D900221384602F025F866000C903146B6
:10246000284602F01FF80B900421384602F01AF8B3
:102470000A90A100384602F015F809900821384664
:1024800002F010F808903146384602F00BF8824608
:102490001021384602F006F881462146384602F0FF
:1024A00001F8534C80460821204601F0FBFF0590BF
:1024B000A114384601F0F6FF83461021204601F0B2
:1024C000F1FF06462115384601F0ECFF0546802154
:1024D000384601F0E7FF0446B915384601F0E2FF3F
:1024E000034604AF0598CDF81CA087E801038DE8EA
:1024F000700870A228210FA805F068FB10220FA910
:1025000075A08CE1DFF8E0808021404601F0D4FF27
:102510000E900121404601F0CFFF0D904021404632
:1025200001F0CAFF4FF40047394613E084E17BE134
:1025300064E15FE15AE155E150E14BE145E13FE102
:1025400035E12BE121E11CE117E112E1EFE0E9E0E7
:10255000E2E0DBE0264C0C90204601F0ADFFDFF816
:1025600080A1A5140B902946504601F0A5FF261521
:102570000A903146404601F09FFF4FF400690990F0
:102580004946504601F098FF08904946404601F000
:1025900093FF07903146204601F08EFF06902946B2
:1025A000404601F089FF05904946204601F084FF2E
:1025B00083466900404601F07FFF8146AD00294611
:1025C000204601F079FF06462946404601F074FF97
:1025D0000546A115504685E0B403002018000020F0
:1025E00078612288A9E78140000402400008024087
:1025F000000C0240736572766F5F76616C75655F83
:10260000706861693A200000736572766F5F766169
:102610006C75655F7361753A2000000073657276B2
:102620006F5F76616C75655F747261693A20000056
:10263000676F635F62616E685F706861693A20000E
:10264000676F635F62616E685F7361753A20000057
:10265000676F635F62616E685F747261693A2000E0
:102660005F414443315F46696C74657265645B31F8
:10267000305D203A200000006C617365725F7472F7
:10268000756F633A20000000202564202564202512
:102690006420256420256420256420256420256489
:1026A0002025642025642025642025642500000061
:1026B0000010024025642564256425642564256492
:1026C00025642564256425642564256425642564C2
:1026D0002564256400000000496E3A2000000000D7
:1026E0000000024001F0E8FE04463946404601F091
:1026F000E3FE0346AFF244028DE8700A28210FA8DA
:1027000005F064FA11220FA9E3A088E0FFF74AFC64
:1027100001461222E2A08CE0FFF771FC0146132271
:10272000E4A086E01422C96AAFF2F80081E0022139
:10273000E54801F0B7FE68B10122D103E34801F09A
:10274000C9FE8021E24801F0C1FE1522B4F9101043
:10275000E0A06EE000224FF40041DC4801F0BAFE38
:102760008021DB4801F0B4FE1522B4F91010E0A07E
:102770005FE01622C968E6A05BE017220969E9A0BC
:1027800057E018224969EBA053E0FFF738FC002816
:1027900000DA404201461922EBA04AE0FFF702FCB2
:1027A000002800DA404201461A22ECA041E0FFF77F
:1027B0009DFB002800DA404201461B22ECA038E0D5
:1027C000B4F914101D22EFA033E0B4F916101E2244
:1027D000EEA02EE01F22EFA008992AE0D18A202245
:1027E000F2A026E0118B2122F6A022E0518B2222BA
:1027F000FAA01EE0918B2322FEA01AE0027BCDE915
:102800000AB28DE86842CDE908A7AFF28412282108
:102810000FA80C9B05F0DAF924220FA9FBA0FEF704
:102820006DF81BB0BDE8F08FFFF7BCFB0146252219
:10283000F9A0FEF704F8F4E70221A34801F032FE04
:1028400058B10122D103A14801F044FE8021A048E3
:1028500001F03CFE2922616A0BE000224FF40041A6
:102860009A4801F037FE8021994801F031FE216A33
:1028700029228FA0DDE70121E94802F0ACBA11B4AA
:10288000E848816C009A914201DD002101E0816CF1
:10289000491C8164806C18BC2EE500BFFEF77EF9F0
:1028A000012003F0B9FC012003F0B6FCF6E707B500
:1028B000DC48803841660099C16502660EBD2DE98D
:1028C000FF411E460A9F019804F044FFD54CD54DA8
:1028D000803CE0660198286766660298E06500988B
:1028E00004F038FF206700202066A866B4F91000C5
:1028F0006867384604F048FF6083B4F91A000A2874
:1029000001DD0A2001E04FF4FA602083BDE8FF8179
:102910002DE9F84FC44AC34CC4495078DFF80493FA
:10292000C5074FF01E0304F180044FF080474FEAC3
:10293000807005D0002812DBC9F87830A76011E05C
:1029400000280CDAD079192805D90120C9F87800B7
:10295000B748A06006E01420C9F8780001E0C9F883
:102960007830A160D9F8780015306060FEF716F96C
:102970000D2806D0BDE8F84F00224FF081411046E7
:1029800095E71178DFF89C8211F0480F4FF00A06A6
:102990004FF00005A8F180083DD188063BD4C80659
:1029A00039D410794FF0050AC82807D9D9F85C3016
:1029B000322B03DAD8F84C00404207E032282AD202
:1029C000D9F85C00322826DAD8F84C00B8F9101093
:1029D00000EBC00001EB8000C8F84800C9F87C504B
:1029E0000121A06804F00BFD6168034691FBFAF237
:1029F00090480090D9F87C10D8F84800FFF75FFFA6
:102A0000B8F91000C8F848002660B8F91000C8F8F6
:102A10004800BDE8F88F08074FEA416027D5002835
:102A200038DB880636D4C80634D41079C82809D9CA
:102A3000D9F85C0032282DDAB8F91000D8F84C101B
:102A4000401A0AE0322825D2D9F85C00322821DA6F
:102A5000B8F91000D8F84C100844C8F84800C9F874
:102A60007C500095D4E90123D9F87C10F3E20028CA
:102A700010DA88060ED4C8060CD41079C8280AD9F2
:102A8000D9F85C00322805DAB8F91000D8F84C10F3
:102A9000401ADCE0E0E0CFE04F55543A200000005F
:102AA000524541445F454E434F4445525F323A20C0
:102AB00000000000524541445F454E434F4445529B
:102AC0005F333A200000000000040240000802408A
:102AD000000C02402D2D2D20504147452031202D46
:102AE0002D2D2053414E20444F20494D553A200072
:102AF0002D2D2D20504147452031202D2D2D2053A7
:102B0000414E2058414E4820494D553A2000000082
:102B10006E616E675F6368616E5F747261693A20AF
:102B2000000000006E616E675F6368616E5F7361D5
:102B3000753A20006E616E675F6368616E5F7068F2
:102B400061693A2000000000454E434F4445525F02
:102B500042414E485F504841493A2000454E434F5C
:102B60004445525F42414E485F5341553A20000070
:102B7000454E434F4445525F42414E485F54524197
:102B8000493A2000494D555F583A2000494D555F5C
:102B9000593A20005F414443315F46696C74657265
:102BA00065645B31305D3A20000000005F414443C2
:102BB000325F46696C74657265645B31315D3A20E1
:102BC000000000005F414443315F46696C746572E8
:102BD00065645B31325D3A20000000005F41444390
:102BE000315F46696C74657265645B31335D3A20B0
:102BF000000000005F414443315F46696C746572B8
:102C000065645B31345D3A20000000004269745F06
:102C1000484D493A20000000454344323A20000024
:102C2000A060024098000020090A00206666263F46
:102C30009A99993F0000A04132280DD2D9F85C0042
:102C4000322809DAB8F91000D8F84C100844C8F84E
:102C500048004FF46170D7E011F0480F4FF4E16085
:102C60003ED18B064FEAC1631DD5002B38DB1379AB
:102C7000C82B09D9D9F85C30322B31DAB8F91000F9
:102C8000D8F84C10401A0AE0322B29D2D9F85C301F
:102C9000322B25DAB8F91000D8F84C100844C8F8DF
:102CA0004800F848B0E0002B1ADA1379C82B09D98C
:102CB000D9F85C30322B13DAB8F91010D8F84C2060
:102CC000891A0AE0322B0BD2D9F85C30322B07DAA2
:102CD000B8F91010D8F84C201144C8F8481093E007
:102CE0000B074FF4E17ACAF1000B40F2465E4FEA5F
:102CF000416343D5002B4FEA81631FDA002B5FDB72
:102D0000CB065DD41379C82B09D9D9F85C30322BA6
:102D100056DAB8F91000D8F84C10401A0AE0322BF5
:102D20004ED2D9F85C30322B4ADAB8F91000D8F814
:102D30004C100844C8F84800504665E0002B3FDAC4
:102D4000CB063DD41379C82B09D9D9F85C30322B86
:102D500036DAB8F91000D8F84C10401A0AE0322BD5
:102D60002ED2D9F85C30322B2ADAB8F91000D8F814
:102D70004C100844C8F84800584645E0002B1FDABC
:102D80008B061DD4CB061BD51379C82B09D9D9F8CE
:102D90005C30322B14DAB8F91000D8F84C10401A15
:102DA0000AE0322B0CD2D9F85C30322B08DAB8F9B1
:102DB0001000D8F84C100844C8F84800704623E0CA
:102DC000DFF8C4C211F0480F21D18B061FD5CB0606
:102DD0001DD51379C82B09D9D9F85C30322B16DAF6
:102DE000B8F91000D8F84C10401A0AE0322B0ED275
:102DF000D9F85C30322B0ADAB8F91000D8F84C1048
:102E00000844C8F848006046C9F87C0029E60B076A
:102E100008D54B0606D48B0604D4CB0602D4C9F8D9
:102E20007C5011E011F0480F03D18B0601D4CB0682
:102E300043D40B0714D44B0612D58B0610D4CB0603
:102E40000ED44FF4617038E00095A368D9F878206B
:102E5000D9F87C10D8F84800FFF731FD2660D8E596
:102E600011F0480F05D18B0603D5CB0601D4854858
:102E700023E00B074FEA41630FD5002B4FEA816334
:102E800005DA002B11DBCB060FD4504615E0002BE2
:102E90000BDACB0609D458460FE0002B05DA8B0677
:102EA00003D4CB0601D5704607E011F0480F78D166
:102EB0008B0605D5C80674D56046C9F87C00C3E703
:102EC000C9066ED4517992464FF07E5B32292DD2DD
:102ED000B8F91010C8F84810C9F87C00CDF800B057
:102EE000D9F87C105B460A22D8F84800FFF7E7FCC7
:102EF00057460FE00A2003F08FF9F87920B14FF020
:102F000080426249642003E0614A4FF07C51142002
:102F1000FFF7CDFC78793228ECD3B8F91010404691
:102F2000C8F8481026605B46009533E0C82939D9B7
:102F3000B8F91010C8F848100022C9F87C20CDF864
:102F400000B0D9F87C105D465B460A22D8F84800EC
:102F5000FFF7B5FC2F464FF07C5B55460EE00A208C
:102F600003F05AF9E87920B14FF080423946C82081
:102F700002E0484A59461420FFF799FC6879C828AE
:102F8000EDD8B8F910104046C8F848102660002166
:102F90003B460091D9F87C100222806CFFF78FFC31
:102FA00037E564E0D9F85C000A2838DD0095A368AD
:102FB000D9F87820D9F85810D8F84800FFF77FFCE6
:102FC0002660B846334D5F464FF07C5654460DE0C0
:102FD0000A2003F021F9E07918B14246394632203F
:102FE00002E02A4631461420FFF761FC207932289E
:102FF000EED33D46284F4FF040482079C828CFD91E
:103000000A2003F009F9E07918B142462946322036
:1030100002E03A4631461420FFF749FCEDE7D9F8C3
:103020005C00322823DD9AF80400C82805D9B8F9D5
:103030001000D8F84C10401A06E0322810D2B8F927
:103040001000D8F84C100844C8F848000095D4E99E
:103050000123D9F85810D8F84800FFF730FCD3E422
:103060000095A368D9F87820D9F85810F2E6B8F995
:103070001000C8F84800009500221146A368D8F84F
:1030800048008BE77CFCFFFFBAFAFFFFCDCC4C3D3C
:103090000000A0410000A0400000A0C070B5FE4CA0
:1030A000A0780126FD4D022801D1E07830B3A07848
:1030B000022817D1E078012814D1A88B0F2811D34A
:1030C000A88B28280ED80022F5491046FFF7EFFB01
:1030D000A078022805D1E078012802D1A88B6428C5
:1030E0000CD870BDA0780228FBD1E0780228F8D176
:1030F000A88B3228F5D3A88B5A28F2D82E6570BD3C
:103100002DE9FF4182B015460C9C12F1FF4F01D30F
:1031100082F000454FF07E56B4F5000F01DAE14C25
:1031200002E0B44200DD3446DDE90201401A00D578
:10313000404247F2F858009088B3059937468842D4
:103140000ADA084604F006FB0746009804F002FB82
:10315000394604F016F907462146304604F0D9F8FE
:10316000394604F0DCF8214604F081F8294604F0E1
:10317000D6F80446294604F079FB00D22C462046B6
:1031800005F03CFB04F000FB0190012801DA01206E
:103190000190DDE90001884206DC02980CE0FFE7BF
:1031A0004246002103980AE0DDE9021088420199B5
:1031B00001DA084400E0401A42460021039006B0BC
:1031C000BDE8F04100F07CBF2DE9F843B34CB64DAB
:1031D0008034B64F009541F26806616933463A463D
:1031E00044F620684046FFF78BFF60610095E16878
:1031F00033463A464046FFF783FFE0600095216979
:1032000033463A464046FFF77BFF2061616904F18F
:103210008C0080F830106169090A80F82F10E1688D
:1032200080F82610E168090A00F8251F21698171DC
:103230002169090A4171BDE8F883F8B500254FF00E
:10324000804633461E22294628460095FFF737FB65
:1032500000244FF4C87705E0FDF7ADFC30B901203C
:1032600002F0DAFFFEF79EFEB842F5DB641C642C28
:10327000F8DBFFF7A9FF00244FF4E17706E000BF79
:10328000FDF799FC30B9012002F0C6FFFEF78AFE77
:10329000B842F5DB641C642CF8DB814F0022394610
:1032A0001046FFF704FBFFF7F9FE002133461E220C
:1032B00008460095FFF703FB00244FF47A7505E0FC
:1032C000FDF779FC30B9012002F0A6FFFEF76AFE97
:1032D000A842F5DB641C642CF8DB3946BDE8F840F5
:1032E00000221046FFF7E3BA2DE9F041054640F20F
:1032F0008620854239DD40F60E10854202DBB4207F
:10330000BDE8F0816A48002450F82410A94229DC65
:1033100000EB84014968A94224DB00EB840150F8EA
:1033200024704968C81B04F015FA0646E81B04F02F
:1033300011FA314604F025F805465D48903800EB57
:10334000840150F824404968081B04F003FA294618
:1033500003F0E5FF4FF07C5103F089FF04F014FA0D
:103360002044CDE7641C232CCEDB0520C8E7514860
:1033700010B5808AFFF7B8FF4849888310BD464ED4
:10338000474D454C9E3E00BFFFF7F1FF3078800768
:1033900004D5002229461046FFF789FAA0780228B2
:1033A00005D0FFF7B5FA0A2002F036FFECE7FFF789
:1033B00044FFF8E72920FFF762FA0A2002F02CFF09
:1033C000F8E7F8B5354C384D8034384F009540F665
:1033D0009806616933463A460020FFF791FE606126
:1033E0000095E16833463A460020FFF789FEE06029
:1033F0000095216933463A460020FFF781FE20619F
:10340000216904F18C0080F82B102169090A80F8E9
:103410002A10E16880F82610E168090A00F8251FE3
:103420006169C1726169090A8172F8BD1B4C606DE6
:10343000012801D1FFF7C5FF072002F0EDFEF6E7F6
:103440007CB501200024CDE90004050223462A466C
:1034500019A11C4802F029FD0420CDE90004002335
:103460002A4619A11B4802F020FD0220CDE90004E4
:1034700000232A4618A11C4802F017FD0320CDE9BD
:10348000000400232A4619A11C4802F00EFDBDE8E5
:103490007C4003F094B80000A70A00201800002028
:1034A00000004040CDCC4C3DCDCCCC3D0000204177
:1034B000708C0008980300205461736B5F4D616944
:1034C0006E0000002D3400085461736B5F484D4955
:1034D00000000000B53300085461736B5F436F6EEA
:1034E00074726F6C5F3100007F3300085461736B3E
:1034F0005F436F6E74726F6C5F3200009B28000830
:103500002DE9F04791460E46044603F005FF0546B7
:1035100020F00040074616F0FF4F01D0314601E091
:103520004FF07E5103F02DFFFE4903F0F8FE04F04A
:1035300063F905F0EDF9DFF8F0830022434604F06B
:103540000EF8012204F0EFF804F069F9F749B5F537
:10355000000F2DDB8F4207DD0121484603F04FFFAE
:10356000214603F084FE1DE004F046F94FF0FF32DF
:1035700004F0D9F80022434603F04DFF07460D46FC
:10358000484604F039F93A462B4603F0EBFF07466C
:103590000D46204604F030F93A462B4603F03BFF37
:1035A00004F03DF90446314604F060F932D230E0CF
:1035B00015F1FF4F2ED38F4207DD0121484603F05E
:1035C0001EFF214603F0A8FE1EE004F015F94FF09F
:1035D0003332D74B03F0C6FF0022434603F01BFFF4
:1035E00007460D46484604F007F93A462B4603F0D5
:1035F000B9FF07460D46204604F0FEF83A462B4632
:1036000003F0AAFF04F00BF90446314604F024F954
:1036100000D234462046BDE8F0872DE9F041C54C84
:103620004FF07E51A06E03F022FE0546A066A4F185
:1036300080000027016EBE1EB1F5000F1BDB804627
:10364000284604F013F93ED231464546D8F86800C2
:1036500003F0D5FE0646296F03F009FE2867206FA8
:10366000B5F91010401A616F084404F073F8314640
:1036700003F04FFE25E011F1FF4F25D380460846A9
:1036800004F082F8002800DA404204F063F829468A
:1036900004F0E2F817D231464546D8F8680003F046
:1036A000AEFE0646296F03F037FE2867206FB5F996
:1036B00010100844616F401A04F04CF8314603F0D2
:1036C000D6FDE866A7661BE601218162C16217E6A6
:1036D0002DE9F05F974D803D286E04F055F84000CD
:1036E00001D0FFF79AFFE86D04F034F80146D5E900
:1036F0001920FFF705FF8146A866286E04F044F8FC
:103700004000DFF834828D4C8A4FB5F910004FF439
:10371000E16614D004F01EF8296F03F0FAFD41466B
:1037200003F0FDFD04F030F87862786AB04201DD04
:103730007E6219E0786AA04216DA7C6214E004F036
:1037400009F8296F03F0E5FD414603F0E8FD04F0B8
:103750001BF87862796A4FF46160814203DC796A10
:103760004042814200DA7862E86E7549804603F093
:1037700008FE04F009F84FF46161484303F0EAFFE2
:10378000414603F0C9FD03F0FFFF6882786A002814
:103790000BDDE86BB5F91210401AB861286CB5F969
:1037A0001210401AF861686C0DE0786A00280FDA90
:1037B000286BB5F91210401AB861686BB5F9121090
:1037C000401AF861A86BB5F91210401A386205E08A
:1037D000484603F0D9FF3863F862B862B869B0426E
:1037E000B86902DDA0F5616004E0A04203DAB869BF
:1037F00000F56160B861F869B042F86902DDA0F5D2
:10380000616004E0A04203DAF86900F56160F861E4
:10381000386AB042386A02DDA0F5616004E0A04277
:1038200003DA386A00F561603862786AB9460028C0
:1038300000DA4042434FDFF810B1B04270DDD9F8F2
:103840002400002800DA404203F08DFF80468A46BB
:10385000D9F8180003F087FF00225B4603F0F4FE5E
:103860004246534603F07EFE82468846B5F9120072
:1038700003F079FF5246434603F0CDFD03F09DFF70
:103880006867D9F82400002800DA404203F06BFF93
:1038900080468A46D9F81C0003F065FF00222A4BB7
:1038A00003F0D2FE4246534603F05CFE80468A4651
:1038B000B5F9120003F057FF4246534603F0ABFD43
:1038C00003F07BFFA867D9F82400002800DA404203
:1038D00003F049FF83468A46C846D9F8200003F022
:1038E00042FF0022184B03F0AFFE5A46534603F046
:1038F00039FE82468B46B5F9120003F034FF52467A
:103900005B4603F088FD03F058FFE867D8F84C00E9
:10391000696F401A40F68C2188421ADD686F15E005
:1039200094E000000000A0C00000F03F0000A041B3
:103930003333D33F9800002000004040F8F8FFFFE9
:103940000000614574F5FFFF0020AC4000F56160A8
:1039500008E0D8F84C006A6F801AB84203DA686F42
:10396000A0F561606867D8F84C2040466B6F4FF453
:103970006178D31AC8F10002434503DD6B6F03F58C
:10398000E16309E0C36CD5F874C0A3EB0C03934268
:1039900003DA6B6FA3F5E1636B67036DD5F878C04D
:1039A000A3EB0C038B4203DDAB6F03F5616309E00E
:1039B000036DD5F878C0A3EB0C03BB4203DAAB6F01
:1039C000A3F56163AB67036DD5F878C0A3EB0C0377
:1039D000434503DDAB6F03F5E16309E0036DD5F803
:1039E00078C0A3EB0C03934203DAAB6FA3F5E1635A
:1039F000AB67436DD5F87CC0A3EB0C038B4203DDB2
:103A0000E96F01F5616107E0416DEB6FC91AB942D9
:103A100003DAE96FA1F56161E967416DEB6FC91ADE
:103A2000414503DDE96F01F5E16107E0416DEB6FB1
:103A3000C91A914203DAE96FA1F5E161E967696F9B
:103A4000C164A96F0165E96F4165F1E0B5F9120044
:103A50006867B5F91200A867B5F91200E867D9F8E8
:103A60004C1048466A6F40F68C28891A414503DDA0
:103A7000696F01F5616107E0C16C6A6F891AB9422B
:103A800003DA696FA1F561616967C16C6A6F8B1AAE
:103A900040F246514A428B4203DD6B6F03F5E1630E
:103AA00009E0C36CD5F874C0A3EB0C03934203DAAE
:103AB0006B6FA3F5E1636B67036DD5F878C0A3EB7B
:103AC0000C03434503DDAB6F03F5616309E0036D50
:103AD000D5F878C0A3EB0C03BB4203DAAB6FA3F5B8
:103AE0006163AB67036DD5F878C0A3EB0C038B4221
:103AF00003DDAB6F03F5E16309E0036DD5F878C032
:103B0000A3EB0C03934203DAAB6FA3F5E163AB675E
:103B1000436DD5F87CC0A3EB0C03434503DDEB6F8D
:103B200003F5616309E0436DD5F87CC0A3EB0C039A
:103B3000BB4203DAEB6FA3F56163EB67436DEF6F95
:103B4000DB1B8B4203DDE96F01F5E16107E0416DAD
:103B5000EB6FC91A914203DAE96FA1F5E161E967F8
:103B6000696FC164A96F0165E96F4165406A00280A
:103B700000DA404203F0F7FD07468846D9F81800FE
:103B800003F0F1FD00225B4603F05EFD3A4643463A
:103B900003F0E8FC07468846686F03F0E4FD3A4608
:103BA000434603F038FC03F008FE6867D9F82400A8
:103BB000002800DA404203F0D6FD80460F46D9F8CF
:103BC0001C0003F0D0FD00225B4603F03DFD4246A1
:103BD0003B4603F0C7FC07468846A86F03F0C3FDC9
:103BE0003A46434603F017FC03F0E7FDA867D9F80F
:103BF0002400002800DA404203F0B5FD80460F465D
:103C0000D9F8200003F0AFFD00225B4603F01CFD55
:103C100042463B4603F0A6FC07468846E86F03F0A1
:103C2000A2FD3A46434603F0F6FB03F0C6FDE86703
:103C3000686FA04201DA204602E0B04200DD304663
:103C4000C0F5E162A86FA04201DA204602E0B0426E
:103C500000DD3046C0F5E161E86FA04201DA2046A0
:103C600002E0B04200DD3046C0F5E163C2EB023253
:103C70004FF4616092FBF0F20A324C46C9F8002022
:103C8000C1EB013191FBF0F10A31C9F80810C3EB27
:103C9000033191FBF0F01438C9F80400D9F80000A2
:103CA0002881D9F804006881D9F80800A881FEF7B6
:103CB000CAF8606A002800DA4042B2460A26FA4F83
:103CC00050457DDD606A00283CDDA86E03F094FD60
:103CD0008146E86F8846696C401A90FBF6F003F065
:103CE00039FDBB46394603F01AFB03F085FD04F0AD
:103CF000C1FD4A46434603F035FC03F05EFD2063F8
:103D0000A86E03F079FD0746A86F8846296C401A13
:103D100090FBF6F003F01EFD594603F000FB03F0A4
:103D20006BFD04F0A7FD3A46434603F01BFC03F08D
:103D300044FDE062A86E03F05FFD0746686F8846A9
:103D4000E96B40E0606A002851DAA86E03F054FD88
:103D50008046E86F8946A96B401A90FBF6F003F0A5
:103D6000F9FCBB46394603F0DAFA03F045FD04F0EE
:103D700081FD42464B4603F0F5FB03F01EFD206338
:103D8000A86E03F039FD0746A86F8846696B401A94
:103D900090FBF6F003F0DEFC594603F0C0FA03F0A6
:103DA0002BFD04F067FD43463A4603F0DBFB03F0CE
:103DB00004FDE062A86E03F01FFD0746884600E0A0
:103DC00021E0686F296B401A90FBF6F003F0C2FC0B
:103DD000594603F0A4FA03F00FFD04F04BFD3A46F8
:103DE0004FEA080303F0BEFB03F0E7FCA062A86EF5
:103DF0004FF07E5290427ADCE16E0020002950DCC8
:103E0000E066A86654E0A86E03F0F6FC8046E86F12
:103E10008946B5F91210401A90FBF6F003F09AFCAF
:103E2000BB46394603F07BFA03F0E6FC04F022FDC2
:103E300042464B4603F096FB03F0BFFC2063A86E9E
:103E400003F0DAFC0746A86F8846B5F91210401A4D
:103E500090FBF6F003F07EFC594603F060FA03F0A5
:103E6000CBFC04F007FD43463A4603F07BFB03F02E
:103E7000A4FCE062A86E03F0BFFC8046686F0F46AA
:103E8000B5F91210401A90FBF6F003F063FC5946A6
:103E900003F045FA03F0B0FC04F0ECFC42463B466C
:103EA000A0E7491EE1660121AA66A162E1622163E1
:103EB000E16EB1F5FA7F1DDAE16C002900DA4942C2
:103EC000524691420BDA216D002900DA49429142B3
:103ED00005DA616D002900DA494251450ADB68675D
:103EE000E064A8672065E867606503E0FFE7B5F96F
:103EF0001800E066A06A41426C480171A16A49421B
:103F0000090AC170E16A0176E16A090AC175216B8B
:103F10008173216B090A4173BDE8F09F2DE9F84FC9
:103F2000FFF725FA624DAB8B0122624E62480027F3
:103F300041F2680105F18004462B05D3AB8B822B3F
:103F400002D82A71EF700FE0AB8B462B05D2AB8BFA
:103F5000822B02D9EA702F7120E02A79012A03D03E
:103F6000EA78012A1AD033E088460B460096616948
:103F70008146024644F6206A5046FFF7C1F8606168
:103F80000096E16843464A465046FFF7B9F8E060BC
:103F90000096216943464A46504616E088460B463D
:103FA00000966169814602460020FFF7A9F860612A
:103FB0000096E16843464A460020FFF7A1F8E0601A
:103FC0000096216943464A460020FFF799F8206190
:103FD000A88B4FF08043372802D31E22009704E0BD
:103FE000A88B372805D20122009700210846FEF74A
:103FF00066FC61692D4880F830106169090A80F813
:104000002F10E16880F82610E168090A00F8251FE2
:10401000216981712169090A4171BDE8F88F7047F2
:1040200038B5FCF7E8FDFCF713FEFCF7DAFFFCF708
:1040300004FFFDF747F8FDF7B8F8FDF727F9FCF79F
:104040002AFE1E4C0021204601F00EF94FF4E13506
:104050002846FDF713FA2846FDF792FA2846FDF7A1
:10406000F7FCE800FDF7CBFBFDF7E3FC2846FDF786
:1040700093FD0A20FCF7B3FD0121204601F0F4F87E
:104080000A20FCF7ACFDFEF7EEF800204FF07E535F
:10409000024601460090FEF712FC6420FCF79FFDEB
:1040A000FFF7CEF9002038BD35FA8E3C2401002000
:1040B00018000020CDCCCC3D000020410010004075
:1040C00007B5DDE90001884202DB0299884200DD84
:1040D00008460EBD0CB500205149019000900A68B9
:1040E00042F480320A604FF4A0630A6802F400329E
:1040F0000092019A521C0192009A12B9019A9A42B6
:10410000F3D10A68920334D501200090444840302E
:10411000026842F0805202604248026842F48042E3
:1041200002603F48083002680260026842F40042C0
:104130000260026842F4A0520260031F3A4A1A6009
:104140000A6842F080720A600A689201FCD5374A18
:1041500040F205611160016821F00301016001680E
:1041600041F0020101600168C1F381010229FAD125
:104170000CBD00900CBD2A4810B5016841F001014A
:104180000160274A0021083211600268284B1A405A
:104190000260031D274A1A60026822F4802202602E
:1041A0001F480C300160FFF795FF23494FF0006076
:1041B000086010BD70B51A4C083420681F4A10F012
:1041C0000C011F4804D05510042903D0082903D03E
:1041D00002601BE0056019E01149091D0B68C3F37B
:1041E00080560B6803F03F0316B1B5FBF3F201E014
:1041F000B2FBF3F20B680968C3F388135A43C1F3A7
:104200000141491C4900B2FBF1F1016021680C4AEF
:10421000C1F30311121D515C0268CA40026070BDF7
:10422000003802400070004008544007003C024043
:10423000FFFFF6FE1030002408ED00E00024F4003B
:104240006C0100200648804706480047FEE7FEE76D
:10425000FEE7FEE7FEE7FEE7FEE7FEE7FEE7FEE736
:104260007741000889010008284908432849086067
:10427000704730B50F22C47801780123FCB1244C7B
:10428000246801F1E02104F4E064C4F5E064C4F3BF
:104290000724C4F10405E2404478AC408578154019
:1042A00025432A0181F80024007800F01F018B408B
:1042B0004009800000F1E020C0F8003130BD01F07D
:1042C0001F0083404809800000F1E020C0F88031E1
:1042D00030BD104A114001430D48001F0160704776
:1042E0000B4A121D0029116801D0014300E08143EF
:1042F000116070474FF0E0210428086903D020F0D6
:1043000004000861704740F00400FAE70000FA0575
:104310000CED00E080FFFF1F7C4910B5884206D1FC
:104320000121084600F058FA002101204FE07849A9
:10433000884206D10121022000F04EFA002102201D
:1043400045E07449884206D10121042000F044FA76
:10435000002104203BE07049884206D10121082059
:1043600000F03AFA0021082031E06C49884206D179
:104370000121102000F030FA0021102027E06849C8
:10438000884206D10121202000F026FA00212020B9
:104390001DE06449884206D10121402000F01CFA4A
:1043A0000021402013E06049884206D1012180208D
:1043B00000F012FA0021802009E05C4988420AD10D
:1043C00084150121204600F007FA00212046BDE8AF
:1043D000104000F001BA10BDF0B5002301240327FE
:1043E0000D6804FA03F21540954242D1D0F800C09E
:1043F0005E0007FA06F52CEA050CC0F800C091F83B
:1044000004C0D0F800E00CFA06FC4CEA0E0CC0F830
:1044100000C091F804C0BCF1010F02D0BCF1020F42
:104420001FD1D0F808C02CEA050CC0F808C091F8DC
:1044300005C0D0F808E00CFA06FC4CEA0E0CC0F8F7
:1044400008C0D0F804C02CEA020CC0F804C04268CE
:1044500091F806C00CFA03FC1FFA8CFC42EA0C022D
:104460004260C268AA43C260CA79C568B2402A43A2
:10447000C2605B1C102BB3D3F0BD4FF6FF7101601F
:104480000021017141718171C171704708B541F41A
:1044900080320092C261C1610099C161C169C06985
:1044A000009008BD0246002012690A4200D0012097
:1044B0007047006980B270470246002052690A4284
:1044C00000D001207047406980B270470183704777
:1044D000418370470AB1018370474183704741614E
:1044E000704742694A40426170474B07DB0E9A4071
:1044F000C90810B500EB8100016A0F249C40A1435C
:104500000162016A1143016210BD00000000024017
:104510000004024000080240000C0240001002406B
:104520000014024000180240001C0240002002401B
:10453000EA48016841F001010160E84A00210832BF
:1045400011600268E64B1A400260031DE54A1A60DA
:10455000026822F480220260E0480C30016070475B
:10456000DE490022891C0A7008707047024600204C
:10457000510901290CD002290CD0D849743109689D
:1045800002F01F02012393400B4200D0012070472C
:10459000D249F4E7D1497031F1E718B500204FF462
:1045A000A06400903120FFF7E1FF0099491C0091C1
:1045B000A14201D00028F5D03120FFF7D7FF002815
:1045C00000D0012018BDC5490A6822F0F80242EA6D
:1045D000C00008607047C44908607047BF490022A6
:1045E00070310A700A70012802D0042801D1052018
:1045F00008707047BD490860704741EA82115A0847
:1046000010B5BB4B029C03EB02421143014341EA4C
:104610000460B249091D086010BDB34908667047BF
:10462000800140EA0170AD49843108607047AE49AD
:1046300088667047AC49C8647047A84A0832136856
:10464000084323F0EC63184310607047A34A083214
:104650001368084323F078431843106070479F4A5B
:104660000832116821F003010143116070479B4833
:104670000830006800F00C007047984A0832116852
:1046800021F0F001014311607047944A083211682B
:1046900021F4E051014311607047904908310A68E4
:1046A00022F4604242EAC0000860704770B58B4A4D
:1046B000083211688F4C11F00C0104D066100429E7
:1046C00003D0082903D004601BE0066019E0834989
:1046D000091D0B68C3F380550B6803F03F0315B148
:1046E000B6FBF3F301E0B4FBF3F30C680968C4F321
:1046F00088146343C1F30141491C4900B3FBF1F144
:10470000016011680F2303EA11117B4B5C5C0168A7
:10471000E14041601468072505EA94241C5D21FAF4
:1047200004F48460126805EA52329A5CD140C16098
:1047300070BDC0F30121032908D1684A083211680D
:1047400021F4F8136D490140194311606349703138
:104750000A68C0F30B0002430A607047634944399A
:104760000860704761494039086070475E49C1F888
:104770005C017047594A30320029116801D0014369
:1047800000E0814311607047544A343200291168B7
:1047900001D0014300E08143116070474F4A383235
:1047A0000029116801D0014300E081431160704786
:1047B0004A4A40320029116801D0014300E0814398
:1047C00011607047454A44320029116801D0014305
:1047D00000E0814311607047404A1032002911689F
:1047E00001D0014300E08143116070473B4A14321D
:1047F0000029116801D0014300E081431160704736
:10480000364A18320029116801D0014300E0814383
:1048100011607047314A20320029116801D00143EC
:1048200000E08143116070472C4A2432002911684E
:1048300001D0014300E0814311607047274A5032A4
:104840000029116801D0014300E0814311607047E5
:10485000224A54320029116801D0014300E081430B
:10486000116070471D4A58320029116801D0014378
:1048700000E0814311607047184A603200291168D6
:1048800001D0014300E0814311607047134A643254
:104890000029116801D0014300E081431160704795
:1048A0000E4A0D320029117801D0014300E0814306
:1048B0001170704709487430016841F080710160DF
:1048C00070470146054A00200C3212680A4200D0A7
:1048D0000120704701490E310870704700380240CE
:1048E000FFFFF6FE1030002400004742800E4742D2
:1048F0000000FFFF0024F40080010020FFFCFF0FF8
:1049000010B501210C022046FFF78EFF2046BDE8BE
:1049100010400021FFF788BF30B54268C84B0C79C2
:104920001A400B6842EA0422134343608268C54B75
:104930004D791A40D1E9034323438C6844EA450486
:10494000234313438360C26A097D22F47002491E27
:10495000C9B242EA0151C16230BD0021016001715A
:1049600041718160C1600161012101757047B64BE1
:1049700010B5D3F80423B5490A40D0E90014214307
:10498000D0E90240044321431143C3F8041310BD8E
:104990000021016041608160C16070470029816829
:1049A00002D041F0010101E021F001018160704776
:1049B0004268A74B1A400A434260704741628262D4
:1049C0007047426822F01F020A43426070479E49C6
:1049D0000028D1F8040302D040F4000001E020F4E4
:1049E0000000C1F80403704797490028D1F8040378
:1049F00002D040F4800001E020F48000C1F80403FC
:104A0000704770B5072409290AD9C568A1F10A06BB
:104A100006EB4606B440A543B3401D43C56007E01E
:104A2000056901EB4106B440A543B3401D43056150
:104A30001F23072A09D2446B521E02EB82029340C5
:104A40009C4391400C43446370BD0D2A09D2046B12
:104A5000D21F02EB820293409C4391400C430463BB
:104A600070BDC46A0D3A02EB820293409C439140B0
:104A70000C43C46270BD816841F080418160704721
:104A8000014600208968490200D5012070470029AD
:104A9000816802D041F4806101E021F4806181608D
:104AA00070470029816802D041F0020101E021F045
:104AB0000201816070474268491E22F4604242EA66
:104AC0004131416070470029416802D041F40061E2
:104AD00001E021F4006141607047C06C80B2704712
:104AE0005948D0F8080370470029816802D041F482
:104AF000807101E021F48071816070470029816834
:104B000002D041F4007101E021F40071816070472E
:104B10004D490028D1F8040302D040F4005001E0D0
:104B200020F40050C1F80403704770B50724092928
:104B30000AD9C568A1F10A0606EB4606B440A543AA
:104B4000B3401D43C56007E0056901EB4106B44071
:104B5000A543B3401D430561836BC3F30154121B8E
:104B6000921C02EB82041F22A2409343A1400B43FC
:104B7000836370BD826B491E22F4401242EA0151E8
:104B80008163704708B508440090026008BD8268E0
:104B900022F470220A4382607047826822F4401235
:104BA0000A4382607047816841F4800181607047E8
:104BB000014600208968490200D50120704700297C
:104BC000416802D041F4806101E021F480614160DC
:104BD00070470029416802D041F4805101E021F47E
:104BE00080514160704708B5084428300090006843
:104BF00080B208BD01238B4041680AB1194300E02F
:104C00009943416070470246002012680A4200D072
:104C100001207047C9430160704730B5024600204B
:104C200053680C0A01258D4011682B40214202D0A7
:104C3000002B00D0012030BD6FEA112101607047C8
:104C4000FFFEFFFCFDF7FFC000200140E030FCFF4D
:104C5000FFFD3FFF2DE9F043016821F001010160F4
:104C60000021016041608160C160016121214161D9
:104C7000B849B84A3D251039904202D18D60BDE84F
:104C8000F083B44A4FF474661832904201D18E60BA
:104C9000F5E7B04A4FF474173032904201D18F607B
:104CA000EDE7AC4A4FF0746C4832904202D1C1F843
:104CB00008C0E4E7A74BA84A6033984201D1CA6014
:104CC000DDE7A44CA54B7834A04201D1CB60D6E7F8
:104CD000DFF88082A24C08F19008404501D1CC60F9
:104CE000CDE7DFF870824FF03D5908F1A808404544
:104CF00002D1C1F80C90C2E79A49DFF868820839FE
:104D0000404501D10D60BAE7964D1835A84201D152
:104D10000E60B4E7934D3035A84201D10F60AEE785
:104D2000904D4835A84202D1C1F800C0A7E78D4D8B
:104D30008C496035091FA84201D10A609FE7894A62
:104D40007832904201D10B6099E7864A90329042C6
:104D500001D10C6093E7834AA83290428FD1C1F809
:104D600000908CE730B503687F4ACC6813400A682E
:104D70002243D1E905452C432243CC6922430C6AE6
:104D800022434C6A22438C6A22434C6B22438C6B35
:104D900022431A430260426922F00703D1E90B243F
:104DA00022431A4342610A6942604A688260896804
:104DB000C16030BD0021016041608160C16001615E
:104DC00041618161C161016241628162C1620163CD
:104DD0004163816370470029016802D041F00101FD
:104DE00001E021F00101016070470029016802D053
:104DF00041F4004101E021F40041016070470029C5
:104E0000016802D041F0200101E021F020010160A1
:104E1000704741607047406880B27047002A02685E
:104E200002D042F4002201E022F40022026001617B
:104E300070470029016802D041F4802101E021F48B
:104E40008021016070470AB101617047C1607047FD
:104E5000014600200968090300D50120704701467A
:104E600000200968C90700D001207047406900F0A0
:104E70003800704702463B4B00209A4202D2354A26
:104E8000103A01E0374A103A8B0001D5526800E031
:104E90001268364B1A400A4200D001207047314A4E
:104EA000904202D22B48103801E02E4810382F4A89
:104EB0008B0001EA020101D5C16070478160704733
:104EC0000B0607D5436912B143F0800301E023F0DC
:104ED00080034361802908D0002A026801F01E0186
:104EE00001D00A4300E08A430260704730B51D4A92
:104EF0000024904202D2174B103B01E0194B103BAB
:104F00001B4A114205D01E2202EAD12502682A401E
:104F100002E0406900F08002880001D5586800E096
:104F20001868124B1840084201D002B101242046F3
:104F300030BD0C4A904202D20648103801E00948C0
:104F400010380A4A8B0001EA020101D5C16070479E
:104F500081607047106002403D000020400F00203B
:104F600000003D20106402403F801CF07D0F7D0F4B
:104F70003C0F3C0F374900200860091D0860091DDF
:104F80000860091D086033493348143108607047D0
:104F900030B530498379026853B30B6893430B6093
:104FA0000A1D13680468A343136002790A44136856
:104FB000046823431360274A083213680468A34334
:104FC0001360131D1C680568AC431C604479102CE9
:104FD00005D021440A68006802430A6030BD1168A8
:104FE000046821431160196800680143196030BDED
:104FF0000079084401689143016030BD00210160DF
:1050000001710C22427181717047124910310A6896
:1050100002430A60704701460E4A002014321268AB
:105020000A4200D0012070470A49143108607047D5
:10503000084A014600201268064B0A4014331B68D8
:105040000B4202D0002A00D00120704701491431E0
:1050500008607047003C0140FFFF7F00FE4910B52B
:10506000884206D101210846FFF7DEFB002101201E
:105070005BE0B0F1804F09D0F84988420DD10121A1
:105080000220FFF7C7FB0021022070E00121084643
:10509000FFF7C0FB0021012069E0F149884206D1F9
:1050A00001210420FFF7B6FB002104205FE0ED4959
:1050B000884206D101210820FFF7ACFB002108201F
:1050C00055E0E949884206D101211020FFF7A2FBF3
:1050D000002110204BE0E549884206D10121202023
:1050E000FFF798FB0021202041E0E149884206D1EA
:1050F00001210220FFF798FB0021022015E0DD4985
:10510000884202D101210C040AE0DB49884202D125
:1051100001214C0404E0D94988420AD101218C04C0
:105120002046FFF781FB00212046BDE81040FFF735
:105130007BBBD349884206D101214020FFF76AFB9F
:105140000021402013E0CF49884206D10121802070
:10515000FFF760FB0021802009E0CB4988420AD19B
:10516000841501212046FFF755FB00212046BDE8AC
:105170001040FFF74FBB10BD30B50288B64BBC4C9A
:1051800098420DD0A0420BD0B0F1804F08D0B34D63
:10519000A84205D0B24DA84202D0B24DA84203D1D8
:1051A00022F070054A882A43AF4DA84206D0AF4D81
:1051B000A84203D022F440750A892A4302804A6833
:1051C000C2620A880285984201D0A04201D1897A40
:1051D00001860121818230BD4FF0FF314160002105
:1051E0000180018141808172704701858282704710
:1051F000028822F070020A430280704741627047C1
:10520000C1627047406A7047008D7047002901886D
:1052100002D041F0020101E021F00201018070475B
:105220000029018802D041F0040101E021F00401CD
:10523000018070470029018802D041F0800101E01F
:1052400021F0800101807047028822F0080202806C
:1052500002880A4302807047028822F4407202806A
:1052600002880A43028070470029018802D041F079
:10527000010101E021F001010180704730B5028C8D
:1052800022F001020284028C8388048B22F0020245
:1052900024F073050C882C438D8915434A882A43D2
:1052A0006D4DA84202D0724DA8420DD122F00805E2
:1052B000CA8923F440732A4322F004058A882A43CA
:1052C0000D8A1D434B8A2B43838004838968416385
:1052D000028430BD70B5028C22F010020284028C70
:1052E0008488038B0D8823F4E6464FF6FF7303EAA8
:1052F000052535438E8922F0200203EA061616435F
:105300004A8803EA02123243534EB04202D0584E4A
:10531000B04215D122F08006CA8924F4406403EA21
:105320000212324322F040068A8803EA0212324314
:105330000E8A03EA860626434C8A03EA8404344331
:105340008480058389688163028470BD70B5028C96
:1053500022F480720284028C8488838B0D8823F06F
:1053600073031D4322F400738E894FF6FF7202EA25
:1053700006261E434B8802EA03233343364EB042CF
:1053800002D03B4EB04215D123F40066CB8924F401
:10539000405402EA0323334323F480668B8802EAF5
:1053A000032333430E8A02EA061626434C8A02EA96
:1053B00004143443848085838968C163038470BD89
:1053C00070B5028C22F480520284048C8288838B14
:1053D0000D8823F4E6464FF6FF7303EA05253543AF
:1053E00024F400568C8903EA043434434E8803EADB
:1053F00006362643184CA04202D01D4CA04205D1CF
:1054000022F480440A8A03EA82122243828085833E
:1054100089680164068470BD00210180418081801B
:1054200081608181C18101824182704730B5012450
:10543000058C00F118038C40A543058431B308297D
:105440002CD0091FC1F34E001844016848F6FF73C1
:105450001940016001681AE00000014000040040AA
:1054600000080040000C0040001000400014004004
:105470000004014000400140004401400048014058
:1054800000180040001C00400020004006E04FF6DD
:10549000FF7303EA02221143016030BD03EB5100A8
:1054A00001684FF68F73194001600168F3E74163AB
:1054B000704781637047C163704701647047028B16
:1054C00022F070020A4302837047028B4FF6FF738B
:1054D00022F4E04203EA0121114301837047828BE9
:1054E00022F070020A4382837047828B4FF6FF736B
:1054F00022F4E04203EA0121114381837047028BC9
:1055000022F008020A4302837047028B4FF6FF73B2
:1055100022F4006203EA0121114301837047828B68
:1055200022F008020A4382837047828B4FF6FF7392
:1055300022F4006203EA0121114381837047028B48
:1055400022F004020A4302837047028B4FF6FF7376
:1055500022F4806203EA0121114301837047828BA8
:1055600022F004020A4382837047828B4FF6FF7356
:1055700022F4806203EA0121114381837047028B88
:1055800022F080020A4302837047028B4FF6FF73BA
:10559000C2F30E0203EA0121114301837047828B9B
:1055A00022F080020A4382837047828B4FF6FF739A
:1055B000C2F30E0203EA0121114381837047028C7A
:1055C00022F002020A4302847047028C22F0080291
:1055D0000A4302847047028C4FF6FF7322F02002C8
:1055E00003EA0111114301847047028C4FF6FF73E7
:1055F00022F0800203EA0111114301847047028CFA
:105600004FF6FF7322F4007203EA01211143018473
:105610007047028C4FF6FF7322F4006203EA012107
:10562000114301847047028C4FF6FF7322F400523D
:1056300003EA013111430184704710B50123048C42
:105640008B409C430484038C8A401343038410BD25
:1056500010B50423048C8B409C430484038C8A4043
:105660001343038410BD828B22F440628283828BB9
:105670004FF6FF7303EA01210A4382837047828B4E
:1056800022F00C028283828B0A4382837047028B52
:1056900022F440620283028B4FF6FF7303EA01217A
:1056A0000A4302837047F0B5048C24F0100404848C
:1056B000078B068C4FF6FF7404EA011527F4734735
:1056C00004EA0331394304EA02220A4326F0A00126
:1056D000294341F0100102830184F0BD028B22F0C6
:1056E0000C020283028B0A43028370472DE9F041CA
:1056F0000D460E884988AA882B8904460EB3042ECD
:1057000026D0082E268C4FF6FF7028D026F480561F
:105710002684A78B268C00EA022200EA013127F4B6
:1057200073473A4300EA0330104326F420420A4309
:1057300042F48051A0832184E9882046BDE8F041ED
:1057400091E700F062F9E9882046BDE8F041C5E73D
:10575000FFF7A9FFE9882046BDE8F04197E726F466
:1057600080762684A78B268C00EA012100EA0310AC
:10577000104327F0F307384326F420620A4342F42B
:105780008071A0832184E9882046BDE8F04176E756
:1057900000210180418001228280C1800181704707
:1057A0002DE9F0410C46002649880746012501B93C
:1057B0000226A288012A00D10225208823890028F8
:1057C000384610D0FFF76FFFE1883846FFF75FFFDC
:1057D00023892A463146384600F017F9E1883846D1
:1057E000BDE8F0417AE700F010F9E1883846FFF7AC
:1057F00075FF23892A4631463846FFF754FFE18872
:105800003846BDE8F04142E7406B7047806B704717
:10581000C06B7047006C704710B50A884B88CC8805
:105820001A438B8823431A430B891A434B8989896E
:105830001A430A43A0F8442010BD00210180418092
:105840008180C1800181418181817047002930F8C8
:10585000441F02D041F4004101E0C1F30E01018078
:1058600070470029818802D041F0040101E021F055
:105870000401818070470029818802D041F0010134
:1058800001E021F0010181807047002A828901D066
:105890000A4300E08A438281704781827047024652
:1058A0000020128A0A4200D001207047C9430182B9
:1058B000704702460020138A92890B4202EA0102D5
:1058C00002D0002A00D001207047C94301827047EE
:1058D0001143A0F848107047002A828901D00A437A
:1058E00000E08A43828170470029818802D041F01C
:1058F000080101E021F0080181807047018921F051
:10590000070101817047028922F070020A43028177
:10591000704700B50346FFF7F6FF188940F007000F
:10592000188100BD70B516460D46602904464FF03B
:10593000010231460AD000F068F829462046FFF7F8
:10594000E2FF208940F00700208170BDFFF7ABFE29
:10595000F3E730B504894FF6FF7505EA03231343D7
:10596000E4B20B432343038130BD10B50446FFF777
:10597000F0FF208940F07700208110BD10B504466B
:10598000FFF7E7FF208940F48040208110BD828826
:1059900022F07002828082880A43828070470289E6
:1059A00022F00702028102890A43028170470289BC
:1059B00022F08002028102890A430281704770B599
:1059C0000589048B068C25F007050D434FF6FC4135
:1059D0000C4040F201110C434FF6FF7101EA031134
:1059E00026F022061143314305810483018470BDF2
:1059F0000029818802D041F0800101E021F080017E
:105A000081807047A0F85010704770B5048C24F066
:105A100001040484058B048C4FF6FF7606EA031319
:105A2000134325F0F3052B4324F00A020A4342F006
:105A300001010383018470BDC74910B5884206D1B6
:105A400001211020FEF7F0FE0021102028E0C349BC
:105A5000884202D101214C0410E0C149884202D1A0
:105A600001218C040AE0BF49884202D10121CC0403
:105A700004E0BD4988420AD101210C052046FEF709
:105A8000C9FE2046BDE810400021FEF7C3BEB7495D
:105A9000884209D101212020FEF7C6FE00212020E6
:105AA000BDE81040FEF7C0BE10BD7FB50446008AB9
:105AB0000D4620F44051E88808432082A08941F235
:105AC0000C618843A9882A8911436A8902431143DA
:105AD000A181A08A20F44071A8890843A082684669
