:020000040800F2
:10000000083B01206D480008390200083B02000847
:100010003D0200083F020008410200080000000005
:10002000000000000000000000000000A101000826
:100030004302000800000000E5010008B577000851
:100040008748000887480008874800088748000854
:100050008748000887480008DD0400088748000832
:10006000DB040008874800088748000833030008BD
:100070000D030008A1030008C3030008690200087B
:10008000874800087F030008874800088748000861
:10009000874800088748000887480008E3040008EC
:1000A000874800082904000855040008874800080C
:1000B00057040008770400089704000887480008E0
:1000C000874800088748000887480008D7040008C8
:1000D0008748000849020008874800088748000848
:1000E0001907000887480008874800088748000863
:1000F000874800088748000887480008550300081B
:100100008748000887480008B7040008D904000899
:100110008748000887480008EF030008210400080A
:100120009702000871020008BD0200088748000815
:100130008748000887480008874800088748000863
:100140008748000887480008874800088748000853
:10015000030300088748000887480008874800080C
:100160008748000887480008874800088748000833
:100170008748000887480008874800088748000823
:100180008748000887480008DFF810D007F0ECFF28
:100190000048004759460008AFF30080083B0120A3
:1001A000224B19680868B0E8F00F80F30988BFF3A4
:1001B0006F8F4FF0000080F311884EF00D0E7047E6
:1001C0000000000006480068006880F3088862B6F6
:1001D00061B6BFF34F8FBFF36F8F00DF00BF00BF6B
:1001E00008ED00E0EFF30980BFF36F8F0F4B1A6843
:1001F00020E9F00F106008B54FF0500080F311882F
:10020000BFF34F8FBFF36F8F06F0B6FB4FF00000C8
:1002100080F31188BDE8084019680868B0E8F00F5D
:1002200080F30988BFF36F8F704700BFB0010020D3
:10023000EFF30580704700007047FEE7FEE7FEE73A
:10024000FEE770477047704710B5F74C40F22551F4
:10025000204606F070F8002805D02046BDE8104082
:10026000202106F065B810BDF049F14805F075B9D8
:1002700070B5F04CF04D2146284605F04BF90028AA
:1002800008D02146284605F068F901F0E6FBEB4965
:100290000120087070BD70B5E74DE94C183D21464E
:1002A000284605F037F9002807D001F003FF214662
:1002B0002846BDE8704005F050B970BDDE4810B565
:1002C000E049183005F049F9DF48417A0D2905D099
:1002D000BDE810400021D44805F06CBF4178027899
:1002E00041EA0221D94A1180C178827841EA02218B
:1002F000D74A11804179007941EA0020D549088028
:1003000010BDCD48D449603005F027B970B5C84D4F
:10031000C84C483D2146284605F0FCF8002807D087
:100320002146284605F019F9BDE8704000F0B3BB3E
:1003300070BD70B5BE4DC24C603D2146284605F0EB
:10034000E9F8002805D021462846BDE8704005F0B0
:1003500004B970BD70B5B64CC04D4834294620462E
:1003600005F0D8F8002809D00021204605F047F80C
:1003700029462046BDE8704005F0EFB870BD70B565
:10038000AB4DB74C30352146284605F0C3F8002860
:1003900005D021462846BDE8704005F0DEB870BDA6
:1003A00070B5A34DA74C303D2146284605F0B2F864
:1003B000002805D021462846BDE8704005F0CDB89C
:1003C00070BD10B59A4CA749183C204605F0A2F81C
:1003D00000280BD04FF0C051204605F074F80021E2
:1003E000204605F00CF8A0490020086010BD10B5AB
:1003F00001219E4805F07DFD9D4800788A4CA08033
:1004000003F03DF901219B4805F0D4FE01219A48F3
:1004100005F0D0FE2046BDE81040012105F0CABE1F
:100420000121964805F065BD10B5954C0121204687
:1004300005F053FD00280CD00121204605F059FDA0
:100440002088C1068F48016801D5491E00E0491C7B
:10045000016010BD704710B501218C07204605F0E2
:1004600048FD2088C1068848016801D5491E00E082
:10047000491C016010BD10B5844C0121204605F0D7
:1004800038FD2088C1068248016801D5491E00E078
:10049000491C016010BD10B57E4C0121204605F0BD
:1004A00028FD2088C1067C48016801D5491E00E06E
:1004B000491C016010BD10B5784C0121204605F0A3
:1004C00018FD2088C1067648016801D5491E00E064
:1004D000491C016010BD704770477047012005F04E
:1004E000BBB82DE9F05F4FF4807B6E4D5C465946FA
:1004F000284604F0EBFA07464FF4007A51462846A6
:1005000004F0E4FA06462021674804F0DFFA0546C5
:10051000204605F0A1F8654C4FF0000948B3012FC3
:1005200003D0B6B3012E38D020E0DFF8508140462A
:1005300005F07CF95E490A6802EB421202EB4202C6
:1005400010445C4A1060C1F800900021404605F05C
:1005500069F9012E01D026B108E03DB92068401CA0
:1005600003E0012D02D12068401E2060584605F0AE
:1005700081F8D346504605F06FF8DFF83C814FF024
:10058000010A90B3012E0BD098F80000012812D078
:100590001BE0FFE7012DE1D0E8E7002DE3D0E5E720
:1005A000364805F043F9C8F8100088F800A087B174
:1005B000012F13D016E0314805F038F9D8F8102093
:1005C000801AC8F8080088F80090012F1AD0E7B107
:1005D00008E0012D06D12068401C02E015B9206812
:1005E000401E2060584605F045F8202005F034F8FC
:1005F00000286FD0012D0BD098F801004546012846
:100600005CD063E0002DE6D0ECE7012DE7D0E9E710
:100610001A4805F00BF9C8F8140088F801A0012F5A
:1006200059D007B160E05AE000100140208000205E
:100630007060024000880010286402401900002009
:1006400020800010008020100E0A002026000020CC
:100650002A0000202C0000200088002000800028B4
:1006600000802020008000188C0000200010004036
:100670001C0000200048004000140140001400400D
:1006800000000140E8000020EC00002000040040D1
:10069000F000002000080040F4000020000C0040A2
:1006A000F8000020000802400010024088010020ED
:1006B000840100208001002000000020184805F07F
:1006C000B5F86969401AE86085F801908FB1012F8B
:1006D00012D009E013E03EB92068401C03E0012E6F
:1006E00002D12068401E2060BDE8F05F202004F0A9
:1006F000C1BF012EF0D0F7E7002EF2D0F4E7BDE83D
:10070000F09F084948688A68824200D98868CA68A8
:10071000824200D9C86870474FF4004004F09CBF83
:10072000001400400000002070B5054607F09EF858
:1007300004462946FB4807F0A0F8002816D0952269
:100740002946F84807F086F8F74D0021284604F0BE
:1007500056FEF548F349B838C0F8C410C0F8BC409C
:100760002846BDE87040012104F049BE70BD70B557
:10077000EE4D06460024315D00290BD0284605F0D9
:100780003FFD8021284605F0CCFD0028F9D0641CEF
:10079000E4B2F0E770BD70B5E44E05460024002DCC
:1007A0000DD02946304605F02BFD8021304605F05E
:1007B000B8FD0028F9D0641CE4B2032CEFD370BD5F
:1007C00013B50C460020FFF7E6FFD9A0FFF7CFFFD7
:1007D000D4482346D7A29621E63807F00FFDD1482A
:1007E000E638FFF7C4FFD4A0FFF7C1FFCD48D1A280
:1007F0009621E638009B07F001FDCA48E638FFF76E
:10080000B6FFCFA0FFF7B3FFFF20FFF7C4FFFF2025
:10081000FFF7C1FFBDE81C40FF20BCE770B50546EF
:100820000C46C3A0FFF7A3FFBE482246C1A1E6388D
:1008300007F0FEFCBB48E638FFF799FFBEA0FFF7C4
:1008400096FF2846FFF793FFBDA0FFF790FFBDE896
:100850007040FF209FE777B5B7A185B00646D1E984
:100860000001CDE90001B6A0002200680390B0A00D
:10087000AC4D0068283DA5F128030290A94C114613
:10088000A3F19600A95499548154A154521CD2B298
:100890001E2AF7D30A210170FF2444708470C470AB
:1008A000A048A4A15038079A07F0C2FC9D4902A8AD
:1008B000503906F0C3FF9B4802A9E63806F0BEFF98
:1008C00098486946E63806F0B9FF96483146E6385A
:1008D00006F0B4FF934897A15038069A07F0A8FC99
:1008E00090495039A1F1960006F0A8FF8D4803A960
:1008F000E63806F0A3FF8B492C706C702839AC7079
:10090000A1F1BE0006F09AFF8648E638FFF70CFF1B
:1009100008B070BD2DE9F741884687A185B006462D
:10092000D1E90001CDE9000185A000220068039013
:100930007FA07C4D0068283DA5F128010290144657
:10094000A1F19600AC548C548454521CD2B20A2AA1
:10095000F8D30A210170FF2747708770C77071486C
:1009600074A15038079A07F063FC6E4902A8503909
:1009700006F064FF6B4802A9E63806F05FFF69489D
:100980006946E63806F05AFF66483146E63806F012
:1009900055FF64484146E63806F050FF614803A918
:1009A000E63806F04BFF2F706F705E49AF70EC7049
:1009B00028392C71A1F1BE0006F040FF5948E638F5
:1009C000FFF7B2FE08B0BDE8F08101B58EB05DA2C0
:1009D000322168460E9B07F011FC6846FFF7A4FE23
:1009E0000FB000BD73B554A184B00646D1E9000133
:1009F000CDE9000152A00022006803904CA0494DAF
:100A00000068283DA5F128030290464C1146A3F149
:100A10009600A95499548154A154521CD2B21E2A52
:100A2000F7D30A210170FF2444708470C4703D48DC
:100A300040A15038059A07F0FBFB3A4902A850390B
:100A400006F0FCFE374802A9E63806F0F7FE354806
:100A50006946E63806F0F2FE32483146E63806F0DE
:100A6000EDFE30495039A1F1960006F0E7FE2D4821
:100A700003A9E63806F0E2FE2A492C706C7028398A
:100A8000AC70A1F1BE0006F0D9FE2648E638FFF7AB
:100A90004BFE06B070BD2DE9FC412D48017842782F
:100AA000C47811448278131919440379194443799D
:100AB000194483791944C3790B44017A8DF80410E1
:100AC0000B44DBB20093407A984201D10D2909D042
:100AD0009DF804000D2869D0BDE8FC4100211D48A7
:100AE00005F068BBC2F17F0007F048F90546A4F1A4
:100AF000810007F043F9044615F0FF4F4FF07E5098
:100B000000D1054614F0FF4F00D10446284607F0F7
:100B100054F90746204607F050F9002F1CDB3A46EF
:100B20001BE00000FA020020B860024000500040C4
:100B300074000000256400002E7478743D220000CB
:100B4000220000006A302E76616C3D2564000000B2
:100B50001D0A0020004800407A42011E00DA41428E
:100B6000114401EBD1714910FE4EB167002800DA43
:100B70004042322806DA380000D57842322801DABD
:100B8000002012E0204607F050F907460C462846A0
:100B900007F04BF93A46234608F07AF84FF0004246
:100BA000F14B06F0F3FF07F021F97067BDE8FC8117
:100BB000EE48017A0D2904D10078C00701D00D203C
:100BC000704700207047E9480078800701D5012070
:100BD00070470020704701B581B0019800EBC0005C
:100BE00040000090002801D0401EFAE70CBD01B57E
:100BF00081B044F25061019848430090002801D030
:100C0000401EFAE70CBD1CB501210F2004F0C6F808
:100C10004CF6804000906946D54803F0F1FE4FF451
:100C2000034000906946D34803F0EAFE41F6031002
:100C3000009001208DF8040000218DF806108DF839
:100C4000070003208DF805006946CB4803F0D8FE65
:100C50004FF6C17000906946C84803F0D1FE1CBD34
:100C60001CB50121162004F099F800208DF804002D
:100C700001208DF8070002208DF805004FF4C040D8
:100C800000906946BB4803F0BBFE03200090694614
:100C9000B74803F0B5FE4FF2FF5000906946B848E0
:100CA00003F0AEFE1CBD1FB54FF4E06003F0F0FD95
:100CB00036208DF80C0002208DF80D008DF80E0006
:100CC00001208DF80F0003A803F0E7FD012110209B
:100CD00004F082F83220ADF8000040F2E7300190D5
:100CE0000020A84CADF80800ADF802006946204687
:100CF00004F056FD0121204605F0FBF801221146C3
:100D0000204605F0D6F80021204604F08BFD012195
:100D1000204604F0BDFD1FBD1FB54FF4E06003F099
:100D2000B7FD37208DF80C0000248DF80D408DF8AC
:100D30000E4001208DF80F0003A803F0AEFD012145
:100D4000202004F049F83220ADF80000ADF808404A
:100D5000ADF8024063208C4C01906946204604F0B7
:100D60001FFD0121204605F0C4F80122114620464E
:100D700005F09FF80021204604F054FD0121204693
:100D800004F086FD1FBD70B58AB00121042004F077
:100D900023F801210D2004F001F8754E02220C21E8
:100DA000304603F0B6FE02220D21304603F0B1FEBC
:100DB00002220E21304603F0ACFE02220F21304603
:100DC00003F0A7FE4FF47040059002208DF8180044
:100DD00003208DF8190000248DF81A4001258DF8A4
:100DE0001B5005A9304603F00BFEA420ADF81C00F3
:100DF0002802664E0890ADF82400ADF81E4007A901
:100E0000304604F0CDFC7020ADF80000ADF8025083
:100E10000294ADF80C400121304604F039FD002168
:100E2000304604F0FFFC6946304604F03BFD69465D
:100E3000304604F063FD6946304604F09BFD694688
:100E4000304604F0D1FD0AB070BD2DE9F047012114
:100E50008AB0084603F0C0FF0121022003F0BCFF66
:100E60000121032003F09AFFDFF80C9101220F21EA
:100E7000484603F04EFEDFF804810122032140467C
:100E800003F047FE02220421404603F042FE022204
:100E90000521404603F03DFE02268DF8046003273D
:100EA00038208DF80570002400908DF8064001254B
:100EB0008DF807506946404603F0A2FD8DF80460A6
:100EC000E8038DF8057000908DF806408DF8075006
:100ED0006946484603F094FD4FF6FF70ADF80C40AC
:100EE00004904FF08049ADF81440ADF80E4003A9CE
:100EF000484604F055FCDFF898A003A9504604F0DA
:100F00004FFC4FF004081420ADF81880ADF8200015
:100F1000ADF81A60ADF81C5006A9484604F0FAFE78
:100F200006A9504604F0F6FE02231A46032148465D
:100F300005F059F802231A460321504605F053F8EC
:100F40000121484604F0D5FF0121504604F0D1FFAD
:100F500001221146484604F0ACFF012211465046DA
:100F600018E0000098000020A9E781401D0A002039
:100F7000000C024000080240000002400004024051
:100F80000010024000100040001400400008004023
:100F90000004004004F08DFF0121484604F078FC75
:100FA0000121504604F074FC0021484604F03AFC4C
:100FB0000021504604F036FC780203F069FC1D2045
:100FC0008DF808008DF809708DF80A408DF80B50E7
:100FD00002A803F062FC1C208DF808008DF809803F
:100FE0008DF80A408DF80B5002A803F056FC0AB0A9
:100FF000BDE8F0872DE9F04101218AB0084603F0F1
:10100000F5FE0121102003F0C9FE4FF4206000908E
:101010004FF0020803208DF8048000248DF80500AD
:101020008DF8064001258DF807506946FE4F384679
:1010300003F0E6FC4FF6FF70FC4EADF8084003905D
:10104000ADF81040ADF80A4002A9304604F0A8FB04
:1010500001220921384603F05CFD01220B213846AC
:1010600003F057FD0427C820ADF81470ADF81C003C
:10107000ADF81680ADF8185005A9304604F04AFEC8
:1010800002231A460321304604F0ADFF0121304609
:1010900004F02FFF01221146304604F00AFF01211F
:1010A000304604F0F5FB0021304604F0BBFBB4826F
:1010B00035804FF4C06003F0EBFB19208DF8200061
:1010C0008DF821708DF822408DF8235008A803F088
:1010D000E4FB0AB077E42DE9F0418AB00121042055
:1010E00003F07AFE0121082003F058FE4FF440502F
:1010F000022600908DF8046003208DF8050000247E
:10110000CB4F8DF8064001258DF8075069463846CB
:1011100003F076FC4FF6FF70DFF81883ADF8084057
:101120000390ADF81040ADF80A4002A9404604F023
:1011300037FB02220C21384603F0EBFC02220D2182
:10114000384603F0E6FC0427C820ADF81470ADF86B
:101150001C00ADF81660ADF8185005A9404604F023
:10116000D9FD02231A460321404604F03CFF012129
:10117000404604F0BEFE01221146404604F099FEAE
:101180000121404604F084FB0021404604F04AFB64
:10119000A84814300480A8F800504FF4C06003F051
:1011A00077FB1E208DF820008DF821708DF82240ED
:1011B0008DF8235008A803F070FB8AE72DE9F04171
:1011C0008AB00121082003F007FE0121084603F040
:1011D000E5FD032002268DF804608DF8050000244B
:1011E000954F00908DF8064001258DF8075069460F
:1011F000384603F005FC4FF6FF70DFF84082ADF88B
:1012000008400390ADF81040ADF80A4002A94046EE
:1012100004F0C6FA02220021384603F07AFC0222CA
:101220000121384603F075FC0427C820ADF814707E
:10123000ADF81C00ADF81660ADF8185005A9404691
:1012400004F068FD02231A460321404604F0CBFE59
:101250000121404604F04DFE01221146404604F0B3
:1012600028FE0121404604F013FB0021404604F013
:10127000D9FA724814300480A8F800504FF4C060C6
:1012800003F006FB32208DF820008DF821708DF8D8
:1012900022408DF8235008A803F0FFFA19E72DE942
:1012A000F0419CB00121664803F078FD01210E0257
:1012B000304603F09BFDDFF88C810122102140466F
:1012C00004F012F938208DF86C0000248DF86D4080
:1012D0008DF86E4001258DF86F501BA803F0DDFAE4
:1012E000594802A9CDE9004058480E2781E89100ED
:1012F000A802CDE90540400007908000CDE908062E
:101300000AA9000181E831000D94694640460E9417
:1013100004F03CF80121404604F071F8012003F08C
:101320006AFEFC2003260F908DF840608DF8434044
:101330000FA9414803F064FB30020F908DF8406024
:101340008DF843400FA9424803F05AFB3F200F900D
:101350008DF840608DF843400FA93E4803F050FBE4
:101360003004CDE91740199417A81A9403F013FE1E
:101370001194139414941594334C8DF848504C3CAC
:101380008DF849508DF8587011A9204603F0D8FD0A
:10139000072301220221204603F047FE07230222F1
:1013A0000321204603F041FE0723032204212046A7
:1013B00003F03BFE072304220521204603F035FEFF
:1013C000072305220621204603F02FFE07230622CD
:1013D0001946204603F029FE07231A460821204615
:1013E00003F023FE072308220921204603F01DFEF7
:1013F000072309220A21204603F017FE07230A22A9
:101400000B21204603F011FE07230B220C2120465E
:1014100003F00BFE07230C220D21204603F005FEEE
:1014200007230D220E2117E00010024000000140AA
:10143000000C02400008004000000240000C004088
:1014400007004000106402404C200140900300203F
:101450000004024000080240204603F0E6FD072396
:101460000E220F21204603F0E0FD0121204603F06B
:1014700059FE0121204603F04BFE0121204603F0D6
:10148000A1FD204603F00BFE1CB0BDE8F08170B555
:10149000054696B00121102003F0A8FC0121084662
:1014A00003F07CFC0121880503F078FC4FF4C06058
:1014B000139002208DF8500000248DF852408DF8D2
:1014C00053408DF8510013A9FE4E304603F098FAB0
:1014D00007220921304603F01CFB07220A2130466F
:1014E00003F017FB0F95ADF844400C20F64DADF816
:1014F0004040ADF84600ADF84240ADF848400FA975
:10150000284604F0E6FD0121284604F053FE4FF47E
:10151000A06003F0BDF93A208DF8540001218DF848
:1015200055108DF856108DF8571015A803F0B5F921
:10153000E64E304603F0A2FE4FF000600090E44813
:10154000CDE902040A200490281D01900015CDE980
:1015500005408010CDE9084040020A9004200B901D
:1015600007940320CDE90C04694630460E9403F03D
:101570000DFF01224021284604F0B3FE0122102174
:10158000304603F0B1FF0121304603F038FF16B0BA
:1015900070BD2DE9F04F8046012197B0880403F01B
:1015A0001BFC0121082003F0F9FB0121480503F091
:1015B000F5FB02268DF8546000244FF440708DF83E
:1015C00056400125C34F14908DF857508DF8556043
:1015D00014A9384603F014FA07220821384603F00C
:1015E00098FA07220921384603F093FADFF8E8B2A7
:1015F000ADF84440ADF848400C27CDF84080ADF838
:101600004640ADF84C40ADF84A7010A9584604F079
:1016100060FD0121584604F0CDFD4FF4A06003F0B9
:1016200037F98DF83C708DF83D508DF83E508DF8AF
:101630003F500FA803F031F90E208DF83C008DF8D3
:101640003D608DF83E408DF83F500FA803F025F91E
:10165000DFF888A2504603F011FE9D48ED060F30DA
:10166000CDE9020404A90A206F1481E8910008A8BA
:101670004FF480784FF40039079480E810030BF1A1
:1016800004060B94CDE900566946504603F07EFEF1
:1016900001224021584604F024FE01221021504628
:1016A00003F022FF0121504603F0A9FEDFF82CA22F
:1016B0000AF1300A504603F0E1FD854800952138D3
:1016C000CDE901604020039004A9212081E8910028
:1016D00008A8079480E81003694650460B9403F06D
:1016E00055FE01228021584604F0FBFD0122102105
:1016F000504603F0F9FE0121504603F080FE17B07A
:10170000BDE8F08FF0B50546012197B0C80403F09D
:1017100063FB0121042003F041FB0121480503F094
:101720003DFB4FF44060139002208DF850000024E0
:101730008DF852408DF85340694E8DF8510013A931
:10174000304603F05DF908220A21304603F0E1F942
:1017500008220B21304603F0DCF9ADF844400C20A0
:10176000604EADF84040ADF846000F95ADF84240F0
:10177000ADF848400FA9304604F0ABFC01213046DB
:1017800004F018FD4FF4A06003F082F80D208DF8EE
:10179000540003258DF855508DF8564001208DF8E2
:1017A000570015A803F079F84C4F1837384603F066
:1017B00065FD780500904C48CDE902040A200490AC
:1017C000301D01900015CDE905408010CDE908409D
:1017D000400207940A900420CDE90C540B9069460E
:1017E00038460E9403F0D2FD01224021304604F029
:1017F00078FD01221021384603F076FE012138469B
:1018000003F0FDFD17B0F0BD2DE9F0418046012148
:1018100096B0480503F0C2FA0121080503F0DCFA8E
:1018200001210C2003F0BAFA02258DF84050002463
:101830008DF84240274F04268DF843400F968DF8CF
:1018400041500FA9384603F0DBF88DF840508DF871
:1018500042408DF84340E8028DF84150204D0F90F2
:101860000FA9284603F0CCF808220221384603F0DD
:1018700050F908220C21284603F04BF94FF4A060E0
:1018800003F006F82F208DF8540005208DF8550040
:101890008DF8560001208DF8570015A802F0FDFFC5
:1018A000ADF84C400C20114DADF84840ADF84E005D
:1018B000CDF84480ADF84A40ADF8504011A9284613
:1018C00016E00000000002400010014040640240A9
:1018D0000E0A0020000C0240004800402860024030
:1018E00000080240004C00401E0000200050004054
:1018F00004F0EFFB0121284604F05CFCFE4F384663
:1019000003F0BCFC7006009040200390FB4802905E
:1019100095200490281D01900015CDE90540801008
:10192000CDE908404002CDE90A0607940320CDE93D
:101930000C04694638460E9403F028FD01228021EC
:10194000284604F0CEFC01221021384603F0CCFDDD
:101950000121384603F053FD16B096E5F0B5054673
:1019600097B00121202003F041FA0121042003F067
:1019700015FA0121880503F011FAC0201390022006
:101980008DF8500000248DF852408DF85340DC4E05
:101990008DF8510013A9304603F032F808220621D1
:1019A000304603F0B6F808220721304603F0B1F8BC
:1019B000ADF844400C20D34EADF84040ADF84600A1
:1019C0000F95ADF84240ADF848400FA9304604F0FD
:1019D00080FB0121304604F0EDFB4FF4A06002F0E3
:1019E00057FF39208DF8540003258DF855500121FB
:1019F0008DF856108DF8571015A802F04EFFC24F03
:101A0000384603F03BFCB8050090C048CDE902041D
:101A10000F200490301D01900015CDE90540801085
:101A2000CDE90840400207940A900420CDE90C5407
:101A30000B90694638460E9403F0A8FC0122402121
:101A4000304604F04EFC01221021384603F04CFDD4
:101A50000121384603F0D3FCD4E618B5AB4A5078E0
:101A60008DF800009DF80000104483789DF8000078
:101A7000AA30C1B2002004E01418A478401C21440C
:101A8000C9B29DF80040A042F6DB1278A048AA2A0D
:101A900003D18B4201D1012100E00021417018BD2A
:101AA000F0B50646012197B0480503F077F901210A
:101AB0004D04284603F090F90121082003F06EF947
:101AC0006020139002208DF8500000248DF85240C1
:101AD0008DF853408F4F8DF8510013A9384602F00E
:101AE0008FFF07220521384603F013F8072206214D
:101AF000384603F00EF80F96ADF844400C20864EA1
:101B0000ADF84040ADF84600ADF84240ADF8484071
:101B10000FA9304604F0DDFA0121304604F04AFBFB
:101B20004FF4A06002F0B4FE11208DF854008DF83F
:101B300055408DF8564001208DF8570015A802F049
:101B4000ACFE6D4F183F384603F098FBA80200909A
:101B500040200390714802903C200490301D019079
:101B60000015CDE905408010CDE908400420CDE9FD
:101B70000A5007940320CDE90C04694638460E94B8
:101B800003F004FC01228021304604F0AAFB01226C
:101B90008021304604F0A5FB01221021384603F0D5
:101BA000A3FC0121384603F02AFC2BE630B585B0B2
:101BB0000121142003F0F2F80121880303F016F943
:101BC00000254FF440708DF80450012400908DF8EA
:101BD000074069464A4802F013FF602000906946BA
:101BE0004F4802F00DFF0821022004F0E4FB092118
:101BF000022004F0E0FB0521042004F0DCFB0621B8
:101C0000042004F0D8FB4FF4587002908DF80C506B
:101C100010208DF80D008DF80E4002A803F0CCFCCA
:101C200017208DF810008DF811408DF812508DF8A6
:101C3000134004A802F031FE05B030BD10B5C378E2
:101C4000002202219B1CDBB204E0445C491C2244BC
:101C500092B2C9B28B42F8D2D0B2C0F1FF0010BD2F
:101C600010B51C460346FF2020706070A37007204B
:101C7000E070032020712A206071080AA071E171D0
:101C8000100A207262722046FFF7D8FFA07210BDC2
:101C900030B50C461D4B15460146603BC82201205D
:101CA000FFF7DEFF194BC822553B21460220FFF704
:101CB000D7FF164BC8224A3B29460320FFF7D0FF27
:101CC00012489838816BC0F85910C16BC0F85D108C
:101CD000B0F84010A0F8611090F8421080F863103E
:101CE000D0F843104166D0F847108166B0F84B1029
:101CF000A0F86C1016E00000B8600240FA02002064
:101D00000008024000140140286402402C0A002010
:101D100018000020000C0240004400404401002054
:101D20000010024090F84D1080F86E10D0F84E1060
:101D3000C0F86F10D0F85210C0F87310B0F85610F9
:101D4000A0F8771090F8581080F8791030BD70B571
:101D5000FB4C606F002816D1A28961892089FFF7AA
:101D600097FFF948F74941662121C165F64D4FF0CB
:101D7000C0515835284603F0A6FB0121284603F040
:101D80003EFB0120606770BD10B5012810D003280C
:101D900019D0042822D0052809D1EC4C204604F0A3
:101DA0002FFA4021204604F0BCFA0028F9D010BDDB
:101DB000E74C204604F024FA4021204604F0B1FA12
:101DC0000028F9D010BDE34C204604F019FA402158
:101DD000204604F0A6FA0028F9D010BDDE4C2046BB
:101DE00004F00EFA4021204604F09BFA0028F9D0B6
:101DF00010BD2DE9FC41D94E304603F017FDD04D02
:101E00008035296DB04640EA014000244CF250363E
:101E10004FF6E8570190404603F008FD296D40EA6F
:101E2000014000900100019800D54942002800DAE5
:101E30004042081AB04200DA641C00980190BC428B
:101E400001DC022CE7DB0098BDE8FC812DE9FC41B8
:101E5000C24E304603F0EAFCB94D8035296DB046DC
:101E600040EA014000244CF250364FF6E85701900A
:101E7000404603F0DBFC296D40EA01400090010080
:101E8000019800D54942002800DA4042081AB042C1
:101E900000DA641C00980190BC4201DC022CE7DBF4
:101EA0000098642190FBF1F0CEE72DE9FC414FF062
:101EB0008046304603F0BAFCA14D8035696DB046CE
:101EC00040EA014000244CF250364FF6E8570190AA
:101ED000404603F0ABFC696D40EA01400090010010
:101EE000019800D54942002800DA4042081AB04261
:101EF00000DA641C00980190BC4201DC022CE7DB94
:101F00000098A1E72DE9FC41954E304603F08EFC88
:101F10008B4D8035A96DB04640EA014000244CF25B
:101F200050364FF6E8570190404603F07FFCA96D0C
:101F300040EA014000900100019800D54942002884
:101F400000DA4042081AB04200DA641C009801909E
:101F5000BC4201DC022CE7DB009875E72DE9FC416F
:101F6000804E304603F062FC754D8035E96DB04619
:101F700040EA014000244CF250364FF6E8570190F9
:101F8000404603F053FCE96D40EA01400090010037
:101F9000019800D54942002800DA4042081AB042B0
:101FA00000DA641C00980190BC4201DC022CE7DBE3
:101FB000009849E72DE9FC416B4E304603F036FCB2
:101FC0005F4D8035296EB04640EA014000244CF256
:101FD00050364FF6E8570190404603F027FC296E33
:101FE00040EA014000900100019800D549420028D4
:101FF00000DA4042081AB04200DA641C00980190EE
:10200000BC4201DC022CE7DB00981DE74C4A0021B2
:10201000803201280CD002280ED0032811D00428C9
:1020200014D0052803D15048243001601166704750
:102030004A484162116570474FF0804041625165E6
:102040007047474824300160916570474548243007
:102050000160D16570473EB501680091416801910A
:102060000089ADF8080000206A46411C0C460AE0D1
:1020700032F8103032F81150AB4203D922F8105028
:1020800022F81130491C89B20529F1D3A0B20428E5
:10209000EBD3BDF804003EBD0022114630F81130EC
:1020A000491C89B21A443229F8D33220B2FBF0F02D
:1020B00080B27047F0B52D4F214D002407F18C06FA
:1020C00004EB8402042107EB420000BF00EB410354
:1020D00033F8023C20F81130491E0904090CF5D1EF
:1020E0002249383931F8141027F81210FFF7B3FFDE
:1020F00004EBC40101EB04112A7806EB8101641C96
:10210000A4B221F812000E2CDAD32878401CC0B2F9
:102110002870322801D300202870144D00241C3D63
:1021200004EBC40000EB041006EB8000FFF7B4FFE3
:1021300025F81400641CA4B20E2CF1D3F0BD0000ED
:1021400018000020ED09002000600240005000400F
:102150000010014000440040004C004000000140DD
:102160000004004000080040000C0040C8030020AC
:1021700010B5F94C00206071612020716420FEF7D9
:1021800036FD012060717A20207110BD10B5F24C2F
:1021900000206071612020716420FEF728FD01207D
:1021A00060717A20207110BD2DE9F0410E46054680
:1021B00005F03BFE07460C46304605F036FE3A4633
:1021C000234606F065FDE54AE54B05F0DFFC05F02A
:1021D0000DFEE1498031C8673146084605F0B3FB82
:1021E00004462946084605F0AEFB214605F053FBA0
:1021F00005F01BFE06F0E6FF05F0F8FDD949086082
:10220000BDE8F0812DE9F14F9AB00020D64B009047
:10221000D14FD849DDF868C08DF83C00DFF84CA3F9
:10222000D34C9E144FF4004B07F180004FF48045CF
:102230004FF48069A1F5D062BCF1290F7ED2DFE8AE
:102240000CF0153034383C4044484A4E52565A5EE1
:1022500062666DD2FEFDFCFBFAF9F8F7F6F57DF447
:10226000F3F2F1F0EFEEEDECEBEAE90002211846B3
:1022700002F02CFC50B101225946504602F03EFCBF
:102280008021204602F036FC002246E10022594619
:10229000504602F033FC8021204602F02DFC002243
:1022A00049E1416A0122B4A093E2016A0222B7A087
:1022B0008FE2C1690322BAA08BE241690422BDA06A
:1022C00087E281690522BFA083E201690622C1A0DD
:1022D0007FE207220FE1C16C0822BBA079E2416CCA
:1022E0000922BDA075E249780A22BEA071E20978F0
:1022F0000B22C0A06DE20C22C2A0F96969E2816ADA
:102300000D22C3A065E20E22C6A0B96D61E2954818
:102310002C3090F839100F22C5A05AE20121C8488C
:1023200002F0D4FB4FF400570E903946D046504689
:1023300002F0CCFB0D900221C14800E039E202F02E
:10234000C5FB0C902946404602F0C0FB0B900421CF
:10235000BB4802F0BBFB0A905946B94802F0B6FBF5
:1023600083460821B64802F0B1FB82462946B448AC
:1023700002F0ACFB07901021B14802F0A7FB0690D9
:102380003946AF4802F0A2FB80460821204602F001
:102390009DFB04903146AA4802F098FB07461021A5
:1023A000204602F093FB06464946A54802F08EFB04
:1023B00005468021A24802F089FB04464FF4807153
:1023C0009F4802F083FBCDF814808DE8F0000346AF
:1023D0009CA228210FA8CDE908AB05F00FFF102221
:1023E0000FA9A1A0E3E180219A46184602F078FBEC
:1023F0000E900121504602F073FB0D904021504693
:1024000002F06EFB0C90D8465946204602F068FB5D
:10241000314615E0E0E1D9E1D4E1CDE1B1E1ACE153
:10242000A7E1A2E19DE198E192E18CE184E17AE10A
:1024300070E18CE087E082E060E05BE054E04DE03A
:10244000DFF82CB20B90584602F04AFB0A904F4638
:102450004946504602F044FB4FF400690990494652
:10246000584602F03DFB08904946504602F038FBC2
:1024700007903946204602F033FB0690314650461D
:1024800002F02EFB05904946204602F029FB0490FD
:102490004FF40051504602F023FB81462946204666
:1024A00002F01EFB06462946504602F019FB05467F
:1024B0004FF48071584602F013FB044641465046E3
:1024C00002F00EFB8DE8700203465EA228210FA8E1
:1024D00005F094FE11220FA966A068E1FFF7E5FC64
:1024E0000146122265A074E1FFF70CFD014613229C
:1024F00067A06EE11422816C2FA06AE102211846C8
:1025000002F0E4FA68B101225946504602F0F6FAA8
:102510008021204602F0EEFA1522B7F90E1061A0D4
:1025200057E100225946504602F0E8FA8021204641
:1025300002F0E2FA1522B7F90E1061A049E1798B99
:10254000162267A045E1C16A172269A041E1016B2B
:1025500018226BA03DE1000018000020786122885D
:10256000A9E7814018010020000402400008024051
:10257000000C02402C0A0020736572766F5F766152
:102580006C75655F706861693A20000073657276EA
:102590006F5F76616C75655F7361753A200000004E
:1025A000736572766F5F76616C75655F7472616971
:1025B0003A200000676F635F62616E685F706861F8
:1025C000693A2000676F635F62616E685F7361756F
:1025D0003A200000676F635F62616E685F747261CA
:1025E000693A200052585F5553415254365B315D71
:1025F000203A200052585F5553415254365B305DAB
:102600003A2000007465737478756E673A20000094
:102610006E616E675F6368616E5F747261693A20B4
:1026200000000000746573745F6269743A200000F2
:1026300044435F5441595F4B45503A20000000002D
:102640000010024025642564256425642564256402
:102650002564256425642564256425642564256432
:102660002564256400000000496E3A200000000047
:10267000000002404F55543A2000000052454144AA
:102680005F454E434F4445525F323A200000000000
:10269000524541445F454E434F4445525F333A20D3
:1026A000000000002D2D2D20504147452031202DC8
:1026B0002D2D2053414E20444F20494D553A2000A6
:1026C0002D2D2D20504147452031202D2D2D2053DB
:1026D000414E2058414E4820494D553A20000000B7
:1026E0006C617365725F7472756F633A20000000ED
:1026F0006E616E675F6368616E5F7361753A20003B
:102700006E616E675F6368616E5F706861693A20D1
:1027100000000000FFF7F6FB002800DA4042014607
:102720001922E2A055E0FFF7C0FB002800DA404282
:1027300001461A22E2A04CE0E6481B22007800F095
:102740008001E5A045E0B7F912101D22E5A040E0A8
:10275000B7F914101E22E5A03BE0918A1F22E5A0E4
:1027600037E0D18A2022E9A033E0118B2122EDA0AD
:102770002FE0518B2222F1A02BE0918B2322F5A098
:1027800027E08C7A4B7A0A7AC87904AD85E81D0077
:102790008C794B790A79C8788DE81D008B78F3A283
:1027A00028210FA805F02AFD24220FA9F6A0FEF784
:1027B000B1F81BB0BDE8F08FFFF777FB014625228B
:1027C000F4A006E02622F5A0F96E02E02722F8A088
:1027D000396FFEF740F8ECE70221184602F076F96F
:1027E00058B101225946504602F088F9802120460E
:1027F00002F080F92822796A0AE000225946504600
:1028000002F07CF98021204602F076F9396A28220C
:10281000BDA0DEE70121E94802F0F1BD11B4E848AE
:10282000416E009A914201DD002101E0416E491C98
:102830004166406E18BCE5E4012004F001F8FBE7B6
:1028400010B501221102DF4802F058F9BDE810402E
:1028500000224FF48061DC4802F050B92DE9FF41BD
:1028600082B015460C9C12F1FF4F01D382F0004557
:102870004FF07E56B4F5000F01DAD44C02E0B442BA
:1028800000DD3446DDE90201401A00D5404247F23E
:102890009458009088B30599374688420ADA08466A
:1028A00005F06CFA0746009805F068FA394605F01D
:1028B0007CF807462146304605F03FF8394605F0DA
:1028C00042F8214604F0E7FF294605F03CF80446AB
:1028D000294605F0E3FA00D22C46204606F0A6FA77
:1028E00005F06BFA0190012801DA01200190DDE981
:1028F0000001884206DC02980CE0FFE74246002116
:1029000003980AE0DDE902108842019901DA0844DF
:1029100000E0401A42460021039006B0BDE8F041B5
:1029200001F0DFBEF8B56B48A54CA94DA4F18004B9
:102930004078A84AE169060741F2680302D5002001
:10294000009504E0C00605D546F2A8100095FFF7F3
:1029500085FFE0619A49A08BAC3181F83500000A0F
:1029600081F83400F8BD70B502219B4802F0AEF842
:102970004FF48046994C750068B9012231462046D3
:1029800002F0BCF84FF4487003F05AFF00222946C9
:10299000204602F0B3F84F48007800060BD500221D
:1029A0003146204602F0AAF829462046BDE870408C
:1029B000012202F0A3B870BD464A4FF4805150780E
:1029C0008307864801D5002203E09279002A02D0CD
:1029D000012202F093B8704701B53E484FF0000263
:1029E000417877488B0700F1AC000DD48B0602D5F7
:1029F00000F8382F04E0490706D5012100F8381FF8
:102A00009DF80010417008BD80F8392008BD724E55
:102A1000DFF8C891B5152F4CDFF8ACA1AF004FF42B
:102A200080584FF4804B3220FFF7D6FFFFF7C4FFEA
:102A3000FFF799FFFFF776FF2078800701D5FFF7B2
:102A4000FFFE2946304602F041F8012809D1012253
:102A50003946504602F052F800222946594802F001
:102A60004DF82078000604D500223946504602F081
:102A700045F86078810701D5002202E0C00704D044
:102A800001224146484602F039F8A07908B10122F6
:102A900003E0E0790A2804D900225946504602F0A2
:102AA0002DF80C2003F0CCFEBDE70000454E434F4F
:102AB0004445525F42414E485F504841493A2000E8
:102AC000454E434F4445525F42414E485F53415546
:102AD0003A2000001D0A0020544F554348504144FD
:102AE0003A200000494D555F583A2000494D555F46
:102AF000593A20005F414443315F46696C74657206
:102B000065645B31305D3A20000000005F41444362
:102B1000325F46696C74657265645B31315D3A2081
:102B2000000000005F414443315F46696C74657288
:102B300065645B31325D3A20000000005F41444330
:102B4000315F46696C74657265645B31335D3A2050
:102B5000000000005F414443315F46696C74657258
:102B600065645B31345D3A20000000002564202557
:102B700064202564202564202564202564202564A4
:102B800020256420256425004269745F4553503A2E
:102B900020000000454344323A2000005072657323
:102BA000735F54616D5F476961633A200000000004
:102BB00050726573735F583A20000000A0600240B5
:102BC0009800002000000240000C0240CDCC4C3D9B
:102BD000CDCCCC3D0000204100100240000402405A
:102BE0002920FFF71BFE0A2003F02AFEF8E707B5AD
:102BF000FA480160803800998167C2670EBD2DE9EF
:102C0000FF411C460A9F019805F0B8F8F34D05F105
:102C10008006A860019830612C60A5F180040298BC
:102C2000A067009805F0AAF8E8600020E067B060AF
:102C3000B4F90E007061384605F0BFF82083B4F98E
:102C400018000A2801DD0A2001E04FF4FA60E08252
:102C5000BDE8FF812DE9F84FE14EDFF88093E148B0
:102C600072784FF01E01D30709F180094FF08047B9
:102C70004FEA827206D0002A0FDBC9F81810C9F893
:102C800028700EE0002A08DAF179192904D9012008
:102C9000C9F81800D44802E01421C9F81810C9F87E
:102CA0002800D9F818001530C9F82400FDF780FF76
:102CB0000D2806D0BDE8F84F00224FF081411046A4
:102CC00095E73278DFF81483C44812F0480F4FF0CC
:102CD0000A054FF00004A8F180083FD191063DD4C9
:102CE000D1063BD431794FF0050AC82906D9836F44
:102CF000322B03DAD8F84C00404206E032292DD2BC
:102D0000816F32292ADAD8F84C00B8F90E1000EB9E
:102D1000C00001EB8000C8F84800C9F81C40012140
:102D2000D9F8280004F07FFED9F82410034691FB5F
:102D3000FAF2AE480090D9F81C10D8F84800FFF716
:102D40005EFFB8F90E00C8F8480000BFC9F820506F
:102D5000B8F90E00C8F84800BDE8F88F11074FEA2F
:102D6000426125D5002944DB910642D4D10640D4E6
:102D70003179C82908D9816F32293ADAB8F90E00B9
:102D8000D8F84C10401A09E0322932D2816F32292A
:102D90002FDAB8F90E00D8F84C100844C8F84800EB
:102DA000C9F81C400094D9E90923D9F81C1026E27F
:102DB00000291EDA91061CD4D1061AD43179C8290B
:102DC00008D9816F322914DAB8F90E00D8F84C10FE
:102DD000401A09E032290CD2816F322909DAB8F998
:102DE0000E00D8F84C100844C8F848004FF4617041
:102DF000CDE012F0480F4FF4E1613CD193064FEA69
:102E0000C2631BD5002B36DB3379C82B08D9836FFF
:102E1000322B30DAB8F90E00D8F84C10401A09E01D
:102E2000322B28D2836F322B25DAB8F90E00D8F86E
:102E30004C100844C8F848006D48A8E0002B1ADA86
:102E40003379C82B08D9836F322B14DAB8F90E0006
:102E5000D8F84C20801A09E0322B0CD2836F322B29
:102E600009DAB8F90E00D8F84C201044C8F8480028
:102E7000C9F81C1096E713074FF4E17ACAF1000B6A
:102E800040F2465E4FEA42633FD5002B4FEA826331
:102E90001DDA002B59DBD30657D43379C82B08D958
:102EA000836F322B51DAB8F90E00D8F84C10401A63
:102EB00009E0322B49D2836F322B46DAB8F90E0083
:102EC000D8F84C100844C8F8480050465FE0002B82
:102ED0003BDAD30639D43379C82B08D9836F322B28
:102EE00033DAB8F90E00D8F84C10401A09E0322B4A
:102EF0002BD2836F322B28DAB8F90E00D8F84C1099
:102F00000844C8F84800584641E0002B1DDA9306F3
:102F10001BD4D30619D53379C82B08D9836F322B2C
:102F200013DAB8F90E00D8F84C10401A09E0322B29
:102F30000BD2836F322B08DAB8F90E00D8F84C1098
:102F40000844C8F84800704621E0DFF8A8C012F035
:102F5000480F1FD193061DD5D3061BD53379C82B37
:102F600008D9836F322B15DAB8F90E00D8F84C1057
:102F7000401A09E0322B0DD2836F322B0ADAB8F9EE
:102F80000E00D8F84C100844C8F848006046C9F84C
:102F90001C0007E7130708D5530606D4930604D48C
:102FA000D30602D4C9F81C4008E012F0480F23D120
:102FB000930621D4D3061FD5C9F81C100094D9F864
:102FC0002830D9F81820D9F81C1000BFD8F84800CC
:102FD000FFF715FEC9F82050BEE60000980000205B
:102FE0001D0A00206666263F9A99993F0000A0417D
:102FF0007CFCFFFFBAFAFFFF130708D4530606D57F
:10300000930604D4D30602D44FF461702CE012F07E
:10301000480F05D1930603D5D30601D4FC4823E01D
:1030200013074FEA42630FD5002B4FEA826305DA9C
:10303000002B11DBD3060FD4504615E0002B0BDA22
:10304000D30609D458460FE0002B05DA930603D4C3
:10305000D30601D5704607E012F0480F7BD19306E6
:1030600005D5D00677D56046C9F81C00A6E7D2067C
:1030700071D472794FF07E5A4FF07C5B322A2ED297
:10308000B8F90E20C8F84820C9F81C10CDF800A0E7
:10309000D9F81C1053460A22D8F84800FFF7AFFDB4
:1030A0005F460EE00A2003F0CBFBF07920B14FF031
:1030B0008042D849642002E0D74A39461420FFF7FD
:1030C00096FD70793228EDD3B8F90E104046C8F855
:1030D00048104946C9F820505346009434E0C82AA5
:1030E0003AD9B8F90E10C8F848100022C9F81C20C7
:1030F000CDF800A0D9F81C10544653460A22D8F83F
:103100004800FFF77CFDDFF814A35F460EE00A20BD
:1031100003F096FBF07920B14FF080422146C820A1
:1031200002E0524639461420FFF761FD7079C82845
:10313000EDD8B8F90E104046C8F848104946C9F80D
:103140002050002223460092C9690222D0F848008C
:10315000FFF755FD00E65EE0816F0A2936DD009439
:10316000D9F82830D9F818204C46416FD8F84800D3
:10317000FFF745FD2562B846A84F54465D460DE071
:103180000A2003F05DFBF07918B142462146322057
:1031900002E03A4629461420FFF729FD307932280B
:1031A000EED39F4F4FF040483079C828D2D90A203B
:1031B00003F046FBF07918B142462146322002E086
:1031C0003A4629461420FFF712FDEDE7816F3229B8
:1031D00021DD3179C82905D9B8F90E10D8F84C206D
:1031E000891A06E032290FD2B8F90E10D8F84C200F
:1031F0001144C8F848100094D9E90923416FD8F860
:103200004800FFF7FCFCA1E50094D9F82830D9F874
:103210001820416FDAE6B8F90E00C8F848000094AB
:1032200000221146D9F82830D8F8480090E72DE957
:10323000F041054640F2862085423ADD40F60E1008
:10324000854202DBB420BDE8F0817648002400BF4F
:1032500050F82410A94229DC00EB84014968A942F6
:1032600024DB00EB840150F824704968C81B04F08B
:1032700085FD0646E81B04F081FD314604F095FB10
:1032800005466848903800EB840150F824404968AE
:10329000081B04F073FD294604F055FB4FF07C51E8
:1032A00004F0F9FA04F089FD2044CCE7641C232CD7
:1032B000CEDB0520C7E75C4810B5808AFFF7B7FF73
:1032C0005A49488310BD2DE9FF4182B015460C9C38
:1032D00012F1FF4F01D382F000454FF07E56B4F556
:1032E000000F01DA4B4C02E0B44200DD3446DDE968
:1032F0000201401A00D5404247F2F858009088B3C6
:103300000599374688420ADA084604F037FD074631
:10331000009804F033FD394604F047FB0746214688
:10332000304604F00AFB394604F00DFB214604F058
:10333000B2FA294604F007FB0446294604F0AEFD24
:1033400000D22C46204605F071FD04F036FD0190B8
:10335000012801DA01200190DDE90001884206DC44
:1033600002980CE0FFE74246002103980AE0DDE9FD
:1033700002108842019901DA084400E0401A4246EE
:103380000021039006B0BDE8F04101F0AAB9F8B5FC
:10339000264C274D8034274F009540F69806216B28
:1033A00033463A460020FFF78EFF20630095A16A5E
:1033B00033463A460020FFF786FFA0620095E16A97
:1033C00033463A460020FFF77EFFE062E16A04F1EF
:1033D000AC0080F82B10E16A090A80F82A10A16A73
:1033E00080F82610A16A090A00F8251F216BC17216
:1033F000216B090A8172206B022808DAA06A022870
:1034000005DAE06A022802DA084900200865F8BDFA
:103410007CFCFFFFCDCC4C3D0000A0410000A04053
:103420000000A0C0A0920008AC03002018000020FB
:10343000CDCCCC3D00002041FE4EB41D04F1FA0578
:10344000306D012801D1FFF7A2FFFFF734FF20788C
:103450006860FFF7FFFBF3E77CB501200024CDE9AE
:103460000004050223462A46F3A1F64803F031F88A
:103470000420CDE9000400232A46F3A1F54803F017
:1034800028F80220CDE9000400232A46F2A1F648DC
:1034900003F01FF80320CDE9000400232A46F3A11E
:1034A000F64803F016F8BDE87C4003F09CBB2DE91C
:1034B000F04791460E46044604F042FA054620F0D5
:1034C0000040074616F0FF4F01D0314601E04FF0B3
:1034D0007E5104F06AFAEA4904F035FA04F0A5FCDA
:1034E00005F02EFDDFF89C830022434604F04BFBE1
:1034F000012204F02CFC04F0ABFCE349B5F5000F0D
:103500002DDB8F4207DD0121484604F08CFA21466D
:1035100004F0C1F91DE004F088FC4FF0FF3204F024
:1035200016FC0022434604F08AFA07460D46484638
:1035300004F07BFC3A462B4604F028FB07460D4678
:10354000204604F072FC3A462B4604F078FA04F068
:103550007FFC0446314604F0A1FC32D230E015F184
:10356000FF4F2ED38F4207DD0121484604F05BFA5E
:10357000214604F0E5F91EE004F057FC4FF0333229
:10358000C24B04F003FB0022434604F058FA0746FE
:103590000D46484604F049FC3A462B4604F0F6FA3C
:1035A00007460D46204604F040FC3A462B4604F000
:1035B000E7FA04F04DFC0446314604F065FC00D205
:1035C00034462046BDE8F0872DE9F047B04C4FF077
:1035D0007E51A06804F05FF90646A06095484FF060
:1035E00000086FF00107C16F00F18005B1F5000F11
:1035F00019DB8146304604F051FCE3D23946686855
:1036000004F011FA0646E96804F045F9E86021691A
:10361000B9F90E00081A6169084404F0AFFB31469D
:1036200004F08BF923E011F1FF4F24D381460846C3
:1036300004F0C3FB002800DA404204F09FFB31464F
:1036400004F022FCBED23946686804F0ECF9064664
:10365000E96804F075F9E8602169B9F90E000844D9
:103660006169401A04F08AFB314604F014F9A8603D
:10367000C4F80880A6E701218162C162A2E72DE9B2
:10368000F05F6C4DE86F04F098FB400001D0FFF74D
:103690009BFFA86F04F072FB664C01468034D4E9AE
:1036A0000020FFF704FF81466060E86F04F085FBAF
:1036B0004000DFF8E081784FB5F90E004FF4E16685
:1036C00014D004F05BFBE16804F037F9414604F0E4
:1036D0003AF904F072FB2064206CB04201DD2664EC
:1036E00019E0206CB84216DA276414E004F046FBB7
:1036F000E16804F022F9414604F025F904F05DFB8D
:103700002064216C4FF46160814203DC216C4042F3
:10371000814200DA2064A0686049804604F045F9DF
:1037200004F04BFB4FF46161484304F027FB414632
:1037300004F006F904F041FB2882206C00280BDD20
:10374000E86BB5F91010401A6063286CB5F91010D9
:10375000401AA063686C0DE0206C00280FDA286B1B
:10376000B5F91010401A6063686BB5F91010401A73
:10377000A063A86BB5F91010401AE06305E0484655
:1037800004F01BFBE064A0646064606BB042606B9B
:1037900002DDA0F5616004E0B84203DA606B00F579
:1037A00061606063A06BB042A06B02DDA0F5616058
:1037B00004E0B84203DAA06B00F56160A063E06B3F
:1037C000B042E06B02DDA0F5616004E0B84203DACC
:1037D000E06B00F56160E063206CA146002800DA30
:1037E0004042DFF8BC80B0427EDDD9F840000028BE
:1037F00000DA404204F0D0FA82468B464C46D9F8B3
:10380000340004F0C9FA0022264B04F031FA524683
:103810005B4604F0BBF982468B46B5F9100004F014
:10382000BBFA52465B4604F00AF904F0DFFA206165
:10383000206C39E0180000205461736B5F4D6169A2
:103840006E000000393400085461736B5F484D49C5
:1038500000000000E12B00085461736B5F436F6E42
:1038600074726F6C5F3100000F2A00085461736B33
:103870005F436F6E74726F6C5F320000392800080E
:103880000000A0C00000F03F0000A0413333D33F50
:103890001801002000004040F8F8FFFF00006145DB
:1038A00074F5FFFF0020AC40002800DA404204F02D
:1038B00073FA04468A46D9F8380004F06DFA0022FB
:1038C000FE4B04F0D5F92246534604F05FF98246D8
:1038D0008B46B5F9100004F05FFA52465B4604F0DF
:1038E000AEF804F083FA00E0A9E0C9F81400D9F8B2
:1038F0004000002800DA404204F04EFA83468A462F
:103900004C46D9F83C0004F047FA0022EB4B04F097
:10391000AFF95A46534604F039F982468B46B5F959
:10392000100004F039FA52465B4604F088F804F0BF
:103930005DFAA061A16E2069081A40F68C218842C8
:10394000204603DD026902F5616207E0826E0369C9
:10395000D21A424503DA0269A2F561620261826EFF
:103960000369D41A4FF461725342944203DD04692F
:1039700004F5E16409E0846ED0F810C0A4EB0C04F7
:103980009C4203DA0469A4F5E1640461C46ED0F8D2
:1039900014C0A4EB0C048C4203DD446904F561649B
:1039A00009E0C46ED0F814C0A4EB0C04444503DA5B
:1039B0004469A4F561644461C46ED0F814C0A4EBFA
:1039C0000C04944203DD446904F5E16409E0C46E2B
:1039D000D0F814C0A4EB0C049C4203DA4469A4F5AB
:1039E000E1644461046FD0F818C0A4EB0C048C426D
:1039F00003DD816901F5616107E0016F8469091BDD
:103A0000414503DA8169A1F561618161016F8469D2
:103A1000091B914203DD816901F5E16107E0016F56
:103A20008269891A994203DA8169A1F5E1618161AC
:103A3000016981664169C16681690167F0E0B5F994
:103A400010004C46C9F81000B5F91000C9F8140070
:103A5000B5F91000C9F81800D9F86800D9F81010A5
:103A6000411A40F68C20814203DD216901F5616134
:103A700007E0A16E2269891A414503DA2169A1F59F
:103A800061612161A16E22698B1A40F246514A425E
:103A90008B4203DD236903F5E16309E0A36ED4F8EB
:103AA00010C0A3EB0C03934203DA2369A3F5E1638F
:103AB0002361E36ED4F814C0A3EB0C03834203DD4F
:103AC000636903F5616309E0E36ED4F814C0A3EB06
:103AD0000C03434503DA6369A3F561636361E36E35
:103AE000D4F814C0A3EB0C038B4203DD636903F528
:103AF000E16309E0E36ED4F814C0A3EB0C03934236
:103B000003DA6369A3F5E1636361236FD4F818C036
:103B1000A3EB0C03834203DDA06900F5616007E0BD
:103B2000206FA369C01A404503DAA069A0F561605F
:103B3000A061206FA369C01A884203DDA06900F567
:103B4000E16007E0206FA169401A904203DAA069A2
:103B5000A0F5E160A0612069A0666069E066A069E7
:103B60002067206C002800DA404204F015F98046F6
:103B70008A46606B04F010F9DFF840B100225B4622
:103B800004F076F84246534604F000F880468A4630
:103B9000206904F001F94246534603F050FF04F057
:103BA00025F92061206C002800DA404204F0F4F886
:103BB00080468A46A06B04F0EFF800225B4604F0D2
:103BC00057F84246534603F0E1FF82468846606953
:103BD00004F0E2F85246434603F031FF04F006F9E0
:103BE0006061206C002800DA404204F0D5F880467D
:103BF0008A46E06B04F0D0F800225B4604F038F807
:103C00004246534603F0C2FF82468846A06904F04C
:103C1000C3F85246434603F012FF04F0E7F8A061F0
:103C2000D9F810004C46B84201DA384602E0B042FA
:103C300000DD3046C0F5E1626069B84201DA38461D
:103C400002E0B04200DD3046C0F5E161A069B84253
:103C500001DA384602E0B04200DD3046C0F5E163EB
:103C6000C2EB02324FF4616092FBF0F20A32E26181
:103C7000C1EB013191FBF0F10A316162C3EB033119
:103C800091FBF0F014382062E0692881206A688195
:103C9000606AA881FEF75BF8206C002800DA4042D9
:103CA000B2460A26064F50457EDD206C00284FDDC7
:103CB000606804F0BAF88046894603E00020AC4012
:103CC00035FA8E3CA069696C401A90FBF6F004F05E
:103CD00055F8BB46394603F036FE04F0A6F805F069
:103CE000E1F842464B4603F051FF04F07FF8E064F0
:103CF000606804F09AF8074660698846296C401AA3
:103D000090FBF6F004F03AF8594603F01CFE04F07C
:103D10008CF805F0C7F83A46434603F037FF04F045
:103D200065F8A064606804F080F80746206988465A
:103D3000E96B401A90FBF6F004F020F8594603F0C6
:103D400002FE04F072F805F0ADF83A4643464EE044
:103D5000206C002850DA606804F067F88046A0699B
:103D60008946A96B401A90FBF6F004F007F8BB46B1
:103D7000394603F0E8FD04F058F805F093F84246A0
:103D80004B4603F003FF04F031F8E064606804F090
:103D90004CF8074660698846696B401A90FBF6F05C
:103DA00003F0ECFF594600E033E003F0CCFD04F0F3
:103DB0003CF805F077F83A46434603F0E7FE04F096
:103DC00015F8A064606804F030F80746206988465A
:103DD000296B401A90FBF6F003F0D0FF594603F030
:103DE000B2FD04F022F805F05DF843463A4603F0D0
:103DF000CDFE03F0FBFF606460684FF07E53F7492F
:103E000098426BDCCA680020002A42DCC86060600F
:103E100046E0606804F009F88046A0698946B5F973
:103E20001010401A90FBF6F003F0A8FFBB4639468D
:103E300003F089FD03F0F9FF05F034F842464B46E4
:103E400003F0A4FE03F0D2FFE064606803F0EDFF2E
:103E5000074660698846B5F91010401A90FBF6F0E5
:103E600003F08CFF594603F06EFD03F0DEFF05F012
:103E700019F83A46434603F089FE03F0B7FFA06401
:103E8000606803F0D2FF074620698846B5F9101034
:103E90004FE7521ECA60012263606264A264E2645A
:103EA000C968B1F5FA7F1CDAA16E002900DA49422F
:103EB000524691420BDAE16E002900DA4942914202
:103EC00005DA216F002900DA4942514509DB2061FA
:103ED000A0666061E066A061206702E0B5F91600A7
:103EE000C860606C4142BD482C300171616C494230
:103EF000090AC170A16C0176A16C090AC175E16C57
:103F00008173E16C090A4173BDE8F09F2DE9F84F18
:103F1000FFF7D1F9B24D6B8B0122B24EB2480027A8
:103F200041F2680105F18004462B05D36B8B822B8F
:103F300002D8EA70AF700FE06B8B462B05D26B8B0B
:103F4000822B02D9AA70EF7020E0EA78012A03D010
:103F5000AA78012A1AD033E088460B460096216BD6
:103F60008146024644F6206A5046FFF7ACF92063CA
:103F70000096A16A43464A465046FFF7A4F9A0625C
:103F80000096E16A43464A46504616E088460B468C
:103F90000096216B814602460020FFF794F92063CA
:103FA0000096A16A43464A460020FFF78CF9A062BA
:103FB0000096E16A43464A460020FFF784F9E06232
:103FC000688B4FF08043372802D31E22009704E00D
:103FD000688B372805D20122009700210846FEF79A
:103FE0000EFE216B7D482C3080F83010216B090AC1
:103FF00080F82F10A16A80F82610A16A090A00F83B
:10400000251FE16A8171E16A090A4171BDE8F88FF3
:104010007047F8B5714CC823724D803C724E0095C4
:10402000216B324643F6C4373846FFF74CF920631C
:104030000095A16AC82332463846FFF744F9A062CA
:104040000095E16AC82332463846FFF73CF9E06242
:10405000E16A04F1AC0080F82B10E16A090A80F8EB
:104060002A10A16A80F82610A16A090A00F8251F03
:10407000216BC172216B090A8172F8BD2DE9F843E9
:10408000564C584D803C584F009541F26806216BC4
:1040900033463A4644F620684046FFF714F9206359
:1040A0000095A16A33463A464046FFF70CF9A062F4
:1040B0000095E16A33463A464046FFF704F9E0626C
:1040C000216B04F1AC0080F83010216B090A80F8F4
:1040D0002F10A16A80F82610A16A090A00F8251F8E
:1040E000E16A8171E16A090A4171BDE8F88370B53E
:1040F0003E4CE078022648B1E078012805D1384DE1
:10410000688B322804D30020A07070BDA67070BDEB
:10411000688B322808D970BDFCF755FD0028FAD10C
:10412000012002F08DFBA670688B3C28F4D270BD94
:10413000F8B500204FF080431E2201460090FEF7A4
:104140005EFD0024264D012607E000BFFCF73BFD85
:1041500030B9012002F074FB6E65688B3228F5D807
:10416000641C642CF9DBBDE8F840002220491046AD
:10417000FEF73DBD10B51E490B2806D0022804D01D
:10418000032802D0012809D018E000221046FEF7CB
:104190002EFD41F2883002F053FB0FE00022104662
:1041A000FEF725FD0E4C06E0FCF70DFD002808D1BA
:1041B000012002F045FB608B3228F5D9BDE81040A4
:1041C000B6E710BD70B50A4C0B2813D0022811D0E9
:1041D00003280FD0012817D028E000001801002084
:1041E00018000020CDCCCC3D000020412C0A00203E
:1041F00000004040002221461046FEF7F8FC41F244
:10420000883002F01DFB11E0002221461046FEF727
:10421000EEFCFE4D07E000BFFCF7D5FC00280ED1F8
:10422000012002F00DFB688B3228F5D9FFF780FFE3
:104230002146BDE8704000221046FEF7D8BC70BD94
:1042400010B5F34CA078012805D0A078022802D040
:10425000A078032812D1E078FFF78CFF2079FFF7D0
:1042600089FF6079FFF786FFA079FFF7ABFF002297
:10427000BDE81040E7491046FEF7B9BC10BD70B567
:10428000E348E24C0F38E4494278A06E13074FF43C
:10429000FA6502D503F0FFFA03E0D20607D503F072
:1042A0004CFBA0662846BDE8704002F0C9BA70BD5C
:1042B0002DE9F84FFFF7E3FF0220FDF7A7FE0026E8
:1042C0004FF0804843461E22314630460096FEF7A6
:1042D00096FC00244FF4FA7506E000BFFCF773FC6F
:1042E00030B9012002F0ACFAFDF7DFFDA842F5DBA2
:1042F000641C322CF8DB0025DFF818A3C44FC34C34
:1043000034E0F878012817D1608B03F040FDA16EEE
:1043100003F0BAFD10D8002251461046FEF767FCA4
:10432000FFF7ADFF608B03F032FDA16E03F0B6FD29
:1043300016D8BDE8F84FA2E7F87888B9608B03F08B
:1043400026FDA16E03F0A0FD0AD8002251461046BA
:10435000FEF74DFCBDE8F84F42F2107002F070BA63
:10436000FCF731FC48B9012002F06AFA608B03F0D7
:104370000EFDA16E03F088FDC3D96D1C322DF5DB57
:1043800000214346282208460096FEF738FCA04646
:1043900000254FF005094FF47A7405E0FCF713FC93
:1043A00030B1C8F8589003E0FDF77FFDA042F5DB7F
:1043B0006D1C642DF8DB002251461046FEF717FCF9
:1043C000BE700121C8F8581020E691488F490F3877
:1043D0004FF001024078830600D5CA66400700D539
:1043E0000A6770472DE9F0478948DFF830920F38A7
:1043F000DFF82C8200788B4E844C80074FF40057F6
:104400004FF0000504D586F83950E56625671DE0B4
:10441000E06E012805D13946484600F057FB0128D7
:1044200003D0206F012805D010E0256786F83850AA
:10443000282009E03946404600F048FB012805D114
:10444000E56686F83800192086F839003946404676
:1044500000F03CFB30B9206F012803D1082025670C
:1044600086F839003946484600F030FB002805D16F
:10447000E06E012802D186F83950E566BDE8F08784
:1044800038B5624C68482146E56D684AC96941F211
:104490006803012D06D0256E012D06D0656E012D15
:1044A00007D00CE00090002006E0009046F2A81033
:1044B00002E0009044F25060FEF7D0F9E061594903
:1044C000A08B81F83500000A81F8340038BD73B53F
:1044D000544C82B02C3C60689DF80810884209D387
:1044E00060689DF80C10884204D8002249491046A3
:1044F000FEF77DFB60689DF808104D4D6E02884206
:1045000007D233460A22002141F218500095FEF7E7
:1045100076FB60689DF80C10884206D933460A2263
:10452000002144480095FEF76AFB7FBD2DE9F05F4E
:104530003C4C002784F838704FF0280B84F839B0D1
:104540003D46DFF8C8804FF40056DFF8D09006E013
:10455000FCF739FB48B10520C8F8580005E03146A2
:10456000484600F0B3FA0128F2D06D1C642DF6DB4A
:10457000B94684F839704FF0010A4746C8F860A080
:10458000FFF77EFF0025DFF8988005E0FCF71BFBB6
:1045900040B10520B86505E00121404600F096FADB
:1045A0000128F3D06D1C642DF6DB3D4600224FF44C
:1045B00080512148C7F8609000F0A0FA2146C5F864
:1045C00064A0274601F838AF81F801B000244FF00D
:1045D000050B05E0FCF7F7FA40B1C5F858B005E067
:1045E0003146404600F072FA0128F3D0641C642C76
:1045F000F6DB114C01221103204600F07FFA002265
:104600003146204600F07AFA394617E018000020BB
:104610002C0A0020000040400000A0420008024098
:104620000010024044010020CDCCCC3D00002041D0
:104630000000A041E8EAFFFF00040240C5F85CA0CA
:10464000C5F8649001F8389F19204870BDE8F05F04
:1046500042F2107002F0F4B838B5FCF7D4FAFCF767
:10466000FFFAFCF7C7FCFCF7F0FBFCF734FDFCF7A6
:10467000A5FDFCF714FEFCF716FB1F4C002120469D
:1046800001F006F94FF4E1352846FCF700FF284613
:10469000FCF77FFF2846FDF761F92846FDF732F861
:1046A000E800FDF7B1F82846FDF7FAF90A20FCF713
:1046B0009EFA0121204601F0EBF80A20FCF797FA58
:1046C000FDF756FD00204FF07E5302460146009054
:1046D000FEF795FA6420FCF78AFAFEF7BDFE00208B
:1046E00038BD07B5DDE90001884202DB0299884246
:1046F00000DD08460EBD0000001000400CB5002093
:104700005149019000900A6842F480320A604FF4E7
:10471000A0630A6802F400320092019A521C0192CE
:10472000009A12B9019A9A42F3D10A68920334D5D9
:104730000120009044484030026842F080520260FC
:104740004248026842F4804202603F4808300268F2
:104750000260026842F400420260026842F4A05221
:104760000260031F3A4A1A600A6842F080720A60C7
:104770000A689201FCD5374A40F205611160016870
:1047800021F003010160016841F00201016001684C
:10479000C1F381010229FAD10CBD00900CBD2A4859
:1047A00010B5016841F001010160274A002108327B
:1047B00011600268284B1A400260031D274A1A60E4
:1047C000026822F4802202601F480C300160FFF76B
:1047D00095FF23494FF00060086010BD70B51A4C7A
:1047E000083420681F4A10F00C011F4804D05510EF
:1047F000042903D0082903D002601BE0056019E0FA
:104800001149091D0B68C3F380560B6803F03F0381
:1048100016B1B5FBF3F201E0B2FBF3F20B680968E5
:10482000C3F388135A43C1F30141491C4900B2FB49
:10483000F1F1016021680C4AC1F30311121D515CB2
:104840000268CA40026070BD00380240007000403B
:1048500008544007003C0240FFFFF6FE10300024E1
:1048600008ED00E00024F4008C0100200648804799
:1048700006480047FEE7FEE7FEE7FEE7FEE7FEE745
:10488000FEE7FEE7FEE7FEE79F4700088901000814
:104890002849084328490860704730B50F22C4787A
:1048A00001780123FCB1244C246801F1E02104F4D7
:1048B000E064C4F5E064C4F30724C4F10405E240F5
:1048C0004478AC408578154025432A0181F80024BE
:1048D000007800F01F018B404009800000F1E020CB
:1048E000C0F8003130BD01F01F008340480980004E
:1048F00000F1E020C0F8803130BD104A1140014382
:104900000D48001F016070470B4A121D00291168F5
:1049100001D0014300E08143116070474FF0E02176
:104920000428086903D020F004000861704740F0B3
:104930000400FAE70000FA050CED00E080FFFF1F1D
:104940007C4910B5884206D10121084600F058FA8A
:10495000002101204FE07849884206D10121022040
:1049600000F04EFA0021022045E07449884206D149
:104970000121042000F044FA002104203BE07049AA
:10498000884206D10121082000F03AFA00210820CF
:1049900031E06C49884206D10121102000F030FA44
:1049A0000021102027E06849884206D101212020FB
:1049B00000F026FA002120201DE06449884206D13B
:1049C0000121402000F01CFA0021402013E0604942
:1049D000884206D10121802000F012FA00218020B7
:1049E00009E05C4988420AD184150121204600F083
:1049F00007FA00212046BDE8104000F001BA10BDC2
:104A0000F0B50023012403270D6804FA03F21540D2
:104A1000954242D1D0F800C05E0007FA06F52CEAB4
:104A2000050CC0F800C091F804C0D0F800E00CFA02
:104A300006FC4CEA0E0CC0F800C091F804C0BCF1B2
:104A4000010F02D0BCF1020F1FD1D0F808C02CEA30
:104A5000050CC0F808C091F805C0D0F808E00CFAC1
:104A600006FC4CEA0E0CC0F808C0D0F804C02CEAD2
:104A7000020CC0F804C0426891F806C00CFA03FCAE
:104A80001FFA8CFC42EA0C024260C268AA43C26070
:104A9000CA79C568B2402A43C2605B1C102BB3D3ED
:104AA000F0BD4FF6FF71016000210171417181710C
:104AB000C171704708B541F480320092C261C16192
:104AC0000099C161C169C069009008BD024600201B
:104AD00012690A4200D001207047006980B2704715
:104AE0000246002052690A4200D001207047406906
:104AF00080B2704701837047418370470AB10183D8
:104B00007047418370474161704742694A40426142
:104B100070474B07DB0E9A40C90810B500EB8100C7
:104B2000016A0F249C40A1430162016A11430162A2
:104B300010BD0000000002400004024000080240D6
:104B4000000C024000100240001402400018024015
:104B5000001C024000200240EA48016841F00101C7
:104B60000160E84A0021083211600268E64B1A40F1
:104B70000260031DE54A1A60026822F48022026086
:104B8000E0480C3001607047DE490022891C0A7041
:104B90000870704702460020510901290CD00229F3
:104BA0000CD0D8497431096802F01F0201239340E8
:104BB0000B4200D001207047D249F4E7D14970314F
:104BC000F1E718B500204FF4A06400903120FFF702
:104BD000E1FF0099491C0091A14201D00028F5D0C5
:104BE0003120FFF7D7FF002800D0012018BDC549AC
:104BF0000A6822F0F80242EAC00008607047C4491F
:104C000008607047BF49002270310A700A7001289D
:104C100002D0042801D1052008707047BD49086002
:104C2000704741EA82115A0810B5BB4B029C03EB56
:104C300002421143014341EA0460B249091D086080
:104C400010BDB34908667047800140EA0170AD4964
:104C5000843108607047AE4988667047AC49C864C3
:104C60007047A84A08321368084323F0EC631843DE
:104C700010607047A34A08321368084323F0784352
:104C80001843106070479F4A0832116821F00301F1
:104C90000143116070479B480830006800F00C0029
:104CA0007047984A0832116821F0F0010143116001
:104CB0007047944A0832116821F4E05101431160B1
:104CC0007047904908310A6822F4604242EAC00005
:104CD0000860704770B58B4A083211688F4C11F02C
:104CE0000C0104D06610042903D0082903D0046005
:104CF0001BE0066019E08349091D0B68C3F380556A
:104D00000B6803F03F0315B1B6FBF3F301E0B4FB0E
:104D1000F3F30C680968C4F388146343C1F30141D9
:104D2000491C4900B3FBF1F1016011680F2303EA4C
:104D300011117B4B5C5C0168E14041601468072500
:104D400005EA94241C5D21FA04F48460126805EAE3
:104D500052329A5CD140C16070BDC0F30121032979
:104D600008D1684A0832116821F4F8136D490140EE
:104D700019431160634970310A68C0F30B000243A4
:104D80000A60704763494439086070476149403997
:104D9000086070475E49C1F85C017047594A30327B
:104DA0000029116801D0014300E081431160704780
:104DB000544A34320029116801D0014300E0814394
:104DC000116070474F4A38320029116801D0014301
:104DD00000E08143116070474A4A4032002911685F
:104DE00001D0014300E0814311607047454A4432DD
:104DF0000029116801D0014300E081431160704730
:104E0000404A10320029116801D0014300E081437B
:104E1000116070473B4A14320029116801D00143E8
:104E200000E0814311607047364A1832002911684A
:104E300001D0014300E0814311607047314A2032C4
:104E40000029116801D0014300E0814311607047DF
:104E50002C4A24320029116801D0014300E081432B
:104E600011607047274A50320029116801D0014370
:104E700000E0814311607047224A543200291168D2
:104E800001D0014300E08143116070471D4A583250
:104E90000029116801D0014300E08143116070478F
:104EA000184A60320029116801D0014300E08143B3
:104EB00011607047134A64320029116801D0014320
:104EC00000E08143116070470E4A0D3200291178CD
:104ED00001D0014300E081431170704709487430EC
:104EE000016841F08071016070470146054A002069
:104EF0000C3212680A4200D00120704701490E317D
:104F00000870704700380240FFFFF6FE10300024A2
:104F100000004742800E47420000FFFF0024F400DB
:104F2000A0010020FFFCFF0F10B501210C0220465C
:104F3000FFF78EFF2046BDE810400021FFF788BF35
:104F400030B54268C84B0C791A400B6842EA04221B
:104F5000134343608268C54B4D791A40D1E903433E
:104F600023438C6844EA4504234313438360C26AA5
:104F7000097D22F47002491EC9B242EA0151C162A0
:104F800030BD00210160017141718160C16001612A
:104F9000012101757047B64B10B5D3F80423B5490C
:104FA0000A40D0E900142143D0E9024004432143E0
:104FB0001143C3F8041310BD0021016041608160FA
:104FC000C16070470029816802D041F0010101E011
:104FD00021F00101816070474268A74B1A400A43E3
:104FE00042607047416282627047426822F01F024D
:104FF0000A43426070479E490028D1F8040302D05A
:1050000040F4000001E020F40000C1F80403704700
:1050100097490028D1F8040302D040F4800001E051
:1050200020F48000C1F80403704770B507240929F3
:105030000AD9C568A1F10A0606EB4606B440A543A5
:10504000B3401D43C56007E0056901EB4106B4406C
:10505000A543B3401D4305611F23072A09D2446BB2
:10506000521E02EB820293409C4391400C434463E6
:1050700070BD0D2A09D2046BD21F02EB820293404D
:105080009C4391400C43046370BDC46A0D3A02EB2B
:10509000820293409C4391400C43C46270BD81687E
:1050A00041F08041816070470146002089684902D3
:1050B00000D5012070470029816802D041F4806149
:1050C00001E021F48061816070470029816802D08D
:1050D00041F0020101E021F0020181607047426865
:1050E000491E22F4604242EA413141607047002982
:1050F000416802D041F4006101E021F400614160A7
:105100007047C06C80B270475948D0F808037047A8
:105110000029816802D041F4807101E021F480719E
:10512000816070470029816802D041F4007101E07C
:1051300021F40071816070474D490028D1F80403C3
:1051400002D040F4005001E020F40050C1F8040304
:10515000704770B5072409290AD9C568A1F10A0664
:1051600006EB4606B440A543B3401D43C56007E0C7
:10517000056901EB4106B440A543B3401D430561F9
:10518000836BC3F30154121B921C02EB82041F2297
:10519000A2409343A1400B43836370BD826B491EC1
:1051A00022F4401242EA01518163704708B5084475
:1051B0000090026008BD826822F470220A43826077
:1051C0007047826822F440120A4382607047816807
:1051D00041F48001816070470146002089684902DE
:1051E00000D5012070470029416802D041F4806158
:1051F00001E021F48061416070470029416802D0DC
:1052000041F4805101E021F480514160704708B5BC
:10521000084428300090006880B208BD01238B400C
:1052200041680AB1194300E0994341607047024662
:10523000002012680A4200D001207047C943016073
:10524000704730B50246002053680C0A01258D4096
:1052500011682B40214202D0002B00D0012030BD2C
:105260006FEA112101607047FFFEFFFCFDF7FFC0F0
:1052700000200140E030FCFFFFFD3FFF2DE9F0433F
:10528000016821F00101016000210160416081603D
:10529000C160016121214161B849B84A3D251039F9
:1052A000904202D18D60BDE8F083B44A4FF4746639
:1052B0001832904201D18E60F5E7B04A4FF474176E
:1052C0003032904201D18F60EDE7AC4A4FF0746C00
:1052D0004832904202D1C1F808C0E4E7A74BA84A7F
:1052E0006033984201D1CA60DDE7A44CA54B783405
:1052F000A04201D1CB60D6E7DFF88082A24C08F152
:105300009008404501D1CC60CDE7DFF870824FF0C6
:105310003D5908F1A808404502D1C1F80C90C2E7F8
:105320009A49DFF868820839404501D10D60BAE733
:10533000964D1835A84201D10E60B4E7934D303533
:10534000A84201D10F60AEE7904D4835A84202D186
:10535000C1F800C0A7E78D4D8C496035091FA842F0
:1053600001D10A609FE7894A7832904201D10B60EF
:1053700099E7864A9032904201D10C6093E7834AC4
:10538000A83290428FD1C1F800908CE730B5036805
:105390007F4ACC6813400A682243D1E905452C4373
:1053A0002243CC6922430C6A22434C6A22438C6A12
:1053B00022434C6B22438C6B22431A4302604269A6
:1053C00022F00703D1E90B2422431A4342610A6900
:1053D00042604A6882608968C16030BD0021016016
:1053E00041608160C160016141618161C1610162AF
:1053F00041628162C1620163416381637047002938
:10540000016802D041F0010101E021F001010160D9
:1054100070470029016802D041F4004101E021F405
:105420000041016070470029016802D041F020016D
:1054300001E021F020010160704741607047406841
:1054400080B27047002A026802D042F4002201E0D4
:1054500022F400220260016170470029016802D035
:1054600041F4802101E021F48021016070470AB1FC
:1054700001617047C1607047014600200968090357
:1054800000D501207047014600200968C90700D0F7
:1054900001207047406900F03800704702463B4BDE
:1054A00000209A4202D2354A103A01E0374A103AB7
:1054B0008B0001D5526800E01268364B1A400A4250
:1054C00000D001207047314A904202D22B48103858
:1054D00001E02E4810382F4A8B0001EA020101D565
:1054E000C1607047816070470B0607D5436912B1F0
:1054F00043F0800301E023F080034361802908D05A
:10550000002A026801F01E0101D00A4300E08A432C
:105510000260704730B51D4A0024904202D2174BFA
:10552000103B01E0194B103B1B4A114205D01E22D3
:1055300002EAD12502682A4002E0406900F08002B8
:10554000880001D5586800E01868124B18400842DE
:1055500001D002B10124204630BD0C4A904202D253
:105560000648103801E0094810380A4A8B0001EA61
:10557000020101D5C1607047816070471060024030
:105580003D000020400F002000003D20106402403C
:105590003F801CF07D0F7D0F3C0F3C0F37490020F2
:1055A0000860091D0860091D0860091D086033496D
:1055B000334814310860704730B530498379026848
:1055C00053B30B6893430B600A1D13680468A3432D
:1055D000136002790A441368046823431360274A5E
:1055E000083213680468A3431360131D1C68056820
:1055F000AC431C604479102C05D021440A68006833
:1056000002430A6030BD11680468214311601968C3
:1056100000680143196030BD007908440168914376
:10562000016030BD0021016001710C224271817165
:105630007047124910310A6802430A6070470146F8
:105640000E4A0020143212680A4200D0012070472E
:105650000A49143108607047084A01460020126860
:10566000064B0A4014331B680B4202D0002A00D0BC
:10567000012070470149143108607047003C014027
:10568000FFFF7F00FE4910B5884206D10121084680
:10569000FFF7DEFB002101205BE0B0F1804F09D075
:1056A000F84988420DD101210220FFF7C7FB0021F4
:1056B000022070E001210846FFF7C0FB0021012015
:1056C00069E0F149884206D101210420FFF7B6FBC9
:1056D000002104205FE0ED49884206D10121082025
:1056E000FFF7ACFB0021082055E0E949884206D1CC
:1056F00001211020FFF7A2FB002110204BE0E5491B
:10570000884206D101212020FFF798FB00212020AC
:1057100041E0E149884206D101210220FFF798FBD0
:105720000021022015E0DD49884202D101210C044C
:105730000AE0DB49884202D101214C0404E0D94946
:1057400088420AD101218C042046FFF781FB002109
:105750002046BDE81040FFF77BBBD349884206D105
:1057600001214020FFF76AFB0021402013E0CF49D0
:10577000884206D101218020FFF760FB00218020B4
:1057800009E0CB4988420AD1841501212046FFF760
:1057900055FB00212046BDE81040FFF74FBB10BD70
:1057A00030B50288B64BBC4C98420DD0A0420BD00D
:1057B000B0F1804F08D0B34DA84205D0B24DA842F9
:1057C00002D0B24DA84203D122F070054A882A4384
:1057D000AF4DA84206D0AF4DA84203D022F4407589
:1057E0000A892A4302804A68C2620A88028598426E
:1057F00001D0A04201D1897A01860121818230BD88
:105800004FF0FF31416000210180018141808172B0
:105810007047018582827047028822F070020A4335
:105820000280704741627047C1627047406A7047AA
:10583000008D70470029018802D041F0020101E08B
:1058400021F00201018070470029018802D041F057
:10585000040101E021F00401018070470029018862
:1058600002D041F0800101E021F080010180704709
:10587000028822F00802028002880A4302807047F0
:10588000028822F44072028002880A430280704734
:105890000029018802D041F0010101E021F001015D
:1058A0000180704730B5028C22F001020284028C24
:1058B0008388048B22F0020224F073050C882C43A9
:1058C0008D8915434A882A436D4DA84202D0724DF6
:1058D000A8420DD122F00805CA8923F440732A4357
:1058E00022F004058A882A430D8A1D434B8A2B43E4
:1058F0008380048389684163028430BD70B5028C63
:1059000022F010020284028C8488038B0D8823F419
:10591000E6464FF6FF7303EA052535438E8922F0EC
:10592000200203EA061616434A8803EA02123243AB
:10593000534EB04202D0584EB04215D122F08006EC
:10594000CA8924F4406403EA0212324322F040067A
:105950008A8803EA021232430E8A03EA8606264345
:105960004C8A03EA84043443848005838968816314
:10597000028470BD70B5028C22F480720284028CA5
:105980008488838B0D8823F073031D4322F40073F6
:105990008E894FF6FF7202EA06261E434B8802EA02
:1059A00003233343364EB04202D03B4EB04215D1B2
:1059B00023F40066CB8924F4405402EA03233343E2
:1059C00023F480668B8802EA032333430E8A02EABB
:1059D000061626434C8A02EA0414344384808583E5
:1059E0008968C163038470BD70B5028C22F4805253
:1059F0000284048C8288838B0D8823F4E6464FF65C
:105A0000FF7303EA0525354324F400568C8903EA25
:105A1000043434434E8803EA06362643184CA04229
:105A200002D01D4CA04205D122F480440A8A03EA28
:105A3000821222438280858389680164068470BD56
:105A4000002101804180818081608181C18101824A
:105A50004182704730B50124058C00F118038C4059
:105A6000A543058431B308292CD0091FC1F34E008A
:105A70001844016848F6FF731940016001681AE094
:105A8000000001400004004000080040000C0040FD
:105A9000001000400014004000040140004001409C
:105AA000004401400048014000180040001C004034
:105AB0000020004006E04FF6FF7303EA0222114384
:105AC000016030BD03EB510001684FF68F73194040
:105AD00001600168F3E74163704781637047C16308
