:020000040800F2
:1000000080330020A5550008490200084B02000873
:100010004F020008530200085702000800000000C9
:10002000000000000000000000000000A101000826
:100030005B02000800000000E5010008BF85000821
:10004000BF550008BF550008BF550008BF55000840
:10005000BF550008BF550008BF550008BF55000830
:10006000590400089D040008BF550008FB02000861
:10007000DD02000839030008BF55000879020008B6
:10008000BF55000885020008BF550008BF5500088D
:10009000BF550008BF550008BF550008BF550008F0
:1000A000BF55000875030008A1030008BF550008EC
:1000B000A3030008D1030008FD030008BF55000892
:1000C000BF550008BF550008BF550008550400087B
:1000D000BF55000861020008BF550008BF55000861
:1000E000BF550008BF550008BF550008BF550008A0
:1000F000BF550008BF550008BF550008150300088C
:10010000BF550008BF55000829040008570400081F
:10011000BF550008BF5500084703000853030008F7
:10012000BF5500089F020008AF020008BF55000835
:10013000BF550008BF550008BF550008BF5500084F
:10014000BF550008BF550008BF550008BF5500083F
:10015000CF020008BF550008BF550008BF55000872
:10016000BF550008BF550008BF550008BF5500081F
:10017000BF550008BF550008BF550008BF5500080F
:10018000BF550008BF550008DFF810D009F0E4FCA7
:1001900000480047E7520008AFF30080803300209A
:1001A000234B19680868B0E8F04F80F309884FF0D6
:1001B000000080F3118870470000000003480068C9
:1001C000006880F3088862B600DF00BF08ED00E039
:1001D000DFF80C00016841F470010160704700BF56
:1001E00088ED00E0EFF30980114B1A681EF0100F44
:1001F00008BF20ED108A20E9F04F106008B54FF0DD
:10020000140080F3118808F0A2FD4FF0000080F385
:100210001188BDE8084019680868B0E8F04F1EF082
:10022000100F08BFB0EC108A80F30988704700BF38
:10023000BC030020EFF311804FF0140181F311880B
:10024000704780F311887047704700BFFEE700BF1A
:10025000FEE700BFFEE700BFFEE77047704770474C
:1002600010B540F225518E4807F0BDFA18B1202193
:100270008B4807F0AFFA10BD10B58A498A4806F0DE
:10028000E7F910BD10B589498748303006F0B6F956
:1002900020B186498448303006F0DAF910BD10B537
:1002A0008349844806F0D4F901F092FD10BD10B5E1
:1002B00081498048183006F0CBF9804840787F4962
:1002C000097840EA012000B27D49088010BD10B5D0
:1002D0007C497848603006F0BBF910BD10B5744910
:1002E0007148483806F08AF930B171496E4848388B
:1002F00006F0AEF900F0A0FA10BD10B572496A48D8
:10030000603806F07BF920B16F496748603806F025
:100310009FF910BD10B56D496348483006F06EF97D
:1003200048B100216048483006F0BEF867495E4891
:10033000483006F08DF910BD10B55A495A4830388A
:1003400006F086F910BD10B50121614806F0A8FF3E
:1003500010BD10B501215F4806F0A2FF7A20504978
:10036000888001215C4807F04DF901215B4807F0C6
:1003700049F910BD10B50121594806F091FF5848C0
:10038000008800F0100028B156480068401E55490A
:10039000086004E053480068401C5249086010BDE2
:1003A000704710B50121880706F07AFF4FF08040B2
:1003B000008800F0100028B14B480068401E4A49F0
:1003C000086004E048480068401C4749086010BDC8
:1003D00010B50121454806F063FF4448008800F04D
:1003E000100028B142480068401E4149086004E0FE
:1003F0003F480068401C3E49086010BD10B501210F
:100400003C4806F04DFF3B48008800F0100028B142
:1004100039480068401E3849086004E036480068E2
:10042000401C3549086010BD10B50121334806F065
:1004300037FF3248008800F0100028B130480068CB
:10044000401E2F49086004E02D480068401C2C49DC
:10045000086010BD7047704710B5042006F090F991
:10046000D8B12021274805F014FA0421264805F0C8
:10047000EBF9012804D10021164806F091FA09E0B1
:100480000421214805F0E0F920B9124806F08CFA61
:100490001E49086004201E49086010BD7047000016
:1004A0000010014020800020706002400080202069
:1004B000008800102864024000802010D805002029
:1004C0007800002000880020208000100080002894
:1004D000001000400014004000480040001401409B
:1004E00000000140580000205C0000200004004093
:1004F000600000200008004074000020000C004054
:100500006400002000000240000C02405400002063
:10051000143C014070B50446204609F001F8054638
:100520002146FE4809F003F8A0B195222146FB4878
:1005300008F0EAFF0021FA4805F0B6FFF748F8494D
:100540000C310860F648B838C0F8BC500121F448B6
:1005500005F0AAFF70BD70B50446002510E0605D8F
:1005600068B1615DEF4807F078F800BF8021ED4881
:1005700007F023F90028F9D0681CC5B200E070BD6F
:10058000EDE770B5044600250FE05CB12146E54873
:1005900007F063F800BF8021E24807F00EF9002859
:1005A000F9D000E070BD681CC5B2032DEDDB00BFC3
:1005B000F8E713B50C460020FFF7E3FFDAA0FFF7DA
:1005C000CAFF2346D9A29621D94809F003FBD8488F
:1005D000FFF7C1FFD7A0FFF7BEFFD4A29621D448F2
:1005E000009B09F0F7FAD248FFF7B5FFD3A0FFF759
:1005F000B2FFFF20FFF7C5FFFF20FFF7C2FFFF207C
:10060000FFF7BFFF1CBD70B505460C46C6A0FFF73F
:10061000A2FF2246C5A1C64809F0F6FAC448FFF772
:100620009AFFC4A0FFF797FF2846FFF794FFC3A0E7
:10063000FFF791FFFF20FFF7A4FF70BD77B585B0EE
:100640000546FF26BBA103C9CDE90301BBA0006895
:100650000290B5A00068019000240AE00020B8498B
:100660000855B8490855B2490855AC490855601CA9
:10067000C4B21E2CF2DB0A20AD490870FF2048707E
:100680008870C870A9A1AF48079A09F0BDFAAD49B2
:1006900001A808F02DFF01A9A54808F029FF03A92A
:1006A000A34808F025FF2946A14808F021FF9FA193
:1006B000A448069A09F0A8FAA2499D4808F018FF34
:1006C00002A99B4808F014FFFF209D49087048705C
:1006D0008870974808F00CFF9548FFF71BFF08B09B
:1006E00070BDF7B584B005460E46FF2791A103C93A
:1006F000CDE9020191A0006801908BA000680090F4
:10070000002408E000208E4908558E490855884984
:100710000855601CC4B20A2CF4DB0A208449087016
:10072000FF2048708870C87080A18648069A09F03A
:100730006BFA8449684608F0DBFE69467C4808F09D
:10074000D7FE02A97A4808F0D3FE2946784808F077
:10075000CFFE3146764808F0CBFE01A9744808F078
:10076000C7FEFF2076490870487088700020C87066
:1007700008716F4808F0BCFE6D48FFF7CBFE07B06C
:10078000F0BD01B58EB070A2322101A80E9B09F018
:1007900021FA01A8FFF7BEFE0FB000BD73B584B00B
:1007A0000546FF2663A103C9CDE9020163A00068E5
:1007B00001905DA00068009000240AE000206049DC
:1007C0000855604908555A49085554490855601C50
:1007D000C4B21E2CF2DB0A2055490870FF20487075
:1007E0008870C87051A15748059A09F00DFA55490B
:1007F000684608F07DFE69464D4808F079FE02A97A
:100800004B4808F075FE2946494808F071FE4D49ED
:10081000474808F06DFE01A9454808F069FEFF2031
:100820004749087048708870414808F061FE4048A8
:10083000FFF770FE06B070BD1CB54648007845490C
:10084000497808444349897808444249C9780844AA
:100850004049097908443F49497908443D49897923
:1008600008443C49C97908443A49097A0844C0B265
:1008700001903848007A00F00F0000909DF80000C9
:100880000D2803D00021344806F0BCFE1CBD3148C1
:10089000007A00F00F000D2806D12E48007800F0F5
:1008A000010008B10D2070470020FCE7294880793D
:1008B00008B1012070470020FCE730B52DED048B16
:1008C00083B0264806F070F82549096840EA0145DA
:1008D000284608F0C2FF41EC190B9FED220B53ECA8
:1008E000102B08F04BFF41EC180B08F0C7FF0190EC
:1008F00000244DE0194806F057F81949096840EA04
:100900000145284608F0A9FF41EC190B9FED150B96
:1009100053EC102B08F032FF28E0000032050020D5
:10092000B8600240005000407400000025640000E0
:10093000FC0300202E7478743D2200002200000089
:10094000E2040020BA0400206A302E76616C3D2556
:10095000640000001406002000480040000C004025
:10096000640000209A99999999994E4041EC180B8E
:1009700008F084FF0290DDE90121881A002801DBDC
:10098000014600E04142052900DA641C029801900A
:10099000022CAFDB029803B0BDEC048B30BD30B548
:1009A0002DED048B83B04FF0804005F0FDFFFE4934
:1009B000096840EA0145284608F04FFF41EC190B51
:1009C0001FED180B53EC102B08F0D8FE41EC180B60
:1009D00008F054FF0190002424E04FF0804005F01F
:1009E000E3FFF149096840EA0145284608F035FF70
:1009F00041EC190B1FED250B53EC102B08F0BEFE3C
:100A000041EC180B08F03AFF0290DDE90121881A49
:100A1000002801DB014600E04142052900DA641CA0
:100A200002980190022CD8DB029803B0BDEC048B35
:100A300030BD30B52DED048B83B0DC4805F0B4FF3C
:100A4000DB49096840EA0145284608F006FF41EC09
:100A5000190B1FED3C0B53EC102B08F08FFE41ECF3
:100A6000180B08F00BFF0190002423E0CF4805F09D
:100A70009BFFCF49096840EA0145284608F0EDFE92
:100A800041EC190B1FED490B53EC102B08F076FECF
:100A900041EC180B08F0F2FE0290DDE90121881A02
:100AA000002801DB014600E04142052900DA641C10
:100AB00002980190022CD9DB029803B0BDEC048BA4
:100AC00030BD30B52DED048B83B0BA4805F06CFF16
:100AD000B949096840EA0145284608F0BEFE41ECE4
:100AE000190B1FED600B53EC102B08F047FE41EC87
:100AF000180B08F0C3FE0190002423E0AD4805F078
:100B000053FFAD49096840EA0145284608F0A5FEB3
:100B100041EC190B1FED6D0B53EC102B08F02EFE62
:100B200041EC180B08F0AAFE0290DDE90121881AB9
:100B3000002801DB014600E04142052900DA641C7F
:100B400002980190022CD9DB0298404203B0BDEC20
:100B5000048B30BD01B581B000200090019800EBFE
:100B6000C0004000009002E00098401E00900098F5
:100B70000028F9D10CBD01B581B00020009044F2ED
:100B8000506101984843009002E00098401E009098
:100B900000980028F9D10CBD1CB501211F2005F0DB
:100BA00037F84FF6FF70009001208DF80400002008
:100BB0008DF8060001208DF8070003208DF8050050
:100BC00069467E4804F0DEFD4FF6FF70009001207C
:100BD0008DF8040000208DF8060001208DF8070034
:100BE00003208DF805006946754804F0CBFD4FF6EB
:100BF000FF70009001208DF8040000208DF80600A1
:100C000001208DF8070003208DF8050069466D4826
:100C100004F0B8FD1CBD1CB501217E2004F0F8FFD6
:100C2000C020009000208DF8040001208DF80700FE
:100C300002208DF805006946634804F0A3FD0620F4
:100C4000009000208DF8040001208DF8070002209C
:100C50008DF805006946594804F094FD0420009081
:100C600000208DF8040001208DF8070002208DF887
:100C700005006946524804F085FD1CBD1FB54FF4C0
:100C8000E06004F0A1FC36208DF8000000208DF813
:100C900001008DF8020001208DF80300684604F081
:100CA00098FC0121102004F0E6FF3220ADF804008A
:100CB00040F2E73002900020ADF80C00ADF80600DD
:100CC00001A9424805F023FE0121404806F0E8FA58
:100CD000012211463D4806F0BBFA00213B4805F0D1
:100CE0005FFE0121394805F09BFE1FBD1FB54FF483
:100CF000E06004F069FC37208DF8000000208DF8DA
:100D000001008DF8020001208DF80300684604F010
:100D100060FC0121202004F0AEFF3220ADF8040079
:100D200040F2E73002900020ADF80C00ADF806006C
:100D300001A9274805F0EBFD0121254806F0B0FA8E
:100D400001221146224806F083FA0021204805F0CE
:100D500027FE01211E4805F063FE1FBD00B58BB0C4
:100D60000121022004F098FF01210C2004F050FF23
:100D700003220621124804F090FD032207211048A7
:100D800004F08BFD032208210D4804F086FD0322A8
:100D900009210B4804F081FD4FF470700690022089
:100DA0008DF81C00032015E05C00002000040040CA
:100DB0006000002000080040740000200004024091
:100DC00000080240000C02400000024000100040F9
:100DD000001400408DF81D0000208DF81E00012039
:100DE0008DF81F0006A9FE4804F0CCFCA420ADF845
:100DF000200040F6B83009904FF48070ADF828001C
:100E00000020ADF8220008A9F64805F080FD60201A
:100E1000ADF804000120ADF8060000200390ADF805
:100E200010000121EF4805F0FBFD0021ED4805F021
:100E3000B7FD01A9EB4805F0FFFD01A9E94805F060
:100E400034FE01A9E74805F07DFE01A9E54805F05B
:100E5000DFFE0121E34806F0D4F90BB000BD00B578
:100E60008BB00121082004F006FF0121084604F0A0
:100E7000CFFE02220021DC4804F00FFD02220121F6
:100E8000D94804F00AFD02221146D74804F005FDB6
:100E900002220321D44804F000FD0F200690022016
:100EA0008DF81C0003208DF81D0000208DF81E0019
:100EB00001208DF81F0006A9CB4804F063FCBA207E
:100EC000ADF8200042F2107009900020ADF8280023
:100ED000ADF8220008A9C54805F019FD6020ADF85D
:100EE00004000120ADF8060000200390ADF81000CA
:100EF0000121BE4805F094FD0021BC4805F050FDDD
:100F000001A9BA4805F098FD01A9B84805F0CDFD42
:100F100001A9B64805F016FE01A9B44805F078FE0F
:100F20000121B24806F06DF90BB000BD00B58BB0E1
:100F30000121042004F09FFE01210D2004F068FE31
:100F400002220C21AA4804F0A8FC02220D21A84884
:100F500004F0A3FC02220E21A54804F09EFC02220C
:100F60000F21A34804F099FC4FF470400690022032
:100F70008DF81C0003208DF81D0000208DF81E0048
:100F800001208DF81F0006A9994804F0FBFBA4205E
:100F9000ADF8200040F6B83009904FF48070ADF8FD
:100FA00028000020ADF8220008A9924805F0AFFC07
:100FB0006020ADF804000120ADF806000020039089
:100FC000ADF8100001218B4805F02AFD0021894869
:100FD00005F0E6FC01A9874805F02EFD01A985482A
:100FE00005F063FD01A9834805F0ACFD01A9814826
:100FF00005F00EFE0BB000BD00B589B0012108045C
:1010000004F04AFE0121084604F002FE03221146C4
:10101000754804F042FC03220221734804F03DFCB1
:101020000C20019002208DF8080003208DF80900A3
:1010300000208DF80A0001208DF80B0001A96A48F4
:1010400004F0A0FB0020ADF818004FF6FF700790E9
:101050000020ADF82000ADF81A0006A9664805F09A
:1010600056FC0420ADF80C000020ADF80E00C8209E
:10107000ADF814000120ADF8100003A95E4806F099
:101080001DF800231A4603215C4806F0B4F901213B
:101090005A4806F005F901221146584806F0D8F8DA
:1010A0000121554805F0BCFC0021544805F078FCAE
:1010B00009B000BD00B589B00121084604F0DBFD90
:1010C0000121022004F0D7FD0121032004F0A0FD3E
:1010D00001220F21444804F0E0FB0122032148488B
:1010E00004F0DBFB02220421454804F0D6FB022277
:1010F0000521434804F0D1FB3820019002208DF8EF
:10110000080003208DF8090000208DF80A00012056
:101110008DF80B0001A93A4804F034FB4FF400406D
:10112000019002208DF8080003208DF809000020AE
:101130008DF80A0001208DF80B0001A92A4804F05F
:1011400021FB0020ADF818004FF6FF70079000203B
:10115000ADF82000ADF81A0006A94FF0804005F068
:10116000D6FB06A9274805F0D2FB0420ADF80C00F9
:101170000220ADF80E001420ADF814000120ADF8E7
:10118000100003A9800705F099FF03A91D4805F089
:1011900095FF02231A460321580706F02CF9022373
:1011A0001A460321174806F026F90121880706F0A0
:1011B00077F80121134806F073F8012211469007D1
:1011C00006F046F8012211460E4806F041F80121CA
:1011D000880705F025FC01210A4805F021FC13E0F1
:1011E000000802400004014000000240000C0040E2
:1011F000000C024000080040000001400040014097
:10120000000402400004004000214FF0804005F03F
:10121000C7FB0021FE4805F0C3FB4FF4C06004F09B
:10122000D3F91D208DF8000003208DF80100002067
:101230008DF8020001208DF80300684604F0C9F91A
:101240001C208DF8000004208DF8010000208DF88E
:10125000020001208DF80300684604F0BAF909B0D5
:1012600000BD00B589B00121084604F015FD01213B
:10127000102004F0CDFC4FF42060019002208DF886
:10128000080003208DF8090000208DF80A000120D5
:101290008DF80B0001A9DF4804F074FA012209213E
:1012A000DC4804F0FAFA01220B21DA4804F0F5FADE
:1012B0000020ADF818004FF6FF7007900020ADF841
:1012C0002000ADF81A0006A9D34805F020FB042041
:1012D000ADF80C000020ADF80E000A20ADF81400A7
:1012E0000120ADF8100003A9CB4805F0E7FE00236C
:1012F0001A460321C84806F07EF80121C64805F0C9
:10130000CFFF01221146C44805F0A2FF0121C248C7
:1013100005F0C6FF01221146BF4805F099FF0121E3
:10132000BD4805F07DFB0021BB4805F039FB4FF4BB
:10133000C06004F049F919208DF8000001208DF8F3
:10134000010000208DF8020001208DF8030068469E
:1013500004F03FF909B000BD00B589B001210420B7
:1013600004F089FC0121082004F052FC4FF44050A5
:10137000019002208DF8080003208DF8090000205C
:101380008DF80A0001208DF80B0001A9A34804F094
:10139000F9F90020ADF818004FF6FF700790002013
:1013A000ADF82000ADF81A0006A99D4805F0AFFA87
:1013B00002220C21994804F070FA02220D2197486C
:1013C00004F06BFA0420ADF80C000220ADF80E001A
:1013D000C820ADF814000120ADF8100003A9904812
:1013E00005F06CFE02231A4603218D4806F003F82F
:1013F00001218B4805F054FF01221146884805F071
:1014000027FF0121864805F00BFB42F2107184484A
:1014100005F0C6FA00208249143108800120804975
:1014200008804FF4C06004F0CFF81E208DF8000053
:1014300004208DF8010000208DF8020001208DF8B5
:101440000300684604F0C5F809B000BD00B589B0D6
:101450000121082004F00FFC0121084604F0D8FB0C
:101460000320019002208DF8080003208DF8090068
:1014700000208DF80A0001208DF80B0001A96948B1
:1014800004F080F90020ADF818004FF6FF700790C7
:101490000020ADF82000ADF81A0006A9624805F05A
:1014A00036FA022200215F4804F0F7F902220121F6
:1014B0005C4804F0F2F90420ADF80C000220ADF80D
:1014C0000E00C820ADF814000120ADF8100003A9EB
:1014D000554805F0F3FD02231A460321524805F052
:1014E0008AFF0121504805F0DBFE012211464E48DB
:1014F00005F0AEFE01214C4805F092FA42F210715F
:10150000494805F04DFA0020474914310880012070
:10151000454908804FF4C06004F056F832208DF839
:10152000000004208DF8010000208DF80200012049
:101530008DF80300684604F04CF809B000BD00B512
:101540009BB00121394804F063FB0121080204F03B
:10155000A3FB0020029036480390364804900020F8
:10156000059008200690002007904FF480600890B6
:101570004000099080000A9040110B9040020C90AE
:1015800000200D9001200E9000200F90109002A9D5
:10159000294804F04FFF0121274804F085FF3C2033
:1015A000009003208DF8040000208DF807006946A4
:1015B0001C4804F0E7F83C20009003208DF804005C
:1015C00000208DF8070069461C4804F0DBF8002075
:1015D00011904FF440301290002013904FF470603F
:1015E000149011A804F08CFC4FF08070159001202D
:1015F0008DF858008DF85900002017901890199018
:1016000008208DF8680015A909484C3818E000003A
:10161000000400400010024000000140000C0240A5
:101620000008004000000240000C0040050040009F
:101630004C200140C8050020106402400008024010
:1016400004F02FFC042301220221FD4804F0AFFC2A
:10165000042302220321FA4804F0A9FC04230322F4
:101660001946F74804F0A3FC04231A460521F44860
:1016700004F09DFC042305220C21F14804F097FCA2
:10168000042306220D21EE4804F091FC04230722D6
:101690000E21EB4804F08BFC042308220F21E848BC
:1016A00004F085FC0121E64804F02CFD0121E4480A
:1016B00004F01DFD0121E24804F039FCE04804F08B
:1016C000D2FC1BB000BD08B54FF4E06003F07CFF16
:1016D00025208DF8000000208DF801008DF8020013
:1016E00001208DF80300684603F073FF08BD10B5B4
:1016F00096B004460121102004F0CEFA01210846DC
:1017000004F086FA0121880504F082FA4FF4C060E3
:10171000009002208DF8040000208DF806008DF85E
:10172000070002208DF805006946C64804F02AF833
:1017300007220921C34804F0B0F807220A21C14852
:1017400004F0ABF802940020ADF80C00ADF80E00E8
:10175000ADF81000ADF814000C20ADF8120002A98D
:10176000B94805F0C7FE0121B74805F04BFF4FF41B
:10177000A06003F029FF3A208DF8180000208DF8B2
:1017800019008DF81A0001208DF81B0006A803F03F
:1017900020FFAE4804F0ACFD4FF000600790002041
:1017A0000A90AB4809900A200B90A748001D0890AA
:1017B00000200C904FF480600D9000200E900F9050
:1017C0004FF480701090400211900420129003207A
:1017D000139000201490159007A99C4804F02AFE4D
:1017E00001224021984805F0BAFF012210219748B4
:1017F00004F0E7FE0121954804F056FE16B010BD36
:1018000010B596B004460121480504F001FA012103
:10181000480404F030FA0121082004F0F9F96020AE
:10182000009002208DF8040000208DF806008DF84D
:10183000070002208DF805006946864803F0A2FFE4
:1018400007220521834804F028F807220621814851
:1018500004F023F802940020ADF80C00ADF80E005F
:10186000ADF81000ADF814000C20ADF8120002A97C
:10187000794805F03FFE0121774805F0C3FE4FF49B
:10188000A06003F0A1FE11208DF8180000208DF853
:1018900019008DF81A0001208DF81B0006A803F02E
:1018A00098FE6E4804F024FD4FF000600790402041
:1018B0000A906B4809903C200B906748001D0890E7
:1018C00000200C904FF480600D9000200E900F903F
:1018D0004FF4807010904002119004201290032069
:1018E000139000201490159007A95C4804F0A2FD05
:1018F00001228021584805F032FF012280215648FC
:1019000005F02DFF01221021544804F05AFE012158
:10191000524804F0C9FD16B010BD10B596B004468B
:101920000121880404F0A7F90121082004F070F9CE
:101930000121480504F06CF94FF44070009002203A
:101940008DF8040000208DF806008DF807000220B5
:101950008DF8050069463F4803F014FF072208216F
:101960003C4803F09AFF072209213A4803F095FF0B
:1019700002940020ADF80C00ADF80E00ADF8100098
:10198000ADF814000C20ADF8120002A9354805F09E
:10199000B1FD0121334805F035FE4FF4A06003F09E
:1019A00013FE0C208DF8180000208DF819008DF81A
:1019B0001A0001208DF81B0006A803F00AFE274834
:1019C000783804F095FC4FF00060079000200A90F2
:1019D000254809900A200B902248001D08900020FD
:1019E0000C904FF480600D9000200E900F904FF4FB
:1019F00080701090400211900420129003201390E8
:101A000000201490159007A91448783804F012FDAE
:101A100001224021134805F0A2FE01224021114875
:101A200005F09DFE012210210C48783804F0C9FD14
:101A300001210A48783804F037FD16B010BD0000C7
:101A400000200140000002400010014040640240BC
:101A5000D8050020000C024000440040A060024075
:101A600004000020004800401406002010B596B085
:101A700004460121C80404F0FEF80121084604F0E0
:101A8000C7F80121480504F0C3F8032000900220A4
:101A90008DF8040000208DF806008DF80700022064
:101AA0008DF805006946F74803F06CFE0822002116
:101AB000F44803F0F2FE08220121F24803F0EDFEA3
:101AC00002940020ADF80C00ADF80E00ADF8100047
:101AD000ADF814000C20ADF8120002A9EA4805F098
:101AE00009FD0121E84805F08DFD4FF4A06003F0E9
:101AF0006BFD0D208DF8180000208DF819008DF871
:101B00001A0001208DF81B0006A803F062FDDF48D3
:101B100004F0EEFB4FF00060079000200A90DC48D4
:101B2000099008200B90D848001D089000200C90C8
:101B30004FF480600D9000200E900F904FF4807055
:101B40001090400211900420129003201390002066
:101B50001490159007A9CD4804F06CFC0122402197
:101B6000C94805F0FCFD01224021C74805F0F7FDFA
:101B700001221021C54804F024FD0121C34804F0CE
:101B800093FC16B010BD10B596B00446012148056F
:101B900004F03EF80121080504F06DF801210C2045
:101BA00004F036F80420009002208DF80400002094
:101BB0008DF806008DF8070002208DF805006946B3
:101BC000B44803F0DFFD4FF48050009002208DF800
:101BD000040000208DF806008DF8070002208DF823
:101BE00005006946AC4803F0CDFD08220221A94852
:101BF00003F053FE08220C21A74803F04EFE4FF4D9
:101C0000A06003F0E1FC2F208DF8180005208DF86E
:101C100019008DF81A0001208DF81B0006A803F0AA
:101C2000D8FC02940020ADF80C00ADF80E00ADF821
:101C30001000ADF814000C20ADF8120002A997486E
:101C400005F058FC0121954805F0DCFC8F48783000
:101C500004F04EFB4FF00060079040200A9090483F
:101C6000099096200B908D48001D089000200C9044
:101C70004FF480600D9000200E900F9010904FF464
:101C80000030119000201290032013900020149037
:101C9000159007A97D48783004F0CCFB0122802103
:101CA0007E4805F05CFD012210217848783004F070
:101CB00088FC01217548783004F0F6FB16B010BDA1
:101CC00010B596B004460121202003F0E5FF012164
:101CD000042003F09DFF0121880503F099FFC02037
:101CE000009002208DF8040000208DF806008DF889
:101CF000070002208DF805006946674803F042FDA1
:101D000008220621644803F0C8FD08220721624822
:101D100003F0C3FD02940020ADF80C00ADF80E00F6
:101D2000ADF81000ADF814000C20ADF8120002A9B7
:101D30005C4805F0DFFB01215A4805F063FC4FF4D5
:101D4000A06003F041FC39208DF8180003208DF8C5
:101D5000190001208DF81A008DF81B0006A803F069
:101D600038FC514804F0C4FA4FF02060079000207E
:101D70000A904E48099006200B904A48001D089092
:101D800000200C904FF480600D9000200E900F907A
:101D90004FF48070109040021190042012900320A4
:101DA000139000201490159007A93F4804F042FBBF
:101DB000012240213B4805F0D2FC012210213A4883
:101DC00004F0FFFB0121384804F06EFB16B010BD93
:101DD0003648007811280BD1344840783349897847
:101DE00040EA0120324908600846008831490880ED
:101DF000704700B585B00121082003F009FF0121DB
:101E0000880303F049FF00208DF8100001208DF8B1
:101E100013000C20039003A91E4803F0B3FC022119
:101E2000032005F035FD0420009000208DF804000B
:101E300010208DF8050001208DF80600684604F09A
:101E400039FC08208DF8080000208DF809008DF875
:101E50000A0001208DF80B0002A803F0BAFB05B0C0
:101E600000BD70B504460D46012C27D12946124805
:101E700005F0F3FB00BF40210F4805F09EFC002851
:101E8000F9D044E000000240004C004040600240B5
:101E900053010020000C02400008024000500040A6
:101EA000320500200014014028640240590100203E
:101EB00060010020A400002000100140032C0BD181
:101EC0002946FE4805F0C9FB00BF4021FB4805F04C
:101ED00074FC0028F9D01AE0042C0BD12946F848EC
:101EE00005F0BBFB00BF4021F54805F066FC00286B
:101EF000F9D00CE0052C0AD12946F24805F0ADFBDB
:101F000000BF4021EF4805F058FC0028F9D070BD13
:101F10000020ED494862ED490860ED490860ED494F
:101F2000086070470020E8494862E84908604FF0BF
:101F300080414862E8490860E8490860E84908606B
:101F4000E3490860E3490860E6490860E64908603B
:101F5000704700204FF080414862DF4908607047B9
:101F60000020DE490860DE490860704710B5002097
:101F7000DE490870002407E061210120FFF771FFAE
:101F80003220FEF7F8FD641C022CF5D30120D7495E
:101F900008707A20D649087010BD10B50020D549C8
:101FA0000870002407E061210320FFF75AFF322068
:101FB000FEF7E1FD641C022CF5D30120CD49087029
:101FC0007A20CD49087010BD2DE9F14FAEB0CBA0FD
:101FD0002D9000202C908DF888008DF860002E98B0
:101FE000122831D2DFE800F009313A414D545B64E8
:101FF0006D767F868788898A8BFE0221C84803F028
:1020000023FC88B100224FF40041C64803F03AFC9B
:102010004FF40041C34803F024FC0446002221464B
:10202000C1A0FEF70BFB0FE00122D103BD4803F076
:1020300029FC4FF40041BB4803F013FC0446002286
:102040002146C1A0FEF7FAFA06E20122C648B0F91D
:1020500000004142C5A0FEF7F1FAFDE1C548418804
:102060000222C5A0FEF7EAFAF6E10322C64890ED87
:10207000000ABDEEC00A10EE101AC4A0FEF7DEFA88
:10208000EAE1BC4801880422C3A0FEF7D7FAE3E1E5
:102090000522C5480168C5A0FEF7D0FADCE1FEF7CD
:1020A0000CFC044606222146C3A0FEF7C7FAD3E182
:1020B000FEF775FC044607222146BFA0FEF7BEFAD4
:1020C000CAE1FEF7B6FC044608222146BDA0FEF791
:1020D000B5FAC1E1FEF7F5FC044609222146BCA091
:1020E000FEF7ACFAB8E10A22BC480188BCA0FEF7B2
:1020F000A5FAB1E1B0E1AFE1AEE1ADE1ACE10121C2
:10210000B94803F0A1FB4FF400511790854803F044
:102110009BFB04460221B44803F096FB05464FF4AE
:102120008041804803F090FB06460421AE4803F04E
:102130008BFB4FF400411690AB4803F085FB07463C
:102140000821A94803F080FB80464FF48041A6484F
:1021500003F07AFB81461021A34803F075FB4FF48E
:1021600000511590A04803F06FFB824608219F485C
:1021700003F06AFB4FF4805114909B4803F064FB1A
:1021800010211390994803F05FFB4FF48061129087
:10219000954803F059FB83468021934803F054FB94
:1021A0004FF480711190904803F04EFB10901798F7
:1021B000CDE90B65CDE90D401698CDE90798CDE93D
:1021C0000970DDE913121598CDE9042A03910690F0
:1021D000DDE91101CDE901B1009085A2282122A8F5
:1021E000109B00E007E007F0F5FC102222A989A06F
:1021F000FEF777FA30E18021494803F032FB0446CC
:102200000121474803F02DFB05464021444803F0D7
:1022100028FB06464FF40041744803F022FB0746B2
:102220004FF480517C4803F01CFB80464FF48061E2
:102230003B4803F016FB81464FF40061764803F0FB
:1022400010FB4FF400611790354803F00AFB8246FB
:102250004FF48061654803F004FB83464FF48051DE
:102260002F4803F0FEFA4FF4006116905F4803F028
:10227000F8FA4FF400511590294803F0F2FA4FF4A0
:1022800080411490594803F0ECFA4FF480411390C8
:10229000234803F0E6FA4FF4807112905E4803F091
:1022A000E0FA4FF4004111901D4803F0DAFACDE94D
:1022B0000B76CDE90D5410901798AFE00048004020
:1022C000004C004000500040000001405800002039
:1022D00024080040740000205C000020240400401A
:1022E00060000020240C0040640000207D000020DD
:1022F0007C0000207F0000207E0000203131313141
:1023000031313131313131313131313131313131BD
:102310003131303131313131313131310000000072
:102320000004024000080240524F424F5420322025
:1023300044414E4720434841592053414E20584183
:102340004E483A2020200000524F424F5420322065
:1023500044414E4720434841592053414E20444F69
:102360003A2020200000000078000020494D553A16
:1023700000000000C80500204E616E675F48615F85
:102380006E6F6E673A000000B80000204C75632045
:1023900042616E3A200000006269656E74726F7867
:1023A0006F61793A200000008C00002047545F4C98
:1023B000617A652000000000454E434F4445525F5E
:1023C00046522000454E434F4445525F524C200038
:1023D000454E434F4445525F52522000A400002016
:1023E0005557423A0000000000100240000C024025
:1023F0002564256425642564256425642564256495
:102400002564256425642564256425642564256484
:1024100000000000493A000000000240CDE907A09A
:10242000CDE90998DDE914121698CDE9050BCDE93F
:102430000312DDE911121398CDE900120290AFF2F8
:102440005002282122A8109B07F0C4FB112222A9C8
:10245000FEA0FEF746F900BF00BF2FB0BDE8F08F29
:1024600010B50121FB4804F01FF810BD01B5FA4872
:1024700000680099884203DD0020F749086004E005
:10248000F5480068401CF4490860F3480068FFF70D
:102490009BFD08BD10B5FEF7CCFAF0490860FEF7C9
:1024A00010FBEF490860FEF708FAEE490860FEF7F6
:1024B00076FAED49086010BD2DE9F0412DED088B4D
:1024C00006460F46304607F0C8F941EC190B9FED60
:1024D000E71BB0EE490AF0EE690A07F0BBFDB0EE6B
:1024E000408AF0EE608A51EC180B07F0C7F90446F9
:1024F000002C02DBA4F5E16401E004F5E164384658
:1025000007F0ABF941EC1B0B9FEDD81BB0EE4B0A6B
:10251000F0EE6B0A07F09EFDB0EE409AF0EE609A86
:10252000304607F09AF941EC1B0B9FEDD01BB0EE43
:102530004B0AF0EE6B0A07F08DFDB0EE40AAF0EE0C
:1025400060AA53EC192B51EC1A0B07F09FF841ECE1
:10255000180B07F093F905462846211E01DB0A46B1
:1025600000E04A42002801DB034600E043429A4271
:1025700005DA25464FF0FF30BE49086003E03546D6
:102580000120BC4908602846BDEC088BBDE8F081FD
:102590000146FA2901DDFA2102E0032900DA0221CD
:1025A000C8B2704730B505460C4625B9B248007828
:1025B000B249C87716E0B24890ED000AB5EEC00AFD
:1025C000F1EE10FA07DD2846FFF7E2FFAB49C877C6
:1025D0000020887706E06842FFF7DAFFA749C8774E
:1025E0000120887724B9A4480078A449C87516E06A
:1025F000A44890ED000AB5EEC00AF1EE10FA07DD2E
:102600002046FFF7C5FF9D49C8750120887506E083
:102610006042FFF7BDFF9949C8750020887522B94F
:10262000954800789549C87116E0974890ED000AE2
:10263000B5EEC00AF1EE10FA07DD1046FFF7A8FF6D
:102640008E49C8710020887106E05042FFF7A0FF54
:102650008A49C8710120887123B987480078874961
:10266000C87316E0894890ED000AB5EEC00AF1EE95
:1026700010FA07DD1846FFF78BFF8049C873012069
:10268000887306E05842FFF783FF7C49C873002037
:10269000887330BD10B57E4C20607E4C21607E4C2E
:1026A00022607E4C236010BD744AD077D075D07103
:1026B000D07370477148C07F03280DDA6F48C07D22
:1026C000032809DA6D48C079032805DA6B48C07B16
:1026D000032801DA012070470020FCE7012070493F
:1026E000086070476F48006847F23051884201D057
:1026F000012070470020FCE710B5FFF737FC10BD44
:102700006948B0F9000040427047B5EEC00AF1EEEA
:1027100010FA09D26548D0ED000A70EE600AFDEEAD
:10272000E00A10EE900A70476048D0ED000A70EEA3
:10273000200AFDEEE00A10EE900AF4E710B52DED48
:102740000A8B044624B99FED5A0ABDEC0A8B10BDD2
:10275000002C25DA5748006807F07FF841EC190B88
:10276000204607F07AF841EC1C0B9FED530B53EC1D
:10277000102B06F091FF41EC1B0B9FED510B53EC1E
:10278000102B06F083FF41EC1A0B53EC192B06F0CB
:10279000F5FF41EC180B07F0A3F800EE100AD4E7A0
:1027A0004448006807F059F841EC190B204607F03F
:1027B00054F841EC1C0B9FED400B53EC102B06F032
:1027C0006BFF41EC1B0B9FED3E0B53EC102B06F007
:1027D000BCFE41EC1A0B53EC192B06F0CFFF41EC79
:1027E000180B07F07DF800EE100AAEE7F0EE400A95
:1027F000F5EEC00AF1EE10FA02DBB0EE600A7047A7
:10280000B1EE600AFBE70146002901DB084670478C
:102810004842FCE701462C48D0ED000AF1EE600A80
:102820002A48D0ED001A80EEA11A00EE901AF8EEB8
:10283000E01A2548D0ED000A41EE210AB0EE600A08
:10284000FDEEC00A10EE900A704700004F55543A52
:1028500000000000A0600240700000201C03002067
:102860002003002024030020280300200000000093
:102870000020AC4054020020A801002004000020E9
:1028800014020020180200201C0200202002002058
:102890003C020020400200203402002038020020C8
:1028A00090020020D4010020780000206801002060
:1028B00000000000C0010020EC51B81E85EBB13FC4
:1028C0009A9999999999B93FA0010020A4010020F3
:1028D000B0EE402ADFEDFE2AB0EE620AB5EEC02A65
:1028E000F1EE10FA03D2F1EE422AB0EE622AF5EED2
:1028F000C00AF1EE10FA03D2F1EE602AF0EE620A9D
:10290000B5EEC01AF1EE10FA03D2F1EE412AB0EEA4
:10291000621AF5EEC01AF1EE10FA03D2F1EE612A56
:10292000F0EE621AB4EEC02AF1EE10FA01DDB0EE5C
:10293000420AF4EEC00AF1EE10FA01DDB0EE600AD0
:10294000B4EEC01AF1EE10FA01DDB0EE410AF4EE79
:10295000C01AF1EE10FA01DDB0EE610A7047DD48F1
:1029600000687047DC480068704710B52DED048B97
:10297000F0EE408AB0EE608AD848D0ED000AD84820
:1029800090ED000A07F0E8FBB0EE409A07F0DEFF9A
:10299000BDEEC00A10EE104AD24880ED008AD2483F
:1029A00080ED008AB0EE680A07F008FFF0EE000A3A
:1029B00020EE200ACD4880ED000AB0EE680A07F04C
:1029C000A1FAF0EE000A20EE200AC94880ED000AC4
:1029D00090ED000AF2EE040A20EE200AC54880EDD0
:1029E000000AB0EE680A07F0E9FEB0EE409AFFF781
:1029F0008CFE00EE100AB8EEC00ABF4880ED000A57
:102A0000BA4890ED000AB748D0ED000A30EE600AEF
:102A1000BA4880ED000AB54890ED000AB148D0ED03
:102A2000000A30EE200AB64880ED000AB04890ED6A
:102A3000000AAD48D0ED000A30EE600AB14880EDE2
:102A4000000AAB4890ED000AA748D0ED000A30EE2E
:102A5000200AAD4880ED000AAA48D0ED000AA84837
:102A600090ED000A07F0F8F8DFEDA80A20EE200A42
:102A7000A748D0ED000A80EE201AA64880ED001A83
:102A8000A5480168A34890ED000ABDEEC00A10EE0B
:102A9000100AFFF711FD00EE100AB8EEC00A9D48BB
:102AA00080ED000A9D4890ED000AB8EEC00A9C48EF
:102AB00080ED000A9248D0ED000A60EEA00A91482D
:102AC00090ED001AD0ED001A41EE210AB0EE600A36
:102AD00007F03CFF9148D0ED000AF8EEE00A20EE46
:102AE000200A904880ED000A8748D0ED000A84480B
:102AF00090ED000A07F0B0F8DFED840A20EE200A1E
:102B00008348D0ED000A80EE201A874880ED001A35
:102B100086480168844890ED000ABDEEC00A10EEB8
:102B2000100AFFF7C9FC00EE100AB8EEC00A7E4892
:102B300080ED000A794890ED000AB8EEC00A7C48A2
:102B400080ED000A6E48D0ED000A60EEA00A6E48E3
:102B500090ED001AD0ED001A41EE210AB0EE600AA5
:102B600007F0F4FE6D48D0ED000AF8EEE00A20EE22
:102B7000200A704880ED000A6348D0ED000A5F48E3
:102B800090ED000A07F068F8DFED600A20EE200AF9
:102B90005F48D0ED000A80EE201A674880ED001AE9
:102BA00066480168644890ED000ABDEEC00A10EE68
:102BB000100AFFF781FC00EE100AB8EEC00A5E486A
:102BC00080ED000A554890ED000AB8EEC00A5C4856
:102BD00080ED000A4948D0ED000A60EEA00A4A489C
:102BE00090ED001AD0ED001A41EE210AB0EE600A15
:102BF00007F0ACFE4948D0ED000AF8EEE00A20EEFE
:102C0000200A504880ED000A3E48D0ED000A3B48BB
:102C100090ED000A07F020F8DFED3C0A20EE200AD4
:102C20003B48D0ED000A80EE201A474880ED001A9C
:102C300046480168444890ED000ABDEEC00A10EE17
:102C4000100AFFF739FC00EE100AB8EEC00A3E4841
:102C500080ED000A314890ED000AB8EEC00A3C4809
:102C600080ED000A2548D0ED000A60EEA00A254854
:102C700090ED001AD0ED001A41EE210AB0EE600A84
:102C800007F064FE2548D0ED000AF8EEE00A20EED9
:102C9000200A304880ED000ABDEC048B10BD10B551
:102CA0002DED028BB0EE408A2B48006847F2305180
:102CB000884268D19FED290A28EE000A284880ED55
:102CC000000AD0ED000A9FED270AFFF74EFE4BE009
:102CD0006F12833AC0010020F00100207C02002026
:102CE00080020020700200207402002058020020A0
:102CF0005C02002084020020880200206002002084
:102D000064020020680200206C0200200000E14400
:102D1000B4010020280200202803002054020020D3
:102D200018020020080200202402002024030020B2
:102D300014020020040200202C0200201C030020AA
:102D40001C0200200C020020300200202003002082
:102D50002002002010020020D40100200000E143E6
:102D600078020020000000001FED020AFE4880EDFE
:102D7000000AFE4880ED000AFD4880ED000AFD488B
:102D800080ED000A21E0FC480068FC490968401A0F
:102D9000FB490968081A00EE100AB8EEC00AF948A3
:102DA000D0ED000A20EE200AF748D0ED000AC0EE70
:102DB000208AF64890ED000AF54880ED000AD0ED33
:102DC000000AB0EE680AFFF7D0FDB5EEC08AF1EE5A
:102DD00010FA75D0EF480068052870D2DFE800F0DF
:102DE0000371879DB300EC4890ED000AFAEE040AE7
:102DF000B4EEE00AF1EE10FA08D390ED000AF2EE1C
:102E0000040AB4EEE00AF1EE10FA1CDDD94890EDA8
:102E1000000A30EE080A80ED000AD54890ED000A5D
:102E200030EE480A80ED000AD04890ED000A30EEFE
:102E3000080A80ED000ACC4890ED000A30EE480AFE
:102E400080ED000A3BE0D54890ED000AD448D0ED73
:102E5000000A60EE200AC74890ED000A00EE880ADA
:102E600080ED000ACD4890ED000ACE48D0ED000A72
:102E700060EE200ABE4890ED000A00EE880A80ED60
:102E8000000AC64890ED000AC748D0ED000A60EE7F
:102E9000200AB64890ED000A00EEC80A80ED000A4C
:102EA000BE4890ED000AC148D0ED000A60EE200A4D
:102EB000AD4890ED000A00EEC80A80ED000A58E027
:102EC00058E0AB4890ED000A30EE480A80ED000A69
:102ED000A64890ED000A30EE080A80ED000AA248EC
:102EE00090ED000A30EE480A80ED000A41E0A1486A
:102EF00090ED000A30EE080A80ED000A9B4890ED44
:102F0000000A30EE080A80ED000A974890ED000AAA
:102F100030EE480A80ED000A2BE0964890ED000A5A
:102F200030EE080A80ED000A914890ED000A30EE7C
:102F3000480A80ED000A8C4890ED000A30EE480AFD
:102F400080ED000A15E08B4890ED000A30EE080A8B
:102F500080ED000A864890ED000A30EE480A80EDC8
:102F6000000A824890ED000A30EE080A80ED000A5F
:102F700000BF00BF7C48D0ED001A7C4890ED001ADD
:102F80007B48D0ED000A7B4890ED000AFFF7A0FCDB
:102F90008748D0ED000AF8EEE00A80EE801ABDEE18
:102FA000C10A844880ED000A8348006881490968A5
:102FB000884203DD7F4800687F49086001207F491F
:102FC0000860BDEC028B10BD10B5044600207C49A2
:102FD00008607C480460FCB90020774908601FED58
:102FE0009F0A794880ED000A47F230506449086032
:102FF000764908601FEDA50A644880ED000A0020AC
:103000006449086072490860724908607249086042
:103010001FEDAC0AFFF743FE10BD10B55B4890ED05
:10302000000AB5EEC00AF1EE10FA05D15948006861
:1030300010B96748006890B11FEDB60A534880ED9B
:10304000000A002053490860614908604A48006846
:103050004A4908604D4890ED000AFFF720FE10BD78
:103060005E48C0ED000A5E4880ED000A704770B50A
:103070002DED028B05460C46B0EE408A40480068B4
:10308000A8420BD14E480068A04207D14E4890EDAF
:10309000000AB4EE480AF1EE10FA18D0484804606D
:1030A0004548006810B90520434908603248006867
:1030B00032490860444880ED008A314805600020AC
:1030C00048490860314890ED000AFFF7E8FDBDEC83
:1030D000028B70BD70B52DED028B0446B0EE408AB8
:1030E0000D463B480068A0420BD1284890ED000AED
:1030F000B4EE480AF1EE10FA03D126480068A8425F
:1031000079D01F48006847F23051884222D11E20F2
:103110002B4908600A202849086047F23050844251
:1031200018DA01202B490860B5EEC08AF1EE10FADA
:1031300003DD11480068A04208DCB5EEC08AF1EE5C
:1031400010FA07D20C480068A04203DAB1EE480A30
:10315000B0EE408A1E4804600E4805600B4880EDC2
:10316000008A00201F4940E0100200200C020020CD
:103170000802002004020020F8010020E0010020E5
:10318000D4010020B001002080010020E8010020CF
:1031900078020020BC010020840200205802002098
:1031A00014020020180200201C020020200200202F
:1031B00064010020C8010020C0010020B8010020E7
:1031C000C4010020CC010020EC010020D801002027
:1031D000DC010020F001002090020020A00100206E
:1031E000A4010020D001002005E00860FE4890ED19
:1031F000000AFFF754FDBDEC028B70BD10B52DED3C
:10320000028BB0EE408A04462146B0EE480A47F2EF
:103210003050FFF75FFFBDEC028B10BD70B5044668
:103220000D469FEDF20A29462046FFF720FF70BDAC
:1032300010B52DED088BF0EE408A0446B0EE608AA2
:10324000B0EE419AEA4890ED000AB8EEC00AB4EE3A
:10325000680AF1EE10FA0DD1E6480068A04209D1E3
:10326000E54890ED000AB8EEC00AB4EE480AF1EE67
:1032700010FA5ED0BDEEE80ADD4880ED000ADF49B5
:1032800091ED000AB8EEC00A38EEC00ABDEEC00AE1
:1032900010EE100A9FEDD50A2146FFF7E8FED74849
:1032A000D0ED000AF8EEE00A78EE600AB0EE600AAF
:1032B000FFF79CFADFEDD20AB4EEE00AF1EE10FA65
:1032C00014DDCE4890ED000AB8EEC00AB4EEC08A14
:1032D000F1EE10FA02DDB0EE490A01E0B1EE490A62
:1032E00010EE101A084606F0E8FA13E0C34890ED15
:1032F000000AB8EEC00A38EE400A10EE101A08466E
:1033000006F0DBFA41EC1B0B9FEDBE0B53EC102BD0
:1033100006F0C2F941EC1A0B06F0E2FA09EE900A47
:103320000021B0EE690AFDEEC80A10EE900AFFF720
:10333000D1FEBDEC088B10BD10B5B4480068012863
:103340003DDDAD490968AD4A1268881AFFF75BFA9E
:103350000A280CDAAD4801680068401CAB4A1060CE
:10336000B1F5FA7F2BDD0020FFF72EFE10BDA74838
:103370000068FA2808DD05209E490860A449086015
:10338000FB20A249086004E005209A490860A04992
:1033900008609A48006898490968884205DDBFEED0
:1033A000000A914880ED000A04E0B7EE000A8E485A
:1033B00080ED000A8C4890ED000AFFF770FC00BF1A
:1033C000D4E710B52DED028B924890ED000AB5EED2
:1033D000C00AF1EE10FA08D18D48006828B186487D
:1033E000006847F23051884202DBBDEC028B10BD11
:1033F0007D4890ED000AB5EEC00AF1EE10FA7DD0DE
:103400008548006847F23051884278D1764890ED7F
:10341000000AB5EEC00AF1EE10FA08DD7648006841
:103420007E490968401A75490968884210DB6E4870
:1034300090ED000AB5EEC00AF1EE10FA7DD26E48AA
:1034400000687649096808446C490968884274DD57
:103450006E48006805285BDA67490968674A1268A0
:10346000881AFFF7D0F9322816DA634800686C49E9
:1034700008600020664908605E4908609FED5B0AAD
:10348000594880ED000A022060490860564890EDD6
:10349000000AFFF704FCA8E7574800685749096885
:1034A000884236DD5A4890ED000AB8EEC00A4E4810
:1034B000D0ED000A60EE200A584890ED000AB8EE00
:1034C000C00AC0EE801AB0EE611AB0EE410AFFF7F2
:1034D0008DF949490968494A1268881AFFF793F932
:1034E00000EE900AB8EEE01AF1EE040A40EE010A8E
:1034F000474890ED000AB8EEC00A01E0C9E044E098
:1035000080EE801AB0EE418AB0EE480AFFF7C7FBA2
:10351000BEE03F4890ED000AB8EEC00A3248D0ED58
:10352000000A60EE200A3D4890ED000AB8EEC00A9D
:10353000C0EE801AB0EE611A00E020E0B0EE410A61
:10354000FFF754F92C4909682C4A1268881AFFF7CA
:103550005AF900EE900AB8EEE01AF1EE040A50EEC5
:10356000410A2B4890ED000AB8EEC00A80EE801A9E
:10357000B0EE418AB0EE480AFFF791FB88E01A48A6
:1035800090ED000AFFF78BFB82E0174890ED000AF0
:10359000B5EEC00AF1EE10FA1FDD174890ED000AF3
:1035A000B8EEC00A1A48D0ED000AF8EEE00A0E485C
:1035B00090ED001A00EEC10A1A48D0ED000AF8EEAC
:1035C000E00A70EE600A0D4890ED000AB8EEC00AFD
:1035D000F4EEC00AF1EE10FA49D3034890ED000A68
:1035E000B5EEC00A20E00000E80100200000000065
:1035F000D8010020C4010020DC010020F8010020D7
:1036000000004842FCA9F1D24D62403FF001002089
:10361000C0010020EC010020D40100209C0100200A
:10362000F401002098010020F1EE10FA2BD2FE48A0
:1036300090ED000AB8EEC00AFC48D0ED000AF8EEA2
:10364000E00AFB4890ED001A00EEC10AF948D0EDFF
:10365000000AF8EEE00A70EE200AF74890ED000A42
:10366000B8EEC00AF4EEC00AF1EE10FA0BDDEE4936
:103670000968F14A1268881AFFF760F8B0EE408ACC
:10368000FFF70DFB04E0EA4890ED000AFFF707FBA7
:10369000ABE6EA490968E84A1268881AFFF74EF86B
:1036A000B0EE408AFFF7FBFA00BF9EE600B5E448A3
:1036B0000068022815DA1FED330AE24880ED000A9F
:1036C0001FED360ADA4880ED000A0020DE49086066
:1036D00047F23050DD490860DD4908600020D249DA
:1036E0000860DC480068401CDA490860DA4909686B
:1036F000884204DAD9480068FEF7D6FF0EE0D648C3
:103700000068D4490860D648006820B1D3480068F2
:10371000FEF7CAFF02E00020FEF7C6FF00BDCD4A5B
:103720001268521CCB4B1A60824207DDBF4A1268F6
:103730000A44BE4B1A600022C64B1A6070472DE93E
:10374000F041FEF7DDFFBC490860FFF7F5FDC54815
:103750000068002821DDB5480068C2490968884230
:103760002AD0B2480068BF49096888420EDAAF48DB
:103770000068BD49096888421EDAAC480068FFF756
:1037800049F804460121FFF7CAFF15E04FF0FF3169
:10379000B6480068FFF7C3FF0EE0A44800680028A1
:1037A00006DD4FF0FF31B2480068FFF7B8FF03E0D5
:1037B000FFF77CFFBDE8F081AE4800689E490968CC
:1037C000884205D0FFF7FDFD9B480068A9490860C5
:1037D000A9480068F0B39548D0ED000AF8EEE00A79
:1037E000A64890ED001A60EE810AB0EE600AFEF77E
:1037F0008CFF04468D48D0ED000AF8EEE00AA048A0
:1038000090ED001A60EE810AB0EE600AFEF77DFFCF
:1038100005468648D0ED000AF8EEE00A994890ED9A
:10382000001A60EE810AB0EE600AFEF76EFF0646EF
:103830007E48D0ED000AF8EEE00A934890ED001AB9
:1038400060EE810AB0EE600AFEF75FFF074623468E
:103850002A4600E020E03146FEF7A4FE8B4890EDBA
:10386000000ABDEEC00A10EE103A894890ED000A39
:10387000BDEEC00A10EE102A864890ED000ABDEE9B
:10388000C00A10EE101A844890ED000ABDEEC00A7E
:1038900010EE100AFEF7FEFE00BF8BE710B54FF4E6
:1038A00080417E4801F0D0FF012800D100BF10BD4B
:1038B00010B54FF48041794801F0C6FF012804D1CA
:1038C000774800687749086003E0764800687449E3
:1038D000086010BD5FEDBB0AB0EE600A00EE900A12
:1038E000B8EEE01ADFED701AC1EE210A9FED6F1AF3
:1038F00060EE810AB0EE600ADFED6D0AB4EEE00A18
:10390000F1EE10FA04DDDFED6A0AB0EE600A0AE0BB
:103910005FEDC50AB4EEE00AF1EE10FA03D25FEDF6
:10392000C80AB0EE600AFDEEC00A6249C1ED000AA5
:10393000614981ED000A704700B50246002340F25C
:103940001320824205DB40F27620824201DC012313
:1039500038E0B2F5027F05DB40F21920824201DC3B
:1039600002232FE0B2F5FC7F04DDB2F5FF7F01DC1E
:10397000032327E0B2F5017F05DD40F20A208242F1
:1039800001DC04231EE040F21A20824204DBB2F57F
:10399000077F01DA052315E040F22720824204DB8D
:1039A000B2F50C7F01DC06230CE0B2F50C7F05DDDF
:1039B00040F23A20824201DC072303E01046FFF781
:1039C00089FF00BD012B05D19FED3C0A3A4880EDEF
:1039D000000A00E000BF00BF00BFF2E738480168FE
:1039E0000068401C364A1060642907D23548808937
:1039F000354909680844344908600BE032480068DA
:103A00006421B0FBF1F03149086000202C490860C6
:103A10002D4908602E4801680068401C2C4A10603F
:103A200064295ED2274855E0DC010020C001002057
:103A3000E801002098010020F8010020E0010020AA
:103A4000F0010020EC010020BC010020D401002086
:103A5000D8010020D0010020AC010020A8010020E6
:103A600090020020C4010020C801002000020020B4
:103A7000CC010020FC010020B80100201002002031
:103A80000C02002008020020040200203002002066
:103A90002C020020280200202402002000100240F6
:103AA0008C000020FC02002000801D440000BE426B
:103AB00000001643F4020020AC00002000009242F7
:103AC00034030020C80500203803002084000020B3
:103AD0003C0300204089F84909680844F649086019
:103AE0000BE0F54800686421B0FBF1F0F349086091
:103AF0000020F3490860F0490860F2480168006856
:103B0000401CF04A1060642907D2EF480089EF4951
:103B100009680844ED4908600BE0EC48006864213E
:103B2000B0FBF1F0EA4908600020E6490860E74987
:103B30000860E84801680068401CE64A106078297F
:103B400007D2E148C089E44909680844E2490860AD
:103B50000BE0E14800687821B0FBF1F0DF49086034
:103B60000020DC490860DC490860DD480168006825
:103B7000401CDB4A1060322907D2D3484088D9491B
:103B800009680844D74908600BE0D648006832212C
:103B9000B0FBF1F0D44908600020D1490860D14958
:103BA0000860D24801680068401CD04A1060322981
:103BB00007D2C5480088CE4909680844CC49086046
:103BC0000BE0CB4800683221B0FBF1F0C949086036
:103BD0000020C6490860C6490860C74801680068F7
:103BE000401CC54A1060322907D2B7480088C34933
:103BF00009680844C14908600BE0C04800683221E8
:103C0000B0FBF1F0BE4908600020BB490860BB4929
:103C10000860704701B5BB48407800F0020068B109
:103C2000B848407800F0200040B19DF80000B64947
:103C300081F82F00002081F82E0016E0B14840786E
:103C400000F0020068B1AF48407800F0040040B1D5
:103C50009DF80000AC4981F82F00012081F82E006A
:103C600003E00220A84981F82F0008BD10B54FF4E9
:103C70008041A64801F0E8FD38B94620A24981F804
:103C8000230081F8270081F82B0000209E4981F84D
:103C90002200012081F8260081F82A0043F69820AE
:103CA00004F0D2FF0122D102994801F0EBFD4FF45C
:103CB000FA5004F0C9FF0020934981F8230081F8ED
:103CC000270081F82B00012081F82200002081F8D4
:103CD000260081F82A0000224FF400618C4801F090
:103CE000D1FD10BD10B54FF48041884801F0ACFD06
:103CF00070B9884890ED000ABCEEC00A10EE100AB8
:103D0000C0B2814981F82B0081F8270081F8230097
:103D100000207D4981F82200012081F8260081F8E9
:103D20002A0043F2C82004F08FFF0122D102784814
:103D300001F0A8FD42F2107004F086FF00207249E5
:103D400081F82B0081F8270081F8230000224FF42E
:103D500000616F4801F096FD00224FF480416E48EB
:103D600001F090FD10BD6D4890ED000ABDEEC00A57
:103D70006B4880ED000A704710B50122510364487A
:103D800001F080FD4FF4AF7065490860002410E039
:103D900006E0FCF78BFD00B109E0012004F054FFC0
:103DA0004FF48071594801F04FFD0028F1D000BF59
:103DB000641C642CECDB41F6583004F045FF012212
:103DC000D102554801F05EFD4FF4FA7004F03CFF5B
:103DD00000224FF400614E4801F054FD00240FE032
:103DE00006E0FCF763FD00B108E0012004F02CFFC1
:103DF0000121464801F028FD0028F2D000BF641CD4
:103E0000642CEDDB00240FE006E0FCF74FFD00B171
:103E100008E0012004F018FF01213C4801F014FDE6
:103E20000128F2D000BF641C642CEDDB4FF42F702E
:103E300004F00AFF00224FF40061374801F022FD30
:103E400000240FE006E0FCF731FD00B108E001209E
:103E500004F0FAFE01212D4801F0F6FC0028F2D012
:103E600000BF641C642CEDDB40F2DC5004F0ECFE7F
:103E70000122D102264801F005FD4FF47A7004F0CA
:103E8000E3FE00224FF40051214801F0FBFC002426
:103E90000FE006E0FCF70AFD00B108E0012004F0A5
:103EA000D3FE8021194801F0CFFC0028F2D000BFDA
:103EB000641C642CEDDB10BD400300208800002052
:103EC0003C03002044030020C805002048030020D4
:103ED000900000204C030020500300208C000020A4
:103EE0005403002058030020940000205C030020AD
:103EF00060030020A000002064030020680300206D
:103F00009C00002014060020040000200010024045
:103F100000040240AC000020000C0240B000002071
:103F20001401002010B5FE48006850B90122D102EA
:103F3000FC4801F0A7FC00224FF40051F94801F0C1
:103F4000A1FCF7480068012810D101224103F5487F
:103F500001F098FC4FF48071F34801F075FC28B132
:103F600000224FF40061EF4801F08CFCEC4800683F
:103F700002280DD101228102EA4801F083FC0022CF
:103F80004FF40051E74801F07DFC0020E44908604F
:103F9000E348006803280FD14FF48041E24801F064
:103FA00053FC20B901225103DE4801F06BFC0122D1
:103FB000D102DC4801F066FC10BD10B5DB4840784A
:103FC00000F0020098B9D948407800F0040070B1C0
:103FD00002E01E2004F038FED448407800F00400CF
:103FE0000028F6D1CE480068401CCD49086010BDBD
:103FF00010B53E20CE4981F8230081F8270081F8D2
:104000002B00012081F82200002081F8260081F891
:104010002A0040F2DC5004F017FE10BD01B5C34881
:10402000407800F0010068B1C048407800F010000E
:1040300040B19DF80000BE4981F83300012081F8AD
:10404000320016E0B948407800F0010068B1B74886
:10405000407800F0080040B19DF80000B44981F8B4
:104060003300002081F8320003E00220B04981F8DB
:10407000330008BD01B5AD48407800F0200040B1E4
:104080009DF80000AA4981F83700012081F8360028
:1040900017E0A648407800F0040070B11021A24853
:1040A00001F0D2FB012808D19DF80000A04981F859
:1040B0003700002081F8360003E002209C4981F897
:1040C000370008BD10B59948407800F0020088B16B
:1040D0009648407800F0200060B1012095490860C2
:1040E00000209549086040F267209449086000204C
:1040F000934908708D48407800F0020010B38B4857
:10410000407800F00400E8B14FF402708D49086077
:1041100006E0FCF7CBFB00B10CE0012004F094FDBD
:1041200089480068B0F5077F04DC87480068B0F56F
:10413000FC7FEEDC00BF342080490860002080490D
:10414000087010E07D48006837280CDC7A48006869
:1041500048B97E480068412805DA002075490860A2
:1041600001207549086010BD74480068332802DAE0
:1041700033207249086071480068B0F51A7F03DB8C
:1041800040F267206D490860704909686B4A1268FF
:10419000881A002801DB014600E04142052940DD84
:1041A0006749097800293CD168490968634A12685F
:1041B000881A002801DB014600E04142644A116090
:1041C000624800685D490968884212DD012058494B
:1041D00081F82E0010460068322802DD3220114698
:1041E00008605B4800681E2815DA1E2058490860E0
:1041F00011E000204E4981F82E00554800686428DF
:1042000002DD642052490860514800681E2802DA25
:104210001E204F4908604E480078454981F82F001C
:1042200006E00220424981F82F000120444908702D
:104230004048006818B900203D4981F82F007047B8
:104240004048006843490968884203DA41480068E9
:104250003C4908603B4800683F490968884203DDE3
:104260003D4800683749086037490968354A12688F
:10427000881A002801DB014600E0414201292EDDB9
:10428000314800682F490968884204DD0020284928
:1042900081F8320003E00120254981F832002A49E3
:1042A0000968284A1268881A002801DB014600E0E4
:1042B0004142274A1160104600680A2802DD0A20A0
:1042C0001146086022480068032802DA03202049CA
:1042D00008601F480078164981F8330003E0022087
:1042E000134981F83300704710B51048407800F04A
:1042F0000200A0B10D48407800F0040078B10F48EA
:10430000006840F26721884228DA0C480068401CA7
:104310000A4908604FF47A7004F096FC35E01DE01D
:10432000CC020020000402400010024014060020CD
:104330000400002044010020480100201401002056
:10434000E002002008010020A000002094000020CE
:10435000040300200C01002010010020F9484078DF
:1043600000F0020088B1F748407800F0200060B10A
:10437000F5480068332808DDF3480068401EF2491C
:1043800008604FF47A7004F05FFC10BD10B5ED4882
:10439000407800F00200A0B1EA48407800F0080040
:1043A00078B1EA480068EA490968884209DAE748CA
:1043B0000068401CE54908604FF4967004F044FC26
:1043C00018E0E048407800F0020098B1DD484078FD
:1043D00000F0100070B1DD480068DE4909688842CD
:1043E00008DDDA480068401ED84908604FF496702E
:1043F00004F02AFC10BD10B5044600219FEDD60A3A
:104400002046FEF767FE10BD10B54FF48041D3483B
:1044100001F01AFA00283BD1CB480068B0F5617F63
:1044200036DB9B20CE4981F8230081F8270081F8F4
:104430002B00002081F82200012081F8260081F85D
:104440002A0042F2107004F0FFFB0122D102C5489D
:1044500001F018FA42F2107004F0F6FB0020C04997
:1044600081F8230081F8270081F82B0081F82200D1
:10447000012081F8260081F82A000022C102B948F3
:1044800001F000FA00224FF40051B64801F0FAF9A9
:1044900010BD10B5AB48007800F0800048B102E0D4
:1044A0001E2004F0D1FBA748007800F0800000280F
:1044B000F6D1AD480068401CAB49086010BD01B59D
:1044C000A048407800F0020068B19E48407800F0B3
:1044D000080040B19DF80000A14981F83300012097
:1044E00081F8320016E09748407800F0020068B189
:1044F0009448407800F0100040B19DF800009849C1
:1045000081F83300002081F8320003E00020944954
:1045100081F8330008BD10B51420914981F82B00B3
:1045200081F8270081F82300012081F82200002073
:1045300081F8260081F82A000A2004F085FB002477
:1045400012E008E0FFF722FFFCF7B0F900B109E044
:10455000012004F079FB4FF48041804801F074F9A8
:104560000128EFD100BF641C642CEADB00207C49E9
:1045700081F8230081F8270081F82B00012081F8C1
:104580002200002081F8260081F82A0010BD10B515
:104590006C488079D0B14FF48041704801F054F9F3
:1045A000012813D100206E4981F8230081F82700EB
:1045B00081F82B00012081F82200002081F82600DC
:1045C00081F82A00694908606949086010BD10B582
:1045D0004FF48041614801F037F9002840D10120B3
:1045E00064490870644890ED000ABCEEC00A10EE01
:1045F000100AC0B25A4981F82B0081F8270081F8CF
:104600002300002081F82200012081F8260081F893
:104610002A0043F2C82004F017FB0122D1025148BE
:1046200001F030F942F2107004F00EFB00204C490A
:1046300081F8230081F8270081F82B0081F82200FF
:10464000012081F8260081F82A000022C102454895
:1046500001F018F900224FF40051424801F012F91C
:1046600010BD01B53748407800F00200354949785F
:1046700001F00801084440B19DF80000384981F874
:104680003300012081F8320016E02E48407800F017
:1046900002002C49497801F01001084440B19DF80E
:1046A00000002F4981F83300012081F8320003E037
:1046B00002202B4981F8330008BDDFED302AB0EE2F
:1046C000620ADFED2F2AF0EE620ADFED2E2AB0EE4D
:1046D000621AF1EE042AF0EE621AF7EE002AB0EE4A
:1046E000622A02EE900AF8EEE22A72EEC12A82EE07
:1046F000A13AF0EE602A43EE022AB0EE620AB0F56B
:10470000FA7F0BDBFDEEC02AF8EEE22AB0EE620A79
:10471000F0EE002A70EE222AB0EE620A164981ED10
:10472000000A704700B502460023B2F5C57F2DDDB3
:10473000B2F5C77F2ADC01239FED130A0E4880EDF6
:10474000000A2BE1140600201401002008010020BB
:10475000100100200C010020CDCC4C3E0010024086
:104760000400002000040240C8020020480100208C
:1047700044010020E0020020B800002000000000FA
:10478000000068420000C34300007042B2F5C77FDA
:1047900009DDB2F5C97F06DC02239FEDFC0AFC4867
:1047A00080ED000AFAE0B2F5C97F09DDB2F5CB7FF2
:1047B00006DC03239FEDF70AF54880ED000AEDE0E3
:1047C000B2F5CB7F09DDB2F5CD7F06DC04239FED8A
:1047D000F20AEF4880ED000AE0E0B2F5CD7F09DD96
:1047E000B2F5CF7F06DC05239FEDEC0AE84880EDAB
:1047F000000AD3E0B2F5CF7F09DDB2F5D17F06DC48
:1048000006239FEDE70AE24880ED000AC6E0B2F514
:10481000D17F09DDB2F5D37F06DC07239FEDE10AE6
:10482000DB4880ED000AB9E0B2F5D37F09DDB2F5CF
:10483000D57F06DC08239FEDDC0AD54880ED000A11
:10484000ACE0B2F5D57F09DDB2F5D77F06DC0923F0
:104850009FEDD60ACE4880ED000A9FE0B2F5D77FE3
:1048600009DDB2F5D97F06DC0A239FEDD10AC848DD
:1048700080ED000A92E0B2F5D97F09DDB2F5DB7F69
:1048800006DC0B239FEDCB0AC14880ED000A85E0D2
:10489000B2F5DB7F09DDB2F5DD7F06DC0C239FED91
:1048A000C60ABB4880ED000A78E0B2F5DD7F09DD7D
:1048B000B2F5DF7F06DC0D239FEDC00AB44880ED22
:1048C000000A6BE0B2F5DF7F09DDB2F5E17F06DCBF
:1048D0000E239FEDBB0AAE4880ED000A5EE0B2F504
:1048E000E17F09DDB2F5E37F06DC0F239FEDB50A1A
:1048F000A74880ED000A51E0B2F5E37F09DDB2F58B
:10490000E57F06DC10239FEDB00AA14880ED000A88
:1049100044E0B2F5E57F09DDB2F5E77F06DC11235F
:104920009FEDAA0A9A4880ED000A37E0B2F5E77FCA
:1049300009DDB2F5E97F06DC12239FEDA40A944855
:1049400080ED000A2AE0B2F5E97F09DDB2F5EB7FE0
:1049500006DC13239FED9D0A8D4880ED000A1DE0C3
:10496000B2F5EB7F09DDB2F5ED7F06DC14239FED98
:10497000960A874880ED000A10E0B2F5ED7F09DD68
:10498000B2F5EF7F06DC15239FED910A804880ED9C
:10499000000A03E01046FFF790FE00BD00BFFCE7F1
:1049A00073B52DED028B142505261FED8C0AB0EE94
:1049B000408A88480079322805DB86480079C82873
:1049C00001DC012000E0002004468248007800F06D
:1049D0000800A8B97F48007800F0100080B97D4831
:1049E000007800F0200058B97A48007800F04000C4
:1049F00030B92CB10A20FEF7E7FABDEC028B7CBD82
:104A00007448407800F0010030B19DF80C509FEDE3
:104A1000720AB0EE408A05E09DF808501FEDB20A18
:104A2000B0EE408A6B48007800F0080098B1694801
:104A3000007800F0100070B96648007800F020009F
:104A400048B96448007800F0400020B9294663481E
:104A5000FEF7E4FBE0E05F48007800F00800A0B952
:104A60005C48007800F0100078B15A48007800F0F7
:104A7000200050B95748007800F0400028B9294676
:104A800040F24650FEF7CAFBC6E05248007800F0FC
:104A90000800A0B94F48007800F0100078B94D48E0
:104AA000007800F0200050B14A48007800F0400043
:104AB00028B929464FF4E170FEF7B0FBACE0454859
:104AC000007800F0080098B94248007800F0100023
:104AD00070B94048007800F0200048B93D4800789F
:104AE00000F0400020B129463D48FEF797FB93E0D7
:104AF0003848007800F0080098B13648007800F097
:104B0000100070B93348007800F0200048B13148F7
:104B1000007800F0400020B929460020FEF77EFB17
:104B20007AE02C48007800F0080098B12948007815
:104B300000F0100070B92748007800F0200048B954
:104B40002448007800F0400020B129462548FEF7AF
:104B500065FB61E01F48007800F00800A0B91D481F
:104B6000007800F0100078B11A48007800F02000BA
:104B700050B11848007800F0400028B929464FF499
:104B80006170FEF74BFB47E02EE00000000078422A
:104B9000B8000020000080420000844200008842EB
:104BA00000008C42000090420000944200009842B5
:104BB00000009C420000A0420000A4420000A84265
:104BC0000000AC420000AE420000B0420000B24221
:104BD0000000B442140600209A99993F3EFEFFFF60
:104BE000BAFAFFFF7CFCFFFFFA48007800F00800EB
:104BF00090B9F848007800F0100068B1F5480078E6
:104C000000F0200040B9F348007800F0400018B1EF
:104C10002946F148FEF702FBEE48007800F0080054
:104C2000A8B9EC48007800F0100080B9E948007895
:104C300000F0200058B9E748007800F0400030B993
:104C40002CB1FDF74FFD10B11420FEF7BDF914B1E2
:104C5000FEF7E3F927E0DF48007932280EDAFDF7A6
:104C600041FD28B10020B1EE480AFEF7C7FA1AE06C
:104C70000020B1EE480AFEF7C1FA14E0D5480079E9
:104C8000C8280EDDFDF72EFD28B10020B0EE480A41
:104C9000FEF7B4FA07E00020B0EE480AFEF7AEFADD
:104CA00001E0FEF7BAF900BFA7E610B50020CB4936
:104CB00088700121CA4800F0C7FD012804D10220F4
:104CC000C649C870012010BD3220C449C8700020F8
:104CD000F9E710B50020C14988700121C04800F0F3
:104CE000B3FD01280BD1BF48007840B93220BB4941
:104CF000C8700020BC490860BC49086010BDFBF7C3
:104D000098FE041E01DB204600E06042B8490968B5
:104D1000884208DDB3480078012804D10220AF4959
:104D2000C8700120EAE71420AC49C8700120AD49E1
:104D300008700020E2E710B50120A849887202211E
:104D4000A74800F081FD012804D10220A349C872C0
:104D5000012010BD3220A149C8720020F9E710B52A
:104D600002219F4800F070FD01280BD1A148007876
:104D700040B932209949C87200209F4908609F4974
:104D8000086010BDFBF79DFE041E01DB204600E01D
:104D900060429B490968884208DD964800780128EE
:104DA00004D102208D49C8720120EAE714208B4902
:104DB000C87201208F4908700020E2E710B500207A
:104DC000864988760421864800F03EFD012804D1FA
:104DD00002208249C876012010BD32207F49C87662
:104DE0000020F9E710B500207C49887604217C4832
:104DF00000F02AFD01280BD18248007840B932200A
:104E00007649C8760020804908608049086010BD56
:104E1000FBF753FD041E01DB204600E060427C49A5
:104E20000968884208DD77480078012804D102200B
:104E30006A49C8760120EAE714206849C87601204B
:104E4000704908700020E2E710B5002063498874BB
:104E50000821634800F0F8FC012804D102205F49D2
:104E6000C874012010BD32205C49C8740020F9E7E5
:104E700010B508215A4800F0E7FC01280CD165481C
:104E8000007848B932205549C87400204FF080415D
:104E900048626149086010BDFBF781FD041E01DB1B
:104EA000204600E060425D490968884208DD5148BB
:104EB0000078012804D102204849C8740120EAE79B
:104EC00014204649C8740120524908700020E2E7C6
:104ED00010B5FBF7AEFD52490968441A002C01DBFE
:104EE000204600E060420A282ADDFBF7A2FD4C497B
:104EF0000968884203DD01203849887002E00020FB
:104F000036498870FBF795FD45490968441A002C1D
:104F100001DB204600E06042424908600846006824
:104F2000FA2801DDFA2008603E4800680A2802DA03
:104F30000A203C4908603B4800782849C87002E0D4
:104F400002202649C87010BD10B5FBF7BAFD3649DE
:104F50000968441A002C01DB204600E060420A2860
:104F60002ADDFBF7AEFD30490968884203DD0020E9
:104F70001A49887202E0012018498872FBF7A1FDE6
:104F800029490968441A002C01DB204600E06042F0
:104F90002449086008460068FA2801DDFA20086004
:104FA000204800680A2802DA0A201E4908601D48C5
:104FB00000780A49C87202E002200849C87210BD90
:104FC00010B5FBF77AFC19490968441A002C2FDB4D
:104FD00020462EE014060020F8F8FFFF0400002011
:104FE0000010024000030020240400406000002064
:104FF0000C0300200103002024080040740000205E
:105000001003002003030020240C00406400002053
:1050100014030020020300205C000020180300207D
:105020003402002004030020380200203C0200204B
:1050300060420A282ADDFBF740FCBA490968884229
:1050400003DD0120B849887602E00020B649887661
:10505000FBF733FCB3490968441A002C01DB2046F6
:1050600000E06042B149086008460068FA2801DDA6
:10507000FA200860AD4800680A2802DA0A20AB4925
:105080000860AA480078A849C87602E00220A6492C
:10509000C87610BD10B5FBF782FCA5490968441A13
:1050A000002C01DB204600E060420A282ADDFBF7E5
:1050B00076FC9F490968884203DD01209A4988747B
:1050C00002E0002098498874FBF769FC9849096858
:1050D000441A002C01DB204600E06042934908603E
:1050E00008460068FA2801DDFA2008608F48006849
:1050F0000A2802DA0A208D4908608C4800788A491B
:10510000C87402E002208849C87410BD09E011206B
:10511000FDF7ACF90121874802F074FA0F2003F083
:1051200093FDF4E721E08448007800F0010020B10D
:1051300050210320FFF734FC02E00A20FDF744FF72
:10514000FFF7C6FEFFF700FFFFF73AFFFFF7A2FFEA
:10515000FEF744FCFFF708F878480068FFF7ADFA5F
:10516000FFF76EF8032003F06FFDDCE706E0FDF7C4
:1051700091F9FEF7E4FA032003F066FDF7E71FB5A7
:10518000FBF70AFDFBF747FDFBF794FFFCF769F817
:10519000FCF75CF9FCF7E0F8FCF7D1F9FBF7A6FDAA
:1051A0004FF4E130FCF7A3FA4FF4E130FCF728FBB1
:1051B0004FF4E130FCF7B1FB4FF46120FCF7E3FC66
:1051C0004FF4E130FCF77CFDFDF796FA00BFFFF7E6
:1051D0006CFD08B9012400E00024FFF7ACFD08B91C
:1051E000012000E000200443FFF72EFE08B9012053
:1051F00000E000200443FFF7E1FD08B9012000E0D2
:1052000000200443002CE2D100BFFFF762FD08B983
:10521000012400E00024FFF7A2FD08B9012000E00E
:1052200000200443FFF724FE08B9012000E000201D
:105230000443FFF7D7FD08B9012000E00020044334
:10524000002CE2D100203E490860FCF76BFE0020F4
:1052500000900190029003464FF4807239A10390B0
:105260003D4803F0B2FA00200090019002900346FE
:105270004FF4807239A103903D4803F0A6FA4FF431
:1052800002703C49086036203B49086000203B49D9
:1052900008703B49086025E01BE0FFF777F8FEF750
:1052A00011FF2548407800F0020030B922484078CC
:1052B00000F0200008B1FFF72EF91F48407800F0F9
:1052C000020030B91C48407800F0100008B1FFF728
:1052D0007EF91948007800F001000028DDD1142083
:1052E000FDF772FED8E71FB50020009001900290F4
:1052F00003464FF4807223A10390254803F065FA1A
:10530000002000900190029003464FF4807221A18A
:105310000390234803F059FA03F070FE002004B014
:1053200010BD00003C020020040000200403002007
:105330004002002000480040140600208C0000209D
:10534000BC0000207461736B526F626F74416E61B8
:105350006C797469637300006D5100087461736B3C
:10536000446965754B6869656E436F4361750000FC
:10537000255100080801002014010020E00200204F
:10538000440100207461736B4D61696E0000000080
:105390007F5100087461736B4779726F00000000E1
:1053A0000D5100080CB50020019000907248006873
:1053B00040F480307049086000BF6F48006800F416
:1053C000003000900198401C0190009818B9019895
:1053D000B0F5A06FF1D16848006800F4003010B15A
:1053E0000120009001E0002000900098012846D1A3
:1053F00061484030006840F080505F4940310860AB
:105400005E48006840F480405C4908605A480830B3
:1054100000685949083108600846006840F40040B7
:1054200008600846006840F4A05008605448091F0E
:105430000860081F006840F08070091F086000BF06
:105440004D48006800F000700028F9D040F2056077
:105450004C49086048480830006820F0030046497D
:10546000083108600846006840F00200086000BF8C
:1054700041480830006800F00C000828F8D10CBD45
:1054800010B53D48006840F001003B49086000202D
:10549000394908310860384800683B4908403649B6
:1054A00008603A48091D0860081F006820F4802041
:1054B000091F0860002030490C310860FFF772FFB7
:1054C0004FF000603249086010BD70B50020002226
:1054D000022300240221284D08352D6805F00C0018
:1054E00020B1042806D0082834D107E0294D2A4EDF
:1054F000356033E0294D284E35602FE01E4D2D1DBF
:105500002D68C5F380541C4D2D1D2D6805F03F01FD
:1055100054B1224DB5FBF1F5174E361D3668C6F372
:10552000881605FB06F209E01A4DB5FBF1F5124E9F
:10553000361D3668C6F3881605FB06F20E4D2D1D86
:105540002D68C5F301456D1C6B00B2FBF3F5124EDF
:10555000356003E00F4D104E356000BF00BF064DB3
:1055600008352D68C5F303150D4E705D0A4D2D6885
:10557000C540094E356070BD0038024000700040E3
:1055800008544007003C0240FFFFF6FE10300024A4
:1055900008ED00E00024F4006C03002000127A0003
:1055A000700300200648804706480047FEE7FEE7F4
:1055B000FEE7FEE7FEE7FEE7FEE7FEE7FEE7FEE7C3
:1055C000815400088901000832490143324A1160C0
:1055D000704770B5002100230F22C4781CB32E4CF5
:1055E000246804F4E064C4F5E064C4F30721C1F165
:1055F0000404E3B20A4144789C40E1B28478144048
:1056000021430C07210E254C05786155047804F0E0
:105610001F050124AC4005786D11AD0005F1E025B2
:10562000C5F8004109E0047804F01F050124AC40EE
:105630001B4D0678761145F8264070BD194A0A4080
:105640000243154B1B1F1A60704739B1124A121DD5
:1056500012680243104B1B1D1A6006E00E4A121D11
:10566000126882430C4B1B1D1A607047042808D136
:105670004FF0E021096941F004014FF0E02211618F
:1056800007E04FF0E021096921F004014FF0E0222A
:10569000116170470000FA050CED00E000E400E045
:1056A00080E100E080FFFF1F10B504468C48844273
:1056B00008D10121084600F000FB0021012000F084
:1056C000FCFA5EE08748844208D10121022000F004
:1056D000F4FA0021022000F0F0FA52E082488442FD
:1056E00008D10121042000F0E8FA0021042000F094
:1056F000E4FA46E07D48844208D10121082000F008
:10570000DCFA0021082000F0D8FA3AE07848844218
:1057100008D10121102000F0D0FA0021102000F063
:10572000CCFA2EE07348844208D10121202000F0F9
:10573000C4FA0021202000F0C0FA22E06E48844222
:1057400008D10121402000F0B8FA0021402000F0EB
:10575000B4FA16E06948844208D10121802000F0A3
:10576000ACFA0021802000F0A8FA0AE064488442E4
:1057700007D10121801500F0A0FA0021A01500F04A
:105780009CFA10BDF0B50A4600210023002400BF9A
:105790003DE0012505FA01F3156805EA03049C4282
:1057A00034D105684F000326BE40B5430560157926
:1057B0004E00B5400668354305601579012D02D0CD
:1057C0001579022D16D185684F000326BE40B543DA
:1057D000856055794E00B5408668354385604568DB
:1057E00001268E40B5434560456896798E40B6B235
:1057F00035434560C5684F000326BE40B543C560CC
:10580000D5794E00B540C6683543C560491C10299E
:10581000BFD3F0BD4FF6FF710160002101714171EE
:105820008171C171704708B54FF480320092009ABF
:105830000A430092009AC261C161009AC261C269C2
:105840000092C269009208BD0246002013690B4015
:105850000BB1012000E0002070470146086980B2CA
:1058600070470246002053690B400BB1012000E055
:10587000002070470146486980B270470183704735
:10588000418370470AB1018300E041837047416161
:10589000704742694A4042617047F0B500230024D6
:1058A0004D07ED0E02FA05F3CE1000F1200555F874
:1058B00026504E07F70E0F26BE40B543CF1000F11D
:1058C000200646F82750CE1000F1200555F8265046
:1058D00045EA0304CE1000F1200545F82640F0BD4E
:1058E000000002400004024000080240000C024098
:1058F000001002400014024000180240001C024048
:1059000000200240FA48006840F00100F8490860B1
:105910000020F74908310860F5480068F54908405B
:10592000F3490860F448091D0860081F006820F466
:105930008020091F08600020ED490C310860704785
:105940000021EB4A921C117011460870704710B587
:1059500001460022002300204A11012A02D1E44C12
:10596000236808E0022A03D1E14C7034236802E086
:10597000DF4C7434236801F01F02012494401C4062
:105980000CB1012000E0002010BD38B500200090CF
:105990000024002500BF3120FFF7D9FF05460098FD
:1059A000401C00900098B0F5A06F01D0002DF2D0FF
:1059B0003120FFF7CCFF08B1012400E0002420468D
:1059C00038BD01460020CA4A106820F0F80040EABD
:1059D000C10010607047C949086070470021C44A7F
:1059E000703211701170012802D004280AD104E02D
:1059F0000121BF4A7032117005E00521BC4A7032A6
:105A0000117000E000BF00BF7047BD4908607047DB
:105A100070B5049C41EA82150126C6EB530645EA9F
:105A20000645054345EA0465B14E361D356070BD37
:105A3000B24908667047820142EA0172AC4B843376
:105A40001A607047AD4988667047AC49C8647047B2
:105A500002460020A64B0833186820F0EC6042EAAA
:105A600001031843A24B0833186070470246002018
:105A70009F4B0833186820F0784042EA010318432E
:105A80009B4B08331860704701460020984A083243
:105A9000106820F0030008431060704794480830F5
:105AA000006800F00C00704701460020904A083260
:105AB000106820F0F0000843106070470146002095
:105AC0008B4A0832106820F4E05008431060704799
:105AD00001460020864A0832106820F4604040EAFF
