:020000040800F2
:1000000098340020F1630008490200084B02000800
:100010004F020008530200085702000800000000C9
:10002000000000000000000000000000A101000826
:100030005B02000800000000E50100080B940008C6
:100040000B6400080B6400080B6400080B640008D4
:100050000B6400080B6400080B6400080B640008C4
:10006000590400089D0400080B640008FB02000806
:10007000DD020008390300080B640008790200085B
:100080000B640008850200080B6400080B6400087C
:100090000B6400080B6400080B6400080B64000884
:1000A0000B64000875030008A10300080B64000836
:1000B000A3030008D1030008FD0300080B64000837
:1000C0000B6400080B6400080B640008550400086A
:1000D0000B640008610200080B6400080B64000850
:1000E0000B6400080B6400080B6400080B64000834
:1000F0000B6400080B6400080B640008150300087B
:100100000B6400080B640008290400085704000869
:100110000B6400080B640008470300085303000841
:100120000B6400089F020008AF0200080B6400087F
:100130000B6400080B6400080B6400080B640008E3
:100140000B6400080B6400080B6400080B640008D3
:10015000CF0200080B6400080B6400080B64000861
:100160000B6400080B6400080B6400080B640008B3
:100170000B6400080B6400080B6400080B640008A3
:100180000B6400080B640008DFF810D00AF0A0FC34
:100190000048004795610008AFF3008098340020C4
:1001A000234B19680868B0E8F04F80F309884FF0D6
:1001B000000080F3118870470000000003480068C9
:1001C000006880F3088862B600DF00BF08ED00E039
:1001D000DFF80C00016841F470010160704700BF56
:1001E00088ED00E0EFF30980114B1A681EF0100F44
:1001F00008BF20ED108A20E9F04F106008B54FF0DD
:10020000140080F3118809F0C8FC4FF0000080F35F
:100210001188BDE8084019680868B0E8F04F1EF082
:10022000100F08BFB0EC108A80F30988704700BF38
:10023000D4040020EFF311804FF0140181F31188F2
:10024000704780F311887047704700BFFEE700BF1A
:10025000FEE700BFFEE700BFFEE77047704770474C
:1002600010B540F225518E4808F0E3F918B120216D
:100270008B4808F0D5F910BD10B58A498A4807F0B7
:100280000DF910BD10B589498748303007F0DCF80A
:1002900020B186498448303007F000F910BD10B510
:1002A0008349844807F0FAF801F096FD10BD10B5B7
:1002B00081498048183007F0F1F8804840787F493C
:1002C000097840EA012000B27D49088010BD10B5D0
:1002D0007C497848603007F0E1F810BD10B57449EA
:1002E0007148483807F0B0F830B171496E48483865
:1002F00007F0D4F800F0A0FA10BD10B572496A48B2
:10030000603807F0A1F820B16F496748603807F0FE
:10031000C5F810BD10B56D496348483007F094F832
:1003200048B100216048483006F0E4FF67495E4864
:10033000483007F0B3F810BD10B55A495A48303864
:1003400007F0ACF810BD10B50121614807F0CEFEF2
:1003500010BD10B501215F4807F0C8FE7A20504952
:10036000888001215C4808F073F801215B4808F09F
:100370006FF810BD10B50121594807F0B7FE584875
:10038000008800F0100028B156480068401E55490A
:10039000086004E053480068401C5249086010BDE2
:1003A000704710B50121880707F0A0FE4FF080408C
:1003B000008800F0100028B14B480068401E4A49F0
:1003C000086004E048480068401C4749086010BDC8
:1003D00010B50121454807F089FE4448008800F027
:1003E000100028B142480068401E4149086004E0FE
:1003F0003F480068401C3E49086010BD10B501210F
:100400003C4807F073FE3B48008800F0100028B11C
:1004100039480068401E3849086004E036480068E2
:10042000401C3549086010BD10B50121334807F064
:100430005DFE3248008800F0100028B130480068A6
:10044000401E2F49086004E02D480068401C2C49DC
:10045000086010BD7047704710B5042007F0B6F86B
:10046000D8B12021274806F03AF90421264806F0A1
:1004700011F9012804D10021164807F0B7F909E065
:100480000421214806F006F920B9124807F0B2F914
:100490001E49086004201E49086010BD7047000016
:1004A0000010014020800020706002400080202069
:1004B000008800102864024000802010F006002010
:1004C0008C00002000880020208000100080002880
:1004D000001000400014004000480040001401409B
:1004E000000001406C00002070000020000400406B
:1004F000740000200008004088000020000C00402C
:100500007800002000000240000C0240680000203B
:10051000143C014070B50446204609F027FF05460B
:100520002146FE4809F029FFA0B195222146FB484B
:1005300009F010FF0021FA4806F0DCFEF748F84900
:100540000C310860F648B838C0F8BC500121F448B6
:1005500006F0D0FE70BD70B50446002510E0605D69
:1005600068B1615DEF4807F09EFF00BF8021ED4854
:1005700008F049F80028F9D0681CC5B200E070BD49
:10058000EDE770B5044600250FE05CB12146E54873
:1005900007F089FF00BF8021E24808F034F8002806
:1005A000F9D000E070BD681CC5B2032DEDDB00BFC3
:1005B000F8E713B50C460020FFF7E3FFDAA0FFF7DA
:1005C000CAFF2346D9A29621D9480AF0CBFAD848C7
:1005D000FFF7C1FFD7A0FFF7BEFFD4A29621D448F2
:1005E000009B0AF0BFFAD248FFF7B5FFD3A0FFF790
:1005F000B2FFFF20FFF7C5FFFF20FFF7C2FFFF207C
:10060000FFF7BFFF1CBD70B505460C46C6A0FFF73F
:10061000A2FF2246C5A1C6480AF0BEFAC448FFF7A9
:100620009AFFC4A0FFF797FF2846FFF794FFC3A0E7
:10063000FFF791FFFF20FFF7A4FF70BD77B585B0EE
:100640000546FF26BBA103C9CDE90301BBA0006895
:100650000290B5A00068019000240AE00020B8498B
:100660000855B8490855B2490855AC490855601CA9
:10067000C4B21E2CF2DB0A20AD490870FF2048707E
:100680008870C870A9A1AF48079A0AF085FAAD49E9
:1006900001A809F053FE01A9A54809F04FFE03A9DE
:1006A000A34809F04BFE2946A14809F047FE9FA147
:1006B000A448069A0AF070FAA2499D4809F03EFE45
:1006C00002A99B4809F03AFEFF209D490870487036
:1006D0008870974809F032FE9548FFF71BFF08B075
:1006E00070BDF7B584B005460E46FF2791A103C93A
:1006F000CDE9020191A0006801908BA000680090F4
:10070000002408E000208E4908558E490855884984
:100710000855601CC4B20A2CF4DB0A208449087016
:10072000FF2048708870C87080A18648069A0AF039
:1007300033FA8449684609F001FE69467C4809F0AD
:10074000FDFD02A97A4809F0F9FD2946784809F02B
:10075000F5FD3146764809F0F1FD01A9744809F02C
:10076000EDFDFF2076490870487088700020C87041
:1007700008716F4809F0E2FD6D48FFF7CBFE07B046
:10078000F0BD01B58EB070A2322101A80E9B0AF017
:10079000E9F901A8FFF7BEFE0FB000BD73B584B044
:1007A0000546FF2663A103C9CDE9020163A00068E5
:1007B00001905DA00068009000240AE000206049DC
:1007C0000855604908555A49085554490855601C50
:1007D000C4B21E2CF2DB0A2055490870FF20487075
:1007E0008870C87051A15748059A0AF0D5F9554943
:1007F000684609F0A3FD69464D4809F09FFD02A92E
:100800004B4809F09BFD2946494809F097FD4D49A1
:10081000474809F093FD01A9454809F08FFDFF20E5
:100820004749087048708870414809F087FD404882
:10083000FFF770FE06B070BD1CB54648007845490C
:10084000497808444349897808444249C9780844AA
:100850004049097908443F49497908443D49897923
:1008600008443C49C97908443A49097A0844C0B265
:1008700001903848007A00F00F0000909DF80000C9
:100880000D2803D00021344807F0E2FD1CBD31489B
:10089000007A00F00F000D2806D12E48007800F0F5
:1008A000010008B10D2070470020FCE729480078BE
:1008B00000F0020008B1012070470020FCE730B5CD
:1008C0002DED048B83B0254806F094FF2449096878
:1008D00040EA0145284609F0E6FE41EC190B9FED80
:1008E000210B53EC102B09F06FFE41EC180B09F0B3
:1008F000EBFE019000244DE0184806F07BFF1849FC
:10090000096840EA0145284609F0CDFE41EC190B83
:100910009FED140B53EC102B28E000004A0600203A
:10092000B8600240005000407400000025640000E0
:10093000140500202E7478743D220000220000006F
:10094000FA050020D20500206A302E76616C3D2524
:10095000640000002C07002000480040000C00400C
:10096000780000209A99999999994E4009F02CFEA7
:1009700041EC180B09F0A8FE0290DDE90121881A6C
:10098000002801DB014600E04142052900DA641C31
:1009900002980190022CAFDB0298404203B0BDECFC
:1009A000048B30BD30B52DED048B83B04FF080400B
:1009B00006F020FFFE49096840EA0145284609F093
:1009C00072FE41EC190B1FED190B53EC102B09F0C3
:1009D000FBFD41EC180B09F077FE0190002424E0A8
:1009E0004FF0804006F006FFF149096840EA0145F2
:1009F000284609F058FE41EC190B1FED260B53EC6D
:100A0000102B09F0E1FD41EC180B09F05DFE02909E
:100A1000DDE90121881A002801DB014600E041429E
:100A2000052900DA641C02980190022CD8DB029898
:100A300003B0BDEC048B30BD30B52DED048B83B01D
:100A4000DC4806F0D7FEDC49096840EA0145284643
:100A500009F029FE41EC190B1FED3E0B53EC102B56
:100A600009F0B2FD41EC180B09F02EFE01900024B4
:100A700023E0D04806F0BEFECF49096840EA0145B0
:100A8000284609F010FE41EC190B1FED4A0B53EC00
:100A9000102B09F099FD41EC180B09F015FE02909E
:100AA000DDE90121881A002801DB014600E041420E
:100AB000052900DA641C02980190022CD9DB029807
:100AC00003B0BDEC048B30BD30B52DED048B83B08D
:100AD000BA4806F08FFEBA49096840EA014528463F
:100AE00009F0E1FD41EC190B1FED620B53EC102BEB
:100AF00009F06AFD41EC180B09F0E6FD01900024B5
:100B000023E0AE4806F076FEAD49096840EA0145AB
:100B1000284609F0C8FD41EC190B1FED6E0B53EC94
:100B2000102B09F051FD41EC180B09F0CDFD02909E
:100B3000DDE90121881A002801DB014600E041427D
:100B4000052900DA641C02980190022CD9DB029876
:100B5000404203B0BDEC048B30BD01B581B0002034
:100B60000090019800EBC0004000009002E0009867
:100B7000401E009000980028F9D10CBD01B581B04D
:100B80000020009044F2506101984843009002E038
:100B90000098401E009000980028F9D10CBD1CB5AB
:100BA00001211F2005F05AFF4FF6FF700090012031
:100BB0008DF8040000208DF8060001208DF8070054
:100BC00003208DF8050069467E4805F001FD4FF6CB
:100BD000FF70009001208DF8040000208DF80600C1
:100BE00001208DF8070003208DF80500694676483E
:100BF00005F0EEFC4FF6FF70009001208DF8040028
:100C000000208DF8060001208DF8070003208DF8E4
:100C1000050069466D4805F0DBFC1CBD1CB50121D3
:100C20007E2005F01BFFC020009000208DF80400FE
:100C300001208DF8070002208DF805006946644800
:100C400005F0C6FC0620009000208DF8040001206D
:100C50008DF8070002208DF805006946594805F017
:100C6000B7FC0420009000208DF8040001208DF8CE
:100C7000070002208DF805006946534805F0A8FCDE
:100C80001CBD1FB54FF4E06005F0C4FB36208DF8A5
:100C9000000000208DF801008DF8020001208DF881
:100CA0000300684605F0BBFB0121102005F009FF99
:100CB0003220ADF8040040F2E73002900020ADF899
:100CC0000C00ADF8060001A9424806F046FD0121DE
:100CD000404807F00BFA012211463E4807F0DEF9C2
:100CE00000213C4806F082FD01213A4806F0BEFD95
:100CF0001FBD1FB54FF4E06005F08CFB37208DF869
:100D0000000000208DF801008DF8020001208DF810
:100D10000300684605F083FB0121202005F0D1FE89
:100D20003220ADF8040040F2E73002900020ADF828
:100D30000C00ADF8060001A9274806F00EFD0121C0
:100D4000254807F0D3F901221146234807F0A6F9F8
:100D50000021214806F04AFD01211F4806F086FDCA
:100D60001FBD00B58BB00121022005F0BBFE0121A3
:100D70000C2005F073FE03220621134805F0B3FC96
:100D800003220721104805F0AEFC032208210E487B
:100D900005F0A9FC032209210B4805F0A4FC4FF43F
:100DA0007070069002208DF81C00032016E00000F1
:100DB000700000200008004088000020000400406F
:100DC000740000200004024000080240000C0240B1
:100DD0000000024000100040001400408DF81D008B
:100DE00000208DF81E0001208DF81F0006A9FE4886
:100DF00005F0EEFBA420ADF8200040F6B8300990D5
:100E00004FF48070ADF828000020ADF8220008A94A
:100E1000F64806F0A2FC6020ADF804000120ADF811
:100E2000060000200390ADF810000121EF4806F005
:100E30001DFD0021ED4806F0D9FC01A9EB4806F0A4
:100E400021FD01A9E94806F056FD01A9E74806F091
:100E50009FFD01A9E54806F001FE0121E34807F0E6
:100E6000F6F80BB000BD00B58BB00121082005F0ED
:100E700028FE0121084605F0F1FD02220021DC4890
:100E800005F031FC02220121D94805F02CFC022298
:100E90001146D74805F027FC02220321D44805F06B
:100EA00022FC0F20069002208DF81C0003208DF8F4
:100EB0001D0000208DF81E0001208DF81F0006A9DE
:100EC000CB4805F085FBBA20ADF8200042F2107047
:100ED00009900020ADF82800ADF8220008A9C54807
:100EE00006F03BFC6020ADF804000120ADF80600E0
:100EF00000200390ADF810000121BE4806F0B6FCBA
:100F00000021BC4806F072FC01A9BA4806F0BAFC00
:100F100001A9B84806F0EFFC01A9B64806F038FD73
:100F200001A9B44806F09AFD0121B24807F08FF8F4
:100F30000BB000BD00B58BB00121042005F0C1FD50
:100F400001210D2005F08AFD02220C21AA4805F09E
:100F5000CAFB02220D21A84805F0C5FB02220E2182
:100F6000A54805F0C0FB02220F21A34805F0BBFBFA
:100F70004FF47040069002208DF81C0003208DF87D
:100F80001D0000208DF81E0001208DF81F0006A90D
:100F9000994805F01DFBA420ADF8200040F6B830BC
:100FA00009904FF48070ADF828000020ADF82200C1
:100FB00008A9924806F0D1FB6020ADF8040001209A
:100FC000ADF8060000200390ADF8100001218B4819
:100FD00006F04CFC0021894806F008FC01A987486E
:100FE00006F050FC01A9854806F085FC01A983485C
:100FF00006F0CEFC01A9814806F030FD0BB000BD23
:1010000000B589B00121080405F06CFD01210846F6
:1010100005F024FD03221146754805F064FB032208
:101020000221734805F05FFB0C20019002208DF82F
:10103000080003208DF8090000208DF80A00012027
:101040008DF80B0001A96A4805F0C2FA0020ADF83E
:1010500018004FF6FF7007900020ADF82000ADF8A3
:101060001A0006A9664806F078FB0420ADF80C00CB
:101070000020ADF80E00C820ADF814000120ADF836
:10108000100003A95E4806F03FFF00231A46032123
:101090005C4807F0D6F801215A4807F027F80122EA
:1010A0001146584806F0FAFF0121554806F0DEFBCC
:1010B0000021544806F09AFB09B000BD00B589B084
:1010C0000121084605F0FDFC0121022005F0F9FC94
:1010D0000121032005F0C2FC01220F21444805F044
:1010E00002FB01220321484805F0FDFA02220421F7
:1010F000454805F0F8FA02220521434805F0F3FAC5
:101100003820019002208DF8080003208DF8090096
:1011100000208DF80A0001208DF80B0001A93A4843
:1011200005F056FA4FF40040019002208DF80800B7
:1011300003208DF8090000208DF80A0001208DF8A9
:101140000B0001A92A4805F043FA0020ADF8180069
:101150004FF6FF7007900020ADF82000ADF81A00A0
:1011600006A94FF0804006F0F8FA06A9274806F0D5
:10117000F4FA0420ADF80C000220ADF80E001420A3
:10118000ADF814000120ADF8100003A9800706F0A7
:10119000BBFE03A91D4806F0B7FE02231A46032131
:1011A000580707F04EF802231A460321174807F0A4
:1011B00048F80121880706F099FF0121134806F03D
:1011C00095FF01221146900706F068FF01221146A3
:1011D0000E4806F063FF0121880706F047FB012156
:1011E0000A4806F043FB13E00008024000040140F7
:1011F00000000240000C0040000C024000080040CB
:101200000000014000400140000402400004004092
:1012100000214FF0804006F0E9FA0021FE4806F078
:10122000E5FA4FF4C06005F0F5F81D208DF80000D8
:1012300003208DF8010000208DF8020001208DF8B8
:101240000300684605F0EBF81C208DF80000042030
:101250008DF8010000208DF8020001208DF80300B8
:10126000684605F0DCF809B000BD00B589B0012181
:10127000084605F037FC0121102005F0EFFB4FF484
:101280002060019002208DF8080003208DF80900ED
:1012900000208DF80A0001208DF80B0001A9DF481D
:1012A00005F096F901220921DC4805F01CFA01221B
:1012B0000B21DA4805F017FA0020ADF818004FF6B8
:1012C000FF7007900020ADF82000ADF81A0006A9C5
:1012D000D34806F042FA0420ADF80C000020ADF827
:1012E0000E000A20ADF814000120ADF8100003A98B
:1012F000CB4806F009FE00231A460321C84806F031
:10130000A0FF0121C64806F0F1FE01221146C448A3
:1013100006F0C4FE0121C24806F0E8FE0122114693
:10132000BF4806F0BBFE0121BD4806F09FFA002130
:10133000BB4806F05BFA4FF4C06005F06BF819206B
:101340008DF8000001208DF8010000208DF80200CA
:1013500001208DF80300684605F061F809B000BD72
:1013600000B589B00121042005F0ABFB0121082064
:1013700005F074FB4FF44050019002208DF80800F6
:1013800003208DF8090000208DF80A0001208DF857
:101390000B0001A9A34805F01BF90020ADF81800C7
:1013A0004FF6FF7007900020ADF82000ADF81A004E
:1013B00006A99D4806F0D1F902220C21994805F0B2
:1013C00092F902220D21974805F08DF90420ADF81D
:1013D0000C000220ADF80E00C820ADF8140001206A
:1013E000ADF8100003A9904806F08EFD02231A46BE
:1013F00003218D4806F025FF01218B4806F076FE7B
:1014000001221146884806F049FE0121864806F06F
:101410002DFA42F21071844806F0E8F90020824962
:10142000143108800120804908804FF4C06004F026
:10143000F1FF1E208DF8000004208DF8010000202F
:101440008DF8020001208DF80300684604F0E7FFE4
:1014500009B000BD00B589B00121082005F031FBBD
:101460000121084605F0FAFA0320019002208DF8C8
:10147000080003208DF8090000208DF80A000120E3
:101480008DF80B0001A9694805F0A2F80020ADF81D
:1014900018004FF6FF7007900020ADF82000ADF85F
:1014A0001A0006A9624806F058F9022200215F4896
:1014B00005F019F9022201215C4805F014F9042015
:1014C000ADF80C000220ADF80E00C820ADF81400F5
:1014D0000120ADF8100003A9554806F015FD0223C0
:1014E0001A460321524806F0ACFE0121504806F08E
:1014F000FDFD012211464E4806F0D0FD01214C4869
:1015000006F0B4F942F21071494806F06FF9002074
:101510004749143108800120454908804FF4C060D4
:1015200004F078FF32208DF8000004208DF80100CF
:1015300000208DF8020001208DF80300684604F0B9
:101540006EFF09B000BD00B59BB00121394805F020
:1015500085FA0121080205F0C5FA002002903648FC
:101560000390364804900020059008200690002043
:1015700007904FF4806008904000099080000A9026
:1015800040110B9040020C9000200D9001200E9015
:1015900000200F90109002A9294805F071FE01214A
:1015A000274805F0A7FE3C20009003208DF804009A
:1015B00000208DF8070069461C4805F009F83C201A
:1015C000009003208DF8040000208DF80700694684
:1015D0001C4804F0FDFF002011904FF440301290A1
:1015E000002013904FF47060149011A805F0AEFB2A
:1015F0004FF08070159001208DF858008DF859003B
:10160000002017901890199008208DF8680015A9EF
:1016100009484C3818E00000000400400010024067
:1016200000000140000C02400008004000000240A1
:10163000000C0040050040004C200140E006002066
:10164000106402400008024005F051FB042301220F
:101650000221FD4805F0D1FB042302220321FA48B0
:1016600005F0CBFB042303221946F74805F0C5FB20
:1016700004231A460521F44805F0BFFB0423052284
:101680000C21F14805F0B9FB042306220D21EE4898
:1016900005F0B3FB042307220E21EB4805F0ADFB58
:1016A000042308220F21E84805F0A7FB0121E648A2
:1016B00005F04EFC0121E44805F03FFC0121E24821
:1016C00005F05BFBE04805F0F4FB1BB000BD08B57E
:1016D0004FF4E06004F09EFE25208DF8000000200D
:1016E0008DF801008DF8020001208DF80300684696
:1016F00004F095FE08BD10B596B0044601211020F7
:1017000005F0F0F90121084605F0A8F90121880546
:1017100005F0A4F94FF4C060009002208DF8040099
:1017200000208DF806008DF8070002208DF80500D6
:101730006946C64804F04CFF07220921C34804F05B
:10174000D2FF07220A21C14804F0CDFF02940020F5
:10175000ADF80C00ADF80E00ADF81000ADF81400B7
:101760000C20ADF8120002A9B94806F0E9FD0121EC
:10177000B74806F06DFE4FF4A06004F04BFE3A202F
:101780008DF8180000208DF819008DF81A0001203E
:101790008DF81B0006A804F042FEAE4805F0CEFC12
:1017A0004FF00060079000200A90AB4809900A2093
:1017B0000B90A748001D089000200C904FF480600B
:1017C0000D9000200E900F904FF48070109040020A
:1017D0001190042012900320139000201490159073
:1017E00007A99C4805F04CFD01224021984806F0CD
:1017F000DCFE01221021974805F009FE01219548E1
:1018000005F078FD16B010BD10B596B00446012164
:10181000480505F023F90121480405F052F901219A
:10182000082005F01BF96020009002208DF80400CC
:1018300000208DF806008DF8070002208DF80500C5
:101840006946864804F0C4FE07220521834804F057
:101850004AFF07220621814804F045FF0294002038
:10186000ADF80C00ADF80E00ADF81000ADF81400A6
:101870000C20ADF8120002A9794806F061FD0121A3
:10188000774806F0E5FD4FF4A06004F0C3FD112099
:101890008DF8180000208DF819008DF81A0001202D
:1018A0008DF81B0006A804F0BAFD6E4805F046FC52
:1018B0004FF00060079040200A906B48099050203C
:1018C0000B906748001D089000200C904FF480603A
:1018D0000D9000200E900F904FF4807010904002F9
:1018E0001190042012900320139000201490159062
:1018F00007A95C4805F0C4FC01228021584806F085
:1019000054FE01228021564806F04FFE012210218C
:10191000544805F07CFD0121524805F0EBFC16B05F
:1019200010BD10B596B004460121880405F0C9F831
:101930000121082005F092F80121480505F08EF8F4
:101940004FF44070009002208DF8040000208DF8C4
:1019500006008DF8070002208DF8050069463F4813
:1019600004F036FE072208213C4804F0BCFE0722A2
:1019700009213A4804F0B7FE02940020ADF80C00AB
:10198000ADF80E00ADF81000ADF814000C20ADF865
:10199000120002A9354806F0D3FC0121334806F0B5
:1019A00057FD4FF4A06004F035FD0C208DF81800B1
:1019B00000208DF819008DF81A0001208DF81B0009
:1019C00006A804F02CFD2748783805F0B7FB4FF047
:1019D0000060079000200A90254809900A200B908B
:1019E0002248001D089000200C904FF480600D905C
:1019F00000200E900F904FF48070109040021190D4
:101A0000042012900320139000201490159007A931
:101A10001448783805F034FC01224021134806F0C0
:101A2000C4FD01224021114806F0BFFD0122102112
:101A30000C48783805F0EBFC01210A48783805F0AD
:101A400059FC16B010BD000000200140000002400B
:101A50000010014040640240F0060020000C0240EB
:101A600000440040A0600240040000200048004004
:101A70002C07002010B596B004460121C80405F0DB
:101A800020F80121084604F0E9FF0121480504F08F
:101A9000E5FF0320009002208DF8040000208DF85F
:101AA00006008DF8070002208DF805006946F7480A
:101AB00004F08EFD08220021F44804F014FE0822F0
:101AC0000121F24804F00FFE02940020ADF80C0052
:101AD000ADF80E00ADF81000ADF814000C20ADF814
:101AE000120002A9EA4806F02BFC0121E84806F0A2
:101AF000AFFC4FF4A06004F08DFC0D208DF81800B1
:101B000000208DF819008DF81A0001208DF81B00B7
:101B100006A804F084FCDF4805F010FB4FF00060DD
:101B2000079000200A90DC48099008200B90D848C4
:101B3000001D089000200C904FF480600D90002054
:101B40000E900F904FF4807010904002119004207E
:101B500012900320139000201490159007A9CD48EF
:101B600005F08EFB01224021C94806F01EFD01222E
:101B70004021C74806F019FD01221021C54805F093
:101B800046FC0121C34805F0B5FB16B010BD10B5E9
:101B900096B004460121480504F060FF01210805C4
:101BA00004F08FFF01210C2004F058FF0420009066
:101BB00002208DF8040000208DF806008DF8070043
:101BC00002208DF805006946B44804F001FD4FF489
:101BD0008050009002208DF8040000208DF806004F
:101BE0008DF8070002208DF805006946AC4804F026
:101BF000EFFC08220221A94804F075FD08220C21FF
:101C0000A74804F070FD4FF4A06004F003FC2F20FF
:101C10008DF8180005208DF819008DF81A000120A4
:101C20008DF81B0006A804F0FAFB02940020ADF822
:101C30000C00ADF80E00ADF81000ADF814000C204B
:101C4000ADF8120002A9974806F07AFB01219548E9
:101C500006F0FEFB8F48783005F070FA4FF0006018
:101C6000079040200A909048099096200B908D484C
:101C7000001D089000200C904FF480600D90002013
:101C80000E900F9010904FF40030119000201290A1
:101C90000320139000201490159007A97D487830F8
:101CA00005F0EEFA012280217E4806F07EFC01223A
:101CB00010217848783005F0AAFB0121754878306A
:101CC00005F018FB16B010BD10B596B00446012102
:101CD000202004F007FF0121042004F0BFFE0121B1
:101CE000880504F0BBFEC020009002208DF804009F
:101CF00000208DF806008DF8070002208DF8050001
:101D00006946674804F064FC08220621644804F030
:101D1000EAFC08220721624804F0E5FC0294002056
:101D2000ADF80C00ADF80E00ADF81000ADF81400E1
:101D30000C20ADF8120002A95C4806F001FB01215D
:101D40005A4806F085FB4FF4A06004F063FB39208D
:101D50008DF8180003208DF8190001208DF81A0065
:101D60008DF81B0006A804F05AFB514805F0E6F96F
:101D70004FF02060079000200A904E4809900620FE
:101D80000B904A48001D089000200C904FF4806092
:101D90000D9000200E900F904FF480701090400234
:101DA000119004201290032013900020149015909D
:101DB00007A93F4805F064FA012240213B4806F09C
:101DC000F4FB012210213A4805F021FB012138489B
:101DD00005F090FA16B010BD3648007811280BD1E6
:101DE000344840783349897840EA01203249086014
:101DF0000846008831490880704700B585B0012148
:101E0000082004F02BFE0121880304F06BFE002063
:101E10008DF8100001208DF813000C20039003A909
:101E20001E4804F0D5FB0221032006F057FC0420D5
:101E3000009000208DF8040010208DF8050001208E
:101E40008DF80600684605F05BFB08208DF8080059
:101E500000208DF809008DF80A0001208DF80B0094
:101E600002A804F0DCFA05B000BD70B504460D46CA
:101E7000012C27D12946124806F015FB00BF40214E
:101E80000F4806F0C0FB0028F9D044E000000240F3
:101E9000004C00404060024093010020000C0240D2
:101EA00000080240005000404A0600200014014093
:101EB0002864024099010020A0010020B800002001
:101EC00000100140032C0BD12946FE4806F0EBFA26
:101ED00000BF4021FB4806F096FB0028F9D01AE02D
:101EE000042C0BD12946F84806F0DDFA00BF40214A
:101EF000F54806F088FB0028F9D00CE0052C0AD143
:101F00002946F24806F0CFFA00BF4021EF4806F01C
:101F10007AFB0028F9D070BD0020ED494862ED49F8
:101F20000860ED490860ED49086070470020E84905
:101F30004862E84908604FF080414862E84908601B
:101F4000E8490860E8490860E3490860E349086037
:101F5000E6490860E6490860704700204FF080417C
:101F60004862DF49086070470020DE490860DE49AA
:101F70000860704710B50020DE490870002407E0B3
:101F800061210120FFF771FF3220FEF7F7FD641C8D
:101F9000022CF5D30120D74908707A20D649087061
:101FA00010BD10B50020D5490870002407E061215C
:101FB0000320FFF75AFF3220FEF7E0FD641C022CDD
:101FC000F5D30120CD4908707A20CD49087010BDA5
:101FD0002DE9F14FAEB0CBA02D9000202C908DF8C4
:101FE00088008DF860002E98122831D2DFE800F0CA
:101FF00009313A3B3C4344555C636A71797A7B7C96
:102000007DF80221C84804F045FB88B100224FF456
:102010000041C64804F05CFB4FF40041C34804F0A3
:1020200046FB044600222146C1A0FEF707FB0FE055
:102030000122D103BD4804F04BFB4FF40041BB48E3
:1020400004F035FB044600222146C1A0FEF7F6FA53
:10205000FAE10122C648B0F900004142C5A0FEF7EE
:10206000EDFAF1E1F0E1EFE1C448C1880422C4A037
:10207000FEF7E4FAE8E1E7E1C54890ED000AC5485B
:10208000D0ED000A30EE200ABDEEC00A10EE101AA4
:102090000622C1A0FEF7D2FAD6E10722C0480168A5
:1020A000C0A0FEF7CBFACFE10822C1480168C1A069
:1020B000FEF7C4FAC8E10922C1480168C1A0FEF7D1
:1020C000BDFAC1E10A22C3480168C3A0FEF7B6FA0F
:1020D000BAE1C34890F833100B22C2A0FEF7AEFA63
:1020E000B2E1B1E1B0E1AFE1AEE10121C14804F0FC
:1020F000D1FA4FF4005117908C4804F0CBFA044603
:102100000221BC4804F0C6FA05464FF480418748D6
:1021100004F0C0FA06460421B64804F0BBFA4FF4B6
:1021200000411690B34804F0B5FA07460821B148BB
:1021300004F0B0FA80464FF48041AE4804F0AAFAA9
:1021400081461021AB4804F0A5FA4FF400511590D8
:10215000A84804F09FFA82460821A74804F09AFA9A
:102160004FF480511490A34804F094FA1021139076
:10217000A14804F08FFA4FF4806112909D4804F05A
:1021800089FA834680219B4804F084FA4FF48071D9
:102190001190984804F07EFA10901798CDE90B65DD
:1021A000CDE90D401698CDE90798CDE90970DDE934
:1021B00013121598CDE9042A03910690DDE9111058
:1021C000CDE9001B02908DA2282122A8109B08F0C7
:1021D000C9FC102222A992A0FEF783FA34E1FFE79E
:1021E0008021514804F063FA044601214E4804F06E
:1021F0005EFA054640214C4804F059FA06464FF471
:1022000000417D4804F053FA07464FF48051854859
:1022100004F04DFA80464FF48061434804F047FAD9
:1022200081464FF400617F4804F041FA4FF40061A9
:1022300017903D4804F03BFA82464FF480616E48A7
:1022400004F035FA83464FF48051374804F02FFAF2
:102250004FF400611690684804F029FA4FF40051D9
:102260001590314804F023FA4FF4804114906248ED
:1022700004F01DFA4FF4804113902B4804F017FA34
:102280004FF480711290674804F011FA4FF4004146
:102290001190254804F00BFACDE90B76CDE90D54E9
:1022A00010901798CDE907A0CDE90998DDE915212F
:1022B0001498CDE9051BCDE90302DDE9111213984D
:1022C000B2E0000000480040004C004000500040D8
:1022D000000001406C00002024080040880000201D
:1022E000700000202404004074000020240C0040F2
:1022F0007800002091000020900000209300002032
:1023000092000020313131313131313131313131CF
:1023100031313131313131313131303131313131AE
:102320003131313100000000000402400008024059
:10233000524F424F5420322044414E47204348419F
:10234000592053414E2058414E483A202020000049
:10235000524F424F5420322044414E47204348417F
:10236000592053414E20444F3A20202000000000C5
:102370008C000020494D553A00000000E006002086
:1023800042545F42616E5F426F6E67203A200000E8
:10239000E00000204C0100204C75632042616E007B
:1023A000A800002042545F4E414E475F4841200044
:1023B000B400002042545F584F41592000000000F3
:1023C000B000002042545F42414E5F424F4E4720D2
:1023D00000000000A003002067745F7464203A00CE
:1023E000040000204D6F725F43616D526F74617421
:1023F00065203A0000100240000C0240256425646C
:102400002564256425642564256425642564256484
:102410002564256425642564256425640000000086
:10242000493A000000000240CDE900120290AFF2EC
:102430003402282122A8109B08F094FB112222A923
:10244000FDA0FEF74EF900BF00BF2FB0BDE8F08F32
:1024500010B50121FA4804F04DFF10BD01B5F9484F
:1024600000680099884203DD0020F649086004E016
:10247000F4480068401CF3490860F2480068FFF720
:10248000A7FD08BD10B5FEF78DFAEF490860FEF70D
:10249000D3FAEE490860FEF717FBED49086010BD5E
:1024A0002DE9F0412DED088B06460F46304608F029
:1024B000FAF841EC190B9FEDE71BB0EE490AF0EE7C
:1024C000690A09F07DF9B0EE408AF0EE608A51ECBD
:1024D000180B08F0F9F80446002C02DBA4F5E164BF
:1024E00001E004F5E164384608F0DDF841EC1B0B2F
:1024F0009FEDD81BB0EE4B0AF0EE6B0A09F060F9C5
:10250000B0EE409AF0EE609A304608F0CCF841EC1C
:102510001B0B9FEDD01BB0EE4B0AF0EE6B0A09F0DF
:102520004FF9B0EE40AAF0EE60AA53EC192B51EC33
:102530001A0B07F0D1FF41EC180B08F0C5F805465F
:102540002846211E01DB0A4600E04A42002801DB42
:10255000034600E043429A4205DA25464FF0FF3039
:10256000BE49086003E035460120BC4908602846A2
:10257000BDEC088BBDE8F0810146FA2901DDFA21A6
:1025800002E0042900DC0421C8B2704710B50446FB
:102590000B4624B9B2480078B249C87116E0B24877
:1025A00090ED000AB5EEC00AF1EE10FA07DD204604
:1025B000FFF7E2FFAB49C8710020887106E0604276
:1025C000FFF7DAFFA749C8710120887123B9A44831
:1025D0000078A449C87516E0A44890ED000AB5EE4D
:1025E000C00AF1EE10FA07DD1846FFF7C5FF9D4956
:1025F000C8750120887506E05842FFF7BDFF99496C
:10260000C8750020887522B9954800789549C87327
:1026100016E0974890ED000AB5EEC00AF1EE10FA08
:1026200007DD1046FFF7A8FF8E49C87300208873A6
:1026300006E05042FFF7A0FF8A49C8730120887363
:1026400010BD8C4B18608C4B19608C4B1A60704716
:10265000844AD071D075D07370478248C0790328FE
:1026600009DA8048C07D032805DA7E48C07B03284C
:1026700001DA012070470020FCE701208049086052
:1026800070478048006847F23051884201D00120ED
:1026900070470020FCE710B5FFF76CFC10BD7A48CE
:1026A000B0F9000040427047B5EEC00AF1EE10FAF2
:1026B00009D27648D0ED000A70EE600AFDEEE00A1D
:1026C00010EE900A70477148D0ED000A70EE200AB3
:1026D000FDEEE00A10EE900AF4E710B52DED088B40
:1026E000044624B99FED6A0ABDEC088B10BD002C8E
:1026F0001DDA6848006807F0D6FF41EC190B204648
:1027000007F0D1FF41EC1B0B9FED630B53EC102B3B
:1027100007F0E2FE41EC1A0B53EC192B07F054FFC3
:1027200041EC180B08F002F800EE100ADCE75948FB
:10273000006807F0B8FF41EC190B204607F0B3FF23
:1027400041EC1B0B9FED540B53EC102B07F023FEB9
:1027500041EC1A0B53EC192B07F036FF41EC180B28
:1027600007F0E4FF00EE100ABEE7F0EE400AF5EED7
:10277000C00AF1EE10FA02DBB0EE600A7047B1EE6B
:10278000600AFBE70146002901DB08467047484222
:10279000FCE701464248D0ED000AF1EE600A4148EC
:1027A000D0ED001A80EEA11A00EE901AF8EEE01AB1
:1027B0003B48D0ED000A41EE210AB0EE600AFDEE82
:1027C000C00A10EE900A7047F0EE401A9FED362ACC
:1027D000B0EE420AF5EEC01AF1EE10FA03D2B1EEF5
:1027E000612AF0EE421AF5EEC00AF1EE10FA03D2B9
:1027F000B1EE602AF0EE420AB5EEC01AF1EE10FA20
:1028000003D2B1EE412AB0EE421AF4EEC01AF1EE54
:1028100010FA01DDB0EE610AF4EEC00AF1EE10FA32
:1028200001DDB0EE600AB4EEC01AF1EE10FA01DD7F
:10283000B0EE410A704700004F55543A00000000C6
:10284000A0600240840000203004002034040020F6
:1028500038040020000000000020AC40900200205E
:10286000EC01002004000020540200205802002047
:102870005C020020780200207C0200208002002000
:10288000CC020020180200208C000020AC010020A7
:1028900000000000040200209A9999999999B93F83
:1028A000E4010020E80100206F12833AFE4800682E
:1028B0007047FE480068704710B52DED0A8BF0EEAA
:1028C000408A18EE900A07F01EFF41EC1C0B1FED2A
:1028D0001F1BB0EE4C0AF0EE6C0A08F071FFB0EE70
:1028E00040BAF0EE60BA1FED250B53EC102B51EC03
:1028F0001B0B07F050FD41EC1A0B1FED2A1BB0EE2D
:102900004A0AF0EE6A0A08F05BFFB0EE409AF0EE79
:10291000609A51EC190B07F009FF08EE100A9FEDC1
:10292000E40AB4EEC08AF1EE10FA06DD9FEDE10A8A
:10293000B4EEC08AF1EE10FA0BD3B5EEC08AF1EE18
:1029400010FA0ADB9FEDDC0AB4EEC08AF1EE10FA51
:1029500003D80120BDEC0A8B10BD9FEDD80AB4EE60
:10296000C08AF1EE10FA01D80220F3E79FEDD40AF5
:10297000B4EEC08AF1EE10FA01D80320EAE7042091
:10298000E8E710B52DED108B8AB0B0EE408AF0EE7E
:10299000608AB0EE419ACB4890ED000A28EE000A1A
:1029A000DFEDC90A80EE201A11EE104A204607F02A
:1029B000AAFECDE908019DED080B08F09DFEB0EEE2
:1029C00040FAF0EE60FA18EE900A07F09CFE41EC37
:1029D0001E0B53EC1F2B07F085FD41EC1C0B07F081
:1029E000A5FE0AEE900A19EE100A07F08CFECDE95A
:1029F0000601B44890ED000A28EE000ADFEDB20AA5
:102A000080EE201A11EE104A204607F07CFE41ECC1
:102A10001E0BB0EE4E0AF0EE6E0A09F07DFD8DED54
:102A2000040B18EE900A07F06EFE41EC1C0B9DEDB6
:102A3000040B53EC102B07F055FD41EC1F0B9DEDE3
:102A4000060B53EC102B07F0A6FCCDE908019DED19
:102A5000080B51EC100B07F069FE0BEE100A9FED0E
:102A60009B0A38EE400A9748D0ED000A20EE200A73
:102A7000DFED950A80EE201A11EE104A204607F08D
:102A800042FECDE908019DED080B08F035FEB0EEE1
:102A900040FAF0EE60FA18EE900A07F034FE41ECCE
:102AA0001E0B53EC1F2B07F01DFD41EC1C0B07F018
:102AB0003DFE0BEE900A19EE100A07F024FE41ECE1
:102AC0001F0B9FED820A38EE400A7E48D0ED000AC7
:102AD00020EE200ADFED7C0A80EE201A11EE104A6B
:102AE000204607F010FE41EC1E0BB0EE4E0AF0EE51
:102AF0006E0A09F011FD8DED040B18EE900A07F037
:102B000002FE41EC1C0B9DED040B53EC102B07F067
:102B1000E9FC53EC1F2BCDE906019DED060B51ECB2
:102B2000100B07F038FCCDE908019DED080B51ECC6
:102B3000100B07F0FBFD0DEE100A9FED650A38EE55
:102B4000400A6048D0ED000A20EE200ADFED5E0A60
:102B500080EE201A11EE104A204607F0D4FD41EC19
:102B60001E0BB0EE4E0AF0EE6E0A08F0C5FDB0EE98
:102B700040FAF0EE60FA18EE900A07F0C4FD41EC5E
:102B80001C0B53EC1F2B07F0ADFCCDE908019DEDAC
:102B9000080B51EC100B07F0C9FD09EE900A19EE75
:102BA000100A07F0B0FD9FED4A0A38EE400ACDE961
:102BB00006014448D0ED000A20EE200ADFED420A6B
:102BC00080EE201A11EE104A204607F09CFD41ECE1
:102BD0001E0BB0EE4E0AF0EE6E0A09F09DFCB0EE50
:102BE00040CAF0EE60CA18EE900A07F08CFD41EC86
:102BF0001F0B53EC1C2B07F075FCCDE904019DED78
:102C0000060B53EC102B9DED040B51EC100B07F051
:102C1000C2FBCDE908019DED080B51EC100B07F04C
:102C200085FD0AEE100AF0EE6A0AB0EE4B0A08F0D3
:102C30000BFCDFED250A20EE200A2248D0ED000A29
:102C400080EE201A234880ED001A234801682148AD
:102C500090ED000ABDEEC00A10EE100AFFF720FC4E
:102C600000EE100AB8EEC00A1A4880ED000A1B48B0
:102C700090ED000AB8EEC00A194880ED000A174826
:102C8000006807F010FDCDE906011BEE100A07F001
:102C90003AFD41EC1E0B9FED131BB0EE4E0AF0EE19
:102CA0006E0A08F011FE21E0040200203402002028
:102CB00000E04445000061450000E14300C0A84435
:102CC00000A00C45F80100200000E14400009644FB
:102CD0000000164560020020300400209002002011
:102CE000540200200000000000000040B0EE40FA56
:102CF000F0EE60FA1AEE900A07F005FD41EC1E0BAB
:102D00001FED081BB0EE4E0AF0EE6E0A08F0DCFD77
:102D10008DED000B53EC1F2B9DED000B51EC100BB8
:102D200007F039FBCDE902019DED020B09F058FCDB
:102D3000B0EE40CAF0EE60CA9FEDF70B53EC102BDB
:102D400051EC1C0B07F040FCCDE904019DED060B96
:102D500053EC102B9DED040B51EC100B07F0C2FB54
:102D6000CDE908019DED080B51EC100B07F0DEFCDE
:102D7000EB490860F0EE6B0AB0EE4D0A08F064FB18
:102D80005FED2F0A20EE200AE648D0ED000A80EE23
:102D9000201AE54880ED001AE4480168E24890ED09
:102DA000000ABDEEC00A10EE100AFFF779FB00EE34
:102DB000100AB8EEC00ADC4880ED000ADC4890ED4D
:102DC000000AB8EEC00ADB4880ED000AD848006867
:102DD00007F069FCCDE906011DEE100A07F093FC2F
:102DE00041EC1E0B1FED411BB0EE4E0AF0EE6E0AD9
:102DF00008F06AFD8DED020B1BEE900A07F083FCD4
:102E000041EC1E0B1FED491BB0EE4E0AF0EE6E0AB0
:102E100008F05AFD8DED000B9DED020B53EC102BCD
:102E20009DED000B51EC100B07F0B5FA41EC1C0BBB
:102E3000B0EE4C0AF0EE6C0A09F0D2FBB0EE40FAAC
:102E4000F0EE60FA9FEDB40B53EC102B51EC1F0B1E
:102E500007F0BAFBCDE904019DED060B53EC102BF6
:102E60009DED040B51EC100B07F03CFBCDE9080184
:102E70009DED080B51EC100B07F058FCAE490860B3
:102E8000F0EE690AB0EE4A0A08F0DEFA5FED720A67
:102E900020EE200AA348D0ED000A80EE201AA748B1
:102EA00080ED001AA6480168A44890ED000ABDEE26
:102EB000C00A10EE100AFFF7F3FA00EE100AB8EE9F
:102EC000C00A9E4880ED000A994890ED000AB8EECD
:102ED000C00A9C4880ED000A9548006807F0E3FBB3
:102EE00041EC1F0B1AEE100A07F00DFC41EC1E0B13
:102EF0001FED841BB0EE4E0AF0EE6E0A08F0E4FC03
:102F00008DED000B19EE900A07F0FDFB41EC1E0B56
:102F10001FED8C1BB0EE4E0AF0EE6E0A08F0D4FCEA
:102F2000B0EE40CAF0EE60CA9DED000B53EC102BE2
:102F300051EC1C0B07F02FFACDE902019DED020BBD
:102F400009F04EFB8DED040B9FED730B53EC102B32
:102F50009DED040B51EC100B07F036FB53EC1F2BCF
:102F6000CDE906019DED060B51EC100B07F0BAFA06
:102F7000CDE908019DED080B51EC100B07F0D6FBD5
:102F8000714908601AEE100A07F0BDFB41EC1F0BF7
:102F90001FEDAC1BB0EE4F0AF0EE6F0A08F094FC88
:102FA0008DED080B19EE900A07F0ADFB41EC1F0BFD
:102FB0001FEDB41BB0EE4F0AF0EE6F0A08F084FC70
:102FC0008DED060B9DED080B53EC102B9DED060BC4
:102FD00051EC100B07F0DFF941EC1C0BB0EE4C0A82
:102FE000F0EE6C0A09F0FCFAB0EE40EAF0EE60EAAE
:102FF00051EC1E0B07F068FB544908604E4890EDF9
:10300000000ABDEEC00A524880ED000A514890ED1A
:10301000000AB8EEC00AFFF74FFC4F4908600AB03B
:10302000BDEC108B10BDF0EE400AB0EE600ABAEEB7
:103030000E1AF4EEC10AF1EE10FA04D2BAEE0E1A2C
:10304000B0EE410A0DE0404890ED001AF2EE0E1A83
:10305000B4EEE11AF1EE10FA03DDB2EE0E1AB0EEA4
:10306000410A70473848D0ED000AF5EEC00AF1EE8B
:1030700010FA06DDD0ED000A70EEC00AC0ED000ABD
:1030800006E03148D0ED000A70EE800AC0ED000A7B
:103090002D48D0ED000ABAEE0E1AF4EEC10AF1EE98
:1030A00010FA04D2FAEE0E0AC0ED000A0DE026482E
:1030B000D0ED000AB2EE0E1AF4EEC10AF1EE10FAEB
:1030C00003DDF2EE0E0AC0ED000A70471E48D0ED97
:1030D000000AF5EEC00AF1EE10FA06DDD0ED000AA6
:1030E00070EE800AC0ED000A06E01748D0ED000A35
:1030F00070EEC00AC0ED000A1348D0ED000ABAEE27
:103100000E1AF4EEC10AF1EE10FA27D2FAEE0E0A08
:10311000C0ED000A30E00000000000000000344074
:1031200048020020F801002064020020340400203E
:1031300090020020580200204C020020680200206B
:10314000380400205C020020500200206C020020A5
:10315000700200201802002074020020FE48D0ED0A
:10316000000AB2EE0E1AF4EEC10AF1EE10FA03DD17
:10317000F2EE0E0AC0ED000A7047F848D0ED000AE2
:10318000F5EEC00AF1EE10FA06DDD0ED000A70EEA1
:10319000C00AC0ED000A06E0F048D0ED000A70EE6B
:1031A000800AC0ED000AED48D0ED000ABAEE0E1A12
:1031B000F4EEC10AF1EE10FA04D2FAEE0E0AC0EDF6
:1031C000000A0DE0E548D0ED000AB2EE0E1AF4EE6A
:1031D000C10AF1EE10FA03DDF2EE0E0AC0ED000AAC
:1031E0007047DE48D0ED000AF5EEC00AF1EE10FAA5
:1031F00006DDD0ED000A70EE800AC0ED000A06E0A0
:10320000D648D0ED000A70EEC00AC0ED000AD348DF
:10321000D0ED000ABAEE0E1AF4EEC10AF1EE10FA81
:1032200004D2FAEE0E0AC0ED000A0DE0CB48D0ED54
:10323000000AB2EE0E1AF4EEC10AF1EE10FA03DD46
:10324000F2EE0E0AC0ED000A7047C548D0ED000A44
:10325000F5EEC00AF1EE10FA06DDD0ED000A70EED0
:10326000C00AC0ED000A06E0BD48D0ED000A70EECD
:10327000800AC0ED000ABA48D0ED000ABAEE0E1A74
:10328000F4EEC10AF1EE10FA04D2FAEE0E0AC0ED25
:10329000000A0DE0B248D0ED000AB2EE0E1AF4EECC
:1032A000C10AF1EE10FA03DDF2EE0E0AC0ED000ADB
:1032B0007047AB48D0ED000AF5EEC00AF1EE10FA07
:1032C00006DDD0ED000A70EE800AC0ED000A06E0CF
:1032D000A348D0ED000A70EEC00AC0ED000AA04875
:1032E000D0ED000ABAEE0E1AF4EEC10AF1EE10FAB1
:1032F00004D2FAEE0E0AC0ED000A0DE09848D0EDB7
:10330000000AB2EE0E1AF4EEC10AF1EE10FA03DD75
:10331000F2EE0E0AC0ED000A704710B52DED068BD7
:10332000B0EE408A00208F49086018EE100A07F0BE
:10333000EAF941EC1A0B9FED8C0B53EC102B07F0C4
:10334000D1F841EC190B07F0F1F908EE900A884822
:10335000006847F2305188420FD1B2EE040A28EEDD
:10336000000A844880ED000A90ED001ADFED820A21
:103370009FED810AFFF705FB24E080480068804943
:103380000968401A7A490968081A00EE100AB8EE6E
:10339000C00A7C4880ED000A7B4890ED000AF2EEFE
:1033A000080A20EE200A734880ED000A90ED001A0A
:1033B000764890ED000AF8EEC00A724890ED000AD7
:1033C000FFF7DFFAB5EEC08AF1EE10FA3AD068489E
:1033D000006847F23051884234D0654890ED000AC9
:1033E000B8EEC00AFFF768FA012806D002280DD00F
:1033F000032814D0042824D11AE0B0EE680AFFF79D
:10340000BCFEB0EE680AFFF761FE1AE0B0EE680A93
:10341000FFF74FFFB0EE680AFFF7AFFE11E0B0EE26
:10342000680AFFF7DEFEB0EE680AFFF71BFE08E051
:10343000B0EE680AFFF709FFB0EE680AFFF746FE34
:1034400000BF00BF444890ED001A4448D0ED000A88
:10345000434890ED000AFFF7B7F94D48D0ED000A58
:10346000F8EEE00A80EE801ABDEEC10A494880ED10
:10347000000A4948006847490968884203DD454811
:10348000006845490860012044490860BDEC068B8E
:1034900010BD0121334A116000213C4A11604049AE
:1034A0000860D8B900213C4A11609FED330A3D49BC
:1034B00081ED000A47F230512D4A11603A4A1160FD
:1034C0009FED2D0A304981ED000A0021374A116035
:1034D000374A1160374A1160374A1160704710B59A
:1034E000294890ED000AB5EEC00AF1EE10FA05D1B8
:1034F0002E48006810B92E48006890B19FED1E0A52
:10350000214880ED000A0020284908602849086009
:103510001A4800681A4908601B4890ED000AFFF736
:10352000FCFE10BD2548C0ED000A254880ED000ACC
:10353000704770B52DED028B05460C46B0EE408A03
:103540000B480068A84242D110480068A0423ED112
:10355000144890ED000A35E0500200204C02002093
:1035600048020020D8020020333333333333D33FB3
:1035700018020020B4020020000000003C020020DD
:1035800024020020A40100202C02002008020020B8
:10359000A80100200C02002004020020FC010020F1
:1035A00010020020300200201C0200200002002037
:1035B0002002002034020020CC020020E401002080
:1035C000E8010020B4EE480AF1EE10FA18D0F748EE
:1035D0000460F748006810B90520F5490860F5480F
:1035E0000068F5490860F54880ED008AF4480560F8
:1035F0000020F4490860F44890ED000AFFF78DFEC2
:10360000BDEC028B70BD70B52DED028B0446B0EEA3
:10361000408A0D46ED480068A0420BD1EA4890ED83
:10362000000AB4EE480AF1EE10FA03D1E848006847
:10363000A84237D0E248006847F23051884222D190
:103640002820DA4908600720D949086047F230503D
:10365000844218DA0120DF490860B5EEC08AF1EE35
:1036600010FA03DDD3480068A04208DCB5EEC08A3A
:10367000F1EE10FA07D2CF480068A04203DAB1EEAB
:10368000480AB0EE408AD1480460D1480560CE486F
:1036900080ED008A0020CB490860CB4890ED000AFD
:1036A000FFF73BFEBDEC028B70BD10B52DED028B1C
:1036B000B0EE408A04462146B0EE480A47F2305048
:1036C000FFF7A1FFBDEC028B10BD0120C2490860CD
:1036D0004FF46170C1490860C1490860C149086080
:1036E000B5EEC00AF1EE10FA07DD0120BE4988717F
:1036F000002088750120887306E00020BA4988718F
:103700000120887500208873FDEEC00A10EE900A33
:10371000002801DB014600E04142B34AD171FDEED1
:10372000C00A10EE900A002801DB014600E0414289
:10373000AD4AD175FDEEC00A10EE900A002801DBFB
:10374000014600E04142A84AD173704770B5044673
:103750000D461FED770A29462046FFF7EAFE70BDA9
:1037600010B52DED088BF0EE408A0446B0EE608A6D
:10377000B0EE419A9D4890ED000AB8EEC00AB4EE52
:10378000680AF1EE10FA0DD188480068A04209D10C
:103790008E4890ED000AB8EEC00AB4EE480AF1EE89
:1037A00010FA5ED0BDEEE80A904880ED000A81492B
:1037B00091ED000AB8EEC00A38EEC00ABDEEC00AAC
:1037C00010EE100A1FED940A2146FFF7B2FE794869
:1037D000D0ED000AF8EEE00A78EE600AB0EE600A7A
:1037E000FEF7C3FFDFED820AB4EEE00AF1EE10FA55
:1037F00014DD704890ED000AB8EEC00AB4EEC08A3D
:10380000F1EE10FA02DDB0EE490A01E0B1EE490A2C
:1038100010EE101A084606F076FF13E0654890EDAA
:10382000000AB8EEC00A38EE400A10EE101A084638
:1038300006F069FF41EC1B0B9FED6E0B53EC102B58
:1038400006F050FE41EC1A0B06F070FF09EE900AEC
:103850000021B0EE690AFDEEC80A10EE900AFFF7EB
:10386000D2FEBDEC088B10BD10B55A480068012887
:103870003DDD564909684F4A1268881AFEF782FFF3
:1038800005280CDA534801680068401C514A106052
:10389000B1F5FA7F2BDD0020FFF7FBFD10BD4D4891
:1038A0000068FA2808DD05204049086040490860A2
:1038B000FB204849086004E005203C4908603C4979
:1038C00008603C48006841490968884205DDBFEE50
:1038D000000A3D4880ED000A04E0B7EE000A3A48CD
:1038E00080ED000A384890ED000AFFF716FD00BF92
:1038F000D4E710B52DED028B304890ED000AB5EEFF
:10390000C00AF1EE10FA0BD12948006840B12F48E7
:10391000006847F23051884202DA3848006810B136
:10392000BDEC028B10BD24490968224A1268881A2E
:10393000FEF7D3FEB0EE408AFFF7EFFC00BFEFE7E3
:1039400000B524480068022815DA1FEDF50A1B4867
:1039500080ED000A1FEDF80A1B4880ED000A0020E8
:103960001B49086047F23050154908601F4908603C
:1039700000201649086013480068401C114908607F
:103980001F490968884204DA1E480068FEF760FE95
:103990003FE01B4800680B4908601B48006820B1E5
:1039A00018480068FEF754FE33E02FE008020020BC
:1039B000040200203C0200202402002030020020EB
:1039C00018020020140200202C02002020020020F7
:1039D0000002002034020020D402002078020020DF
:1039E0007C02002080020020040000201C02002035
:1039F00000004842FCA9F1D24D62403FD8020020AD
:103A0000F0010020EC010020CC0200200020FEF795
:103A10001FFE00BDFE4A1268521CFD4B1A60824216
:103A200007DDFC4A12680A44FA4B1A600022F84B80
:103A30001A60704770B5FEF732FEF7490860FFF76D
:103A400013FFF6480068002821DDF2480068F349BA
:103A50000968884229D0EF480068F049096888421F
:103A60000EDAEC480068EE49096888421DDAE94838
:103A70000068FEF78EFE04460121FFF7CBFF14E03D
:103A80004FF0FF31E7480068FFF7C4FF0DE0E14861
:103A90000068002806DD4FF0FF31E3480068FFF7BB
:103AA000B9FF02E0FFF74CFF70BDE0480068DA495B
:103AB0000968884205D0FFF71CFFD7480068DB493A
:103AC0000860DB480068E8B3D248D0ED000AF8EEA1
:103AD000E00AD84890ED001A60EE810AB0EE600A64
:103AE000FEF7E2FD0446CB48D0ED000AF8EEE00A0E
:103AF000D14890ED001A60EE810AB0EE600AFEF740
:103B0000D3FD0546C348D0ED000AF8EEE00ACB48E5
:103B100090ED001A60EE810AB0EE600AFEF7C4FD77
:103B2000064622462946FEF731FDC54890ED000ABB
:103B3000BDEEC00A10EE102AC24890ED000ABDEE9C
:103B4000C00A00E00AE010EE101ABF4890ED000A2B
:103B5000BDEEC00A10EE100AFEF773FD00BFA3E72A
:103B6000DFEDBA2AB0EE620ADFEDB92AF0EE620AA2
:103B7000DFEDB82AB0EE621AF1EE002AF0EE621A1A
:103B8000F7EE002AB0EE622AB348D0ED002AF8EE34
:103B9000E22A72EEC12A82EEA13AF0EE602A43EEEA
:103BA000022AB0EE620A0068B0F5DC7F0BDBFDEEA6
:103BB000C02AF8EEE22AB0EE620AF2EE022A70EEB5
:103BC000222AB0EE620AA4480068B0F5FF7F0BDB42
:103BD000FDEEC02AF8EEE22AB0EE620AF2EE042A06
:103BE00070EE222AB0EE620A9C4880ED000A70470F
:103BF00030B59FB005463C22994910A806F07AFBE3
:103C00003C2297493C3101A806F074FB002426E0D1
:103C100010A850F82400A84220DC10A9601C51F81C
:103C20002000A8421ADB01A9601C51F8200051F8BD
:103C30002410401A10A951F82410691A484310AAF8
:103C4000611C52F8211052F82420891A90FBF1F0DF
:103C500001A951F8241008441FB030BD641C0E2C7B
:103C6000D6DB6320F8E77F4909687F4A1268881825
:103C700000EBD07149107D4A1160704710B57C4847
:103C8000006840437B4909687A4A126801FB0200D8
:103C9000410079480068784A126800FB1214E11765
:103CA00004EB9171881006F0FEFC744A03C210BD4B
:103CB00010B52DED108B84B06D4800686D49096812
:103CC00008446D490968441804EBD471481006F0A3
:103CD000EAFC6B4A03C26848006806F0E4FC41EC69
:103CE000180B6548006806F0DEFC41EC1C0B6448CC
:103CF00090ED000B53EC102B51EC1C0B06F0EFFB7E
:103D000041EC1A0B5B48006806F0CDFC41EC1E0B41
:103D10005B4890ED000B53EC102B51EC1E0B06F0A2
:103D2000DEFB41EC1C0B5248006806F0BCFC41EC89
:103D30001F0B534890ED000B53EC102B51EC1F0B55
:103D400006F0CDFB41EC1E0B4D4890ED000B53EC03
:103D5000102B51EC1E0B06F0C5FB41EC1D0B53EC78
:103D60001C2B06F0BFFB41EC1B0B53EC1A2B06F08F
:103D7000B9FB41EC190BB0EE490AF0EE690A08F004
:103D80002FFC8DED000B9FED3F0B53EC102B9DEDA9
:103D9000000B51EC100B06F0A5FB53EC182BCDE9F2
:103DA00002019DED020B51EC100B06F00DFC374AA1
:103DB00003C2324890ED000B53EC102B334890EDCA
:103DC000000B51EC100B06F0FFFB314A03C23048E8
:103DD00090ED000B06F020FF2E4880ED000B9FEDCC
:103DE0002E0B53EC102B90ED000B51EC100B06F04A
:103DF00079FB41EC180B9FED2A0B53EC102B06F0CE
:103E0000E3FB294A03C204B0BDEC108B10BD0000D7
:103E100014020020040200203C02002008020020BE
:103E20000C0200204402002010020020400200206A
:103E3000FC010020500200204C020020480200201B
:103E400068020020640200206002002000000000E0
:103E50000000D4420000DD4344030020E0000020C5
:103E6000A8D10008F4030020F80300202803002054
:103E7000C4030020C8030020B4030020680300200E
:103E800058030020000000000000004060030020F4
:103E900078030020700300200000000000806640CE
:103EA000182D4454FB2109408003002010B508213F
:103EB000FE4802F0EFFB012800D100BF10BD10B595
:103EC0000821FA4802F0E6FB012804D1F84800680E
:103ED000F849086003E0F7480068F549086010BD3C
:103EE0005FED260AB0EE600A00EE900AB8EEE01A26
:103EF000DFEDF11AC1EE210A9FEDF01A60EE810AA2
:103F0000B0EE600ADFEDEE0AB4EEE00AF1EE10FA70
:103F100004DDDFEDEB0AB0EE600A0AE0DFEDE90A4E
:103F2000B4EEE00AF1EE10FA03D2DFEDE60AB0EEED
:103F3000600AFDEEC00AE449C1ED000AE34981EDE3
:103F4000000A704700B50246002340F21320824267
:103F500005DB40F27620824201DC012338E0B2F535
:103F6000027F05DB40F21920824201DC02232FE0B0
:103F7000B2F5FC7F04DDB2F5FF7F01DC032327E00F
:103F8000B2F5017F05DD40F20A20824201DC042304
:103F90001EE040F21A20824204DBB2F5077F01DA0C
:103FA000052315E040F22720824204DBB2F50C7FA6
:103FB00001DC06230CE0B2F50C7F05DD40F23A206F
:103FC000824201DC072303E01046FFF789FF00BDB2
:103FD000012B05D19FEDBE0ABC4880ED000A00E030
:103FE00000BF00BF00BFF2E7BA4801680068401C8C
:103FF000B84A1060642907D2B748C089B749096830
:104000000844B64908600BE0B44800686421B0FB7E
:10401000F1F0B34908600020AE490860AF4908607C
:10402000B04801680068401CAE4A1060642907D29D
:10403000A9488089AC4909680844AB4908600BE08D
:10404000A94800686421B0FBF1F0A849086000208D
:10405000A4490860A4490860A54801680068401C9C
:10406000A34A1060642907D29B480089A1490968C6
:104070000844A04908600BE09E4800686421B0FB3A
:10408000F1F09D490860002099490860994908604D
:104090009A4801680068401C984A1060782907D245
:1040A0008D484089964909680844954908600BE0A5
:1040B000934800687821B0FBF1F07D49086000204A
:1040C0008E4908608E4908608E4801680068401C6F
:1040D0008C4A1060322907D27F4800888A490968D3
:1040E0000844894908600BE0874800683221B0FB2A
:1040F000F1F0864908600020824908608249086022
:10410000834801680068401C814A1060322907D248
:10411000714840887F49096808447E4908600BE07F
:104120007C4800683221B0FBF1F07B490860002038
:104130007749086077490860784801680068401C42
:10414000764A1060322907D26348C08874490968EA
:104150000844734908600BE0714800683221B0FBE5
:10416000F1F07049086000206C4908606C490860F3
:10417000704701B56C48407800F0020068B16A48A9
:10418000407800F0200040B19DF80000674981F8B8
:104190002F00012081F82E0016E06348407800F0DF
:1041A000020068B16048407800F0040040B19DF81A
:1041B00000005E4981F82F00002081F82E0003E006
:1041C00002205A4981F82F0008BD10B50821374850
:1041D00002F060FA38B94620544981F8230081F88A
:1041E000270081F82B000020504981F8220001208F
:1041F00081F82600002081F82A0043F6982005F077
:1042000049FC0122D1024A4802F062FA4FF4FA5006
:1042100005F040FC0020454981F8230081F8270083
:1042200081F82B00012081F82200002081F826006F
:10423000012081F82A000022C1023D4802F048FA1C
:1042400010BD10B50821194802F024FA70B91F48B2
:1042500090ED000ABCEEC00A10EE100AC0B233495D
:1042600081F82B0081F8270081F8230000202F49D6
:1042700081F82200012081F82600002081F82A0020
:1042800043F2C82005F006FC0122D102284802F0C2
:104290001FFA42F2107005F0FDFB0020234981F85F
:1042A0002B0081F8270081F8230043E00010024032
:1042B000A00000201004002000801D440000BE4229
:1042C000000016430000484208040020D4000020EB
:1042D0000000924248040020E00600204C04002028
:1042E0009800002050040020540400209C0000206E
:1042F000580400205C040020A4000020600400207A
:1043000064040020680400206C040020A800002041
:104310007004002074040020B40000207804002001
:104320007C040020B00000202C07002004000020A6
:104330000004024000224FF40061FE4802F0C8F978
:1043400000224FF48041FC4802F0C2F910BDFB4846
:1043500090ED000ABDEEC00AF94880ED000A7047F2
:1043600010B501225103F34802F0B2F94FF4AF70D7
:10437000F3490860002410E006E0FCF797FA00B16A
:1043800009E0012005F086FB4FF48071ED4802F052
:1043900081F90028F1D000BF641C642CECDB41F6ED
:1043A000583005F077FB0122D102E34802F090F982
:1043B0004FF4FA7005F06EFB00224FF40061DD4807
:1043C00002F086F900240FE006E0FCF76FFA00B176
:1043D00008E0012005F05EFB0121DA4802F05AF9FD
:1043E0000028F2D000BF641C642CEDDB00240FE039
:1043F00006E0FCF75BFA00B108E0012005F04AFB9B
:104400000121D04802F046F90128F2D000BF641C17
:10441000642CEDDB4FF42F7005F03CFB00224FF4D1
:104420000061C54802F054F900240FE006E0FCF7F3
:104430003DFA00B108E0012005F02CFB0121C14844
:1044400002F028F90028F2D000BF641C642CEDDBD8
:1044500040F2DC5005F01EFB0122D102B54802F00B
:1044600037F94FF47A7005F015FB00224FF4005134
:10447000B04802F02DF900240FE006E0FCF716FA30
:1044800000B108E0012005F005FB8021AD4802F0F5
:1044900001F90028F2D000BF641C642CEDDB10BDD4
:1044A00010B5A948006850B90122D102A14802F014
:1044B0000FF900224FF400519E4802F009F9A2487A
:1044C0000068012810D1012241039A4802F000F946
:1044D0004FF480719B4802F0DDF828B100224FF4C0
:1044E0000061944802F0F4F89748006802280DD162
:1044F000012281028F4802F0EBF800224FF40051B4
:104500008C4802F0E5F800208F4908608E4800686A
:1045100003280ED108218B4802F0BCF820B90122F3
:104520005103844802F0D4F80122D102814802F0FC
:10453000CFF810BD10B58548407800F0020098B95A
:104540008248407800F0040070B102E01E2005F0BF
:10455000A1FA7E48407800F004000028F6D17A489D
:104560000068401C7849086010BD10B53E207849AD
:1045700081F8230081F8270081F82B00012081F8C1
:104580002200002081F82600012081F82A0040F254
:10459000DC5005F07FFA10BD01B56C48407800F0A2
:1045A000010068B16948407800F0100040B19DF802
:1045B0000000674981F83300012081F8320016E0DD
:1045C0006248407800F0010068B16048407800F02F
:1045D000080040B19DF800005D4981F833000020DB
:1045E00081F8320003E00220594981F8330008BD08
:1045F00001B55648407800F0200040B19DF8000019
:10460000534981F83700002081F8360017E04F4801
:10461000407800F0040070B110214A4802F03AF8E6
:10462000012808D19DF80000494981F83700012090
:1046300081F8360003E00220454981F8370008BDC3
:1046400010B54248407800F00200C8B13F484078B9
:1046500000F02000A0B101203E49086000203E4942
:1046600008604FF4B3703649086000203B49087079
:10467000FE20374981F83700012081F8360043E0F9
:104680003248407800F0020050B33048407800F0E3
:10469000040028B34FF4C1703149086006E0FCF70C
:1046A00005F900B10EE0012005F0F4F92D49096883
:1046B0002B4A1268881A002801DB014600E04142BB
:1046C0000229ECDC00BF40F2BB301D49086000202D
:1046D000224908701E4981F8370081F8360013E03E
:1046E00017480068B0F56C7F0EDD1B48006858B9AC
:1046F0001D48006840F2B131884205DD00201549AF
:10470000086001201449086010BD0D480068B0F52C
:10471000957F03DA4FF495700949086008480068EE
:1047200040F21241884202DD0846054908600E4900
:1047300009681BE000040240000C0240D800002081
:104740003C01002000100240140300202C07002030
:1047500004000020400100204401002088030020C4
:1047600030010020B4000020A8000020FE4A12689A
:10477000881A002801DB014600E0414205296BDD73
:10478000FA490978002967D1F9490968F64A126897
:10479000881A002801DB014600E0414201EB41019B
:1047A000F44A1160F2480068EF49096888423BDD2D
:1047B0000120F14981F82E00ED480068B0F5FA7F3C
:1047C00020DBEE480068B42817DAED49087809784C
:1047D000491CEB4A1170C11700EB5171C910A0EBD5
:1047E000C10151B9E5480068401CE4490860084629
:1047F0000068B42801DBB4200860E0480068DD49A7
:10480000086023E00020DD490860DA480068C82815
:1048100002DDC820D7490860D6480068502815DA5C
:104820005020D449086011E00020D34981F82E00BF
:10483000D0480068502802DD5020CE490860CD489D
:1048400000680A2802DA0A20CA490860C9480078C4
:10485000C94981F82F0006E00520C74981F82F00DB
:104860000120C2490870C748006818B90020C24931
:1048700081F82F007047C4480068C449096888421D
:1048800003DAC2480068C0490860BF480068C049F0
:104890000968884203DDBE480068BB490860BD491D
:1048A0000968B94A1268881A002801DB014600E04D
:1048B000414204292FDDB7480068B349096888429E
:1048C00004DD0020AC4981F8320003E00120AA4950
:1048D00081F83200AF490968AB4A1268881A00288B
:1048E00001DB014600E04142C900A24A11601046C6
:1048F0000068FA2802DDFA20114608609D48006829
:10490000322802DA32209B4908609A4800789A4996
:1049100081F8330003E00220974981F833007047A3
:1049200010B59D48407800F00200A0B19A48407848
:1049300000F0040078B18C48006840F212418842CF
:1049400009DA89480068401C874908604FF47A708A
:1049500005F0A0F817E09048407800F0020090B110
:104960008D48407800F0200068B17F480068B0F5BD
:10497000957F08DD7C480068401E7B4908604FF445
:104980007A7005F087F810BD84480068844909688A
:10499000884203DA82480068804908607F480068DE
:1049A00080490968884203DD7E4800687B490860C9
:1049B0007D490968794A1268881A002801DB014696
:1049C00000E0414202293BDD77490968734A1268D9
:1049D000881A002801DB014600E0414201EB410159
:1049E000644A1160704800686C490968884211DDAA
:1049F00000206149887610460068642802DD642042
:104A0000114608605B480068322814DA32205949A0
:104A1000086010E001205849887656480068FD2853
:104A200002DDFD205349086052480068FA2802DA86
:104A3000FA20504908604F4800784F49C87602E094
:104A400000204D49C87670475348407800F0200058
:104A500020B14FF448705149086008E04E48407852
:104A600000F0040018B14FF4FB704C490860704727
:104A70004948407800F0020020B34748407800F0F1
:104A80000800F8B14048006841490968884219DACD
:104A90000120464908604048407800F0010020B1FC
:104AA0004620354981F8330003E01420324981F86B
:104AB00033000120304981F832003648006832491D
:104AC00008602CE03448407800F0020020B33248FF
:104AD000407800F01000F8B12B4800682B490968B5
:104AE000884219DD0120314908602B48407800F0E8
:104AF000010020B14620204981F8330003E0142052
:104B00001D4981F8330000201B4981F832002148FB
:104B100000681D49086002E00020244908607047D1
:104B200010B5044600219FED220A2046FEF76BFDDA
:104B300010BD10B508211F4801F0ACFD002867D159
:104B400009480068B0F5617F62DB9B200A4981F863
:104B5000230081F8270081F82B00002081F8220033
:104B6000012081F8260027E03C0100208803002076
:104B7000A80000201C04002004000020DC0300200A
:104B8000800400204001002030010020340100207A
:104B900038010020B40000202C0700206001002014
:104BA0006401002068010020B0000020880100207E
:104BB000CDCC4C3E00100240002081F82A0042F289
:104BC000107004F067FF0122D102FE4801F080FD61
:104BD00042F2107004F05EFF0020FB4981F82300D0
:104BE00081F8270081F82B0081F82200012081F84C
:104BF0002600002081F82A0000224FF40061F148CD
:104C000001F066FD00224FF40051EE4801F060FD16
:104C100010BD10B5ED48007800F0800048B102E00A
:104C20001E2004F037FFE948007800F080000028DB
:104C3000F6D1E7480068401CE549086010BDE3482C
:104C4000407800F0020060B9E048407800F01000C1
:104C500038B1E0480068E0490860E0480068E04991
:104C600008607047DF480068012818D1DB490968EF
:104C7000DD4A1268881A002801DB014600E0414243
:104C8000DA4A116010460068032808DDD84890ED24
:104C9000000AF7EE000A30EE600A80ED000A704765
:104CA00001B5CA48407800F0020068B1C7484078B2
:104CB00000F0080040B19DF80000C34981F83300BE
:104CC000012081F8320016E0C048407800F0020070
:104CD00068B1BE48407800F0100040B19DF8000077
:104CE000B94981F83300002081F8320003E0002048
:104CF000B54981F8330008BD10B50D20B24981F8DF
:104D00002B0081F8270081F82300012081F8220080
:104D1000002081F82600012081F82A000020B549F2
:104D2000086015E008E0FFF7A3FEFBF7BFFD00B148
:104D300008E0012004F0AEFE0821AF4801F0AAFC13
:104D40000028F0D000BFAB480068401CA9490860AB
:104D5000A84800686428E5DB42F6E06004F09AFEAB
:104D60000020994981F8230081F8270081F82B0061
:104D7000012081F82200002081F82600012081F81E
:104D80002A00FE2081F83700012081F836009B4977
:104D9000086010BD10B50D208B4981F82B0081F8FB
:104DA000270081F82300012081F82200002081F8EB
:104DB0002600012081F82A0042F2283004F06AFE21
:104DC000002411E008E0FFF753FEFBF76FFD00B190
:104DD00008E0012004F05EFE0821874801F05AFC3B
:104DE0000028F0D000BF641C642CEBDB0020764967
:104DF00081F8230081F8270081F82B00012081F839
:104E00002200002081F82600012081F82A00FE20DF
:104E100081F83700012081F83600FFF710FF10BD40
:104E20006A48407800F00200B0B96848007800F0A5
:104E3000020088B10A20644981F82B0081F827001C
:104E400081F82300012081F82200002081F826004B
:104E5000012081F82A0007E000205B4981F82B003F
:104E600081F8270081F82300704710B557488079F2
:104E700018B30821604801F00DFC01281DD1002065
:104E8000514981F8230081F8270081F82B00012087
:104E900081F82200002081F82600012081F82A00F4
:104EA00000224103474801F013FC232054490860C5
:104EB0000020544908605449086010BD43480078F8
:104EC00000F0800020B1FE203F4981F8370003E068
:104ED00000203D4981F8370070472DE9F0472DED5E
:104EE000088B06460F464FF07D09A6F17D08A7F115
:104EF0007D04204605F0D7FB41EC1A0B404605F037
:104F0000D2FB41EC1B0BB0EE4A1AF0EE6A1AB0EE7F
:104F10004B0AF0EE6B0A06F097F9B0EE409AF0EE0D
:104F2000609A9FED3A0B53EC102B51EC190B05F0E6
:104F3000D9FA41EC180B05F0C7FB0546002D01DA44
:104F400005F561653348056008FB08F104FB0410B2
:104F500005F0A9FB41EC190BB0EE490AF0EE690A25
:104F600007F03EFBB0EE408AF0EE608A51EC180B81
:104F700005F0AAFB28490860BDEC088BBDE8F08766
:104F800010B508211C4801F085FB002874D1234886
:104F900090ED000ABCEEC00A10EE100A0A4981F832
:104FA00023001E4890ED000ABCEEC00A10EE100A65
:104FB00081F82700194890ED000ABCEEC00A10EEF7
:104FC000100A2DE000040240040000202C070020FD
:104FD00010030020A00000203C030020B4000020AB
:104FE00040030020980300208C0300209C03002035
:104FF000E00000208401002000100240D4030020C3
:105000003C01002044010020400100208B38D69054
:10501000A9E78140E0030020E40300204C010020C8
:1050200081F82B00002081F82200012081F8260061
:10503000002081F82A0043F6982004F02BFD002080
:10504000F74981F83600FE2081F8370042F21070EF
:1050500004F020FD0020F24981F8230081F82700A8
:1050600081F82B0081F82200012081F82600002021
:1050700081F82A0081F8370010BD10B5E948807921
:1050800088B1E848407800F0080060B1E64890ED4B
:10509000000AF7EE000A30EE200A80ED000A4FF415
:1050A000FA6004F0F7FCDF48807988B1DD48407889
:1050B00000F0040060B1DC4890ED000AF7EE000A51
:1050C00030EE600A80ED000A4FF4FA6004F0E2FC72
:1050D00010BDD448407800F0800080B10D20D04948
:1050E00081F82B0081F8270081F82300012081F846
:1050F0002200002081F82600012081F82A00704754
:1051000000B5FFF79CFDC94800680F38C849086022
:10511000FEF726FDC74890ED000AC348D0ED000A0F
:1051200030EE200ABCEEC00A10EE100AC0B2BC4934
:1051300081F82B0081F8270081F82300002081F8F6
:105140002200012081F82600002081F82A0000BDFD
:1051500010B50821B84801F09DFAD8B9FEF700FD56
:10516000B6490968B64A12681144A1F11E00FEF75B
:105170003FFDC0B2AA4981F82B0081F8270081F8D1
:105180002300002081F82200012081F82600002061
:1051900081F82A0010BD10B50821A74801F07AFA5D
:1051A000D0B9A6480068A2490860FEF7D9FCA0481B
:1051B0000068FEF71DFDC0B2994981F82B0081F807
:1051C000270081F82300002081F82200012081F8C7
:1051D0002600002081F82A0010BD10B5082196484D
:1051E00001F058FAD0B99548006891490860FEF777
:1051F000B7FC8F480068FEF7FBFCC0B2884981F815
:105200002B0081F8270081F82300002081F822007C
:10521000012081F82600002081F82A0010BD814875
:10522000007800F0020068B100207D4981F82B0071
:1052300081F8270081F823008249086082490860CC
:105240007B49086070477748407800F0020050BB07
:105250007448407800F0100028B3734890ED000ABD
:10526000BCEEC00A10EE100A6D4981F823006E48AA
:1052700090ED000ABCEEC00A10EE100A81F827007B
:10528000694890ED000ABCEEC00A10EE100A81F8E1
:105290002B00002081F82200012081F82600002048
:1052A00081F82A000FE000205D4981F8230081F891
:1052B000270081F82B0081F82200012081F82600C8
:1052C000002081F82A0070475648407800F002001C
:1052D00060B95448007800F0020038B1FE2050490F
:1052E00081F83700012081F8360005E000204C49A4
:1052F00081F8370081F83600704701B54948407899
:1053000000F002004749497801F00801084440B123
:105310009DF80000424981F83300012081F83200F5
:1053200016E04048407800F002003E49497801F01C
:105330001001084440B19DF80000394981F833005C
:10534000012081F8320003E00220354981F8330062
:1053500008BD01B53348407800F0200040B19DF809
:1053600000002F4981F82F00012081F82E0011E064
:105370002C48407800F0040040B19DF80000284916
:1053800081F82F00002081F82E0003E00720244937
:1053900081F82F0008BD00B501460022B1F5C57F98
:1053A00009DDB1F5C77F06DC01229FED280A2148FF
:1053B00080ED000A40E1B1F5C77F09DDB1F5C97F95
:1053C00006DC02229FED210A1A4880ED000A33E133
:1053D000B1F5C97F09DDB1F5CB7F06DC03229FED76
:1053E0001C0A144880ED000A26E1B1F5CB7F09DDE7
:1053F000B1F5CD7F06DC04229FED150A0D4880ED46
:10540000000A19E1B1F5CD7F26DDB1F5CF7F23DCB0
:1054100005229FED100A074880ED000A0CE100000C
:10542000040000202C0700204C010020280300204D
:1054300044030020E0000020001002403C03002054
:10544000440400209803002014040020000070424F
:105450000000744200007842B1F5CF7F09DDB1F55C
:10546000D17F06DC06229FEDF80AF84880ED000A9D
:10547000E2E0B1F5D17F09DDB1F5D37F06DC07228B
:105480009FEDF10AF14880ED000AD5E0B1F5D37F38
:1054900009DDB1F5D57F06DC08229FEDEB0AEB486C
:1054A00080ED000AC8E0B1F5D57F09DDB1F5D77F01
:1054B00006DC09229FEDE40AE44880ED000ABBE027
:1054C000B1F5D77F09DDB1F5D97F06DC0A229FED62
:1054D000DE0ADE4880ED000AAEE0B1F5D97F09DDD5
:1054E000B1F5DB7F06DC0B229FEDD90AD74880EDB2
:1054F000000AA1E0B1F5DB7F09DDB1F5DD7F06DC57
:105500000C229FEDD30AD14880ED000A94E0B1F55A
:10551000DD7F09DDB1F5DF7F06DC0D229FEDCD0AD1
:10552000CA4880ED000A87E0B1F5DF7F09DDB1F5FB
:10553000E17F06DC0E229FEDC80AC44880ED000A18
:105540007AE0B1F5E17F09DDB1F5E37F06DC0F22FA
:105550009FEDC20ABD4880ED000A6DE0B1F5E37F22
:1055600009DDB1F5E57F06DC10229FEDBD0AB748E5
:1055700080ED000A60E0B1F5E57F09DDB1F5E77F78
:1055800006DC11229FEDB70AB04880ED000A53E017
:10559000B1F5E77F09DDB1F5E97F06DC12229FED69
:1055A000B10AAA4880ED000A46E0B1F5E97F09DDBD
:1055B000B1F5EB7F06DC13229FEDAA0AA34880ED2C
:1055C000000A39E0B1F5EB7F09DDB1F5ED7F06DCCE
:1055D00014229FEDA30A9D4880ED000A2CE0B1F54E
:1055E000ED7F09DDB1F5EF7F06DC15229FED9E0A08
:1055F000964880ED000A1FE040F20E20814209DB50
:10560000001D814206DC16229FED970A8F4880ED2F
:10561000000A11E040F21320814209DBB1F5067F58
:1056200006DA17229FED910A884880ED000A03E010
:105630000846FEF795FA00BD00BFFCE710B58C48A0
:10564000407800F0100000284DD08A48006800BB68
:105650000821894801F01EF8D8B9884890ED000A61
:10566000BCEEC00A10EE100AC0B2854981F82B00CA
:1056700081F8270081F82300002081F82200012012
:1056800081F82600002081F82A000120794908606D
:105690001AE078480068012816D10020784981F87E
:1056A0003600FE2081F8370042F2107004F0F2F963
:1056B0000020734981F82B0081F8270081F823002E
:1056C00081F837006B49086006E0FBF7EFF800B19E
:1056D00008E0012004F0DEF96548407800F0100091
:1056E0000028F2D100BF10BD10B56148007800F06D
:1056F000800000284DD040F20D2062490860FE2055
:105700005F4981F83700002081F836005E49086063
:105710005E4908605E49086042F6F82004F0BAF974
:105720000020574981F83700C820564908600020FA
:10573000534981F82200012081F82600002081F8D9
:105740002A0081F8230081F8270081F82B005149B5
:105750000860514908605149086051480068514942
:105760000860002050490860384890ED000A43481E
:10577000D0ED000A30EE200ABDEEC00A4B4880EDA5
:10578000000A324890ED000ABDEEC00A484880ED9C
:10579000000A10BD3648407800F0020080BB344853
:1057A000407800F0040058B3424800684249096854
:1057B000884225DA0120414908602D20304981F8CE
:1057C0003300012081F832003D4800683949086003
:1057D0003C480068B0F51C7F09DA2D48006830B9F4
:1057E0003848006828490860012029490860354880
:1057F0000068B0F51C7F03DA32480068234908606E
:1058000070470020224908601F4908601F4908604E
:10581000704701B51648407800F0200030B19DF87F
:1058200000001749C8760120887650E0104840787B
:1058300000F0040030B19DF800001149C876002046
:10584000887644E040E0000000007C42E000002058
:10585000000080420000A8420000AC420000AE42BE
:105860000000B0420000B2420000B4420000B84262
:105870002C07002038030020001002404C010020BB
:105880000400002060010020F4030020F803002041
:10589000EC030020980300208C030020D403002098
:1058A00044040020D803002014040020D00300206A
:1058B000E80300203001002038010020880100208A
:1058C000B4000020A00000200020FC49C87608BDDC
:1058D000F7B52DED028B4FF4E16414269FEDF80A25
:1058E000B0EE408AF7480079322805DBF5480079A8
:1058F000962801DC012000E0002005460020F24946
:105900000860F048007800F00800A8B9ED48007879
:1059100000F0100080B9EB48007800F0200058B982
:10592000E848007800F0400030B92DB11920FDF7AB
:10593000B0FDBDEC028BFEBDE248407800F00100F6
:1059400030B19DF81060B0EE000AB0EE408A0FE072
:10595000DC48807930B19DF80C60B7EE000AB0EEFB
:10596000408A05E09DF808609FEDD80AB0EE408AB5
:10597000D448007800F0080098B1D248007800F0D0
:10598000100070B9CF48007800F0200048B9CD4829
:10599000007800F0400020B960423146FDF7D6FEA5
:1059A000B5E0C848007800F00800A0B9C548007804
:1059B00000F0100078B1C348007800F0200050B922
:1059C000C048007800F0400028B9C4F5E1603146D5
:1059D000FDF7BCFE9BE0BB48007800F00800A0B9D2
:1059E000B848007800F0100078B9B648007800F0A8
:1059F000200050B1B348007800F0400028B9C4F549
:105A000061703146FDF7A2FE81E0AE48007800F0FB
:105A10000800A0B9AB48007800F0100078B9A94898
:105A2000007800F0200050B9A648007800F040004F
:105A300028B1A749081B3146FDF788FE67E0A14859
:105A4000007800F00800A0B19E48007800F0100037
:105A500078B99C48007800F0200050B1994800784F
:105A600000F0400028B9C4F5E1703146FDF76EFE44
:105A70004DE09448007800F00800A0B1914800780B
:105A800000F0100078B98F48007800F0200050B97D
:105A90008C48007800F0400028B18E49081B314640
:105AA000FDF754FE33E08748007800F00800A8B9FD
:105AB0008448007800F0100080B18248007800F03F
:105AC000200058B17F48007800F0400030B940F223
:105AD0004651081B3146FDF739FE18E07948007839
