:020000040800F2
:10000000783B0120F1410008390200083B0200085A
:100010003D0200083F020008410200080000000005
:10002000000000000000000000000000A101000826
:100030004302000800000000E501000839710008D3
:100040000B4200080B4200080B4200080B4200085C
:100050000B4200080B420008C50400080B420008D0
:10006000C30400080B4200080B42000833030008D9
:100070000D030008A1030008AB0300086902000893
:100080000B4200087F0300080B4200080B420008E7
:100090000B4200080B4200080B420008CB0400088A
:1000A0000B420008110400083D0400080B42000840
:1000B0003F0400085F0400087F0400080B420008AA
:1000C0000B4200080B4200080B420008BF04000866
:1000D0000B420008490200080B4200080B420008CE
:1000E000030700080B4200080B4200080B420008FF
:1000F0000B4200080B4200080B42000855030008A1
:100100000B4200080B4200089F040008C1040008CD
:100110000B420008331A0008D7030008090400083E
:100120009702000871020008BD0200080B42000897
:100130000B4200080B4200080B4200080B4200086B
:100140000B4200080B4200080B4200080B4200085B
:10015000030300080B4200080B4200080B42000892
:100160000B4200080B4200080B4200080B4200083B
:100170000B4200080B4200080B4200080B4200082B
:100180000B4200080B420008DFF810D007F0AAFC71
:1001900000480047CD3F0008AFF30080783B0120C6
:1001A000224B19680868B0E8F00F80F30988BFF3A4
:1001B0006F8F4FF0000080F311884EF00D0E7047E6
:1001C0000000000006480068006880F3088862B6F6
:1001D00061B6BFF34F8FBFF36F8F00DF00BF00BF6B
:1001E00008ED00E0EFF30980BFF36F8F0F4B1A6843
:1001F00020E9F00F106008B54FF0500080F311882F
:10020000BFF34F8FBFF36F8F06F078F84FF0000009
:1002100080F31188BDE8084019680868B0E8F00F5D
:1002200080F30988BFF36F8F704700BF88010020FB
:10023000EFF30580704700007047FEE7FEE7FEE73A
:10024000FEE770477047704710B5F84C40F22551F3
:10025000204605F032FD002805D02046BDE81040BC
:10026000202105F027BD10BDF149F24804F037BE4A
:1002700070B5F14CF14D2146284604F00DFE0028E2
:1002800008D02146284604F02AFE01F061FCEC4922
:100290000120087070BD70B5E84DEA4C183D21464C
:1002A000284604F0F9FD002807D001F097FF214609
:1002B0002846BDE8704004F012BE70BDDF4810B59E
:1002C000E149183004F00BFEE048417A0D2905D0D1
:1002D000BDE810400021D54805F02EBC41780278D9
:1002E00041EA0221DA4A1180C178827841EA02218A
:1002F000D84A11804179007941EA0020D649088026
:1003000010BDCE48D549603004F0E9BD70B5C94D87
:10031000C94C483D2146284604F0BEFD002807D0C0
:100320002146284604F0DBFDBDE8704000F0A7BB85
:1003300070BD70B5BF4DC34C603D2146284604F0EA
:10034000ABFD002805D021462846BDE8704004F0EA
:10035000C6BD70BD70B5B74CC14D48342946204666
:1003600004F09AFD002809D00021204604F009FD80
:1003700029462046BDE8704004F0B1BD70BD70B59F
:10038000AC4DB84C30352146284604F085FD002898
:1003900005D021462846BDE8704004F0A0BD70BDE0
:1003A000A448A349303804F09ABD10B5A14CAE4919
:1003B000183C204604F070FD00280BD04FF0C051CF
:1003C000204604F042FD0021204604F0DAFCA74953
:1003D0000020086010BD10B50121A54805F04BFABA
:1003E000A4480078914CA08003F04CF90121A24868
:1003F00005F0A2FB0121A14805F09EFB2046BDE8C7
:100400001040012105F098BB01219D4805F033BA49
:1004100010B59C4C0121204605F021FA00280CD093
:100420000121204605F027FA2088C1069648016878
:1004300001D5491E00E0491C016010BD704710B590
:1004400001218C07204605F016FA2088C1068F4846
:10045000016801D5491E00E0491C016010BD10B5BE
:100460008B4C0121204605F006FA2088C1068948F8
:10047000016801D5491E00E0491C016010BD10B59E
:10048000854C0121204605F0F6F92088C1068348F5
:10049000016801D5491E00E0491C016010BD10B57E
:1004A0007F4C0121204605F0E6F92088C1067D48F1
:1004B000016801D5491E00E0491C016010BD70476C
:1004C00070477047012004F089BD2DE9F05F4FF4BB
:1004D000807B754D5C465946284603F0B9FF0746B8
:1004E0004FF4007A5146284603F0B2FF0646202119
:1004F0006E4803F0ADFF0546204604F06FFD6C4CDE
:100500004FF0000948B3012F03D0B6B3012E38D005
:1005100020E0DFF86C81404604F04AFE65490A6835
:1005200002EB421202EB42021044634A1060C1F82F
:1005300000900021404604F037FE012E01D026B184
:1005400008E03DB92068401C03E0012D02D120687D
:10055000401E2060584604F04FFDD346504604F03C
:100560003DFDDFF858814FF0010A90B3012E0BD00A
:1005700098F80000012812D01BE0FFE7012DE1D020
:10058000E8E7002DE3D0E5E73D4804F011FEC8F8A8
:10059000100088F800A087B1012F13D016E038486A
:1005A00004F006FED8F81020801AC8F8080088F871
:1005B0000090012F1AD0E7B108E0012D06D1206884
:1005C000401C02E015B92068401E2060584604F027
:1005D00013FD202004F002FD002826D0012D0BD0B1
:1005E00098F801004546012811D018E0002DE6D00A
:1005F000ECE7012DE7D0E9E7214804F0D9FDC8F880
:10060000140088F801A0012F5AD067B161E01C489E
:1006100004F0CEFD6969401AE86085F801901FB1C9
:10062000012F5ED055E04FE058E05DE00010014042
:100630002080002070600240008800102864024082
:100640001A0000202080001000802010F2090020F5
:10065000280000202C0000202E0000200088002010
:100660000080002800802020008000186800002002
:10067000001000401D000020004800400014014010
:100680000014004000000140C4000020C800002009
:1006900000040040CC00002000080040D0000020F2
:1006A000000C0040D400002000080240001002406E
:1006B000600100205C0100205801002000000020A3
:1006C0003EB92068401C03E0012E02D12068401E84
:1006D0002060BDE8F05F202004F08EBC012EF0D039
:1006E000F7E7002EF2D0F4E7BDE8F09F074948682D
:1006F0008A68824200D98868CA68824200D9C8687C
:1007000070474FF4004004F069BC00000000002076
:1007100070B5054606F06CFD04462946FC4806F017
:100720006EFD002816D095222946F94806F054FDA2
:10073000F84D0021284604F024FBF648F449B83867
:10074000C0F8C410C0F8BC402846BDE87040012184
:1007500004F017BB70BD70B5EF4D06460024315D47
:1007600000290BD0284605F00DFA8021284605F017
:100770009AFA0028F9D0641CE4B2F0E770BD70B5B5
:10078000E54E05460024002D0DD02946304605F0E3
:10079000F9F98021304605F086FA0028F9D0641C6A
:1007A000E4B2032CEFD370BD13B50C460020FFF765
:1007B000E6FFDAA0FFF7CFFFD5482346D8A296215F
:1007C000E63807F0D9F9D248E638FFF7C4FFD5A0DC
:1007D000FFF7C1FFCE48D2A29621E638009B07F072
:1007E000CBF9CB48E638FFF7B6FFD0A0FFF7B3FF51
:1007F000FF20FFF7C4FFFF20FFF7C1FFBDE81C404B
:10080000FF20BCE770B505460C46C4A0FFF7A3FF68
:10081000BF482246C2A1E63807F0C8F9BC48E6380E
:10082000FFF799FFBFA0FFF796FF2846FFF793FF5A
:10083000BEA0FFF790FFBDE87040FF209FE777B5AF
:10084000B8A185B00646D1E90001CDE90001B7A005
:10085000002200680390B1A0AD4D0068283DA5F1CD
:1008600028030290AA4C1146A3F19600A95499546A
:100870008154A154521CD2B21E2AF7D30A2101700E
:10088000FF2444708470C470A148A5A15038079A11
:1008900007F08CF99E4902A8503906F091FC9C485B
:1008A00002A9E63806F08CFC99486946E63806F05D
:1008B00087FC97483146E63806F082FC944898A1B8
:1008C0005038069A07F072F991495039A1F1960013
:1008D00006F076FC8E4803A9E63806F071FC8C49D8
:1008E0002C706C702839AC70A1F1BE0006F068FC69
:1008F0008748E638FFF70CFF08B070BD2DE9F741D7
:10090000884688A185B00646D1E90001CDE90001FD
:1009100086A000220068039080A07D4D0068283DDD
:10092000A5F1280102901446A1F19600AC548C5414
:100930008454521CD2B20A2AF8D30A210170FF272C
:1009400047708770C770724875A15038079A07F0D2
:100950002DF96F4902A8503906F032FC6C4802A903
:10096000E63806F02DFC6A486946E63806F028FCB1
:1009700067483146E63806F023FC65484146E638CC
:1009800006F01EFC624803A9E63806F019FC2F7039
:100990006F705F49AF70EC7028392C71A1F1BE0007
:1009A00006F00EFC5A48E638FFF7B2FE08B0BDE884
:1009B000F08101B58EB05EA2322168460E9B07F031
:1009C000DBF86846FFF7A4FE0FB000BD73B555A174
:1009D00084B00646D1E90001CDE9000153A0002210
:1009E000006803904DA04A4D0068283DA5F12803FA
:1009F0000290474C1146A3F19600A9549954815492
:100A0000A154521CD2B21E2AF7D30A210170FF242E
:100A100044708470C4703E4841A15038059A07F074
:100A2000C5F83B4902A8503906F0CAFB384802A96C
:100A3000E63806F0C5FB36486946E63806F0C0FBE6
:100A400033483146E63806F0BBFB31495039A1F155
:100A5000960006F0B5FB2E4803A9E63806F0B0FB79
:100A60002B492C706C702839AC70A1F1BE0006F0D7
:100A7000A7FB2748E638FFF74BFE06B070BDF0B580
:100A80002E4885B001784278C4780A4481780B19E1
:100A90001A4403791A4443791A4483791A44C3796E
:100AA0001344027A1344DBB202F00F0202938DF872
:100AB0000020407A984201D10D2A0AD09DF800000A
:100AC0000D2869D005B00021BDE8F0401C4805F0B4
:100AD00033B8C1F17F0006F013FE0546A4F1810092
:100AE00006F00EFE044615F0FF4F4FF07E5000D189
:100AF000054614F0FF4F00D10446284606F01AFEC2
:100B00000746204606F016FE002F1BDB3A461AE089
:100B1000DE020020B8600240005000407400000077
:100B2000256400002E7478743D220000220000002D
:100B30006A302E76616C3D2564000000010A0020B9
:100B4000004800407A42011E00DA4142114401EBA4
:100B5000D1714910FE4E7165002800DA40423228FA
:100B600006DA380000D57842322801DA002012E097
:100B7000204606F017FE07460C46284606F012FEF1
:100B80003A46234607F042FD4FF00042F14B06F093
:100B9000BFFC06F0E8FD306505B0F0BDEE48017A17
:100BA00001F00F010D2904D10078C00701D00D20FC
:100BB000704700207047E8480078800701D5012081
:100BC00070470020704701B581B0019800EBC0006C
:100BD00040000090002801D0401EFAE70CBD01B58E
:100BE00081B044F25061019848430090002801D040
:100BF000401EFAE70CBD1CB501210F2003F090FD4B
:100C00004CF6804000906946D44803F0BBFB4FF49B
:100C1000034000906946D24803F0B4FB41F603104C
:100C2000009001208DF8040000218DF806108DF849
:100C3000070003208DF805006946CA4803F0A2FBAF
:100C40004FF6C17000906946C74803F09BFB1CBD7E
:100C50001CB50121162003F063FD00208DF804006F
:100C600001208DF8070002208DF805004FF4C040E8
:100C700000906946BA4803F085FB0320009069465E
:100C8000B64803F07FFB4FF2FF5000906946B7482B
:100C900003F078FB1CBD1FB54FF4E06003F0BAFA17
:100CA00036208DF80C0002208DF80D008DF80E0016
:100CB00001208DF80F0003A803F0B1FA01211020E4
:100CC00003F04CFD3220ADF8000040F2E730019017
:100CD0000020A74CADF80800ADF802006946204698
:100CE00004F020FA0121204604F0C5FD012211463E
:100CF000204604F0A0FD0021204604F055FA012111
:100D0000204604F087FA1FBD1FB54FF4E06003F0E2
:100D100081FA37208DF80C0000248DF80D408DF8F5
:100D20000E4001208DF80F0003A803F078FA01218E
:100D3000202003F013FD3220ADF80000ADF808408C
:100D4000ADF8024063208B4C01906946204604F0C8
:100D5000E9F90121204604F08EFD012211462046CA
:100D600004F069FD0021204604F01EFA012120460E
:100D700004F050FA1FBD70B58AB00121042003F0C1
:100D8000EDFC01210D2003F0CBFC744E02220C215E
:100D9000304603F080FB02220D21304603F07BFB3E
:100DA00002220E21304603F076FB02220F2130464C
:100DB00003F071FB4FF47040059002208DF818008D
:100DC00003208DF8190000248DF81A4001258DF8B4
:100DD0001B5005A9304603F0D5FAA420ADF81C003D
:100DE0002802654E0890ADF82400ADF81E4007A912
:100DF000304604F097F97020ADF80000ADF80250CD
:100E00000294ADF80C400121304604F003FA0021B1
:100E1000304604F0C9F96946304604F005FA6946DF
:100E2000304604F02DFA6946304604F065FA69460A
:100E3000304604F09BFA0AB070BD2DE9F04701215D
:100E40008AB0084603F08AFC0121022003F086FCE8
:100E50000121032003F064FCDFF8089101220F2137
:100E6000484603F018FBDFF80081012203214046C9
:100E700003F011FB02220421404603F00CFB022286
:100E80000521404603F007FB02268DF80460032786
:100E900038208DF80570002400908DF8064001255B
:100EA0008DF807506946404603F06CFA8DF80460EF
:100EB000E8038DF8057000908DF806408DF8075016
:100EC0006946484603F05EFA4FF6FF70ADF80C40F5
:100ED00004904FF08049ADF81440ADF80E4003A9DE
:100EE000484604F01FF9DFF894A003A9504604F027
:100EF00019F94FF004081420ADF81880ADF820005F
:100F0000ADF81A60ADF81C5006A9484604F0C4FBC1
:100F100006A9504604F0C0FB02231A4603214846A6
:100F200004F023FD02231A460321504604F01DFD60
:100F30000121484604F09FFC0121504604F09BFC2F
:100F400001221146484604F076FC0122114617E0C2
:100F500098000020A9E78140010A0020000C02400F
:100F6000000802400000024000040240001002405D
:100F70000010004000140040000800400004004041
:100F8000504604F058FC0121484604F043F9012181
:100F9000504604F03FF90021484604F005F90021CD
:100FA000504604F001F9780203F034F91D208DF861
:100FB00008008DF809708DF80A408DF80B5002A8D2
:100FC00003F02DF91C208DF808008DF809808DF8AC
:100FD0000A408DF80B5002A803F021F90AB0BDE8D1
:100FE000F0872DE9F04101218AB0084603F0C0FBEB
:100FF0000121102003F094FB4FF4206000904FF08B
:10100000020803208DF8048000248DF805008DF877
:10101000064001258DF807506946FE4F384603F01B
:10102000B1F94FF6FF70FC4EADF808400390ADF8F3
:101030001040ADF80A4002A9304604F073F80122CE
:101040000921384603F027FA01220B21384603F024
:1010500022FA0427C820ADF81470ADF81C00ADF8D2
:101060001680ADF8185005A9304604F015FB022390
:101070001A460321304604F078FC0121304604F082
:10108000FAFB01221146304604F0D5FB012130461F
:1010900004F0C0F80021304604F086F8B4823580B0
:1010A0004FF4C06003F0B6F819208DF820008DF8D9
:1010B00021708DF822408DF8235008A803F0AFF876
:1010C0000AB074E42DE9F0418AB00121042003F054
:1010D00045FB0121082003F023FB4FF4405002267A
:1010E00000908DF8046003208DF805000024CB4F9C
:1010F0008DF8064001258DF807506946384603F003
:1011000041F94FF6FF70DFF81883ADF808400390FF
:10111000ADF81040ADF80A4002A9404604F002F8CC
:1011200002220C21384603F0B6F902220D2138467E
:1011300003F0B1F90427C820ADF81470ADF81C0015
:10114000ADF81660ADF8185005A9404604F0A4FAB1
:1011500002231A460321404604F007FC01214046C1
:1011600004F089FB01221146404604F064FB012192
:10117000404604F04FF80021404604F015F8A84816
:1011800014300480A8F800504FF4C06003F042F817
:101190001E208DF820008DF821708DF822408DF8EA
:1011A000235008A803F03BF88AE72DE9F0418AB004
:1011B0000121082003F0D2FA0121084603F0B0FA19
:1011C000032002268DF804608DF805000024954F59
:1011D00000908DF8064001258DF807506946384685
:1011E00003F0D0F84FF6FF70DFF83C82ADF808400E
:1011F0000390ADF81040ADF80A4002A9404603F054
:1012000091FF02220021384603F045F90222012114
:10121000384603F040F90427C820ADF81470ADF843
:101220001C00ADF81660ADF8185005A9404604F052
:1012300033FA02231A460321404604F096FB0121AB
:10124000404604F018FB01221146404604F0F3FA30
:101250000121404603F0DEFF0021404603F0A4FFD9
:10126000714814300480A8F800504FF4C06002F0B8
:10127000D1FF32208DF820008DF821708DF82240AA
:101280008DF8235008A802F0CAFF19E72DE9F041B4
:101290009CB00121654803F043FA01210E0230465B
:1012A00003F066FADFF8888101221021404603F03E
:1012B000DDFD38208DF86C0000248DF86D408DF830
:1012C0006E4001258DF86F501BA802F0A8FF594809
:1012D00002A9CDE9004058480E2781E89100A802F4
:1012E000CDE90540400007908000CDE908060AA935
:1012F000000181E831000D94694640460E9403F0E8
:1013000007FD0121404603F03CFD012003F035FBC1
:10131000FC2003260F908DF840608DF843400FA904
:10132000404803F02FF830020F908DF840608DF8A0
:1013300043400FA9414803F025F83F200F908DF856
:1013400040608DF843400FA93D4803F01BF830047E
:10135000CDE91740199417A81A9403F0DEFA1194F6
:10136000139414941594334C8DF848504C3C8DF8DC
:1013700049508DF8587011A9204603F0A3FA0723AD
:1013800001220221204603F012FB0723022203213F
:10139000204603F00CFB072303220421204603F020
:1013A00006FB072304220521204603F000FB072348
:1013B00005220621204603F0FAFA072306221946E1
:1013C000204603F0F4FA07231A460821204603F0CA
:1013D000EEFA072308220921204603F0E8FA072342
:1013E00009220A21204603F0E2FA07230A220B21F0
:1013F000204603F0DCFA07230B220C21204603F0E1
:10140000D6FA07230C220D21204603F0D0FA072339
:101410000D2217E00010024000000140000C0240C5
:101420000008004000000240000C0040070040009F
:10143000106402404C20014074030020000402406C
:10144000000802400E21204603F0B1FA07230E22C5
:101450000F21204603F0ABFA0121204603F024FBC4
:101460000121204603F016FB0121204603F06CFA0F
:10147000204603F0D6FA1CB0BDE8F08170B50546F1
:1014800096B00121102003F073F90121084603F002
:1014900047F90121880503F043F94FF4C060139028
:1014A00002208DF8500000248DF852408DF85340F2
:1014B000FF4E8DF8510013A9304602F063FF07225A
:1014C0000921304602F0E7FF07220A21304602F0E8
:1014D000E2FF0F95ADF844400C20F64DADF84040CA
:1014E000ADF84600ADF84240ADF848400FA9284697
:1014F00004F0B1FA0121284604F01EFB4FF4A0606D
:1015000002F088FE3A208DF8540001218DF8551024
:101510008DF856108DF8571015A802F080FEE64E93
:10152000304603F06DFB4FF000600090E348CDE9DA
:1015300002040A200490281D01900015CDE9054001
:101540008010CDE9084040020A9004200B900794D7
:101550000320CDE90C04694630460E9403F0D8FB15
:1015600001224021284604F07EFB01221021304652
:1015700003F07CFC0121304603F003FC16B070BD83
:101580002DE9F04F8046012197B0880403F0E6F87A
:101590000121082003F0C4F80121480503F0C0F838
:1015A00002268DF8546000244FF440708DF85640A8
:1015B0000125C34F14908DF857508DF8556014A92C
:1015C000384602F0DFFE07220821384602F063FFAA
:1015D00007220921384602F05EFFDFF8E8B2ADF8D5
:1015E0004440ADF848400C27CDF84080ADF8464067
:1015F000ADF84C40ADF84A7010A9584604F02BFAEB
:101600000121584604F098FA4FF4A06002F002FE5F
:101610008DF83C708DF83D508DF83E508DF83F5060
:101620000FA802F0FCFD0E208DF83C008DF83D6007
:101630008DF83E408DF83F500FA802F0F0FDDFF826
:1016400088A2504603F0DCFA9C48ED060F30CDE945
:10165000020404A90A206F1481E8910008A84FF43D
:1016600080784FF40039079480E810030BF10406EA
:101670000B94CDE900566946504603F049FB012220
:101680004021584604F0EFFA01221021504603F0A1
:10169000EDFB0121504603F074FBDFF82CA20AF1A8
:1016A000300A504603F0ACFA844800952138CDE961
:1016B00001604020039004A9212081E8910008A83E
:1016C000079480E81003694650460B9403F020FB12
:1016D00001228021584604F0C6FA0122102150460A
:1016E00003F0C4FB0121504603F04BFB17B0BDE8EB
:1016F000F08FF0B50646012197B0C80403F02EF82C
:101700000121084603F00CF80121480503F008F810
:1017100002208DF8500000248DF852408DF853407F
:10172000634F03258DF85100139513A9384602F035
:1017300029FE08220021384602F0ADFE08220121D0
:10174000384602F0A8FE0F96ADF844400C205F4EDC
:10175000ADF84040ADF84600ADF84240ADF8484025
:101760000FA9304604F077F90121304604F0E4F97E
:101770004FF4A06002F04EFD0D208DF854008DF85E
:1017800055408DF8564001208DF8570015A802F0FD
:1017900046FD4D4F1837384603F032FA7805009071
:1017A000464869461E30CDE9020408200490301DE9
:1017B00001900015CDE905408010CDE908404002B8
:1017C00007940A900420CDE90C540B9038460E94EF
:1017D00003F09EFA01224021304604F044FA01222F
:1017E0004021304604F03FFA01221021384603F030
:1017F0003DFB0121384603F0C4FA17B0F0BD2DE9D6
:10180000F0478246012196B0480502F089FF012188
:10181000080502F0A3FF01210C2002F081FF02263F
:101820008DF84460002404208DF846400125DFF83F
:10183000908010908DF8475003278DF8457010A9BF
:10184000404602F09FFD2803DFF8849010908DF849
:1018500044608DF8475010A9484602F093FD0822D5
:101860000221404602F017FE08220C21484602F0F1
:1018700012FECDF848A0ADF850400C20DFF854A07F
:10188000ADF84C40ADF85200ADF84E40ADF85440C4
:1018900012A9504604F0DFF84FF4A06002F0BAFC41
:1018A0002F208DF83C0005208DF83D0014E000004D
:1018B000000002400010014040640240F209002094
:1018C000000C02400048004028600240004C0040EC
:1018D00000080240005000408DF83E008DF83F5057
:1018E0000FA802F09CFC0B208DF83C008DF83D60A9
:1018F0008DF83E608DF83F500FA802F090FC352027
:101900008DF83C008DF83D508DF83E508DF83F50DD
:101910000FA802F084FCDFF80494484603F070F945
:1019200040200390FE48ED06029004A995206E1415
:1019300081E851000794A8120894CDE90940CDE947
:101940000B470AF10408CDE900580D946946484652
:101950000E9403F0DDF901221021484603F086FAC7
:10196000EE4FA83F384603F04BF9EE48CDE90204AC
:1019700004A9802081E851004000CDE908404FF4DF
:101980004030CDE90A04CDE9005807940C940D9439
:10199000694638460E9403F0BBF9012240F2244117
:1019A000504604F068F901228021504604F05BF9AA
:1019B00001224021504604F056F90121384603F037
:1019C000E0F90121504604F0B7F816B0BDE8F08701
:1019D00070B5D248A83803F0F4F9D34CC0F18000B8
:1019E0000104E089090C00F10100E0811BD0002016
:1019F000CC4A4B1E1AE0155C552D15D115186D7883
:101A00000C2D11D100F10E058D420DD8C44B0021D3
:101A1000F23B45181544AD785D54491C89B20C2938
:101A2000F7D30120607070BD401C80B29842E2DBA9
:101A300070BD10B5BD4C40F22441204604F03DF984
:101A4000002804D02088A088BDE81040C0E710BD61
:101A5000F0B5054697B00121202002F089FE012152
:101A6000042002F05DFE0121880502F059FEC0202D
:101A7000139002208DF8500000248DF852408DF80C
:101A80005340AB4E8DF8510013A9304602F07AFC5A
:101A900008220621304602F0FEFC082207213046CB
:101AA00002F0F9FCADF844400C20A24EADF84040E5
:101AB000ADF846000F95ADF84240ADF848400FA98B
:101AC000304603F0C8FF0121304604F035F84FF4EA
:101AD000A06002F09FFB39208DF8540003258DF89B
:101AE000555001218DF856108DF8571015A802F0A9
:101AF00096FB914F384603F083F8B805009089486B
:101B000069468030CDE902040F200490301D019019
:101B10000015CDE905408010CDE90840400207944A
:101B20000A900420CDE90C540B9038460E9403F033
:101B3000EFF801224021304604F095F801221021EF
:101B4000384603F093F90121384603F01AF954E6B8
:101B5000744A18B5803250788DF800009DF8000066
:101B6000104483789DF80000AA30C1B2002004E040
:101B70001418A478401C2144C9B29DF80040A0422A
:101B8000F6DB12786848AA2A03D18B4201D10121E1
:101B900000E00021817018BDF0B50646012197B024
:101BA000480502F0BDFD01214D04284602F0D6FD96
:101BB0000121082002F0B4FD6020139002208DF86E
:101BC000500000248DF852408DF853405B4F8DF843
:101BD000510013A9384602F0D5FB072205213846EB
:101BE00002F059FC07220621384602F054FC0F96F9
:101BF000ADF844400C20524EADF84040ADF84600E0
:101C0000ADF84240ADF848400FA9304603F023FF3D
:101C10000121304603F090FF4FF4A06002F0FAFA81
:101C200011208DF854008DF855408DF85640012054
:101C30008DF8570015A802F0F2FA384F183F3846D1
:101C400002F0DEFFA8020090402003903D48029081
:101C50003C200490301D01900015CDE90540801016
:101C6000CDE908400420CDE90A5007940320CDE9CE
:101C70000C04694638460E9403F04AF8012280218C
:101C8000304603F0F0FF01228021304603F0EBFFE5
:101C900001221021384603F0E9F80121384603F00B
:101CA00070F8AAE530B585B00121142002F038FDA6
:101CB0000121880302F05CFD00254FF440708DF88F
:101CC0000450012400908DF807406946184802F03E
:101CD00059FB6020009069461B4802F053FB082125
:101CE000022004F02AF80921022004F026F8052138
:101CF000042004F022F80621042004F01EF84FF41A
:101D0000587002908DF80C5010208DF80D008DF851
:101D10000E4002A803F012F9172017E0B860024045
:101D2000DE0200201F0A00201800002000500040A2
:101D3000000802400014014028640240000C0240E8
:101D4000004400401C010020001002408DF81000EB
:101D50008DF811408DF812508DF8134004A802F050
:101D60005EFA05B030BD10B5C378002202219B1C7D
:101D7000DBB204E0445C491C224492B2C9B28B42FB
:101D8000F8D2D0B2C0F1FF0010BD10B51C4603461A
:101D9000FF2020706070A3700720E0700320207186
:101DA0002A206071080AA071E171100A2072627223
:101DB0002046FFF7D8FFA07210BD30B50C4615467F
:101DC0000146FB4BC8220120FFF7DFFFF84BC8227A
:101DD0000B3321460220FFF7D8FFF54BC8221633FC
:101DE00029460320FFF7D1FFF1484438416CC0F881
:101DF0006510816CC0F86910B0F84C10A0F86D1037
:101E000090F84E1080F86F10D0F84F100167D0F89E
:101E100053104167B0F85710A0F8781090F8591097
:101E200080F87A10D0F85A10C0F87B10D0F85E1005
:101E3000C0F87F10B0F86210A0F8831090F864101A
:101E400080F8851030BD70B5DA4C206D002817D1B0
:101E5000A28961892089FFF7B0FFD549D648213191
:101E600041662121C165D44D4FF0C05158352846F7
:101E700002F0EBFF0121284602F083FF01202065DC
:101E800070BD10B5012810D0032819D0042822D025
:101E9000052809D1C94C204603F074FE4021204694
:101EA00003F001FF0028F9D010BDC54C204603F017
:101EB00069FE4021204603F0F6FE0028F9D010BD4F
:101EC000C04C204603F05EFE4021204603F0EBFEAE
:101ED0000028F9D010BDBC4C204603F053FE402131
:101EE000204603F0E0FE0028F9D010BD2DE9FC41AA
:101EF000B64E304603F05CF9AE4D8035E96AB04627
:101F000040EA014000244CF250364FF6E857019069
:101F1000404603F04DF9E96A40EA014000900100B3
:101F2000019800D54942002800DA4042081AB04220
:101F300000DA641C00980190BC4201DC022CE7DB53
:101F40000098BDE8FC812DE9FC41A04E304603F02D
:101F50002FF9984D8035E96AB04640EA01400024E7
:101F60004CF250364FF6E8570190404603F020F906
:101F7000E96A40EA014000900100019800D5494219
:101F8000002800DA4042081AB04200DA641C0098C7
:101F90000190BC4201DC022CE7DB0098642190FB3D
:101FA000F1F0CEE72DE9FC414FF08046304603F0DA
:101FB000FFF8804D8035296BB04640EA014000248F
:101FC0004CF250364FF6E8570190404603F0F0F8D7
:101FD000296B40EA014000900100019800D5494278
:101FE000002800DA4042081AB04200DA641C009867
:101FF0000190BC4201DC022CE7DB0098A1E72DE94F
:10200000FC41734E304603F0D3F86A4D8035696B5E
:10201000B04640EA014000244CF250364FF6E857F3
:102020000190404603F0C4F8696B40EA014000901B
:102030000100019800D54942002800DA4042081A00
:10204000B04200DA641C00980190BC4201DC022C12
:10205000E7DB009875E72DE9FC415E4E304603F062
:10206000A7F8544D8035A96BB04640EA01400024E2
:102070004CF250364FF6E8570190404603F098F87E
:10208000A96B40EA014000900100019800D5494247
:10209000002800DA4042081AB04200DA641C0098B6
:1020A0000190BC4201DC022CE7DB009849E72DE9F6
:1020B000FC41494E304603F07BF83E4D8035E96BDC
:1020C000B04640EA014000244CF250364FF6E85743
:1020D0000190404603F06CF8E96B40EA0140009043
:1020E0000100019800D54942002800DA4042081A50
:1020F000B04200DA641C00980190BC4201DC022C62
:10210000E7DB00981DE72B4A0021803201280CD024
:1021100002280ED0032811D0042814D0052803D19A
:102120002D4824300160D163704728484162D16254
:1021300070474FF08040416211637047244824305B
:1021400001605163704723482430016091637047F8
:102150003EB501680091416801910089ADF8080021
:1021600000206A46411C0C460BE000BF32F81030DC
:1021700032F81150AB4203D922F8105022F8113036
:10218000491C89B20529F1D3A0B20428EAD3BDF8CD
:1021900004003EBD0022114630F81130491C89B2BE
:1021A0001A443229F8D33220B2FBF0F080B27047E3
:1021B000B0090020180000200060024000500040DC
:1021C0000010014000440040004C0040000001406D
:1021D0000004004000080040000C0040F0B5FE4F35
:1021E000FE4D002407F18C0604EB8402042107EB6A
:1021F000420000BF00EB410333F8023C20F81130ED
:10220000491E0904090CF5D1F349383931F8141085
:1022100027F81210FFF79CFF04EBC40101EB041137
:102220002A7806EB8101641CA4B221F812000E2C5E
:10223000DAD32878401CC0B22870322801D300209D
:102240002870E54D00241C3D04EBC40000EB041095
:1022500006EB8000FFF79EFF25F81400641CA4B273
:102260000E2CF1D3F0BD10B5DC4C0020A071612024
:1022700060716420FEF7B3FC0120A0717A206071C8
:1022800010BD10B5D54C0020A07161206071642094
:10229000FEF7A5FC0120A0717A20607110BD2DE928
:1022A000F0410E46054605F07DFA07460C463046DD
:1022B00005F078FA3A46234606F0A8F9C84AC94B11
:1022C00005F026F905F04FFAC44F8037B86531465E
:1022D000084604F0FAFF04462946084604F0F5FFD4
:1022E000214604F09AFF05F05DFA06F029FC05F09E
:1022F0003AFAF865BDE8F0812DE9F14F9AB0002077
:10230000B54A00908DF83C001C3AA2F5D270DDF879
:1023100068C090F80BB0877A90F809A0037A079309
:10232000C37906938379059390F805E090F80490BB
:10233000C6788578437890F80080A84CCDF8308036
:10234000B2F8148004F18001CDF82080BCF1260F92
:102350007ED2DFE80CF0132F33373B3F4347494D24
:1023600051555967696B6DD6FDFCFBFAF9F8F7F624
:10237000F5F47DF3F2F1F0EFEEEDECEB02219A488B
:1023800002F066F850B10122D103984802F078F8C3
:102390008021974802F070F80022D5E100224FF426
:1023A0000041924802F06CF88021914802F066F8F2
:1023B0000022D8E1096801228EA038E2E16F0222F2
:1023C00091A034E2A16F032294A030E2216F042295
:1023D00097A02CE2616F052299A028E2E16E062207
:1023E0009BA024E207229CE1896A082295A01EE2B4
:1023F000096A092297A01AE20A2299A0089916E20E
:10240000A18B0B229CA012E2CDF828B08DE8684287
:10241000CDE908A79CA228210FA80C9B05F0ACFBD6
:102420000C22F8E10D22A3E10E22A5E10F22A7E183
:102430009F4F0121384602F00BF86C4D4FF40054C9
:102440000E902146284602F003F802210D9000E08C
:10245000E5E1384601F0FCFF66000C903146284665
:1024600001F0F6FF0B900421384601F0F1FF0A90CD
:10247000A100384601F0ECFF09900821384601F030
:10248000E7FF08903146384601F0E2FF824610210E
:10249000384601F0DDFF81462146384601F0D8FF7D
:1024A000534C80460821204601F0D2FF0590A1142C
:1024B000384601F0CDFF83461021204601F0C8FFC9
:1024C00006462115384601F0C3FF054680213846EF
:1024D00001F0BEFF0446B915384601F0B9FF0346C6
:1024E00004A8059ACDF81CA080E804038DE87008C4
:1024F00070A228210FA805F03FFB10220FA976A09B
:102500008BE1DFF8E4808021404601F0ABFF0E90C4
:102510000121404601F0A6FF0D904021404601F008
:10252000A1FF4FF400473946314C12E07AE163E1F4
:102530005EE159E154E14FE14AE144E13EE134E139
:102540002AE120E11BE116E111E1EEE0E8E0E1E043
:10255000DAE00C90204601F085FFDFF884A1A51495
:102560000B902946504601F07DFF26150A90314612
:10257000404601F077FF4FF4006909904946504604
:1025800001F070FF08904946404601F06BFF07904C
:102590003146204601F066FF06902946404601F08C
:1025A00061FF05904946204601F05CFF83466900C3
:1025B000404601F057FF8146AD002946204601F014
:1025C00051FF06462946404601F04CFF0546A1153D
:1025D000504601F047FF85E0AC03002018000020C2
:1025E00078612288A9E78140000402400008024087
:1025F000000C0240736572766F5F76616C75655F83
:10260000706861693A200000736572766F5F766169
:102610006C75655F7361753A2000000073657276B2
:102620006F5F76616C75655F747261693A20000056
:10263000676F635F62616E685F706861693A20000E
:10264000676F635F62616E685F7361753A20000057
:10265000676F635F62616E685F747261693A2000E0
:102660005F414443315F46696C74657265645B31F8
:10267000305D203A200000006C617365725F7472F7
:10268000756F633A20000000202564202564202512
:102690006420256420256420256420256420256489
:1026A0002025642025642025642025642500000061
:1026B0000010024025642564256425642564256492
:1026C00025642564256425642564256425642564C2
:1026D0002564256400000000496E3A2000000000D7
:1026E0000000024004463946404601F0BBFE034666
:1026F000AFF240028DE8700A28210FA805F03CFADD
:1027000011220FA9DDA088E0FFF74CFC0146122240
:10271000DCA08CE0FFF773FC01461322DEA086E00C
:102720001422496AAFF2F40081E00221DF4801F08F
:102730008FFE68B10122D103DD4801F0A1FE8021A6
:10274000DC4801F099FE1522B4F91010DAA06EE011
:1027500000224FF40041D64801F092FE8021D54876
:1027600001F08CFE1522B4F91010DAA05FE01622F9
:102770004968E0A05BE017228968E3A057E01822CF
:10278000C968E5A053E0FFF73AFC002800DA4042B0
:1027900001461922E5A04AE0FFF704FC002800DA10
:1027A000404201461A22E6A041E0FFF79FFB0028C5
:1027B00000DA404201461B22E6A038E0B4F91410CA
:1027C0001D22E9A033E0B4F916101E22E8A02EE085
:1027D0001F22E9A008992AE0D18A2022ECA026E055
:1027E000118B2122F0A022E0518B2222F4A01EE0C6
:1027F000918B2322F8A01AE0027BCDE90AB28DE882
:102800006842CDE908A7AFF2801228210FA80C9BDF
:1028100005F0B2F924220FA9F5A0FEF76FF81BB05E
:10282000BDE8F08FFFF7BEFB01462522F3A0FEF7BF
:1028300006F8F4E70121F34802F0A3BA11B4F24814
:10284000016C009A914201DD002101E0016C491CFC
:102850000164006C18BC4FE5FEF7A0F9012003F0FD
:10286000B1FC012003F0AEFCF6E707B5E64880387E
:10287000C1650099416582650EBD2DE9FF411E4687
:102880000A9F019804F03CFFDF4CDF4D803C6066FE
:102890000198A866E66502986065009804F030FF2C
:1028A000A0660020A0652866B4F91000E8663846E6
:1028B00004F040FF6083B4F91A000A2801DD0A2001
:1028C00001E04FF4FA602083BDE8FF812DE9F84F65
:1028D000CE4BCD4ACE495878CB4FC5074FF01E049A
:1028E00002F180024FF080484FEA807005D0002846
:1028F00010DB3C67C2F800800EE000280ADAD879C5
:10290000192804D901203867C248106004E0142057
:10291000386700E03C671160386F1530F867FEF7E4
:102920003DF90D2806D0BDE8F84F00224FF0814157
:1029300010469AE71878B44E10F0480F4FF00A0589
:102940004FF00004A6F1800635D1810633D4C106CC
:1029500031D419794FF00509C82907D9D7F854C0DF
:10296000BCF1320F02DA706C404205E0322922D20B
:10297000796D32291FDA706CB6F9101000EBC000C7
:1029800001EB800030647C670121106804F00DFDCC
:10299000F96F034691FBF9F29F480090796F306C14
:1029A000FFF76BFFB6F910003064BD67B6F9100091
:1029B0003064BDE8F88F01074FEA406120D5002957
:1029C0003CDB81063AD4C10638D41979C82907D925
:1029D000796D322932DAB6F91000716C401A08E0CC
:1029E00032292BD2796D322928DAB6F91000716CB0
:1029F000084430647C6700941368FA6F796F07E3CA
:102A000000291BDA810619D4C10617D41979C829FF
:102A100007D9796D322911DAB6F91000716C401AB4
:102A200008E032290AD2796D322907DAB6F91000A6
:102A3000716C084430644FF46170C6E110F0480FC7
:102A40004FF4E16116D15FEA806C4FEAC06C12D599
:102A5000BCF1000F0EDB93F804C0BCF1C80F0BD91A
:102A6000D7F854C0BCF1320F04DAB6F91000716C1B
:102A7000401ADFE002E1E0E0D0E000004F55543AB8
:102A800020000000524541445F454E434F444552AB
:102A90005F323A2000000000524541445F454E43FA
:102AA0004F4445525F333A200000000000040240CA
:102AB00000080240000C02402D2D2D2050414745BA
:102AC0002031202D2D2D2053414E20444F20494DA3
:102AD000553A20002D2D2D20504147452031202DE5
:102AE0002D2D2053414E2058414E4820494D553AF6
:102AF000200000006E616E675F6368616E5F7472D4
:102B000061693A20000000006E616E675F63686172
:102B10006E5F7361753A20006E616E675F63686116
:102B20006E5F706861693A2000000000454E434FB7
:102B30004445525F42414E485F504841493A200067
:102B4000454E434F4445525F42414E485F534155C5
:102B50003A200000454E434F4445525F42414E48A3
:102B60005F545241493A2000494D555F583A200080
:102B7000494D555F593A20005F414443315F4669F2
:102B80006C74657265645B31305D3A200000000052
:102B90005F414443325F46696C74657265645B31C2
:102BA000315D3A20000000005F414443315F4669D7
:102BB0006C74657265645B31325D3A200000000020
:102BC0005F414443315F46696C74657265645B3193
:102BD000335D3A20000000005F414443315F4669A5
:102BE0006C74657265645B31345D3A2000000000EE
:102BF0004269745F484D493A200000004543443221
:102C00003A200000A060024098000020010A002045
:102C10006666263F9A99993F0000A041BCF1320FA9
:102C20002CD2D7F854C0BCF1320F27DAB6F9100015
:102C3000716C08443064F848C7E0BCF1000F1DDA3D
:102C400093F804C0BCF1C80F09D9D7F854C0BCF13F
:102C5000320F13DAB6F91000736CC01A0BE0BCF136
:102C6000320F0BD2D7F854C0BCF1320F06DAB6F9E6
:102C70001000736C184430647967BCE65FEA007C2E
:102C80004FF4E17ACAF1000B40F2465E4FEA406C25
:102C90004CD5BCF1000F4FEA806C23DABCF1000F79
:102CA0006BDB5FEAC06C68D493F804C0BCF1C80F5A
:102CB00009D9D7F854C0BCF1320F5EDAB6F910006A
:102CC000716C401A0BE0BCF1320F56D2D7F854C0E9
:102CD000BCF1320F51DAB6F91000716C084430645F
:102CE000504672E0BCF1000F47DA5FEAC06C44D492
:102CF00093F804C0BCF1C80F09D9D7F854C0BCF18F
:102D0000320F3ADAB6F91000716C401A0BE0BCF1E0
:102D1000320F32D2D7F854C0BCF1320F2DDAB6F9E7
:102D20001000716C0844306458464EE0BCF1000F4E
:102D300023DA5FEA806C20D45FEAC06C1DD593F87B
:102D400004C0BCF1C80F09D9D7F854C0BCF1320F88
:102D500013DAB6F91000716C401A0BE0BCF1320FB7
:102D60000BD2D7F854C0BCF1320F06DAB6F9100016
:102D7000716C08443064704627E0DFF8A09210F0D0
:102D8000480F24D15FEA806C21D55FEAC06C1ED564
:102D900093F804C0BCF1C80F09D9D7F854C0BCF1EE
:102DA000320F14DAB6F91000716C401A0BE0BCF166
:102DB000320F0CD2D7F854C0BCF1320F07DAB6F993
:102DC0001000716C084430644846786713E65FEA87
:102DD000007C0AD55FEA406C07D45FEA806C04D4BB
:102DE0005FEAC06C01D47C6709E010F0480F0FD196
:102DF0005FEA806C0CD45FEAC06C09D579670094F7
:102E000013683A6F796F306CFFF737FDBD67D0E517
:102E10005FEA007C0BD45FEA406C08D55FEA806C07
:102E200005D45FEAC06C02D44FF461703AE010F050
:102E3000480F07D15FEA806C04D55FEAC06C01D40B
:102E400075482FE05FEA007C4FEA406C14D5BCF176
:102E5000000F4FEA806C07DABCF1000F17DB5FEA66
:102E6000C06C14D450461DE0BCF1000F0FDA5FEACD
:102E7000C06C0CD4584615E0BCF1000F07DA5FEACD
:102E8000806C04D45FEAC06C01D570460AE010F093
:102E9000480F6FD15FEA806C4FEAC06004D500280C
:102EA00068DA48467867AAE7002863DB58799946CC
:102EB0004FF07E5A4FF07C5B322829D2B6F91000D1
:102EC000306457484167CDF800A0416F53460A224D
:102ED000306CFFF7D2FC4F460DE00A2003F072F988
:102EE000F87918B142464F49642002E04E4A5946EB
:102EF0001420FFF7BAFC78793228EED3B6F9100027
:102F0000306447488567009453460222416F2DE0A4
:102F1000C82830D9B6F91000306400207867CDF8A1
:102F200000A0796F53460A22306CFFF7A6FCDFF849
:102F3000FC804C460EE00A2003F044F9E07920B111
:102F40004FF080425146C82002E0424659461420C4
:102F5000FFF78BFC6079C828EDD8B6F91000306413
:102F6000BD6700200090796F53460222306CFFF756
:102F700084FC1EE563E0786D0A2832DD0094136856
:102F80003A6F396D306CFFF778FCBD67274F5546B7
:102F90005E464C460DE00A2003F014F9E07918B1C2
:102FA00042462946322002E03A4631461420FFF7D5
:102FB0005CFC20793228EED31D4F4FF04048207939
:102FC000C828D6D90A2003F0FDF8E07918B14246A6
:102FD0002946322002E03A4631461420FFF745FCEC
:102FE000EDE7786D32282ADD99F80400C82804D965
:102FF000B6F91000716C401A05E032281AD2B6F901
:103000001000716C0844306400941368FA6F396DD5
:10301000306CFFF732FCC8E47CFCFFFFBAFAFFFF1C
:1030200098000020CDCC4C3D0000A0410000A04005
:103030000000A0C0009413683A6F396DE3E6B6F95A
:103040001000306400941368002211468EE770B5BA
:10305000FE4CA0780126FE4D022801D1E07830B365
:10306000A078022817D1E078012814D1A88B0F2866
:1030700011D3A88B28280ED80022F6491046FFF756
:10308000F4FBA078022805D1E078012802D1A88BB2
:1030900064280CD870BDA0780228FBD1E078022803
:1030A000F8D1A88B3228F5D3A88B5A28F2D8AE6471
:1030B00070BD2DE9FF4182B015460C9C12F1FF4F07
:1030C00001D382F000454FF07E56B4F5000F01DACF
:1030D000E14C02E0B44200DD3446DDE90201401A71
:1030E00000D5404247F2F858009088B3059937461A
:1030F00088420ADA084604F003FB0746009804F009
:10310000FFFA394604F013F907462146304604F029
:10311000D6F8394604F0D9F8214604F07EF829465D
:1031200004F0D3F80446294604F076FB00D22C467E
:10313000204605F039FB04F0FDFA0190012801DA80
:1031400001200190DDE90001884206DC02980CE0D4
:10315000FFE74246002103980AE0DDE902108842B9
:10316000019901DA084400E0401A42460021039028
:1031700006B0BDE8F04100F079BF2DE9F843B44C4A
:10318000B64D8034B64F009541F26806E16833468B
:103190003A4644F620684046FFF78BFFE060009512
:1031A000616833463A464046FFF783FF606000950A
:1031B000A16833463A464046FFF77BFFA060E168CE
:1031C00004F1840080F83010E168090A80F82F10BB
:1031D000616880F826106168090A00F8251FA16857
:1031E0008171A168090A4171BDE8F883F8B500252D
:1031F0004FF0804633461E22294628460095FFF7A9
:103200003CFB00244FF4C87706E000BFFDF7D3FC79
:1032100030B9012002F0D6FFFEF7C4FEB842F5DB5C
:10322000641C642CF8DBFFF7A8FF00244FF4E1775F
:1032300006E000BFFDF7BFFC30B9012002F0C2FF7D
:10324000FEF7B0FEB842F5DB641C642CF8DB814F5E
:10325000002239461046FFF708FBFFF7F8FE002171
:1032600033461E2208460095FFF707FB00244FF463
:103270007A7505E0FDF79FFC30B9012002F0A2FF4E
:10328000FEF790FEA842F5DB641C642CF8DB39469F
:10329000BDE8F84000221046FFF7E7BA2DE9F041FB
:1032A000054640F28620854239DD40F60E10854203
:1032B00002DBB420BDE8F0816A48002450F82410F5
:1032C000A94229DC00EB84014968A94224DB00EB18
:1032D000840150F824704968C81B04F011FA0646AE
:1032E000E81B04F00DFA314604F021F805465D486C
:1032F000903800EB840150F824404968081B04F022
:10330000FFF9294603F0E1FF4FF07C5103F085FF00
:1033100004F010FA2044CDE7641C232CCEDB0520FA
:10332000C8E7514810B5808AFFF7B8FF484988833D
:1033300010BD464E474D454C9E3E00BFFFF7F1FF86
:103340003078800704D5002229461046FFF78DFA11
:10335000A078022805D0FFF7B9FA0A2002F032FF60
:10336000ECE7FFF743FFF8E72920FFF767FA0A20A9
:1033700002F028FFF8E7F8B5354C384D8034384F67
:10338000009540F69806E16833463A460020FFF77C
:1033900090FEE0600095616833463A460020FFF7F2
:1033A00088FE60600095A16833463A460020FFF72A
:1033B00080FEA060A16804F1840080F82B10A16851
:1033C000090A80F82A10616880F826106168090AE5
:1033D00000F8251FE168C172E168090A8172F8BD31
:1033E0001B4CE06C012801D1FFF7C5FF072002F05C
:1033F000E9FEF6E77CB501200024CDE900040502D2
:1034000023462A4619A11C4802F025FD0420CDE9D7
:10341000000400232A4619A11B4802F01CFD0220CB
:10342000CDE9000400232A4618A11C4802F013FD30
:103430000320CDE9000400232A4619A11C4802F00C
:103440000AFDBDE87C4003F090B800009F0A002010
:103450001800002000004040CDCC4C3DCDCCCC3DF0
:10346000000020411C8C0008900300205461736B05
:103470005F4D61696E000000E13300085461736BB9
:103480005F484D4900000000693300085461736BC8
:103490005F436F6E74726F6C5F31000033330008EE
:1034A0005461736B5F436F6E74726F6C5F320000B8
:1034B000592800082DE9F04791460E46044603F0CE
:1034C00001FF054620F00040074616F0FF4F01D0EF
:1034D000314601E04FF07E5103F029FFFE4903F031
:1034E000F4FE04F05FF905F0E9F9DFF8F08300225B
:1034F000434604F00AF8012204F0EBF804F065F901
:10350000F749B5F5000F2DDB8F4207DD0121484655
:1035100003F04BFF214603F080FE1DE004F042F96A
:103520004FF0FF3204F0D5F80022434603F049FF84
:1035300007460D46484604F035F93A462B4603F057
:10354000E7FF07460D46204604F02CF93A462B4685
:1035500003F037FF04F039F90446314604F05CF912
:1035600032D230E015F1FF4F2ED38F4207DD01211B
:10357000484603F01AFF214603F0A4FE1EE004F0C3
:1035800011F94FF03332D74B03F0C2FF002243460C
:1035900003F017FF07460D46484604F003F93A4684
:1035A0002B4603F0B5FF07460D46204604F0FAF817
:1035B0003A462B4603F0A6FF04F007F904463146CD
:1035C00004F020F900D234462046BDE8F0872DE90A
:1035D000F041C54C4FF07E51206E03F01EFE0546B3
:1035E0002066A4F180000027816DBE1EB1F5000F9A
:1035F0001BDB8046284604F00FF93ED23146454693
:10360000D8F8600003F0D1FE0646A96E03F005FE6F
:10361000A866A06EB5F91010401AE16E084404F0D7
:103620006FF8314603F04BFE25E011F1FF4F25D333
:103630008046084604F07EF8002800DA404204F094
:103640005FF8294604F0DEF817D231464546D8F82F
:10365000600003F0AAFE0646A96E03F033FEA866DA
:10366000A06EB5F910100844E16E401A04F048F855
:10367000314603F0D2FD686627661BE60121016230
:10368000416217E62DE9F05F974C803CA06D04F095
:1036900051F8400001D0FFF79AFF606D04F030F858
:1036A0000146D4E91720FFF705FF81462066A06D8B
:1036B00004F040F84000DFF834828D4D8A4FB4F9B1
:1036C00010004FF4E16614D004F01AF8A16E03F074
:1036D000F6FD414603F0F9FD04F02CF8F861F869B5
:1036E000B04201DDFE6119E0F869A84216DAFD6119
:1036F00014E004F005F8A16E03F0E1FD414603F08B
:10370000E4FD04F017F8F861F9694FF46160814253
:1037100003DCF9694042814200DAF861606E754964
:10372000804603F004FE04F005F84FF4616148435D
:1037300003F0E6FF414603F0C5FD03F0FBFF6082A6
:10374000F86900280BDD606BB4F91210401A38617B
:10375000A06BB4F91210401A7861E06B0DE0F869C3
:1037600000280FDAA06AB4F91210401A3861E06A32
:10377000B4F91210401A7861206BB4F91210401A93
:10378000B86105E0484603F0D5FFB8627862386258
:103790003869B042386902DDA0F5616004E0A842F2
:1037A00003DA386900F5616038617869B042786998
:1037B00002DDA0F5616004E0A84203DA786900F553
:1037C00061607861B869B042B86902DDA0F56160F6
:1037D00004E0A84203DAB86900F56160B861F869ED
:1037E000B946002800DA4042434FDFF810B1B0423A
:1037F00070DDD9F81C00002800DA404203F089FF90
:1038000080468A46D9F8100003F083FF00225B4609
:1038100003F0F0FE4246534603F07AFE82468846A5
:10382000B4F9120003F075FF5246434603F0C9FD98
:1038300003F099FFE066D9F81C00002800DA404246
:1038400003F067FF80468A46D9F8140003F061FF51
:1038500000222A4B03F0CEFE4246534603F058FEA8
:1038600080468A46B4F9120003F053FF424653469D
:1038700003F0A7FD03F077FF2067D9F81C000028AC
:1038800000DA404203F045FF83468A46C846D9F82D
:10389000180003F03EFF0022184B03F0ABFE5A461F
:1038A000534603F035FE83468A46B4F9120003F00E
:1038B00030FF5A46534603F084FD03F054FF60671F
:1038C000D8F84400E16E401A40F68C2188421ADD97
:1038D000E06E15E094E000000000A0C00000F03FA2
:1038E0000000A0413333D33F980000200000404047
:1038F000F8F8FFFF0000614574F5FFFF0020AC40C1
:1039000000F5616008E0D8F84400E26E801AB84221
:1039100003DAE06EA0F56160E066D8F84420404626
:10392000E36E4FF46178D31AC8F10002434503DD1A
:10393000E36E03F5E16309E0436CD4F86CC0A3EBDC
:103940000C03934203DAE36EA3F5E163E366836C51
:10395000D4F870C0A3EB0C038B4203DD236F03F597
:10396000616309E0836CD4F870C0A3EB0C03BB4225
:1039700003DA236FA3F561632367836CD4F870C007
:10398000A3EB0C03434503DD236F03F5E16309E07B
:10399000836CD4F870C0A3EB0C03934203DA236F5B
:1039A000A3F5E1632367C36CD4F874C0A3EB0C03E5
:1039B0008B4203DD616F01F5616107E0C16C636FEC
:1039C000C91AB94203DA616FA1F561616167C16C1F
:1039D000636FC91A414503DD616F01F5E16107E0DD
:1039E000C16C636FC91A914203DA616FA1F5E1619D
:1039F0006167E16E4164216F8164616FC164F1E0D0
:103A0000B4F91200E066B4F912002067B4F91200AC
:103A10006067D9F844104846E26E40F68C28891A4F
:103A2000414503DDE16E01F5616107E0416CE26E45
:103A3000891AB94203DAE16EA1F56161E166416C70
:103A4000E26E8B1A40F246514A428B4203DDE36E2E
:103A500003F5E16309E0436CD4F86CC0A3EB0C03FD
:103A6000934203DAE36EA3F5E163E366836CD4F873
:103A700070C0A3EB0C03434503DD236F03F56163C3
:103A800009E0836CD4F870C0A3EB0C03BB4203DAEB
:103A9000236FA3F561632367836CD4F870C0A3EB35
:103AA0000C038B4203DD236F03F5E16309E0836CB4
:103AB000D4F870C0A3EB0C03934203DA236FA3F591
:103AC000E1632367C36CD4F874C0A3EB0C034345D4
:103AD00003DD636F03F5616309E0C36CD4F874C060
:103AE000A3EB0C03BB4203DA636FA3F56163636767
:103AF000C36C676FDB1B8B4203DD616F01F5E16116
:103B000007E0C16C636FC91A914203DA616FA1F5D6
:103B1000E1616167E16E4164216F8164616FC1643D
:103B2000C069002800DA404203F0F3FD07468846EA
:103B3000D9F8100003F0EDFD00225B4603F05AFDBA
:103B40003A46434603F0E4FC07468846E06E03F03D
:103B5000E0FD3A46434603F034FC03F004FEE06621
:103B6000D9F81C00002800DA404203F0D2FD80465C
:103B70000F46D9F8140003F0CCFD00225B4603F099
:103B800039FD42463B4603F0C3FC80460F46206F9A
:103B900003F0BFFD42463B4603F013FC03F0E3FD98
:103BA0002067D9F81C00002800DA404203F0B1FD7C
:103BB00007468846D9F8180003F0ABFD00225B46A3
:103BC00003F018FD3A46434603F0A2FC0746884638
:103BD000606F03F09EFD3A46434603F0F2FB03F0AC
:103BE000C2FD6067E06EA84201DA284602E0B042FA
:103BF00000DD3046C0F5E162206FA84201DA2846B8
:103C000002E0B04200DD3046C0F5E161606FA842DD
:103C100001DA284602E0B04200DD3046C0F5E1633B
:103C2000C2EB02324FF4616092FBF0F20A32A267FB
:103C3000C1EB013191FBF0F10A314D46C9F800109A
:103C4000C3EB033191FBF0F01438E067A06F2081E3
:103C5000E06F6081D9F80000A081FEF7F4F8E86910
:103C6000002800DA4042B2460A26FA4F50457DDD70
:103C7000E86900283CDD206E03F094FD8046606F0B
:103C80008946E16B401A90FBF6F003F039FDBB4624
:103C9000394603F01AFB03F085FD04F0C1FD4246EE
:103CA0004B4603F035FC03F05EFDA862206E03F086
:103CB00079FD8046206F0F46A16B401A90FBF6F00D
:103CC00003F01EFD594603F000FB03F06BFD04F00A
:103CD000A7FD42463B4603F01BFC03F044FD68622F
:103CE000206E03F05FFD0746E06E8846616B40E0A2
:103CF000E869002851DA206E03F054FD8046606FB9
:103D00008946216B401A90FBF6F003F0F9FCBB46A4
:103D1000394603F0DAFA03F045FD04F081FD42462E
:103D20004B4603F0F5FB03F01EFDA862206E03F086
:103D300039FD0746206F8846E16A401A90FBF6F08D
:103D400003F0DEFC594603F0C0FA03F02BFD04F04B
:103D500067FD3A46434603F0DBFB03F004FD68626F
:103D6000206E03F01FFD0746884600E021E0E06E6C
:103D7000A16A401A90FBF6F003F0C2FC594603F02A
:103D8000A4FA03F00FFD04F04BFD3A464FEA080396
:103D900003F0BEFB03F0E7FC2862206E4FF07E527A
:103DA00090427ADC696E0020002950DC686620664B
:103DB00054E0206E03F0F6FC8046606F8946B4F94B
:103DC0001210401A90FBF6F003F09AFCBB463946FD
:103DD00003F07BFA03F0E6FC04F022FD42464B467A
:103DE00003F096FB03F0BFFCA862206E03F0DAFC40
:103DF0000746206F8846B4F91210401A90FBF6F07F
:103E000003F07EFC594603F060FA03F0CBFC04F0AB
:103E100007FD3A46434603F07BFB03F0A4FC6862CF
:103E2000206E03F0BFFC0746E06E8846B4F912101E
:103E3000401A90FBF6F003F063FC594603F045FA94
:103E400003F0B0FC04F0ECFC43463A46A0E7491E00
:103E500069660121226629626962A962696EB1F50B
:103E6000FA7F1DDA696C002900DA49425246914214
:103E70000BDAA96C002900DA4942914205DAE96CB3
:103E8000002900DA494251450ADBE0666864206790
:103E9000A8646067E86403E0FFE7B4F918006866A7
:103EA000286A41426C480171296A4942090AC17075
:103EB000696A0176696A090AC175A96A8173A96A82
:103EC000090A4173BDE8F09F2DE9F84FFFF729FA81
:103ED000624DAB8B0122624E6248002741F26801BD
:103EE00005F18004462B05D3AB8B822B02D82A71B7
:103EF000EF700FE0AB8B462B05D2AB8B822B02D938
:103F0000EA702F7120E02A79012A03D0EA78012A89
:103F10001AD033E088460B460096E1688146024697
:103F200044F6206A5046FFF7C4F8E06000966168E6
:103F300043464A465046FFF7BCF860600096A168C9
:103F400043464A46504616E088460B460096E168CE
:103F5000814602460020FFF7ACF8E06000966168F9
:103F600043464A460020FFF7A4F860600096A16827
:103F700043464A460020FFF79CF8A060A88B4FF00C
:103F80008043372802D31E22009704E0A88B3728ED
:103F900005D20122009700210846FEF76EFCE16879
:103FA0002D4880F83010E168090A80F82F10616808
:103FB00080F826106168090A00F8251FA168817140
:103FC000A168090A4171BDE8F88F704738B5FCF760
:103FD00012FEFCF73DFEFDF704F8FCF72EFFFDF79F
:103FE00071F8FDF7E2F8FDF751F9FCF754FE1E4CAD
:103FF0000021204601F00EF94FF4E1352846FDF787
:104000003DFA2846FDF7BCFA2846FDF721FDE800F9
:10401000FDF7F5FBFDF70DFD2846FDF7BDFD0A2078
:10402000FCF7DDFD0121204601F0F4F80A20FCF741
:10403000D6FDFEF718F900204FF07E5302460146E8
:104040000090FEF71AFC6420FCF7C9FDFFF7D2F9D7
:10405000002038BD35FA8E3C1C01002018000020DD
:10406000CDCCCC3D000020410010004007B5DDE97B
:104070000001884202DB0299884200DD08460EBD3D
:104080000CB500205149019000900A6842F480323A
:104090000A604FF4A0630A6802F400320092019AA9
:1040A000521C0192009A12B9019A9A42F3D10A68FD
:1040B000920334D50120009044484030026842F019
:1040C000805202604248026842F4804202603F48E7
:1040D000083002680260026842F40042026002682E
:1040E00042F4A0520260031F3A4A1A600A6842F082
:1040F00080720A600A689201FCD5374A40F2056175
:104100001160016821F003010160016841F00201C2
:1041100001600168C1F381010229FAD10CBD009050
:104120000CBD2A4810B5016841F001010160274A21
:104130000021083211600268284B1A400260031DFA
:10414000274A1A60026822F4802202601F480C305D
:104150000160FFF795FF23494FF00060086010BD34
:1041600070B51A4C083420681F4A10F00C011F4823
:1041700004D05510042903D0082903D002601BE0A5
:10418000056019E01149091D0B68C3F380560B68DF
:1041900003F03F0316B1B5FBF3F201E0B2FBF3F21B
:1041A0000B680968C3F388135A43C1F30141491CE2
:1041B0004900B2FBF1F1016021680C4AC1F303111F
:1041C000121D515C0268CA40026070BD0038024096
:1041D0000070004008544007003C0240FFFFF6FE1C
:1041E0001030002408ED00E00024F40064010020F9
:1041F0000648804706480047FEE7FEE7FEE7FEE781
:10420000FEE7FEE7FEE7FEE7FEE7FEE723410008E4
:10421000890100082849084328490860704730B5DB
:104220000F22C47801780123FCB1244C246801F1E9
:10423000E02104F4E064C4F5E064C4F30724C4F1AD
:104240000405E2404478AC408578154025432A01B6
:1042500081F80024007800F01F018B4040098000A5
:1042600000F1E020C0F8003130BD01F01F008340B4
:104270004809800000F1E020C0F8803130BD104ACC
:10428000114001430D48001F016070470B4A121D89
:104290000029116801D0014300E08143116070479B
:1042A0004FF0E0210428086903D020F004000861E1
:1042B000704740F00400FAE70000FA050CED00E05A
:1042C00080FFFF1F7C4910B5884206D101210846B6
:1042D00000F058FA002101204FE07849884206D1C9
:1042E0000121022000F04EFA0021022045E074492D
:1042F000884206D10121042000F044FA0021042064
:104300003BE07049884206D10121082000F03AFACA
:104310000021082031E06C49884206D1012110209B
:1043200000F030FA0021102027E06849884206D1C9
:104330000121202000F026FA002120201DE0644900
:10434000884206D10121402000F01CFA00214020C3
:1043500013E06049884206D10121802000F012FA62
:104360000021802009E05C4988420AD1841501219E
:10437000204600F007FA00212046BDE8104000F07A
:1043800001BA10BDF0B50023012403270D6804FA1B
:1043900003F21540954242D1D0F800C05E0007FA02
:1043A00006F52CEA050CC0F800C091F804C0D0F85E
:1043B00000E00CFA06FC4CEA0E0CC0F800C091F8C4
:1043C00004C0BCF1010F02D0BCF1020F1FD1D0F824
:1043D00008C02CEA050CC0F808C091F805C0D0F858
:1043E00008E00CFA06FC4CEA0E0CC0F808C0D0F845
:1043F00004C02CEA020CC0F804C0426891F806C060
:104400000CFA03FC1FFA8CFC42EA0C024260C26800
:10441000AA43C260CA79C568B2402A43C2605B1C25
:10442000102BB3D3F0BD4FF6FF7101600021017175
:1044300041718171C171704708B541F480320092B9
:10444000C261C1610099C161C169C069009008BDC4
:104450000246002012690A4200D00120704700691C
:1044600080B270470246002052690A4200D0012003
:104470007047406980B2704701837047418370473D
:104480000AB10183704741837047416170474269B7
:104490004A40426170474B07DB0E9A40C90810B58D
:1044A00000EB8100016A0F249C40A1430162016A74
:1044B0001143016210BD00000000024000040240F0
:1044C00000080240000C02400010024000140240AC
:1044D00000180240001C024000200240EA48016827
:1044E00041F001010160E84A0021083211600268D0
:1044F000E64B1A400260031DE54A1A60026822F486
:1045000080220260E0480C3001607047DE490022E2
:10451000891C0A7008707047024600205109012961
:104520000CD002290CD0D8497431096802F01F025E
:10453000012393400B4200D001207047D249F4E799
:10454000D1497031F1E718B500204FF4A064009014
:104550003120FFF7E1FF0099491C0091A14201D0F1
:104560000028F5D03120FFF7D7FF002800D0012028
:1045700018BDC5490A6822F0F80242EAC000086086
:104580007047C44908607047BF49002270310A7003
:104590000A70012802D0042801D105200870704754
:1045A000BD490860704741EA82115A0810B5BB4BFB
:1045B000029C03EB02421143014341EA0460B24909
:1045C000091D086010BDB34908667047800140EAC4
:1045D0000170AD49843108607047AE498866704704
:1045E000AC49C8647047A84A08321368084323F0EE
:1045F000EC63184310607047A34A083213680843FD
:1046000023F078431843106070479F4A08321168BE
:1046100021F003010143116070479B480830006896
:1046200000F00C007047984A0832116821F0F00140
:10463000014311607047944A0832116821F4E05137
:10464000014311607047904908310A6822F46042C2
:1046500042EAC0000860704770B58B4A08321168A2
:104660008F4C11F00C0104D06610042903D00829E6
:1046700003D004601BE0066019E08349091D0B6844
:10468000C3F380550B6803F03F0315B1B6FBF3F39A
:1046900001E0B4FBF3F30C680968C4F388146343C6
:1046A000C1F30141491C4900B3FBF1F101601168FC
:1046B0000F2303EA11117B4B5C5C0168E140416010
:1046C0001468072505EA94241C5D21FA04F484602B
:1046D000126805EA52329A5CD140C16070BDC0F3E5
:1046E0000121032908D1684A0832116821F4F8131E
:1046F0006D49014019431160634970310A68C0F384
:104700000B0002430A6070476349443908607047F0
:1047100061494039086070475E49C1F85C017047E3
:10472000594A30320029116801D0014300E0814329
:1047300011607047544A34320029116801D0014396
:1047400000E08143116070474F4A383200291168F8
:1047500001D0014300E08143116070474A4A403272
:104760000029116801D0014300E0814311607047C6
:10477000454A44320029116801D0014300E08143D9
:1047800011607047404A10320029116801D001437E
:1047900000E08143116070473B4A143200291168E0
:1047A00001D0014300E0814311607047364A18325E
:1047B0000029116801D0014300E081431160704776
:1047C000314A20320029116801D0014300E08143C1
:1047D000116070472C4A24320029116801D001432E
:1047E00000E0814311607047274A50320029116868
:1047F00001D0014300E0814311607047224A5432E6
:104800000029116801D0014300E081431160704725
:104810001D4A58320029116801D0014300E081434C
:1048200011607047184A60320029116801D00143B5
:1048300000E0814311607047134A64320029116817
:1048400001D0014300E08143116070470E4A0D32F0
:104850000029117801D0014300E0814311707047B5
:1048600009487430016841F0807101607047014669
:10487000054A00200C3212680A4200D0012070471D
:1048800001490E310870704700380240FFFFF6FE04
:104890001030002400004742800E47420000FFFF16
:1048A0000024F40078010020FFFCFF0F10B5012167
:1048B0000C022046FFF78EFF2046BDE81040002185
:1048C000FFF788BF30B54268C84B0C791A400B68B7
:1048D00042EA0422134343608268C54B4D791A4073
:1048E000D1E9034323438C6844EA4504234313433B
:1048F0008360C26A097D22F47002491EC9B242EA8D
:104900000151C16230BD00210160017141718160BE
:10491000C1600161012101757047B64B10B5D3F834
:104920000423B5490A40D0E900142143D0E90240EC
:10493000044321431143C3F8041310BD0021016057
:1049400041608160C16070470029816802D041F0F8
:10495000010101E021F00101816070474268A74B2D
:104960001A400A434260704741628262704742685F
:1049700022F01F020A43426070479E490028D1F886
:10498000040302D040F4000001E020F40000C1F86C
:104990000403704797490028D1F8040302D040F47B
:1049A000800001E020F48000C1F80403704770B576
:1049B000072409290AD9C568A1F10A0606EB4606AB
:1049C000B440A543B3401D43C56007E0056901EB52
:1049D0004106B440A543B3401D4305611F23072A88
:1049E00009D2446B521E02EB820293409C439140D9
:1049F0000C43446370BD0D2A09D2046BD21F02EB35
:104A0000820293409C4391400C43046370BDC46A8E
:104A10000D3A02EB820293409C4391400C43C462E6
:104A200070BD816841F0804181607047014600207F
:104A30008968490200D5012070470029816802D0A9
:104A400041F4806101E021F48061816070470029B8
:104A5000816802D041F0020101E021F00201816091
:104A600070474268491E22F4604242EA4131416087
:104A700070470029416802D041F4006101E021F44F
:104A8000006141607047C06C80B270475948D0F8EF
:104A9000080370470029816802D041F4807101E069
:104AA00021F48071816070470029816802D041F44F
:104AB000007101E021F40071816070474D490028C8
:104AC000D1F8040302D040F4005001E020F400507B
:104AD000C1F80403704770B5072409290AD9C568CD
:104AE000A1F10A0606EB4606B440A543B3401D43B8
:104AF000C56007E0056901EB4106B440A543B3403A
:104B00001D430561836BC3F30154121B921C02EB1E
:104B100082041F22A2409343A1400B43836370BDD4
:104B2000826B491E22F4401242EA015181637047B0
:104B300008B508440090026008BD826822F4702223
:104B40000A4382607047826822F440120A438260FE
:104B50007047816841F48001816070470146002000
:104B60008968490200D5012070470029416802D0B8
:104B700041F4806101E021F48061416070470029C7
:104B8000416802D041F4805101E021F4805141603C
:104B9000704708B5084428300090006880B208BD0E
:104BA00001238B4041680AB1194300E099434160F9
:104BB00070470246002012680A4200D00120704768
:104BC000C9430160704730B50246002053680C0AA3
:104BD00001258D4011682B40214202D0002B00D0CE
:104BE000012030BD6FEA112101607047FFFEFFFC1C
:104BF000FDF7FFC000200140E030FCFFFFFD3FFF5C
:104C00002DE9F043016821F00101016000210160FC
:104C100041608160C160016121214161B849B84AA8
:104C20003D251039904202D18D60BDE8F083B44A31
:104C30004FF474661832904201D18E60F5E7B04AA5
:104C40004FF474173032904201D18F60EDE7AC4AD7
:104C50004FF0746C4832904202D1C1F808C0E4E7CA
:104C6000A74BA84A6033984201D1CA60DDE7A44C43
:104C7000A54B7834A04201D1CB60D6E7DFF8808223
:104C8000A24C08F19008404501D1CC60CDE7DFF897
:104C900070824FF03D5908F1A808404502D1C1F893
:104CA0000C90C2E79A49DFF868820839404501D183
:104CB0000D60BAE7964D1835A84201D10E60B4E7F1
:104CC000934D3035A84201D10F60AEE7904D483585
:104CD000A84202D1C1F800C0A7E78D4D8C496035CC
:104CE000091FA84201D10A609FE7894A78329042A1
:104CF00001D10B6099E7864A9032904201D10C6055
:104D000093E7834AA83290428FD1C1F800908CE794
:104D100030B503687F4ACC6813400A682243D1E962
:104D200005452C432243CC6922430C6A22434C6A3A
:104D300022438C6A22434C6B22438C6B22431A43DE
:104D40000260426922F00703D1E90B2422431A438F
:104D500042610A6942604A6882608968C16030BD08
:104D60000021016041608160C16001614161816138
:104D7000C161016241628162C16201634163816319
:104D800070470029016802D041F0010101E021F0E3
:104D90000101016070470029016802D041F400411F
:104DA00001E021F40041016070470029016802D050
:104DB00041F0200101E021F02001016070474160D5
:104DC0007047406880B27047002A026802D042F4FF
:104DD000002201E022F400220260016170470029F4
:104DE000016802D041F4802101E021F480210160BA
:104DF00070470AB101617047C160704701460020E9
:104E00000968090300D501207047014600200968A0
:104E1000C90700D001207047406900F03800704792
:104E200002463B4B00209A4202D2354A103A01E03A
:104E3000374A103A8B0001D5526800E01268364BB1
:104E40001A400A4200D001207047314A904202D2F3
:104E50002B48103801E02E4810382F4A8B0001EA09
:104E6000020101D5C1607047816070470B0607D50C
:104E7000436912B143F0800301E023F080034361F2
:104E8000802908D0002A026801F01E0101D00A43DF
:104E900000E08A430260704730B51D4A002490420A
:104EA00002D2174B103B01E0194B103B1B4A114239
:104EB00005D01E2202EAD12502682A4002E040699C
:104EC00000F08002880001D5586800E01868124B95
:104ED0001840084201D002B10124204630BD0C4ADE
:104EE000904202D20648103801E0094810380A4AB8
:104EF0008B0001EA020101D5C160704781607047F3
:104F0000106002403D000020400F002000003D20C6
:104F1000106402403F801CF07D0F7D0F3C0F3C0F62
:104F2000374900200860091D0860091D0860091D37
:104F300008603349334814310860704730B5304950
:104F40008379026853B30B6893430B600A1D13689F
:104F50000468A343136002790A4413680468234376
:104F60001360274A083213680468A3431360131DB3
:104F70001C680568AC431C604479102C05D02144A2
:104F80000A68006802430A6030BD11680468214362
:104F90001160196800680143196030BD0079084448
:104FA00001689143016030BD0021016001710C2254
:104FB000427181717047124910310A6802430A60D8
:104FC000704701460E4A0020143212680A4200D08F
:104FD000012070470A49143108607047084A0146A9
:104FE00000201268064B0A4014331B680B4202D0A3
:104FF000002A00D001207047014914310860704731
:10500000003C0140FFFF7F00FE4910B5884206D1F9
:1050100001210846FFF7DEFB002101205BE0B0F133
:10502000804F09D0F84988420DD101210220FFF7B5
:10503000C7FB0021022070E001210846FFF7C0FBFA
:105040000021012069E0F149884206D101210420B4
:10505000FFF7B6FB002104205FE0ED49884206D14E
:1050600001210820FFF7ACFB0021082055E0E949A9
:10507000884206D101211020FFF7A2FB0021102059
:105080004BE0E549884206D101212020FFF798FB3B
:105090000021202041E0E149884206D1012102207F
:1050A000FFF798FB0021022015E0DD49884202D17C
:1050B00001210C040AE0DB49884202D101214C04A1
:1050C00004E0D94988420AD101218C042046FFF727
:1050D00081FB00212046BDE81040FFF77BBBD34990
:1050E000884206D101214020FFF76AFB00214020C1
:1050F00013E0CF49884206D101218020FFF760FBF1
:105100000021802009E0CB4988420AD18415012181
:105110002046FFF755FB00212046BDE81040FFF771
:105120004FBB10BD30B50288B64BBC4C98420DD079
:10513000A0420BD0B0F1804F08D0B34DA84205D0AB
:10514000B24DA84202D0B24DA84203D122F0700560
:105150004A882A43AF4DA84206D0AF4DA84203D09B
:1051600022F440750A892A4302804A68C2620A888A
:105170000285984201D0A04201D1897A018601219D
:10518000818230BD4FF0FF314160002101800181FB
:10519000418081727047018582827047028822F0C7
:1051A00070020A430280704741627047C1627047D3
:1051B000406A7047008D70470029018802D041F095
:1051C000020101E021F002010180704700290188FD
:1051D00002D041F0040101E021F004010180704798
:1051E0000029018802D041F0800101E021F0800116
:1051F00001807047028822F00802028002880A4378
:1052000002807047028822F44072028002880A43BA
:10521000028070470029018802D041F0010101E0BD
:1052200021F001010180704730B5028C22F00102AB
:105230000284028C8388048B22F0020224F073051E
:105240000C882C438D8915434A882A436D4DA8420A
:1052500002D0724DA8420DD122F00805CA8923F46C
:1052600040732A4322F004058A882A430D8A1D438D
:105270004B8A2B438380048389684163028430BD59
:1052800070B5028C22F010020284028C8488038B99
:105290000D8823F4E6464FF6FF7303EA05253543F0
:1052A0008E8922F0200203EA061616434A8803EA92
:1052B00002123243534EB04202D0584EB04215D182
:1052C00022F08006CA8924F4406403EA02123243C1
:1052D00022F040068A8803EA021232430E8A03EA69
:1052E000860626434C8A03EA84043443848005837B
:1052F00089688163028470BD70B5028C22F480726B
:105300000284028C8488838B0D8823F073031D43F1
:1053100022F400738E894FF6FF7202EA06261E43BE
:105320004B8802EA03233343364EB04202D03B4E51
:10533000B04215D123F40066CB8924F4405402EA2C
:105340000323334323F480668B8802EA0323334329
:105350000E8A02EA061626434C8A02EA04143443F3
:10536000848085838968C163038470BD70B5028CB5
:1053700022F480520284048C8288838B0D8823F46B
:10538000E6464FF6FF7303EA0525354324F400563D
:105390008C8903EA043434434E8803EA06362643F4
:1053A000184CA04202D01D4CA04205D122F48044EA
:1053B0000A8A03EA82122243828085838968016413
:1053C000068470BD002101804180818081608181DF
:1053D000C18101824182704730B50124058C00F102
:1053E00018038C40A543058431B308292CD0091F2C
:1053F000C1F34E001844016848F6FF73194001607C
:1054000001681AE00000014000040040000800406C
:10541000000C004000100040001400400004014057
:105420000040014000440140004801400018004095
:10543000001C00400020004006E04FF6FF7303EA26
:1054400002221143016030BD03EB510001684FF6A9
:105450008F73194001600168F3E74163704781630E
:105460007047C163704701647047028B22F070027D
:105470000A4302837047028B4FF6FF7322F4E04227
:1054800003EA0121114301837047828B22F07002ED
:105490000A4382837047828B4FF6FF7322F4E04207
:1054A00003EA0121114381837047028B22F0080235
:1054B0000A4302837047028B4FF6FF7322F40062A7
:1054C00003EA0121114301837047828B22F0080215
:1054D0000A4382837047828B4FF6FF7322F4006287
:1054E00003EA0121114381837047028B22F00402F9
:1054F0000A4302837047028B4FF6FF7322F48062E7
:1055000003EA0121114301837047828B22F00402D8
:105510000A4382837047828B4FF6FF7322F48062C6
:1055200003EA0121114381837047028B22F080023C
:105530000A4302837047028B4FF6FF73C2F30E02D9
:1055400003EA0121114301837047828B22F080021C
:105550000A4382837047828B4FF6FF73C2F30E02B9
:1055600003EA0121114381837047028C22F0020279
:105570000A4302847047028C22F008020A43028424
:105580007047028C4FF6FF7322F0200203EA0111EC
:10559000114301847047028C4FF6FF7322F08002A2
:1055A00003EA0111114301847047028C4FF6FF7327
:1055B00022F4007203EA0121114301847047028C36
:1055C0004FF6FF7322F4006203EA012111430184C4
:1055D0007047028C4FF6FF7322F4005203EA013148
:1055E00011430184704710B50123048C8B409C4308
:1055F0000484038C8A401343038410BD10B5042334
:10560000048C8B409C430484038C8A4013430384A2
:1056100010BD828B22F440628283828B4FF6FF732F
:1056200003EA01210A4382837047828B22F00C0235
:105630008283828B0A4382837047028B22F440620A
:105640000283028B4FF6FF7303EA01210A430283B0
:105650007047F0B5048C24F010040484078B068C8A
:105660004FF6FF7404EA011527F4734704EA033187
:10567000394304EA02220A4326F0A001294341F0FB
:10568000100102830184F0BD028B22F00C02028320
:10569000028B0A43028370472DE9F0410D460E88C4
:1056A0004988AA882B8904460EB3042E26D0082EDA
:1056B000268C4FF6FF7028D026F480562684A78BC0
:1056C000268C00EA022200EA013127F473473A43AC
:1056D00000EA0330104326F420420A4342F480518A
:1056E000A0832184E9882046BDE8F04191E700F0DD
:1056F00062F9E9882046BDE8F041C5E7FFF7A9FF58
:10570000E9882046BDE8F04197E726F480762684B4
:10571000A78B268C00EA012100EA0310104327F032
:10572000F307384326F420620A4342F48071A083D1
:105730002184E9882046BDE8F04176E70021018018
:10574000418001228280C180018170472DE9F041B2
:105750000C46002649880746012501B90226A28881
:10576000012A00D10225208823890028384610D03C
:10577000FFF76FFFE1883846FFF75FFF23892A466E
:105780003146384600F017F9E1883846BDE8F04167
:105790007AE700F010F9E1883846FFF775FF2389B2
:1057A0002A4631463846FFF754FFE1883846BDE8BF
:1057B000F04142E7406B7047806B7047C06B7047A9
:1057C000006C704710B50A884B88CC881A438B88C8
:1057D00023431A430B891A434B8989891A430A4385
:1057E000A0F8442010BD0021018041808180C1804B
:1057F0000181418181817047002930F8441F02D026
:1058000041F4004101E0C1F30E010180704700291D
:10581000818802D041F0040101E021F0040181807F
:1058200070470029818802D041F0010101E021F098
:10583000010181807047002A828901D00A4300E07B
:105840008A43828170478182704702460020128A13
:105850000A4200D001207047C943018270470246C6
:105860000020138A92890B4202EA010202D0002A28
:1058700000D001207047C943018270471143A0F84E
:1058800048107047002A828901D00A4300E08A4309
:10589000828170470029818802D041F0080101E02F
:1058A00021F0080181807047018921F00701018101
:1058B0007047028922F070020A430281704700B5E6
:1058C0000346FFF7F6FF188940F00700188100BD76
:1058D00070B516460D46602904464FF00102314668
:1058E0000AD000F068F829462046FFF7E2FF208939
:1058F00040F00700208170BDFFF7ABFEF3E730B545
:1059000004894FF6FF7505EA03231343E4B20B4302
:105910002343038130BD10B50446FFF7F0FF208913
:1059200040F07700208110BD10B50446FFF7E7FF77
:10593000208940F48040208110BD828822F07002CE
:10594000828082880A4382807047028922F007029F
:10595000028102890A4302817047028922F0800293
:10596000028102890A430281704770B50589048B60
:10597000068C25F007050D434FF6FC410C4040F224
:1059800001110C434FF6FF7101EA031126F02206C4
:105990001143314305810483018470BD002981884E
:1059A00002D041F0800101E021F080018180704748
:1059B000A0F85010704770B5048C24F001040484E2
:1059C000058B048C4FF6FF7606EA0313134325F08C
:1059D000F3052B4324F00A020A4342F0010103833A
:1059E000018470BDC74910B5884206D1012110203D
:1059F000FEF7F0FE0021102028E0C349884202D1C2
:105A000001214C0410E0C149884202D101218C04DB
:105A10000AE0BF49884202D10121CC0404E0BD491B
:105A200088420AD101210C052046FEF7C9FE204616
:105A3000BDE810400021FEF7C3BEB749884209D136
:105A400001212020FEF7C6FE00212020BDE81040E5
:105A5000FEF7C0BE10BD7FB50446008A0D4620F497
:105A60004051E88808432082A08941F20C618843B4
:105A7000A9882A8911436A8902431143A181A08A16
:105A800020F44071A8890843A0826846FEF7E4FD2F
:105A90009C48844202D0A048844201D1039800E08F
:105AA0000298A189090400EBC00101EB00102968EC
:105AB00001D5490000E08900B0FBF1F26420B2FB9F
:105AC000F0F109010B096FF018056B4302EB83023B
:105AD000A3891D044FF0320306D503EBC202B2FBCB
