:020000040800F2
:10000000A03B012045490008390200083B020008D6
:100010003D0200083F020008410200080000000005
:10002000000000000000000000000000A101000826
:100030004302000800000000E50100088D78000878
:100040005F4900085F4900085F4900085F490008F0
:100050005F4900085F490008DD0400085F490008A7
:10006000DB0400085F4900085F490008330300080B
:100070000D030008A1030008C3030008690200087B
:100080005F4900087F0300085F4900085F490008D6
:100090005F4900085F4900085F490008E304000861
:1000A0005F49000829040008550400085F4900085A
:1000B0005704000877040008970400085F49000807
:1000C0005F4900085F4900085F490008D70400083D
:1000D0005F490008490200085F4900085F490008BD
:1000E000190700085F4900085F4900085F490008D8
:1000F0005F4900085F4900085F4900085503000890
:100100005F4900085F490008B7040008D9040008E7
:100110005F4900085D190008EF030008210400088A
:100120009702000871020008BD0200085F4900083C
:100130005F4900085F4900085F4900085F490008FF
:100140005F4900085F4900085F4900085F490008EF
:10015000030300085F4900085F4900085F49000881
:100160005F4900085F4900085F4900085F490008CF
:100170005F4900085F4900085F4900085F490008BF
:100180005F4900085F490008DFF810D008F058F810
:100190000048004731470008AFF30080A03B012032
:1001A000224B19680868B0E8F00F80F30988BFF3A4
:1001B0006F8F4FF0000080F311884EF00D0E7047E6
:1001C0000000000006480068006880F3088862B6F6
:1001D00061B6BFF34F8FBFF36F8F00DF00BF00BF6B
:1001E00008ED00E0EFF30980BFF36F8F0F4B1A6843
:1001F00020E9F00F106008B54FF0500080F311882F
:10020000BFF34F8FBFF36F8F06F022FC4FF000005B
:1002100080F31188BDE8084019680868B0E8F00F5D
:1002200080F30988BFF36F8F704700BFAC010020D7
:10023000EFF30580704700007047FEE7FEE7FEE73A
:10024000FEE770477047704710B5F74C40F22551F4
:10025000204606F0DCF8002805D02046BDE8104016
:10026000202106F0D1B810BDF049F14805F0E1B900
:1002700070B5F04CF04D2146284605F0B7F900283E
:1002800008D02146284605F0D4F901F0BBFCEB4923
:100290000120087070BD70B5E74DE94C183D21464E
:1002A000284605F0A3F9002807D001F0EFFF21460A
:1002B0002846BDE8704005F0BCB970BDDE4810B5F9
:1002C000E049183005F0B5F9DF48417A0D2905D02D
:1002D000BDE810400021D44805F0D8BF417802782D
:1002E00041EA0221D94A1180C178827841EA02218B
:1002F000D74A11804179007941EA0020D549088028
:1003000010BDCD48D449603005F093B970B5C84DE3
:10031000C84C483D2146284605F068F9002807D01A
:100320002146284605F085F9BDE8704000F0B3BBD2
:1003300070BD70B5BE4DC24C603D2146284605F0EB
:1003400055F9002805D021462846BDE8704005F043
:1003500070B970BD70B5B64CC04D483429462046C2
:1003600005F044F9002809D00021204605F0B3F833
:1003700029462046BDE8704005F05BB970BD70B5F8
:10038000AB4DB74C30352146284605F02FF90028F3
:1003900005D021462846BDE8704005F04AB970BD39
:1003A00070B5A34DA74C303D2146284605F01EF9F7
:1003B000002805D021462846BDE8704005F039B92F
:1003C00070BD10B59A4CA749183C204605F00EF9AF
:1003D00000280BD04FF0C051204605F0E0F8002176
:1003E000204605F078F8A0490020086010BD10B53F
:1003F00001219E4805F0E9FD9D4800788A4CA080C7
:1004000003F038FA01219B4805F040FF01219A488A
:1004100005F03CFF2046BDE81040012105F036BF45
:100420000121964805F0D1BD10B5954C012120461B
:1004300005F0BFFD00280CD00121204605F0C5FDC8
:100440002088C1068F48016801D5491E00E0491C7B
:10045000016010BD704710B501218C07204605F0E2
:10046000B4FD2088C1068848016801D5491E00E016
:10047000491C016010BD10B5844C0121204605F0D7
:10048000A4FD2088C1068248016801D5491E00E00C
:10049000491C016010BD10B57E4C0121204605F0BD
:1004A00094FD2088C1067C48016801D5491E00E002
:1004B000491C016010BD10B5784C0121204605F0A3
:1004C00084FD2088C1067648016801D5491E00E0F8
:1004D000491C016010BD704770477047012005F04E
:1004E00027B92DE9F05F4FF4807B6E4D5C4659468D
:1004F000284604F057FB07464FF4007A5146284639
:1005000004F050FB06462021674804F04BFB0546EB
:10051000204605F00DF9654C4FF0000948B3012F56
:1005200003D0B6B3012E38D020E0DFF8508140462A
:1005300005F0E8F95E490A6802EB421202EB42025A
:1005400010445C4A1060C1F800900021404605F05C
:10055000D5F9012E01D026B108E03DB92068401C34
:1005600003E0012D02D12068401E2060584605F0AE
:10057000EDF8D346504605F0DBF8DFF83C814FF04C
:10058000010A90B3012E0BD098F80000012812D078
:100590001BE0FFE7012DE1D0E8E7002DE3D0E5E720
:1005A000364805F0AFF9C8F8100088F800A087B108
:1005B000012F13D016E0314805F0A4F9D8F8102027
:1005C000801AC8F8080088F80090012F1AD0E7B107
:1005D00008E0012D06D12068401C02E015B9206812
:1005E000401E2060584605F0B1F8202005F0A0F824
:1005F00000286FD0012D0BD098F801004546012846
:100600005CD063E0002DE6D0ECE7012DE7D0E9E710
:100610001A4805F077F9C8F8140088F801A0012FEE
:1006200059D007B160E05AE000100140208000205E
:100630007060024000880010286402401A00002008
:1006400020800010008020100A0A00202C000020CA
:1006500030000020320000200088002000800028A8
:10066000008020200080001888000020001000403A
:100670001E0000200048004000140140001400400B
:1006800000000140E4000020E800002000040040D9
:10069000EC00002000080040F0000020000C0040AA
:1006A000F4000020000802400010024084010020F5
:1006B000800100207C01002000000020184805F087
:1006C00021F96969401AE86085F801908FB1012F1E
:1006D00012D009E013E03EB92068401C03E0012E6F
:1006E00002D12068401E2060BDE8F05F202005F0A8
:1006F0002DB8012EF0D0F7E7002EF2D0F4E7BDE8D8
:10070000F09F084948688A68824200D98868CA68A8
:10071000824200D9C86870474FF4004005F008B81D
:10072000001400400000002070B5054607F00AF9EB
:1007300004462946FB4807F00CF9002816D09522FC
:100740002946F84807F0F2F8F74D0021284604F052
:10075000C2FEF548F349B838C0F8C410C0F8BC4030
:100760002846BDE87040012104F0B5BE70BD70B5EB
:10077000EE4D06460024315D00290BD0284605F0D9
:10078000ABFD8021284605F038FE0028F9D0641C16
:10079000E4B2F0E770BD70B5E44E05460024002DCC
:1007A0000DD02946304605F097FD8021304605F0F2
:1007B00024FE0028F9D0641CE4B2032CEFD370BDF2
:1007C00013B50C460020FFF7E6FFD9A0FFF7CFFFD7
:1007D000D4482346D7A29621E63807F07BFDD148BE
:1007E000E638FFF7C4FFD4A0FFF7C1FFCD48D1A280
:1007F0009621E638009B07F06DFDCA48E638FFF702
:10080000B6FFCFA0FFF7B3FFFF20FFF7C4FFFF2025
:10081000FFF7C1FFBDE81C40FF20BCE770B50546EF
:100820000C46C3A0FFF7A3FFBE482246C1A1E6388D
:1008300007F06AFDBB48E638FFF799FFBEA0FFF757
:1008400096FF2846FFF793FFBDA0FFF790FFBDE896
:100850007040FF209FE777B5B7A185B00646D1E984
:100860000001CDE90001B6A0002200680390B0A00D
:10087000AC4D0068283DA5F128030290A94C114613
:10088000A3F19600A95499548154A154521CD2B298
:100890001E2AF7D30A210170FF2444708470C470AB
:1008A000A048A4A15038079A07F02EFD9D4902A840
:1008B000503907F02FF89B4802A9E63807F02AF8CC
:1008C00098486946E63807F025F896483146E638F4
:1008D00007F020F8934897A15038069A07F014FDC6
:1008E00090495039A1F1960007F014F88D4803A9FA
:1008F000E63807F00FF88B492C706C702839AC7013
:10090000A1F1BE0007F006F88648E638FFF70CFFB5
:1009100008B070BD2DE9F741884687A185B006462D
:10092000D1E90001CDE9000185A000220068039013
:100930007FA07C4D0068283DA5F128010290144657
:10094000A1F19600AC548C548454521CD2B20A2AA1
:10095000F8D30A210170FF2747708770C77071486C
:1009600074A15038079A07F0CFFC6E4902A850399D
:1009700006F0D0FF6B4802A9E63806F0CBFF6948C5
:100980006946E63806F0C6FF66483146E63806F0A6
:10099000C1FF64484146E63806F0BCFF614803A940
:1009A000E63806F0B7FF2F706F705E49AF70EC70DD
:1009B00028392C71A1F1BE0006F0ACFF5948E63889
:1009C000FFF7B2FE08B0BDE8F08101B58EB05DA2C0
:1009D000322168460E9B07F07DFC6846FFF7A4FEB7
:1009E0000FB000BD73B554A184B00646D1E9000133
:1009F000CDE9000152A00022006803904CA0494DAF
:100A00000068283DA5F128030290464C1146A3F149
:100A10009600A95499548154A154521CD2B21E2A52
:100A2000F7D30A210170FF2444708470C4703D48DC
:100A300040A15038059A07F067FC3A4902A850399E
:100A400006F068FF374802A9E63806F063FF35482C
:100A50006946E63806F05EFF32483146E63806F071
:100A600059FF30495039A1F1960006F053FF2D4847
:100A700003A9E63806F04EFF2A492C706C7028391D
:100A8000AC70A1F1BE0006F045FF2648E638FFF73E
:100A90004BFE06B070BD2DE9FC412D48017842782F
:100AA000C47811448278131919440379194443799D
:100AB000194483791944C3790B44017A8DF80410E1
:100AC0000B44DBB20093407A984201D10D2909D042
:100AD0009DF804000D2869D0BDE8FC4100211D48A7
:100AE00005F0D4BBC2F17F0007F0B4F90546A4F1CC
:100AF000810007F0AFF9044615F0FF4F4FF07E502C
:100B000000D1054614F0FF4F00D10446284607F0F7
:100B1000C0F90746204607F0BCF9002F1CDB3A4617
:100B20001BE00000F6020020B860024000500040C8
:100B300074000000256400002E7478743D220000CB
:100B4000220000006A302E76616C3D2564000000B2
:100B5000190A0020004800407A42011E00DA414292
:100B6000114401EBD1714910FE4E7167002800DA83
:100B70004042322806DA380000D57842322801DABD
:100B8000002012E0204607F0BCF907460C46284634
:100B900007F0B7F93A46234608F0E6F84FF000426E
:100BA000F14B07F05FF807F08DF93067BDE8FC8185
:100BB000EE48017A0D2904D10078C00701D00D203C
:100BC000704700207047E9480078800701D5012070
:100BD00070470020704701B581B0019800EBC0005C
:100BE00040000090002801D0401EFAE70CBD01B57E
:100BF00081B044F25061019848430090002801D030
:100C0000401EFAE70CBD1CB501210F2004F032F99B
:100C10004CF6804000906946D54803F05DFF4FF4E4
:100C2000034000906946D34803F056FF41F6031095
:100C3000009001208DF8040000218DF806108DF839
:100C4000070003208DF805006946CB4803F044FFF8
:100C50004FF6C17000906946C84803F03DFF1CBDC7
:100C60001CB50121162004F005F900208DF80400C0
:100C700001208DF8070002208DF805004FF4C040D8
:100C800000906946BB4803F027FF032000906946A7
:100C9000B74803F021FF4FF2FF5000906946B84873
:100CA00003F01AFF1CBD1FB54FF4E06003F05CFEBB
:100CB00036208DF80C0002208DF80D008DF80E0006
:100CC00001208DF80F0003A803F053FE012110202E
:100CD00004F0EEF83220ADF8000040F2E730019069
:100CE0000020A84CADF80800ADF802006946204687
:100CF00004F0C2FD0121204605F067F901221146EA
:100D0000204605F042F90021204604F0F7FD0121BC
:100D1000204604F029FE1FBD1FB54FF4E06003F02C
:100D200023FE37208DF80C0000248DF80D408DF83F
:100D30000E4001208DF80F0003A803F01AFE0121D8
:100D4000202004F0B5F83220ADF80000ADF80840DE
:100D5000ADF8024063208C4C01906946204604F0B7
:100D60008BFD0121204605F030F901221146204675
:100D700005F00BF90021204604F0C0FD01212046BA
:100D800004F0F2FD1FBD70B58AB00121042004F00B
:100D90008FF801210D2004F06DF8754E02220C2110
:100DA000304603F022FF02220D21304603F01DFFE2
:100DB00002220E21304603F018FF02220F21304696
:100DC00003F013FF4FF47040059002208DF81800D7
:100DD00003208DF8190000248DF81A4001258DF8A4
:100DE0001B5005A9304603F077FEA420ADF81C0087
:100DF0002802664E0890ADF82400ADF81E4007A901
:100E0000304604F039FD7020ADF80000ADF8025016
:100E10000294ADF80C400121304604F0A5FD0021FC
:100E2000304604F06BFD6946304604F0A7FD694684
:100E3000304604F0CFFD6946304604F007FE6946AF
:100E4000304604F03DFE0AB070BD2DE9F0470121A7
:100E50008AB0084604F02CF80121022004F028F89A
:100E60000121032004F006F8DFF80C9101220F2184
:100E7000484603F0BAFEDFF8048101220321404610
:100E800003F0B3FE02220421404603F0AEFE02222C
:100E90000521404603F0A9FE02268DF804600327D1
:100EA00038208DF80570002400908DF8064001254B
:100EB0008DF807506946404603F00EFE8DF8046039
:100EC000E8038DF8057000908DF806408DF8075006
:100ED0006946484603F000FE4FF6FF70ADF80C403F
:100EE00004904FF08049ADF81440ADF80E4003A9CE
:100EF000484604F0C1FCDFF898A003A9504604F06E
:100F0000BBFC4FF004081420ADF81880ADF82000A9
:100F1000ADF81A60ADF81C5006A9484604F066FF0B
:100F200006A9504604F062FF02231A4603214846F0
:100F300005F0C5F802231A460321504605F0BFF814
:100F40000121484605F041F80121504605F03DF8E1
:100F500001221146484605F018F801221146504674
:100F600018E0000098000020A9E78140190A00203D
:100F7000000C024000080240000002400004024051
:100F80000010024000100040001400400008004023
:100F90000004004004F0F9FF0121484604F0E4FC9D
:100FA0000121504604F0E0FC0021484604F0A6FC74
:100FB0000021504604F0A2FC780203F0D5FC1D206D
:100FC0008DF808008DF809708DF80A408DF80B50E7
:100FD00002A803F0CEFC1C208DF808008DF80980D3
:100FE0008DF80A408DF80B5002A803F0C2FC0AB03D
:100FF000BDE8F0872DE9F04101218AB0084603F0F1
:1010000061FF0121102003F035FF4FF420600090B4
:101010004FF0020803208DF8048000248DF80500AD
:101020008DF8064001258DF807506946FE4F384679
:1010300003F052FD4FF6FF70FC4EADF808400390F0
:10104000ADF81040ADF80A4002A9304604F014FC97
:1010500001220921384603F0C8FD01220B21384640
:1010600003F0C3FD0427C820ADF81470ADF81C00D0
:10107000ADF81680ADF8185005A9304604F0B6FE5C
:1010800002231A460321304605F019F801213046A3
:1010900004F09BFF01221146304604F076FF012147
:1010A000304604F061FC0021304604F027FCB48295
:1010B00035804FF4C06003F057FC19208DF82000F4
:1010C0008DF821708DF822408DF8235008A803F088
:1010D00050FC0AB077E42DE9F0418AB001210420E8
:1010E00003F0E6FE0121082003F0C4FE4FF4405057
:1010F000022600908DF8046003208DF8050000247E
:10110000CB4F8DF8064001258DF8075069463846CB
:1011100003F0E2FC4FF6FF70DFF81883ADF80840EB
:101120000390ADF81040ADF80A4002A9404604F023
:10113000A3FB02220C21384603F057FD02220D21A9
:10114000384603F052FD0427C820ADF81470ADF8FE
:101150001C00ADF81660ADF8185005A9404604F023
:1011600045FE02231A460321404604F0A8FF012150
:10117000404604F02AFF01221146404604F005FFD4
:101180000121404604F0F0FB0021404604F0B6FB8C
:10119000A84814300480A8F800504FF4C06003F051
:1011A000E3FB1E208DF820008DF821708DF8224081
:1011B0008DF8235008A803F0DCFB8AE72DE9F04105
:1011C0008AB00121082003F073FE0121084603F0D4
:1011D00051FE032002268DF804608DF805000024DE
:1011E000954F00908DF8064001258DF8075069460F
:1011F000384603F071FC4FF6FF70DFF84082ADF81F
:1012000008400390ADF81040ADF80A4002A94046EE
:1012100004F032FB02220021384603F0E6FC0222F1
:101220000121384603F0E1FC0427C820ADF8147012
:10123000ADF81C00ADF81660ADF8185005A9404691
:1012400004F0D4FD02231A460321404604F037FF80
:101250000121404604F0B9FE01221146404604F047
:1012600094FE0121404604F07FFB0021404604F03B
:1012700045FB724814300480A8F800504FF4C06059
:1012800003F072FB32208DF820008DF821708DF86C
:1012900022408DF8235008A803F06BFB19E72DE9D5
:1012A000F0419CB00121664803F0E4FD01210E02EB
:1012B000304603F007FEDFF88C8101221021404602
:1012C00004F07EF938208DF86C0000248DF86D4014
:1012D0008DF86E4001258DF86F501BA803F049FB77
:1012E000594802A9CDE9004058480E2781E89100ED
:1012F000A802CDE90540400007908000CDE908062E
:101300000AA9000181E831000D94694640460E9417
:1013100004F0A8F80121404604F0DDF8012003F0B4
:10132000D6FEFC2003260F908DF840608DF84340D8
:101330000FA9414803F0D0FB30020F908DF84060B8
:101340008DF843400FA9424803F0C6FB3F200F90A1
:101350008DF840608DF843400FA93E4803F0BCFB78
:101360003004CDE91740199417A81A9403F07FFEB2
:101370001194139414941594334C8DF848504C3CAC
:101380008DF849508DF8587011A9204603F044FE9D
:10139000072301220221204603F0B3FE0723022285
:1013A0000321204603F0ADFE07230322042120463B
:1013B00003F0A7FE072304220521204603F0A1FE27
:1013C000072305220621204603F09BFE0723062261
:1013D0001946204603F095FE07231A4608212046A9
:1013E00003F08FFE072308220921204603F089FE1F
:1013F000072309220A21204603F083FE07230A223D
:101400000B21204603F07DFE07230B220C212046F2
:1014100003F077FE07230C220D21204603F071FE16
:1014200007230D220E2117E00010024000000140AA
:10143000000C02400008004000000240000C004088
:1014400007004000106402404C2001408C03002043
:101450000004024000080240204603F052FE072329
:101460000E220F21204603F04CFE0121204603F0FE
:10147000C5FE0121204603F0B7FE0121204603F0FE
:101480000DFE204603F077FE1CB0BDE8F08170B57C
:10149000054696B00121102003F014FD01210846F5
:1014A00003F0E8FC0121880503F0E4FC4FF4C06080
:1014B000139002208DF8500000248DF852408DF8D2
:1014C00053408DF8510013A9FE4E304603F004FB43
:1014D00007220921304603F088FB07220A21304603
:1014E00003F083FB0F95ADF844400C20F64DADF8AA
:1014F0004040ADF84600ADF84240ADF848400FA975
:10150000284604F052FE0121284604F0BFFE4FF4A5
:10151000A06003F029FA3A208DF8540001218DF8DB
:1015200055108DF856108DF8571015A803F021FAB4
:10153000E64E304603F00EFF4FF000600090E448A6
:10154000CDE902040A200490281D01900015CDE980
:1015500005408010CDE9084040020A9004200B901D
:1015600007940320CDE90C04694630460E9403F03D
:1015700079FF01224021284604F01FFF012210219B
:10158000304604F01DF80121304603F0A4FF16B0E8
:1015900070BD2DE9F04F8046012197B0880403F01B
:1015A00087FC0121082003F065FC0121480503F0B8
:1015B00061FC02268DF8546000244FF440708DF8D1
:1015C00056400125C34F14908DF857508DF8556043
:1015D00014A9384603F080FA07220821384603F0A0
:1015E00004FB07220921384603F0FFFADFF8E8B2CE
:1015F000ADF84440ADF848400C27CDF84080ADF838
:101600004640ADF84C40ADF84A7010A9584604F079
:10161000CCFD0121584604F039FE4FF4A06003F0E0
:10162000A3F98DF83C708DF83D508DF83E508DF843
:101630003F500FA803F09DF90E208DF83C008DF867
:101640003D608DF83E408DF83F500FA803F091F9B2
:10165000DFF888A2504603F07DFE9D48ED060F306E
:10166000CDE9020404A90A206F1481E8910008A8BA
:101670004FF480784FF40039079480E810030BF1A1
:1016800004060B94CDE900566946504603F0EAFE85
:1016900001224021584604F090FE012210215046BC
:1016A00003F08EFF0121504603F015FFDFF82CA256
:1016B0000AF1300A504603F04DFE85480095213866
:1016C000CDE901604020039004A9212081E8910028
:1016D00008A8079480E81003694650460B9403F06D
:1016E000C1FE01228021584604F067FE012210212C
:1016F000504603F065FF0121504603F0ECFE17B0A1
:10170000BDE8F08FF0B50546012197B0C80403F09D
:10171000CFFB0121042003F0ADFB0121480503F0BC
:10172000A9FB4FF44060139002208DF85000002474
:101730008DF852408DF85340694E8DF8510013A931
:10174000304603F0C9F908220A21304603F04DFA69
:1017500008220B21304603F048FAADF844400C2033
:10176000604EADF84040ADF846000F95ADF84240F0
:10177000ADF848400FA9304604F017FD012130466E
:1017800004F084FD4FF4A06003F0EEF80D208DF816
:10179000540003258DF855508DF8564001208DF8E2
:1017A000570015A803F0E5F84C4F1837384603F0FA
:1017B000D1FD780500904C48CDE902040A20049040
:1017C000301D01900015CDE905408010CDE908409D
:1017D000400207940A900420CDE90C540B9069460E
:1017E00038460E9403F03EFE01224021304604F0BC
:1017F000E4FD01221021384603F0E2FE01213846C3
:1018000003F069FE17B0F0BD2DE9F04180460121DB
:1018100096B0480503F02EFB0121080503F048FBB4
:1018200001210C2003F026FB02258DF840500024F6
:101830008DF84240274F04268DF843400F968DF8CF
:1018400041500FA9384603F047F98DF840508DF804
:1018500042408DF84340E8028DF84150204D0F90F2
:101860000FA9284603F038F908220221384603F070
:10187000BCF908220C21284603F0B7F94FF4A06008
:1018800003F072F82F208DF8540005208DF85500D4
:101890008DF8560001208DF8570015A803F069F85F
:1018A000ADF84C400C20114DADF84840ADF84E005D
:1018B000CDF84480ADF84A40ADF8504011A9284613
:1018C00016E00000000002400010014040640240A9
:1018D0000A0A0020000C0240004800402860024034
:1018E00000080240004C0040200000200050004052
:1018F00004F05BFC0121284604F0C8FCFE4F38468A
:1019000003F028FD7006009040200390FB480290F1
:1019100095200490281D01900015CDE90540801008
:10192000CDE908404002CDE90A0607940320CDE93D
:101930000C04694638460E9403F094FD0122802180
:10194000284604F03AFD01221021384603F038FE03
:101950000121384603F0BFFD16B096E510B5E84CFE
:1019600040F22551204604F052FD002816D02046B2
:1019700004F0B6FCC1B2E348427982B1428A0A431C
:101980004282018AE04B03EB4103491C01821A8029
:10199000028A0021402A00D30182417110BD09074B
:1019A000090D41820121F8E72DE9F041804601212E
:1019B00096B0080503F07CFA0121480503F05AFAB5
:1019C0000121082003F056FA02208DF8500000246F
:1019D0008DF8524001268DF85360CC4F04258DF8C8
:1019E0005100139513A9384603F076F80822022116
:1019F000384603F0FAF8ADF84440ADF84650C04D13
:101A0000ADF84040CDF83C80ADF84240ADF84840DC
:101A10000FA9284604F0C9FB0121284604F036FC32
:101A20004FF4A06002F0A0FF0B208DF854008DF859
:101A300055408DF856408DF8576015A802F099FF73
:101A4000AD4EA83E304603F085FCF0050090AE4850
:101A500069468030CDE902040F200490281D0190D2
:101A60000015CDE9054007944FF440300894CDE9C6
:101A700009400320CDE90B400D9430460E9403F04D
:101A8000F1FC01224021284604F097FC012210219C
:101A9000304603F095FD0121304603F01CFD5BE765
:101AA00078B59949803148788DF800009DF800009C
:101AB0000025944B0C2823D19DF80000084484781D
:101AC0009DF80000AA30C0B2002204E08E18B6785B
:101AD000521C3044C0B29DF80060B242F6DB0A7876
:101AE000AA2A0DD184420BD101205870864A0020C9
:101AF0008F320B189B781354401C0C28F9DB78BDEF
:101B00005D7078BDF0B5054697B00121202003F047
:101B1000D9F90121042003F0ADF90121880503F072
:101B2000A9F9C020139002208DF8500000248DF8F0
:101B300052408DF85340764E8DF8510013A930462F
:101B400002F0CAFF08220621304603F04EF80822B0
:101B50000721304603F049F8ADF844400C206D4EA3
:101B6000ADF84040ADF846000F95ADF84240ADF8F5
:101B700048400FA9304604F018FB0121304604F01C
:101B800085FB4FF4A06002F0EFFE39208DF8540081
:101B900003258DF8555001218DF856108DF85710FA
:101BA00015A802F0E6FE5C4F384603F0D3FBB805FB
:101BB0000090554869469B30CDE902040F200490FF
:101BC000301D01900015CDE905408010CDE9084099
:101BD000400207940A900420CDE90C540B9038463B
:101BE0000E9403F03FFC01224021304604F0E5FB57
:101BF00001221021384603F0E3FC0121384603F0AE
:101C00006AFCFFE5404A18B59B3250788DF8000019
:101C10009DF80000104483789DF80000AA30C1B2FE
:101C2000002004E01418A478401C2144C9B29DF897
:101C30000040A042F6DB12783248AA2A03D18B4238
:101C400001D1012100E00021817018BDF0B50646E8
:101C5000012197B0480503F00DF901214D042846F4
:101C600003F026F90121082003F004F96020139005
:101C700002208DF8500000248DF852408DF853401A
:101C8000224F8DF8510013A9384602F025FF072294
:101C90000521384602F0A9FF07220621384602F046
:101CA000A4FF0F96ADF844400C201C4EADF8404008
:101CB000ADF84600ADF84240ADF848400FA93046B7
:101CC00004F073FA0121304604F0E0FA4FF4A0600A
:101CD00002F04AFE11208DF854008DF855408DF821
:101CE000564001208DF8570015A802F042FE024F21
:101CF000183F384614E00000B8600240F6020020A9
:101D00000050004018000020280A0020000C02406B
:101D100000080240001401402864024000440040D2
:101D200003F018FBA802009040200390FE480290A8
:101D30003C200490301D01900015CDE90540801035
:101D4000CDE908400420CDE90A5007940320CDE9ED
:101D50000C04694638460E9403F084FB012280216E
:101D6000304604F02AFB01228021304604F025FB96
:101D700001221021384603F023FC0121384603F0EC
:101D8000AAFB3FE530B585B00121142003F072F8BD
:101D90000121880303F096F800254FF440708DF878
:101DA0000450012400908DF807406946DF4802F096
:101DB00093FE602000906946DD4802F08DFE082108
:101DC000022004F064FB0921022004F060FB0521DD
:101DD000042004F05CFB0621042004F058FB4FF4BF
:101DE000587002908DF80C5010208DF80D008DF871
:101DF0000E4002A803F04CFC17208DF810008DF85F
:101E000011408DF812508DF8134004A802F0B1FD76
:101E100005B030BD10B5C378002202219B1CDBB297
:101E200004E0445C491C224492B2C9B28B42F8D20D
:101E3000D0B2C0F1FF0010BD10B51C460346FF2014
:101E400020706070A3700720E070032020712A20AA
:101E50006071080AA071E171100A20726272204656
:101E6000FFF7D8FFA07210BD30B50C4615460146ED
:101E7000B04BC8220120FFF7DFFFAE4BC8220B3367
:101E800021460220FFF7D8FFAA4BC8221633294665
:101E90000320FFF7D1FFA7483838816BC0F85910ED
:101EA000C16BC0F85D10B0F84010A0F8611090F858
:101EB000421080F86310D0F843104166D0F8471004
:101EC0008166B0F84B10A0F86C1090F84D1080F8B7
:101ED0006E10D0F84E10C0F86F10D0F85210C0F845
:101EE0007310B0F85610A0F8771090F8581080F8DA
:101EF000791030BD70B5904C206F002817D1E28961
:101F0000A1896089FFF7B0FF8A498C482131416679
:101F10002121C165894D4FF0C0515835284603F045
:101F20003EFB0121284603F0D6FA0120206770BD50
:101F300010B5012810D0032819D0042822D0052874
:101F400009D17F4C204604F0C7F94021204604F017
:101F500054FA0028F9D010BD7A4C204604F0BCF9A0
:101F60004021204604F049FA0028F9D010BD764CF3
:101F7000204604F0B1F94021204604F03EFA002842
:101F8000F9D010BD714C204604F0A6F9402120463E
:101F900004F033FA0028F9D010BD2DE9FC416C4E55
:101FA000304603F0AFFC644D8035E96CB04640EA42
:101FB000014000244CF250364FF6E857019040465D
:101FC00003F0A0FCE96C40EA014000900100019898
:101FD00000D54942002800DA4042081AB04200DA2F
:101FE000641C00980190BC4201DC022CE7DB0098E5
:101FF000BDE8FC812DE9FC41554E304603F082FCE2
:102000004D4D8035E96CB04640EA014000244CF269
:1020100050364FF6E8570190404603F073FCE96CE8
:1020200040EA014000900100019800D54942002893
:1020300000DA4042081AB04200DA641C00980190AD
:10204000BC4201DC022CE7DB0098642190FBF1F03C
:10205000CEE72DE9FC414FF08046304603F052FCBC
:10206000354D8035296DB04640EA014000244CF2E0
:1020700050364FF6E8570190404603F043FC296D77
:1020800040EA014000900100019800D54942002833
:1020900000DA4042081AB04200DA641C009801904D
:1020A000BC4201DC022CE7DB0098A1E72DE9FC41F2
:1020B000284E304603F026FC1F4D8035696DB04632
:1020C00040EA014000244CF250364FF6E8570190A8
:1020D000404603F017FC696D40EA014000900100A2
:1020E000019800D54942002800DA4042081AB0425F
:1020F00000DA641C00980190BC4201DC022CE7DB92
:10210000009875E72DE9FC41134E304603F0FAFBC9
:10211000094D8035A96DB04640EA014000244CF2DB
:1021200050364FF6E85719E0400100200008024001
:1021300000100240C8090020180000200060024082
:10214000005000400010014000440040004C00409E
:10215000000001400004004000080040019040469B
:1021600003F0D0FBA96D40EA014000900100019806
:1021700000D54942002800DA4042081AB04200DA8D
:10218000641C00980190BC4201DC022CE7DB009843
:102190002EE72DE9FC41FE4E304603F0B3FBFD4D2A
:1021A000E96DB04640EA014000244CF250364FF64B
:1021B000E8570190404603F0A5FBE96D40EA014075
:1021C00000900100019800D54942002800DA404201
:1021D000081AB04200DA641C00980190BC4201DC8D
:1021E000022CE7DB009803E70021EA4A01280CD023
:1021F00002280ED0032811D0042813D0052803D1BB
:10220000E34824300160D1657047E3484162D164FE
:1022100070474FF08040416211657047DF480160B0
:1022200051657047DE480160916570473EB50168B1
:102230000091416801910089ADF8080000206A46CC
:10224000411C0C460BE000BF32F8103032F8115040
:10225000AB4203D922F8105022F81130491C89B240
:102260000529F1D3A0B20428EAD3BDF804003EBD8D
:102270000022114630F81130491C89B21A44322923
:10228000F8D33220B2FBF0F080B27047F0B5C54F02
:10229000C04D0024803D07F18C0604EB840204212C
:1022A00007EB420000EB410333F8023C20F8113009
:1022B000491E0904090CF5D1BA49383931F814100E
:1022C00027F81210FFF7B2FF04EBC40101EB041171
:1022D0002A7806EB8101641CA4B221F812000E2CAE
:1022E000DBD32878401CC0B22870322801D30020EC
:1022F0002870AC4D00241C3D04EBC40000EB04101E
:1023000006EB8000FFF7B4FF25F81400641CA4B2AC
:102310000E2CF1D3F0BD10B59E4C0020803CE07136
:102320006120A0716420FEF762FC0120E0717A2038
:10233000A07110BD10B5974C0020803CE071612069
:10234000A0716420FEF753FC0120E0717A20A07197
:1023500010BD2DE9F0410E46054605F0D2FD0746B9
:102360000C46304605F0CDFD3A46234606F0FCFC0F
:102370008D4A8E4B05F076FC05F0A4FD854FB867BD
:102380003146084605F04BFB04462946084605F051
:1023900046FB214605F0EBFA05F0B3FD06F07EFFA3
:1023A00005F090FDF867BDE8F0812DE9F14F9AB096
:1023B000002000907E4B774F8DF83C007F49DDF880
:1023C00068C0DFF8F0A17C4C803F72489E144FF447
:1023D000004B4FF480454FF48069A1F21B72BCF1B1
:1023E000290F6ED2DFE80CF0153034383C404448F9
:1023F0004A4E52565A5E62666ED2D1D0CFCECDCC06
:10240000CBCAC9C86DC7C6C5C4C3C2C1C0BFBEBDE3
:10241000BC000221184602F0C5FB50B1012259460A
:10242000504602F0D7FB8021204602F0CFFB00226D
:10243000C9E100225946504602F0CCFB80212046DB
:1024400002F0C6FB0022CCE1016A01225CA044E25A
:10245000C16902225FA040E28169032262A03CE2DE
:102460000169042265A038E24169052267A034E2CF
:10247000C168062269A030E2072291E1816C08223E
:1024800063A02AE2016C092265A026E249780A22AB
:1024900066A022E209780B2268A01EE20C226BA043
:1024A000796A1AE2416A0D226BA016E20E226FA031
:1024B000396E12E23748A83090F839100F226EA01A
:1024C0000BE2FAE10121704802F06CFB4FF4005777
:1024D0000E903946D046504602F064FB0D90022122
:1024E000694802F05FFB0C902946404602F05AFB17
:1024F0000B900421644802F055FB0A90594662484B
:1025000002F050FB834608215F4802F04BFB8246F5
:1025100029465D4802F046FB079010215A4802F018
:1025200041FB06903946584802F03CFB80460821A2
:10253000204602F037FB04903146534802F032FB4C
:1025400007461021204602F02DFB064649464E481C
:1025500002F028FB054680214B4802F023FB95E062
:10256000BEE1B7E1B2E1ABE18FE17DE178E173E19A
:102570006EE169E163E15DE155E14BE141E13CE19F
:1025800037E132E110E10AE103E1FCE094E0000010
:10259000000C00409800002000000140240400408E
:1025A00024080040C403002078612288A9E7814004
:1025B0000004024000080240000C0240C30A002050
:1025C000736572766F5F76616C75655F706861695F
:1025D0003A200000736572766F5F76616C75655F97
:1025E0007361753A20000000736572766F5F7661E3
:1025F0006C75655F747261693A200000676F635F94
:1026000062616E685F706861693A2000676F635F3E
:1026100062616E685F7361753A200000676F635F87
:1026200062616E685F747261693A200052585F554A
:1026300053415254365B315D203A200052585F5569
:1026400053415254365B305D3A2000007465737418
:1026500078756E673A2000006E616E675F6368612F
:102660006E5F747261693A200000000074657374D3
:102670005F6269743A20000044435F5441595F4BE4
:1026800045503A20000000000010024004464FF47C
:102690008071F94802F086FACDF814808DE8F000D8
:1026A0000346F6A228210FA8CDE908AB05F012FEDB
:1026B00010220FA9FAA0FEE080219A46184602F0E7
:1026C0007BFA0E900121504602F076FA0D904021DF
:1026D000504602F071FA0C90D8465946204602F056
:1026E0006BFADFF8C4B30B903146584602F064FA37
:1026F0000A904F464946504602F05EFA4FF4006990
:1027000009904946584602F057FA08904946504603
:1027100002F052FA07903946204602F04DFA069030
:102720003146504602F048FA05904946204602F0EC
:1027300043FA04904FF40051504602F03DFA8146AE
:102740002946204602F038FA04462946504602F04F
:1027500033FA05464FF48071584602F02DFA0646CA
:102760004146504602F028FACDF80C900096CDE98B
:1027700001540346C1A228210FA805F0ABFD112288
:102780000FA9CAA097E0FFF764FC01461222C9A076
:10279000A3E0FFF78BFC01461322CBA09DE014229F
:1027A000416CAFF2A41098E00221184602F0FAF949
:1027B00068B101225946504602F00CFA80212046A9
:1027C00002F004FA1522B7F91410C4A085E0002223
:1027D0005946504602F0FEF98021204602F0F8F9F1
:1027E0001522B7F91410C4A077E0398C1622CAA0BC
:1027F00073E0816A1722CCA06FE0C16A1822CEA0D4
:102800006BE0FFF753FC002800DA40420146192232
:10281000CEA062E0FFF71DFC002800DA404201462E
:102820001A22CFA059E0D3481B22007800F0800183
:10283000D1A052E0B7F918101D22D2A04DE0B7F98F
:102840001A101E22D1A048E0918A1F22D1A044E094
:10285000D18A2022D5A040E0118B2122D9A03CE0D2
:10286000518B2222DDA038E0C2488F30C3788278B5
:1028700041788DE80E000378DEA228210FA805F02C
:1028800029FD23220FA9DFA015E08C7A4B7A0A7A62
:10289000C87904AD85E81D008C794B790A79C87830
:1028A0008DE81D008B78DAA228210FA805F012FD13
:1028B00024220FA9DDA0FEF72DF81BB0BDE8F08F94
:1028C000FFF7C7FB01462522DBA006E02622DCA09D
:1028D000B96E02E02722DFA0F96EFDF7BCFFECE73E
:1028E0000221184602F05EF958B1012259465046BD
:1028F00002F070F98021204602F068F92822F96A76
:102900000AE000225946504602F064F98021204630
:1029100002F05EF9B96A282260A0DEE70121D04802
:1029200002F0D9BD11B4CF48016E009A914201DD89
:10293000002101E0016E491C0166006E18BC34E5FF
:1029400044F62064204603F0E7FF012003F0E4FF93
:10295000F8E710B501221102534802F03BF9BDE837
:10296000104000224FF48061BF4802F033B92DE9D6
:10297000FF4182B015460C9C12F1FF4F01D382F04B
:1029800000454FF07E56B4F5000F01DAB74C02E077
:10299000B44200DD3446DDE90201401A00D5404270
:1029A00047F29458009088B30599374688420ADA6E
:1029B000084605F04FFA0746009805F04BFA3946ED
:1029C00005F05FF807462146304605F022F8394603
:1029D00005F025F8214604F0CAFF294605F01FF846
:1029E0000446294605F0C6FA00D22C46204606F0D9
:1029F00089FA05F04EFA0190012801DA01200190D0
:102A0000DDE90001884206DC02980CE0FFE742465F
:102A1000002103980AE0DDE902108842019901DAF9
:102A2000084400E0401A42460021039006B0BDE889
:102A3000F04101F0C2BEF8B54E488A4C8C4DA4F16D
:102A4000800440788B4A616A060741F2680302D528
:102A50000020009504E0C00605D546F2A8100095B8
:102A6000FFF785FF60627F49A08CA83181F83500AF
:102A7000000A81F83400F8BD001002402564256486
:102A800025642564256425642564256425642564FE
:102A90002564256425642564256425640000000000
:102AA000496E3A2000000000000002404F55543AA1
:102AB00020000000524541445F454E434F4445527B
:102AC0005F323A2000000000524541445F454E43CA
:102AD0004F4445525F333A20000000002D2D2D2039
:102AE000504147452031202D2D2D2053414E20446B
:102AF0004F20494D553A20002D2D2D20504147455E
:102B00002031202D2D2D2053414E2058414E48205C
:102B1000494D553A200000006C617365725F747214
:102B2000756F633A200000006E616E675F636861D5
:102B30006E5F7361753A20006E616E675F636861F6
:102B40006E5F706861693A2000000000454E434F97
:102B50004445525F42414E485F504841493A200047
:102B6000454E434F4445525F42414E485F534155A5
:102B70003A200000190A0020544F55434850414460
:102B80003A200000494D555F583A2000494D555FA5
:102B9000593A20005F414443315F46696C74657265
:102BA00065645B31305D3A20000000005F414443C2
:102BB000325F46696C74657265645B31315D3A20E1
:102BC000000000005F414443315F46696C746572E8
:102BD00065645B31325D3A20000000005F41444390
:102BE000315F46696C74657265645B31335D3A20B0
:102BF0000000000020256420256420256420256431
:102C0000250000004269745F484D493A20000000E9
:102C10002564202564202564202564202564202542
:102C20006420256420256420256425004269745FA2
:102C30004553503A20000000454344323A200000FA
:102C400050726573735F54616D5F476961633A20C9
:102C50000000000050726573735F583A2000000056
:102C6000A060024098000020000C0240CDCC4C3DFA
:102C7000CDCCCC3D0000204170B50221F74801F0D9
:102C800091FF4FF48046F64C750068B90122314639
:102C9000204601F09FFF4FF4487003F03DFE0022F4
:102CA0002946204601F096FFEE48007800060BD535
:102CB00000223146204601F08DFF29462046BDE81E
:102CC0007040012201F086BF70BDE64A4FF480518A
:102CD00050788307E24801D5002203E09279002A68
:102CE00002D0012201F076BF704701B5DD484FF0F8
:102CF00000024178DC488B070DD48B0602D500F822
:102D0000382F04E0490706D5012100F8381F9DF847
:102D10000010417008BD80F8392008BD07B5D348C0
:102D2000C1670099416782670EBD2DE9FF411C46CE
:102D30000A9F019805F08EF8CC4E803606F180058A
:102D400070600198E8602046C84CE06702986067B0
:102D5000009805F07FF8B0600020A0676860B4F9C3
:102D600014002861384605F094F8E083B4F91E0099
:102D70000A2801DD0A2001E04FF4FA60A083BDE8D3
:102D8000FF812DE9F84FB74EDFF8DC92B848727832
:102D90004FF01E01D307A9F128094FF080474FEAF1
:102DA000827206D0002A0FDBC9F81410C9F824700B
:102DB0000EE0002A08DAF179192904D90120C9F8AE
:102DC0001400AC4802E01421C9F81410C9F824001A
:102DD000D9F814001530C9F82000FDF7E9FE0D28D8
:102DE00006D0BDE8F84F00224FF08141104695E72C
:102DF0003278DFF8788212F0480F4FF00A054FF072
:102E0000000408F180003FD191063DD4D1063BD4A7
:102E100031794FF0050AC82906D9436F322B03DAFE
:102E2000D8F85400404206E032292DD2416F3229B1
:102E30002ADAD8F85400B8F9141000EBC00001EBFE
:102E40008000C8F85000C9F818400121D9F82400C2
:102E500004F055FED9F82010034691FBFAF286489B
:102E60000090D9F81810D8F85000FFF75EFFB8F9B5
:102E70001400C8F8500000BFC9F81C50B8F914007D
:102E8000C8F85000BDE8F88F11074FEA426125D518
:102E9000002944DB910642D4D10640D43179C829B7
:102EA00008D9416F32293ADAB8F91400D8F8541029
:102EB000401A09E0322932D2416F32292FDAB8F9AB
:102EC0001400D8F854100844C8F85000C9F8184045
:102ED0000094D9E90823D9F8181028E200291EDA4D
:102EE00091061CD4D1061AD43179C82908D9416F6A
:102EF000322914DAB8F91400D8F85410401A09E04D
:102F000032290CD2416F322909DAB8F91400D8F805
:102F100054100844C8F850004FF46170E0E012F01B
:102F2000480F4FF4E1613CD193064FEAC2631BD5D1
:102F3000002B36DB3379C82B08D9436F322B30DABC
:102F4000B8F91400D8F85410401A09E0322B28D2EE
:102F5000436F322B25DAB8F91400D8F8541008441E
:102F6000C8F850004548BBE0002B1ADA3379C82B6B
:102F700008D9436F322B14DAB8F91400D8F854206A
:102F8000801A09E0322B0CD2436F322B09DAB8F9E0
:102F90001400D8F854201044C8F85000C9F818108C
:102FA00096E713074FF4E17ACAF1000B40F2465E50
:102FB0004FEA42633FD5002B4FEA82631DDA002BB4
:102FC0006CDBD3066AD43379C82B08D9436F322B14
:102FD00064DAB8F91400D8F85410401A09E0322B1A
:102FE0005CD2436F322B59DAB8F91400D8F8541078
:102FF0000844C8F85000504672E0002B4EDAD30661
:103000004CD43379C82B08D9436F322B46DAB8F940
:103010001400D8F85410401A09E0322B3ED2436F06
:10302000322B3BDAB8F91400D8F854100844C8F829
:103030005000584654E0002B30DA93062ED4D306C5
:103040002CD53379C82B1BD9436F322B26DAB8F92C
:103050001400D8F85410401A1CE000000010024080
:1030600000040240190A002040010020180000203E
:103070006666263F9A99993F0000A0417CFCFFFFBD
:10308000322B0BD2436F322B08DAB8F91400D8F880
:1030900054100844C8F85000704621E0DFF8A4C47A
:1030A00012F0480F1FD193061DD5D3061BD53379D7
:1030B000C82B08D9436F322B15DAB8F91400D8F8A9
:1030C0005410401A09E0322B0DD2436F322B0ADA2A
:1030D000B8F91400D8F854100844C8F850006046F5
:1030E000C9F81800F4E6130708D5530606D493066A
:1030F00004D4D30602D4C9F8184008E012F0480FEF
:1031000013D1930611D4D3060FD5C9F81810009423
:10311000D9F82430D9F81420D9F81810D8F850006C
:10312000FFF703FEC9F81C50ACE6130708D453069A
:1031300006D5930604D4D30602D44FF461702CE074
:1031400012F0480F05D1930603D5D30601D4FE48EB
:1031500023E013074FEA42630FD5002B4FEA826347
:1031600005DA002B11DBD3060FD4504615E0002BF7
:103170000BDAD30609D458460FE0002B05DA930684
:1031800003D4D30601D5704607E012F0480F7AD178
:10319000930605D5D00676D56046C9F81800B6E77F
:1031A000D20670D472794FF07E5A4FF07C5B322A8F
:1031B0002ED2B8F91420C8F85020C9F81810CDF84C
:1031C00000A0D9F8181053460A22D8F85000FFF78B
:1031D000ACFD5F460EE00A2003F09EFBF07920B1C3
:1031E0004FF08042D949642002E0D94A3946142080
:1031F000FFF794FD70793228EDD3B8F914104046EA
:10320000C8F850104946C9F81C505346009434E0A1
:10321000C82A39D9B8F91410C8F850100022C9F8D2
:103220001820CDF800A0D9F81810544653460A22A9
:10323000D8F85000FFF779FDDFF818A35F460EE0DD
:103240000A2003F069FBF07920B14FF0804221465B
:10325000C82002E0524639461420FFF75FFD70791E
:10326000C828EDD8B8F914104046C8F8501049469F
:10327000C9F81C5000222346009289690222006D81
:10328000FFF753FDFEE55EE0416F0A2936DD00944D
:10329000D9F82430D9F814204C46016FD8F85000E2
:1032A000FFF743FDE561B846AA4F54465D460DE081
:1032B0000A2003F031FBF07918B142462146322052
:1032C00002E03A4629461420FFF728FD30793228DB
:1032D000EED3A14F4FF040483079C828D2D90A2008
:1032E00003F01AFBF07918B142462146322002E081
:1032F0003A4629461420FFF711FDEDE7416F3229C8
:1033000021DD3179C82905D9B8F91410D8F854202D
:10331000891A06E032290FD2B8F91410D8F85420CF
:103320001144C8F850100094D9E90823016FD8F867
:103330005000FFF7FAFC9FE50094D9F82430D9F843
:103340001420016FEAE6B8F91400C8F850000094A0
:1033500000221146D9F82430D8F8500090E77F4E6B
:10336000DFF8FC91B5157F4CDFF8FCA1AF004FF4FE
:1033700080584FF4804B00BFFFF703FD3220FFF76A
:10338000B4FCFFF7A2FCFFF777FCFFF754FB2078B3
:10339000800701D5FFF7DDFA2946304601F002FC2F
:1033A000012809D101223946504601F013FC0022C0
:1033B00029466E4801F00EFC2078000604D5002254
:1033C0003946504601F006FC6078810701D500229D
:1033D00002E0C00704D001224146484601F0FAFB52
:1033E000A07908B1012203E0E0790A2804D900227B
:1033F0005946504601F0EEFB0C2003F08DFABBE776
:103400002920FFF78FFA0A2003F086FAF8E72DE962
:10341000F041054640F2862085423ADD40F60E1026
:10342000854202DBB420BDE8F0815148002400BF92
:1034300050F82410A94229DC00EB84014968A94214
:1034400024DB00EB840150F824704968C81B04F0A9
:1034500001FD0646E81B04F0FDFC314604F011FBBB
:1034600005464348903800EB840150F824404968F1
:10347000081B04F0EFFC294604F0D1FA4FF07C5110
:1034800004F075FA04F005FD2044CCE7641C232CFD
:10349000CEDB0520C7E7374810B5808AFFF7B7FFB6
:1034A0003549088410BD2DE9FF4182B015460C9CBA
:1034B00012F1FF4F01D382F000454FF07E56B4F574
:1034C000000F01DA214C02E0B44200DD3446DDE9B0
:1034D0000201401A00D5404247F2F858009078B3F4
:1034E0000599374688420ADA084604F0B3FC0746D5
:1034F000009804F0AFFC394604F0C3FA07462146B1
:10350000304604F086FA394604F089FA214604F080
:103510002EFA294604F083FA0446294604F02AFDCF
:1035200000D22C46204605F0EDFC04F0B2FC0190E0
:10353000012801DA01200190DDE9000188421DE047
:103540001FE00000BAFAFFFF7CFCFFFFCDCC4C3D32
:103550000000A0410000A0400000A0C000100240F8
:1035600000040240190A0020000C02400000024042
:1035700078930008A80300201800002005DC0298BA
:103580000BE04246002103980AE0DDE90210884280
:10359000019901DA084400E0401A424600210390F4
:1035A00006B0BDE8F04101F008B9F8B5FA4CF84DA5
:1035B000F84F009540F69806E16A33463A460020F7
:1035C000FFF771FFE0620095616A33463A460020DA
:1035D000FFF769FF60620095A16A33463A46002012
:1035E000FFF761FFA062A16A04F1A80080F82B1028
:1035F000A16A090A80F82A10616A80F82610616AB7
:10360000090A00F8251FE16AC172E16A090A81729C
:10361000E06A022809DA606A022806DAA06A02284B
:1036200003DAA4F1800100208865F8BDDA4E803EFF
:1036300006F1080404F1F805B06D012801D1FFF787
:10364000B4FFFFF728FF20782860F5E77CB501205C
:103650000024CDE90004050223462A46CFA1D24822
:1036600002F0A3FF0420CDE9000400232A46CFA1E5
:10367000D14802F09AFF0220CDE9000400232A4637
:10368000CEA1D24802F091FF0320CDE9000400232F
:103690002A46CFA1D24802F088FFBDE87C4003F063
:1036A0000EBB2DE9F04791460E46044604F0B4F9EE
:1036B000054620F00040074616F0FF4F01D0314686
:1036C00001E04FF07E5104F0DCF9C64904F0A7F99F
:1036D00004F017FC05F0A0FCDFF80C830022434641
:1036E00004F0BDFA012204F09EFB04F01DFCBF496A
:1036F000B5F5000F2DDB8F4207DD0121484604F0B0
:10370000FEF9214604F033F91DE004F0FAFB4FF016
:10371000FF3204F088FB0022434604F0FCF9074620
:103720000D46484604F0EDFB3A462B4604F09AFA63
:1037300007460D46204604F0E4FB3A462B4604F0CB
:10374000EAF904F0F1FB0446314604F013FC32D2EE
:1037500030E015F1FF4F2ED38F4207DD012148469F
:1037600004F0CDF9214604F057F91EE004F0C9FB3E
:103770004FF033329E4B04F075FA0022434604F0BA
:10378000CAF907460D46484604F0BBFB3A462B46AD
:1037900004F068FA07460D46204604F0B2FB3A46AC
:1037A0002B4604F059FA04F0BFFB0446314604F0FE
:1037B000D7FB00D234462046BDE8F0872DE9F0471C
:1037C000754C4FF07E518034606804F0D0F80646A6
:1037D0006060A4F58070704D816F4FF000086FF04D
:1037E0000107B1F5000F19DB8146304604F0C2FB3A
:1037F000E2D23946286804F082F90646A96804F046
:10380000B6F8A860E168B9F91400081A21690844FB
:1038100004F020FB314604F0FCF823E011F1FF4FE7
:1038200024D38146084604F034FB002800DA4042E5
:1038300004F010FB314604F093FBBDD239462868F2
:1038400004F05DF90646A96804F0E6F8A860E168AE
:10385000B9F9140008442169401A04F0FBFA314612
:1038600004F085F86860C4F80480A5E701210163CD
:103870004163A1E72DE9F05F474D803DA86F04F05B
:1038800008FB400001D0FFF799FF686F04F0E2FAEF
:10389000414C0146EA6F2068FFF703FF8146206034
:1038A000A86F04F0F6FA4000DFF84881524FB5F9EE
:1038B00014004FF4E16614D004F0CCFAA16804F0CF
:1038C000A8F8414604F0ABF804F0E3FAE063E06BDB
:1038D000B04201DDE66319E0E06BB84216DAE76357
:1038E00014E004F0B7FAA16804F093F8414604F03C
:1038F00096F804F0CEFAE063E16B4FF46160814228
:1039000003DCE16B4042814200DAE06360683B49DE
:10391000804604F0B6F804F0BCFA4FF46161484305
:1039200004F098FA414604F077F804F0B2FAE8821D
:10393000E06B00280BDD686CB5F91610401A2063A7
:10394000A86CB5F91610401A6063E86C0DE0E06BE6
:1039500000280FDAA86BB5F91610401A2063E86B3F
:10396000B5F91610401A6063286CB5F91610401AA4
:10397000A06305E0484604F08CFAA064606420640B
:10398000206BB042206B3BDDA0F561603DE00000A4
:10399000CDCCCC3D00002041980000205461736BD9
:1039A0005F4D61696E0000002D3600085461736B35
:1039B0005F484D4900000000013400085461736BFA
:1039C0005F436F6E74726F6C5F3100005F3300088D
:1039D0005461736B5F436F6E74726F6C5F32000083
:1039E000412900080000A0C00000F03F0000A041F5
:1039F0003333D33F00004040F8F8FFFF000061453B
:103A0000B84203DA206B00F561602063606BB0425E
:103A1000606B02DDA0F5616004E0B84203DA606B20
:103A200000F561606063A06BB042A06B02DDA0F5A1
:103A3000616004E0B84203DAA06B00F56160A06346
:103A4000E06BA146002800DA4042DFF81C84B04257
:103A500075DDD9F83C00002800DA404204F008FA8D
:103A600082468B464C46D9F8300004F001FA002219
:103A7000FE4B04F069F952465B4604F0F3F88246C7
:103A80008B46B5F9160004F0F3F952465B4604F094
:103A900042F804F017FAE060E06B002800DA4042D8
:103AA00004F0E6F982460C46D9F8340004F0E0F957
:103AB0000022EE4B04F048F95246234604F0D2F8B7
:103AC00083468A46B5F9160004F0D2F95A465346A1
:103AD00004F021F804F0F6F9C9F81000D9F83C0018
:103AE000002800DA404204F0C3F982460C46D9F8B7
:103AF000380004F0BDF90022DC4B04F025F95246F1
:103B0000234604F0AFF882468B46B5F9160004F060
:103B1000AFF952465B4603F0FEFF04F0D3F9C9F853
:103B20001400D9F86410D9F80C00081A40F68C215A
:103B30008842484604DDC26802F5616208E078E028
:103B4000426EC368D21A424503DAC268A2F56162C6
:103B5000C260426EC368D41A4FF4617253429442F9
:103B600003DDC46804F5E16409E0446ED0F80CC0DC
:103B7000A4EB0C049C4203DAC468A4F5E164C460BD
:103B8000846ED0F810C0A4EB0C048C4203DD0469F1
:103B900004F5616409E0846ED0F810C0A4EB0C0455
:103BA000444503DA0469A4F561640461846ED0F8C5
:103BB00010C0A4EB0C04944203DD046904F5E16435
:103BC00009E0846ED0F810C0A4EB0C049C4203DA28
:103BD0000469A4F5E1640461C46ED0F814C0A4EBD8
:103BE0000C048C4203DD416901F5616107E0C16E9F
:103BF0004469091B414503DA4169A1F561614161ED
:103C0000C16E4469091B914203DD416901F5E1611F
:103C100007E0C16E4269891A994203DA4169A1F548
:103C2000E1614161C1684166016981664169C166BE
:103C3000EEE0B5F916004C46C9F80C00B5F91600CF
:103C4000C9F81000B5F91600C9F81400D9F86400D5
:103C5000D9F80C1040F68C22401A904203DDE0683F
:103C600000F5616007E0606EE168401A404503DAE4
:103C7000E068A0F56160E060606EE168431A40F2C0
:103C800046504142834203DDE36803F5E16309E006
:103C9000636ED4F80CC0A3EB0C038B4203DAE36829
:103CA000A3F5E163E360A36ED4F810C0A3EB0C03AB
:103CB000934203DD236903F5616309E0A36ED4F841
:103CC00010C0A3EB0C03434503DA2369A3F561633A
:103CD0002361A36ED4F810C0A3EB0C03834203DD71
:103CE000236903F5E16309E0A36ED4F810C0A3EBE8
:103CF0000C038B4203DA2369A3F5E1632361E36ECE
:103D0000D4F814C0A3EB0C03934203DD626902F5FF
:103D1000616207E0E26E6369D21A424503DA6269C2
:103D2000A2F561626261E26E6369D21A824203DDCA
:103D3000606900F5E16007E0E06E6269801A884220
:103D400003DA6069A0F5E1606061E068606620699F
:103D5000A0666069E066E06B002800DA404204F08B
:103D600087F880468A46206B04F082F800223F4B99
:103D700003F0EAFF4246534603F074FF80468A464A
:103D8000E06804F075F84246534603F0C4FE04F0C0
:103D900099F8E060E06B002800DA404204F068F82F
:103DA00082468B46606B04F063F800222F4B03F0D1
:103DB000CBFF52465B4603F055FF80468A4620699A
:103DC00004F056F84246534603F0A5FE04F07AF894
:103DD0002061E06B002800DA404204F049F8804698
:103DE0008A46A06B04F044F80022204B03F0ACFF9D
:103DF0004246534603F036FF80468A46606904F027
:103E000037F84246534603F086FE04F05BF86061E3
:103E1000D9F80C004C46B84201DA384602E0B0420C
:103E200000DD3046C0F5E1622069B84201DA38466B
:103E300002E0B04200DD3046C0F5E1616069B842A1
:103E400001DA384602E0B04200DD3046C0F5E163F9
:103E5000C2EB02324FF4616092FBF0F20A32A261CF
:103E6000C1EB013104E0000074F5FFFF0020AC401D
:103E700091FBF0F10A312162C3EB033191FBF0F0C9
:103E80001438E061A0696881E069A881206AE8814E
:103E9000FEF730F8E06B002800DA4042B2460A260E
:103EA000FE4F50457DDDE06B00284ADD206804F0C0
:103EB00028F8814660698846E96C401A90FBF6F064
:103EC00003F0C8FFBB46394603F0A9FD04F019F81A
:103ED00005F054F84A46434603F0C4FE03F0F2FFEF
:103EE000A064206804F00DF8804620690F46A96C94
:103EF000401A90FBF6F003F0ADFF594603F08FFD3A
:103F000003F0FFFF05F03AF842463B4603F0AAFEF5
:103F100003F0D8FF6064206803F0F3FF0746E06811
:103F20008846696C401A90FBF6F003F093FF5946FF
:103F300003F075FD03F0E5FF05F020F83A4643462F
:103F40004EE0E06B002850DA206803F0DAFF81468B
:103F500060698846296C401A90FBF6F003F07AFFFE
:103F6000BB46394603F05BFD03F0CBFF05F006F8D6
:103F70004A46434603F076FE03F0A4FFA06420689F
:103F800003F0BFFF804620690F46E96B401A90FBA3
:103F9000F6F003F05FFF594603F041FD03F0B1FF77
:103FA00000E02FE004F0EAFF42463B4603F05AFEF1
:103FB00003F088FF6064206803F0A3FF0746E06811
:103FC0008846A96B401A90FBF6F003F043FF594670
:103FD00003F025FD03F095FF04F0D0FF43463A4679
:103FE00003F040FE03F06EFF206421684FF07E5323
:103FF000AB4899426BDC82680021002A42DC816078
:10400000216046E0206803F07CFF804660698946B5
:10401000B5F91610401A90FBF6F003F01BFFBB46F3
:10402000394603F0FCFC03F06CFF04F0A7FF4246A6
:104030004B4603F017FE03F045FFA064206803F031
:1040400060FF074620698846B5F91610401A90FBB4
:10405000F6F003F0FFFE594603F0E1FC03F051FFD8
:1040600004F08CFF3A46434603F0FCFD03F02AFFC0
:104070006064206803F045FF0746E0688846B5F9AC
:1040800016104FE7521E8260012223602264626490
:10409000A2648068B0F5FA7F1CDA606E002800DA4E
:1040A0004042524690420BDAA06E002800DA4042AD
:1040B000904205DAE06E002800DA4042504509DB04
:1040C000E16061662161A1666161E16602E0B5F9C6
:1040D0001C108160206C4142714828300171216CB4
:1040E0004942090AC170616C0176616C090AC175A7
:1040F000A16C8173A16C090A4173BDE8F09F2DE9A1
:10410000F84FFFF7C8F9674D2B8C0122664E6748C0
:10411000002741F2680105F18004462B05D32B8C62
:10412000822B02D82A71EF700FE02B8C462B05D220
:104130002B8C822B02D9EA702F7120E02A79012A78
:1041400003D0EA78012A1AD033E088460B4600965D
:10415000E16A8146024644F6206A5046FFF7A3F919
:10416000E0620096616A43464A465046FFF79BF973
:1041700060620096A16A43464A46504616E0884669
:104180000B460096E16A814602460020FFF78BF954
:10419000E0620096616A43464A460020FFF783F9D1
:1041A00060620096A16A43464A460020FFF77BF909
:1041B000A062288C4FF08043372802D31E2200973C
:1041C00004E0288C372805D20122009700210846F8
:1041D000FEF7ABFDE16A3248283080F83010E16A22
:1041E000090A80F82F10616A80F82610616A090AAE
:1041F00000F8251FA16A8171A16A090A4171BDE811
:10420000F88F7047F8B5264CC823274D803C274EC1
:104210000095E16A324643F6C4373846FFF743F962
:10422000E0620095616AC82332463846FFF73BF9E1
:1042300060620095A16AC82332463846FFF733F919
:10424000A062A16A04F1A80080F82B10A16A090AF3
:1042500080F82A10616A80F82610616A090A00F85D
:10426000251FE16AC172E16A090A8172F8BD2DE970
:10427000F8430B4C0C4D803C0C4F009541F2680606
:10428000E16A33463A4644F620684046FFF70BF9A8
:10429000E062009533463A46616A09E035FA8E3CA1
:1042A0001801002018000020CDCCCC3D000020419A
:1042B0004046FFF7F8F860620095A16A33463A4637
:1042C0004046FFF7F0F8A062E16A04F1A80080F828
:1042D0003010E16A090A80F82F10616A80F8261010
:1042E000616A090A00F8251FA16A8171A16A090A99
:1042F0004171BDE8F88370B5FC4CE078022648B106
:10430000E078012805D1FA4D288C322804D300200A
:10431000A07070BDA67070BD288C322808D970BD01
:10432000FCF751FC0028FAD1012002F0F5FAA67042
:10433000288C3C28F4D270BDF8B500204FF08043A3
:104340001E2201460090FEF7F0FC0024E84D0126F5
:1043500007E000BFFCF737FC30B9012002F0DCFABF
:10436000EE65288C3228F5D8641C642CF9DBBDE896
:10437000F8400022DF491046FEF7D0BC10B5DD49F9
:104380000B2806D0022804D0032802D0012809D027
:1043900018E000221046FEF7C1FC41F2883002F01E
:1043A000BBFA0FE000221046FEF7B8FCD04C06E046
:1043B000FCF709FC002808D1012002F0ADFA208C9E
:1043C0003228F5D9BDE81040B6E710BD70B5C94C2C
:1043D0000B2806D0022804D0032802D001280AD0D6
:1043E0001AE0002221461046FEF798FC41F2883080
:1043F00002F092FA10E0002221461046FEF78EFCF1
:10440000BB4D06E0FCF7DFFB00280ED1012002F0D7
:1044100083FA288C3228F5D9FFF78EFF2146BDE8B4
:10442000704000221046FEF779BC70BD10B5AF4C4D
:10443000A078012805D0A078022802D0A07803280F
:1044400012D1E078FFF79AFF2079FFF797FF6079A4
:10445000FFF794FFA079FFF7B9FF0022BDE81040F5
:10446000A4491046FEF75ABC10BD70B59F48A04C39
:10447000AA38A1494278606E13074FF4FA6502D555
:1044800003F075FA03E0D20607D503F0C2FA6066BE
:104490002846BDE8704002F03FBA70BD2DE9F84FE4
:1044A000FFF7E3FF0220FDF79FFE00264FF0804854
:1044B00043461E22314630460096FEF736FC002465
:1044C0004FF4FA7506E000BFFCF77DFB30B9012020
:1044D00002F022FAFDF7BDFDA842F5DB641C322C88
:1044E000F8DB0025DFF80CA2804F814C34E0F8782F
:1044F000012817D1208C03F0B6FC616E03F030FD6B
:1045000010D8002251461046FEF708FCFFF7ADFF19
:10451000208C03F0A8FC616E03F02CFD16D8BDE8DA
:10452000F84FA2E7F87888B9208C03F09CFC616E04
:1045300003F016FD0AD8002251461046FEF7EEFBA6
:10454000BDE8F84F42F2107002F0E6B9FCF73BFB11
:1045500048B9012002F0E0F9208C03F084FC616E80
:1045600003F0FEFCC3D96D1C322DF5DB0021434660
:10457000282208460096FEF7D8FBA04600254FF0FB
:1045800005094FF47A7405E0FCF71DFB30B1C8F85B
:10459000609003E0FDF75DFDA042F5DB6D1C642D2E
:1045A000F8DB002251461046FEF7B8FBBE70012131
:1045B000C8F8601023E64D484D49AA384FF0010273
:1045C0004078830600D58A66400700D5CA667047E2
:1045D0002DE9F0474548DFF82491AA38DFF820811B
:1045E0000078484E424C80074FF400574FF00005CA
:1045F00004D586F83950A566E5661DE0A06E012851
:1046000005D13946484600F0CDFA012803D0E06EC6
:10461000012805D010E0E56686F83850282009E02A
:104620003946404600F0BEFA012805D1A56686F855
:104630003800192086F839003946404600F0B2FAB1
:1046400030B9E06E012803D10820E56686F839000C
:104650003946484600F0A6FA002805D1A06E012888
:1046600002D186F83950A566BDE8F08773B5254CB0
:1046700082B0283C20689DF80810884209D3206841
:104680009DF80C10884204D800221A491046FEF703
:1046900045FB20689DF808101B4D6E02884207D22A
:1046A00033460A22002141F218500095FEF73DFBE7
:1046B00020689DF80C10884206D933460A22002152
:1046C00012480095FEF731FB7FBD2DE9F0410D4802
:1046D000002100F8381F2821417000240525044ED0
:1046E0004FF40057DFF8148017E00000C30A0020E1
:1046F00018000020000040400000A04200080240D6
:1047000000100240400100200000A041E8EAFFFF45
:10471000FCF759FA38B1356605E03946404600F0F5
:1047200041FA0128F4D0641C642CF6DBBDE8F0816A
:1047300038B5FCF768FAFCF793FAFCF75BFCFCF77A
:1047400084FBFCF7C8FCFCF739FDFCF7A8FDFCF77F
:10475000AAFA1F4C0021204601F006F94FF4E1357A
:104760002846FCF794FE2846FCF713FF2846FDF781
:10477000C9F92846FCF7C6FFE800FDF745F82846CA
:10478000FDF764FA0A20FCF732FA0121204601F015
:10479000EBF80A20FCF72BFAFDF7BDFD00204FF0E7
:1047A0007E53024601460090FEF7BFFA6420FCF7F4
:1047B0001EFAFEF74BFF002038BD07B5DDE900010A
:1047C000884202DB0299884200DD08460EBD0000E7
:1047D000001000400CB500205149019000900A687B
:1047E00042F480320A604FF4A0630A6802F4003297
:1047F0000092019A521C0192009A12B9019A9A42AF
:10480000F3D10A68920334D5012000904448403027
:10481000026842F0805202604248026842F48042DC
:1048200002603F48083002680260026842F40042B9
:104830000260026842F4A0520260031F3A4A1A6002
:104840000A6842F080720A600A689201FCD5374A11
:1048500040F205611160016821F003010160016807
:1048600041F0020101600168C1F381010229FAD11E
:104870000CBD00900CBD2A4810B5016841F0010143
:104880000160274A0021083211600268284B1A4053
:104890000260031D274A1A60026822F48022026027
:1048A0001F480C300160FFF795FF23494FF000606F
:1048B000086010BD70B51A4C083420681F4A10F00B
:1048C0000C011F4804D05510042903D0082903D037
:1048D00002601BE0056019E01149091D0B68C3F374
:1048E00080560B6803F03F0316B1B5FBF3F201E00D
:1048F000B2FBF3F20B680968C3F388135A43C1F3A0
:104900000141491C4900B2FBF1F1016021680C4AE8
:10491000C1F30311121D515C0268CA40026070BDF0
:10492000003802400070004008544007003C02403C
:10493000FFFFF6FE1030002408ED00E00024F40034
:10494000880100200648804706480047FEE7FEE74A
:10495000FEE7FEE7FEE7FEE7FEE7FEE7FEE7FEE72F
:104960007748000889010008284908432849086059
:10497000704730B50F22C47801780123FCB1244C74
:10498000246801F1E02104F4E064C4F5E064C4F3B8
:104990000724C4F10405E2404478AC408578154012
:1049A00025432A0181F80024007800F01F018B4084
:1049B0004009800000F1E020C0F8003130BD01F076
:1049C0001F0083404809800000F1E020C0F88031DA
:1049D00030BD104A114001430D48001F016070476F
:1049E0000B4A121D0029116801D0014300E08143E8
:1049F000116070474FF0E0210428086903D020F0CF
:104A000004000861704740F00400FAE70000FA056E
:104A10000CED00E080FFFF1F7C4910B5884206D1F5
:104A20000121084600F058FA002101204FE07849A2
:104A3000884206D10121022000F04EFA0021022016
:104A400045E07449884206D10121042000F044FA6F
:104A5000002104203BE07049884206D10121082052
:104A600000F03AFA0021082031E06C49884206D172
:104A70000121102000F030FA0021102027E06849C1
:104A8000884206D10121202000F026FA00212020B2
:104A90001DE06449884206D10121402000F01CFA43
:104AA0000021402013E06049884206D10121802086
:104AB00000F012FA0021802009E05C4988420AD106
:104AC00084150121204600F007FA00212046BDE8A8
:104AD000104000F001BA10BDF0B5002301240327F7
:104AE0000D6804FA03F21540954242D1D0F800C097
:104AF0005E0007FA06F52CEA050CC0F800C091F834
:104B000004C0D0F800E00CFA06FC4CEA0E0CC0F829
:104B100000C091F804C0BCF1010F02D0BCF1020F3B
:104B20001FD1D0F808C02CEA050CC0F808C091F8D5
:104B300005C0D0F808E00CFA06FC4CEA0E0CC0F8F0
:104B400008C0D0F804C02CEA020CC0F804C04268C7
:104B500091F806C00CFA03FC1FFA8CFC42EA0C0226
:104B60004260C268AA43C260CA79C568B2402A439B
:104B7000C2605B1C102BB3D3F0BD4FF6FF71016018
:104B80000021017141718171C171704708B541F413
:104B900080320092C261C1610099C161C169C0697E
:104BA000009008BD0246002012690A4200D0012090
:104BB0007047006980B270470246002052690A427D
:104BC00000D001207047406980B270470183704770
:104BD000418370470AB10183704741837047416147
:104BE000704742694A40426170474B07DB0E9A406A
:104BF000C90810B500EB8100016A0F249C40A14355
:104C00000162016A1143016210BD00000000024010
:104C10000004024000080240000C02400010024064
:104C20000014024000180240001C02400020024014
:104C3000EA48016841F001010160E84A00210832B8
:104C400011600268E64B1A400260031DE54A1A60D3
:104C5000026822F480220260E0480C300160704754
:104C6000DE490022891C0A70087070470246002045
:104C7000510901290CD002290CD0D8497431096896
:104C800002F01F02012393400B4200D00120704725
:104C9000D249F4E7D1497031F1E718B500204FF45B
:104CA000A06400903120FFF7E1FF0099491C0091BA
:104CB000A14201D00028F5D03120FFF7D7FF00280E
:104CC00000D0012018BDC5490A6822F0F80242EA66
:104CD000C00008607047C44908607047BF4900229F
:104CE00070310A700A70012802D0042801D1052011
:104CF00008707047BD490860704741EA82115A0840
:104D000010B5BB4B029C03EB02421143014341EA45
:104D10000460B249091D086010BDB34908667047B8
:104D2000800140EA0170AD49843108607047AE49A6
:104D300088667047AC49C8647047A84A083213684F
:104D4000084323F0EC63184310607047A34A08320D
:104D50001368084323F078431843106070479F4A54
:104D60000832116821F003010143116070479B482C
:104D70000830006800F00C007047984A083211684B
:104D800021F0F001014311607047944A0832116824
:104D900021F4E051014311607047904908310A68DD
:104DA00022F4604242EAC0000860704770B58B4A46
:104DB000083211688F4C11F00C0104D066100429E0
:104DC00003D0082903D004601BE0066019E0834982
:104DD000091D0B68C3F380550B6803F03F0315B141
:104DE000B6FBF3F301E0B4FBF3F30C680968C4F31A
:104DF00088146343C1F30141491C4900B3FBF1F13D
:104E0000016011680F2303EA11117B4B5C5C0168A0
:104E1000E14041601468072505EA94241C5D21FAED
:104E200004F48460126805EA52329A5CD140C16091
:104E300070BDC0F30121032908D1684A0832116806
:104E400021F4F8136D490140194311606349703131
:104E50000A68C0F30B0002430A6070476349443993
:104E60000860704761494039086070475E49C1F881
:104E70005C017047594A30320029116801D0014362
:104E800000E0814311607047544A343200291168B0
:104E900001D0014300E08143116070474F4A38322E
:104EA0000029116801D0014300E08143116070477F
:104EB0004A4A40320029116801D0014300E0814391
:104EC00011607047454A44320029116801D00143FE
:104ED00000E0814311607047404A10320029116898
:104EE00001D0014300E08143116070473B4A143216
:104EF0000029116801D0014300E08143116070472F
:104F0000364A18320029116801D0014300E081437C
:104F100011607047314A20320029116801D00143E5
:104F200000E08143116070472C4A24320029116847
:104F300001D0014300E0814311607047274A50329D
:104F40000029116801D0014300E0814311607047DE
:104F5000224A54320029116801D0014300E0814304
:104F6000116070471D4A58320029116801D0014371
:104F700000E0814311607047184A603200291168CF
:104F800001D0014300E0814311607047134A64324D
:104F90000029116801D0014300E08143116070478E
:104FA0000E4A0D320029117801D0014300E08143FF
:104FB0001170704709487430016841F080710160D8
:104FC00070470146054A00200C3212680A4200D0A0
:104FD0000120704701490E310870704700380240C7
:104FE000FFFFF6FE1030002400004742800E4742CB
:104FF0000000FFFF0024F4009C010020FFFCFF0FD5
:1050000010B501210C022046FFF78EFF2046BDE8B7
:1050100010400021FFF788BF30B54268C84B0C79BB
:105020001A400B6842EA0422134343608268C54B6E
:105030004D791A40D1E9034323438C6844EA45047F
:10504000234313438360C26A097D22F47002491E20
:10505000C9B242EA0151C16230BD00210160017153
:1050600041718160C1600161012101757047B64BDA
:1050700010B5D3F80423B5490A40D0E90014214300
:10508000D0E90240044321431143C3F8041310BD87
:105090000021016041608160C16070470029816822
:1050A00002D041F0010101E021F00101816070476F
:1050B0004268A74B1A400A434260704741628262CD
:1050C0007047426822F01F020A43426070479E49BF
:1050D0000028D1F8040302D040F4000001E020F4DD
:1050E0000000C1F80403704797490028D1F8040371
:1050F00002D040F4800001E020F48000C1F80403F5
:10510000704770B5072409290AD9C568A1F10A06B4
:1051100006EB4606B440A543B3401D43C56007E017
:10512000056901EB4106B440A543B3401D43056149
:105130001F23072A09D2446B521E02EB82029340BE
:105140009C4391400C43446370BD0D2A09D2046B0B
:10515000D21F02EB820293409C4391400C430463B4
:1051600070BDC46A0D3A02EB820293409C439140A9
:105170000C43C46270BD816841F08041816070471A
:10518000014600208968490200D5012070470029A6
:10519000816802D041F4806101E021F48061816086
:1051A00070470029816802D041F0020101E021F03E
:1051B0000201816070474268491E22F4604242EA5F
:1051C0004131416070470029416802D041F40061DB
:1051D00001E021F4006141607047C06C80B270470B
:1051E0005948D0F8080370470029816802D041F47B
:1051F000807101E021F4807181607047002981682D
:1052000002D041F4007101E021F400718160704727
:105210004D490028D1F8040302D040F4005001E0C9
:1052200020F40050C1F80403704770B50724092921
:105230000AD9C568A1F10A0606EB4606B440A543A3
:10524000B3401D43C56007E0056901EB4106B4406A
:10525000A543B3401D430561836BC3F30154121B87
:10526000921C02EB82041F22A2409343A1400B43F5
:10527000836370BD826B491E22F4401242EA0151E1
:105280008163704708B508440090026008BD8268D9
:1052900022F470220A4382607047826822F440122E
:1052A0000A4382607047816841F4800181607047E1
:1052B000014600208968490200D501207047002975
:1052C000416802D041F4806101E021F480614160D5
:1052D00070470029416802D041F4805101E021F477
:1052E00080514160704708B508442830009000683C
:1052F00080B208BD01238B4041680AB1194300E028
:105300009943416070470246002012680A4200D06B
:1053100001207047C9430160704730B50246002044
:1053200053680C0A01258D4011682B40214202D0A0
:10533000002B00D0012030BD6FEA112101607047C1
:10534000FFFEFFFCFDF7FFC000200140E030FCFF46
:10535000FFFD3FFF2DE9F043016821F001010160ED
:105360000021016041608160C160016121214161D2
:10537000B849B84A3D251039904202D18D60BDE848
:10538000F083B44A4FF474661832904201D18E60B3
:10539000F5E7B04A4FF474173032904201D18F6074
:1053A000EDE7AC4A4FF0746C4832904202D1C1F83C
:1053B00008C0E4E7A74BA84A6033984201D1CA600D
:1053C000DDE7A44CA54B7834A04201D1CB60D6E7F1
:1053D000DFF88082A24C08F19008404501D1CC60F2
:1053E000CDE7DFF870824FF03D5908F1A80840453D
:1053F00002D1C1F80C90C2E79A49DFF868820839F7
:10540000404501D10D60BAE7964D1835A84201D14B
:105410000E60B4E7934D3035A84201D10F60AEE77E
:10542000904D4835A84202D1C1F800C0A7E78D4D84
:105430008C496035091FA84201D10A609FE7894A5B
:105440007832904201D10B6099E7864A90329042BF
:1054500001D10C6093E7834AA83290428FD1C1F802
:1054600000908CE730B503687F4ACC6813400A6827
:105470002243D1E905452C432243CC6922430C6ADF
:1054800022434C6A22438C6A22434C6B22438C6B2E
:1054900022431A430260426922F00703D1E90B2438
:1054A00022431A4342610A6942604A6882608968FD
:1054B000C16030BD0021016041608160C160016157
:1054C00041618161C161016241628162C1620163C6
:1054D0004163816370470029016802D041F00101F6
:1054E00001E021F00101016070470029016802D04C
:1054F00041F4004101E021F40041016070470029BE
:10550000016802D041F0200101E021F0200101609A
:10551000704741607047406880B27047002A026857
:1055200002D042F4002201E022F400220260016174
:1055300070470029016802D041F4802101E021F484
:105540008021016070470AB101617047C1607047F6
:10555000014600200968090300D501207047014673
:1055600000200968C90700D001207047406900F099
:105570003800704702463B4B00209A4202D2354A1F
:10558000103A01E0374A103A8B0001D5526800E02A
:105590001268364B1A400A4200D001207047314A47
:1055A000904202D22B48103801E02E4810382F4A82
:1055B0008B0001EA020101D5C1607047816070472C
:1055C0000B0607D5436912B143F0800301E023F0D5
:1055D00080034361802908D0002A026801F01E017F
:1055E00001D00A4300E08A430260704730B51D4A8B
:1055F0000024904202D2174B103B01E0194B103BA4
:105600001B4A114205D01E2202EAD12502682A4017
:1056100002E0406900F08002880001D5586800E08F
:105620001868124B1840084201D002B101242046EC
:1056300030BD0C4A904202D20648103801E00948B9
:1056400010380A4A8B0001EA020101D5C160704797
:1056500081607047106002403D000020400F002034
:1056600000003D20106402403F801CF07D0F7D0F44
:105670003C0F3C0F374900200860091D0860091DD8
:105680000860091D086033493348143108607047C9
:1056900030B530498379026853B30B6893430B608C
:1056A0000A1D13680468A343136002790A4413684F
:1056B000046823431360274A083213680468A3432D
:1056C0001360131D1C680568AC431C604479102CE2
:1056D00005D021440A68006802430A6030BD1168A1
:1056E000046821431160196800680143196030BDE6
:1056F0000079084401689143016030BD00210160D8
:1057000001710C22427181717047124910310A688F
:1057100002430A60704701460E4A002014321268A4
:105720000A4200D0012070470A49143108607047CE
:10573000084A014600201268064B0A4014331B68D1
:105740000B4202D0002A00D00120704701491431D9
:1057500008607047003C0140FFFF7F00FE4910B524
:10576000884206D101210846FFF7DEFB0021012017
:105770005BE0B0F1804F09D0F84988420DD101219A
:105780000220FFF7C7FB0021022070E0012108463C
:10579000FFF7C0FB0021012069E0F149884206D1F2
:1057A00001210420FFF7B6FB002104205FE0ED4952
:1057B000884206D101210820FFF7ACFB0021082018
:1057C00055E0E949884206D101211020FFF7A2FBEC
:1057D000002110204BE0E549884206D1012120201C
:1057E000FFF798FB0021202041E0E149884206D1E3
:1057F00001210220FFF798FB0021022015E0DD497E
:10580000884202D101210C040AE0DB49884202D11E
:1058100001214C0404E0D94988420AD101218C04B9
:105820002046FFF781FB00212046BDE81040FFF72E
:105830007BBBD349884206D101214020FFF76AFB98
:105840000021402013E0CF49884206D10121802069
:10585000FFF760FB0021802009E0CB4988420AD194
:10586000841501212046FFF755FB00212046BDE8A5
:105870001040FFF74FBB10BD30B50288B64BBC4C93
:1058800098420DD0A0420BD0B0F1804F08D0B34D5C
:10589000A84205D0B24DA84202D0B24DA84203D1D1
:1058A00022F070054A882A43AF4DA84206D0AF4D7A
:1058B000A84203D022F440750A892A4302804A682C
:1058C000C2620A880285984201D0A04201D1897A39
:1058D00001860121818230BD4FF0FF3141600021FE
:1058E0000180018141808172704701858282704709
:1058F000028822F070020A430280704741627047BA
:10590000C1627047406A7047008D70470029018866
:1059100002D041F0020101E021F002010180704754
:105920000029018802D041F0040101E021F00401C6
:10593000018070470029018802D041F0800101E018
:1059400021F0800101807047028822F00802028065
:1059500002880A4302807047028822F44072028063
:1059600002880A43028070470029018802D041F072
:10597000010101E021F001010180704730B5028C86
:1059800022F001020284028C8388048B22F002023E
:1059900024F073050C882C438D8915434A882A43CB
:1059A0006D4DA84202D0724DA8420DD122F00805DB
:1059B000CA8923F440732A4322F004058A882A43C3
:1059C0000D8A1D434B8A2B4383800483896841637E
:1059D000028430BD70B5028C22F010020284028C69
:1059E0008488038B0D8823F4E6464FF6FF7303EAA1
:1059F000052535438E8922F0200203EA0616164358
:105A00004A8803EA02123243534EB04202D0584E43
:105A1000B04215D122F08006CA8924F4406403EA1A
:105A20000212324322F040068A8803EA021232430D
:105A30000E8A03EA860626434C8A03EA840434432A
:105A40008480058389688163028470BD70B5028C8F
:105A500022F480720284028C8488838B0D8823F068
:105A600073031D4322F400738E894FF6FF7202EA1E
:105A700006261E434B8802EA03233343364EB042C8
:105A800002D03B4EB04215D123F40066CB8924F4FA
:105A9000405402EA0323334323F480668B8802EAEE
:105AA000032333430E8A02EA061626434C8A02EA8F
:105AB00004143443848085838968C163038470BD82
:105AC00070B5028C22F480520284048C8288838B0D
:105AD0000D8823F4E6464FF6FF7303EA05253543A8
