:020000040800F2
:10000000E83A0120D14C0008390200083B02000800
:100010003D0200083F020008410200080000000005
:10002000000000000000000000000000A101000826
:100030004302000800000000E5010008197C0008E8
:10004000EB4C0008EB4C0008EB4C0008EB4C0008B4
:10005000EB4C0008EB4C0008C5040008EB4C000812
:10006000C3040008EB4C0008EB4C00083303000805
:100070000D030008A1030008AB0300086902000893
:10008000EB4C00087F030008EB4C0008EB4C000829
:10009000EB4C0008EB4C0008EB4C0008CB040008CC
:1000A000EB4C0008110400083D040008EB4C00086C
:1000B0003F0400085F0400087F040008EB4C0008C0
:1000C000EB4C0008EB4C0008EB4C0008BF040008A8
:1000D000EB4C000849020008EB4C0008EB4C000810
:1000E00003070008EB4C0008EB4C0008EB4C000841
:1000F000EB4C0008EB4C0008EB4C000855030008E3
:10010000EB4C0008EB4C00089F040008C1040008F9
:10011000EB4C0008EB4C0008D7030008090400086A
:100120009702000871020008BD020008EB4C0008AD
:10013000EB4C0008EB4C0008EB4C0008EB4C0008C3
:10014000EB4C0008EB4C0008EB4C0008EB4C0008B3
:1001500003030008EB4C0008EB4C0008EB4C0008D4
:10016000EB4C0008EB4C0008EB4C0008EB4C000893
:10017000EB4C0008EB4C0008EB4C0008EB4C000883
:10018000EB4C0008EB4C0008DFF810D008F01AFA2E
:1001900000480047BD4A0008AFF30080E83A01205C
:1001A000224B19680868B0E8F00F80F30988BFF3A4
:1001B0006F8F4FF0000080F311884EF00D0E7047E6
:1001C0000000000006480068006880F3088862B6F6
:1001D00061B6BFF34F8FBFF36F8F00DF00BF00BF6B
:1001E00008ED00E0EFF30980BFF36F8F0F4B1A6843
:1001F00020E9F00F106008B54FF0500080F311882F
:10020000BFF34F8FBFF36F8F06F0E8FD4FF0000094
:1002100080F31188BDE8084019680868B0E8F00F5D
:1002200080F30988BFF36F8F704700BF84010020FF
:10023000EFF30580704700007047FEE7FEE7FEE73A
:10024000FEE770477047704710B5F84C40F22551F3
:10025000204606F0A2FA002805D02046BDE810404E
:10026000202106F097BA10BDF149F24805F0A7BB6E
:1002700070B5F14CF14D2146284605F07DFB002874
:1002800008D02146284605F09AFB01F0D5FBEC4941
:100290000120087070BD70B5E84DEA4C183D21464C
:1002A000284605F069FB002807D001F0F3FE21463F
:1002B0002846BDE8704005F082BB70BDDF4810B530
:1002C000E149183005F07BFBE048417A0D2905D063
:1002D000BDE810400021D54806F09EB9417802786B
:1002E00041EA0221DA4A1180C178827841EA02218A
:1002F000D84A11804179007941EA0020D649088026
:1003000010BDCE48D549603005F059BB70B5C94D18
:10031000C94C483D2146284605F02EFB002807D051
:100320002146284605F04BFBBDE8704000F0A7BB16
:1003300070BD70B5BF4DC34C603D2146284605F0E9
:100340001BFB002805D021462846BDE8704005F07B
:1003500036BB70BD70B5B74CC14D483429462046F8
:1003600005F00AFB002809D00021204605F079FAA3
:1003700029462046BDE8704005F021BB70BD70B530
:10038000AC4DB84C30352146284605F0F5FA00282A
:1003900005D021462846BDE8704005F010BB70BD71
:1003A000A448A349303805F00ABB10B5A14CAE49AA
:1003B000183C204605F0E0FA00280BD04FF0C05161
:1003C000204605F0B2FA0021204605F04AFAA74976
:1003D0000020086010BD10B50121A54805F0BBFF45
:1003E000A4480078914CA08003F061FF0121A2484D
:1003F00006F012F90121A14806F00EF92046BDE8E9
:100400001040012106F008B901219D4805F0A3BF65
:1004100010B59C4C0121204605F091FF00280CD01E
:100420000121204605F097FF2088C1069648016803
:1004300001D5491E00E0491C016010BD704710B590
:1004400001218C07204605F086FF2088C1068F48D1
:10045000016801D5491E00E0491C016010BD10B5BE
:100460008B4C0121204605F076FF2088C106894883
:10047000016801D5491E00E0491C016010BD10B59E
:10048000854C0121204605F066FF2088C10683487F
:10049000016801D5491E00E0491C016010BD10B57E
:1004A0007F4C0121204605F056FF2088C1067D487B
:1004B000016801D5491E00E0491C016010BD70476C
:1004C00070477047012005F0F9BA2DE9F05F4FF44D
:1004D000807B754D5C465946284604F029FD074649
:1004E0004FF4007A5146284604F022FD06462021AA
:1004F0006E4804F01DFD0546204605F0DFFA6C4C01
:100500004FF0000948B3012F03D0B6B3012E38D005
:1005100020E0DFF86C81404605F0BAFB65490A68C7
:1005200002EB421202EB42021044634A1060C1F82F
:1005300000900021404605F0A7FB012E01D026B116
:1005400008E03DB92068401C03E0012D02D120687D
:10055000401E2060584605F0BFFAD346504605F0CD
:10056000ADFADFF858814FF0010A90B3012E0BD09D
:1005700098F80000012812D01BE0FFE7012DE1D020
:10058000E8E7002DE3D0E5E73D4805F081FBC8F83A
:10059000100088F800A087B1012F13D016E038486A
:1005A00005F076FBD8F81020801AC8F8080088F803
:1005B0000090012F1AD0E7B108E0012D06D1206884
:1005C000401C02E015B92068401E2060584605F026
:1005D00083FA202005F072FA002826D0012D0BD0D6
:1005E00098F801004546012811D018E0002DE6D00A
:1005F000ECE7012DE7D0E9E7214805F049FBC8F811
:10060000140088F801A0012F5AD067B161E01C489E
:1006100005F03EFB6969401AE86085F801901FB15A
:10062000012F5ED055E04FE058E05DE00010014042
:100630002080002070600240008800102864024082
:10064000190000202080001000802010E209002006
:1006500030000020340000203600002000880020F8
:100660000080002800802020008000186400002006
:10067000001000402000002000480040001401400D
:100680000014004000000140C0000020C400002011
:1006900000040040C800002000080040CC000020FA
:1006A000000C0040D0000020000802400010024072
:1006B0005C010020580100205401002000000020AF
:1006C0003EB92068401C03E0012E02D12068401E84
:1006D0002060BDE8F05F202005F0FEB9012EF0D0CB
:1006E000F7E7002EF2D0F4E7BDE8F09F074948682D
:1006F0008A68824200D98868CA68824200D9C8687C
:1007000070474FF4004005F0D9B900000000002008
:1007100070B5054607F0DCFA04462946FC4807F0A8
:10072000DEFA002816D095222946F94807F0C4FAC7
:10073000F84D0021284605F094F8F648F449B838F9
:10074000C0F8C410C0F8BC402846BDE87040012184
:1007500005F087B870BD70B5EF4D06460024315DD9
:1007600000290BD0284605F07DFF8021284606F0A1
:100770000AF80028F9D0641CE4B2F0E770BD70B547
:10078000E54E05460024002D0DD02946304605F0E3
:1007900069FF8021304605F0F6FF0028F9D0641C7F
:1007A000E4B2032CEFD370BD13B50C460020FFF765
:1007B000E6FFDAA0FFF7CFFFD5482346D8A296215F
:1007C000E63807F049FFD248E638FFF7C4FFD5A066
:1007D000FFF7C1FFCE48D2A29621E638009B07F072
:1007E0003BFFCB48E638FFF7B6FFD0A0FFF7B3FFDB
:1007F000FF20FFF7C4FFFF20FFF7C1FFBDE81C404B
:10080000FF20BCE770B505460C46C4A0FFF7A3FF68
:10081000BF482246C2A1E63807F038FFBC48E63898
:10082000FFF799FFBFA0FFF796FF2846FFF793FF5A
:10083000BEA0FFF790FFBDE87040FF209FE777B5AF
:10084000B8A185B00646D1E90001CDE90001B7A005
:10085000002200680390B1A0AD4D0068283DA5F1CD
:1008600028030290AA4C1146A3F19600A95499546A
:100870008154A154521CD2B21E2AF7D30A2101700E
:10088000FF2444708470C470A148A5A15038079A11
:1008900007F0FCFE9E4902A8503907F001FA9C4877
:1008A00002A9E63807F0FCF999486946E63807F0EE
:1008B000F7F997483146E63807F0F2F9944898A1DD
:1008C0005038069A07F0E2FE91495039A1F196009E
:1008D00007F0E6F98E4803A9E63807F0E1F98C49FC
:1008E0002C706C702839AC70A1F1BE0007F0D8F9FB
:1008F0008748E638FFF70CFF08B070BD2DE9F741D7
:10090000884688A185B00646D1E90001CDE90001FD
:1009100086A000220068039080A07D4D0068283DDD
:10092000A5F1280102901446A1F19600AC548C5414
:100930008454521CD2B20A2AF8D30A210170FF272C
:1009400047708770C770724875A15038079A07F0D2
:100950009DFE6F4902A8503907F0A2F96C4802A920
:10096000E63807F09DF96A486946E63807F098F9D5
:1009700067483146E63807F093F965484146E6385E
:1009800007F08EF9624803A9E63807F089F92F705D
:100990006F705F49AF70EC7028392C71A1F1BE0007
:1009A00007F07EF95A48E638FFF7B2FE08B0BDE816
:1009B000F08101B58EB05EA2322168460E9B07F031
:1009C0004BFE6846FFF7A4FE0FB000BD73B555A1FE
:1009D00084B00646D1E90001CDE9000153A0002210
:1009E000006803904DA04A4D0068283DA5F12803FA
:1009F0000290474C1146A3F19600A9549954815492
:100A0000A154521CD2B21E2AF7D30A210170FF242E
:100A100044708470C4703E4841A15038059A07F074
:100A200035FE3B4902A8503907F03AF9384802A987
:100A3000E63807F035F936486946E63807F030F908
:100A400033483146E63807F02BF931495039A1F1E6
:100A5000960007F025F92E4803A9E63807F020F99B
:100A60002B492C706C702839AC70A1F1BE0007F0D6
:100A700017F92748E638FFF74BFE06B070BDF0B512
:100A80002E4885B001784278C4780A4481780B19E1
:100A90001A4403791A4443791A4483791A44C3796E
:100AA0001344027A1344DBB202F00F0202938DF872
:100AB0000020407A984201D10D2A0AD09DF800000A
:100AC0000D2869D005B00021BDE8F0401C4805F0B4
:100AD000A3BDC1F17F0007F083FB0546A4F18100AF
:100AE00007F07EFB044615F0FF4F4FF07E5000D11B
:100AF000054614F0FF4F00D10446284607F08AFB54
:100B00000746204607F086FB002F1BDB3A461AE01B
:100B1000CE020020B8600240005000407400000087
:100B2000256400002E7478743D220000220000002D
:100B30006A302E76616C3D2564000000F1090020CA
:100B4000004800407A42011E00DA4142114401EBA4
:100B5000D1714910FE4E3165002800DA404232283A
:100B600006DA380000D57842322801DA002012E097
:100B7000204607F087FB07460C46284607F082FB15
:100B80003A46234608F0B2FA4FF00042F14B07F024
:100B90002FFA07F058FBF06405B0F0BDEE48017A7B
:100BA00001F00F010D2904D10078C00701D00D20FC
:100BB00070470020704701B581B0019800EBC0007C
:100BC00040000090002801D0401EFAE70CBD01B59E
:100BD00081B044F25061019848430090002801D050
:100BE000401EFAE70CBD1CB501210F2004F008FBE4
:100BF0004CF6804000906946D84804F033F94FF431
:100C0000034000906946D64804F02CF941F60310E1
:100C1000009001208DF8040000218DF806108DF859
:100C2000070003208DF805006946CE4804F01AF944
:100C30004FF6C17000906946CB4804F013F91CBD13
:100C40001CB50121162004F0DBFA00208DF8040009
:100C500001208DF8070002208DF805004FF4C040F8
:100C600000906946BE4804F0FDF8032000906946F4
:100C7000BA4804F0F7F84FF2FF5000906946BB48BD
:100C800004F0F0F81CBD1FB54FF4E06004F032F83A
:100C900036208DF80C0002208DF80D008DF80E0026
:100CA00001208DF80F0003A804F029F8012110207D
:100CB00004F0C4FA3220ADF8000040F2E7300190B1
:100CC0000020AB4CADF80800ADF8020069462046A4
:100CD00004F098FF0121204605F03DFB012211465A
:100CE000204605F018FB0021204604F0CDFF01212D
:100CF000204604F0FFFF1FBD1FB54FF4E06003F076
:100D0000F9FF37208DF80C0000248DF80D408DF888
:100D10000E4001208DF80F0003A803F0F0FF012121
:100D2000202004F08BFA3220ADF80000ADF8084026
:100D3000ADF8024063208F4C01906946204604F0D4
:100D400061FF0121204605F006FB012211462046E5
:100D500005F0E1FA0021204604F096FF012120462B
:100D600004F0C8FF1FBD70B58AB00121042004F053
:100D700065FA01210D2004F043FA784E02220C217D
:100D8000304604F0F8F802220D21304604F0F3F862
:100D900002220E21304604F0EEF802220F213046E6
:100DA00004F0E9F84FF47040059002208DF8180027
:100DB00003208DF8190000248DF81A4001258DF8C4
:100DC0001B5005A9304604F04DF8A420ADF81C00D6
:100DD0002802694E0890ADF82400ADF81E4007A91E
:100DE000304604F00FFF7020ADF80000ADF802505F
:100DF0000294ADF80C400121304604F07BFF002145
:100E0000304604F041FF6946304604F07DFF6946F4
:100E1000304604F0A5FF6946304604F0DDFF694620
:100E2000304605F013F80AB070BD2DE9F0470121F6
:100E30008AB0084604F002FA0121022004F0FEF90B
:100E40000121032004F0DCF9DFF8189101220F21C1
:100E5000484604F090F8DFF8108101220321404653
:100E600004F089F802220421404604F084F80222AA
:100E70000521404604F07FF802268DF80460032720
:100E800038208DF80570002400908DF8064001256B
:100E90008DF807506946404603F0E4FF8DF8046082
:100EA000E8038DF8057000908DF806408DF8075026
:100EB0006946484603F0D6FF4FF6FF70ADF80C4088
:100EC00004904FF08049ADF81440ADF80E4003A9EE
:100ED000484604F097FEDFF8A4A003A9504604F0AA
:100EE00091FE4FF004081420ADF81880ADF82000F2
:100EF000ADF81A60ADF81C5006A9484605F03CF95B
:100F000006A9504605F038F902231A46032148463F
:100F100005F09BFA02231A460321504605F095FA84
:100F20000121484605F017FA0121504605F013FA51
:100F300001221146484605F0EEF9012211465046BD
:100F400005F0E9F90121484604F0D4FE012117E03B
:100F500098000020A9E78140F1090020000C024020
:100F6000000802400000024000040240001002405D
:100F70000010004000140040000800400004004041
:100F8000504604F0B7FE0021484604F07DFE0021E3
:100F9000504604F079FE780203F0ACFE1D208DF877
:100FA00008008DF809708DF80A408DF80B5002A8E2
:100FB00003F0A5FE1C208DF808008DF809808DF83F
:100FC0000A408DF80B5002A803F099FE0AB0BDE864
:100FD000F0872DE9F04101218AB0084604F038F984
:100FE0000121102004F00CF94FF4206000904FF024
:100FF000020803208DF8048000248DF805008DF888
:10100000064001258DF807506946FE4F384603F02B
:1010100029FF4FF6FF70FC4EADF808400390ADF885
:101020001040ADF80A4002A9304604F0EBFD012261
:101030000921384603F09FFF01220B21384603F0B7
:101040009AFF0427C820ADF81470ADF81C00ADF865
:101050001680ADF8185005A9304605F08DF802232A
:101060001A460321304605F0F0F90121304605F01B
:1010700072F901221146304605F04DF90121304642
:1010800004F038FE0021304604F0FEFDB4823580C5
:101090004FF4C06003F02EFE19208DF820008DF86B
:1010A00021708DF822408DF8235008A803F027FE08
:1010B0000AB07CE42DE9F0418AB00121042004F05B
:1010C000BDF80121082004F09BF84FF4405002269F
:1010D00000908DF8046003208DF805000024CB4FAC
:1010E0008DF8064001258DF807506946384603F013
:1010F000B9FE4FF6FF70DFF81883ADF80840039093
:10110000ADF81040ADF80A4002A9404604F07AFD5F
:1011100002220C21384603F02EFF02220D21384610
:1011200003F029FF0427C820ADF81470ADF81C00A7
:10113000ADF81660ADF8185005A9404605F01CF84A
:1011400002231A460321404605F07FF9012140465B
:1011500005F001F901221146404605F0DCF80121B5
:10116000404604F0C7FD0021404604F08DFDA8482C
:1011700014300480A8F800504FF4C06003F0BAFDAA
:101180001E208DF820008DF821708DF822408DF8FA
:10119000235008A803F0B3FD8AE72DE9F0418AB097
:1011A0000121082004F04AF80121084604F028F83B
:1011B000032002268DF804608DF805000024954F69
:1011C00000908DF8064001258DF807506946384695
:1011D00003F048FE4FF6FF70DFF83C82ADF80840A0
:1011E0000390ADF81040ADF80A4002A9404604F063
:1011F00009FD02220021384603F0BDFE0222012132
:10120000384603F0B8FE0427C820ADF81470ADF8D6
:101210001C00ADF81660ADF8185005A9404604F062
:10122000ABFF02231A460321404605F00EF90121C7
:10123000404605F090F801221146404605F06BF853
:101240000121404604F056FD0021404604F01CFDFB
:10125000714814300480A8F800504FF4C06003F0C7
:1012600049FD32208DF820008DF821708DF8224044
:101270008DF8235008A803F042FD19E72DE9F0414D
:101280009CB00121654803F0BBFF01210E023046EE
:1012900003F0DEFFDFF8888101221021404604F0D0
:1012A00055FB38208DF86C0000248DF86D408DF8CA
:1012B0006E4001258DF86F501BA803F020FD5948A2
:1012C00002A9CDE9004058480E2781E89100A80204
:1012D000CDE90540400007908000CDE908060AA945
:1012E000000181E831000D94694640460E9404F0F7
:1012F0007FFA0121404604F0B4FA012004F0ADF871
:10130000FC2003260F908DF840608DF843400FA914
:10131000404803F0A7FD30020F908DF840608DF833
:1013200043400FA9414803F09DFD3F200F908DF8E9
:1013300040608DF843400FA93D4803F093FD300411
:10134000CDE91740199417A81A9404F056F811948F
:10135000139414941594334C8DF848504C3C8DF8EC
:1013600049508DF8587011A9204604F01BF8072346
:1013700001220221204604F08AF8072302220321D9
:10138000204604F084F8072303220421204604F0B9
:101390007EF8072304220521204604F078F807236D
:1013A00005220621204604F072F80723062219467A
:1013B000204604F06CF807231A460821204604F062
:1013C00066F8072308220921204604F060F8072365
:1013D00009220A21204604F05AF807230A220B2189
:1013E000204604F054F807230B220C21204604F079
:1013F0004EF807230C220D21204604F048F807235D
:101400000D2217E00010024000000140000C0240D5
:101410000008004000000240000C004007004000AF
:10142000106402404C20014064030020000402408C
:10143000000802400E21204604F029F807230E225E
:101440000F21204604F023F80121204604F09CF8E7
:101450000121204604F08EF80121204603F0E4FF2C
:10146000204604F04EF81CB0BDE8F08170B505468A
:1014700096B00121102003F0EBFE0121084603F095
:10148000BFFE0121880503F0BBFE4FF4C06013903E
:1014900002208DF8500000248DF852408DF8534002
:1014A000FF4E8DF8510013A9304603F0DBFC0722F4
:1014B0000921304603F05FFD07220A21304603F080
:1014C0005AFD0F95ADF844400C20F64DADF8404064
:1014D000ADF84600ADF84240ADF848400FA92846A7
:1014E00005F029F80121284605F096F84FF4A06090
:1014F00003F000FC3A208DF8540001218DF85510BE
:101500008DF856108DF8571015A803F0F8FBE64E2D
:10151000304604F0E5F84FF000600090E348CDE974
:1015200002040A200490281D01900015CDE9054011
:101530008010CDE9084040020A9004200B900794E7
:101540000320CDE90C04694630460E9404F050F9AE
:1015500001224021284605F0F6F8012210213046EC
:1015600004F0F4F90121304604F07BF916B070BDA7
:101570002DE9F04F8046012197B0880403F05EFE0C
:101580000121082003F03CFE0121480503F038FE4C
:1015900002268DF8546000244FF440708DF85640B8
:1015A0000125C34F14908DF857508DF8556014A93C
:1015B000384603F057FC07220821384603F0DBFCCD
:1015C00007220921384603F0D6FCDFF8E8B2ADF86F
:1015D0004440ADF848400C27CDF84080ADF8464077
:1015E000ADF84C40ADF84A7010A9584604F0A3FF7E
:1015F0000121584605F010F84FF4A06003F07AFB83
:101600008DF83C708DF83D508DF83E508DF83F5070
:101610000FA803F074FB0E208DF83C008DF83D60A0
:101620008DF83E408DF83F500FA803F068FBDFF8BF
:1016300088A2504604F054F89C48ED060F30CDE9DE
:10164000020404A90A206F1481E8910008A84FF44D
:1016500080784FF40039079480E810030BF10406FA
:101660000B94CDE900566946504604F0C1F80122BA
:101670004021584605F067F801221021504604F039
:1016800065F90121504604F0ECF8DFF82CA20AF1CC
:10169000300A504604F024F8844800952138CDE9FA
:1016A00001604020039004A9212081E8910008A84E
:1016B000079480E81003694650460B9404F098F8AC
:1016C00001228021584605F03EF8012210215046A3
:1016D00004F03CF90121504604F0C3F817B0BDE80E
:1016E000F08FF0B50646012197B0C80403F0A6FDBF
:1016F0000121084603F084FD0121480503F080FD27
:1017000002208DF8500000248DF852408DF853408F
:10171000634F03258DF85100139513A9384603F044
:10172000A1FB08220021384603F025FC08220121F4
:10173000384603F020FC0F96ADF844400C205F4E75
:10174000ADF84040ADF84600ADF84240ADF8484035
:101750000FA9304604F0EFFE0121304604F05CFF93
:101760004FF4A06003F0C6FA0D208DF854008DF8F8
:1017700055408DF8564001208DF8570015A803F00C
:10178000BEFA4D4F1837384603F0AAFF780500908F
:10179000464869461E30CDE9020408200490301DF9
:1017A00001900015CDE905408010CDE908404002C8
:1017B00007940A900420CDE90C540B9038460E94FF
:1017C00004F016F801224021304604F0BCFF01224B
:1017D0004021304604F0B7FF01221021384604F0C2
:1017E000B5F80121384604F03CF817B0F0BD2DE9FA
:1017F000F0418046012196B0480503F001FD01212A
:10180000080503F01BFD01210C2003F0F9FC022563
:101810008DF8405000248DF84240254F04268DF865
:1018200043400F968DF841500FA9384603F01AFB3C
:101830008DF840508DF842408DF84340E8028DF815
:1018400041501F4D0F900FA9284603F00BFB0822B3
:101850000221384603F08FFB08220C21284603F0B2
:101860008AFB4FF4A06003F045FA2F208DF8540056
:1018700005208DF855008DF8560001208DF8570091
:1018800015A803F03CFAADF84840CDF84480ADF817
:101890004A40ADF84C40ADF850400C2012E000003A
:1018A000000002400010014040640240E2090020B4
:1018B000000C02400048004028600240004C0040FC
:1018C00000080240FF4DADF84E0011A9284604F073
:1018D00032FE0121284604F09FFEFB4F384603F0FC
:1018E000FFFE7006009040200390F848029095207B
:1018F0000490281D01900015CDE905408010CDE928
:1019000008404002CDE90A0607940320CDE90C0403
:10191000694638460E9403F06BFF01228021284669
:1019200004F011FF01221021384604F00FF80121C4
:10193000384603F096FF16B096E5F0B5054697B029
:101940000121202003F084FC0121042003F058FC35
:101950000121880503F054FCC020139002208DF86B
:10196000500000248DF852408DF85340D84E8DF829
:10197000510013A9304603F075FA082206213046BB
:1019800003F0F9FA08220721304603F0F4FAADF823
:1019900044400C20CF4EADF84040ADF846000F95C6
:1019A000ADF84240ADF848400FA9304604F0C3FD01
:1019B0000121304604F030FE4FF4A06003F09AF9A4
:1019C00039208DF8540003258DF8555001218DF8EC
:1019D00056108DF8571015A803F091F9BE4F3846F0
:1019E00003F07EFEB8050090BC48CDE902040F204C
:1019F0000490301D01900015CDE905408010CDE91F
:101A00000840400207940A900420CDE90C540B9042
:101A1000694638460E9403F0EBFE01224021304621
:101A200004F091FE01221021384603F08FFF0121BE
:101A3000384603F016FFD8E618B5A84A50788DF856
:101A400000009DF80000104483789DF80000AA3043
:101A5000C1B2002004E01418A478401C2144C9B28B
:101A60009DF80040A042F6DB12789D48AA2A03D1D7
:101A70008B4201D1012100E00021417018BDF0B579
:101A80000646012197B0480503F0BAFB01214D0439
:101A9000284603F0D3FB0121082003F0B1FB6020AE
:101AA000139002208DF8500000248DF852408DF8DC
:101AB00053408C4F8DF8510013A9384603F0D2F9EA
:101AC00007220521384603F056FA07220621384638
:101AD00003F051FA0F96ADF844400C20824EADF859
:101AE0004040ADF84600ADF84240ADF848400FA97F
:101AF000304604F020FD0121304604F08DFD4FF406
:101B0000A06003F0F7F811208DF854008DF85540CF
:101B10008DF8564001208DF8570015A803F0EFF816
:101B2000694F183F384603F0DBFDA80200904020C3
:101B300003906E4802903C200490301D01900015E7
:101B4000CDE905408010CDE908400420CDE90A50D8
:101B500007940320CDE90C04694638460E9403F03F
:101B600047FE01228021304604F0EDFD0122802154
:101B7000304604F0E8FD01221021384603F0E6FE6D
:101B80000121384603F06DFE2FE630B585B0012106
:101B9000142003F035FB0121880303F059FB0025D5
:101BA0004FF440708DF80450012400908DF80740E8
:101BB0006946474803F056F96020009069464C4852
:101BC00003F050F90821022004F027FE0921022029
:101BD00004F023FE0521042004F01FFE062104204A
:101BE00004F01BFE4FF4587002908DF80C5010203A
:101BF0008DF80D008DF80E4002A803F00FFF17209E
:101C00008DF810008DF811408DF812508DF81340AA
:101C100004A803F074F805B030BD10B5C3780022F5
:101C200002219B1CDBB204E0445C491C224492B2BA
:101C3000C9B28B42F8D2D0B2C0F1FF0010BD10B5CE
:101C40001C460346FF2020706070A3700720E070E0
:101C5000032020712A206071080AA071E171100A26
:101C6000207262722046FFF7D8FFA07210BD30B517
:101C70000C461A4B154601466F3BC8220120FFF760
:101C8000DEFF164BC822643B21460220FFF7D7FF38
:101C9000124BC822593B29460320FFF7D0FF0F48BB
:101CA000A738816BC0F85910C16BC0F85D10B0F84F
:101CB0004010A0F8611090F8421080F86310D0F83E
:101CC000431017E000500040B8600240CE020020F0
:101CD0000008024000140140286402400F0A00205E
:101CE00018000020000C02400044004018010020B1
:101CF000001002404166D0F847108166B0F84B10E2
:101D0000A0F86C1090F84D1080F86E10D0F84E10BE
:101D1000C0F86F10D0F85210C0F87310B0F8561019
:101D2000A0F8771090F8581080F8791030BD70B591
:101D3000FB4CE06C002816D1E289A1896089FFF78D
:101D400096FFF948F74941662121C165F64D4FF0EC
:101D5000C0515835284603F0E8FD0121284603F01C
:101D600080FD0120E06470BD10B5012810D003286B
:101D700019D0042822D0052809D1EC4C204604F0C3
:101D800071FC4021204604F0FEFC0028F9D010BD73
:101D9000E74C204604F066FC4021204604F0F3FCAA
:101DA0000028F9D010BDE34C204604F05BFC402134
:101DB000204604F0E8FC0028F9D010BDDE4C204697
:101DC00004F050FC4021204604F0DDFC0028F9D04E
:101DD00010BD2DE9FC41D94E304603F059FFD04DDE
:101DE0008035A96AB04640EA014000244CF25036E2
:101DF0004FF6E8570190404603F04AFFA96A40EACF
:101E0000014000900100019800D54942002800DA05
:101E10004042081AB04200DA641C00980190BC42AB
:101E200001DC022CE7DB0098BDE8FC812DE9FC41D8
:101E3000C24E304603F02CFFB94D8035A96AB0463A
:101E400040EA014000244CF250364FF6E85701902A
:101E5000404603F01DFFA96A40EA014000900100DE
:101E6000019800D54942002800DA4042081AB042E1
:101E700000DA641C00980190BC4201DC022CE7DB14
:101E80000098642190FBF1F0CEE72DE9FC414FF082
:101E90008046304603F0FCFEA14D8035E96AB0462D
:101EA00040EA014000244CF250364FF6E8570190CA
:101EB000404603F0EDFEE96A40EA0140009001006F
:101EC000019800D54942002800DA4042081AB04281
:101ED00000DA641C00980190BC4201DC022CE7DBB4
:101EE0000098A1E72DE9FC41954E304603F0D0FE65
:101EF0008B4D8035296BB04640EA014000244CF2FE
:101F000050364FF6E8570190404603F0C1FE296B6A
:101F100040EA014000900100019800D549420028A4
:101F200000DA4042081AB04200DA641C00980190BE
:101F3000BC4201DC022CE7DB009875E72DE9FC418F
:101F4000804E304603F0A4FE754D8035696BB04677
:101F500040EA014000244CF250364FF6E857019019
:101F6000404603F095FE696B40EA01400090010095
:101F7000019800D54942002800DA4042081AB042D0
:101F800000DA641C00980190BC4201DC022CE7DB03
:101F9000009849E72DE9FC416B4E304603F078FE8E
:101FA0005F4D8035A96BB04640EA014000244CF2F9
:101FB00050364FF6E8570190404603F069FEA96B92
:101FC00040EA014000900100019800D549420028F4
:101FD00000DA4042081AB04200DA641C009801900E
:101FE000BC4201DC022CE7DB00981DE74C4A0021D3
:101FF000803201280CD002280ED0032811D00428EA
:1020000014D0052803D150482430016091637047F3
:102010004A484162916270474FF080404162D1620C
:1020200070474748243001601163704745482430A9
:102030000160516370473EB50168009141680191AC
:102040000089ADF8080000206A46411C0C460AE0F1
:1020500032F8103032F81150AB4203D922F8105048
:1020600022F81130491C89B20529F1D3A0B2042805
:10207000EBD3BDF804003EBD0022114630F811300C
:10208000491C89B21A443229F8D33220B2FBF0F04D
:1020900080B27047F0B52D4F214D002407F18C061A
:1020A00004EB8402042107EB420000BF00EB410374
:1020B00033F8023C20F81130491E0904090CF5D10F
:1020C0002249383931F8141027F81210FFF7B3FFFE
:1020D00004EBC40101EB04112A7806EB8101641CB6
:1020E000A4B221F812000E2CDAD32878401CC0B21A
:1020F0002870322801D300202870144D00241C3D84
:1021000004EBC40000EB041006EB8000FFF7B4FF03
:1021100025F81400641CA4B20E2CF1D3F0BD00000D
:1021200018000020C109002000600240005000405B
:102130000010014000440040004C004000000140FD
:102140000004004000080040000C00409C030020F8
:1021500010B5FB4C00206072612020726420FEF7F5
:1021600036FD012060727A20207210BD10B5F44C4B
:1021700000206072612020726420FEF728FD01209B
:1021800060727A20207210BD2DE9F0410E4605469E
:1021900006F078F807460C46304606F073F83A46E3
:1021A000234606F0A3FFE74AE74B05F021FF06F0C0
:1021B0004AF8E34F803778653146084605F0F5FD6B
:1021C00004462946084605F0F0FD214605F095FD38
:1021D00006F058F807F024FA06F035F8B865BDE8BF
:1021E000F0812DE9F14F9AB00020D84A0090D44FE9
:1021F0001A9B8DF83C00DFF85893D64CD6499614BC
:102200004FF4004B07F180004FF480454FF4806895
:10221000252B7CD2DFE803F0132E32363A3E4246BD
:10222000484C50545B5F616365CCFDFCFBFAF9F8E8
:10223000F7F6F5F47BF3F2F1F0EFEEEDEC000221AE
:10224000104602F075FE50B101225946484602F090
:1022500087FE8021204602F07FFE002241E100221D
:102260005946484602F07CFE8021204602F076FE68
:10227000002244E1F96F0122B8A05DE2B96F0222A9
:10228000BBA059E2796F0322BEA055E2F96E042289
:10229000C1A051E2396F0522C3A04DE2B96E0622FA
:1022A000C5A049E207220AE1416A0822BFA043E231
:1022B000C1690922C1A03FE2C1690A22C2A03BE272
:1022C000F86D05F0A7FF01460B22C3A034E2C988D0
:1022D0000C22C6A030E20D2216E10E2218E10F22D8
:1022E0001AE1DFF81CA30121504602F021FE4FF451
:1022F00000570E903946484602F01AFE0D90022112
:10230000504602F015FE0C902946484600E015E2C2
:1023100002F00EFE0B900421504602F009FE0A90D6
:102320005946504602F004FE83460821504602F00A
:10233000FFFD81462946504602F0FAFD0790102124
:10234000504602F0F5FD05463946504602F0F0FDD4
:10235000059008212746204602F0EAFD0446314652
:10236000504602F0E5FD03901021384602F0E0FDF2
:1023700002904146504602F0DBFD07468021504660
:1023800002F0D6FD06464FF48071504602F0D0FDB3
:102390000494CDE9089B034606959AA228210FA82C
:1023A000CDE9006706F058F910220FA99EA0DEE1E2
:1023B00080219246104602F0C5FD0E900121504644
:1023C00002F0C0FD0D904021504602F0BBFD0C9084
:1023D000D94659462746204602F0B4FDDFF850B2F0
:1023E0000B903146584602F0ADFD4446414611E09F
:1023F000A7E19EE199E194E18FE18AE184E17EE148
:1024000074E195E08BE086E081E07CE05AE055E005
:1024100050E049E00A90504602F094FD4FF4006805
:1024200009904146584602F08DFD089041465046BD
:1024300002F088FD07902146384602F083FD0690A1
:102440003146504602F07EFD05904146384602F086
:1024500079FD80464FF40051504602F073FD04466A
:102460002946384602F06EFD07462946504602F0DE
:1024700069FD06464FF48071584602F063FD05463B
:102480004946504602F05EFDCDE90274CDE90056A2
:1024900003465CA228210FA8CDF8108006F0DCF8D6
:1024A00011220FA963A062E1FFF7EFFC014612229F
:1024B00062A041E1016D132265A03DE11422016A91
:1024C00036A039E10221104602F032FD68B1012246
:1024D0005946484602F044FD8021204602F03CFD6A
:1024E0001522B7F918105EA026E100225946484689
:1024F00002F036FD8021204602F030FD1522B7F9AA
:1025000018105EA018E11622016864A014E11722D9
:10251000416867A010E11822816869A00CE1FFF70B
:10252000E1FC002800DA40420146192269A003E1DB
:10253000FFF7ABFC002800DA404201461A22D3E044
:102540001800002078612288A9E781400004024039
:1025500000080240000C0240800300207365727680
:102560006F5F76616C75655F706861693A20000025
:10257000736572766F5F76616C75655F7361753ACE
:1025800020000000736572766F5F76616C75655F21
:10259000747261693A200000676F635F62616E6800
:1025A0005F706861693A2000676F635F62616E689F
:1025B0005F7361753A200000676F635F62616E68E8
:1025C0005F747261693A20005F544F435F444F5F0C
:1025D00042543A20000000006269656E5F78756FB2
:1025E0006E675F3230303A20000000005F414443A4
:1025F000315F46696C74657265643A2000000000C2
:102600000010024025642564256425642564256442
:102610002564256425642564256425642564256472
:102620002564256400000000496E3A200000000087
:10263000000002404F55543A2000000052454144EA
:102640005F454E434F4445525F323A200000000040
:1026500048554F4E475F47414D455F43543A200030
:102660002D2D2D20504147452031202D2D2D20533B
:10267000414E20444F20494D553A20002D2D2D200C
:10268000504147452031202D2D2D2053414E2058BB
:10269000414E4820494D553A200000006E616E675A
:1026A0005F6368616E5F747261693A2000000000C8
:1026B0006E616E675F6368616E5F7361753A20007B
:1026C0006E616E675F6368616E5F706861693A2012
:1026D00000000000454E434F4445525F42414E4882
:1026E0005F504841493A2000E3A025E0FFF771FB25
:1026F000002800DA404201461B22E4A01CE0B7F9A2
:102700001C101D22E6A017E0B7F91E101E22E6A03D
:1027100012E0898A1F22E6A00EE0C98A2022EAA0E0
:102720000AE0098B2122EEA006E0498B2222F2A0CA
:1027300002E0898B2322F6A0FEF781F81BB0BDE8EA
:10274000F08FF948447A037AC279817903AD85E83C
:102750001E0043790279C1788DE80E008378F3A2D8
:1027600028210FA805F078FF24220FA9F6A0FEF774
:10277000C5F8E3E70121F74803F073B811B4F64850
:10278000C16B009A914201DD002101E0C16B491C3F
:10279000C163C06B18BC24E5FEF700FA012004F009
:1027A00081FA012004F07EFAF6E70A2004F07AFAB2
:1027B000FBE72920FFF7E2FF0A2004F073FAF8E7AD
:1027C00007B5E548803881650099016542650EBD11
:1027D0002DE9FF411E460A9F019805F001FDDE4CE0
:1027E000DD4D803C206601986866A66502982065EC
:1027F000009805F0F5FC606600206065E865B4F9B6
:102800001800A866384605F005FD6084B4F922007A
:102810000A2801DD0A2001E04FF4FA602084BDE8B7
:10282000FF812DE9F84FC04ACC481E3ACA4C517876
:10283000CB074FEA817106D000290FDB1E20E0662E
:102840004FF080400CE0002908DAD179192903D92A
:102850000120E066C24803E0142100E01921E1668E
:10286000E067E06E1530A067FEF798F90D2806D0F6
:10287000BDE8F84F00224FF081411046A0E71078E4
:10288000B54D10F0480F4FF00001A5F180054FF055
:102890000A0636D1830634D4C30632D41379052709
:1028A000DFF8C082C82B07D9D4F850C0BCF1320F72
:1028B00002DAA86C404205E0322B22D2236D322B83
:1028C0001FDAA86CB5F9182000EBC00002EB8000FD
:1028D000686421670121E06F05F0D7FA0346A06F15
:1028E000CDF8008090FBF7F2216F686CFFF770FF66
:1028F000B5F9180068646667B5F918006864BDE842
:10290000F88F03074FF461774FEA406320D5002B1F
:102910003BDB830639D4C30637D41379C82B07D9D8
:10292000236D322B31DAB5F91800AA6C801A08E051
:10293000322B2AD2236D322B27DAB5F91800AA6C74
:102940001044686421670091D4E91E23216F0BE2D3
:10295000002B1ADA830618D4C30616D41379C82BB1
:1029600007D9236D322B10DAB5F91800AA6C801A3A
:1029700008E0322B09D2236D322B06DAB5F91800A4
:10298000AA6C104468642767DDE7774B10F0480FA6
:102990004FF4E16C47D15FEA80684FEAC06820D508
:1029A000B8F1000F3FDB92F80480B8F1C80F09D9E5
:1029B000D4F85080B8F1320F35DAB5F91800AA6CA6
:1029C000801A0BE0B8F1320F2DD2D4F85080B8F154
:1029D000320F28DAB5F91800AA6C1044686423672E
:1029E000B1E7B8F1000F1EDA92F80480B8F1C80F11
:1029F00009D9D4F85080B8F1320F14DAB5F91800BB
:102A0000AA6C801A0BE0B8F1320F0CD2D4F85080C7
:102A1000B8F1320F07DAB5F91800AA6C10446864EF
:102A2000C4F870C08FE75FEA00784FF4E179C9F12C
:102A3000000A40F2465B4FEA406819D5B8F1000F32
:102A40004FEA806815DAB8F1000F13DB5FEAC0685F
:102A500010D492F80480B8F1C80F0CD9D4F8508083
:102A6000B8F1320F06DAB5F91800AA6C801A89E0BD
:102A7000AFE08AE0D5E079E0454E434F4445525FF0
:102A800042414E485F5341553A200000454E434F66
:102A90004445525F42414E485F545241493A2000FA
:102AA000494D555F583A2000494D555F593A20002D
:102AB0005F414443315F46696C74657265645B31A4
:102AC000305D3A20000000005F414443325F4669B8
:102AD0006C74657265645B31315D3A200000000002
:102AE0005F414443315F46696C74657265645B3174
:102AF000325D3A20000000005F414443315F466987
:102B00006C74657265645B31335D3A2000000000CF
:102B10005F414443315F46696C74657265645B3143
:102B2000345D3A20000000000F0A002025642025B3
:102B300064202564202564202564202564202564E4
:102B400020256420256425004269745F4553503A6E
:102B500020000000A0600240980000206666263F2A
:102B60009A99993F0000A0417CFCFFFFB8F1320F19
:102B700057D2D4F85080B8F1320F52DAB5F91800B4
:102B8000AA6C10446864484649E0B8F1000F48DA7E
:102B90005FEAC06845D492F80480B8F1C80F09D93B
:102BA000D4F85080B8F1320F3BDAB5F91800AA6CAE
:102BB000801A0BE0B8F1320F33D2D4F85080B8F15C
:102BC000320F2EDAB5F91800AA6C1044686450462A
:102BD00025E0B8F1000F24DA5FEA806821D45FEACB
:102BE000C0681ED592F80480B8F1C80F09D9D4F88E
:102BF0005080B8F1320F14DAB5F91800AA6C801AB7
:102C00000BE0B8F1320F0CD2D4F85080B8F1320F8B
:102C100007DAB5F91800AA6C1044686458462067B2
:102C200091E69646FF4A10F0480F23D15FEA80688C
:102C300020D55FEAC0681DD59EF80480B8F1C80FA2
:102C400009D9D4F85080B8F1320F13DAB5F9180069
:102C5000AB6CC01A0BE0B8F1320F0BD2D4F8508035
:102C6000B8F1320F06DAB5F91800AB6C1844686495
:102C7000226768E65FEA00780AD55FEA406807D411
:102C80005FEA806804D45FEAC06801D421670AE083
:102C900010F0480F10D15FEA80680DD45FEAC06879
:102CA0000AD5C4F870C00091E36FE26E216F686CC2
:102CB000FFF78EFD666722E65FEA00780AD45FEAD6
:102CC000406807D55FEA806804D45FEAC06801D431
:102CD0002767E8E710F0480F05D1870603D5C70638
:102CE00001D42367DFE703074FEA40630FD5002BCA
:102CF0004FEA806305DA002B12DBC30610D4484686
:102D00000CE0002B0CDAC3060AD4504606E0002B78
:102D100006DA830604D4C30602D558462067C2E704
:102D200010F0480F29D183064FEAC06003D5002870
:102D300023DA2267B7E700281FDB206D32281CDD6D
:102D40009EF80400C82804D9B5F91800AA6C801AA6
:102D500005E032280CD2B5F91800AA6C104468645A
:102D60000091D4E91E23E16C686CFFF731FDC2E5E8
:102D70000091E36FE26EE16C99E7B5F918006864C1
:102D8000009100221146E36F686CFFF721FDB6E564
:102D90002DE9FF4182B015460C9C12F1FF4F01D383
:102DA00082F000454FF07E56B4F5000F01DA9E4CDC
:102DB00002E0B44200DD3446DDE90201401A00D5EC
:102DC000404247F2F858009088B305993746884248
:102DD0000ADA084605F004FA0746009805F000FAFA
:102DE000394605F014F807462146304604F0D7FF6F
:102DF000394604F0DAFF214604F07FFF294604F04B
:102E0000D4FF0446294605F077FA00D22C46204626
:102E100006F03AFA05F0FEF90190012801DA0120E6
:102E20000190DDE90001884206DC02980CE0FFE732
:102E30004246002103980AE0DDE902108842019928
:102E400001DA084400E0401A42460021039006B02F
:102E5000BDE8F04101F074BE2DE9F84F734D744F99
:102E6000744AE97900264FF0010A4FF4FA6340F200
:102E7000DC594FF4004B43F6C4304FF0804805F165
:102E800080041D2935D2DFE801F00F354B637985C9
:102E900098BDF5ECEBEAE9E8E7E6E5E4E3E2E1E03A
:102EA000DFDEDDDCDBDAD9000097A168C8239046BD
:102EB00047F2F8563046FFF76BFFA0600097216895
:102EC000C82342463046FFF763FF206000976168E1
:102ED000C82342463046FFF75BFF6060A068B042FF
:102EE00007D12068B042FBD16068B042F8D185F8C4
:102EF00007A094E200214346192208460096FFF7F6
:102F000067FC01214C4802F013F80028F1D100229F
:102F10004346114610460096FFF75AFC02207DE218
:102F20000097A168984616460020FFF731FFA06081
:102F300000972168434632460020FFF729FF2060B2
:102F4000A0680028D5D120680028D2D1032065E2EE
:102F500000214346192208460096FFF739FC02215A
:102F6000354801F0E5FF0028C3D100224346114651
:102F700010460096FFF72CFC04204FE20097616892
:102F80000020FFF705FF606060680028B1D1EE8285
:102F9000052043E200214346192208460096FFF728
:102FA00017FCE88A48457DD3002243461146104667
:102FB0000096FFF70DFC062030E200974FF496795B
:102FC000A1684B4690460646FFF7E2FEA0600097D8
:102FD00021684B4642463046FFF7DAFE20600097F4
:102FE00061684B4642463046FFF7D2FE6060A068FB
:102FF000B0428BD12068B04288D16068B04285D1A0
:1030000007200BE200214346192208460096FFF7ED
:10301000DFFB0121084801F08BFF002892D14346D5
:10302000002220E0BAFAFFFFCDCC4C3D1800002072
:10303000CDCCCC3D0000204100100240CDE1B6E1F6
:10304000AAE190E177E160E13CE128E11AE101E1E8
:10305000E8E0D1E0ADE099E08BE073E05AE043E0D6
:1030600037E020E006E0114610460096FFF7B0FB7F
:103070000820D3E10097A168984616460020FFF784
:1030800087FEA06000972168434632460020FFF784
:103090007FFE2060A0680028ABD120680028A8D15E
:1030A0000920BBE1EDE000214346192208460096C5
:1030B000FFF78EFB0221FE4801F03AFF002898D16D
:1030C00000224346114610460096FFF781FB0A2076
:1030D000A4E1009761680020FFF75AFE6060606815
:1030E000002886D10B2099E1002143461922084689
:1030F0000096FFF76DFB5946ED4801F019FF0128D6
:103100008CD100224346114610460096FFF760FB23
:103110000C2083E10097A168C82390460646FFF77C
:1031200037FEA06000972168C82342463046FFF76B
:103130002FFE2060A068B042AED12068B042ABD173
:103140000D206BE100214346192208460096FFF747
:103150003FFB4FF40051D74801F0EAFE01289BD114
:1031600000224346114610460096FFF731FB0E2021
:1031700054E100976168C8230746FFF709FE6060C5
:103180006068B84288D1EE820F2047E100214346B3
:10319000192208460096FFF71BFBE88A484570D3C2
:1031A00000224346114610460096FFF711FB1020FF
:1031B00034E10097A168984616460020FFF7E8FD25
:1031C000A06000972168434632460020FFF7E0FDEB
:1031D000206000976168434632460020FFF7D8FD23
:1031E0006060A06800288BD12068002888D16068C2
:1031F000002885D1112011E10021434619220846FB
:103200000096FFF7E5FA5946A94801F091FE01281A
:1032100092D100224346114610460096FFF7D8FA95
:103220001220FBE00097A168C82390460646FFF7EE
:10323000AFFDA06000972168C82342463046FFF7E3
:10324000A7FD2060A068B04289D12068B04286D135
:103250001320E3E000214346192208460096FFF7B9
:10326000B7FA4FF40051934801F062FE012889D16A
:1032700000224346114610460096FFF7A9FA142093
:10328000CCE088E000976168C8230746FFF780FD1F
:1032900060606068B8427DD1EE821520BEE00021FA
:1032A0004346192208460096FFF792FAE88A4845F5
:1032B00071D300224346114610460096FFF788FA64
:1032C0001620ABE00097A168984616460020FFF74D
:1032D0005FFDA06000972168434632460020FFF75B
:1032E00057FD206000976168434632460020FFF793
:1032F0004FFD6060A06800284CD12068002849D1AB
:103300006068002846D1172088E000214346192232
:1033100008460096FFF75CFA5946654801F008FE3A
:1033200001287CD100224346114610460096FFF743
:103330004FFA182072E00097A168C823904606460D
:10334000FFF726FDA06000972168C823424630465B
:10335000FFF71EFD2060A068B04260D12068B04237
:103360005DD119205AE000214346192208460096F3
:10337000FFF72EFA4FF400514E4801F0D9FD012815
:103380004DD100224346114610460096FFF720FA21
:103390001A2043E043E014E00097C8236168FFF778
:1033A000F7FC60606068D0BBEE821B2036E0002135
:1033B0004346192208460096FFF70AFAE88A48456C
:1033C00002D2401CE8822AE0002243461146104601
:1033D0000096FFF7FDF91C2020E00097A1689846B1
:1033E00016460020FFF7D4FCA060009721684346F2
:1033F00032460020FFF7CCFC20600097616843460E
:1034000032460020FFF7C4FC6060A06838B920682D
:1034100028B9606818B985F802A01D20E8716168B4
:10342000254880F82B106168090A80F82A10216865
:1034300080F826102168090A00F8251FA168C172CA
:10344000A168090A817236E42DE9F84F1B4D1C4F23
:103450001C4AA87900264FF0010B4FF4FA6340F2A2
:10346000DC5A43F6C43847F2F85C4FF0804905F166
:1034700080041E2840D2DFE800F00F40566E849092
:10348000A3C6F1EFEE3FEDECEBEAE9E8E7E6E5E4B1
:10349000E3E2E1E0DFDEDDDC0097A168C823164649
:1034A0004046FFF775FCA060C823324600970BE04A
:1034B00000100240000802401801002018000020FF
:1034C000CDCCCC3D0000204121684046FFF760FC98
:1034D000206000976168C82332464046FFF758FCD9
:1034E0006060A068404507D120684045FBD1606816
:1034F0004045F8D185F806B092E200214B461922EA
:1035000008460096FFF764F90121FB4801F010FD21
:103510000028F1D100224B46114610460096FFF7D5
:1035200057F902207BE20097A168984616460020D2
:10353000FFF72EFCA060009721684346324600202A
:10354000FFF726FC2060A0680028D5D1206800285D
:10355000D2D1032063E200214B461922084600968F
:10356000FFF736F90221E44801F0E2FC0028C3D15C
:1035700000224B46114610460096FFF729F9042019
:103580004DE2009761680020FFF702FC6060606810
:103590000028B1D1AE82052041E200214B4619221C
:1035A00008460096FFF714F9A88A50457ED30022FA
:1035B0004B46114610460096FFF70AF906202EE208
:1035C0000097A168C82316464046FFF7E1FBA060BC
:1035D00000972168C82332464046FFF7D9FB206098
:1035E00000976168C82332464046FFF7D1FB606010
:1035F000A06840458DD1206840458AD1606840452B
:1036000087D107200BE200214B461922084600967D
:10361000FFF7DEF80121B84801F08AFC002894D1B8
:1036200000224B46114610460096FFF7D1F80820BD
:10363000F5E1D3E1BCE1ADE192E178E160E138E1AF
:1036400024E116E1FEE0E5E0CDE0C1E0A9E090E094
:1036500079E055E03FE031E018E0FFE70097A1682E
:10366000984616460020FFF793FBA060009721685C
:10367000434632460020FFF78BFB2060A0680028FD
:1036800087D12068002884D10920C8E100214B4659
:10369000192208460096FFF79BF80221964801F090
:1036A00047FC0028A6D14B46002200E08FE01146DF
:1036B00010460096FFF78CF80A20B0E10097616889
:1036C0000020FFF765FB60606068002892D185F8F4
:1036D00002B00C20A3E100214B46192208460096B7
:1036E000FFF776F8A88A40F6C41188426FD300220B
:1036F0004B46114610460096FFF76AF80D208EE102
:103700000097A168C82316464046FFF741FBA0601A
:1037100000972168C82332464046FFF739FB2060F6
:1037200000976168C82332464046FFF731FB60606E
:10373000A0684045A4D120684045A1D160684045BB
:103740009ED10E206BE100214B46192208460096BF
:10375000FFF73EF80121684801F0EAFB00288FD10D
:1037600000224B46114610460096FFF731F80F2015
:1037700055E10097A168984616460020FFF708FB20
:10378000A06000972168434632460020FFF700FB07
:103790002060A068002885D12068002896D11020DC
:1037A0003DE100214B46192208460096FFF710F82C
:1037B0000221514801F0BCFB002887D100224B4672
:1037C000114610460096FFF703F8112027E1DAE0D2
:1037D000009761680020FFF7DBFA606060680028EE
:1037E000A8D112201BE100214B4619220846009661
:1037F000FEF7EEFF4FF400413F4801F099FB01282E
:1038000098D100224B46114610460096FEF7E0FF85
:10381000132004E10097A168C82316464046FFF72D
:10382000B7FAA06000972168C82332464046FFF7E8
:10383000AFFA2060A068404591D1206840458ED104
:103840001420ECE000214B46192208460096FEF7B2
:10385000BFFF4FF40051294801F06AFB01289AD1BB
:1038600000224B46114610460096FEF7B1FF152088
:10387000D5E000976168C8234046FFF789FA606089
:10388000606840457ED1AE821620C8E000214B46DC
:10389000192208460096FEF79BFFA88A504572D36E
:1038A00000224B46114610460096FEF791FF172066
:1038B000B5E00097A168984616460020FFF768FA21
:1038C000A06000972168434632460020FFF760FA67
:1038D000206000976168434632460020FFF758FA9F
:1038E0006060A06800284DD1206800284AD1606837
:1038F000002847D1182092E0001002400008024042
:1039000000214B46192208460096FEF761FF4FF44E
:103910000041FE4801F00CFB012833D100224B4648
:10392000114610460096FEF753FF192077E00097E6
:10393000A168C823904666466046FFF729FAA06052
:1039400000972168C82342463046FFF721FA2060DD
:10395000A068B04264D12068B04261D11A205EE014
:1039600000214B46192208460096FEF731FF4FF41E
:103970000051E74801F0DCFA012851D100224B4602
:10398000114601E020E01DE010460096FEF720FF02
:103990001B2044E000976168C82367466046FFF734
:1039A000F7F960606068B8423AD1AE821C2036E018
:1039B00000214B46192208460096FEF709FFA88A07
:1039C000504502D2401CA8822AE000224B461146F4
:1039D00010460096FEF7FCFE1D2020E00097A1682F
:1039E000984616460020FFF7D3F9A060009721689B
:1039F000434632460020FFF7CBF92060009761680C
:103A0000434632460020FFF7C3F96060A06838B92A
:103A1000206828B9606818B985F802B01E20A8711E
:103A20006168BC4880F82B106168090A80F82A1088
:103A3000216880F826102168090A00F8251FA1686E
:103A4000C172A168090A8172FDE42DE9F84FB24DF7
:103A50004FF4FA60B14E6979B14F83064FF0010A15
:103A600040F6980C4FF4967E4FF4C87B43F6C4386A
:103A70004FF0000905F1800418297DD2DFE801F03C
:103A80000C34516C8B9AB8D2FCFBFAF9F8F7F6F5C6
:103A9000F4F3F2F1F0EFEEED0096A1683223B846B0
:103AA0003A4647F2F8573846FFF772F9A060009699
:103AB0002168322342463846FFF76AF920600096B3
:103AC0006168322342463846FFF762F96060A068B9
:103AD000B84251D12068B842FBD16068B842F8D1F1
:103AE000504685F803A06EE200211E4619220846C2
:103AF000CDF80090FEF76CFEE87800283CD001215C
:103B0000824801F015FA0028E3D10022334611461D
:103B10001046CDF80090FEF75BFE85F8039002207A
:103B200051E20096A168E04663463A460020FFF75E
:103B30002FF9A0600096216843463A460020FFF71F
:103B400027F92060A0680028C3D120680028C0D1D0
:103B500085F804A0032036E200211E4619220846FB
:103B6000CDF80090FEF734FE28790028C6D0022157
:103B7000664801F0DDF900E0FAE10028A9D1002251
:103B8000334611461046CDF80090FEF721FE85F829
:103B90000490042017E20096616863463A460020CC
:103BA000FFF7F6F860606068002892D185F803A0FE
:103BB000052008E200211E4619220846CDF8009093
:103BC000FEF706FEE878002898D04FF400414F48F1
:103BD00001F0AEF9012897D1002233461146104674
:103BE000CDF80090FEF7F4FD85F803900620EAE199
:103BF0000096A168C8233A464046FFF7C9F8A0607E
:103C000000962168C8233A464046FFF7C1F8206075
:103C1000A068404598D12068404595D185F804A01A
:103C20000720D0E100211E4619220846CDF8009059
:103C3000FEF7CEFD2879002898D04FF40051344883
:103C400001F076F9012899D1002233461146104639
:103C5000CDF80090FEF7BCFD0FE093E179E16BE158
:103C600051E138E11EE1E5E0D5E0BBE0A1E087E00D
:103C700079E05BE031E013E003E085F80490082090
:103C8000A1E100966168C8233A464046FFF780F8F4
:103C900060606068404588D185F803A0092092E102
:103CA00000211E4619220846CDF80090FEF790FD2F
:103CB000E878002888D00121144801F039F900285B
:103CC00089D10022334611461046CDF80090FEF708
:103CD0007FFD85F803900A2075E10096A168804673
:103CE00003463A460020FFF753F8A060009621688B
:103CF00043463A460020FFF74BF82060A0680028B2
:103D000088D12068002885D10CE000000010024016
:103D1000000802401801002018000020CDCCCC3D46
:103D20000000204185F804A00B204CE100211E4634
:103D300019220846CDF80090FEF74AFD28790028A0
:103D4000B8D00221F84801F0F3F80028A3D10022EE
:103D5000334611461046CDF80090FEF739FD85F840
:103D600004900C202FE10096616803463A4600203B
:103D7000FFF70EF86060606800288CD10D2022E10A
:103D800000211E4619220846CDF80090FEF720FDBE
:103D90004FF40041E44801F0CBF8012890D1002213
:103DA000334611461046CDF80090FEF711FD0E2067
:103DB00009E10096A168F14673463A464046FEF78F
:103DC000E7FFA060009621684B463A464046FEF762
:103DD000DFFF2060A068404592D1206840458FD128
:103DE0000F20F0E000211E4619220846CDF8009071
:103DF000FEF7EEFC4FF40051CC4801F099F8012891
:103E0000A4D10022334611461046CDF80090FEF7AB
:103E1000DFFC1020D7E00096616873463A464046C2
:103E2000FEF7B6FF6060606840458FD185F802A05C
:103E30001120C8E0298ACDF80090814208D20021E3
:103E400019220846FEF7C4FC288A401C2882BBE0E1
:103E5000002211461046FEF7BBFC0096A1685B46A7
:103E60003A460020FEF794FFA060009621685B466A
:103E70003A460020FEF78CFF2060009661685B46A2
:103E80003A460020FEF784FF6060A06800286FD1EA
:103E9000206800286CD16068002869D1A5F81090CE
:103EA000122090E000211E4619220846CDF800900D
:103EB000FEF78EFC4FF400419B4801F039F80128D1
:103EC00056D10022334611461046CDF80090FEF739
:103ED0007FFC132077E00096A168FA233A4640461B
:103EE000FEF756FFA06000962168FA233A46404646
:103EF000FEF74EFF2060A068404565D12068404530
:103F000062D114205FE000211E4619220846CDF838
:103F10000090FEF75DFC4FF40051844801F008F872
:103F2000012851D10022334611461046CDF80090A9
:103F3000FEF74EFC152046E000966168FA233A46EB
:103F40004046FEF725FF6060606840453CD1162082
:103F500039E0688A40F634018842CDF8009008D2F2
:103F6000002119220846FEF733FC688A401C68824B
:103F70002AE0002211461046FEF72AFCA5F812900E
:103F8000172020E00096A1685B463A460020FEF725
:103F9000FFFEA060009621685B463A460020FEF7CF
:103FA000F7FE2060009661685B463A460020FEF707
:103FB000EFFE6060A06838B9206828B9606818B959
:103FC00085F802A0182068716168594880F82B10A4
:103FD0006168090A80F82A10216880F82610216893
:103FE000090A00F8251FA168C172A168090A817237
:103FF0002AE5504C6078010702D5FFF726FD0BE05B
:10400000810602D5FFF720FA06E0C00602D5FEF7CA
:1040100023FF01E0FEF705FC072002F043FEE9E77D
:104020007CB501200024CDE90004050223462A4680
:1040300041A1444802F07FFC0420CDE900040023A4
:104040002A4641A1434802F076FC0220CDE9000453
:1040500000232A4640A1444802F06DFC0320CDE92C
:10406000000400232A4641A1444802F064FCBDE854
:104070007C4002F0EABF2DE9F04791460E46044627
:1040800003F090FE054620F00040074616F0FF4F73
:1040900001D0314601E04FF07E5103F0B8FE3849BF
:1040A00003F083FE04F0EEF805F078F9DFF8D48031
:1040B0000022434603F099FF012204F07AF804F04D
:1040C000F4F83149B5F5000F60DB8F4207DD0121BF
:1040D000484603F0DAFE214603F00FFE1DE004F02F
:1040E000D1F84FF0FF3204F064F80022434603F0A9
:1040F000D8FE07460D46484604F0C4F83A462B461B
:1041000003F076FF07460D46204604F0BBF83A461A
:104110002B4603F0C6FE04F0C8F80446314604F00E
:10412000EBF865D263E031E0001002400008024085
:1041300018010020F10900205461736B5F4D616923
:104140006E000000F33F00085461736B5F484D49F7
:1041500000000000B32700085461736B5F436F6E6B
:1041600074726F6C5F310000AB2700085461736B91
:104170005F436F6E74726F6C5F32000099270008A6
:104180000000A0C00000F03F0000A04115F1FF4F6B
:104190002ED38F4207DD0121484603F076FE2146EB
:1041A00003F000FE1EE004F06DF84FF03332F84BE0
:1041B00003F01EFF0022434603F073FE07460D4640
:1041C000484604F05FF83A462B4603F011FF0746D5
:1041D0000D46204604F056F83A462B4603F002FFFF
:1041E00004F063F80446314604F07CF800D234460B
:1041F0002046BDE8F0872DE9F041E64C4FF07E51B6
:10420000E06D03F07AFD0546E065A4F1800000272B
:10421000416DBE1EB1F5000F1BDB8046284604F041
:104220006BF83ED231464546D8F85C0003F02DFECF
:104230000646696E03F061FD6866606EB5F9181098
:10424000401AA16E084403F0CBFF314603F0A7FDEE
:1042500025E011F1FF4F26D38046084603F0DAFF30
:10426000002800DA404203F0BBFF294604F03AF888
:1042700017D231464546D8F85C0003F006FE0646E4
:10428000696E03F08FFD6866606EB5F9181008441A
:10429000A16E401A03F0A4FF314603F02EFD2866FC
:1042A000E765BDE8F081012141628162F9E72DE90E
:1042B000F05FB84C803C606D03F0ACFF400001D073
:1042C000FFF799FF206D03F08BFF0146D4E916201C
:1042D000FFF7D1FE8146E065606D03F09BFF400073
:1042E000DFF8B482AD4DAB4FB4F918004FF4E1667E
:1042F00014D003F075FF616E03F051FD414603F0E9
:1043000054FD03F087FFB861B869B04201DDBE61BA
:1043100019E0B869A84216DABD6114E003F060FF45
:10432000616E03F03CFD414603F03FFD03F072FF78
:10433000B861B9694FF46160814203DCB9694042F8
:10434000814200DAB861206E9549804603F05FFD36
:1043500003F060FF4FF46161484303F041FF4146C1
:1043600003F020FD03F056FF6083B86900280BDDE1
:10437000A06BB4F91A10401AF860E06BB4F91A1087
:10438000401A3861206C0DE0B86900280FDAE06A45
:10439000B4F91A10401AF860206BB4F91A10401AD8
:1043A0003861606BB4F91A10401A786105E048462C
:1043B00003F030FF78623862F861F868B042F8685C
:1043C00002DDA0F5616004E0A84203DAF86800F5B8
:1043D0006160F8603869B042386902DDA0F561605B
:1043E00004E0A84203DA386900F561603861786951
:1043F000B042786902DDA0F5616004E0A84203DA0A
:10440000786900F561607861B869B946002800DA1A
:104410004042644FDFF890B1B04272DDD9F8180025
:10442000002800DA404203F0E4FE80468A46D9F8CC
:104430000C0003F0DEFE00225B4603F04BFE42461A
:10444000534603F0D5FD82468846B4F91A0003F0BE
:10445000D0FE5246434603F024FD03F0F4FEA0666E
:10446000D9F81800002800DA404203F0C2FE804666
:104470008A46D9F8100003F0BCFE00224A4B03F034
:1044800029FE4246534603F0B3FD80468A46B4F9FE
:104490001A0003F0AEFE4246534603F002FD03F05D
:1044A000D2FEE066D9F81800002800DA404203F096
:1044B000A0FE82468B46C846D9F8140003F099FE48
:1044C0000022394B03F006FE52465B4603F090FD96
:1044D00083468A46B4F91A0003F08BFE5A465346C7
:1044E00003F0DFFC03F0AFFE2067D8F84000A16EB8
:1044F000401A40F68C21884204DDA06E00F5616010
:1045000009E08BE0D8F84000A26E801AB84203DAC6
:10451000A06EA0F56160A066D8F840204046A36E6A
:104520004FF46178D31AC8F10002434503DDA36E4E
:1045300003F5E16309E0036CD4F868C0A3EB0C0356
:10454000934203DAA36EA3F5E163A366436CD4F848
:104550006CC0A3EB0C038B4203DDE36E03F56163D8
:1045600009E0436CD4F86CC0A3EB0C03BB4203DA44
:10457000E36EA3F56163E366436CD4F86CC0A3EB10
:104580000C03434512DDE36E03F5E16318E0000020
:104590003333D33F9800002000004040F8F8FFFF7D
:1045A0000000614574F5FFFF0020AC40436CD4F877
:1045B0006CC0A3EB0C03934203DAE36EA3F5E16353
:1045C000E366836CD4F870C0A3EB0C038B4203DD6D
:1045D000216F01F5616107E0816C236FC91AB9424F
:1045E00003DA216FA1F561612167816C236FC91A1C
:1045F000414503DD216F01F5E16107E0816C236F27
:10460000C91A914203DA216FA1F5E1612167A16E18
:104610000164E16E4164216F8164F1E0B4F91A0034
:10462000A066B4F91A00E066B4F91A002067D9F858
:1046300040104846A26E40F68C28891A414503DD99
:10464000A16E01F5616107E0016CA26E891AB942A1
:1046500003DAA16EA1F56161A166016CA26E8B1AED
:1046600040F246514A428B4203DDA36E03F5E163FB
:1046700009E0036CD4F868C0A3EB0C03934203DA9F
:10468000A36EA3F5E163A366436CD4F86CC0A3EBFF
:104690000C03434503DDE36E03F5616309E0436CFE
:1046A000D4F86CC0A3EB0C03BB4203DAE36EA3F5B2
:1046B0006163E366436CD4F86CC0A3EB0C038B42DC
:1046C00003DDE36E03F5E16309E0436CD4F86CC0ED
:1046D000A3EB0C03934203DAE36EA3F5E163E36615
:1046E000836CD4F870C0A3EB0C03434503DD236F48
:1046F00003F5616309E0836CD4F870C0A3EB0C038D
:10470000BB4203DA236FA3F561632367836C276FD2
:10471000DB1B8B4203DD216F01F5E16107E0816C5A
:10472000236FC91A914203DA216FA1F5E161216774
:10473000A16E0164E16E4164216F8164806900288B
:1047400000DA404203F055FD07468846D9F80C00D0
:1047500003F04FFD00225B4603F0BCFC3A464346A3
:1047600003F046FC07468846A06E03F042FD3A4639
:10477000434603F096FB03F066FDA066D9F81800E7
:10478000002800DA404203F034FD80460F46D9F895
:10479000100003F02EFD00225B4603F09BFC424616
:1047A0003B4603F025FC07468A46E06E03F021FDF8
:1047B0003A46534603F075FB03F045FDE066D9F831
:1047C0001800002800DA404203F013FD074688462F
:1047D000D9F8140003F00DFD00225B4603F07AFCCB
:1047E00043463A4603F004FC07468846206F03F030
:1047F00000FD43463A4603F054FB03F024FD2067D6
:10480000A06EA84201DA284602E0B04200DD304640
:10481000C0F5E161E06EA84201DA284602E0B0424C
:1048200000DD3046C0F5E162206FA84201DA28467B
:1048300002E0B04200DD3046C0F5E163C1EB01317A
:104840004FF4616091FBF0F16167C2EB023191FBC3
:10485000F0F1E167C3EB033191FBF0F0A067606F0B
:104860006081A06FA081E06FE081FDF760FAD9F868
:1048700018004D46002800DA4042B2460A26B54FDD
:1048800050457DDDA86900283CDDE06D03F0FAFCB1
:104890008046206F8946216C401A90FBF6F003F0A9
:1048A0009FFCBB46394603F080FA03F0EBFC04F0B2
:1048B00027FD42464B4603F09BFB03F0C4FC6862B5
:1048C000E06D03F0DFFC0746E06E8846E16B401ABE
:1048D00090FBF6F003F084FC594603F066FA03F00F
:1048E000D1FC04F00DFD3A46434603F081FB03F092
:1048F000AAFC2862E06D03F0C5FC0746A06E88465E
:10490000A16B40E0A869002850DAE06D03F0BAFC22
:104910008046206F8946616B401A90FBF6F003F0E9
:104920005FFCBB46394603F040FA03F0ABFC04F0F1
:10493000E7FC42464B4603F05BFB03F084FC6862F5
:10494000E06D03F09FFC8046E06E0F46216B401A3D
:1049500090FBF6F003F044FC594603F026FA03F00E
:1049600091FC04F0CDFC42463B4603F041FB03F0D2
:104970006AFC2862E06D03F085FC0746884600E08B
:1049800020E0A06EE16A401A90FBF6F003F028FCEC
:10499000594603F00AFA03F075FC04F0B1FC3A46FC
:1049A000434603F025FB03F04EFCE861E06D4FF059
:1049B0007E5290426BDC296E0020002942DC286682
:1049C000E06546E0E06D03F05DFC8146206F8846BF
:1049D000B4F91A10401A90FBF6F003F001FCBB4644
:1049E000394603F0E2F903F04DFC04F089FC4A4635
:1049F000434603F0FDFA03F026FC6862E06D03F025
:104A000041FC8046E06E0F46B4F91A10401A90FB44
:104A1000F6F003F0E5FB594603F0C7F903F032FC6A
:104A200004F06EFC42463B4603F0E2FA03F00BFC56
:104A30002862E06D03F026FC0746A06E8846B4F9B4
:104A40001A10A0E7491E29660121E265E961296281
:104A50006962296EB1F5FA7F1CDA296C002900DA47
:104A60004942524691420BDA696C002900DA494208
:104A7000914205DAA96C002900DA4942514509DB67
:104A8000A0662864E06668642067A86402E0B4F960
:104A900020002866E86941422F480171E9694942CE
:104AA000090AC170296A0176296A090AC175696A09
:104AB0008173696A090A4173BDE8F09F38B5FCF754
:104AC00092F8FCF7BDF8FCF784FAFCF7AEF9FCF7B6
:104AD000F1FAFCF762FBFCF7D1FBFCF7D4F81F4CB2
:104AE0000021204601F006F94FF4E1352846FCF795
:104AF000BDFC2846FCF73CFD2846FCF71EFFE800FD
:104B0000FCF775FE2846FCF7BAFF0A20FCF75FF8B1
:104B10000121204601F0EEF80A20FCF758F8FDF7D5
:104B200017FB00204FF07E53024601460090FDF730
:104B30004FFE6420FCF74BF8FFF772FA002038BDF7
:104B400007B5DDE90001884202DB0299884200DDF9
:104B500008460EBD35FA8E3C1801002000100040BA
:104B60000CB500205149019000900A6842F480324F
:104B70000A604FF4A0630A6802F400320092019ABE
:104B8000521C0192009A12B9019A9A42F3D10A6812
:104B9000920334D50120009044484030026842F02E
:104BA000805202604248026842F4804202603F48FC
:104BB000083002680260026842F400420260026843
:104BC00042F4A0520260031F3A4A1A600A6842F097
:104BD00080720A600A689201FCD5374A40F205618A
:104BE0001160016821F003010160016841F00201D8
:104BF00001600168C1F381010229FAD10CBD009066
:104C00000CBD2A4810B5016841F001010160274A36
:104C10000021083211600268284B1A400260031D0F
:104C2000274A1A60026822F4802202601F480C3072
:104C30000160FFF795FF23494FF00060086010BD49
:104C400070B51A4C083420681F4A10F00C011F4838
:104C500004D05510042903D0082903D002601BE0BA
:104C6000056019E01149091D0B68C3F380560B68F4
:104C700003F03F0316B1B5FBF3F201E0B2FBF3F230
:104C80000B680968C3F388135A43C1F30141491CF7
:104C90004900B2FBF1F1016021680C4AC1F3031134
:104CA000121D515C0268CA40026070BD00380240AB
:104CB0000070004008544007003C0240FFFFF6FE31
:104CC0001030002408ED00E00024F4006001002012
:104CD0000648804706480047FEE7FEE7FEE7FEE796
:104CE000FEE7FEE7FEE7FEE7FEE7FEE7034C00080F
:104CF000890100082849084328490860704730B5F1
:104D00000F22C47801780123FCB1244C246801F1FE
:104D1000E02104F4E064C4F5E064C4F30724C4F1C2
:104D20000405E2404478AC408578154025432A01CB
:104D300081F80024007800F01F018B4040098000BA
:104D400000F1E020C0F8003130BD01F01F008340C9
:104D50004809800000F1E020C0F8803130BD104AE1
:104D6000114001430D48001F016070470B4A121D9E
:104D70000029116801D0014300E0814311607047B0
:104D80004FF0E0210428086903D020F004000861F6
:104D9000704740F00400FAE70000FA050CED00E06F
:104DA00080FFFF1F7C4910B5884206D101210846CB
:104DB00000F058FA002101204FE07849884206D1DE
:104DC0000121022000F04EFA0021022045E0744942
:104DD000884206D10121042000F044FA0021042079
:104DE0003BE07049884206D10121082000F03AFAE0
:104DF0000021082031E06C49884206D101211020B1
:104E000000F030FA0021102027E06849884206D1DE
:104E10000121202000F026FA002120201DE0644915
:104E2000884206D10121402000F01CFA00214020D8
:104E300013E06049884206D10121802000F012FA77
:104E40000021802009E05C4988420AD184150121B3
:104E5000204600F007FA00212046BDE8104000F08F
:104E600001BA10BDF0B50023012403270D6804FA30
:104E700003F21540954242D1D0F800C05E0007FA17
:104E800006F52CEA050CC0F800C091F804C0D0F873
:104E900000E00CFA06FC4CEA0E0CC0F800C091F8D9
:104EA00004C0BCF1010F02D0BCF1020F1FD1D0F839
:104EB00008C02CEA050CC0F808C091F805C0D0F86D
:104EC00008E00CFA06FC4CEA0E0CC0F808C0D0F85A
:104ED00004C02CEA020CC0F804C0426891F806C075
:104EE0000CFA03FC1FFA8CFC42EA0C024260C26816
:104EF000AA43C260CA79C568B2402A43C2605B1C3B
:104F0000102BB3D3F0BD4FF6FF710160002101718A
:104F100041718171C171704708B541F480320092CE
:104F2000C261C1610099C161C169C069009008BDD9
:104F30000246002012690A4200D001207047006931
:104F400080B270470246002052690A4200D0012018
:104F50007047406980B27047018370474183704752
:104F60000AB10183704741837047416170474269CC
:104F70004A40426170474B07DB0E9A40C90810B5A2
:104F800000EB8100016A0F249C40A1430162016A89
:104F90001143016210BD0000000002400004024005
:104FA00000080240000C02400010024000140240C1
:104FB00000180240001C024000200240EA4801683C
:104FC00041F001010160E84A0021083211600268E5
:104FD000E64B1A400260031DE54A1A60026822F49B
:104FE00080220260E0480C3001607047DE490022F8
:104FF000891C0A7008707047024600205109012977
:105000000CD002290CD0D8497431096802F01F0273
:10501000012393400B4200D001207047D249F4E7AE
:10502000D1497031F1E718B500204FF4A064009029
:105030003120FFF7E1FF0099491C0091A14201D006
:105040000028F5D03120FFF7D7FF002800D001203D
:1050500018BDC5490A6822F0F80242EAC00008609B
:105060007047C44908607047BF49002270310A7018
:105070000A70012802D0042801D105200870704769
:10508000BD490860704741EA82115A0810B5BB4B10
:10509000029C03EB02421143014341EA0460B2491E
:1050A000091D086010BDB34908667047800140EAD9
:1050B0000170AD49843108607047AE498866704719
:1050C000AC49C8647047A84A08321368084323F003
:1050D000EC63184310607047A34A08321368084312
:1050E00023F078431843106070479F4A08321168D4
:1050F00021F003010143116070479B4808300068AC
:1051000000F00C007047984A0832116821F0F00155
:10511000014311607047944A0832116821F4E0514C
:10512000014311607047904908310A6822F46042D7
:1051300042EAC0000860704770B58B4A08321168B7
:105140008F4C11F00C0104D06610042903D00829FB
:1051500003D004601BE0066019E08349091D0B6859
:10516000C3F380550B6803F03F0315B1B6FBF3F3AF
:1051700001E0B4FBF3F30C680968C4F388146343DB
:10518000C1F30141491C4900B3FBF1F10160116811
:105190000F2303EA11117B4B5C5C0168E140416025
:1051A0001468072505EA94241C5D21FA04F4846040
:1051B000126805EA52329A5CD140C16070BDC0F3FA
:1051C0000121032908D1684A0832116821F4F81333
:1051D0006D49014019431160634970310A68C0F399
:1051E0000B0002430A607047634944390860704706
:1051F00061494039086070475E49C1F85C017047F9
:10520000594A30320029116801D0014300E081433E
:1052100011607047544A34320029116801D00143AB
:1052200000E08143116070474F4A3832002911680D
:1052300001D0014300E08143116070474A4A403287
:105240000029116801D0014300E0814311607047DB
:10525000454A44320029116801D0014300E08143EE
:1052600011607047404A10320029116801D0014393
:1052700000E08143116070473B4A143200291168F5
:1052800001D0014300E0814311607047364A183273
:105290000029116801D0014300E08143116070478B
:1052A000314A20320029116801D0014300E08143D6
:1052B000116070472C4A24320029116801D0014343
:1052C00000E0814311607047274A5032002911687D
:1052D00001D0014300E0814311607047224A5432FB
:1052E0000029116801D0014300E08143116070473B
:1052F0001D4A58320029116801D0014300E0814362
:1053000011607047184A60320029116801D00143CA
:1053100000E0814311607047134A6432002911682C
:1053200001D0014300E08143116070470E4A0D3205
:105330000029117801D0014300E0814311707047CA
:1053400009487430016841F080710160704701467E
:10535000054A00200C3212680A4200D00120704732
:1053600001490E310870704700380240FFFFF6FE19
:105370001030002400004742800E47420000FFFF2B
:105380000024F40074010020FFFCFF0F10B5012180
:105390000C022046FFF78EFF2046BDE8104000219A
:1053A000FFF788BF30B54268C84B0C791A400B68CC
:1053B00042EA0422134343608268C54B4D791A4088
:1053C000D1E9034323438C6844EA45042343134350
:1053D0008360C26A097D22F47002491EC9B242EAA2
:1053E0000151C16230BD00210160017141718160D4
:1053F000C1600161012101757047B64B10B5D3F84A
:105400000423B5490A40D0E900142143D0E9024001
:10541000044321431143C3F8041310BD002101606C
:1054200041608160C16070470029816802D041F00D
:10543000010101E021F00101816070474268A74B42
:105440001A400A4342607047416282627047426874
:1054500022F01F020A43426070479E490028D1F89B
:10546000040302D040F4000001E020F40000C1F881
:105470000403704797490028D1F8040302D040F490
:10548000800001E020F48000C1F80403704770B58B
:10549000072409290AD9C568A1F10A0606EB4606C0
:1054A000B440A543B3401D43C56007E0056901EB67
:1054B0004106B440A543B3401D4305611F23072A9D
:1054C00009D2446B521E02EB820293409C439140EE
:1054D0000C43446370BD0D2A09D2046BD21F02EB4A
:1054E000820293409C4391400C43046370BDC46AA4
:1054F0000D3A02EB820293409C4391400C43C462FC
:1055000070BD816841F08041816070470146002094
:105510008968490200D5012070470029816802D0BE
:1055200041F4806101E021F48061816070470029CD
:10553000816802D041F0020101E021F002018160A6
:1055400070474268491E22F4604242EA413141609C
:1055500070470029416802D041F4006101E021F464
:10556000006141607047C06C80B270475948D0F804
:10557000080370470029816802D041F4807101E07E
:1055800021F48071816070470029816802D041F464
:10559000007101E021F40071816070474D490028DD
:1055A000D1F8040302D040F4005001E020F4005090
:1055B000C1F80403704770B5072409290AD9C568E2
:1055C000A1F10A0606EB4606B440A543B3401D43CD
:1055D000C56007E0056901EB4106B440A543B3404F
:1055E0001D430561836BC3F30154121B921C02EB34
:1055F00082041F22A2409343A1400B43836370BDEA
:10560000826B491E22F4401242EA015181637047C5
:1056100008B508440090026008BD826822F4702238
:105620000A4382607047826822F440120A43826013
:105630007047816841F48001816070470146002015
:105640008968490200D5012070470029416802D0CD
:1056500041F4806101E021F48061416070470029DC
:10566000416802D041F4805101E021F48051416051
:10567000704708B5084428300090006880B208BD23
:1056800001238B4041680AB1194300E0994341600E
:1056900070470246002012680A4200D0012070477D
:1056A000C9430160704730B50246002053680C0AB8
:1056B00001258D4011682B40214202D0002B00D0E3
:1056C000012030BD6FEA112101607047FFFEFFFC31
:1056D000FDF7FFC000200140E030FCFFFFFD3FFF71
:1056E0002DE9F043016821F0010101600021016012
:1056F00041608160C160016121214161B849B84ABE
:105700003D251039904202D18D60BDE8F083B44A46
:105710004FF474661832904201D18E60F5E7B04ABA
:105720004FF474173032904201D18F60EDE7AC4AEC
:105730004FF0746C4832904202D1C1F808C0E4E7DF
:10574000A74BA84A6033984201D1CA60DDE7A44C58
:10575000A54B7834A04201D1CB60D6E7DFF8808238
:10576000A24C08F19008404501D1CC60CDE7DFF8AC
:1057700070824FF03D5908F1A808404502D1C1F8A8
:105780000C90C2E79A49DFF868820839404501D198
:105790000D60BAE7964D1835A84201D10E60B4E706
:1057A000934D3035A84201D10F60AEE7904D48359A
:1057B000A84202D1C1F800C0A7E78D4D8C496035E1
:1057C000091FA84201D10A609FE7894A78329042B6
:1057D00001D10B6099E7864A9032904201D10C606A
:1057E00093E7834AA83290428FD1C1F800908CE7AA
:1057F00030B503687F4ACC6813400A682243D1E978
:1058000005452C432243CC6922430C6A22434C6A4F
:1058100022438C6A22434C6B22438C6B22431A43F3
:105820000260426922F00703D1E90B2422431A43A4
:1058300042610A6942604A6882608968C16030BD1D
:105840000021016041608160C1600161416181614D
:10585000C161016241628162C1620163416381632E
:1058600070470029016802D041F0010101E021F0F8
:105870000101016070470029016802D041F4004134
:1058800001E021F40041016070470029016802D065
:1058900041F0200101E021F02001016070474160EA
:1058A0007047406880B27047002A026802D042F414
:1058B000002201E022F40022026001617047002909
:1058C000016802D041F4802101E021F480210160CF
:1058D00070470AB101617047C160704701460020FE
:1058E0000968090300D501207047014600200968B6
:1058F000C90700D001207047406900F038007047A8
:1059000002463B4B00209A4202D2354A103A01E04F
:10591000374A103A8B0001D5526800E01268364BC6
:105920001A400A4200D001207047314A904202D208
:105930002B48103801E02E4810382F4A8B0001EA1E
:10594000020101D5C1607047816070470B0607D521
:10595000436912B143F0800301E023F08003436107
:10596000802908D0002A026801F01E0101D00A43F4
:1059700000E08A430260704730B51D4A002490421F
:1059800002D2174B103B01E0194B103B1B4A11424E
:1059900005D01E2202EAD12502682A4002E04069B1
:1059A00000F08002880001D5586800E01868124BAA
:1059B0001840084201D002B10124204630BD0C4AF3
:1059C000904202D20648103801E0094810380A4ACD
:1059D0008B0001EA020101D5C16070478160704708
:1059E000106002403D000020400F002000003D20DC
:1059F000106402403F801CF07D0F7D0F3C0F3C0F78
:105A0000374900200860091D0860091D0860091D4C
:105A100008603349334814310860704730B5304965
:105A20008379026853B30B6893430B600A1D1368B4
:105A30000468A343136002790A441368046823438B
:105A40001360274A083213680468A3431360131DC8
:105A50001C680568AC431C604479102C05D02144B7
:105A60000A68006802430A6030BD11680468214377
:105A70001160196800680143196030BD007908445D
:105A800001689143016030BD0021016001710C2269
:105A9000427181717047124910310A6802430A60ED
:105AA000704701460E4A0020143212680A4200D0A4
:105AB000012070470A49143108607047084A0146BE
:105AC00000201268064B0A4014331B680B4202D0B8
:105AD000002A00D001207047014914310860704746
