:020000040800F2
:1000000080330020D5500008490200084B02000848
:100010004F020008530200085702000800000000C9
:10002000000000000000000000000000A101000826
:100030005B02000800000000E5010008EF800008F6
:10004000EF500008EF500008EF500008EF50000894
:10005000EF500008EF500008EF500008EF50000884
:10006000590400089D040008EF500008FB02000836
:10007000DD02000839030008EF500008790200088B
:10008000EF50000885020008EF500008EF5000080C
:10009000EF500008EF500008EF500008EF50000844
:1000A000EF50000875030008A1030008EF50000896
:1000B000A3030008D1030008FD030008EF50000867
:1000C000EF500008EF500008EF50000855040008FA
:1000D000EF50000861020008EF500008EF500008E0
:1000E000EF500008EF500008EF500008EF500008F4
:1000F000EF500008EF500008EF500008150300080B
:10010000EF500008EF5000082904000857040008C9
:10011000EF500008EF5000084703000853030008A1
:10012000EF5000089F020008AF020008EF500008DF
:10013000EF500008EF500008EF500008EF500008A3
:10014000EF500008EF500008EF500008EF50000893
:10015000CF020008EF500008EF500008EF500008F1
:10016000EF500008EF500008EF500008EF50000873
:10017000EF500008EF500008EF500008EF50000863
:10018000EF500008EF500008DFF810D009F07CFABB
:1001900000480047234E0008AFF300808033002062
:1001A000234B19680868B0E8F04F80F309884FF0D6
:1001B000000080F3118870470000000003480068C9
:1001C000006880F3088862B600DF00BF08ED00E039
:1001D000DFF80C00016841F470010160704700BF56
:1001E00088ED00E0EFF30980114B1A681EF0100F44
:1001F00008BF20ED108A20E9F04F106008B54FF0DD
:10020000140080F3118808F03AFB4FF0000080F3EF
:100210001188BDE8084019680868B0E8F04F1EF082
:10022000100F08BFB0EC108A80F30988704700BF38
:10023000BC030020EFF311804FF0140181F311880B
:10024000704780F311887047704700BFFEE700BF1A
:10025000FEE700BFFEE700BFFEE77047704770474C
:1002600010B540F225518E4807F055F818B12021FD
:100270008B4807F047F810BD10B58A498A4805F049
:100280007FFF10BD10B589498748303005F04EFF1B
:1002900020B186498448303005F072FF10BD10B59A
:1002A0008349844805F06CFF01F054FD10BD10B582
:1002B00081498048183005F063FF804840787F49C5
:1002C000097840EA012000B27D49088010BD10B5D0
:1002D0007C497848603005F053FF10BD10B5744973
:1002E0007148483805F022FF30B171496E484838EE
:1002F00005F046FF00F0A0FA10BD10B572496A483B
:10030000603805F013FF20B16F496748603805F089
:1003100037FF10BD10B56D496348483005F006FF42
:1003200048B100216048483005F056FE67495E48F4
:10033000483005F025FF10BD10B55A495A483038ED
:1003400005F01EFF10BD10B50121614806F040FD0B
:1003500010BD10B501215F4806F03AFD7A205049E2
:10036000888001215C4806F0E5FE01215B4806F02B
:10037000E1FE10BD10B50121594806F029FD58488D
:10038000008800F0100028B156480068401E55490A
:10039000086004E053480068401C5249086010BDE2
:1003A000704710B50121880706F012FD4FF080401C
:1003B000008800F0100028B14B480068401E4A49F0
:1003C000086004E048480068401C4749086010BDC8
:1003D00010B50121454806F0FBFC4448008800F0B8
:1003E000100028B142480068401E4149086004E0FE
:1003F0003F480068401C3E49086010BD10B501210F
:100400003C4806F0E5FC3B48008800F0100028B1AD
:1004100039480068401E3849086004E036480068E2
:10042000401C3549086010BD10B50121334806F065
:10043000CFFC3248008800F0100028B13048006836
:10044000401E2F49086004E02D480068401C2C49DC
:10045000086010BD7047704710B5042005F028FFF4
:10046000D8B12021274804F0ACFF0421264804F02D
:1004700083FF012804D10021164806F029F809E07D
:100480000421214804F078FF20B9124806F024F82E
:100490001E49086004201E49086010BD7047000016
:1004A0000010014020800020706002400080202069
:1004B000008800102864024000802010D805002029
:1004C00064000020008800202080001000800028A8
:1004D000001000400014004000480040001401409B
:1004E00000000140440000204800002000040040BB
:1004F0004C0000200008004060000020000C00407C
:100500005000002000000240000C0240400000208B
:10051000143C014070B50446204608F099FD05469C
:100520002146FE4808F09BFDA0B195222146FB48DC
:1005300008F082FD0021FA4805F04EFDF748F84921
:100540000C310860F648B838C0F8BC500121F448B6
:1005500005F042FD70BD70B50446002510E0605DF9
:1005600068B1615DEF4806F010FE00BF8021ED48E4
:1005700006F0BBFE0028F9D0681CC5B200E070BDD3
:10058000EDE770B5044600250FE05CB12146E54873
:1005900006F0FBFD00BF8021E24806F0A6FE002821
:1005A000F9D000E070BD681CC5B2032DEDDB00BFC3
:1005B000F8E713B50C460020FFF7E3FFDAA0FFF7DA
:1005C000CAFF2346D9A29621D94809F09BF8D848FA
:1005D000FFF7C1FFD7A0FFF7BEFFD4A29621D448F2
:1005E000009B09F08FF8D248FFF7B5FFD3A0FFF7C3
:1005F000B2FFFF20FFF7C5FFFF20FFF7C2FFFF207C
:10060000FFF7BFFF1CBD70B505460C46C6A0FFF73F
:10061000A2FF2246C5A1C64809F08EF8C448FFF7DC
:100620009AFFC4A0FFF797FF2846FFF794FFC3A0E7
:10063000FFF791FFFF20FFF7A4FF70BD77B585B0EE
:100640000546FF26BBA103C9CDE90301BBA0006895
:100650000290B5A00068019000240AE00020B8498B
:100660000855B8490855B2490855AC490855601CA9
:10067000C4B21E2CF2DB0A20AD490870FF2048707E
:100680008870C870A9A1AF48079A09F055F8AD491C
:1006900001A808F0C5FC01A9A54808F0C1FC03A900
:1006A000A34808F0BDFC2946A14808F0B9FC9FA169
:1006B000A448069A09F040F8A2499D4808F0B0FC09
:1006C00002A99B4808F0ACFCFF209D4908704870C7
:1006D0008870974808F0A4FC9548FFF71BFF08B006
:1006E00070BDF7B584B005460E46FF2791A103C93A
:1006F000CDE9020191A0006801908BA000680090F4
:10070000002408E000208E4908558E490855884984
:100710000855601CC4B20A2CF4DB0A208449087016
:10072000FF2048708870C87080A18648069A09F03A
:1007300003F88449684608F073FC69467C4808F071
:100740006FFC02A97A4808F06BFC2946784808F04B
:1007500067FC3146764808F063FC01A9744808F04C
:100760005FFCFF2076490870487088700020C870D0
:1007700008716F4808F054FC6D48FFF7CBFE07B0D6
:10078000F0BD01B58EB070A2322101A80E9B08F019
:10079000B9FF01A8FFF7BEFE0FB000BD73B584B06E
:1007A0000546FF2663A103C9CDE9020163A00068E5
:1007B00001905DA00068009000240AE000206049DC
:1007C0000855604908555A49085554490855601C50
:1007D000C4B21E2CF2DB0A2055490870FF20487075
:1007E0008870C87051A15748059A08F0A5FF55496F
:1007F000684608F015FC69464D4808F011FC02A94E
:100800004B4808F00DFC2946494808F009FC4D49C1
:10081000474808F005FC01A9454808F001FCFF2005
:100820004749087048708870414808F0F9FB404813
:10083000FFF770FE06B070BD1CB54648007845490C
:10084000497808444349897808444249C9780844AA
:100850004049097908443F49497908443D49897923
:1008600008443C49C97908443A49097A0844C0B265
:1008700001903848007A00F00F0000909DF80000C9
:100880000D2803D00021344806F054FC1CBD31482B
:10089000007A00F00F000D2806D12E48007800F0F5
:1008A000010008B10D2070470020FCE7294880793D
:1008B00008B1012070470020FCE730B52DED048B16
:1008C00083B0264805F008FE2549096840EA01453D
:1008D000284608F05AFD41EC190B9FED220B53EC12
:1008E000102B08F0E3FC41EC180B08F05FFD0190C1
:1008F00000244DE0194805F0EFFD1949096840EA68
:100900000145284608F041FD41EC190B9FED150B00
:1009100053EC102B08F0CAFC28E000003205002040
:10092000B8600240005000407400000025640000E0
:10093000FC0300202E7478743D2200002200000089
:10094000E2040020BA0400206A302E76616C3D2556
:10095000640000001406002000480040000C004025
:10096000500000203333333333331D4041EC180B38
:1009700008F01CFD0290DDE90121881A002801DB46
:10098000014600E04142052900DA641C029801900A
:10099000022CAFDB0298404203B0BDEC048B30BDAB
:1009A00030B52DED048B83B04FF0804005F094FD01
:1009B000FC49096840EA0145284608F0E6FC41EC9C
:1009C000190B9FEDF90B53EC102B08F06FFC41EC69
:1009D000180B08F0EBFC0190002424E04FF080405D
:1009E00005F07AFDEF49096840EA0145284608F01C
:1009F000CCFC41EC190B9FEDEC0B53EC102B08F0E9
:100A000055FC41EC180B08F0D1FC0290DDE9012106
:100A1000881A002801DB014600E04142052900DA7E
:100A2000641C02980190022CD8DB0298404203B06B
:100A3000BDEC048B30BD30B52DED048B83B0DC48AC
:100A400005F04AFDDB49096840EA0145284608F0FF
:100A50009CFC41EC190B9FEDD40B53EC102B08F0D0
:100A600025FC41EC180B08F0A1FC0190002423E0C8
:100A7000CF4805F031FDCF49096840EA01452846D5
:100A800008F083FC41EC190B9FEDC70B53EC102BC6
:100A900008F00CFC41EC180B08F088FC0290DDE932
:100AA0000121881A002801DB014600E041420529A6
:100AB00000DA641C02980190022CD9DB02984042B3
:100AC00003B0BDEC048B30BD01B581B000200090B7
:100AD000019800EBC0004000009002E00098401E2A
:100AE000009000980028F9D10CBD01B581B000201C
:100AF000009044F2506101984843009002E0009851
:100B0000401E009000980028F9D10CBD1CB50121B1
:100B10001F2004F015FE4FF6FF70009001208DF8A5
:100B2000040000208DF8060001208DF80700032046
:100B30008DF805006946A04804F0BCFB4FF6FF7035
:100B4000009001208DF8040000208DF8060001209F
:100B50008DF8070003208DF805006946974804F0DA
:100B6000A9FB4FF6FF70009001208DF804000020D3
:100B70008DF8060001208DF8070003208DF8050090
:100B800069468F4804F096FB1CBD1CB501217E20F0
:100B900004F0D6FDC020009000208DF80400012054
:100BA0008DF8070002208DF805006946854804F09D
:100BB00081FB0620009000208DF8040001208DF8B4
:100BC000070002208DF8050069467B4804F072FB9F
:100BD0000420009000208DF8040001208DF807000B
:100BE00002208DF805006946744804F063FB1CBDC3
:100BF0001FB54FF4E06004F07FFA36208DF8000056
:100C000000208DF801008DF8020001208DF803000E
:100C1000684604F076FA0121102004F0C4FD322069
:100C2000ADF8040040F2E73002900020ADF80C006F
:100C3000ADF8060001A9644805F001FC01216248F5
:100C400006F0C6F8012211465F4806F099F8002127
:100C50005D4805F03DFC01215B4805F079FC1FBDB6
:100C60001FB54FF4E06004F047FA37208DF800001C
:100C700000208DF801008DF8020001208DF803009E
:100C8000684604F03EFA0121202004F08CFD322059
:100C9000ADF8040040F2E73002900020ADF80C00FF
:100CA000ADF8060001A9494805F0C9FB01214748F4
:100CB00006F08EF801221146444806F061F8002142
:100CC000424805F005FC0121404805F041FC1FBDEC
:100CD00000B58BB00121022004F076FD01210C202B
:100CE00004F02EFD03220621344804F06EFB03229B
:100CF0000721324804F069FB032208212F4804F041
:100D000064FB032209212D4804F05FFB4FF470704F
:100D1000069002208DF81C0003208DF81D00002095
:100D20008DF81E0001208DF81F0006A9234804F04D
:100D3000C1FAA420ADF8200040F6B83009904FF475
:100D40008070ADF828000020ADF8220008A92048E6
:100D500005F075FB6020ADF804000120ADF8060039
:100D600000200390ADF810000121194805F0F0FBB8
:100D70000021174805F0ACFB01A9154805F0F4FB6C
:100D800001A9134805F029FC01A9114805F072FCDE
:100D900001A90F4805F0D4FC01210D4805F0C9FF59
:100DA0000BB000BD48000020CDCCCCCCCCCC1C403E
:100DB000000400404C0000200004024000080240F3
:100DC000000C0240000002400010004000140040EF
:100DD0000004014000B58BB00121082004F0E3FCC1
:100DE0000121084604F0ACFC02220021FE4804F078
:100DF000ECFA02220121FC4804F0E7FA0222114633
:100E0000F94804F0E2FA02220321F74804F0DDFA7F
:100E10000F20069002208DF81C0003208DF81D0085
:100E200000208DF81E0001208DF81F0006A9EE4855
:100E300004F040FABA20ADF8200042F21070099098
:100E40000020ADF82800ADF8220008A9E74805F019
:100E5000F6FA6020ADF804000120ADF8060000208D
:100E60000390ADF810000121E04805F071FB00216E
:100E7000DE4805F02DFB01A9DC4805F075FB01A952
:100E8000DA4805F0AAFB01A9D84805F0F3FB01A94F
:100E9000D64805F055FC0121D44805F04AFF0BB0B7
:100EA00000BD00B58BB00121042004F07CFC0121C1
:100EB0000D2004F045FC02220C21CD4804F085FAF7
:100EC00002220D21CA4804F080FA02220E21C848ED
:100ED00004F07BFA02220F21C54804F076FA4FF4A1
:100EE0007040069002208DF81C0003208DF81D0034
:100EF00000208DF81E0001208DF81F0006A9BC48B7
:100F000004F0D8F9A420ADF8200040F6B8300990DC
:100F10004FF48070ADF828000020ADF8220008A939
:100F2000B44805F08CFA6020ADF804000120ADF85B
:100F3000060000200390ADF810000121AD4805F037
:100F400007FB0021AB4805F0C3FA01A9A94805F049
:100F50000BFB01A9A74805F040FB01A9A54805F036
:100F600089FB01A9A34805F0EBFB0BB000BD00B560
:100F700089B00121080404F027FC0121084604F08F
:100F8000DFFB03221146984804F01FFA03220221D6
:100F9000954804F01AFA0C20019002208DF8080000
:100FA00003208DF8090000208DF80A0001208DF83B
:100FB0000B0001A98C4804F07DF90020ADF8180061
:100FC0004FF6FF7007900020ADF82000ADF81A0032
:100FD00006A9894805F033FA0420ADF80C0000207A
:100FE000ADF80E00C820ADF814000120ADF81000D7
:100FF00003A9814805F0FAFD00231A4603217F4822
:1010000005F091FF01217D4805F0E2FE0122114625
:101010007A4805F0B5FE0121774805F099FA0021DC
:10102000764805F055FA09B000BD00B589B0012138
:10103000084604F0B8FB0121022004F0B4FB0121B2
:10104000032004F07DFB01220F21674804F0BDF965
:10105000012203216A4804F0B8F9022204216848F9
:1010600004F0B3F902220521654804F0AEF93820F6
:10107000019002208DF8080003208DF8090000205F
:101080008DF80A0001208DF80B0001A95C4804F0DE
:1010900011F94FF40040019002208DF80800032060
:1010A0008DF8090000208DF80A0001208DF80B0052
:1010B00001A94D4804F0FEF80020ADF818004FF6E5
:1010C000FF7007900020ADF82000ADF81A0006A9C7
:1010D0004FF0804005F0B3F906A94A4805F0AFF992
:1010E0000420ADF80C000220ADF80E001420ADF87D
:1010F00014000120ADF8100003A9800705F076FD6B
:1011000003A9404805F072FD02231A46032158073F
:1011100005F009FF02231A4603213A4805F003FFB0
:101120000121880705F054FE0121364805F050FEE4
:1011300001221146900705F023FE01221146314895
:1011400005F01EFE0121880705F002FA01212D4855
:1011500005F0FEF900214FF0804005F0B9F90021BB
:10116000284805F0B5F94FF4C06003F0C5FF1D2015
:101170008DF8000003208DF8010000208DF802009A
:1011800001208DF80300684603F0BBFF1C208DF89A
:10119000000004208DF8010000208DF802000120DD
:1011A0008DF80300684603F0ACFF09B000BD00B540
:1011B00089B00121084604F007FB0121102004F04A
:1011C000BFFA4FF42060019002208DF80800032040
:1011D0008DF8090000208DF80A0001208DF80B0021
:1011E00001A9094812E0000000000240000C004084
:1011F000000C024000080040000001400040014097
:1012000000040240000400400010024004F052F8C4
:1012100001220921FE4804F0D8F801220B21FC48E4
:1012200004F0D3F80020ADF818004FF6FF700790D7
:101230000020ADF82000ADF81A0006A9F54805F029
:10124000FEF80420ADF80C000020ADF80E000A20D6
:10125000ADF814000120ADF8100003A9ED4805F029
:10126000C5FC00231A460321EA4805F05CFE012173
:10127000E84805F0ADFD01221146E64805F080FD85
:101280000121E44805F0A4FD01221146E14805F0E2
:1012900077FD0121DF4805F05BF90021DD4805F00D
:1012A00017F94FF4C06003F027FF19208DF80000F4
:1012B00001208DF8010000208DF8020001208DF83A
:1012C0000300684603F01DFF09B000BD00B589B0FA
:1012D0000121042004F067FA0121082004F030FA0B
:1012E0004FF44050019002208DF8080003208DF843
:1012F000090000208DF80A0001208DF80B0001A9DB
:10130000C54803F0D7FF0020ADF818004FF6FF7076
:1013100007900020ADF82000ADF81A0006A9BF48DC
:1013200005F08DF802220C21BB4804F04EF8022291
:101330000D21B94804F049F80420ADF80C00022052
:10134000ADF80E00C820ADF814000120ADF8100073
:1013500003A9B24805F04AFC02231A460321AF480C
:1013600005F0E1FD0121AD4805F032FD01221146F5
:10137000AA4805F005FD0121A84805F0E9F842F268
:101380001071A64805F0A4F80020A4491431088083
:101390000120A24908804FF4C06003F0ADFE1E207A
:1013A0008DF8000004208DF8010000208DF8020067
:1013B00001208DF80300684603F0A3FE09B000BDCC
:1013C00000B589B00121082004F0EDF9012108469B
:1013D00004F0B6F90320019002208DF808000320E4
:1013E0008DF8090000208DF80A0001208DF80B000F
:1013F00001A98B4803F05EFF0020ADF818004FF6FE
:10140000FF7007900020ADF82000ADF81A0006A983
:10141000844805F014F802220021814803F0D5FF2A
:10142000022201217E4803F0D0FF0420ADF80C0019
:101430000220ADF80E00C820ADF814000120ADF870
:10144000100003A9774805F0D1FB02231A460321B7
:10145000744805F068FD0121724805F0B9FC0122CD
:101460001146704805F08CFC01216E4805F070F8BB
:1014700042F210716B4805F02BF8002069491431D5
:1014800008800120674908804FF4C06003F034FEF3
:1014900032208DF8000004208DF8010000208DF826
:1014A000020001208DF80300684603F02AFE09B00F
:1014B00000BD00B59BB001215B4804F041F901215A
:1014C000080204F081F9002002905848039058481F
:1014D00004900020059008200690002007904FF40B
:1014E000806008904000099080000A9040110B90A5
:1014F00040020C9000200D9001200E9000200F90D3
:10150000109002A94B4804F02DFD0121494804F038
:1015100063FD3C20009003208DF8040000208DF82E
:10152000070069463E4803F0C5FE3C2000900320BA
:101530008DF8040000208DF8070069463E4803F04E
:10154000B9FE002011904FF440301290002013900B
:101550004FF47060149011A804F06AFA4FF0807094
:10156000159001208DF858008DF859000020179033
:101570001890199008208DF8680015A92B484C3850
:1015800004F027FA04230122022128484C3804F0F1
:10159000A6FA04230222032124484C3804F09FFABF
:1015A00004230322194621484C3804F098FA0423F6
:1015B0001A4605211D484C3804F091FA04230522EF
:1015C0000C211A484C3804F08AFA042306220D2113
:1015D00016484C3804F083FA042307220E211348DE
:1015E0004C3804F07CFA042308220F210F484C38B1
:1015F00004F075FA01210D484C3804F01BFB012161
:101600000A484C3804F00BFB012108484C3815E01F
:101610000010024000000140000C024000080040A1
:1016200000000240000C0040050040004C2001403A
:10163000C8050020106402400008024004F00FFAC0
:10164000FE4804F0A8FA1BB000BD08B54FF4E060F6
:1016500003F052FD25208DF8000000208DF80100D8
:101660008DF8020001208DF80300684603F049FD63
:1016700008BD10B596B004460121102004F0A4F86E
:101680000121084604F05CF80121880504F058F8AF
:101690004FF4C060009002208DF8040000208DF807
:1016A00006008DF8070002208DF805006946E44821
:1016B00003F000FE07220921E14803F086FE07221D
:1016C0000A21DF4803F081FE02940020ADF80C00EF
:1016D000ADF80E00ADF81000ADF814000C20ADF818
:1016E000120002A9D74805F09DFC0121D54805F05C
:1016F00021FD4FF4A06003F0FFFC3A208DF81800A4
:1017000000208DF819008DF81A0001208DF81B00BB
:1017100006A803F0F6FCCC4804F082FB4FF0006012
:10172000079000200A90C94809900A200B90C548EC
:10173000001D089000200C904FF480600D90002058
:101740000E900F904FF48070109040021190042082
:1017500012900320139000201490159007A9BA4806
:1017600004F000FC01224021B64805F090FD012262
:101770001021B54804F0BDFC0121B34804F02CFC55
:1017800016B010BD10B596B004460121480503F00F
:10179000D7FF0121480404F006F80121082003F0D6
:1017A000CFFF6020009002208DF8040000208DF80B
:1017B00006008DF8070002208DF805006946A44850
:1017C00003F078FD07220521A14803F0FEFD072262
:1017D00006219F4803F0F9FD02940020ADF80C00AB
:1017E000ADF80E00ADF81000ADF814000C20ADF807
:1017F000120002A9974805F015FC0121954805F053
:1018000099FC4FF4A06003F077FC11208DF81800CC
:1018100000208DF819008DF81A0001208DF81B00AA
:1018200006A803F06EFC8C4804F0FAFA4FF0006052
:10183000079040200A90894809903C200B908548E9
:10184000001D089000200C904FF480600D90002047
:101850000E900F904FF48070109040021190042071
:1018600012900320139000201490159007A97A4835
:1018700004F078FB01228021764805F008FD012262
:101880008021744805F003FD01221021724804F004
:1018900030FC0121704804F09FFB16B010BD10B55C
:1018A00096B004460121880403F07DFF0121082041
:1018B00003F046FF0121480503F042FF4FF440705A
:1018C000009002208DF8040000208DF806008DF8AD
:1018D000070002208DF8050069465D4803F0EAFC28
:1018E000072208215A4803F070FD072209215848B1
:1018F00003F06BFD02940020ADF80C00ADF80E0073
:10190000ADF81000ADF814000C20ADF8120002A9DB
:10191000534805F087FB0121514805F00BFC4FF4BB
:10192000A06003F0E9FB0C208DF8180000208DF872
:1019300019008DF81A0001208DF81B0006A803F08D
:10194000E0FB4548783804F06BFA4FF000600790F0
:1019500000200A90434809900A200B904048001D3F
:10196000089000200C904FF480600D9000200E90A5
:101970000F904FF48070109040021190042012904C
:101980000320139000201490159007A9324878384E
:1019900004F0E8FA01224021314805F078FC0122E8
:1019A00040212F4805F073FC012210212A48783885
:1019B00004F09FFB01212848783804F00DFB16B095
:1019C00010BD10B596B004460121C80403F0EBFE2B
:1019D0000121042003F0B4FE0121480503F0B0FE0C
:1019E0004FF44060009002208DF8040000208DF834
:1019F00006008DF8070002208DF8050069461A4898
:101A000003F058FC08220A21174803F0DEFC0822E4
:101A10000B21154803F0D9FC02940020ADF80C000E
:101A2000ADF80E00ADF81000ADF814000C20ADF8C4
:101A3000120002A90D4805F0F5FA19E00020014056
:101A4000000002400010014040640240D805002020
:101A5000000C024000440040A0600240040000204E
:101A6000004800401406002000080240004C0040DE
:101A70000121FA4805F05EFB4FF4A06003F03CFB47
:101A80000D208DF8180000208DF819008DF81A002F
:101A900001208DF81B0006A803F033FBF04804F08A
:101AA000BFF94FF00060079000200A90ED480990C0
:101AB00005200B90E948001D089000200C904FF481
:101AC00080600D9000200E900F904FF48070109069
:101AD00040021190042012900320139000201490D3
:101AE000159007A9DE4804F03DFA01224021DB48A9
:101AF00005F0CDFB01221021D94804F0FAFA0121AA
:101B0000D74804F069FA16B010BD10B596B0044677
:101B10000121480503F014FE0121080503F043FEEE
:101B200001210C2003F00CFE0420009002208DF80F
:101B3000040000208DF806008DF8070002208DF8C3
:101B400005006946C84803F0B5FB4FF4805000908B
:101B500002208DF8040000208DF806008DF80700A3
:101B600002208DF805006946C04803F0A3FB082257
:101B70000221BD4803F029FC08220C21BB4803F0D8
:101B800024FC4FF4A06003F0B7FA2F208DF8180062
:101B900005208DF819008DF81A0001208DF81B0022
:101BA00006A803F0AEFA02940020ADF80C00ADF8E0
:101BB0000E00ADF81000ADF814000C20ADF81200C6
:101BC00002A9AB4805F02EFA0121A94805F0B2FAA6
:101BD000A348783004F024F94FF0006007904020CB
:101BE0000A90A448099096200B90A148001D0890E7
:101BF00000200C904FF480600D9000200E900F900C
:101C000010904FF400301190002012900320139098
:101C100000201490159007A99148783004F0A2F99B
:101C200001228021924805F032FB012210218C48CC
:101C3000783004F05EFA01218948783004F0CCF95C
:101C400016B010BD10B596B004460121202003F057
:101C5000BBFD0121042003F073FD0121880503F081
:101C60006FFDC020009002208DF8040000208DF848
:101C700006008DF8070002208DF8050069467B48B4
:101C800003F018FB08220621784803F09EFB082287
:101C90000721764803F099FB02940020ADF80C0070
:101CA000ADF80E00ADF81000ADF814000C20ADF842
:101CB000120002A9704805F0B5F901216E4805F03F
:101CC00039FA4FF4A06003F017FA39208DF81800A4
:101CD00003208DF8190001208DF81A008DF81B00E3
:101CE00006A803F00EFA654804F09AF84FF0206059
:101CF000079000200A906248099006200B905E48E9
:101D0000001D089000200C904FF480600D90002082
:101D10000E900F904FF480701090400211900420AC
:101D200012900320139000201490159007A9534897
:101D300004F018F9012240214F4805F0A8FA0122C9
:101D400010214E4804F0D5F901214C4804F044F923
:101D500016B010BD4A48007811280BD14848407889
:101D60004749897840EA01204649086008460088CA
:101D700045490880704700B585B00121082003F06F
:101D8000DFFC0121880303F01FFD00208DF8100007
:101D900001208DF813000C20039003A9324803F0B2
:101DA00089FA0221032005F00BFB0420009000209B
:101DB0008DF8040010208DF8050001208DF8060034
:101DC000684604F00FFA08208DF8080000208DF80E
:101DD00009008DF80A0001208DF80B0002A803F01D
:101DE00090F905B000BD70B504460D46012C0BD12D
:101DF0002946264805F0C9F900BF4021234805F0CF
:101E000074FA0028F9D028E0032C0BD12946204889
:101E100005F0BBF900BF40211D4805F066FA002817
:101E2000F9D01AE0042C0BD129460C4805F0ADF985
:101E300000BF4021094805F058FA0028F9D00CE00D
:101E4000052C0AD129460A4805F09FF900BF402118
:101E5000074805F04AFA0028F9D070BD004C004050
:101E60004060024043010020000C02400008024094
:101E70000050004032050020001401402864024058
:101E80004801002050010020940000200010014073
:101E9000004800400020FE494862FE490860FE49B3
:101EA0000860FE49086070470020F9494862F94916
:101EB00008604FF080414862F9490860F9490860BC
:101EC000F9490860F4490860F4490860F749086076
:101ED000F7490860704700204FF080414862F049A0
:101EE000086070470020EF490860EF4908607047BC
:101EF00010B50020EF490870002407E0612101209F
:101F0000FFF771FF3220FEF7F0FD641C022CF5D3C1
:101F10000120E84908707A20E749087010BD10B523
:101F20000020E6490870002407E061210320FFF744
:101F30005AFF3220FEF7D9FD641C022CF5D3012094
:101F4000DE4908707A20DE49087010BD2DE9F14F96
:101F5000AEB0DCA02D9000202C908DF888008DF87C
:101F600060002E98122831D2DFE800F009313A41A2
:101F70004D545B646D7982899098999A9BFE0221F9
:101F8000D94803F0F9F988B100224FF40041D7484D
:101F900003F010FA4FF40041D44803F0FAF9044674
:101FA00000222146D2A0FEF749FB0FE00122D10317
:101FB000CE4803F0FFF94FF40041CC4803F0E9F9B3
:101FC000044600222146D2A0FEF738FB28E2012277
:101FD000D748B0F900004142D6A0FEF72FFB1FE220
:101FE0000222D6480168D6A0FEF728FB18E2032299
:101FF000D74890ED000ABDEEC00A10EE101AD5A029
:10200000FEF71CFB0CE20422D5480168D5A0FEF7C0
:1020100015FB05E20522D7480168D7A0FEF70EFBA5
:10202000FEE1FEF74AFC044606222146D5A0FEF753
:1020300005FBF5E1FEF7B4FC044607222146D4A0D7
:10204000FEF7FCFAECE10822D44890ED000ABDEE60
:10205000C00A10EE101AD2A0FEF7F0FAE0E1FEF787
:10206000EAFC044609222146D0A0FEF7E7FAD7E1B0
:10207000D14801780A22D1A0FEF7E0FAD0E10B2284
:10208000D1480168D1A0FEF7D9FAC9E1D148007A58
:1020900001110C22D0A0FEF7D1FAC1E1C0E1BFE1ED
:1020A000BEE10121CF4803F067F94FF400511790CA
:1020B0008E4803F061F904460221CA4803F05CF936
:1020C00005464FF48041894803F056F9064604213D
:1020D000C44803F051F94FF400411690C14803F091
:1020E0004BF907460821BF4803F046F980464FF4F4
:1020F0008041BC4803F040F981461021B94803F003
:102100003BF94FF400511590B64803F035F982467B
:102110000821B54803F030F94FF480511490B148CC
:1021200003F02AF910211390AF4803F025F94FF47A
:1021300080611290AB4803F01FF983468021A948C3
:1021400003F01AF94FF480711190A64803F014F9C6
:1021500010901798CDE90B65CDE90D401698CDE9A3
:102160000798CDE9097000E017E0DDE91312159832
:10217000CDE9042A03910690DDE91110CDE9001B99
:1021800002909AA2282122A8109B07F0BBFA1022E5
:1021900022A99FA0FEF7A5FA42E18021524803F050
:1021A000F8F804460121504803F0F3F805464021B1
:1021B0004D4803F0EEF806464FF400418A4803F01C
:1021C000E8F807464FF48051924803F0E2F8804661
:1021D0004FF48061444803F0DCF881464FF400611D
:1021E0008C4803F0D6F84FF4006117903E4803F096
:1021F000D0F882464FF480617B4803F0CAF88346EA
:102200004FF48051384803F0C4F84FF40061169041
:10221000754803F0BEF84FF400511590324803F0B2
:10222000B8F84FF4804114906F4803F0B2F84FF4BF
:10223000804113902C4803F0ACF84FF48071129059
:10224000744803F0A6F84FF400411190264803F0BB
:10225000A0F8CDE90B76CDE90D5410901798CDE993
:1022600007A0CDE9099814A807C803ABA3E807089D
:10227000DDE911121398CDE9001202905BA228212A
:1022800022A8109B07F03EFA112222A9C4E0000008
:1022900000000140440000202408004060000020AD
:1022A00048000020240400404C000020240C004082
:1022B0005000002069000020680000206B00002012
:1022C0006A00002031313131313131313131313138
:1022D00031313131313131313131303131313131EF
:1022E000313131310000000000040240000802409A
:1022F000524F424F5420322044414E4720434841E0
:10230000592053414E2058414E483A202020000089
:10231000524F424F5420322044414E4720434841BF
:10232000592053414E20444F3A2020200000000005
:1023300064000020494D553A0000000000010020D3
:102340004E616E675F48615F6E6F6E673A000000B6
:10235000A40000204C75632042616E3A200000000A
:10236000840000206269656E74726F786F61793ADB
:10237000200000008C0000205849204C414E48208D
:1023800000000000454E434F4445525F464C20003C
:10239000454E434F4445525F46522000A000002066
:1023A000474F435F42414E2000000000454E434FDF
:1023B0004445525F525220004301002052585F555D
:1023C00053415254343A00008000002055574220B7
:1023D0003A0000001406002047616D655F5061649B
:1023E0003A00000000100240000C02402564256401
:1023F0002564256425642564256425642564256495
:102400002564256425642564256425640000000096
:10241000493A000000000240FEA0FEF762F900BF4A
:1024200000BF2FB0BDE8F08F10B50121FB4803F0CD
:10243000D3FD10BD01B5FA4800680099884203DD5C
:102440000020F749086004E0F5480068401CF449A2
:102450000860F3480068FFF779FD08BD10B5FEF786
:10246000EAFAF0490860FEF728FAEF490860FEF73B
:1024700097FAEE49086010BD2DE9F0412DED088B6B
:1024800006460F46304606F080FF41EC190B9FEDE3
:10249000E81BB0EE490AF0EE690A07F073FBB0EEF4
:1024A000408AF0EE608A51EC180B06F07FFF04467C
:1024B000002C02DBA4F5E16401E004F5E164384698
:1024C00006F063FF41EC1B0B9FEDD91BB0EE4B0AEE
:1024D000F0EE6B0A07F056FBB0EE409AF0EE609A11
:1024E000304606F052FF41EC1B0B9FEDD11BB0EEC6
:1024F0004B0AF0EE6B0A07F045FBB0EE40AAF0EE97
:1025000060AA53EC192B51EC1A0B06F057FE41EC64
:10251000180B06F04BFF05462846211E01DB0A4634
:1025200000E04A42002801DB034600E043429A42B1
:1025300005DA25464FF0FF30BF49086003E0354615
:102540000120BD4908602846BDEC088BBDE8F0813C
:102550000146FA2901DDFA2102E0032900DA02210D
:10256000C8B2704730B505460C4625B9B348007867
:10257000B349C87516E0B34890ED000AB5EEC00A3D
:10258000F1EE10FA07DD2846FFF7E2FFAC49C87507
:102590000020887506E06842FFF7DAFFA849C87591
:1025A0000120887524B9A5480078A549C87316E0AC
:1025B000A54890ED000AB5EEC00AF1EE10FA07DD6D
:1025C0002046FFF7C5FF9E49C8730120887306E0C7
:1025D0006042FFF7BDFF9A49C8730020887323B992
:1025E000964800789649C87116E0984890ED000A20
:1025F000B5EEC00AF1EE10FA07DD1846FFF7A8FFA6
:102600008F49C8710020887106E05842FFF7A0FF8B
:102610008B49C8710120887130BD10B58C4C206089
:102620008C4C21608C4C22608C4C236010BD844A01
:10263000D075D073D07170478148C07D032809DA06
:102640007F48C07B032805DA7D48C079032801DA7A
:10265000012070470020FCE7012081490860704795
:102660008048006847F23051884201D0012070470D
:102670000020FCE710B5FFF73BFC10BD7A48B0F92D
:10268000000040427047B5EEC00AF1EE10FA09D2E0
:102690007648D0ED000A70EE600AFDEEE00A10EE1A
:1026A000900A70477148D0ED000A70EE200AFDEEE6
:1026B000E00A10EE900AF4E710B52DED0A8B0446FF
:1026C00024B99FED6B0ABDEC0A8B10BD002C25DAF6
:1026D0006848006806F059FE41EC190B204606F0E8
:1026E00054FE41EC1C0B9FED640B53EC102B06F0D9
:1026F0006BFD41EC1B0B9FED620B53EC102B06F0B6
:102700005DFD41EC1A0B53EC192B06F0CFFD41ECAB
:10271000180B06F07DFE00EE100AD4E7554800685D
:1027200006F033FE41EC190B204606F02EFE41EC7C
:102730001C0B9FED510B53EC102B06F045FD41ECAB
:102740001B0B9FED4F0B53EC102B06F096FC41EC4E
:102750001A0B53EC192B06F0A9FD41EC180B06F0EF
:1027600057FE00EE100AAEE7F0EE400AF5EEC00AA2
:10277000F1EE10FA02DBB0EE600A7047B1EE600ACB
:10278000FBE70146002901DB084670474842FCE7A9
:1027900001463D48D0ED000AF1EE600A3B48D0ED1D
:1027A000001A80EEA11A00EE901AF8EEE01A3648F0
:1027B000D0ED000A41EE210AB0EE600AFDEEC00A3B
:1027C00010EE900A7047B0EE402ADFED312AB0EEED
:1027D000620AB5EEC02AF1EE10FA03D2F1EE422AF7
:1027E000B0EE622AF5EEC00AF1EE10FA03D2F1EE75
:1027F000602AF0EE620AB5EEC01AF1EE10FA03D2CA
:10280000F1EE412AB0EE621AF5EEC01AF1EE10FABE
:1028100044D23FE04F55543A00000000A06002400F
:102820005C000020180300201C030020200300206F
:10283000000000000020AC4044020020980100206D
:1028400004000020040200200802002010020020E2
:102850002C02002030020020240200202802002048
:1028600080020020C40100206400002058010020E4
:1028700000000000B0010020EC51B81E85EBB13F14
:102880009A9999999999B93F900100209401002053
:102890006F12833AF1EE612AF0EE621AB4EEC02AAA
:1028A000F1EE10FA01DDB0EE420AF4EEC00AF1EEEC
:1028B00010FA01DDB0EE600AB4EEC01AF1EE10FAC3
:1028C00001DDB0EE410AF4EEC01AF1EE10FA01DDBE
:1028D000B0EE610A7047F94800687047F848006830
:1028E000704710B52DED048BF0EE408AB0EE608A93
:1028F000F448D0ED000AF44890ED000A07F0C4F95E
:10290000B0EE409A07F0BAFDBDEEC00A10EE104AD4
:10291000EE4880ED008AEE4880ED008AB0EE680A4D
:1029200007F0E4FCF0EE000A20EE200AE94880ED12
:10293000000AB0EE680A07F07DF8F0EE000A20EE1B
:10294000200AE54880ED000A90ED000AF2EE040A44
:1029500020EE200AE14880ED000AB0EE680A07F098
:10296000C5FCB0EE409AFFF78EFE00EE100AB8EEFE
:10297000C00ADB4880ED000AD64890ED000AD34833
:10298000D0ED000A30EE600AD64880ED000AD1484A
:1029900090ED000ACD48D0ED000A30EE200AD24872
:1029A00080ED000ACC4890ED000AC948D0ED000A3D
:1029B00030EE600ACD4880ED000AC74890ED000A6D
:1029C000C348D0ED000A30EE200AC94880ED000A65
:1029D000C648D0ED000AC44890ED000A06F0D4FEC7
:1029E000DFEDC40A20EE200AC348D0ED000A80EED5
:1029F000201AC24880ED001AC1480168BF4890ED16
:102A0000000ABDEEC00A10EE100AFFF735FD00EE19
:102A1000100AB8EEC00AB94880ED000AB94890ED36
:102A2000000AB8EEC00AB84880ED000AAE48D0ED02
:102A3000000A60EEA00AAD4890ED001AD0ED001A31
:102A400041EE210AB0EE600A07F018FDAD48D0ED66
:102A5000000AF8EEE00A20EE200AAC4880ED000AF9
:102A6000A348D0ED000AA04890ED000A06F08CFEC5
:102A7000DFEDA00A20EE200A9F48D0ED000A80EE8C
:102A8000201AA34880ED001AA2480168A04890EDE2
:102A9000000ABDEEC00A10EE100AFFF7EDFC00EED2
:102AA000100AB8EEC00A9A4880ED000A954890EDE9
:102AB000000AB8EEC00A984880ED000A8A48D0EDB6
:102AC000000A60EEA00A8A4890ED001AD0ED001AC4
:102AD00041EE210AB0EE600A07F0D0FC8948D0ED43
:102AE000000AF8EEE00A20EE200A8C4880ED000A89
:102AF0007F48D0ED000A7B4890ED000A06F044FEC6
:102B0000DFED7C0A20EE200A7B48D0ED000A80EE43
:102B1000201A834880ED001A82480168804890EDB1
:102B2000000ABDEEC00A10EE100AFFF7A5FC00EE89
:102B3000100AB8EEC00A7A4880ED000A714890ED9C
:102B4000000AB8EEC00A784880ED000A6548D0ED6A
:102B5000000A60EEA00A664890ED001AD0ED001A57
:102B600041EE210AB0EE600A07F088FC6548D0ED1E
:102B7000000AF8EEE00A20EE200A6C4880ED000A18
:102B80005A48D0ED000A574890ED000A06F0FCFDC7
:102B9000DFED580A20EE200A5748D0ED000A80EEFB
:102BA000201A634880ED001A62480168604890ED81
:102BB000000ABDEEC00A10EE100AFFF75DFC00EE41
:102BC000100AB8EEC00A5A4880ED000A4D4890ED50
:102BD000000AB8EEC00A584880ED000A4148D0ED1E
:102BE000000A60EEA00A414890ED001AD0ED001AEC
:102BF00041EE210AB0EE600A07F040FC4148D0EDFA
:102C0000000AF8EEE00A20EE200A4C4880ED000AA7
:102C1000BDEC048B10BD10B52DED028BB0EE408ADB
:102C20004748006847F2305188421BD19FED450A62
:102C300028EE000A444880ED000AD0ED000A1FED9E
:102C4000F40AFFF74EFE1FEDF60A3C4880ED000A3D
:102C5000364880ED000A2D4880ED000A2F4880EDAF
:102C6000000A21E03948006839490968401A3449A6
:102C70000968081A00EE100AB8EEC00A3548D0ED0F
:102C8000000A20EE200A3448D0ED000AC0EE208A67
:102C9000324890ED000A2C4880ED000AD0ED000A81
:102CA000B0EE680AFFF71DFEB5EEC08AF1EE10FA2D
:102CB0007DD02B48006805287AD253E0B00100206F
:102CC000E00100206C020020700200206002002061
:102CD00064020020480200204C0200207402002000
:102CE00078020020500200205402002058020020E8
:102CF0005C0200200000E144A40100201802002032
:102D0000200300204402002008020020F8010020D7
:102D1000140200201C03002004020020F401002003
:102D20001C020020140300200C020020FC010020E3
:102D300020020020180300201002002000020020C2
:102D4000C40100200000E14368020020E8010020E7
:102D5000D0010020A001002070010020D801002037
:102D6000AC010020DFE800F00373899FB500FE4846
:102D700090ED000AFAEE040AB4EEE00AF1EE10FA61
:102D800008D390ED000AF2EE040AB4EEE00AF1EE88
:102D900010FA1FDDF54890ED000A30EE080A80EDCC
:102DA000000AF34890ED000A30EE480A01E0A7E07F
:102DB000A5E080ED000AEF4890ED000A30EE080A29
:102DC00080ED000AEC4890ED000A30EE480A80EDF4
:102DD000000A3BE0E94890ED000AE948D0ED000A1E
:102DE00060EE200AE14890ED000A00EE880A80EDCE
:102DF000000AE24890ED000AE248D0ED000A60EED9
:102E0000200ADB4890ED000A00EE880A80ED000AF7
:102E1000DA4890ED000ADC48D0ED000A60EE200AA6
:102E2000D44890ED000A00EEC80A80ED000AD348AD
:102E300090ED000AD548D0ED000A60EE200ACE4899
:102E400090ED000A00EEC80A80ED000A57E0C8487D
:102E500090ED000A30EE480A80ED000AC54890ED7A
:102E6000000A30EE080A80ED000AC34890ED000A1F
:102E700030EE480A80ED000A41E0BC4890ED000ABF
:102E800030EE080A80ED000ABA4890ED000A30EEF4
:102E9000080A80ED000AB84890ED000A30EE480AB2
:102EA00080ED000A2BE0B14890ED000A30EE080AF0
:102EB00080ED000AAE4890ED000A30EE480A80ED41
:102EC000000AAD4890ED000A30EE480A80ED000A95
:102ED00015E0A64890ED000A30EE080A80ED000AE1
:102EE000A34890ED000A30EE480A80ED000AA148A0
:102EF00090ED000A30EE080A80ED000A00BF00BF26
:102F00009D48D0ED001A9B4890ED001A9848D0EDEE
:102F1000000A964890ED000AFFF755FC9C48D0ED5A
:102F2000000AF8EEE00A80EE801ABDEEC10A994868
:102F300080ED000A9848006896490968884203DDD8
:102F40009448006894490860012094490860BDECE9
:102F5000028B10BD10B504460020914908609148CD
:102F60000460FCB900208C4908609FED8F0A8F48EF
:102F700080ED000A47F230508D4908608D490860A5
:102F80009FED890A8C4880ED000A00208B4908607B
:102F90008B4908608B4908608B4908609FED820A65
:102FA000FFF739FE10BD10B5834890ED000AB5EE6D
:102FB000C00AF1EE10FA05D18048006810B98048C7
:102FC000006890B19FED780A7B4880ED000A0020F0
:102FD0007A4908607A4908607C4800687C49086042
:102FE000754890ED000AFFF716FE10BD7948C0ED58
:102FF000000A794880ED000A704770B52DED028B0C
:1030000005460C46B0EE408A69480068A8420BD1DC
:1030100063480068A04207D1644890ED000AB4EE0E
:10302000480AF1EE10FA18D05D4804605A4800686A
:1030300010B9052058490860644800686449086070
:103040005A4880ED008A5A480560002063490860AC
:10305000594890ED000AFFF7DEFDBDEC028B70BD14
:1030600070B52DED028B0446B0EE408A0D465448F3
:103070000068A0420BD1504890ED000AB4EE480A17
:10308000F1EE10FA03D14D480068A84237D0484805
:10309000006847F23051884222D11E204049086022
:1030A0000A203D49086047F23050844218DA012076
:1030B00044490860B5EEC08AF1EE10FA03DD4348DA
:1030C0000068A04208DCB5EEC08AF1EE10FA07D223
:1030D0003E480068A04203DAB1EE480AB0EE408AEA
:1030E0003748046035480560334880ED008A002089
:1030F0003A490860304890ED000AFFF78CFDBDECBE
:10310000028B70BD10B52DED028BB0EE408A0446E7
:103110002146B0EE480A47F23050FFF7A1FFBDEC60
:10312000028B10BD70B504460D469FED1F0A29465F
:103130002046FFF762FF70BD10B52DED088BF0EE55
:10314000408A0446B0EE608AB0EE419A194890ED8C
:10315000000AB8EEC00AB4EE680AF1EE10FA4AD1DD
:103160000F480068A0423BE074020020F4010020F8
:10317000F8010020FC01002000020020480200208D
:1031800004020020080200200C020020100200208F
:1031900054010020B8010020B0010020A801002047
:1031A000B4010020BC01002000000000DC01002070
:1031B000C4010020C8010020D8010020AC0100207B
:1031C000CC010020E001002080020020E801002066
:1031D000D00100209001002094010020C0010020B7
:1031E00009D1F84890ED000AB8EEC00AB4EE480ADA
:1031F000F1EE10FA5ED0BDEEE80AF34880ED000A69
:10320000F24991ED000AB8EEC00A38EEC00ABDEEF0
:10321000C00A10EE100A1FED1C0A2146FFF7EDFE52
:10322000EA48D0ED000AF8EEE00A78EE600AB0EE67
:10323000600AFFF799FADFEDE60AB4EEE00AF1EE74
:1032400010FA14DDE14890ED000AB8EEC00AB4EEC1
:10325000C08AF1EE10FA02DDB0EE490A01E0B1EEEB
:10326000490A10EE101A084606F0BFF813E0D748D6
:1032700090ED000AB8EEC00A38EE400A10EE101ABF
:10328000084606F0B2F841EC1B0B9FEDD20B53EC55
:10329000102B05F099FF41EC1A0B06F0B9F809EE76
:1032A000900A0021B0EE690AFDEEC80A10EE900AFD
:1032B000FFF7D6FEBDEC088B10BD10B5C7480068FF
:1032C00001283DDDBF490968C04A1268881AFFF726
:1032D00058FA0A280CDAC14801680068401CBF4A45
:1032E0001060B1F5FA7F2BDD0020FFF733FE10BD33
:1032F000BA480068FA2808DD0520B9490860B949CC
:103300000860FB20B549086004E00520B449086066
:10331000B4490860AD480068AA490968884205DDDB
:10332000BFEE000AB04880ED000A04E0B7EE000AE4
:10333000AD4880ED000AAC4890ED000AFFF76BFC49
:1033400000BFD4E710B52DED028BA84890ED000A20
:10335000B5EEC00AF1EE10FA08D1A248006828B113
:103360009848006847F23051884202DBBDEC028B7E
:1033700010BD9D4890ED000AB5EEC00AF1EE10FABE
:103380007DD09B48006847F23051884278D19648FA
:1033900090ED000AB5EEC00AF1EE10FA08DD89489A
:1033A000006894490968401A88490968884210DB16
:1033B0008D4890ED000AB5EEC00AF1EE10FA7DD20C
:1033C000804800688B490968084480490968884238
:1033D00074DD8248006805285BDA7A4909687B4A0F
:1033E0001268881AFFF7CDF9322816DA7548006896
:1033F0008149086000207B490860794908601FED19
:10340000960A794880ED000A0220744908607648DF
:1034100090ED000AFFF7FFFBA8E76A4800686B49D8
:103420000968884236DD6F4890ED000AB8EEC00AA0
:103430006D48D0ED000A60EE200A6E4890ED000A5B
:10344000B8EEC00AC0EE801AB0EE611AB0EE410AC2
:10345000FFF78AF95B4909685C4A1268881AFFF726
:1034600090F900EE900AB8EEE01AF1EE040A40EE90
:10347000010A5C4890ED000AB8EEC00A01E0C5E020
:1034800044E080EE801AB0EE418AB0EE480AFFF7C1
:10349000C2FBBAE0534890ED000AB8EEC00A5248A9
:1034A000D0ED000A60EE200A524890ED000AB8EE16
:1034B000C00AC0EE801AB0EE611A00E020E0B0EE63
:1034C000410AFFF751F93F490968404A1268881AD2
:1034D000FFF757F900EE900AB8EEE01AF1EE040A91
:1034E00050EE410A3F4890ED000AB8EEC00A80EE67
:1034F000801AB0EE418AB0EE480AFFF78CFB84E0F8
:10350000394890ED000AFFF786FB7EE0364890EDE3
:10351000000AB5EEC00AF1EE10FA1FDD294890ED61
:10352000000AB8EEC00A2F48D0ED000AF8EEE00A13
:103530002D4890ED001A00EEC10A3048D0ED000A87
:10354000F8EEE00A70EE600A204890ED000AB8EE4E
:10355000C00AF4EEC00AF1EE10FA27D3224890ED2B
:10356000000AB5EEC00AF1EE10FA49D2154890ED06
:10357000000AB8EEC00A1B48D0ED000AF8EEE00AD7
:10358000194890ED001A00EEC10A1C48D0ED000A5F
:10359000F8EEE00A70EE200A0C4890ED000AB8EE52
:1035A000C00AF4EEC00AF1EE10FA29DD05490968F7
:1035B000064A1268881AFFF77FF8B0EE408AFFF7D4
:1035C0002AFB22E0CC010020C8010020E8010020F5
:1035D00000004842FCA9F1D24D62403FE0010020CA
:1035E000B4010020B0010020D8010020DC0100203F
:1035F000C40100208C010020E4010020880100208B
:10360000F84890ED000AFFF706FBAFE6F6490968B7
:10361000F64A1268881AFFF74FF8B0EE408AFFF7B3
:10362000FAFA00BFA2E600B5F1480068022815DAF0
:103630009FEDF00AF04880ED000A9FEDEE0AE948A0
:1036400080ED000A0020ED49086047F23050EC4957
:103650000860EC4908600020EB490860EB4800680E
:10366000401CEA490860EA490968884204DAE948E6
:103670000068FEF7DCFF0EE0E5480068E3490860FB
:10368000E548006820B1E3480068FEF7D0FF02E09B
:103690000020FEF7CCFF00BDDC4A1268521CDB4B59
:1036A0001A60824207DDDD4A12680A44DB4B1A6069
:1036B0000022D64B1A6070472DE9F041FEF7DEFF7D
:1036C000CA490860FFF7F9FDD5480068002821DDE8
:1036D000D2480068D249096888422AD0CF48006899
:1036E000CF49096888420EDACC480068CD4909689C
:1036F00088421EDAC9480068FFF74AF804460121EB
:10370000FFF7CAFF15E04FF0FF31C7480068FFF729
:10371000C3FF0EE0C1480068002806DD4FF0FF310E
:10372000C2480068FFF7B8FF03E0FFF77CFFBDE881
:10373000F081BF480068AD490968884205D0FFF7AD
:1037400001FEAA480068BA490860BA480068E8B3B0
:10375000B248D0ED000AF8EEE00AB74890ED001A42
:1037600060EE810AB0EE600AFEF78DFF0446AB48BA
:10377000D0ED000AF8EEE00AB04890ED001A60EED5
:10378000810AB0EE600AFEF77EFF0546A348D0ED41
:10379000000AF8EEE00AAA4890ED001A60EE810AED
:1037A000B0EE600AFEF76FFF06469C48D0ED000AB7
:1037B000F8EEE00AA34890ED001A60EE810AB0EE40
:1037C000600AFEF760FF0746234600E021E02A4634
:1037D0003146FEF7C7FE9C4890ED000ABDEEC00AD8
:1037E00010EE103A994890ED000ABDEEC00A10EEB6
:1037F000102A974890ED000ABDEEC00A10EE101A8C
:10380000944890ED000ABDEEC00A10EE100AFEF7D3
:1038100004FF00BF8BE710B502218F4801F0ACFD1B
:10382000012800D100BF10BD9FED721AB0EE410A11
:103830009FED701AF0EE410A01EE100AB8EEC11ABF
:10384000DFED861A81EE212A9FED851A22EE011AFC
:10385000B0EE410A9FED831AB4EEC10AF1EE10FA00
:1038600004DD9FED801AB0EE410A0AE09FED7E1A5A
:10387000B4EEC10AF1EE10FA03D29FED7B1AB0EE5E
:10388000410AA0F2122101EE101AB8EEC11A9FED02
:10389000732AC1EE021A9FED752A9FED751A01EE8B
:1038A000821AF0EE410A9FED721AF4EEC10AF1EEAF
:1038B00010FA04DD9FED6E1AF0EE410A0AE09FED6A
:1038C0006D1AF4EEC10AF1EE10FA03D29FED691AF7
:1038D000F0EE410A684981ED000A6849C1ED000A2D
:1038E000704700B502460023B2F5077F05DB40F2C2
:1038F0007620824201DC012303E01046FFF794FFAB
:1039000000BD012B05D19FED5E0A5B4880ED000AEA
:1039100000E000BF00BF00BFF2E75A48016800683E
:10392000401C584A1060322907D25748C08857496E
:1039300009680844554908600BE054480068322182
:10394000B0FBF1F05249086000204E4908604F4931
:103950000860504801680068401C4E4A10603229D7
:1039600007D2494800884C49096808444A49086018
:103970000BE0494800683221B0FBF1F0474908608C
:1039800000204449086044490860454801680068CF
:10399000401C434A1060322907D23B480088414905
:1039A000096808443F4908600BE03E48006832213E
:1039B000B0FBF1F03C490860002039490860394902
:1039C00008603A4801680068401C384A1060B1F548
:1039D000967F72D2364800683649098808443449CF
:1039E000086077E0D8010020D0010020E801002025
:1039F000E001002000000000DC010020AC010020FC
:103A0000C4010020C8010020CC010020C00100201A
:103A10009C0100209801002080020020B0010020BD
:103A2000B4010020B8010020F0010020BC010020FA
:103A3000EC010020A801002000020020FC01002071
:103A4000F8010020F4010020200200201C020020C8
:103A500018020020140200200010024000800444DC
:103A600000004843000070430000C84200000243C9
:103A70000000BE4300007A439C000020A00000200C
:103A800000002A4354030020C805002058030020EA
:103A9000840000205C0300206003002090000020D0
:103AA00064030020680300208C0000204C030020E9
:103AB0005003002094000020FFE7F74800684FF40F
:103AC0009671B0FBF1F0F54908600020F4490860F8
:103AD000F1490860704701B5F248407800F00200F3
:103AE00068B1F048407800F0200040B19DF8000037
:103AF000ED4981F82700002081F8260016E0E9480A
:103B0000407800F0020068B1E648407800F0040018
:103B100040B19DF80000E44981F82700012081F8B8
:103B2000260003E00020E04981F8270008BD10B519
:103B30000221DE4801F020FC28B94620DA49C87687
:103B4000C87781F823000120D7498876887781F8E3
:103B5000220043F6982004F00FFE0122D102D4483F
:103B600001F028FC4FF4FA5004F006FE0020CE4984
:103B7000C876C87781F823008876887781F8220094
:103B800000224FF40061CA4801F014FC10BD10B5CA
:103B90000221C64801F0F0FB60B9C64890ED000A6A
:103BA000BCEEC00A10EE100AC0B2BF4981F8230073
:103BB000C877C8760120BC498876887781F82200CA
:103BC00043F2C82004F0D8FD0122D102B84801F028
:103BD000F1FB42F2107004F0CFFD0020B24981F8F1
:103BE0002300C877C87600224FF40061B04801F086
:103BF000E1FB00224FF48041AF4801F0DBFB10BD38
:103C0000AE4890ED000ABDEEC00AAD4880ED000A56
:103C1000704710B501225103A54801F0CBFB4FF4CA
:103C2000AF70A7490860002410E006E0FCF73EFEF4
:103C300000B109E0012004F09FFD4FF480719B4822
:103C400001F09AFB0028F1D000BF641C642CECDB6F
:103C500041F6583004F090FD0122D102964801F05F
:103C6000A9FB4FF4FA7004F087FD00224FF40061C5
:103C70008F4801F09FFB00240FE006E0FCF716FEE2
:103C800000B108E0012004F077FD0121874801F030
:103C900073FB0028F2D000BF641C642CEDDB002411
:103CA0000FE006E0FCF702FE00B108E0012004F09E
:103CB00063FD01217D4801F05FFB0128F2D000BFC8
:103CC000641C642CEDDB4FF42F7004F055FD0022D2
:103CD0004FF40061784801F06DFB00240FE006E02E
:103CE000FCF7E4FD00B108E0012004F045FD0121EE
:103CF0006E4801F041FB0028F2D000BF641C642C28
:103D0000EDDB40F2DC5004F037FD0122D1026848BF
:103D100001F050FB4FF47A7004F02EFD00224FF4B6
:103D20000051634801F046FB00240FE006E0FCF779
:103D3000BDFD00B108E0012004F01EFD80215B48BC
:103D400001F01AFB0028F2D000BF641C642CEDDBEC
:103D500010BD10B55B48006850B90122D10254482B
:103D600001F028FB00224FF40051514801F022FBE2
:103D700054480068012810D1012241034C4801F049
:103D800019FB4FF48071494801F0F6FA28B100227E
:103D90004FF40061464801F00DFB4A4800680228D4
:103DA0000DD101228102424801F004FB00224FF4B0
:103DB00000513F4801F0FEFA0020424908604148A6
:103DC000006803280ED10221384801F0D5FA20B945
:103DD00001225103364801F0EDFA0122D1023448A4
:103DE00001F0E8FA10BD10B52E48407800F002004E
:103DF00098B92C48407800F0040070B102E01E2011
:103E000004F0BAFC2748407800F004000028F6D1FE
:103E10002C480068401C2B49086010BD10B53E209E
:103E20002149C876C87781F82300002088768877F2
:103E300081F8220040F2DC5004F09EFC10BD01B578
:103E40001848407800F0010068B11648407800F04A
:103E5000100040B19DF80000134981F82B000120AB
:103E600081F82A0016E00F48407800F0010068B1A0
:103E70000C48407800F0080040B19DF800000A4965
:103E800081F82B00002081F82A0003E00220064977
:103E900081F82B0008BD00005003002080000020A6
:103EA0004C030020140600200400002000100240F3
:103EB000000402409C000020000C0240A0000020F2
:103EC00000010020BC02002001B5F748407800F056
:103ED000200040B19DF80000F44981F82F00012036
:103EE00081F82E0017E0F048407800F0040070B12F
:103EF0001021EF4801F040FA012808D19DF8000098
:103F0000EA4981F82F00002081F82E0003E002200A
:103F1000E64981F82F0008BDE6480068E6490968CF
:103F2000884203DAE4480068E2490860E148006832
:103F3000E2490968884203DDE0480068DD4908601D
:103F4000DF490968DB4A1268881A002801DB01464C
:103F500000E04142052930DDD9480068D5490968AB
:103F6000884204DD0120D14981F8260003E00020C9
:103F7000CE4981F82600D2490968CE4A1268881ACB
:103F8000002801DB014600E04142C1EB0111CD4AAE
:103F9000116010460068FA2802DDFA201146086018
:103FA000C84800680A2802DA0A20C6490860C548DD
:103FB0000078BE4981F8270003E00020BB4981F862
:103FC00027007047C0480068C0490968884203DA82
:103FD000BE480068BC490860BB480068BC49096825
:103FE000884203DDBA480068B7490860B9490968E2
:103FF000B54A1268881A002801DB014600E04142F8
:1040000071B3B4480068B0490968884204DD0020F3
:10401000A64981F82A0003E00120A44981F82A007A
:10402000AC490968A84A1268881A002801DB0146D1
:1040300000E04142A34A116010460068082802DDF2
:104040000820114608609F480068062802DA06200A
:104050009C4908609B480078944981F82B0003E054
:104060000020924981F82B00704710B58E484078A7
:1040700000F00200A0B18C48407800F0040078B154
:104080008C4800688D490968884209DA89480068C7
:10409000401C884908604FF4967004F06DFB18E0EE
:1040A0008148407800F0020098B17F48407800F0E5
:1040B000200070B17F4800687F490968884208DDA8
:1040C0007C480068401E7B4908604FF4967004F0FD
:1040D00053FB10BD10B57448407800F00200A0B149
:1040E0007148407800F0080078B177480068784956
:1040F0000968884209DA74480068401C72490860FF
:104100004FF4967004F038FB18E06748407800F0F0
:10411000020098B16448407800F0100070B16A481D
:1041200000686A490968884208DD67480068401EDF
:10413000654908604FF4967004F01EFB10BD10B581
:10414000044600219FED640A2046FEF789FF10BD5A
:1041500001B562480068012808D19DF80000534964
:1041600081F82B00012081F82A000BE05C480068F0
:10417000012807D19DF800004C4981F82B00002050
:1041800081F82A0008BD10B50221494801F0F4F871
:10419000002832D147480068B0F5617F2DDB9B20B5
:1041A0004249C876C87781F823000120887688774D
:1041B00081F8220042F2107004F0DEFA0122D102EE
:1041C000484801F0F7F842F2107004F0D5FA0020E8
:1041D0003649C876C87781F8230001208876887729
:1041E00081F822000022C1023E4801F0E3F80022DB
:1041F0004FF400513B4801F0DDF810BD10B52A48DE
:10420000007800F0800048B102E01E2004F0B4FA0B
:104210002548007800F080000028F6D13248006878
:10422000401C3149086010BD01B51F48407800F0BE
:10423000020068B11C48407800F0080040B19DF8C9
:1042400000001A4981F82B00012081F82A0016E0AD
:104250001548407800F0020068B11348407800F03B
:10426000100040B19DF80000104981F82B0000209B
:1042700081F82A0003E000200C4981F82B0008BDDA
:1042800010B514200949C876C87781F823000020AA
:104290008876887781F8220040F2DC5004F06CFACE
:1042A000002432E029E00000140600200400002071
:1042B000001002400001002004010020080100203D
:1042C0008400002000030020F4000020F8000020FB
:1042D000FC00002090000020CDCC4C3EE4020020E9
:1042E000E802002000040240B8020020FCF7DEFAD9
:1042F00000B108E0012004F03FFA0221FA4801F081
:104300003BF80128F2D000BF641C642CCADB0020FB
:10431000F649C876C87781F823008876887781F8CF
:10432000220010BD10B5F2488079E8B10221EE48B4
:1043300001F022F8012817D10020EC49C876C8778F
:1043400081F823008876887781F8220000224FF4D4
:104350000051E84801F02EF82320E74908600020CA
:10436000E6490860E649086010BD10B50221DE4844
:1043700001F002F800282CD10120E2490870E2483F
:1043800090ED000ABCEEC00A10EE100AC0B2D74988
:1043900081F82300C877C87601208876887781F86D
:1043A000220043F2C82004F0E7F90122D102D148EB
:1043B00001F000F842F2107004F0DEF90020CB4961
:1043C000C876C87781F8230001208876887781F83D
:1043D000220010BD10B50221C34800F0CDFF60B926
:1043E000CA4890ED000ABCEEC00A10EE100AC0B236
:1043F000BE4981F82300C877C8760120BB4988767A
:10440000887781F8220042F2107004F0B5F900209C
:10441000B64981F82A00FE2081F82B0042F2107084
:1044200004F0AAF90020B149C876C87781F82300C2
:104430008876887781F8220081F82B0010BD10B5AE
:10444000AB48807948B10221A74800F095FF0128C8
:1044500003D10020A54981F82B0010BD10B52DED2A
:10446000028BB0EE408AA248C07900B39FEDA80A43
:10447000B4EEC08AF1EE10FA0ADB9FEDA60AB4EEA4
:10448000C08AF1EE10FA03D80A20FEF763FD1CE0A3
:104490009FED9F0AB4EEC08AF1EE10FA08D2002018
:1044A0009D4991ED000AB1EE400AFEF72BFE0CE0AB
:1044B0009FED980AB4EEC08AF1EE10FA05DD0020F7
:1044C000954991ED000AFEF71DFEBDEC028B10BD73
:1044D00010B52320854981F82300C877C8760020CD
:1044E0008876887781F8220041F2883004F044F918
:1044F00000240FE006E0FCF7D9F900B108E0012044
:1045000004F03AF90221784800F036FF0128F2D091
:1045100000BF641C642CEDDB00207449C876C877AA
:1045200081F823008876887781F82200FE2081F8C0
:104530002B00012081F82A0010BD30B52DED048B31
:104540008FB01C22754908A804F046FD1C2273494F
:104550001C3101A804F040FD9FED710AF0EE408A85
:104560009FED6F0AF0EE409A0024322009EE100A07
:104570000A256C480068A0F5FA70052805DC694832
:104580000068C0F19600052805DD9FED650A0FB0B3
:10459000BDEC048B30BD63480068963800EE100A0D
:1045A000B8EEC00AF0EE409AB8EEC90AC9EE800A29
:1045B000BDEEE00A10EE104A2CB95B4890ED000AFF
:1045C000B8EEC08A07E05848006804FB050000EE1A
:1045D000100AB8EEC08A08A850F8240051490968AA
:1045E000081A0A2190FBF1F001A951F8241001EBFF
:1045F000400000EE100AB8EEC00AF0EE408ABDEEB0
:10460000C80A3D4880ED000A4048C0ED008AB0EE7F
:10461000680ABCE770B504460D46B4F5967F04DB26
:1046200029460020FEF77EFD02E00020FEF792FC06
:1046300070BD73B52DED028B142505269FED380A4C
:10464000B0EE408A2A480079322805DB28480079F4
:10465000C82801DC012000E000200446244800783E
:1046600000F00800A8B92248007800F0100080B9D6
:104670001F48007800F0200058B91D48007800F06D
:10468000400030B92CB10A20FEF764FCBDEC028B6F
:104690007CBD1748407800F0010030B19DF80C5007
:1046A0009FED220AB0EE408A05E09DF808501FED0C
:1046B000F60AB0EE408A0E48007800F00800B8B361
:1046C0000B48007800F0100090BB0948007800F01B
:1046D000200068BB0648007800F0400040BB294637
:1046E0000020FEF71FFDD6E000100240040000206D
:1046F00014060020000402400001002038010020C0
:1047000034010020D00200209C000020A4000020E2
:104710000000C4420000CC42F802002080A800083B
:104720000000000080000020040100209A99993FB9
:10473000FFE7FE48007800F00800A0B9FB480078C9
:1047400000F0100078B1F948007800F0200050B96E
:10475000F648007800F0400028B929464FF4E1609F
:10476000FEF7E0FC97E0F148007800F00800A0B9FF
:10477000EE48007800F0100078B9EC48007800F0BE
:10478000200050B1E948007800F0400028B92946DF
:104790004FF46170FEF7C6FC7DE0E448007800F05D
:1047A000080098B9E148007800F0100070B9DF48BF
:1047B000007800F0200048B9DC48007800F04000A4
:1047C00020B12946DA48FEF7ADFC64E0D74800780E
:1047D00000F00800A0B1D548007800F0100078B9CA
:1047E000D248007800F0200050B1D048007800F0A6
:1047F000400028B929464FF4E170FEF793FC4AE0E7
:10480000CA48007800F0080098B1C848007800F065
:10481000100070B9C548007800F0200048B9C348BE
:10482000007800F0400020B12946C248FEF77AFC2B
:1048300031E0BE48007800F00800A0B9BB4800781D
:1048400000F0100078B1B948007800F0200050B1B5
:10485000B648007800F0400028B9294640F246509A
:10486000FEF760FC17E0B148007800F0080090B94E
:10487000AE48007800F0100068B1AC48007800F055
:10488000200040B9A948007800F0400018B129463E
:10489000A948FEF747FCA548007800F00800A8B931
:1048A000A248007800F0100080B9A048007800F01D
:1048B000200058B99D48007800F0400030B92CB174
:1048C000FDF7CEFE10B11420FEF744FB14B1FEF745
:1048D0006AFB27E09548007932280EDAFDF7C0FE22
:1048E00028B10020B1EE480AFEF70CFC1AE00020C7
:1048F000B1EE480AFEF706FC14E08C480079C8289F
:104900000EDDFDF7ADFE28B10020B0EE480AFEF73F
:10491000F9FB07E00020B0EE480AFEF7F3FB01E0E8
:10492000FEF741FB00BFB1E610B501208349887056
:104930000421834800F020FD012804D102207F4992
:10494000C870012010BD32207C49C8700020F9E7F2
:1049500010B504217A4800F00FFD01280BD17948E9
:10496000007840B932207549C87000207649086047
:104970007649086010BDFCF75EF8041E01DB204696
:1049800000E0604272490968884208DD6D4800789D
:10499000012804D102206949C8700120EAE71420E7
:1049A0006649C8700120674908700020E2E710B529
:1049B000012062498874C103614800F0DDFC0128D0
:1049C00004D102205D49C874012010BD32205B492A
:1049D000C8740020F9E710B5012058498874C10354
:1049E000574800F0C9FC01280BD15A48007840B95B
:1049F00032205249C874002057490860574908605E
:104A000010BDFBF75AFF041E01DB204600E06042A8
:104A100053490968884208DD4E480078012804D1CE
:104A200002204649C8740120EAE714204349C874AB
:104A30000120484908700020E2E710B501203F49F5
:104A4000887201213E4800F097FC012804D1022021
:104A50003A49C872012010BD32203849C87200207E
:104A6000F9E710B50121364800F086FC01280CD189
:104A70003C48007848B932203049C87200204FF0D5
:104A8000804148623849086010BDFBF789FF041E69
:104A900001DB204600E0604234490968884208DDB5
:104AA00028480078012804D102202449C872012036
:104AB000EAE714202149C87201202A490870002021
:104AC000E2E710B5FBF7B7FF29490968441A002C43
:104AD00001DB204600E060420A2851DDFBF7ABFF16
:104AE00023490968884203DD00201449887002E0E8
:104AF000012012498870FBF79EFF1D490968441A7E
:104B0000002C01DB204600E060421A49086008469C
:104B10000068FA2801DDFA200860164800680A28B3
:104B200002DA0A2013490860124825E01406002022
:104B30007CFCFFFF3EFEFFFFBAFAFFFF04000020EF
:104B400000100240FD020020240400404C00002020
:104B500008030020FF020020240C00405000002029
:104B60000C030020FE02002048000020100300205B
:104B700028020020000300200078B949C87002E034
:104B80000220B749C87010BD10B5FBF796FEB549B5
:104B90000968441A002C01DB204600E060420A2824
:104BA0002ADDFBF78AFEAF490968884203DD002051
:104BB000AB49887402E00120A9498874FBF77DFEA7
:104BC000A8490968441A002C01DB204600E0604235
:104BD000A549086008460068FA2801DDFA20086047
:104BE000A14800680A2802DA0A209F4908609E4806
:104BF00000789B49C87402E002209949C87410BD2E
:104C000010B5FBF7CDFE99490968441A002C01DB69
:104C1000204600E060420A282ADDFBF7C1FE9349E6
:104C20000968884203DD00208D49887202E0012076
:104C30008B498872FBF7B4FE8C490968441A002C32
:104C400001DB204600E060428749086008460068B2
:104C5000FA2801DDFA200860834800680A2802DA91
:104C60000A2081490860804800787D49C87202E0C6
:104C700002207B49C87210BD09E01120FDF7DAFB64
:104C800001217B4802F056FA0F2003F075FDF4E78E
:104C900019E07848007800F0010020B13C2106209E
:104CA000FFF7C7FC02E00A20FEF754F9FFF709FFFF
:104CB000FFF76AFFFFF7A4FFFEF72FFEFFF72CF9BF
:104CC000032003F059FDE4E706E0FDF7C7FBFEF71C
:104CD000F3FC032003F050FDF7E71FB5FBF716FFC9
:104CE000FBF753FFFCF7A1F9FCF761FAFCF768FB4F
:104CF000FCF7ECFAFCF7DDFBFBF7B2FF4FF4E13019
:104D0000FCF7B7FC4FF4E130FCF73CFD4FF4E13029
:104D1000FCF7C5FD4FF4E130FCF753FE4FF4612082
:104D2000FCF7F3FE4FF4E130FCF78CFFFDF7A2FC3B
:104D300000BFFFF7F9FD08B9012400E00024FFF7E8
:104D40007CFE08B9012000E000200443FFF72FFE9D
:104D500008B9012000E000200443002CE9D100BF85
:104D6000FFF7F6FD08B9012400E00024FFF779FE03
:104D700008B9012000E000200443FFF72CFE08B929
:104D8000012000E000200443002CE9D100203A4932
:104D90000860FDF789F8002000900190029003461A
:104DA0004FF4807235A10390394803F0A6FA002031
:104DB00000900190029003464FF4807235A1039059
:104DC000394803F09AFAFA203849086028E01EE0D2
:104DD000FFF7B3FB364880ED000A2648407800F024
:104DE000020030B92348407800F0040008B1FFF712
:104DF000F1FA2048407800F0020030B91D484078B0
:104E000000F0200008B1FFF763FBFFF718FB19481B
:104E1000007800F001000028DAD11420FEF79AF89B
:104E2000D5E71FB5002000900190029003464FF493
:104E3000807220A10390224803F05FFA00200090C6
:104E40000190029003464FF480721EA10390204807
:104E500003F053FA03F06AFE002004B010BD000016
:104E6000040000202C02002000030020300200205B
:104E70000048004014060020A80000207461736BF5
:104E8000526F626F74416E616C7974696373000074
:104E9000C94C00087461736B446965754B6869653A
:104EA0006E436F4361750000914C000800010020C3
:104EB000A40000207461736B4D61696E00000000F6
:104EC000DB4C00087461736B4779726F000000005F
:104ED000794C00080CB500200190009072480068E1
:104EE00040F480307049086000BF6F48006800F4EB
:104EF000003000900198401C0190009818B901986A
:104F0000B0F5A06FF1D16848006800F4003010B12E
:104F10000120009001E0002000900098012846D177
:104F200061484030006840F080505F49403108607F
:104F30005E48006840F480405C4908605A48083088
:104F400000685949083108600846006840F400408C
:104F500008600846006840F4A05008605448091FE3
:104F60000860081F006840F08070091F086000BFDB
:104F70004D48006800F000700028F9D040F205604C
:104F80004C49086048480830006820F00300464952
:104F9000083108600846006840F00200086000BF61
:104FA00041480830006800F00C000828F8D10CBD1A
:104FB00010B53D48006840F001003B490860002002
:104FC000394908310860384800683B49084036498B
:104FD00008603A48091D0860081F006820F4802016
:104FE000091F0860002030490C310860FFF772FF8C
:104FF0004FF000603249086010BD70B500200022FB
:10500000022300240221284D08352D6805F00C00EC
:1050100020B1042806D0082834D107E0294D2A4EB3
:10502000356033E0294D284E35602FE01E4D2D1D93
:105030002D68C5F380541C4D2D1D2D6805F03F01D2
:1050400054B1224DB5FBF1F5174E361D3668C6F347
:10505000881605FB06F209E01A4DB5FBF1F5124E74
:10506000361D3668C6F3881605FB06F20E4D2D1D5B
:105070002D68C5F301456D1C6B00B2FBF3F5124EB4
:10508000356003E00F4D104E356000BF00BF064D88
:1050900008352D68C5F303150D4E705D0A4D2D685A
:1050A000C540094E356070BD0038024000700040B8
:1050B00008544007003C0240FFFFF6FE1030002479
:1050C00008ED00E00024F4006C03002000127A00D8
:1050D000700300200648804706480047FEE7FEE7C9
:1050E000FEE7FEE7FEE7FEE7FEE7FEE7FEE7FEE798
:1050F000B14F00088901000832490143324A11606A
:10510000704770B5002100230F22C4781CB32E4CC9
:10511000246804F4E064C4F5E064C4F30721C1F139
:105120000404E3B20A4144789C40E1B2847814401C
:1051300021430C07210E254C05786155047804F0B5
:105140001F050124AC4005786D11AD0005F1E02587
:10515000C5F8004109E0047804F01F050124AC40C3
:105160001B4D0678761145F8264070BD194A0A4055
:105170000243154B1B1F1A60704739B1124A121DAA
:1051800012680243104B1B1D1A6006E00E4A121DE6
:10519000126882430C4B1B1D1A607047042808D10B
:1051A0004FF0E021096941F004014FF0E022116164
:1051B00007E04FF0E021096921F004014FF0E022FF
:1051C000116170470000FA050CED00E000E400E01A
:1051D00080E100E080FFFF1F10B504468C48844248
:1051E00008D10121084600F000FB0021012000F059
:1051F000FCFA5EE08748844208D10121022000F0D9
:10520000F4FA0021022000F0F0FA52E082488442D1
:1052100008D10121042000F0E8FA0021042000F068
:10522000E4FA46E07D48844208D10121082000F0DC
:10523000DCFA0021082000F0D8FA3AE078488442ED
:1052400008D10121102000F0D0FA0021102000F038
:10525000CCFA2EE07348844208D10121202000F0CE
:10526000C4FA0021202000F0C0FA22E06E488442F7
:1052700008D10121402000F0B8FA0021402000F0C0
:10528000B4FA16E06948844208D10121802000F078
:10529000ACFA0021802000F0A8FA0AE064488442B9
:1052A00007D10121801500F0A0FA0021A01500F01F
:1052B0009CFA10BDF0B50A4600210023002400BF6F
:1052C0003DE0012505FA01F3156805EA03049C4257
:1052D00034D105684F000326BE40B54305601579FB
:1052E0004E00B5400668354305601579012D02D0A2
:1052F0001579022D16D185684F000326BE40B543AF
:10530000856055794E00B5408668354385604568AF
:1053100001268E40B5434560456896798E40B6B209
:1053200035434560C5684F000326BE40B543C560A0
:10533000D5794E00B540C6683543C560491C102973
:10534000BFD3F0BD4FF6FF710160002101714171C3
:105350008171C171704708B54FF480320092009A94
:105360000A430092009AC261C161009AC261C26997
:105370000092C269009208BD0246002013690B40EA
:105380000BB1012000E0002070470146086980B29F
:1053900070470246002053690B400BB1012000E02A
:1053A000002070470146486980B27047018370470A
:1053B000418370470AB1018300E041837047416136
:1053C000704742694A4042617047F0B500230024AB
:1053D0004D07ED0E02FA05F3CE1000F1200555F849
:1053E00026504E07F70E0F26BE40B543CF1000F1F2
:1053F000200646F82750CE1000F1200555F826501B
:1054000045EA0304CE1000F1200545F82640F0BD22
:10541000000002400004024000080240000C02406C
:10542000001002400014024000180240001C02401C
:1054300000200240FA48006840F00100F849086086
:105440000020F74908310860F5480068F549084030
:10545000F3490860F448091D0860081F006820F43B
:105460008020091F08600020ED490C31086070475A
:105470000021EB4A921C117011460870704710B55C
:1054800001460022002300204A11012A02D1E44CE7
:10549000236808E0022A03D1E14C7034236802E05B
:1054A000DF4C7434236801F01F02012494401C4037
:1054B0000CB1012000E0002010BD38B500200090A4
:1054C0000024002500BF3120FFF7D9FF05460098D2
:1054D000401C00900098B0F5A06F01D0002DF2D0D4
:1054E0003120FFF7CCFF08B1012400E00024204662
:1054F00038BD01460020CA4A106820F0F80040EA92
:10550000C10010607047C949086070470021C44A53
:10551000703211701170012802D004280AD104E001
:105520000121BF4A7032117005E00521BC4A70327A
:10553000117000E000BF00BF7047BD4908607047B0
:1055400070B5049C41EA82150126C6EB530645EA74
:105550000645054345EA0465B14E361D356070BD0C
:10556000B24908667047820142EA0172AC4B84334B
:105570001A607047AD4988667047AC49C864704787
:1055800002460020A64B0833186820F0EC6042EA7F
:1055900001031843A24B08331860704702460020ED
:1055A0009F4B0833186820F0784042EA0103184303
:1055B0009B4B08331860704701460020984A083218
:1055C000106820F0030008431060704794480830CA
:1055D000006800F00C00704701460020904A083235
:1055E000106820F0F000084310607047014600206A
:1055F0008B4A0832106820F4E0500843106070476E
:1056000001460020864A0832106820F4604040EAD3
:10561000C10010607047F0B500210022002402256F
:10562000002602237E4F08373F6807F00C0121B1A6
:10563000042905D0082937D105E07E4F076036E000
:105640007D4F076033E0764F3F1D3F68C7F38056BC
:10565000734F3F1D3F6807F03F036EB1764FB7FBB6
:10566000F3F7DFF8BCC10CF1040CDCF800C0CCF39C
:10567000881C07FB0CF40CE06E4FB7FBF3F7DFF868
:10568000A0C10CF1040CDCF800C0CCF3881C07FBB3
:105690000CF4634F3F1D3F68C7F301477F1C7D003B
:1056A000B4FBF5F7076002E0624F076000BF00BF80
:1056B0005B4F08373F6807F0F00109095F4F7A5CDC
:1056C0000768D7404760564F08373F6807F4E051F6
:1056D000890A5A4F7A5C4768D7408760504F08372D
:1056E0003F6807F46041490B544F7A5C4768D740E4
:1056F000C760F0BD002100F44072B2F5407F0AD1CE
:10570000474A0832116821F4F8114D4A024011430A
:10571000434A08321160424A70321268C0F30B03E8
:105720001A433F4B70331A6070474149443908604F
:1057300070473F49403908607047424908607047E8
:1057400039B1374A303212680243354B30331A6070
:1057500006E0334A303212688243314B30331A60EC
:10576000704739B12E4A3432126802432C4B34331D
:105770001A6006E02A4A343212688243284B3433D6
:105780001A60704739B1264A383212680243244BF6
:1057900038331A6006E0224A383212688243204BBE
:1057A00038331A60704739B11D4A403212680243DB
:1057B0001B4B40331A6006E0194A4032126882439C
:1057C000174B40331A60704739B1154A443212689A
:1057D0000243134B44331A6006E0114A4432126804
:1057E00082430F4B44331A60704739B10C4A103270
:1057F000126802430A4B10331A6006E0084A10325E
:1058000012688243064B10331A607047E1B1044AB4
:10581000143212680243024B14331A6019E000007C
:1058200000380240FFFFF6FE10300024000047421F
:10583000800E47420024F40000127A00800300200A
:10584000FFFCFF0F5C0147425B4A126882435A4BE0
:105850001A60704739B1584A121D12680243564BFC
:105860001B1D1A6006E0544A121D12688243524BF7
:105870001B1D1A60704739B14F4A0C32126802433F
:105880004D4B0C331A6006E04B4A0C3212688243CF
:10589000494B0C331A60704739B1474A10321268CD
:1058A0000243454B10331A6006E0434A1032126837
:1058B0008243414B10331A60704739B13E4A3C3243
:1058C000126802433C4B3C331A6006E03A4A3C32D1
:1058D00012688243384B3C331A60704739B1364AFC
:1058E000403212680243344B40331A6006E0324AB9
:1058F000403212688243304B40331A60704739B1EE
:105900002D4A4432126802432B4B44331A6006E09E
:10591000294A443212688243274B44331A60704745
:1059200039B1254A4C3212680243234B4C331A607A
:1059300006E0214A4C32126882431F4B4C331A60F6
:10594000704739B11C4A5032126802431A4B503327
:105950001A6006E0184A503212688243164B5033E0
:105960001A60704739B1144AD21F12780243124BA1
:10597000DB1F1A7006E0104AD21F127882430E4BCA
:10598000DB1F1A7070470C486030006840F0807070
:10599000094960310860704701460020064A083A0C
:1059A00012680A400AB1012000E000207047024955
:1059B000891F0870704700001438024010B501219B
:1059C0000802FFF769FF00214FF48070FFF764FFC2
:1059D00010BD30B50246002000235068F84C20402E
:1059E0000D790C6844EA0524204350609068F54C1A
:1059F0002040D1E903542C438D682C434D7944EA6F
:105A0000450420439060D06A20F470000C7D641E31
:105A1000E4B2234340EA0350D06230BD002101606C
:105A2000017141718160C16001610121017570479F
:105A30000021E54A1168E54A1140D0E900231A43E4
:105A400083681A43C3681A431143E14AC2F8041336
:105A500070470021016041608160C160704721B1E1
:105A6000826842F00102826003E0826822F0010253
:105A7000826070470A4600214168D64B19401143A5
:105A8000416070474162826270470A460021416866
:105A900021F01F0111434160704738B1CA490968BC
:105AA00041F40001CA4AC2F8041306E0C649096875
:105AB00021F40001C64AC2F80413704738B1C24944
:105AC000096841F48001C24AC2F8041306E0BE49E5
:105AD000096821F48001BE4AC2F804137047F0B58A
