:020000040800F2
:1000000060340020616300084502000847020008D0
:100010004B0200084F0200085302000800000000D5
:100020000000000000000000000000009D0100082A
:100030005702000800000000E10100087B9300085F
:100040007B6300087B6300087B6300087B63000818
:100050007B6300087B6300087B6300087B63000808
:1000600055040008990400087B630008F7020008A3
:10007000D9020008350300087B63000875020008F8
:100080007B630008810200087B6300087B63000833
:100090007B6300087B6300087B6300087B630008C8
:1000A0007B630008710300089D0300087B63000860
:1000B0009F030008CD030008F90300087B630008D4
:1000C0007B6300087B6300087B6300085104000821
:1000D0007B6300085D0200087B6300087B63000807
:1000E0007B6300087B6300087B6300087B63000878
:1000F0007B6300087B6300087B6300081103000832
:100100007B6300087B630008250400085304000893
:100110007B6300087B630008430300084F0300086B
:100120007B6300089B020008AB0200087B630008A9
:100130007B6300087B6300087B6300087B63000827
:100140007B6300087B6300087B6300087B63000817
:10015000CB0200087B6300087B6300087B63000818
:100160007B6300087B6300087B6300087B630008F7
:100170007B6300087B6300087B6300087B630008E7
:100180007B6300087B630008DFF80CD00AF040FCBA
:10019000004800478160000860340020234B196844
:1001A0000868B0E8F04F80F309884FF0000080F352
:1001B000118870470000000003480068006880F361
:1001C000088862B600DF00BF08ED00E0DFF80C0031
:1001D000016841F470010160704700BF88ED00E0E4
:1001E000EFF30980114B1A681EF0100F08BF20EDC5
:1001F000108A20E9F04F106008B54FF0140080F32A
:10020000118809F082FC4FF0000080F31188BDE8EE
:10021000084019680868B0E8F04F1EF0100F08BFDA
:10022000B0EC108A80F30988704700BF9C0400205E
:10023000EFF311804FF0140181F31188704780F3C0
:1002400011887047704700BFFEE700BFFEE700BFA0
:10025000FEE700BFFEE770477047704710B540F2F9
:1002600025518E4808F09DF918B120218B4808F0DF
:100270008FF910BD10B58A498A4807F0C7F810BD3C
:1002800010B589498748303007F096F820B1864983
:100290008448303007F0BAF810BD10B5834984485F
:1002A00007F0B4F801F09AFD10BD10B581498048FF
:1002B000183007F0ABF8804840787F49097840EA69
:1002C000012000B27D49088010BD10B57C497848F6
:1002D000603007F09BF810BD10B57449714848387C
:1002E00007F06AF830B171496E48483807F08EF867
:1002F00000F0A0FA10BD10B572496A48603807F0E6
:100300005BF820B16F496748603807F07FF810BD8F
:1003100010B56D496348483007F04EF848B10021E8
:100320006048483006F09EFF67495E48483007F055
:100330006DF810BD10B55A495A48303807F066F8C4
:1003400010BD10B50121614807F088FE10BD10B541
:1003500001215F4807F082FE7A2050498880012100
:100360005C4808F02DF801215B4808F029F810BD21
:1003700010B50121594807F071FE5848008800F077
:10038000100028B156480068401E5549086004E036
:1003900053480068401C5249086010BD704710B5B2
:1003A0000121880707F05AFE4FF08040008800F0D6
:1003B000100028B14B480068401E4A49086004E01C
:1003C00048480068401C4749086010BD10B501212D
:1003D000454807F043FE4448008800F0100028B16B
:1003E00042480068401E4149086004E03F480068F8
:1003F000401C3E49086010BD10B501213C4807F083
:100400002DFE3B48008800F0100028B139480068F4
:10041000401E3849086004E036480068401C3549F1
:10042000086010BD10B50121334807F017FE3248AF
:10043000008800F0100028B130480068401E2F49A5
:10044000086004E02D480068401C2C49086010BD7D
:100450007047704710B5042007F070F8D8B120211C
:10046000274806F0F4F80421264806F0CBF80128C6
:1004700004D10021164807F071F909E00421214850
:1004800006F0C0F820B9124807F06CF91E49086060
:1004900004201E49086010BD704700000010014094
:1004A0002080002070600240008020200088001022
:1004B0002864024000802010B80600208C00002034
:1004C00000880020208000100080002800100040DC
:1004D00000140040004800400014014000000140AA
:1004E0006C00002070000020000400407400002018
:1004F0000008004088000020000C00407800002028
:1005000000000240000C024068000020143C014042
:1005100070B50446204609F0E1FE05462146FE4836
:1005200009F0E3FEA0B195222146FB4809F0CAFE7E
:100530000021FA4806F096FEF748F8490C310860A9
:10054000F648B838C0F8BC500121F44806F08AFEDD
:1005500070BD70B50446002510E0605D68B1615D56
:10056000EF4807F058FF00BF8021ED4808F003F87E
:100570000028F9D0681CC5B200E070BDEDE770B589
:10058000044600250FE05CB12146E54807F043FF33
:1005900000BF8021E24807F0EEFF0028F9D000E01C
:1005A00070BD681CC5B2032DEDDB00BFF8E713B5C5
:1005B0000C460020FFF7E3FFDAA0FFF7CAFF23464F
:1005C000D9A29621D9480AF06DFAD848FFF7C1FFA1
:1005D000D7A0FFF7BEFFD4A29621D448009B0AF013
:1005E00061FAD248FFF7B5FFD3A0FFF7B2FFFF20B3
:1005F000FFF7C5FFFF20FFF7C2FFFF20FFF7BFFF98
:100600001CBD70B505460C46C6A0FFF7A2FF2246EA
:10061000C5A1C6480AF05EFAC448FFF79AFFC4A015
:10062000FFF797FF2846FFF794FFC3A0FFF791FF5E
:10063000FF20FFF7A4FF70BD77B585B00546FF2604
:10064000BBA103C9CDE90301BBA000680290B5A01E
:100650000068019000240AE00020B8490855B84914
:100660000855B2490855AC490855601CC4B21E2C47
:10067000F2DB0A20AD490870FF2048708870C8700E
:10068000A9A1AF48079A0AF025FAAD4901A809F0D7
:100690000DFE01A9A54809F009FE03A9A34809F028
:1006A00005FE2946A14809F001FE9FA1A448069A2B
:1006B0000AF010FAA2499D4809F0F8FD02A99B48EA
:1006C00009F0F4FDFF209D49087048708870974834
:1006D00009F0ECFD9548FFF71BFF08B070BDF7B5BA
:1006E00084B005460E46FF2791A103C9CDE902015A
:1006F00091A0006801908BA000680090002408E0A1
:1007000000208E4908558E49085588490855601CB7
:10071000C4B20A2CF4DB0A2084490870FF20487018
:100720008870C87080A18648069A0AF0D3F9844977
:10073000684609F0BBFD69467C4809F0B7FD02A98F
:100740007A4809F0B3FD2946784809F0AFFD3146F3
:10075000764809F0ABFD01A9744809F0A7FDFF2018
:1007600076490870487088700020C87008716F481A
:1007700009F09CFD6D48FFF7CBFE07B0F0BD01B559
:100780008EB070A2322101A80E9B0AF08BF901A84D
:10079000FFF7BEFE0FB000BD73B584B00546FF265F
:1007A00063A103C9CDE9020163A0006801905DA0C7
:1007B0000068009000240AE0002060490855604964
:1007C00008555A49085554490855601CC4B21E2C96
:1007D000F2DB0A2055490870FF2048708870C87005
:1007E00051A15748059A0AF075F95549684609F02C
:1007F0005DFD69464D4809F059FD02A94B4809F0D5
:1008000055FD2946494809F051FD4D49474809F031
:100810004DFD01A9454809F049FDFF2047490870F1
:1008200048708870414809F041FD4048FFF770FE6C
:1008300006B070BD1CB54648007845494978084463
:100840004349897808444249C978084440490979AC
:1008500008443F49497908443D49897908443C495D
:10086000C97908443A49097A0844C0B20190384825
:10087000007A00F00F0000909DF800000D2803D0D2
:100880000021344807F09CFD1CBD3148007A00F07F
:100890000F000D2806D12E48007800F0010008B1A5
:1008A0000D2070470020FCE72948007800F0020086
:1008B00008B1012070470020FCE730B52DED048B16
:1008C00083B0254806F04EFF2449096840EA0145F7
:1008D000284609F0A0FE41EC190B9FED210B53ECCB
:1008E000102B09F029FE41EC180B09F0A5FE019030
:1008F00000244DE0184806F035FF1849096840EA21
:100900000145284609F087FE41EC190B9FED140BB9
:1009100053EC102B28E0000012060020B8600240C3
:10092000005000407400000025640000DC0400203A
:100930002E7478743D22000022000000C2050020C1
:100940009A0500206A302E76616C3D256400000017
:10095000F406002000480040000C00407800002011
:100960009A99999999994E4009F0E6FD41EC180B36
:1009700009F062FE0290DDE90121881A002801DBFE
:10098000014600E04142052900DA641C029801900A
:10099000022CAFDB0298404203B0BDEC048B30BDAB
:1009A00030B52DED048B83B04FF0804006F0DAFEB9
:1009B000FE49096840EA0145284609F02CFE41EC51
:1009C000190B9FEDFB0B53EC102B09F0B5FD41EC1F
:1009D000180B09F031FE0190002424E04FF0804014
:1009E00006F0C0FEF149096840EA0145284609F0D1
:1009F00012FE41EC190B9FEDEE0B53EC102B09F09E
:100A00009BFD41EC180B09F017FE0290DDE9012176
:100A1000881A002801DB014600E04142052900DA7E
:100A2000641C02980190022CD8DB029803B0BDEC44
:100A3000048B30BD30B52DED048B83B0DE4806F05D
:100A400091FEDE49096840EA0145284609F0E3FDC8
:100A500041EC190B1FED3E0B53EC102B09F06CFD14
:100A600041EC180B09F0E8FD0190002423E0D24886
:100A700006F078FED149096840EA0145284609F0A8
:100A8000CAFD41EC190B1FED4A0B53EC102B09F07A
:100A900053FD41EC180B09F0CFFD0290DDE9012177
:100AA000881A002801DB014600E04142052900DAEE
:100AB000641C02980190022CD9DB029803B0BDECB3
:100AC000048B30BD30B52DED048B83B0BC4806F0EF
:100AD00049FEBC49096840EA0145284609F09BFDEA
:100AE00041EC190B1FED620B53EC102B09F024FDA8
:100AF00041EC180B09F0A0FD0190002423E0B04860
:100B000006F030FEAF49096840EA0145284609F081
:100B100082FD41EC190B1FED6E0B53EC102B09F00D
:100B20000BFD41EC180B09F087FD0290DDE9012176
:100B3000881A002801DB014600E04142052900DA5D
:100B4000641C02980190022CD9DB0298404203B049
:100B5000BDEC048B30BD01B581B000200090019840
:100B600000EBC0004000009002E00098401E0090A2
:100B700000980028F9D10CBD01B581B0002000908B
:100B800044F2506101984843009002E00098401EF2
:100B9000009000980028F9D10CBD1CB501211F2040
:100BA00005F014FF4FF6FF70009001208DF804004F
:100BB00000208DF8060001208DF8070003208DF835
:100BC00005006946804805F0BBFC4FF6FF700090B9
:100BD00001208DF8040000208DF8060001208DF81A
:100BE000070003208DF805006946784805F0A8FC49
:100BF0004FF6FF70009001208DF8040000208DF862
:100C0000060001208DF8070003208DF805006946D5
:100C10006F4805F095FC1CBD1CB501217E2005F038
:100C2000D5FEC020009000208DF8040001208DF832
:100C3000070002208DF805006946664805F080FC33
:100C40000620009000208DF8040001208DF8070098
:100C500002208DF8050069465B4805F071FC042010
:100C6000009000208DF8040001208DF8070002207C
:100C70008DF805006946554805F062FC1CBD1FB59E
:100C80004FF4E06005F07EFB36208DF80000002078
:100C90008DF801008DF8020001208DF803006846F0
:100CA00005F075FB0121102005F0C3FE3220ADF8E0
:100CB000040040F2E73002900020ADF80C00ADF8DF
:100CC000060001A9444806F000FD0121424807F052
:100CD000C5F901221146404807F098F900213E4825
:100CE00006F03CFD01213C4806F078FD1FBD1FB514
:100CF0004FF4E06005F046FB37208DF8000000203F
:100D00008DF801008DF8020001208DF8030068467F
:100D100005F03DFB0121202005F08BFE3220ADF8CF
:100D2000040040F2E73002900020ADF80C00ADF86E
:100D3000060001A9294806F0C8FC0121274807F050
:100D40008DF901221146254807F060F9002123485A
:100D500006F004FD0121214806F040FD1FBD00B54D
:100D60008BB00121022005F075FE01210C2005F059
:100D70002DFE03220621154805F06DFC03220721F4
:100D8000124805F068FC03220821104805F063FCB6
:100D9000032209210D4805F05EFC4FF470700690A7
:100DA00002208DF81C0003201AE0000070000020D3
:100DB0009A99999999795E4000080040880000202E
:100DC00000040040740000200004024000080240BB
:100DD000000C0240000002400010004000140040DF
:100DE0008DF81D0000208DF81E0001208DF81F00D9
:100DF00006A9FE4805F0A4FBA420ADF8200040F6AB
:100E0000B83009904FF48070ADF828000020ADF89C
:100E1000220008A9F64806F058FC6020ADF804004E
:100E20000120ADF8060000200390ADF8100001216C
:100E3000EF4806F0D3FC0021ED4806F08FFC01A935
:100E4000EB4806F0D7FC01A9E94806F00CFD01A922
:100E5000E74806F055FD01A9E54806F0B7FD012178
:100E6000E34807F0ACF80BB000BD00B58BB0012132
:100E7000082005F0DEFD0121084605F0A7FD02224D
:100E80000021DC4805F0E7FB02220121D94805F0EA
:100E9000E2FB02221146D74805F0DDFB02220321C6
:100EA000D44805F0D8FB0F20069002208DF81C00D6
:100EB00003208DF81D0000208DF81E0001208DF804
:100EC0001F0006A9CB4805F03BFBBA20ADF8200077
:100ED00042F2107009900020ADF82800ADF8220011
:100EE00008A9C54806F0F1FB6020ADF80400012018
:100EF000ADF8060000200390ADF810000121BE48B7
:100F000006F06CFC0021BC4806F028FC01A9BA4898
:100F100006F070FC01A9B84806F0A5FC01A9B64886
:100F200006F0EEFC01A9B44806F050FD0121B248DC
:100F300007F045F80BB000BD00B58BB001210420CF
:100F400005F077FD01210D2005F040FD02220C2166
:100F5000AA4805F080FB02220D21A84805F07BFB82
:100F600002220E21A54805F076FB02220F21A3489C
:100F700005F071FB4FF47040069002208DF81C00C4
:100F800003208DF81D0000208DF81E0001208DF833
:100F90001F0006A9994805F0D3FAA420ADF8200057
:100FA00040F6B83009904FF48070ADF8280000206A
:100FB000ADF8220008A9924806F087FB6020ADF842
:100FC00004000120ADF8060000200390ADF81000E9
:100FD00001218B4806F002FC0021894806F0BEFB87
:100FE00001A9874806F006FC01A9854806F03BFCEC
:100FF00001A9834806F084FC01A9814806F0E6FCBB
:101000000BB000BD00B589B00121080405F022FD38
:101010000121084605F0DAFC03221146754805F067
:101020001AFB03220221734805F015FB0C200190E6
:1010300002208DF8080003208DF8090000208DF8AB
:101040000A0001208DF80B0001A96A4805F078FA22
:101050000020ADF818004FF6FF7007900020ADF8A3
:101060002000ADF81A0006A9664806F02EFB042001
:10107000ADF80C000020ADF80E00C820ADF814004B
:101080000120ADF8100003A95E4806F0F5FE00232C
:101090001A4603215C4807F08CF801215A4806F0F3
:1010A000DDFF01221146584806F0B0FF01215548E6
:1010B00006F094FB0021544806F050FB09B000BD37
:1010C00000B589B00121084605F0B3FC01210220DA
:1010D00005F0AFFC0121032005F078FC01220F216F
:1010E000444805F0B8FA01220321484805F0B3FA54
:1010F00002220421454805F0AEFA022205214348A8
:1011000005F0A9FA3820019002208DF8080003208C
:101110008DF8090000208DF80A0001208DF80B00E1
:1011200001A93A4805F00CFA4FF400400190022062
:101130008DF8080003208DF8090000208DF80A00C2
:1011400001208DF80B0001A92A4805F0F9F90020CB
:10115000ADF818004FF6FF7007900020ADF82000A2
:10116000ADF81A0006A94FF0804006F0AEFA06A9C5
:10117000274806F0AAFA0420ADF80C000220ADF8CA
:101180000E001420ADF814000120ADF8100003A9E2
:10119000800706F071FE03A91D4806F06DFE0223CC
:1011A0001A460321580707F004F802231A460321C0
:1011B000174806F0FEFF0121880706F04FFF0121C6
:1011C000134806F04BFF01221146900706F01EFF60
:1011D000012211460E4806F019FF0121880706F08A
:1011E000FDFA01210A4806F0F9FA13E0000802406E
:1011F0000004014000000240000C0040000C0240CE
:10120000000800400000014000400140000402408E
:101210000004004000214FF0804006F09FFA0021BA
:10122000FE4806F09BFA4FF4C06005F0ABF81D20B5
:101230008DF8000003208DF8010000208DF80200D9
:1012400001208DF80300684605F0A1F81C208DF8F8
:10125000000004208DF8010000208DF8020001201C
:101260008DF80300684605F092F809B000BD00B59E
:1012700089B00121084605F0EDFB0121102005F0A1
:10128000A5FB4FF42060019002208DF80800032098
:101290008DF8090000208DF80A0001208DF80B0060
:1012A00001A9DF4805F04CF901220921DC4805F0CD
:1012B000D2F901220B21DA4805F0CDF90020ADF872
:1012C00018004FF6FF7007900020ADF82000ADF831
:1012D0001A0006A9D34806F0F8F90420ADF80C006E
:1012E0000020ADF80E000A20ADF814000120ADF882
:1012F000100003A9CB4806F0BFFD00231A460321C6
:10130000C84806F056FF0121C64806F0A7FE012294
:101310001146C44806F07AFE0121C24806F09EFE3E
:1013200001221146BF4806F071FE0121BD4806F0BA
:1013300055FA0021BB4806F011FA4FF4C06005F0E1
:1013400021F819208DF8000001208DF801000020FF
:101350008DF8020001208DF80300684605F017F8AB
:1013600009B000BD00B589B00121042005F061FB82
:101370000121082005F02AFB4FF440500190022083
:101380008DF8080003208DF8090000208DF80A0070
:1013900001208DF80B0001A9A34805F0D1F8002029
:1013A000ADF818004FF6FF7007900020ADF8200050
:1013B000ADF81A0006A99D4806F087F902220C2113
:1013C000994805F048F902220D21974805F043F9A4
:1013D0000420ADF80C000220ADF80E00C820ADF8D6
:1013E00014000120ADF8100003A9904806F044FD58
:1013F00002231A4603218D4806F0DBFE01218B48AB
:1014000006F02CFE01221146884806F0FFFD01215E
:10141000864806F0E3F942F21071844806F09EF91E
:1014200000208249143108800120804908804FF44F
:10143000C06004F0A7FF1E208DF8000004208DF886
:10144000010000208DF8020001208DF8030068469D
:1014500004F09DFF09B000BD00B589B0012108204E
:1014600005F0E7FA0121084605F0B0FA03200190E3
:1014700002208DF8080003208DF8090000208DF867
:101480000A0001208DF80B0001A9694805F058F801
:101490000020ADF818004FF6FF7007900020ADF85F
:1014A0002000ADF81A0006A9624806F00EF90222E3
:1014B00000215F4805F0CFF8022201215C4805F0C9
:1014C000CAF80420ADF80C000220ADF80E00C820C8
:1014D000ADF814000120ADF8100003A9554806F03E
:1014E000CBFC02231A460321524806F062FE01217A
:1014F000504806F0B3FD012211464E4806F086FD25
:1015000001214C4806F06AF942F21071494806F090
:1015100025F90020474914310880012045490880F9
:101520004FF4C06004F02EFF32208DF8000004203C
:101530008DF8010000208DF8020001208DF80300D5
:10154000684604F024FF09B000BD00B59BB001213E
:10155000394805F03BFA0121080205F07BFA00202A
:1015600002903648039036480490002005900820E9
:101570000690002007904FF480600890400009908A
:1015800080000A9040110B9040020C9000200D90BA
:1015900001200E9000200F90109002A9294805F01C
:1015A00027FE0121274805F05DFE3C200090032026
:1015B0008DF8040000208DF8070069461C4804F0EF
:1015C000BFFF3C20009003208DF8040000208DF820
:1015D000070069461C4804F0B3FF002011904FF447
:1015E00040301290002013904FF47060149011A8B6
:1015F00005F064FB4FF08070159001208DF85800C5
:101600008DF85900002017901890199008208DF837
:10161000680015A909484C3818E000000004004093
:101620000010024000000140000C02400008004091
:1016300000000240000C0040050040004C2001402A
:10164000A8060020106402400008024005F007FBD5
:10165000042301220221FD4805F087FB0423022216
:101660000321FA4805F081FB042303221946F748B9
:1016700005F07BFB04231A460521F44805F075FBB1
:10168000042305220C21F14805F06FFB04230622F8
:101690000D21EE4805F069FB042307220E21EB48DB
:1016A00005F063FB042308220F21E84805F05DFBE9
:1016B0000121E64805F004FC0121E44805F0F5FBB2
:1016C0000121E24805F011FBE04805F0AAFB1BB040
:1016D00000BD08B54FF4E06004F054FE25208DF8FD
:1016E000000000208DF801008DF8020001208DF827
:1016F0000300684604F04BFE08BD10B596B00446E2
:101700000121102005F0A6F90121084605F05EF937
:101710000121880505F05AF94FF4C06000900220BD
:101720008DF8040000208DF806008DF807000220D7
:101730008DF805006946C64804F002FF072209211A
:10174000C34804F088FF07220A21C14804F083FF40
:1017500002940020ADF80C00ADF80E00ADF81000BA
:10176000ADF814000C20ADF8120002A9B94806F03B
:101770009FFD0121B74806F023FE4FF4A06004F05E
:1017800001FE3A208DF8180000208DF819008DF820
:101790001A0001208DF81B0006A804F0F8FDAE48E1
:1017A00005F084FC4FF00060079000200A90AB48E1
:1017B00009900A200B90A748001D089000200C906B
:1017C0004FF480600D9000200E900F904FF48070C9
:1017D00010904002119004201290032013900020DA
:1017E0001490159007A99C4805F002FD01224021A4
:1017F000984806F092FE01221021974805F0BFFD9F
:101800000121954805F02EFD16B010BD10B596B01B
:1018100004460121480505F0D9F80121480405F0E6
:1018200008F90121082005F0D1F86020009002207D
:101830008DF8040000208DF806008DF807000220C6
:101840008DF805006946864804F07AFE07220521D6
:10185000834804F000FF07220621814804F0FBFEC4
:1018600002940020ADF80C00ADF80E00ADF81000A9
:10187000ADF814000C20ADF8120002A9794806F06A
:1018800017FD0121774806F09BFD4FF4A06004F09E
:1018900079FD11208DF8180000208DF819008DF8C1
:1018A0001A0001208DF81B0006A804F070FD6E4898
:1018B00005F0FCFB4FF00060079040200A906B4859
:1018C000099050200B906748001D089000200C9054
:1018D0004FF480600D9000200E900F904FF48070B8
:1018E00010904002119004201290032013900020C9
:1018F0001490159007A95C4805F07AFC012280211C
:10190000584806F00AFE01228021564806F005FEDE
:1019100001221021544805F032FD0121524805F002
:10192000A1FC16B010BD10B596B004460121880484
:1019300005F07FF80121082005F048F8012148054D
:1019400005F044F84FF44070009002208DF8040038
:1019500000208DF806008DF8070002208DF80500A4
:1019600069463F4804F0ECFD072208213C4804F09A
:1019700072FE072209213A4804F06DFE029400200D
:10198000ADF80C00ADF80E00ADF81000ADF8140085
:101990000C20ADF8120002A9354806F089FC01219F
:1019A000334806F00DFD4FF4A06004F0EBFC0C2072
:1019B0008DF8180000208DF819008DF81A0001200C
:1019C0008DF81B0006A804F0E2FC2748783805F0E3
:1019D0006DFB4FF00060079000200A9025480990A9
:1019E0000A200B902248001D089000200C904FF414
:1019F00080600D9000200E900F904FF4807010903A
:101A000040021190042012900320139000201490A3
:101A1000159007A91448783805F0EAFB0122402107
:101A2000134806F07AFD01224021114806F075FDA9
:101A3000012210210C48783805F0A1FC01210A4848
:101A4000783805F00FFC16B010BD000000200140F2
:101A5000000002400010014040640240B80600202F
:101A6000000C024000440040A0600240040000203E
:101A700000480040F406002010B596B0044601214D
:101A8000C80404F0D6FF0121084604F09FFF01219D
:101A9000480504F09BFF0320009002208DF804000D
:101AA00000208DF806008DF8070002208DF8050053
:101AB0006946F74804F044FD08220021F44804F088
:101AC000CAFD08220121F24804F0C5FD029400205D
:101AD000ADF80C00ADF80E00ADF81000ADF8140034
:101AE0000C20ADF8120002A9EA4806F0E1FB012142
:101AF000E84806F065FC4FF4A06004F043FC0D20BC
:101B00008DF8180000208DF819008DF81A000120BA
:101B10008DF81B0006A804F03AFCDF4805F0C6FA71
:101B20004FF00060079000200A90DC4809900820E0
:101B30000B90D848001D089000200C904FF4806056
:101B40000D9000200E900F904FF480701090400286
:101B500011900420129003201390002014901590EF
:101B600007A9CD4805F044FB01224021C94806F0F1
:101B7000D4FC01224021C74806F0CFFC01221021ED
:101B8000C54805F0FCFB0121C34805F06BFB16B00E
:101B900010BD10B596B004460121480504F016FFAB
:101BA0000121080504F045FF01210C2004F00EFF7F
:101BB0000420009002208DF8040000208DF806001B
:101BC0008DF8070002208DF805006946B44804F03E
:101BD000B7FC4FF48050009002208DF804000020E4
:101BE0008DF806008DF8070002208DF80500694683
:101BF000AC4804F0A5FC08220221A94804F02BFD02
:101C000008220C21A74804F026FD4FF4A06004F040
:101C1000B9FB2F208DF8180005208DF819008DF8DC
:101C20001A0001208DF81B0006A804F0B0FB0294F6
:101C30000020ADF80C00ADF80E00ADF81000ADF8C6
:101C400014000C20ADF8120002A9974806F030FBF2
:101C50000121954806F0B4FB8F48783005F026FA4C
:101C60004FF00060079040200A909048099096201D
:101C70000B908D48001D089000200C904FF4806060
:101C80000D9000200E900F9010904FF400301190A6
:101C9000002012900320139000201490159007A9A3
:101CA0007D48783005F0A4FA012280217E4806F0B4
:101CB00034FC012210217848783005F060FB0121C6
:101CC0007548783005F0CEFA16B010BD10B596B054
:101CD00004460121202004F0BDFE0121042004F06F
:101CE00075FE0121880504F071FEC02000900220DD
:101CF0008DF8040000208DF806008DF80700022002
:101D00008DF805006946674804F01AFC0822062190
:101D1000644804F0A0FC08220721624804F09BFC00
:101D200002940020ADF80C00ADF80E00ADF81000E4
:101D3000ADF814000C20ADF8120002A95C4806F0C2
:101D4000B7FA01215A4806F03BFB4FF4A06004F0BB
:101D500019FB39208DF8180003208DF81900012097
:101D60008DF81A008DF81B0006A804F010FB5148EE
:101D700005F09CF94FF02060079000200A904E4833
:101D8000099006200B904A48001D089000200C90F6
:101D90004FF480600D9000200E900F904FF48070F3
:101DA0001090400211900420129003201390002004
:101DB0001490159007A93F4805F01AFA0122402116
:101DC0003B4806F0AAFB012210213A4805F0D7FA59
:101DD0000121384805F046FA16B010BD36480078A3
:101DE00011280BD1344840783349897840EA0120E2
:101DF000324908600846008831490880704700B5BC
:101E000085B00121082004F0E1FD0121880304F0E0
:101E100021FE00208DF8100001208DF813000C2009
:101E2000039003A91E4804F08BFB0221032006F057
:101E30000DFC0420009000208DF8040010208DF887
:101E4000050001208DF80600684605F011FB08200A
:101E50008DF8080000208DF809008DF80A00012097
:101E60008DF80B0002A804F092FA05B000BD70B521
:101E700004460D46012C27D12946124806F0CBFA1C
:101E800000BF40210F4806F076FB0028F9D044E05F
:101E900000000240004C00404060024087010020EA
:101EA000000C0240000802400050004012060020D2
:101EB00000140140286402408D010020940100209C
:101EC000B800002000100140032C0BD12946FE4829
:101ED00006F0A1FA00BF4021FB4806F04CFB0028A9
:101EE000F9D01AE0042C0BD12946F84806F093FAF1
:101EF00000BF4021F54806F03EFB0028F9D00CE079
:101F0000052C0AD12946F24806F085FA00BF402187
:101F1000EF4806F030FB0028F9D070BD0020ED49F5
:101F20004862ED490860ED490860ED490860704776
:101F30000020E8494862E84908604FF08041486263
:101F4000E8490860E8490860E8490860E349086032
:101F5000E3490860E6490860E649086070470020E8
:101F60004FF080414862DF49086070470020DE4939
:101F70000860DE490860704710B50020DE4908702F
:101F8000002407E061210120FFF771FF3220FEF7F6
:101F9000F3FD641C022CF5D30120D74908707A2088
:101FA000D649087010BD10B50020D549087000242E
:101FB00007E061210320FFF75AFF3220FEF7DCFD26
:101FC000641C022CF5D30120CD4908707A20CD493C
:101FD000087010BD30B59FB005463C22CA4910A814
:101FE00008F040F93C22C8493C3101A808F03AF910
:101FF000002426E010A850F82400A84220DC10A9F4
:10200000601C51F82000A8421ADB01A9601C51F89D
:10201000200051F82410401A10A951F82410691A10
:10202000484310AA611C52F8211052F82420891A42
:1020300090FBF1F001A951F8241008441FB030BD05
:10204000641C0E2CD6DB6320F8E72DE9F14F2DED53
:10205000048BAEB0ADA02D9000202C908DF88800A0
:102060008DF860003298122831D2DFE800F0093193
:102070003A46697081899097B5BCC3C4C5C6C7FC90
:102080000221AB4804F0BEFA88B100224FF40041AF
:10209000A84804F0D5FA4FF40041A64804F0BFFA6E
:1020A000044600222146A4A0FEF7C6FA0FE0012252
:1020B000D103A04804F0C4FA4FF400419D4804F055
:1020C000AEFA044600222146A3A0FEF7B5FA44E288
:1020D0000122A948B0F900004142A8A0FEF7ACFADD
:1020E0003BE20222A74890ED000ABDEEC00A10EEC6
:1020F000101AA5A0FEF7A0FA2FE2A5480068A54A8D
:10210000126810440A3000EE100AB8EEC00A9D486A
:10211000D0ED000A30EE200A10EE101A084608F042
:10212000AAFA41EC180BB0EE480AF0EE680AFFF785
:1021300051FF04460322214697A0FEF77DFA0CE2E8
:1021400004229348016897A0FEF776FA05E29848C2
:1021500090ED000A8B48D0ED000A30EE200ABDEE6B
:10216000C00A10EE101A052292A0FEF765FAF4E1FB
:10217000924890F82F10062291A0FEF75DFAECE14C
:1021800007229248016892A0FEF756FAE5E108227C
:102190009348016893A0FEF74FFADEE14FF08040CC
:1021A00005F0E0FA4F49096840EA0145284608F081
:1021B00032FA41EC190B9FED8E0B53EC102B08F00B
:1021C000BBF941EC180B08F037FA04460922214606
:1021D00089A0FEF731FAC0E10A228A4801688AA084
:1021E000FEF72AFAB9E10B228A4801688AA0FEF7B5
:1021F00023FAB2E1B1E1B0E1AFE1AEE101218948FA
:1022000004F000FA4FF4005117904A4804F0FAF92C
:1022100002211690834804F0F5F94FF4804115909F
:10222000444804F0EFF9042114907E4804F0EAF9E0
:102230004FF4004113907B4804F0E4F90821129018
:10224000784804F0DFF904464FF48041754804F003
:10225000D9F905461021734804F0D4F906464FF425
:102260000051704800E0F9E004F0CCF90821119029
:102270006D4804F0C7F907464FF48051694804F0EF
:10228000C1F980461021684804F0BCF981464FF43A
:102290008061644804F0B6F982468021614804F008
:1022A000B1F983464FF480715E4804F0ABF91090A9
:1022B000DDE91423DDE91610CDE90B23CDE90D107E
:1022C000DDE91201B2E0000000480040004C00408F
:1022D00000500040000001406C0000202408004035
:1022E00088000020700000202404004074000020BA
:1022F000240C004078000020910000209000002075
:10230000930000209200002078D000083131313154
:1023100031313131313131313131313131313131AD
:102320003131303131313131313131310000000062
:102330000004024000080240524F424F5420322015
:1023400044414E4720434841592053414E20584173
:102350004E483A2020200000524F424F5420322055
:1023600044414E4720434841592053414E20444F59
:102370003A202020000000008C000020494D553AF2
:10238000000000004C010020706F776572203A0059
:10239000200300200C0400204C75632042616E3A3B
:1023A000200000004B435F42414E203A20000000D5
:1023B000E00000204C75632042616E0004000020A4
:1023C00054D0204E616E675F68612000A00000203D
:1023D0006C617A655472616956616C7565200000A4
:1023E000B40300204C75755F6C756320000000001D
:1023F0009A99999999795E40456E636F6465725FA9
:1024000030682000B400002042545F584F415920EA
:102410003A000000CC0300204C75635F50726520C9
:102420003A00000000100240000C0240CDE90754C1
:10243000CDE909011198CDE900BACDE90298CDE9BD
:1024400004700696F9A2282122A8109B08F02AFB06
:10245000102222A9FEA0FEF742F97EE08021FD486D
:1024600004F0DDF804460121FA4804F0D8F80546E6
:102470004021F84804F0D3F806464FF40041F648EE
:1024800004F0CDF807464FF48051F44804F0C7F843
:1024900080464FF48061EF4804F0C1F881464FF464
:1024A0000061EE4804F0BBF84FF400611790E94872
:1024B00004F0B5F84FF480611690E74804F0AFF8E7
:1024C0004FF480511590E34804F0A9F84FF40061EF
:1024D0001490E14804F0A3F84FF400511390DD4844
:1024E00004F09DF84FF480411290DB4804F097F817
:1024F00082464FF48041D74804F091F883464FF468
:102500008071D64804F08BF84FF400411190D14807
:1025100004F085F8CDE90B76CDE90D541090DDE996
:102520001601CDE90998CDE90701DDE91223DDE9BE
:102530001410CDE90323CDE905101198CDE901BAB6
:102540000090BAA2282122A8109B08F0ABFA112211
:1025500022A9C3A0FEF7C3F800BF00BF2EB0BDEC98
:10256000048BBDE8F88F10B50121BF4804F07AFE56
:1025700010BD01B5BD4800680099884203DD002008
:10258000BA49086004E0B9480068401CB7490860CF
:10259000B6480068FFF759FD08BD10B5FEF700FA10
:1025A000B3490860FEF746FAB2490860FEF78AFAB6
:1025B000B149086010BD2DE9F0412DED088B0646AC
:1025C0000F46304608F027F841EC190B9FEDAB1B86
:1025D000B0EE490AF0EE690A09F05AF8B0EE408A06
:1025E000F0EE608A51EC180B08F026F80446002C37
:1025F00002DBA4F5E16401E004F5E164384608F08B
:102600000AF841EC1B0B9FED9D1BB0EE4B0AF0EE60
:102610006B0A09F03DF8B0EE409AF0EE609A304651
:1026200007F0F9FF41EC1B0B9FED941BB0EE4B0A3A
:10263000F0EE6B0A09F02CF8B0EE40AAF0EE60AABA
:1026400053EC192B51EC1A0B07F0FEFE41EC180B62
:1026500007F0F2FF05462846211E01DB0A4600E08E
:102660004A42002801DB034600E043429A4205DA71
:1026700025464FF0FF308349086003E035460120CE
:10268000804908602846BDEC088BBDE8F081014612
:10269000FA2901DDFA2102E0042900DC0421C8B294
:1026A000704710B504460B4624B97748007877493F
:1026B000C87116E0764890ED000AB5EEC00AF1EE5A
:1026C00010FA07DD2046FFF7E2FF7049C8710020CD
:1026D000887106E06042FFF7DAFF6C49C87101209B
:1026E000887123B9684800786849C87516E0694858
:1026F00090ED000AB5EEC00AF1EE10FA07DD1846BB
:10270000FFF7C5FF6149C8750120887506E058428A
:10271000FFF7BDFF5D49C8750020887522B95A488A
:1027200000785A49C87316E05B4890ED000AB5EE90
:10273000C00AF1EE10FA07DD1046FFF7A8FF534973
:10274000C8730120887306E05042FFF7A0FF4F498D
:10275000C8730020887310BD504B1860504B19602F
:10276000504B1A607047494AD071D075D07370478A
:102770004648C079032809DA4448C07D032805DAB1
:102780004248C07B032801DA012070470020FCE7A3
:1027900001204549086070474448006847F23051BD
:1027A000884201D0012070470020FCE710B5FFF7F8
:1027B000E3FB10BD3E48B0F9000040427047B5EE63
:1027C000C00AF1EE10FA09D23A48D0ED000A70EED4
:1027D000600AFDEEE00A10EE900A70473548D0ED31
:1027E000000A70EE200AFDEEE00A10EE900AF4E70F
:1027F00010B52DED088B044624B99FED2F0ABDECD2
:10280000088B10BD002C6CDA2C48006807F003FF21
:1028100041EC190B204607F0FEFE41EC1B0B9FED2F
:10282000280B53EC102B07F00FFE4DE025642564B8
:102830002564256425642564256425642564256450
:102840002564256425642564256425640000000052
:10285000493A000000040240000C0240000002401F
:102860004F55543A00000000A06002408400002050
:10287000F8030020FC0300200004002000000000FA
:102880000020AC4084020020E00100200400002071
:10289000480200204C020020500200206C02002060
:1028A0007002002074020020C00200200C020020F0
:1028B0008C000020A001002000000000F801002092
:1028C0009A9999999999B93F41EC1A0B53EC192BA4
:1028D00007F032FE41EC180B07F0E0FE00EE100AA4
:1028E0008DE7FE48006807F096FE41EC190B204684
:1028F00007F091FE41EC1B0B1FED0F0B53EC102B5F
:1029000007F001FD41EC1A0B53EC192B07F014FEF4
:1029100041EC180B07F0C2FE00EE100A6FE7F0EE74
:10292000400AF5EEC00AF1EE10FA02DBB0EE600AE2
:102930007047B1EE600AFBE70146002901DB08465B
:1029400070474842FCE70146E548D0ED000AF1EE49
:10295000600AE448D0ED001A80EEA11A00EE901A49
:10296000F8EEE01ADE48D0ED000A41EE210AB0EEA2
:10297000600AFDEEC00A10EE900A7047F0EE401AB1
:102980009FEDD92AB0EE420AF5EEC01AF1EE10FA28
:1029900003D2B1EE612AF0EE421AF5EEC00AF1EE72
:1029A00010FA03D2B1EE602AF0EE420AB5EEC01A78
:1029B000F1EE10FA03D2B1EE412AB0EE421AF4EE73
:1029C000C01AF1EE10FA01DDB0EE610AF4EEC00AB1
:1029D000F1EE10FA01DDB0EE600AB4EEC01AF1EECD
:1029E00010FA01DDB0EE410A7047BC48006870473C
:1029F000BE480068704710B52DED0A8BF0EE408A96
:102A000018EE900A07F037FE41EC1C0B1FED651B1A
:102A1000B0EE4C0AF0EE6C0A08F03AFEB0EE40BAA6
:102A2000F0EE60BA1FED6B0B53EC102B51EC1B0B4F
:102A300007F069FC41EC1A0B1FED701BB0EE4A0A5F
:102A4000F0EE6A0A08F024FEB0EE409AF0EE609ACA
:102A500051EC190B07F022FE08EE100A9FEDA40AB4
:102A6000B4EEC08AF1EE10FA06DD9FEDA20AB4EED4
:102A7000C08AF1EE10FA0BD3B5EEC08AF1EE10FA6F
:102A80000ADB9FED9D0AB4EEC08AF1EE10FA03D87E
:102A90000120BDEC0A8B10BD9FED980AB4EEC08AF0
:102AA000F1EE10FA01D80220F3E79FED950AB4EE9B
:102AB000C08AF1EE10FA01D80320EAE70420E8E723
:102AC00010B52DED108B8AB0B0EE408AF0EE608A22
:102AD000B0EE419A8B4890ED000A28EE000ADFED37
:102AE0008A0A80EE201A11EE104A204607F0C3FD34
:102AF000CDE908019DED080B08F066FDB0EE40FA47
:102B0000F0EE60FA18EE900A07F0B5FD41EC1E0BEE
:102B100053EC1F2B07F09EFC41EC1C0B07F0BEFD95
:102B20000AEE900A19EE100A07F0A5FDCDE906019C
:102B3000744890ED000A28EE000ADFED730A80EE7B
:102B4000201A11EE104A204607F095FD41EC1E0BAD
:102B5000B0EE4E0AF0EE6E0A09F046FC8DED040B65
:102B600018EE900A07F087FD41EC1C0B9DED040B5D
:102B700053EC102B07F06EFC41EC1F0B9DED060B88
:102B800053EC102B07F0BFFBCDE908019DED080BBE
:102B900051EC100B07F082FD0BEE100A9FED5B0A63
:102BA00038EE400A5748D0ED000A20EE200ADFED4B
:102BB000560A80EE201A11EE104A204607F05BFDFF
:102BC000CDE908019DED080B08F0FEFCB0EE40FADF
:102BD000F0EE60FA18EE900A07F04DFD41EC1E0B86
:102BE00053EC1F2B07F036FC41EC1C0B07F056FD95
:102BF0000BEE900A19EE100A07F03DFD41EC1F0B99
:102C00009FED420A38EE400A3E48D0ED000A20EE21
:102C1000200ADFED3D0A80EE201A11EE104A204610
:102C200007F029FD41EC1E0BB0EE4E0AF0EE6E0AE5
:102C300009F0DAFB8DED040B18EE900A07F01BFD8E
:102C400041EC1C0B9DED040B53EC102B07F002FC28
:102C500053EC1F2BCDE906019DED060B51EC100B3B
:102C600007F051FBCDE908019DED080B51EC100B6D
:102C700007F014FD0DEE100A9FED250A38EE400A0C
:102C80002048D0ED000A20EE200ADFED1F0A80EE7A
:102C9000201A11EE104A204607F0EDFC41EC1E0B05
:102CA000B0EE4E0AF0EE6E0A08F08EFCB0EE40FA7E
:102CB000F0EE60FA18EE900A07F0DDFC41EC1C0B18
:102CC00053EC1F2B07F0C6FBCDE908019DED080B67
:102CD00051EC100B07F0E2FC1CE00000F8010020B2
:102CE000D8010020DC0100206F12833A2802002066
:102CF00000E04445000061450000E14300C0A844F5
:102D000000A00C45EC0100200000E14400009644C6
:102D10000000164509EE900A19EE100A07F0ABFC08
:102D20001FED050A38EE400ACDE90601FE48D0ED58
:102D3000000A20EE200A5FED0C0A80EE201A11EE48
:102D4000104A204607F097FC41EC1E0BB0EE4E0AED
:102D5000F0EE6E0A09F048FBB0EE40CAF0EE60CA31
:102D600018EE900A07F087FC41EC1F0B53EC1C2B6C
:102D700007F070FBCDE904019DED060B53EC102B21
:102D80009DED040B51EC100B07F0BDFACDE90801E5
:102D90009DED080B51EC100B07F080FC0AEE100AB9
:102DA000F0EE6A0AB0EE4B0A08F0E6FA5FED2A0A86
:102DB00020EE200ADC48D0ED000A80EE201ADB4825
:102DC00080ED001ADA480168D84890ED000ABDEE9F
:102DD000C00A10EE100AFFF7EEFB00EE100AB8EE84
:102DE000C00AD24880ED000AD24890ED000AB8EE41
:102DF000C00AD14880ED000ACE48006807F00BFCFD
:102E0000CDE906011BEE100A07F035FC41EC1E0B64
:102E10009FEDCA1BB0EE4E0AF0EE6E0A08F0BCFC45
:102E2000B0EE40FAF0EE60FA1AEE900A07F023FCDA
:102E300041EC1E0B9FEDC11BB0EE4E0AF0EE6E0A88
:102E400008F0AAFC8DED000B53EC1F2B9DED000B41
:102E500051EC100B07F057FACDE902019DED020B82
:102E600009F026FBB0EE40CAF0EE60CA9FEDB50B4C
:102E700053EC102B51EC1C0B07F05EFBCDE9040169
:102E80009DED060B53EC102B9DED040B51EC100B3C
:102E900007F0E0FACDE908019DED080B51EC100BAD
:102EA00007F0FCFBA9490860F0EE6B0AB0EE4D0A92
:102EB00008F062FA5FED6C0A20EE200A9A48D0ED25
:102EC000000A80EE201AA24880ED001AA14801688D
:102ED0009F4890ED000ABDEEC00A10EE100AFFF701
:102EE0006AFB00EE100AB8EEC00A994880ED000AAD
:102EF000904890ED000AB8EEC00A974880ED000AAD
:102F00008C48006807F087FBCDE906011DEE100A2A
:102F100007F0B1FB41EC1E0B9FED881BB0EE4E0A93
:102F2000F0EE6E0A08F038FC8DED020B1BEE900AF5
:102F300007F0A1FB41EC1E0B9FED801BB0EE4E0A8B
:102F4000F0EE6E0A08F028FC8DED000B9DED020BF3
:102F500053EC102B9DED000B51EC100B07F0D3F947
:102F600041EC1C0BB0EE4C0AF0EE6C0A09F0A0FA32
:102F7000B0EE40FAF0EE60FA9FED720B53EC102BBE
:102F800051EC1F0B07F0D8FACDE904019DED060BBB
:102F900053EC102B9DED040B51EC100B07F05AFA7B
:102FA000CDE908019DED080B51EC100B07F076FB05
:102FB0006A490860F0EE690AB0EE4A0A08F0DCF9E6
:102FC0005FEDAF0A20EE200A5748D0ED000A80EEF0
:102FD000201A634880ED001A62480168604890ED4D
:102FE000000ABDEEC00A10EE100AFFF7E4FA00EE88
:102FF000100AB8EEC00A5A4880ED000A4D4890ED1C
:10300000000AB8EEC00A584880ED000A4948006836
:1030100007F001FB41EC1F0B1AEE100A07F02BFB27
:1030200041EC1E0B9FED451BB0EE4E0AF0EE6E0A12
:1030300008F0B2FB8DED000B19EE900A07F01BFBB8
:1030400041EC1E0B9FED3D1BB0EE4E0AF0EE6E0AFA
:1030500008F0A2FBB0EE40CAF0EE60CA9DED000B96
:1030600053EC102B51EC1C0B07F04DF9CDE902018C
:103070009DED020B09F01CFA8DED040B9FED310B59
:1030800053EC102B9DED040B51EC100B07F054FA90
:1030900053EC1F2BCDE906019DED060B51EC100BF7
:1030A00007F0D8F9CDE908019DED080B51EC100BA4
:1030B00007F0F4FA2D4908601AEE100A07F0DBFA5F
:1030C00041EC1F0B9FED1D1BB0EE4F0AF0EE6F0A97
:1030D00008F062FB8DED080B19EE900A07F0CBFAB1
:1030E00041EC1F0B9FED151BB0EE4F0AF0EE6F0A7F
:1030F00008F052FB8DED060B9DED080B53EC102BE9
:103100009DED060B51EC100B07F0FDF841EC1C0B8C
:10311000B0EE4C0AF0EE6C0A09F0CAF9B0EE40EAE3
:10312000F0EE60EA24E00000EC01002054020020F0
:10313000F803002084020020480200200000000064
:103140000000004000000000000034403C0200206D
:1031500058020020FC0300204C0200204002002006
:103160005C020020000400205002002044020020E5
:1031700051EC1E0B07F060FAF7490860F74890ED34
:10318000000ABDEEC00AF64880ED000AF54890ED51
:10319000000AB8EEC00AFFF72EFCF34908600AB037
:1031A000BDEC108B10BDF0EE400AB0EE600ABAEE36
:1031B0000E1AF4EEC10AF1EE10FA04D2BAEE0E1AAB
:1031C000B0EE410A0DE0E94890ED001AF2EE0E1A59
:1031D000B4EEE11AF1EE10FA03DDB2EE0E1AB0EE23
:1031E000410A7047E148D0ED000AF5EEC00AF1EE61
:1031F00010FA06DDD0ED000A70EEC00AC0ED000A3C
:1032000006E0DA48D0ED000A70EE800AC0ED000A50
:10321000D648D0ED000ABAEE0E1AF4EEC10AF1EE6D
:1032200010FA04D2FAEE0E0AC0ED000A0DE0CF4803
:10323000D0ED000AB2EE0E1AF4EEC10AF1EE10FA69
:1032400003DDF2EE0E0AC0ED000A7047C748D0ED6C
:10325000000AF5EEC00AF1EE10FA06DDD0ED000A24
:1032600070EE800AC0ED000A06E0C048D0ED000A0A
:1032700070EEC00AC0ED000ABC48D0ED000ABAEEFC
:103280000E1AF4EEC10AF1EE10FA04D2FAEE0E0AAA
:10329000C0ED000A0DE0B548D0ED000AB2EE0E1AFE
:1032A000F4EEC10AF1EE10FA03DDF2EE0E0AC0ED03
:1032B000000A7047A948D0ED000AF5EEC00AF1EE09
:1032C00010FA06DDD0ED000A70EEC00AC0ED000A6B
:1032D00006E0A248D0ED000A70EE800AC0ED000AB8
:1032E0009E48D0ED000ABAEE0E1AF4EEC10AF1EED5
:1032F00010FA04D2FAEE0E0AC0ED000A0DE097486B
:10330000D0ED000AB2EE0E1AF4EEC10AF1EE10FA98
:1033100003DDF2EE0E0AC0ED000A70478F48D0EDD3
:10332000000AF5EEC00AF1EE10FA06DDD0ED000A53
:1033300070EE800AC0ED000A06E08848D0ED000A71
:1033400070EEC00AC0ED000A8448D0ED000ABAEE63
:103350000E1AF4EEC10AF1EE10FA04D2FAEE0E0AD9
:10336000C0ED000A0DE07D48D0ED000AB2EE0E1A65
:10337000F4EEC10AF1EE10FA03DDF2EE0E0AC0ED32
:10338000000A70477A48D0ED000AF5EEC00AF1EE67
:1033900010FA06DDD0ED000A70EEC00AC0ED000A9A
:1033A00006E07348D0ED000A70EE800AC0ED000A16
:1033B0006F48D0ED000ABAEE0E1AF4EEC10AF1EE33
:1033C00010FA04D2FAEE0E0AC0ED000A0DE06848C9
:1033D000D0ED000AB2EE0E1AF4EEC10AF1EE10FAC8
:1033E00003DDF2EE0E0AC0ED000A70476048D0ED32
:1033F000000AF5EEC00AF1EE10FA06DDD0ED000A83
:1034000070EE800AC0ED000A06E05948D0ED000ACF
:1034100070EEC00AC0ED000A5548D0ED000ABAEEC1
:103420000E1AF4EEC10AF1EE10FA04D2FAEE0E0A08
:10343000C0ED000A0DE04E48D0ED000AB2EE0E1AC3
:10344000F4EEC10AF1EE10FA03DDF2EE0E0AC0ED61
:10345000000A704710B52DED068BB0EE408A0020B3
:103460004449086018EE100A07F005F941EC1A0B00
:103470009FED410B53EC102B06F0ECFF41EC190BC8
:1034800007F00CF908EE900A3648006847F2305110
:1034900088420FD1B2EE040A28EE000A384880EDC7
:1034A000000A90ED001ADFED370A9FED360AFFF7AC
:1034B00007FB24E03448006834490968401A294968
:1034C0000968081A00EE100AB8EEC00A304880ED0C
:1034D000000A304890ED000AF2EE080A20EE200AB9
:1034E000274880ED000A90ED001A2B4890ED000A65
:1034F000F8EEC00A264890ED000AFFF7E1FAB5EEB3
:10350000C08AF1EE10FA5CD01648006847F23051DC
:10351000884256D0134890ED000AB8EEC00AFFF773
:103520006AFA012806D002280DD0032836D00428D4
:1035300046D13CE0B0EE680AFFF7BCFEB0EE680A88
:10354000FFF784FE3CE0B0EE680AFFF74FFFB0EEF5
:10355000680AFFF7AFFE33E060020020400200205F
:10356000640200200C0200206802002044020020B7
:103570003C020020CC020020333333333333D33FBB
:10358000A8020020000000003002002018020020E5
:103590009801002020020020FC010020B0EE680A03
:1035A000FFF7BCFEB0EE680AFFF71CFE08E0B0EEC5
:1035B000680AFFF7E7FEB0EE680AFFF747FE00BFB4
:1035C00000BFFA4890ED001AF948D0ED000AF9481A
:1035D00090ED000AFFF7D2F9F748D0ED000AF8EEB7
:1035E000E00A80EE801ABDEEC10AF44880ED000AC0
:1035F000F3480068F1490968884203DDEF48006834
:10360000EF4908600120EF490860BDEC068B10BD52
:103610000121ED4A11600021EC4A1160EC4908607B
:10362000D8B90021E64A11601FED2A0AE94981ED67
:10363000000A47F23051E84A1160E84A11601FED74
:103640002F0AE74981ED000A0021E64A1160E64AA7
:103650001160E64A1160E64A1160704710B5E04813
:1036600090ED000AB5EEC00AF1EE10FA05D1DD4882
:10367000006810B9DC48006890B11FED3E0AD848D8
:1036800080ED000A0020D7490860D7490860D94872
:103690000068D9490860D24890ED000AFFF7DAFEC9
:1036A00010BDD648C0ED000AD54880ED000A70472D
:1036B00070B52DED028B05460C46B0EE408AC6482B
:1036C0000068A8420BD1C1480068A04207D1C14898
:1036D00090ED000AB4EE480AF1EE10FA18D0BB489B
:1036E0000460B748006810B90520B5490860C148B2
:1036F0000068C1490860B74880ED008AB648056097
:103700000020C0490860B64890ED000AFFF7A2FE0D
:10371000BDEC028B70BD70B52DED028B0446B0EE92
:10372000408A0D46B0480068A0420BD1AC4890EDED
:10373000000AB4EE480AF1EE10FA03D1A948006875
:10374000A84237D0A448006847F23051884222D1BD
:1037500028209E49086007209949086047F23050A8
:10376000844218DA0120A1490860B5EEC08AF1EE62
:1037700010FA03DD9F480068A04208DCB5EEC08A5D
:10378000F1EE10FA07D29B480068A04203DAB1EECE
:10379000480AB0EE408A9448046092480560904818
:1037A00080ED008A0020974908608D4890ED000A5E
:1037B000FFF750FEBDEC028B70BD10B52DED028BF6
:1037C000B0EE408A04462146B0EE480A47F2305037
:1037D000FFF7A1FFBDEC028B10BD01208A490860F4
:1037E0004FF4617089490860894908608949086017
:1037F000B5EEC00AF1EE10FA06DD012086498871A7
:1038000000208875887305E00020834988710120B5
:1038100088758873FDEEC00A10EE900A002801DB5F
:10382000014600E041427C4AD171FDEEC00A10EE33
:10383000900A002801DB014600E04142764AD1753A
:10384000FDEEC00A10EE900A002801DB014600E000
:103850004142714AD173704770B504460D461FED61
:10386000B70A29462046FFF723FF70BD10B52DED9E
:10387000088BF0EE408A0446B0EE608AB0EE419AC2
:10388000564890ED000AB8EEC00AB4EE680AF1EEB0
:1038900010FA0DD14D480068A04209D1524890ED70
:1038A000000AB8EEC00AB4EE480AF1EE10FA5ED093
:1038B000BDEEE80A494880ED000A4E4991ED000A44
:1038C000B8EEC00A38EEC00ABDEEC00A10EE100A0B
:1038D0001FEDD40A2146FFF7EBFE4648D0ED000A63
:1038E000F8EEE00A78EE600AB0EE600AFFF717F82B
:1038F000DFED4A0AB4EEE00AF1EE10FA14DD3D48BD
:1039000090ED000AB8EEC00AB4EEC08AF1EE10FAEB
:1039100002DDB0EE490A01E0B1EE490A10EE101ADC
:10392000084606F0A8FE13E0324890ED000AB8EE13
:10393000C00A38EE400A10EE101A084606F09BFE48
:1039400041EC1B0B9FED360B53EC102B06F082FD68
:1039500041EC1A0B06F0A2FE09EE900A0021B0EE2F
:10396000690AFDEEC80A10EE900AFFF7D4FEBDEC1E
:10397000088B10BD10B51D48006801287DDD1A496F
:1039800009681C4A1268881AFEF7D6FF05284BDA28
:10399000164801680068401C144A1060B1F5FA7FAF
:1039A0006BDD0020FFF734FE10BD00004402002054
:1039B000400200203C0200209C0100200002002068
:1039C000F8010020F0010020CC020020FC010020C2
:1039D00004020020240200200C020020100200201B
:1039E00020020020F4010020140200202802002000
:1039F000C00200203002002018020020D801002060
:103A0000DC01002008020020C80200206C02002017
:103A100070020020740200200400002000004842D0
:103A2000FCA9F1D24D62403FFB480068FA2808DD4E
:103A30000520FA490860FA490860FB20F649086049
:103A400004E00520F5490860F5490860F54800687C
:103A5000F5490968884206DDBFEE000AF34880EDAB
:103A6000000A05E009E0B7EE000AF04880ED000A20
:103A7000EE4890ED000AFFF7EDFC00BF10BD10B559
:103A80002DED028BEA4890ED000AB5EEC00AF1EE8A
:103A900010FA0BD1E248006840B1E348006847F2F1
:103AA0003051884202DAE348006810B1BDEC028B65
:103AB00010BDE1490968DB4A1268881AFEF798FED2
:103AC000B0EE408AFFF7C6FC00BFEFE700B5D24872
:103AD0000068022815DA9FEDD90AD54880ED000A62
:103AE0009FEDD60AD14880ED000A0020D449086035
:103AF00047F23050D3490860D34908600020CA49D2
:103B00000860D2480068401CD0490860D049096864
:103B1000884204DACF480068FEF725FE0EE0CC4864
:103B20000068CA490860CC48006820B1C9480068EC
:103B3000FEF719FE02E00020FEF715FE00BDC34AA5
:103B40001268521CC14B1A60824207DDB44A1268E7
:103B50000A44B34B1A600022BC4B1A60704770B520
:103B6000FEF728FEAF490860FFF704FFAB48006886
:103B7000002821DDAA480068A8490968884229D0A0
:103B8000A7480068A549096888420EDAA448006879
:103B9000B249096888421DDAA1480068FEF7D3FEE1
:103BA00004460121FFF7CBFF14E04FF0FF31AC4892
:103BB0000068FFF7C4FF0DE099480068002806DDA3
:103BC0004FF0FF31A7480068FFF7B9FF02E0FFF7A9
:103BD0007DFF70BDA448006892490968884205D0FD
:103BE000FFF74DFF8F4800689F4908609F480068B5
:103BF000E8B38B48D0ED000AF8EEE00A9C4890ED5F
:103C0000001A60EE810AB0EE600AFEF7D8FD0446A5
:103C10008348D0ED000AF8EEE00A964890ED001ACD
:103C200060EE810AB0EE600AFEF7C9FD05467C48E9
:103C3000D0ED000AF8EEE00A8F4890ED001A60EE31
:103C4000810AB0EE600AFEF7BAFD06462246294612
:103C5000FEF727FD894890ED000ABDEEC00A10EE80
:103C6000102A874890ED000ABDEEC00A00E00AE085
:103C700010EE101A834890ED000ABDEEC00A10EE57
:103C8000100AFEF769FD00BFA3E7DFED6C2AB0EE76
:103C9000620ADFED7D2AF0EE620ADFED7C2AB0EEEB
:103CA000621AF1EE002AF0EE621AF7EE002AB0EE88
:103CB000622A7748D0ED002AF8EEE22A72EEC12A95
:103CC00082EEA13AF0EE602A43EE022AB0EE620ADA
:103CD0000068B0F5F57F0BDBFDEEC02AF8EEE22AB6
:103CE000B0EE620AF1EE082A70EE222AB0EE620A05
:103CF000684880ED000A704710B56748C079C8B1C0
:103D000066480068B0B96648006866490968884234
:103D100010DA65480068B0F5167F0BDB6048006874
:103D2000401C5F4908604FF47A7005F06BFE01207B
:103D30005E4908605C480068B0F5167F0DDC5B48A2
:103D40000068012809D15A480068574908600120D5
:103D500005F058FE0120514908604F48C079D0B1A4
:103D60004E480068012816D14D4800684D49096841
:103D7000884210DD4C480068B0F5167F0BDB4848E0
:103D80000068401E464908604FF47A7005F03AFE1C
:103D900001204849086044480068B0F5167F0DDCF2
:103DA00044480068012809D1434800683E4908603A
:103DB000012005F027FE0220384908603648C07906
:103DC00070B13648006801280AD1344800680228DA
:103DD00006D14FF494703249086000202F490860E2
:103DE00010BD10B532480068404333490968324A73
:103DF000126801FB02004100304800682F4A126837
:103E000000FB1214E11704EB9171881006F003FC1B
:103E10002B4A03C210BD000028020020FC01002034
:103E2000F8010020300200201402002020020020AF
:103E300024020020CC020020180200200000000014
:103E4000F40100200C0200201002002008020020D3
:103E5000E4010020E0010020C00200200002002058
:103E6000380200200402002034020020F00100206B
:103E700044020020400200203C0200205C0200209E
:103E800058020020540200200000BC420080DA43A7
:103E900028030020E0000020F40600209C030020FE
:103EA0003001002038010020A0000020A0030020E5
:103EB000A8030020A4030020AC03002098030020E6
:103EC0005003002010B52DED108B84B0FE48006823
:103ED000FE4909680844FE490968441804EBD47196
:103EE000481006F098FBFB4A03C2F948006806F048
:103EF00092FB41EC180BF648006806F08CFB41EC95
:103F00001C0BF44890ED000B53EC102B51EC1C0BE8
:103F100006F09DFA41EC1A0BEC48006806F07BFBBA
:103F200041EC1E0BEB4890ED000B53EC102B51ECC9
:103F30001E0B06F08CFA41EC1C0BE348006806F0FF
:103F40006AFB41EC1F0BE34890ED000B53EC102B88
:103F500051EC1F0B06F07BFA41EC1E0BDD4890ED97
:103F6000000B53EC102B51EC1E0B06F073FA41ECD6
:103F70001D0B53EC1C2B06F06DFA41EC1B0B53ECA4
:103F80001A2B06F067FA41EC190BB0EE490AF0EE75
:103F9000690A08F08DFA8DED000B9FEDCF0B53EC05
:103FA000102B9DED000B51EC100B06F053FA53EC67
:103FB000182BCDE902019DED020B51EC100B06F020
:103FC000BBFAC74A03C2C74890ED000B53EC102B55
:103FD000C34890ED000B51EC100B06F0ADFAC24A4D
:103FE00003C2C14890ED000B06F0B6FDBF4880ED5E
:103FF000000B9FEDBF0B53EC102B90ED000B51EC21
:10400000100B06F027FA41EC180B9FEDBB0B53EC9D
:10401000102B06F091FABA4A03C204B0BDEC108B23
:1040200010BD10B50821B74802F0ECFA012800D104
:1040300000BF10BD10B50821B24802F0E3FA012814
:1040400004D1B1480068B149086003E0AF48006896
:10405000AD49086010BD5FED870AB0EE600A00EE62
:10406000900AB8EEE01ADFEDAA1AC1EE210A9FED20
:10407000A91A60EE810AB0EE600ADFEDA70AB4EE7D
:10408000E00AF1EE10FA04DDDFEDA30AB0EE600AFB
:104090000AE0DFEDA20AB4EEE00AF1EE10FA03D274
:1040A000DFED9E0AB0EE600AFDEEC00A9C49C1ED4C
:1040B000000A9C4981ED000A704700B502460023C2
:1040C00040F21320824205DB40F27620824201DC7E
:1040D000012338E0B2F5027F05DB40F2192082426D
:1040E00001DC02232FE0B2F5FC7F04DDB2F5FF7F97
:1040F00001DC032327E0B2F5017F05DD40F20A2051
:10410000824201DC04231EE040F21A20824204DBDA
:10411000B2F5077F01DA052315E040F2272082423D
:1041200004DBB2F50C7F01DC06230CE0B2F50C7F5A
:1041300005DD40F23A20824201DC072303E010460D
:10414000FFF789FF00BD012B05D19FED770A754868
:1041500080ED000A00E000BF00BF00BFF2E7734837
:1041600001680068401C714A1060642907D27048D9
:10417000C0887049096808446E4908600BE06D48C2
:1041800000686421B0FBF1F06B49086000206749CA
:10419000086068490860694801680068401C674A0F
:1041A0001060642907D2624880896549096808441B
:1041B000634908600BE0624800686421B0FBF1F0DD
:1041C0006049086000205D4908605D4908605E48FC
:1041D00001680068401C5C4A1060642907D254489A
:1041E00000895A4909680844584908600BE0574853
:1041F00000686421B0FBF1F0554908600020524985
:10420000086052490860534801680068401C514AE0
:104210001060782907D2464840894F490968084408
:104220004D4908600BE04C4800687821B0FBF1F084
:1042300035490860002047490860474908604748F9
:1042400001680068401C454A1060322907D238488E
:104250000088434909680844414908600BE0404828
:1042600000683221B0FBF1F03E49086000203B4974
:1042700008603B4908603C4801680068401C3A4AB5
:104280001060322907D22A488088384909680844D2
:10429000364908600BE0354800683221B0FBF1F088
:1042A00033490860002030490860304908603148CF
:1042B00001680068401C2F4A1060322962D21C48F5
:1042C00080882D49096859E0A8030020AC0300202C
:1042D0009803002040030020000000000000004080
:1042E00048030020500300206003002058030020F2
:1042F0000000000000806640182D4454FB21094056
:104300006803002000100240A0000020D803002015
:1043100000801D440000BE420000164300004842D9
:10432000D0030020D400002000009242100400209E
:10433000A806002014040020980000201804002083
:104340001C0400209C0000202004002024040020E5
:10435000A4000020280400202C04002030040020A9
:1043600034040020A8000020380400203C04002071
:10437000B400002040040020440400200844F9490F
:1043800008600BE0F74800683221B0FBF1F0F64915
:1043900008600020F5490860F2490860704701B5DF
:1043A000F348407800F0020068B1F148407800F02E
:1043B000200040B19DF80000EE4981F82F00012057
:1043C00081F82E0016E0EA48407800F0020068B15B
:1043D000E748407800F0040040B19DF80000E5494E
:1043E00081F82F00002081F82E0003E00220E1492F
:1043F00081F82F0008BD10B50821DF4802F002F94E
:1044000038B94620DB4981F8230081F8270081F87C
:104410002B000020D74981F82200012081F82600D6
:10442000002081F82A0043F6982005F0EBFA0122DB
:10443000D102D24802F004F94FF4FA5005F0E2FA42
:104440000020CC4981F8230081F8270081F82B0057
:10445000012081F82200002081F82600012081F847
:104460002A000022C102C54802F0EAF810BD10B5CA
:104470000821C14802F0C6F870B9C14890ED000AA1
:10448000BCEEC00A10EE100AC0B2BA4981F82B0087
:1044900081F8270081F823000020B64981F8220026
:1044A000012081F82600002081F82A0043F2C8206C
:1044B00005F0A8FA0122D102B04802F0C1F842F298
:1044C000107005F09FFA0020AA4981F82B0081F8AE
:1044D000270081F8230000224FF40061A74802F072
:1044E000AFF800224FF48041A64802F0A9F810BDB1
:1044F000A54890ED000ABDEEC00AA44880ED000A70
:10450000704710B5012251039C4802F099F84FF40E
:10451000AF709E490860002410E006E0FCF7C4F983
:1045200000B109E0012005F06DFA4FF48071924866
:1045300002F068F80028F1D000BF641C642CECDBAA
:1045400041F6583005F05EFA0122D1028D4802F0A2
:1045500077F84FF4FA7005F055FA00224FF4006135
:10456000864802F06DF800240FE006E0FCF79CF9A5
:1045700000B108E0012005F045FA01217E4802F073
:1045800041F80028F2D000BF641C642CEDDB00244D
:104590000FE006E0FCF788F900B108E0012005F023
:1045A00031FA0121744802F02DF80128F2D000BF41
:1045B000641C642CEDDB4FF42F7005F023FA00220D
:1045C0004FF400616F4802F03BF800240FE006E072
:1045D000FCF76AF900B108E0012005F013FA0121A7
:1045E000654802F00FF80028F2D000BF641C642C6C
:1045F000EDDB40F2DC5005F005FA0122D1025F4804
:1046000002F01EF84FF47A7005F0FCF900224FF426
:1046100000515A4802F014F800240FE006E0FCF7BD
:1046200043F900B108E0012005F0ECF9802152487F
:1046300001F0E8FF0028F2D000BF641C642CEDDB21
:1046400010BD10B55248006850B90122D1024B4844
:1046500001F0F6FF00224FF40051484801F0F0FF4E
:104660004B480068012810D101224103434801F062
:10467000E7FF4FF48071404801F0C4FF28B10022E9
:104680004FF400613D4801F0DBFF4148006802281B
:104690000DD101228102394801F0D2FF00224FF4EE
:1046A0000051364801F0CCFF0020394908603848F5
:1046B000006803280ED108212F4801F0A3FF20B97C
:1046C000012251032D4801F0BBFF0122D1022B48EA
:1046D00001F0B6FF10BD10B52548407800F002008B
:1046E00098B92348407800F0040070B102E01E2021
:1046F00005F088F91E48407800F004000028F6D143
:1047000023480068401C2249086010BD10B53E20B7
:10471000184981F8230081F8270081F82B00012037
:1047200081F82200002081F82600012081F82A006B
:1047300040F2DC5005F066F910BD01B50C48407838
:1047400000F0010068B10A48407800F0100040B164
:104750009DF80000074981F83300012081F83200FC
:104760002FE017E044040020B000002040040020A7
:10477000F406002004000020001002400004024063
:10478000D4000020000C0240D80000203C01002092
:1047900008030020F848407800F0010068B1F648AE
:1047A000407800F0080040B19DF80000F34981F81E
:1047B0003300002081F8320003E00220EF4981F845
:1047C000330008BD01B5EC48407800F0200040B14E
:1047D0009DF80000E94981F83700002081F8360093
:1047E00017E0E548407800F0040070B11021E4487B
:1047F00001F008FF012808D19DF80000DF4981F889
:104800003700012081F8360003E00220DB4981F8FF
:10481000370008BD10B5D848407800F00200C8B194
:10482000D548407800F02000A0B10120D5490860AB
:104830000020D54908604FF49670D44908600020E4
:10484000D3490870FE20CD4981F83700012081F856
:10485000360042E0C848407800F0020050B3C64835
:10486000407800F0040028B34FF4C470C9490860D0
:1048700006E0FCF719F800B10EE0012005F0C2F8DF
:10488000C5490968C34A1268881A002801DB014635
:1048900000E041420229ECDC00BF40F29A30BB4903
:1048A00008600020BA490870B44981F8370081F8DF
:1048B000360012E0B5480068B0F5667F0DDBB248FF
:1048C000006850B9B5480068B0F5657F05DB002089
:1048D000AC4908600120AC49086010BDAB480068D5
:1048E000B0F5957F03DA4FF49570A8490860A748A2
:1048F000006840F21241884202DD0846A349086080
:10490000A6490968A14A1268881A002801DB0146F5
:1049100000E0414205296BDD9D490978002967D1F6
:104920009E490968994A1268881A002801DB0146E5
:1049300000E0414201EB4101994A1160974800684B
:104940009249096888423BDD01208C4981F82E009C
:1049500092480068B0F5FA7F20DB92480068B428DE
:1049600017DA914908780978491C8F4A1170C117E4
:1049700000EB5171C910A0EBC10151B98948006821
:10498000401C8849086008460068B42801DBB42050
:104990000860844800688249086023E0002081495B
:1049A00008607F480068C82802DDC8207C4908608C
:1049B0007B480068502815DA50207949086011E0DA
:1049C00000206E4981F82E0075480068502802DDED
:1049D000502073490860724800680A2802DA0A20E9
:1049E0006F4908606E480078644981F82F0006E03E
:1049F0000520624981F82F0001206549087061484F
:104A0000006818B900205D4981F82F00704761489F
:104A1000006866490968884203DA644800685D49AD
:104A200008605C48006862490968884203DD6048A4
:104A300000685849086058490968564A1268881A37
:104A4000002801DB014600E0414204292FDD5248E5
:104A5000006850490968884204DD0020474981F810
:104A6000320003E00120454981F832004A490968D3
:104A7000484A1268881A002801DB014600E04142DA
:104A8000C900474A116010460068FA2802DDFA2082
:104A90001146086042480068322802DA3220404954
:104AA00008603F480078354981F8330003E0022070
:104AB000324981F83300704710B52F48407800F034
:104AC0000200A0B12C48407800F0040078B12F48D3
:104AD000006840F21241884209DA2C480068401C04
:104AE0002A4908604FF47A7004F08CFF17E02248DE
:104AF000407800F0020090B11F48407800F020009C
:104B000068B122480068B0F5957F08DD1F4800684D
:104B1000401E1E4908604FF47A7004F073FF10BD08
:104B20001548407800F0020020B31348407800F0A8
:104B30000800F8B1174800681D49096888423BDA47
:104B400001201C4908600C48407800F0010020B1A9
:104B500046200A4981F8330003E01420074981F810
:104B600033000120054981F832000B4800680949EB
:104B700008604EE020E00000F40600200400002061
:104B80000010024040010020440100203C010020B0
:104B90007003002030010020B4000020A800002095
:104BA000E4030020C003002048040020340100205A
:104BB000380100207C010020FE48407800F002000F
:104BC00020B3FC48407800F01000F8B1FA480068C3
:104BD000FA490968884219DD0120F9490860F54859
:104BE000407800F0010020B14620F64981F83300FA
:104BF00003E01420F34981F833000020F14981F8E3
:104C00003200F1480068EC49086002E00020EC49FD
:104C10000860704710B5044600219FEDEC0A20465D
:104C2000FEF779FD10BD10B50821E94801F0EAFC56
:104C300000283ED1E7480068B0F5617F39DB9B2052
:104C4000E04981F8230081F8270081F82B0000203B
:104C500081F82200012081F82600002081F82A0036
:104C600042F2107004F0CEFE0122D102DA4801F0C7
:104C7000E7FC42F2107004F0C5FE0020D14981F833
:104C8000230081F8270081F82B0081F82200012001
:104C900081F82600002081F82A0000224FF40061EC
:104CA000CD4801F0CDFC00224FF40051CA4801F07C
:104CB000C7FC10BD10B5BF48007800F0800048B1B7
:104CC00002E01E2004F09EFEBA48007800F080004A
:104CD0000028F6D1C1480068401CC049086010BDDA
:104CE000B448407800F0020060B9B248407800F063
:104CF000100038B1BA480068BA490860B248006884
:104D0000B94908607047B9480068012818D1AE4910
:104D10000968B74A1268881A002801DB014600E0DA
:104D20004142B44A116010460068032808DDB248C9
:104D300090ED000AF7EE000A30EE600A80ED000AFE
:104D4000704701B59B48407800F0020068B199486F
:104D5000407800F0080040B19DF80000994981F8C2
:104D60003300012081F8320016E09248407800F0CC
:104D7000020068B18F48407800F0100040B19DF803
:104D80000000904981F83300002081F8320003E0F0
:104D900000208C4981F8330008BD10B50D208949E9
:104DA00081F82B0081F8270081F82300012081F889
:104DB0002200002081F82600012081F82A0000202E
:104DC0008E49086015E008E0FFF7AAFEFBF76CFDCE
:104DD00000B108E0012004F015FE08217C4801F034
:104DE00011FC0128F0D000BF84480068401C8349B2
:104DF0000860824800686428E5DB42F2107004F025
:104E000001FE00206F4981F8230081F8270081F816
:104E10002B00012081F82200002081F826000120CB
:104E200081F82A00FE2081F83700012081F8360041
:104E30007349086010BD10B50D20624981F82B0040
:104E400081F8270081F82300012081F8220000204A
:104E500081F82600012081F82A0042F2283004F06F
:104E6000D1FD002411E008E0FFF75AFEFBF71CFD1E
:104E700000B108E0012004F0C5FD0821544801F00C
:104E8000C1FB0028F0D000BF641C642CEBDB0020C9
:104E90004C4981F8230081F8270081F82B0001207C
:104EA00081F82200002081F82600012081F82A00E4
:104EB000FE2081F83700012081F83600FFF710FF4F
:104EC00010BD3C48407800F00200B0B93948007885
:104ED00000F0020088B10A203A4981F82B0081F8DD
:104EE000270081F82300012081F82200002081F8AA
:104EF0002600012081F82A0007E00020314981F8CE
:104F00002B0081F8270081F82300704710B529484D
:104F1000807918B308212E4801F074FB01281DD1B7
:104F20000020284981F8230081F8270081F82B0010
:104F3000012081F82200002081F82600012081F85C
:104F40002A0000224103244801F07AFB2320214952
:104F5000086000202B4908602B49086010BD1548E7
:104F6000007800F0800020B1FE20164981F837005B
:104F700003E00020134981F8370070472DE9F0471E
:104F80002DED088B06460F464FF07D09A6F17D08F2
:104F9000A7F17D04204605F03EFB41EC1A0B40468C
:104FA00005F039FB41EC1B0BB0EE4A1AF0EE6A1A21
:104FB0002CE00000F4060020300100203401002025
:104FC0007C01002004000020B4000020CDCC4C3E29
:104FD000001002403C0100200004024004030020B5
:104FE000A0000020200300202403002080030020D4
:104FF0007403002084030020E000002078010020DA
:10500000B80300204401002040010020B0EE4B0A0C
:10501000F0EE6B0A06F0B8F8B0EE409AF0EE609A47
:105020009FEDFC0B53EC102B51EC190B05F012FA11
:1050300041EC180B05F000FB0546002D01DA05F5E3
:105040006165F648056008FB08F104FB041005F0F3
:10505000E2FA41EC190BB0EE490AF0EE690A07F0EA
:1050600027FAB0EE408AF0EE608A51EC180B05F09A
:10507000E3FAEB490860BDEC088BBDE8F08710B59A
:105080000821E84801F0BEFA002845D1E64890ED35
:10509000000ABCEEC00A10EE100AE44981F82300B1
:1050A000E14890ED000ABCEEC00A10EE100A81F84B
:1050B0002700DD4890ED000ABCEEC00A10EE100A91
:1050C00081F82B00002081F82200012081F82600C1
:1050D000002081F82A0043F6982004F093FC002079
:1050E000D24981F83600FE2081F8370042F2107074
:1050F00004F088FC0020CD4981F8230081F82700C6
:1051000081F82B0081F82200012081F82600002080
:1051100081F82A0081F8370010BD10B5C4484078E6
:1051200000F0020088B9C248407800F0080060B181
:10513000BD4890ED000AF7EE000A30EE200A80ED3F
:10514000000A4FF4FA6004F05DFCB948407800F0C2
:10515000020088B9B648407800F0040060B1B24857
:1051600090ED000AF7EE000A30EE600A80ED000ACA
:105170004FF4FA6004F046FC10BDAD48407800F0F2
:10518000800080B10D20A94981F82B0081F827000B
:1051900081F82300012081F82200002081F82600F8
:1051A000012081F82A00704700B5A2480068401F1E
:1051B000A1490860FEF769FDA04890ED000A9A48F1
:1051C000D0ED000A30EE200ABCEEC00A10EE100A44
:1051D000C0B2964981F82B0081F8270081F823009E
:1051E000002081F82200012081F82600002081F8AB
:1051F0002A0000BD10B508218A4801F003FAD8B989
:10520000FEF743FD8B4909688D4A12681144A1F1EC
:105210001E00FCF7DFFEC0B2844981F82B0081F844
:10522000270081F82300002081F82200012081F866
:105230002600002081F82A0010BD10B50821794809
:1052400001F0E0F9D0B97B4800687B490860FEF7BF
:105250001CFD79480068FCF7BDFEC0B2734981F8B7
:105260002B0081F8270081F82300002081F822001C
:10527000012081F82600002081F82A0010BD10B519
:105280000821684801F0BEF9D0B96A4800686A4947
:105290000860FEF7FAFC68480068FCF79BFEC0B2A5
:1052A000624981F82B0081F8270081F82300002053
:1052B00081F82200012081F82600002081F82A00D0
:1052C00010BD5B48007800F0020068B1002057492B
:1052D00081F82B0081F8270081F8230059490860E4
:1052E000594908605449086070475148407800F0B7
:1052F000020050BB4E48407800F0100028B34A48E6
:1053000090ED000ABCEEC00A10EE100A474981F881
:105310002300454890ED000ABCEEC00A10EE100ACA
:1053200081F82700404890ED000ABCEEC00A10EE5C
:10533000100A81F82B00002081F82200012081F85A
:105340002600002081F82A000FE00020374981F86C
:10535000230081F8270081F82B0081F8220001202A
:1053600081F82600002081F82A00704730484078F4
:1053700000F0020060B92E48007800F0020038B159
:10538000FE202A4981F83700012081F8360005E027
:105390000020264981F8370081F83600704701B5B2
:1053A0002348407800F002002149497801F00801C3
:1053B000084440B19DF800001C4981F833000120E9
:1053C00081F8320016E01A48407800F002001849CF
:1053D000497801F01001084440B19DF800001349DC
:1053E00081F83300012081F8320003E002200F49E8
:1053F00081F8330008BD01B50D48407800F0200069
:1054000020B39DF80000094981F82F00012081F8A0
:105410002E002DE08B38D690A9E78140C4030020F0
:10542000C8030020001002404C01002004000020AE
:10543000F40600202003002028030020E0000020C4
:105440000C04002080030020DC030020FC4840788E
:1054500000F0040040B19DF80000FA4981F82F00E7
:10546000002081F82E0003E00720F64981F82F0084
:1054700008BD00B501460022B1F5C57F09DDB1F5D3
:10548000C77F06DC01229FEDF00AF04880ED000A9C
:1054900023E1B1F5C77F09DDB1F5C97F06DC022242
:1054A0009FEDE90AE94880ED000A16E1B1F5C97FF0
:1054B00009DDB1F5CB7F06DC03229FEDE50AE34869
:1054C00080ED000A09E1B1F5CB7F09DDB1F5CD7FB3
:1054D00006DC04229FEDDE0ADC4880ED000AFCE0D9
:1054E000B1F5CD7F09DDB1F5CF7F06DC05229FED5B
:1054F000D90AD64880ED000AEFE0B1F5CF7F09DD8B
:10550000B1F5D17F06DC06229FEDD30ACF4880EDAE
:10551000000AE2E0B1F5D17F09DDB1F5D37F06DC09
:1055200007229FEDCD0AC94880ED000AD5E0B1F50C
:10553000D37F09DDB1F5D57F06DC08229FEDC60AD1
:10554000C24880ED000AC8E0B1F5D57F09DDB1F5AC
:10555000D77F06DC09229FEDC00ABC4880ED000A17
:10556000BBE0B1F5D77F09DDB1F5D97F06DC0A22B2
:105570009FEDB90AB54880ED000AAEE0B1F5D97FDC
:1055800009DDB1F5DB7F06DC0B229FEDB40AAF48E5
:1055900080ED000AA1E0B1F5DB7F09DDB1F5DD7F2B
:1055A00006DC0C229FEDAD0AA84880ED000A94E0CD
:1055B000B1F5DD7F09DDB1F5DF7F06DC0D229FED62
:1055C000A80AA24880ED000A87E0B1F5DF7F09DD77
:1055D000B1F5E17F06DC0E229FEDA20A9B4880ED2B
:1055E000000A7AE0B1F5E17F09DDB1F5E37F06DC81
:1055F0000F229FED9D0A954880ED000A6DE0B1F500
:10560000E37F09DDB1F5E57F06DC10229FED970A07
:105610008E4880ED000A60E0B1F5E57F09DDB1F567
:10562000E77F06DC11229FED920A884880ED000A90
:1056300053E0B1F5E77F09DDB1F5E97F06DC122221
:105640009FED8B0A814880ED000A46E0B1F5E97FC5
:1056500009DDB1F5EB7F06DC13229FED850A7B485F
:1056600080ED000A39E0B1F5EB7F09DDB1F5ED7FA2
:1056700006DC14229FED7D0A744880ED000A2CE0C0
:10568000B1F5ED7F09DDB1F5EF7F06DC15229FED69
:10569000790A6E4880ED000A1FE040F20E20814238
:1056A00009DB001D814206DC16229FED720A674865
:1056B00080ED000A11E040F21320814209DBB1F5D0
:1056C000067F06DA17229FED6C0A604880ED000A1B
:1056D00003E00846FEF7D9FA00BD00BFFCE710B5AD
:1056E0005748407800F0100000284DD0634800680B
:1056F00000BB0821624800F085FFD8B9614890EDF1
:10570000000ABCEEC00A10EE100AC0B24D4981F882
:105710002B0081F8270081F82300002081F8220067
:10572000012081F82600002081F82A000120534939
:1057300008601AE051480068012816D1002041494C
:1057400081F83600FE2081F8370042F2107004F034
:1057500059F900203B4981F82B0081F8270081F896
:10576000230081F837004549086006E0FBF79CF804
:1057700000B108E0012004F045F93148407800F01C
:1057800010000028F2D100BF10BD10B52C480078E1
:1057900000F0800000283ED0FE202A4981F8370022
:1057A000002081F8360041F6583004F02BF9002033
:1057B000244981F8370081F82200012081F8260071
:1057C000002081F82A0081F8230081F8270081F861
:1057D0002B002D4908602D4908602D4908602D488F
:1057E00000682D49086000202C490860174890ED9A
:1057F000000A2448D0ED000A30EE200ABDEEC00AAF
:10580000274880ED000A114890ED000ABDEEC00A5D
:10581000244880ED000A10BDF7B52DED028B4FF442
:10582000E16414269FED200AB0EE408A0448007916
:1058300032283BDB02480079962837DC012036E02D
:10584000F40600200400002000007042E000002068
:10585000000074420000784200007C420000804258
:105860000000A8420000AC420000AE420000B0427E
:105870000000B2420000B4420000B8421C03002005
:10588000001002404C01002080030020740300201F
:10589000B80300200C040020BC030020DC0300201F
:1058A000B4030020CC0300200000000000200546C7
:1058B0000020FA490860FA48007800F00800A8B90A
:1058C000F748007800F0100080B9F548007800F043
:1058D000200058B9F248007800F0400030B92DB1EE
:1058E0001E20FDF795FEBDEC028BFEBDEC48407816
:1058F00000F0010030B19DF81060B0EE000AB0EE8B
:10590000408A0FE0E648807930B19DF80C60B7EE30
:10591000000AB0EE408A05E09DF808609FEDE10ABC
:10592000B0EE408ADE48007800F0080098B1DC480C
:10593000007800F0100070B9D948007800F020001D
:1059400048B9D748007800F0400020B9604231469D
:10595000FDF782FFB5E0D248007800F00800A0B95A
:10596000CF48007800F0100078B1CD48007800F002
:10597000200050B9CA48007800F0400028B9C4F5AA
:10598000E1603146FDF768FF9BE0C548007800F014
:105990000800A0B9C248007800F0100078B9C048EB
:1059A000007800F0200050B1BD48007800F04000C1
:1059B00028B9C4F561703146FDF74EFF81E0B84863
:1059C000007800F00800A0B9B548007800F0100099
:1059D00078B9B348007800F0200050B9B04800789A
:1059E00000F0400028B1B049081B3146FDF734FFF4
:1059F00067E0AB48007800F00800A0B1A848007844
:105A000000F0100078B9A648007800F0200050B1EE
:105A1000A348007800F0400028B9C4F5E170314691
:105A2000FDF71AFF4DE09E48007800F00800A0B195
:105A30009B48007800F0100078B99948007800F091
:105A4000200050B99648007800F0400028B19749EE
:105A5000081B3146FDF700FF33E09148007800F065
:105A60000800A8B98E48007800F0100080B18C487A
:105A7000007800F0200058B18948007800F040001C
:105A800030B940F24651081B3146FDF7E5FE18E0FB
:105A90008348007800F0080098B98148007800F049
:105AA000100070B17E48007800F0200048B97C48B2
:105AB000007800F0400020B17D49081B3146FDF719
:105AC000CBFE7748007800F00800A8B97448007849
:105AD00000F0100080B97248007800F0200058B93A
