:020000040800F2
:10000000A8340120D93D0008390200083B0200084D
:100010003D0200083F020008410200080000000005
:10002000000000000000000000000000A101000826
:100030004302000800000000E5010008216D0008EF
:10004000F33D0008F33D0008F33D0008F33D0008D0
:10005000F33D0008F33D000855040008F33D000897
:1000600053040008F33D0008F33D0008EF020008C8
:10007000C90200085D030008F33D0008690200089A
:10008000F33D00083B030008F33D0008F33D000882
:10009000F33D0008F33D0008F33D00085B04000851
:1000A000F33D0008A1030008CD030008F33D00085C
:1000B000CF030008EF0300080F040008F33D000819
:1000C000F33D0008F33D0008F33D00084F0400082D
:1000D000F33D000849020008F33D0008F33D000825
:1000E000F9050008F33D0008F33D0008F33D000862
:1000F000F33D0008F33D0008F33D0008110300083C
:10010000F33D0008F33D00082F04000851040008E7
:10011000F33D0008F33D0008670300089903000859
:10012000F33D00087102000879020008F33D000861
:10013000F33D0008F33D0008F33D0008F33D0008DF
:10014000F33D0008F33D0008F33D0008F33D0008CF
:10015000BF020008F33D0008F33D0008F33D00082E
:10016000F33D0008F33D0008F33D0008F33D0008AF
:10017000F33D0008F33D0008F33D0008F33D00089F
:10018000F33D0008F33D0008DFF810D007F09EFAB9
:1001900000480047D33B0008AFF30080A83401209B
:1001A000224B19680868B0E8F00F80F30988BFF3A4
:1001B0006F8F4FF0000080F311884EF00D0E7047E6
:1001C0000000000006480068006880F3088862B6F6
:1001D00061B6BFF34F8FBFF36F8F00DF00BF00BF6B
:1001E00008ED00E0EFF30980BFF36F8F0F4B1A6843
:1001F00020E9F00F106008B54FF0500080F311882F
:10020000BFF34F8FBFF36F8F05F06CFE4FF0000010
:1002100080F31188BDE8084019680868B0E8F00F5D
:1002200080F30988BFF36F8F704700BF8001002003
:10023000EFF30580704700007047FEE7FEE7FEE73A
:10024000FEE770477047704710B5ED4C40F22551FE
:10025000204605F026FB002805D02046BDE81040CA
:10026000202105F01BBB10BDE649E74804F02BBC7C
:10027000E649E74804F027BCE54810B5E5491830E1
:1002800004F021FCE448417A0D2905D0BDE8104076
:100290000021DB4805F044BA4178027841EA0221A6
:1002A000DE4A1180C178827841EA0221DC4A11805D
:1002B0004179007941EA0020DA49088010BDD4482C
:1002C000D949603004F0FFBB70B5CF4DCF4C483DED
:1002D0002146284604F0D4FB002807D021462846B2
:1002E00004F0F1FBBDE8704000F085BB70BD70B557
:1002F000C54DCE4C603D2146284604F0C1FB002888
:1003000005D021462846BDE8704004F0DCBB70BD36
:1003100070B5BD4CC64D48342946204604F0B0FBAC
:10032000002809D00021204604F01FFB2946204662
:10033000BDE8704004F0C7BB70BD70B5B24DBD4C98
:1003400030352146284604F09BFB002805D0214685
:100350002846BDE8704004F0B6BB70BDAA48A94964
:10036000303804F0B0BB10B50121B34805F077F880
:10037000B2480078A24CA08002F055FF0121B0489D
:1003800005F0CEF90121AF4805F0CAF92046BDE8D5
:100390001040012105F0C4B90121AB4805F05FB858
:1003A00010B5AA4C0121204605F04DF800280CD0CC
:1003B0000121204605F053F82088C106A4480168B1
:1003C00001D5491E00E0491C016010BD704710B501
:1003D00001218C07204605F042F82088C1069D487F
:1003E000016801D5491E00E0491C016010BD10B52F
:1003F000994C0121204605F032F82088C106974823
:10040000016801D5491E00E0491C016010BD10B50E
:10041000934C0121204605F022F82088C10691481E
:10042000016801D5491E00E0491C016010BD10B5EE
:100430008D4C0121204605F012F82088C1068B481A
:10044000016801D5491E00E0491C016010BD7047DC
:1004500070477047012004F0B5BB2DE9F05F4FF401
:10046000807B834D5C465946284603F0E5FD0746F0
:100470004FF4007A5146284603F0DEFD064620215F
:100480007C4803F0D9FD0546204604F09BFB7A4CDE
:100490004FF0000948B3012F03D0B6B3012E38D076
:1004A00020E0DFF8A481404604F076FC73490A6836
:1004B00002EB421202EB42021044714A1060C1F892
:1004C00000900021404604F063FC012E01D026B1CB
:1004D00008E03DB92068401C03E0012D02D12068EE
:1004E000401E2060584604F07BFBD346504604F083
:1004F00069FBDFF890814FF0010A90B3012E0BD019
:1005000098F80000012812D01BE0FFE7012DE1D090
:10051000E8E7002DE3D0E5E74B4804F03DFCC8F8E0
:10052000100088F800A087B1012F13D016E04648CC
:1005300004F032FCD8F81020801AC8F8080088F8B7
:100540000090012F1AD0E7B108E0012D06D12068F4
:10055000401C02E015B92068401E2060584604F097
:100560003FFB202004F02EFB002838D0012D0BD0BB
:1005700098F801004546012811D018E0002DE6D07A
:10058000ECE7012DE7D0E9E72F4804F005FCC8F8B7
:10059000140088F801A0012F0DD087B114E02A487B
:1005A00004F0FAFB6969401AE86085F8019087B1A8
:1005B000012F11D008E03EB92068401C03E0012E55
:1005C00002D12068401E2060BDE8F05F202004F0CA
:1005D00007BB012EF0D0F7E7002EF2D0F4E7BDE81C
:1005E000F09F284948688A68824200D98868CA68AA
:1005F000824200D9C86870474FF4004004F0E2BA64
:10060000001001402080002070600240008800102F
:10061000286402400080201098030020220000205F
:100620005401002056010020008800202080001086
:1006300000800028008020200010004020000020C2
:100640000048004000140140001400400000014038
:10065000B8000020BC00002000040040C0000020C2
:1006600000080040C4000020000C0040C80000202A
:1006700000080240001002405801002050010020F4
:100680004C0100200000002070B5054606F0A4FBD8
:1006900004462946FB4806F0A6FB002816D0952202
:1006A0002946F84806F08CFBF74D0021284604F057
:1006B0005CF9F548F349B838C0F8C410C0F8BC403C
:1006C0002846BDE87040012104F04FB970BD70B5F7
:1006D000EE4D06460024315D00290BD0284605F07A
:1006E00045F88021284605F0D2F80028F9D0641C8E
:1006F000E4B2F0E770BD70B5E44E05460024002D6D
:100700000DD02946304605F031F88021304605F0FD
:10071000BEF80028F9D0641CE4B2032CEFD370BDFE
:1007200013B50C460020FFF7E6FFD9A0FFF7CFFF77
:10073000D4482346D7A29621E63807F011F8D148CD
:10074000E638FFF7C4FFD4A0FFF7C1FFCD48D1A220
:100750009621E638009B07F003F8CA48E638FFF711
:10076000B6FFCFA0FFF7B3FFFF20FFF7C4FFFF20C6
:10077000FFF7C1FFBDE81C40FF20BCE770B5054690
:100780000C46C3A0FFF7A3FFBE482246C1A1E6382E
:1007900007F000F8BB48E638FFF799FFBEA0FFF767
:1007A00096FF2846FFF793FFBDA0FFF790FFBDE837
:1007B0007040FF209FE777B5B7A185B00646D1E925
:1007C0000001CDE90001B6A0002200680390B0A0AE
:1007D000AC4D0068283DA5F128030290A94C1146B4
:1007E000A3F19600A95499548154A154521CD2B239
:1007F0001E2AF7D30A210170FF2444708470C4704C
:10080000A048A4A15038079A06F0C4FF9D4902A849
:10081000503906F0C9FA9B4802A9E63806F0C4FA36
:1008200098486946E63806F0BFFA96483146E638F9
:1008300006F0BAFA934897A15038069A06F0AAFF34
:1008400090495039A1F1960006F0AEFA8D4803A9FF
:10085000E63806F0A9FA8B492C706C702839AC7018
:10086000A1F1BE0006F0A0FA8648E638FFF70CFFBB
:1008700008B070BD2DE9F741884687A185B00646CE
:10088000D1E90001CDE9000185A0002200680390B4
:100890007FA07C4D0068283DA5F1280102901446F8
:1008A000A1F19600AC548C548454521CD2B20A2A42
:1008B000F8D30A210170FF2747708770C77071480D
:1008C00074A15038079A06F065FF6E4902A85039A6
:1008D00006F06AFA6B4802A9E63806F065FA69483C
:1008E0006946E63806F060FA66483146E63806F0B2
:1008F0005BFA64484146E63806F056FA614803A9B7
:10090000E63806F051FA2F706F705E49AF70EC70E8
:1009100028392C71A1F1BE0006F046FA5948E63894
:10092000FFF7B2FE08B0BDE8F08101B58EB05DA260
:10093000322168460E9B06F013FF6846FFF7A4FEBF
:100940000FB000BD73B554A184B00646D1E90001D3
:10095000CDE9000152A00022006803904CA0494D4F
:100960000068283DA5F128030290464C1146A3F1EA
:100970009600A95499548154A154521CD2B21E2AF3
:10098000F7D30A210170FF2444708470C4703D487D
:1009900040A15038059A06F0FDFE3A4902A85039A8
:1009A00006F002FA374802A9E63806F0FDF93548A4
:1009B0006946E63806F0F8F932483146E63806F07E
:1009C000F3F930495039A1F1960006F0EDF92D48C0
:1009D00003A9E63806F0E8F92A492C706C7028392A
:1009E000AC70A1F1BE0006F0DFF92648E638FFF74B
:1009F0004BFE06B070BD2DE9FC412248F130017874
:100A00004278C4781144827813191944037919443F
:100A10004379194483791944C3790B44017A8DF8D9
:100A200004100B44DBB20093407A984201D10D29A7
:100A300009D09DF804000D2866D0BDE8FC410021D6
:100A40001B4804F06DBEC2F17F0006F04DFC054668
:100A5000A4F1810006F048FC044615F0FF4F4FF06A
:100A60007E5000D1054614F0FF4F00D104462846C1
:100A700006F054FC0746204606F050FC002F19DB18
:100A80003A4618E0CA020020B86002400050004018
:100A900074000000256400002E7478743D2200006C
:100AA000220000006A302E76616C3D256400000053
:100AB000004800407A42011E00DA4142114401EB35
:100AC000D1714910FE4EB164002800DA404232284C
:100AD00006DA380000D57842322801DA002012E028
:100AE000204606F053FC07460C46284606F04EFC0E
:100AF0003A46234607F086FB4FF00042F14B06F0E2
:100B0000FBFA06F024FC7064BDE8FC81EE48017A33
:100B10000D2904D10078C00701D00D2070470020B6
:100B2000704701B581B0019800EBC0004000009013
:100B3000002801D0401EFAE70CBD01B581B044F297
:100B40005061019848430090002801D0401EFAE708
:100B50000CBD1CB501210F2003F0D6FB4CF68040E4
:100B600000906946D94803F001FA4FF40340009021
:100B70006946D74803F0FAF941F6031000900120C6
:100B80008DF8040000218DF806108DF80700032071
:100B90008DF805006946CF4803F0E8F94FF6C170BB
:100BA00000906946CC4803F0E1F91CBD1CB5012159
:100BB000162003F0A9FB00208DF8040001208DF819
:100BC000070002208DF805004FF4C04000906946F0
:100BD000BF4803F0CBF9032000906946BB4803F0FF
:100BE000C5F94FF2FF5000906946BC4803F0BEF9CA
:100BF0001CBD1FB54FF4E06003F000F936208DF8FE
:100C00000C0002208DF80D008DF80E0001208DF8EB
:100C10000F0003A803F0F7F80121102003F092FB66
:100C20003220ADF8000040F2E73001900020AC4CDB
:100C3000ADF80800ADF802006946204604F066F8F9
:100C40000121204604F00BFC01221146204604F04D
:100C5000E6FB0021204604F09BF80121204604F029
:100C6000CDF81FBD1FB54FF4E06003F0C7F8372083
:100C70008DF80C0000248DF80D408DF80E400120F9
:100C80008DF80F0003A803F0BEF80121202003F027
:100C900059FB3220ADF80000ADF80840ADF8024035
:100CA0006320904C01906946204604F02FF8012102
:100CB000204604F0D4FB01221146204604F0AFFB8D
:100CC0000021204604F064F80121204604F096F843
:100CD0001FBD70B58AB00121042003F033FB012150
:100CE0000D2003F011FB794E02220C21304603F057
:100CF000C6F902220D21304603F0C1F902220E216D
:100D0000304603F0BCF902220F21304603F0B7F958
:100D10004FF47040059002208DF8180003208DF8E4
:100D2000190000248DF81A4001258DF81B5005A9E3
:100D3000304603F01BF9A420ADF81C0028026A4ECF
:100D40000890ADF82400ADF81E4007A9304603F026
:100D5000DDFF7020ADF80000ADF802500294ADF850
:100D60000C400121304604F049F80021304604F0DF
:100D70000FF86946304604F04BF86946304604F0F7
:100D800073F86946304604F0ABF86946304604F023
:100D9000E1F80AB070BD2DE9F04701218AB008469C
:100DA00003F0D0FA0121022003F0CCFA0121032044
:100DB00003F0AAFADFF81C9101220F21484603F044
:100DC0005EF9DFF8148101220321404603F057F950
:100DD00002220421404603F052F902220521404636
:100DE00003F04DF902268DF80460032738208DF8B2
:100DF0000570002400908DF8064001258DF80750FD
:100E00006946404603F0B2F88DF80460E8038DF8B7
:100E1000057000908DF806408DF8075069464846E9
:100E200003F0A4F84FF6FF70ADF80C4004904FF0BB
:100E30008049ADF81440ADF80E4003A9484603F0D0
:100E400065FFDFF8A8A003A9504603F05FFF4FF04D
:100E500004081420ADF81880ADF82000ADF81A6031
:100E6000ADF81C5006A9484604F00AFA06A95046F7
:100E700004F006FA02231A460321484604F069FBEF
:100E800002231A460321504604F063FB0121484621
:100E900004F0E5FA0121504604F0E1FA012211467E
:100EA000484604F0BCFA01221146504604F0B7FA55
:100EB0000121484603F0A2FF0121504618E000003E
:100EC00098000020A9E78140BB030020000C0240ED
:100ED00000080240000002400004024000100240EE
:100EE00000100040001400400008004000040040D2
:100EF00003F084FF0021484603F04AFF00215046DA
:100F000003F046FF780202F079FF1D208DF80800FB
:100F10008DF809708DF80A408DF80B5002A802F088
:100F200072FF1C208DF808008DF809808DF80A40AA
:100F30008DF80B5002A802F066FF0AB0BDE8F087FA
:100F40002DE9F04101218AB0084603F005FA01219C
:100F5000102003F0D9F94FF4206000904FF0020800
:100F600003208DF8048000248DF805008DF80640DC
:100F700001258DF807506946FE4F384602F0F6FF0E
:100F80004FF6FF70FC4EADF808400390ADF81040EE
:100F9000ADF80A4002A9304603F0B8FE012209214B
:100FA000384603F06CF801220B21384603F067F84D
:100FB0000427C820ADF81470ADF81C00ADF81680F9
:100FC000ADF8185005A9304604F05AF902231A4624
:100FD0000321304604F0BDFA0121304604F03FFA07
:100FE00001221146304604F01AFA0121304603F07E
:100FF00005FF0021304603F0CBFEB48235804FF46C
:10100000C06002F0FBFE19208DF820008DF82170E1
:101010008DF822408DF8235008A802F0F4FE0AB0A3
:1010200081E42DE9F0418AB00121042003F08AF91E
:101030000121082003F068F94FF440500226009087
:101040008DF8046003208DF805000024CB4F8DF847
:10105000064001258DF807506946384602F086FFA4
:101060004FF6FF70DFF81883ADF808400390ADF835
:101070001040ADF80A4002A9404603F047FE0222A4
:101080000C21384602F0FBFF02220D21384602F007
:10109000F6FF0427C820ADF81470ADF81C00ADF8B9
:1010A0001660ADF8185005A9404604F0E9F802238F
:1010B0001A460321404604F04CFA0121404604F050
:1010C000CEF901221146404604F0A9F9012140461B
:1010D00003F094FE0021404603F05AFEA848143065
:1010E0000480A8F800504FF4C06002F087FE1E2074
:1010F0008DF820008DF821708DF822408DF8235056
:1011000008A802F080FE8AE72DE9F0418AB00121AB
:10111000082003F017F90121084603F0F5F8032031
:1011200002268DF804608DF805000024954F00908C
:101130008DF8064001258DF807506946384602F0C3
:1011400015FF4FF6FF70DFF84082ADF808400390BE
:10115000ADF81040ADF80A4002A9404603F0D6FDB4
:1011600002220021384602F08AFF0222012138467D
:1011700002F085FF0427C820ADF81470ADF81C00FC
:10118000ADF81660ADF8185005A9404604F078F89F
:1011900002231A460321404604F0DBF901214046B0
:1011A00004F05DF901221146404604F038F90121AE
:1011B000404603F023FE0021404603F0E9FD72485B
:1011C00014300480A8F800504FF4C06002F016FEFE
:1011D00032208DF820008DF821708DF822408DF896
:1011E000235008A802F00FFE19E7F0B59BB00121CB
:1011F000664803F089F801210D02284603F0ACF897
:1012000063480024CDE90040624802A90E2781E826
:101210009100A800CDE90540400007908000CDE98D
:1012200008050AA90001012581E831005A4E0D94F4
:10123000694630460E9403F05FFB0121304603F00F
:1012400094FBFC2003260F908DF840608DF84340FE
:101250000FA94C4802F08AFE30020F908DF84060D2
:101260008DF843400FA94D4802F080FE3F200F90BB
:101270008DF840608DF843400FA9494802F076FE92
:101280003004CDE91740199417A81A9403F039F9DE
:1012900011941394149415943D4C8DF848504C3C83
:1012A0008DF849508DF8587011A9204603F0FEF8CA
:1012B000072301220221204603F06DF907230222B1
:1012C0000321204603F067F9072303220421204667
:1012D00003F061F9072304220521204603F05BF99E
:1012E000072305220621204603F055F9072306228D
:1012F0001946204603F04FF907231A4608212046D5
:1013000003F049F9072308220921204603F043F995
:10131000072309220A21204603F03DF907230A2268
:101320000B21204603F037F907230B220C2120461E
:1013300003F031F907230C220D21204603F02BF98D
:1013400007230D220E21204603F025F907230E2244
:101350000F21204603F01FF90121204603F098F9E0
:101360000121204603F08AF90121204603F0E0F82C
:10137000204617E00010024000000140000C02402F
:101380000008004000000240000C00400700400040
:101390004C20014060030020106402400004024021
:1013A0000008024003F031F91BB0F0BD70B50546EE
:1013B00096B00121102002F0CFFF0121084602F073
:1013C000A3FF0121880502F09FFF4FF4C060139036
:1013D00002208DF8500000248DF852408DF85340C3
:1013E000FF4E8DF8510013A9304602F0BFFD0722D1
:1013F0000921304602F043FE07220A21304602F05E
:101400003EFE0F95ADF844400C20F64DADF840403F
:10141000ADF84600ADF84240ADF848400FA9284667
:1014200004F00DF90121284604F07AF94FF4A06088
:1014300002F0E4FC3A208DF8540001218DF855109B
:101440008DF856108DF8571015A802F0DCFCE64E0A
:10145000304603F0C9F94FF000600090E348CDE951
:1014600002040A200490281D01900015CDE90540D2
:101470008010CDE9084040020A9004200B900794A8
:101480000320CDE90C04694630460E9403F034FA8B
:1014900001224021284604F0DAF9012210213046C9
:1014A00003F0D8FA0121304603F05FFA16B070BDA0
:1014B00070B50546012196B0880402F043FF012172
:1014C000082002F021FF0121480502F01DFF4FF422
:1014D0004070139002208DF8500000248DF8524087
:1014E0008DF85340C24E8DF8510013A9304602F0DA
:1014F0003DFD07220821304602F0C1FD07220921E7
:10150000304602F0BCFD0F95BA4EADF84040ADF844
:1015100044400C25ADF84240ADF84840ADF8465087
:101520000FA9304604F08BF80121304604F0F8F89A
:101530004FF4A06002F062FC8DF854508DF85540D5
:101540008DF8564001208DF8570015A802F05BFC7D
:10155000A94D284603F048F94FF000600090A348D9
:1015600069462330CDE902040A200490301D019021
:101570000015CDE905408010CDE9084040020A90F1
:1015800004200B9007940320CDE90C0428460E9408
:1015900003F0B2F901224021304604F058F901224B
:1015A0004021304604F053F901221021284603F06F
:1015B00051FA0121284603F0D8F977E7F0B506463D
:1015C000012197B0C80402F0BDFE0121084602F0D7
:1015D0009BFE0121480502F097FE02208DF8500085
:1015E00000248DF852408DF853407D4F03258DF82F
:1015F0005100139513A9384602F0B8FC08220021C7
:10160000384602F03CFD08220121384602F037FD41
:101610000F96ADF844400C20784EADF84040ADF840
:101620004600ADF84240ADF848400FA9304604F0FE
:1016300006F80121304604F073F84FF4A06002F080
:10164000DDFB0D208DF854008DF855408DF8564087
:1016500001208DF8570015A802F0D5FB664F18370A
:10166000384603F0C1F8780500906048694632308A
:10167000CDE9020408200490301D01900015CDE949
:1016800005408010CDE90840400207940A900420EC
:10169000CDE90C540B9038460E9403F02DF901223D
:1016A0004021304604F0D3F801224021304604F0B6
:1016B000CEF801221021384603F0CCF9012138463A
:1016C00003F053F917B0F0BD2DE9F0418046012138
:1016D00096B0480502F018FE0121080502F032FE1E
:1016E00001210C2002F010FE02258DF8405000244C
:1016F0008DF842403E4F04268DF843400F968DF8FA
:1017000041500FA9384602F031FC8DF840508DF859
:1017100042408DF84340E8028DF84150384D0F901B
:101720000FA9284602F022FC08220221384602F0C6
:10173000A6FC08220C21284602F0A1FC4FF4A06070
:1017400002F05CFB2F208DF8540005208DF8550029
:101750008DF8560001208DF8570015A802F053FBB4
:10176000ADF84C400C20274DADF84840ADF84E0088
:10177000CDF84480ADF84A40ADF8504011A9284654
:1017800003F05DFF0121284603F0CAFF1A4F90378E
:10179000384603F029F87006009040200390134863
:1017A0006946CE38029095200490281D01900015BE
:1017B000CDE905408010CDE908404002CDE90A0698
:1017C00007940320CDE90C0438460E9403F094F8F6
:1017D00001228021284604F03AF80122102113E06A
:1017E00000000240001001404064024098030020C5
:1017F000000C02400048004028600240004C0040BD
:101800000008024000500040384603F023F901214F
:10181000384603F0AAF816B0BDE8F081F0B50546E9
:1018200097B00121202002F097FD0121042002F051
:101830006BFD0121880502F067FDC0201390022096
:101840008DF8500000248DF852408DF85340F84E2A
:101850008DF8510013A9304602F088FB08220621BA
:10186000304602F00CFC08220721304602F007FC4B
:10187000ADF844400C20EF4EADF84040ADF84600C6
:101880000F95ADF84240ADF848400FA9304603F03F
:10189000D6FE0121304603F043FF4FF4A06002F072
:1018A000ADFA39208DF8540003258DF855500121EB
:1018B0008DF856108DF8571015A802F0A4FADE4FD7
:1018C000384602F091FFB8050090DC48CDE90204EB
:1018D00011200490301D01900015CDE905408010C5
:1018E000CDE90840400207940A900420CDE90C5449
:1018F0000B90694638460E9402F0FEFF012240210B
:10190000304603F0A4FF01221021384603F0A2F86C
:101910000121384603F029F8D4E6F0B50646012146
:1019200097B0480502F0F0FC01214D04284602F072
:1019300009FD0121082002F0E7FC6020139002203D
:101940008DF8500000248DF852408DF85340BC4F64
:101950008DF8510013A9384602F008FB0722052133
:10196000384602F08CFB07220621384602F087FB3E
:101970000F96ADF844400C20B24EADF84040ADF8A3
:101980004600ADF84240ADF848400FA9304603F09C
:1019900056FE0121304603F0C3FE4FF4A06002F072
:1019A0002DFA11208DF854008DF855408DF85640D1
:1019B00001208DF8570015A802F025FAA24F3846ED
:1019C00002F012FFA8020090402003909F4802906E
:1019D0003C200490301D01900015CDE90540801099
:1019E000CDE908400420CDE90A5007940320CDE951
:1019F0000C04694638460E9402F07EFF01228021D5
:101A0000304603F024FF01228021304603F01FFFFF
:101A100001221021384603F01DF80121384602F05A
:101A2000A4FF4FE630B585B00121142002F06CFC14
:101A30000121880302F090FC00254FF440708DF8DE
:101A40000450012400908DF807406946784802F060
:101A50008DFA6020009069467D4802F087FA0821DF
:101A6000022003F05EFF0921022003F05AFF052146
:101A7000042003F056FF0621042003F052FF4FF428
:101A8000587002908DF80C5010208DF80D008DF8D4
:101A90000E4002A803F046F817208DF810008DF8CC
:101AA00011408DF812508DF8134004A802F0ABF9E4
:101AB00005B030BD10B5012810D0032819D0042876
:101AC00022D0052809D1634C204603F04FFE402167
:101AD000204603F0DCFE0028F9D010BD5E4C204605
:101AE00003F044FE4021204603F0D1FE0028F9D047
:101AF00010BD544C204603F039FE4021204603F02F
:101B0000C6FE0028F9D010BD544C204603F02EFE2E
:101B10004021204603F0BBFE0028F9D010BD2DE97E
:101B2000FC414F4E304603F037F9484D783D296A65
:101B3000B04640EA014000244CF250364FF6E857D8
:101B40000190404603F028F9296A40EA01400090DC
:101B50000100019800D54942002800DA4042081AE5
:101B6000B04200DA641C00980190BC4201DC022CF7
:101B7000E7DB0098BDE8FC812DE9FC41384E30469A
:101B800003F00AF9314D783D296AB04640EA014038
:101B900000244CF250364FF6E8570190404603F0CF
:101BA000FBF8296A40EA014000900100019800D545
:101BB0004942002800DA4042081AB04200DA641CA8
:101BC00000980190BC4201DC022CE7DB0098642104
:101BD00090FBF1F0CEE72DE9FC414FF08046304616
:101BE00003F0DAF8194D783D696AB04640EA0140E1
:101BF00000244CF250364FF6E8570190404603F06F
:101C0000CBF8696A40EA014000900100019800D5D4
:101C10004942002800DA4042081AB04200DA641C47
:101C200000980190BC4201DC022CE7DB0098A1E7A0
:101C3000000802400014014028640240A70300206D
:101C4000000C024000440040A0600240100100204F
:101C5000001002400050004000100140004C0040C5
:101C6000000001402DE9FC41F64E304603F094F8A7
:101C7000F54DA96AB04640EA014000244CF25036C6
:101C80004FF6E8570190404603F086F8A96A40EA0B
:101C9000014000900100019800D54942002800DA77
:101CA0004042081AB04200DA641C00980190BC421D
:101CB00001DC022CE7DB00985CE72DE9FC41E34EF8
:101CC000304603F069F8E04DE96AB04640EA014069
:101CD00000244CF250364FF6E8570190404603F08E
:101CE0005BF8E96A40EA014000900100019800D5E4
:101CF0004942002800DA4042081AB04200DA641C67
:101D000000980190BC4201DC022CE7DB009831E72F
:101D10002DE9FC41CE4E304603F03EF8CA4D296B0A
:101D2000B04640EA014000244CF250364FF6E857E6
:101D30000190404603F030F8296B40EA01400090E2
:101D40000100019800D54942002800DA4042081AF3
:101D5000B04200DA641C00980190BC4201DC022C05
:101D6000E7DB009806E70021B74A01280CD00228DB
:101D70000ED0032811D0042814D0052803D1B4486C
:101D80002430016011637047B248416211627047AC
:101D90004FF08040416251627047AA482430016090
:101DA00091627047A94824300160D162704710B534
:101DB000A54C0020803C6072612020726420FEF7F8
:101DC000BCFE012060727A20207210BD10B59E4CBE
:101DD0000020803C6072612020726420FEF7ADFE1E
:101DE000012060727A20207210BD2DE9F0410E466C
:101DF000054605F0CBFA07460C46304605F0C6FA14
:101E00003A46234606F0FEF9934A944B05F074F9DE
:101E100005F09DFA8C4FF8643146084605F049F804
:101E200004462946084605F044F8214604F0E9FF37
:101E300005F0ACFA07F06CF905F089FA3865EBE4C7
:101E40002DE9F14F9AB0002000908DF83C008748B2
:101E5000834A7D4F1A99DFF80C92834C803F961489
:101E600000784FF4004B4FF480454FF480681229FE
:101E700075D2DFE801F0092A30373E434854595EF5
:101E8000626B757E858991E60221104602F0D4F8D6
:101E900068B101225946484602F0E6F88021204602
:101EA00002F0DEF8B7F90A10002271A06FE00022FC
:101EB0005946484602F0D8F88021204602F0D2F870
:101EC000B7F90A10002271A061E0FEF71FFE01467B
:101ED000012276A05BE0F86E05F020FA01460222AE
:101EE00077A054E0386F05F019FA0146032277A075
:101EF0004DE000F00801042276A048E05248052297
:101F0000416976A043E0787800903B7877A2282159
:101F10000FA805F025FC06220FA976A0A9E100F084
:101F20001001072277A032E000F02001082277A0FC
:101F30002DE00922797977A029E0FFF7F0FD00284C
:101F400000DA404201460A2276A020E0FFF743FE75
:101F5000002800DA404201460B2276A017E018E084
:101F6000FFF780FE002800DA404201460C2275A0EF
:101F70000DE0786F05F0D2F901460D2275A006E05C
:101F8000F9690E2276A002E00F2279A0396AFEF7E5
:101F900012FC1BB0BDE8F08F0121794802F04CF82B
:101FA0004FF4005A0E9051464F46484602F044F80E
:101FB0000D900221724802F03FF80C9029463846F5
:101FC00002F03AF80B9004216D4802F035F80A90BF
:101FD00059466B4802F030F809900821684802F031
:101FE0002BF808902946664802F026F8834610210F
:101FF000634802F021F806905146614802F01CF84F
:1020000082460821204602F017F8814631465C4896
:1020100002F012F807461021204602F00DF806469D
:102020004146574802F008F805468021544802F01E
:1020300003F804464FF48071514801F0FDFF034658
:10204000A0E0ACE000040040980000200008004040
:10205000000C00400000014078612288A9E781401F
:102060000004024000080240000C0240BB030020B4
:102070002D2D2D20504147452031202D2D2D205331
:10208000414E20444F20494D553A20002D2D2D2002
:10209000504147452031202D2D2D2053414E2058B1
:1020A000414E4820494D553A2000000067705F6757
:1020B00065745F6D6F64655F756172743A200000CE
:1020C000544F435F444F3A200000000048554F4EA4
:1020D000473A2000544F493A200000005F544F43D4
:1020E0005F444F5F42543A200000000025645F25A2
:1020F000640000006E757428484F5F544F293A20E1
:10210000000000004C55493A200000005048414969
:102110003A20000063686F5F706865705F63686194
:10212000793A2000454E434F4445525F545241494D
:102130003A200000454E434F4445525F5341553AC3
:1021400020000000454E434F4445525F50484149EE
:102150003A2000004D41545F524F424F543A200004
:10216000746F635F646F5F746573743A200000007E
:102170006D75635F746965755F78756E673A200089
:1021800000100240CDF81CB08DE8F006F8A228211E
:102190000FA805F0E5FA10220FA9FEA069E0802142
:1021A0009246104601F052FF0E900121504601F078
:1021B0004DFF0D904021504601F048FF0C90D9464C
:1021C0005946204601F042FFDFF8CCB30B90314670
:1021D000584601F03BFF0A9047464146504601F001
:1021E00035FF4FF4006809904146584601F02EFF34
:1021F00007904146504601F029FF08903946204695
:1022000001F024FF06903146504601F01FFF059073
:102210004146204601F01AFF04904FF40051504609
:1022200001F014FF80462946204601F00FFF0446C6
:102230002946504601F00AFF06464FF48071584681
:1022400001F004FF05464946504601F0FFFEDDE976
:102250000712CDF80C800095CDE90721CDE9016486
:102260000346C3A228210FA805F07AFA11220FA96C
:10227000CAA0FEF7FFFA8CE60121CA4802F075BB3E
:1022800011B4C948416B009A914201DD002101E07F
:10229000416B491C4163406B18BCD1E52DE9F04707
:1022A000FEF734FCC04C0026DFF8ECA2803CBF4FA8
:1022B0004FF480414FF400484FF480790D280AD044
:1022C0000022384601F0D0FE6670002241463846B2
:1022D00001F0CAFE28E0B64D2878020605D5E2785E
:1022E000802A02D06278521C627000F08000E07098
:1022F0006078012809D00022384601F0B5FE6670EA
:102300006878000706D5012205E00122384601F071
:10231000ABFEF5E700224146384601F0A5FE68789D
:10232000800601D5012200E0002249465046BDE862
:10233000F04701F099BE07B59B4880388166009947
:10234000016642660EBD2DE9FF411F460A9E0198B7
:1023500004F0CAFF944C944D803C20670198E865D6
:10236000A76602982066009804F0BEFF6666002704
:1023700060676F65B4F90A002866304604F0CEFF46
:102380002082B4F910000A2801DD0A2001E04FF490
:10239000FA60E0810221854801F04EFE002804D059
:1023A000FEF7B4FB0D2800D16767BDE8FF812DE97A
:1023B000F04106469046184604F075FD04F0E6FF2D
:1023C0004FF0804500222B4606F0B6F907460C4632
:1023D0004146304604F06AFD04F0D8FF00222B4647
:1023E00006F0AAF93A46234604F0DFFD06F090FE17
:1023F000BDE8F04104F0F6BFF8B50C461E461146A4
:1024000004F054FD05462146304604F04CFD04F02E
:10241000BDFF06460C46284604F0B8FF3246234668
:1024200005F0F0FE04F0DEFF04F0B0FF614A624BFD
:1024300004F062FE04F0D6FF604904F03AFD04F0B7
:102440006DFF00904042F8BD2DE9FE4F1C46154639
:102450000E460746DDF83490FFF7CEFF0290234684
:102460002A4631463846FFF7A2FF82460C98DFF82D
:10247000508100250190FFF752FB002800DA40420E
:10248000504FB84205DAFFF74AFB002802DA404213
:1024900000E000200646FFF7E5FB002800DA404296
:1024A000B84205DAFFF7DEFB002802DA404200E01E
:1024B00000200446FFF78FFB002800DA4042B842B4
:1024C00005DAFFF788FB002802DA404200E000202E
:1024D000321B00D552424CF250318A4205DD321A8D
:1024E00000D552428A4200DD0026A21B00D552428E
:1024F0008A4205DD221A00D552428A4200DD0024BC
:10250000821B00D552428A4205DD021B00D5524291
:102510008A4200DD0020002E00DD3546AC4200DDA1
:102520002546A84200DD05462749504604F0C1FC77
:10253000414604F0F0FC254904F0BBFC494604F098
:10254000B8FC04F0EBFE184C461B803CC4E90806BE
:10255000617900297AD0DFF878904FF00008002EDA
:1025600075DD04F0CAFE4FF066321A4B34E000000D
:102570002564256425642564256425642564256413
:102580002564256425642564256425642564256403
:1025900000000000493A2000000002404F55543A24
:1025A00020000000A06002409800002000040240CB
:1025B000BB030020F8C1631ADCA54C400000204199
:1025C00057E95B4340420F0000007A440020CB46AD
:1025D0009A9999996666D63F04F08EFD07460D4696
:1025E000304604F08AFE3A462B4604F0E3FE16D845
:1025F000206A04F079FEF94904F08DFC0546606A12
:1026000004F072FE294604F086FC05460C9804F09E
:102610006BFE294604F04DFC04F080FE0190206A18
:1026200004F06BFE4F464A46ED4B04F065FD05464F
:102630000E46606A04F061FE2A46334604F0BAFE94
:1026400002D9BAF17E5F03DC782005E03DE03EE090
:102650000198962802DA9620019004E00C998842AD
:1026600001DD08460191E061206A04F046FE3A4629
:10267000DC4B04F041FD05460E46606A04F03DFE69
:102680002A46334604F096FE01D8D74B16E0206A5E
:1026900004F033FE3A46D54B04F02EFD05460E46B7
:1026A000606A04F02AFE2A46334604F083FE03D80B
:1026B0000120CF4B607001E04FF07C53CDF80080DB
:1026C000DDE901210020FFF73EFEBDE8FE8F00227C
:1026D000C8491046FFF72FFE84F80580F5E71CB5C2
:1026E000C54A114610780979012812D000281FD157
:1026F000C24BC3484FF07E524FF4C874012923D017
:10270000022926D029B3032912D1CDE90042BD4ABE
:1027100023E0BD484078C30601D5012102E08306CD
:1027200002D50221117106E0030702D503201071C2
:102730001CBD0029FCD00107FAD48106F8D4C006DC
:10274000F6D4002010701CBDCDE900424FF080424D
:1027500003E0CDE900424FF081420021FFF774FE13
:102760001CBDA54CFEF7D2F90D2805D1FFF7B7FF28
:10277000207808B9FFF792FD012003F017FBF1E77D
:102780002DE9F047A048954FA04E0078DFF880A2D1
:10279000994D40074FF400484FF480794FF0000402
:1027A00017D5E879B0B96C700022EC703946104644
:1027B000FFF7C1FD00224146304601F055FC0022E2
:1027C0004946504601F050FC2C716C710120E871B3
:1027D00000E0EC71FEF79AF9002818D16C70002225
:1027E000EC7039461046FFF7A6FD00224146304600
:1027F00001F03AFC00224946504601F035FC002227
:102800004FF48041304601F02FFC2C716C71BDE813
:10281000F0877E4F7C4E784C5FF00105FFF7B0FFEC
:102820000221384601F008FC50B90421794801F032
:1028300003FC28B9A07918B9FEF768F90D2804D06F
:10284000307810F0480F18D10EE00120FFF78BFA16
:102850000220FFF788FA0320FFF785FA40F2DC50E8
:1028600003F0A4FA65710EE0810606D4C00604D414
:1028700061488030806C322806DDFEF747F90D286C
:1028800002D100206071A571012003F08FFAC5E725
:102890001120FFF7F5FC0A2003F088FAF8E72DE98C
:1028A000F84F594EDFF850815B4970784FF0804700
:1028B000C20708F180084FEA807007D0002813DBB8
:1028C0001E20C8F86400C8F8747012E000280BDA03
:1028D000F079192806D90120C8F864004F48C8F8D3
:1028E000740006E0142000E01920C8F86400C8F85D
:1028F0007410D8F864001530C8F87000FEF706F9B7
:102900000D2806D0BDE8F84F00224FF08141104657
:1029100011E53178DFF8E09011F0480F4FF00A052B
:102920004FF0000440D188063ED4C8063CD430792C
:102930004FF0050AC82807D9D8F84820322A03DA08
:10294000D9F84C00404207E032282DD2D8F8480090
:10295000322829DAD9F84C00B9F90A1000EBC00086
:1029600001EB8000C9F84800C8F868400121D8F898
:10297000740004F00EFBD8F87010034691FBFAF2D5
:1029800027480090D8F86810D9F84800FFF7DBFC1A
:10299000B9F90A00C9F84800C8F86C50B9F90A003A
:1029A000C9F84800BDE8F88F08074FF4617E4FEA88
:1029B00041604CD500286CDB88066AD4C80668D410
:1029C0003079C8282ED9D8F84800322861DAB9F908
:1029D0000A00D9F84C10401A2FE0000000004040D7
:1029E0009999B93F9999C93F3333333F9999E93F51
:1029F0009A99993ECDCC4C3F18000020CDCCAC40EC
:102A0000000020400000D040BB0300200004024032
:102A100000000240001002406666263F9A99993FE6
:102A20000000A041322834D2D8F84800322830DAE9
:102A3000B9F90A00D9F84C100844C9F84800C8F898
:102A400068400094D8E91C23D8F8681023E20028D5
:102A50001FDA88061DD4C8061BD43079C82809D9C6
:102A6000D8F84800322814DAB9F90A00D9F84C101D
:102A7000401A0AE032280CD2D8F84800322808DA86
:102A8000B9F90A00D9F84C100844C9F84800704652
:102A9000D7E011F0480F4FF4E16240D188064FEAC9
:102AA000C1601DD500283ADB3079C82809D9D8F88B
:102AB0004800322833DAB9F90A00D9F84C10401A24
:102AC0000AE032282BD2D8F84800322827DAB9F9A0
:102AD0000A00D9F84C100844C9F84800FA48B0E098
:102AE00000281CDA3079C82809D9D8F848003228DB
:102AF00015DAB9F90A00D9F84C10401A0AE0322860
:102B00000DD2D8F84800322809DAB9F90A00D9F804
:102B10004C100844C9F84800C8F8682091E7080735
:102B20004FF4E17ACAF1000B40F2465C4FEA416093
:102B300043D500284FEA81601FDA00285FDBC80612
:102B40005DD43079C82809D9D8F84800322856DA37
:102B5000B9F90A00D9F84C10401A0AE032284ED2CE
:102B6000D8F8480032284ADAB9F90A00D9F84C10E6
:102B70000844C9F84800504663E000283FDAC80618
:102B80003DD43079C82809D9D8F84800322836DA37
:102B9000B9F90A00D9F84C10401A0AE032282ED2AE
:102BA000D8F8480032282ADAB9F90A00D9F84C10C6
:102BB0000844C9F84800584643E000281FDA880650
:102BC0001DD4C8061BD53079C82809D9D8F84800C3
:102BD000322814DAB9F90A00D9F84C10401A0AE080
:102BE00032280CD2D8F84800322808DAB9F90A009D
:102BF000D9F84C100844C9F84800604621E0B348B1
:102C000011F0480F20D18B061ED5CB061CD5337989
:102C1000C82B09D9D8F84830322B15DAB9F90A107F
:102C2000D9F84C20891A0AE0322B0DD2D8F8483056
:102C3000322B09DAB9F90A10D9F84C201144C9F835
:102C40004810C8F86800FCE60B0708D54B0606D408
:102C50008B0604D4CB0602D4C8F8684008E011F013
:102C6000480F14D18B0612D4CB0610D5C8F86820B3
:102C70000094D8F87430D8F86420D8F8681000BFF1
:102C8000D9F84800FFF75FFBC8F86C508AE60B07DD
:102C900007D44B0605D58B0603D4CB0601D470466A
:102CA0002BE011F0480F05D18B0603D5CB0601D4DC
:102CB000854822E00B074FEA41630FD5002B4FEA0E
:102CC000816305DA002B11DBCB060FD4504614E0EC
:102CD000002B0BDACB0609D458460EE0002B05DAA0
:102CE0008B0603D4CB0601D5604606E011F0480FF1
:102CF00079D18B0604D5C90675D5C8F86800B7E741
:102D0000C80670D470794FF07E5A4FF07C5B322841
:102D10002ED2B9F90A10C9F84810C8F86820CDF8C1
:102D200000A0D8F8681053460A22D9F84800FFF7E7
:102D30000AFB5F460EE00A2003F038F8F07920B174
:102D40004FF080426249642002E0624A3946142012
:102D5000FFF7F1FA70793228EDD3B9F90A004E463F
:102D6000C9F848004046C8F86C505346009434E017
:102D7000C82839D9B9F90A10C9F848100022C8F88A
:102D80006820CDF800A0D8F86810544653460A22AF
:102D9000D9F84800FFF7D7FADFF83CA15F460EE00C
:102DA0000A2003F003F8F07920B14FF08042214669
:102DB000C82002E0524639461420FFF7BCFA707969
:102DC000C828EDD8B9F90A004E46C9F8480040466F
:102DD000C8F86C50002123460091816E0222B06C2D
:102DE000FFF7B1FADEE563E0D8F848000A2837DDDE
:102DF0000094D8F87430D8F86420D8F84410D9F882
:102E00004800FFF7A0FAC8F86C50B846324F544655
:102E10005D460DE00A2002F0C9FFF07918B1424684
:102E20002146322002E03A4629461420FFF783FA71
:102E300030793228EED3294F4FF040483079C828F6
:102E4000D0D90A2002F0B2FFF07918B142462146EB
:102E5000322002E03A4629461420FFF76CFAEDE7EB
:102E6000D8F84800322823DD3079C82805D9B9F9C7
:102E70000A00D9F84C10401A06E0322810D2B9F9ED
:102E80000A00D9F84C100844C9F848000094D8E961
:102E90001C23D8F84410D9F84800FFF754FA7BE512
:102EA0000094D8F87430D8F86420D8F84410E7E6D5
:102EB000B9F90A00C9F84800009400221146D8F870
:102EC0007430D9F848008BE77CFCFFFFBAFAFFFFAB
:102ED000CDCC4C3D0000A0410000A0400000A0C0AF
:102EE00000B5FDF713FE0022FE490D280FD1FE4864
:102EF0000078430705D58B78042B02D00B785B1C38
:102F00000B7000F0040088700878022800D30A7063
:102F100000BD2DE9F041054640F2862085423ADDAC
:102F200040F60E10854202DBB420BDE8F081EF4888
:102F3000002400BF50F82410A94229DC00EB8401D2
:102F40004968A94224DB00EB840150F824704968E9
:102F5000C81B04F0C9F90646E81B04F0C5F9314660
:102F600003F0D9FF0546E148903800EB840150F8A2
:102F700024404968081B04F0B7F9294603F099FF7B
:102F80004FF07C5103F03DFF04F0C8F92044CCE73A
:102F9000641C232CCEDB0520C7E7D34810B53F388F
:102FA000008BFFF7B6FFCF49888210BDCE4810B521
:102FB0003F38C08AFFF7ADFFCA49C88210BDCA4872
:102FC00010B53F38808AFFF7A4FFC649488210BD7C
:102FD00010B5FFF7F4FFFFF7E9FFBDE81040DCE7AD
:102FE000C04C00BFFFF7F4FFFFF77AFFFFF7C8FB05
:102FF000607908B9FFF753FC012002F0D7FEF1E732
:103000007CB501200024CDE90004050223462A46B0
:10301000B7A1BA4802F013FD0420CDE90004002353
:103020002A46B7A1B94802F00AFD0220CDE9000402
:1030300000232A46B6A1BA4802F001FD0320CDE9DB
:10304000000400232A46B7A1BA4802F0F8FCBDE804
:103050007C4003F07EB82DE9F04791460E460446C9
:1030600003F024FF054620F00040074616F0FF4F0E
:1030700001D0314601E04FF07E5103F04CFFAE49E4
:1030800003F017FF04F082F905F014FADFF8AC82C0
:103090000022434604F02DF8012204F00EF904F05A
:1030A000A1F9A749B5F5000F2DDB8F4207DD0121FE
:1030B000484603F06EFF214603F0A3FE1DE004F036
:1030C00065F94FF0FF3204F0F8F80022434603F0B0
:1030D0006CFF07460D46484604F058F93A462B4621
:1030E00004F00AF807460D46204604F04FF93A4628
:1030F0002B4603F05AFF04F075F90446314604F0FC
:1031000097F932D230E015F1FF4F2ED38F4207DD11
:103110000121484603F03DFF214603F0C7FE1EE0B3
:1031200004F034F94FF03332864B03F0E5FF002210
:10313000434603F03AFF07460D46484604F026F999
:103140003A462B4603F0D8FF07460D46204604F0CA
:103150001DF93A462B4603F0C9FF04F043F9044633
:10316000314604F05BF900D234462046BDE8F087D2
:103170002DE9F0415B4C4FF07E518034606D03F0DF
:1031800040FE0546606557480027BE1E416EB1F5FA
:10319000000F1BDB8046284604F04AF93ED2314638
:1031A0004546D8F86C0003F0F4FE0646696F03F05C
:1031B00028FE6867E06DB5F90A10401A216E0844D0
:1031C00004F092F8314603F06EFE25E011F1FF4F56
:1031D00025D38046084604F0A1F8002800DA4042D2
:1031E00004F082F8294604F019F917D23146454611
:1031F000D8F86C0003F0CDFE0646696F03F056FE6A
:103200006867E06DB5F90A100844216E401A04F0B1
:103210006BF8314603F0F5FD2867676585E6012107
:103220008162C16281E62DE9F05F2E4D686E04F087
:1032300075F8400001D0FFF79BFF286E04F054F8AA
:103240000146D5E91A20FFF706FFE86602213E484D
:1032500000F0F2FE4FF46169224CC9F100084FEA18
:1032600068074FF4E166803418B1FDF74FFC0D2874
:1032700019D0686E04F052F8DFF8D0A040000028A2
:10328000B5F90A0016D004F02FF8696F03F00BFEB1
:10329000514603F00EFE04F041F820612069B0426F
:1032A00079DD26611AE0686E04F038F84000DFF836
:1032B000A0A0E4E704F018F8696F03F0F4FD5146AC
:1032C00003F0F7FD04F02AF82061216948468142A5
:1032D00003DC21694046814200DA2061286F1D49E4
:1032E000804639E018000020BB030020EC91000864
:1032F0005461736B5F4D61696E000000E12F00083F
:103300005461736B5F484D4900000000912800082C
:103310005461736B5F436F6E74726F6C5F3100004A
:10332000132800085461736B5F436F6E74726F6C87
:103330005F320000632700080000A0C00000F03FDB
:103340000000A0413333D33F00040240000040405E
:103350000000A0400000614503F0DDFD03F0DEFF4A
:103360004FF46161484303F0BFFF414603F09EFD07
:1033700003F0D4FFA8812069002811DDE86BB5F9BE
:103380000C10401A6060286CB5F90C10401AA0604F
:10339000686C13E0FFE72069B8429FDA27619DE778
:1033A000206900280FDA286BB5F90C10401A60600C
:1033B000686BB5F90C10401AA060A86BB5F90C1039
:1033C000401AE06005E0E86E03F0A8FFE061A0614C
:1033D00060616068B042606802DDA0F5616004E091
:1033E000B84203DA606800F561606060A068B042CE
:1033F000A06802DDA0F5616004E0B84203DAA068CD
:1034000000F56160A060E068B042E06802DDA0F510
:10341000616004E0B84203DAE06800F56160E060F2
:103420002069002800DA4042B34640F68C29DFF8D4
:103430005CA7C9F1000658457EDD2069002800DA46
:10344000404203F05AFF07468846606803F055FF84
:103450000022534603F0C2FE3A46434603F04CFEB8
:1034600007468846B5F90C0003F047FF3A46434645
:1034700003F09BFD03F06BFFA8672069002800DACA
:10348000404203F03AFF07468846A06803F035FF44
:103490000022534603F0A2FE3A46434603F02CFEB8
:1034A00007468846B5F90C0003F027FF3A46434625
:1034B00003F07BFD03F04BFFE8672069002800DA8A
:1034C000404203F01AFF07468846E06803F015FF04
:1034D0000022534603F082FE3A46434603F00CFEB8
:1034E00007468846B5F90C0003F007FF3A46434605
:1034F00003F05BFD03F02BFF2060A06BA96F411A66
:103500004846814203DDA96F01F5616107E0A16BC7
:10351000AA6F891AB14203DAA96FA1F56161A9679F
:10352000A16BAA6F8B1A4FF461714A428B4204DD82
:10353000AB6F03F5E16308E057E0A36BAF6FDB1BF4
:10354000934203DAAB6FA3F5E163AB67E36BEF6F15
:10355000DB1B834203DDEB6F03F5616307E0E36B85
:10356000EF6FDB1BB34203DAEB6FA3F56163EB672D
:10357000E36BEF6FDB1B8B4203DDEB6F03F5E16366
:1035800007E0E36BEF6FDB1B934203DAEB6FA3F50E
:10359000E163EB67236C2768DB1B4B4503DD206889
:1035A00000F5616007E0206C2368C01AB04203DABE
:1035B0002068A0F561602060206C2368C01A8842F2
:1035C00003DD206800F5E16007E0206C2168401A07
:1035D000904203DA2068A0F5E1602060A86FA06344
:1035E000E86FE06320682064DBE0B5F90C00A867B1
:1035F000B5F90C00E867B5F90C002060A06BA96F65
:103600004A46401A904203DDA86F00F5616007E06A
:10361000A06BA96F401AB04203DAA86FA0F56160F1
:10362000A867A06BA96F431A40F2465041428342FB
:1036300003DDAB6F03F5E16307E0A36BAF6FDB1B4B
:103640008B4203DAAB6FA3F5E163AB67E36BEF6F1C
:10365000DB1B934203DDEB6F03F5616307E0E36B74
:10366000EF6FDB1BB34203DAEB6FA3F56163EB672C
:10367000E36BEF6FDB1B834203DDEB6F03F5E1636D
:1036800007E0E36BEF6FDB1B8B4203DAEB6FA3F515
:10369000E163EB67236C2768DB1B4B4503DD226886
:1036A00002F5616207E0226C2368D21AB24203DAA3
:1036B0002268A2F561622260226C2368D21A8242DB
:1036C00003DD206800F5E16007E0206C2268801AC5
:1036D000884203DA2068A0F5E1602060A86FA0634B
:1036E000E86FE063206820642069002800DA404227
:1036F00003F003FE06460F46606803F0FEFD00225D
:10370000534603F06BFD3B46324603F0F5FC06469C
:103710000F46A86F03F0F1FD32463B4603F045FC2F
:1037200003F015FEA8672069002800DA404203F084
:10373000E4FD06460F46A06803F0DFFD0022534675
:1037400003F04CFD3B46324603F0D6FC06460F46DE
:10375000E86F03F0D2FD32463B4603F026FC03F04F
:10376000F6FDE8672069002800DA404203F0C5FD55
:1037700006460F46E06803F0C0FD0022534603F002
:103780002DFD32463B4603F0B7FC06460F46206847
:1037900003F0B3FD32463B4603F007FC03F0D7FDD0
:1037A0002060A86FFA4E7072A86F000A3072E86F3E
:1037B0007077E86F000A30772068F0742068000A9C
:1037C000B0742069002800DA40420A2758457DDDA0
:1037D000206900283BDDE86E03F0D8FD81462068B3
:1037E0008A46696C401A90FBF7F003F07DFDE949C9
:1037F00003F05FFB03F0CAFD04F00EFE4A46534699
:1038000003F07AFC03F0A3FDE061E86E03F0BEFD77
:103810008046E86F8946296C401A90FBF7F003F068
:1038200063FDDC4903F045FB03F0B0FD04F0F4FD5B
:1038300042464B4603F060FC03F089FDA061E86E50
:1038400003F0A4FD8046A86F8946E96B3DE020693E
:10385000002850DAE86E03F099FD814620688A4618
:10386000A96B401A90FBF7F003F03EFDC94903F045
:1038700020FB03F08BFD04F0CFFD4A46534603F0D6
:103880003BFC03F064FDE061E86E03F07FFD8946D8
:10389000E96F8046686B081A90FBF7F003F024FD8F
:1038A000BC4903F006FB03F071FD04F0B5FD424690
:1038B0004B4603F021FC03F04AFDA061E86E03F0E3
:1038C00065FD8046A86F8946296B00E016E0401A26
:1038D00090FBF7F003F008FDAE4903F0EAFA03F0BD
:1038E00055FD04F099FD42464FEA090303F004FC3C
:1038F00003F02DFD60616879E8B382E0E86E03F0C3
:1039000045FD814620688A46B5F90C10401A90FBA7
:10391000F7F003F0E9FC9F4903F0CBFA03F036FD22
:1039200004F07AFD4A46534603F0E6FB03F00FFD30
:10393000E061E86E03F02AFD8846E96F8146B5F93B
:103940000C00081A90FBF7F003F0CEFC914903F04D
:10395000B0FA03F01BFD04F05FFD4A46434603F056
:10396000CBFB03F0F4FCA061E86E03F00FFD814691
:103970008846A86F00E010E0B5F90C10401A90FBE3
:10398000F7F003F0B1FC834903F093FA03F0FEFC77
:1039900004F042FD4A464346A8E7E86E4FF07E52E7
:1039A00090422BDCA16D0020002902DCA065E866B6
:1039B00006E0491EA1650121EA666161A161E1613C
:1039C000A16DB1F5FA7F1CDAA16B002900DA49423A
:1039D0005A4691420BDCE16B002900DA49429142E0
:1039E00005DC216C002900DA4942594509DDA86748
:1039F000A063E867E0632060206402E0B5F90E0090
:103A0000A065606930716069000AF070A069307665
:103A1000A069000AF075E069B073E069000A70738C
:103A2000BDE8F09F5C4810B5408BFFF772FA58492B
:103A3000F839088310BD2DE9FF4182B015460C9C72
:103A400012F1FF4F01D382F000454FF07E56B4F5DE
:103A5000000F01DA514C02E0B44200DD3446DDE9EA
:103A60000201401A00D5404247F2F858009088B34E
:103A70000599374688420ADA084603F035FC0746BE
:103A8000009803F031FC394603F045FA0746214619
:103A9000304603F008FA394603F00BFA214603F0EA
:103AA000B0F9294603F005FA0446294603F0C0FCA4
:103AB00000D22C46204604F073FC03F02FFC01904A
:103AC000012801DA01200190DDE90001884206DCCD
:103AD00002980CE0FFE74246002103980AE0DDE986
:103AE00002108842019901DA084400E0401A424677
:103AF0000021039006B0BDE8F04100F0A9B833B54D
:103B0000234A81B0F83A908A0199401A00D5404280
:103B1000918A00EB8000019B029DCC1A00214FF09E
:103B20008043AC4202DD0A2200910CE0928A019CA3
:103B30000091121BAA424FF00A024FF0000101DA75
:103B4000404200E00020FEF7FEFB3EBD14210A20AB
:103B5000D5E70F4830B5F838D0E915128A4200DAB7
:103B60008165826D016D8A4200DD81650A49846D3F
:103B70004B8B191B01D40D4600E04D42044A022D27
:103B800025DDA3420CDD00230BE000000020AC404B
:103B90001001002035FA8E3C7C030020CDCC4C3D3A
:103BA000012382F82830002900DA4942C1EB0111D3
:103BB000C165FA2901DDFA2102E00A2901DA0A21A8
:103BC000C16590F85C0000BF82F8290030BD082074
:103BD000FAE738B5FCF7BDFFFCF7E8FFFDF7B0F9F1
:103BE000FDF7D9F8FDF71DFAFDF78EFAFDF7FDFA9E
:103BF000FCF7FFFF1B4C0021204601F0FFF84FF4BB
:103C0000E1352846FDF7D2FB2846FDF751FCE800D8
:103C1000FDF75AFD2846FDF780FE0A20FCF78DFFD0
:103C20000121204601F0EAF80A20FCF786FFFEF7A2
:103C3000BEF800204FF07E53024601460090FEF78A
:103C400082FB6420FCF779FFFFF7DAF9002038BD2A
:103C500007B5DDE90001884202DB0299884200DDF8
:103C600008460EBD001000400CB5002051490190DF
:103C700000900A6842F480320A604FF4A0630A6838
:103C800002F400320092019A521C0192009A12B979
:103C9000019A9A42F3D10A68920334D50120009028
:103CA00044484030026842F0805202604248026854
:103CB00042F4804202603F480830026802600268B5
:103CC00042F400420260026842F4A0520260031F04
:103CD0003A4A1A600A6842F080720A600A689201E1
:103CE000FCD5374A40F205611160016821F00301FB
:103CF0000160016841F0020101600168C1F38101C6
:103D00000229FAD10CBD00900CBD2A4810B50168FB
:103D100041F001010160274A002108321160026868
:103D2000284B1A400260031D274A1A60026822F4D9
:103D3000802202601F480C300160FFF795FF234985
:103D40004FF00060086010BD70B51A4C0834206850
:103D50001F4A10F00C011F4804D05510042903D04D
:103D6000082903D002601BE0056019E01149091D14
:103D70000B68C3F380560B6803F03F0316B1B5FB25
:103D8000F3F201E0B2FBF3F20B680968C3F38813A6
:103D90005A43C1F30141491C4900B2FBF1F10160F2
:103DA00021680C4AC1F30311121D515C0268CA401C
:103DB000026070BD003802400070004008544007A7
:103DC000003C0240FFFFF6FE1030002408ED00E04A
:103DD0000024F4005C0100200648804706480047A4
:103DE000FEE7FEE7FEE7FEE7FEE7FEE7FEE7FEE7AB
:103DF000FEE7FEE70B3D000889010008284908435B
:103E000028490860704730B50F22C4780178012333
:103E1000FCB1244C246801F1E02104F4E064C4F511
:103E2000E064C4F30724C4F10405E2404478AC40E4
:103E30008578154025432A0181F80024007800F098
:103E40001F018B404009800000F1E020C0F80031E4
:103E500030BD01F01F0083404809800000F1E020E0
:103E6000C0F8803130BD104A114001430D48001F99
:103E7000016070470B4A121D0029116801D00143EF
:103E800000E08143116070474FF0E0210428086989
:103E900003D020F004000861704740F00400FAE706
:103EA0000000FA050CED00E080FFFF1F7C4910B513
:103EB000884206D10121084600F058FA002101206D
:103EC0004FE07849884206D10121022000F04EFAE5
:103ED0000021022045E07449884206D101210420D6
:103EE00000F044FA002104203BE07049884206D1EA
:103EF0000121082000F03AFA0021082031E06C4945
:103F0000884206D10121102000F030FA0021102053
:103F100027E06849884206D10121202000F026FAD6
:103F2000002120201DE06449884206D10121402063
:103F300000F01CFA0021402013E06049884206D1BD
:103F40000121802000F012FA0021802009E05C4964
:103F500088420AD184150121204600F007FA002189
:103F60002046BDE8104000F001BA10BDF0B50023B6
:103F7000012403270D6804FA03F21540954242D14B
:103F8000D0F800C05E0007FA06F52CEA050CC0F870
:103F900000C091F804C0D0F800E00CFA06FC4CEA2E
:103FA0000E0CC0F800C091F804C0BCF1010F02D0A3
:103FB000BCF1020F1FD1D0F808C02CEA050CC0F8E4
:103FC00008C091F805C0D0F808E00CFA06FC4CEAED
:103FD0000E0CC0F808C0D0F804C02CEA020CC0F8DF
:103FE00004C0426891F806C00CFA03FC1FFA8CFC6E
:103FF00042EA0C024260C268AA43C260CA79C5683C
:10400000B2402A43C2605B1C102BB3D3F0BD4FF605
:10401000FF7101600021017141718171C1717047AF
:1040200008B541F480320092C261C1610099C1615A
:10403000C169C069009008BD0246002012690A42A9
:1040400000D001207047006980B27047024600200E
:1040500052690A4200D001207047406980B270471F
:1040600001837047418370470AB1018370474183E0
:1040700070474161704742694A40426170474B074F
:10408000DB0E9A40C90810B500EB8100016A0F24CD
:104090009C40A1430162016A1143016210BD00000E
:1040A000000002400004024000080240000C0240F0
:1040B000001002400014024000180240001C0240A0
:1040C00000200240EA48016841F001010160E84A2D
:1040D0000021083211600268E64B1A400260031D9D
:1040E000E54A1A60026822F480220260E0480C303F
:1040F00001607047DE490022891C0A700870704711
:1041000002460020510901290CD002290CD0D849BF
:104110007431096802F01F02012393400B4200D062
:1041200001207047D249F4E7D1497031F1E718B561
:1041300000204FF4A06400903120FFF7E1FF0099C8
:10414000491C0091A14201D00028F5D03120FFF791
:10415000D7FF002800D0012018BDC5490A6822F009
:10416000F80242EAC00008607047C449086070471E
:10417000BF49002270310A700A70012802D0042859
:1041800001D1052008707047BD490860704741EAB9
:1041900082115A0810B5BB4B029C03EB024211433B
:1041A000014341EA0460B249091D086010BDB349EA
:1041B00008667047800140EA0170AD4984310860AB
:1041C0007047AE4988667047AC49C8647047A84AD2
:1041D00008321368084323F0EC63184310607047FB
:1041E000A34A08321368084323F078431843106049
:1041F00070479F4A0832116821F0030101431160A2
:1042000070479B480830006800F00C007047984ADF
:104210000832116821F0F001014311607047944A9F
:104220000832116821F4E051014311607047904950
:1042300008310A6822F4604242EAC0000860704710
:1042400070B58B4A083211688F4C11F00C0104D004
:104250006610042903D0082903D004601BE006601F
:1042600019E08349091D0B68C3F380550B6803F0FF
:104270003F0315B1B6FBF3F301E0B4FBF3F30C68B5
:104280000968C4F388146343C1F30141491C490020
:10429000B3FBF1F1016011680F2303EA11117B4BAD
:1042A0005C5C0168E14041601468072505EA9424DC
:1042B0001C5D21FA04F48460126805EA52329A5CAB
:1042C000D140C16070BDC0F30121032908D1684A03
:1042D0000832116821F4F8136D4901401943116047
:1042E000634970310A68C0F30B0002430A607047EB
:1042F0006349443908607047614940390860704734
:104300005E49C1F85C017047594A30320029116892
:1043100001D0014300E0814311607047544A3432B8
:104320000029116801D0014300E08143116070470A
:104330004F4A38320029116801D0014300E081431F
:10434000116070474A4A40320029116801D0014388
:1043500000E0814311607047454A443200291168EA
:1043600001D0014300E0814311607047404A1032A0
:104370000029116801D0014300E0814311607047BA
:104380003B4A14320029116801D0014300E0814307
:1043900011607047364A18320029116801D0014374
:1043A00000E0814311607047314A203200291168D2
:1043B00001D0014300E08143116070472C4A243250
:1043C0000029116801D0014300E08143116070476A
:1043D000274A50320029116801D0014300E081438F
:1043E00011607047224A54320029116801D00143FC
:1043F00000E08143116070471D4A5832002911685E
:1044000001D0014300E0814311607047184A6032D7
:104410000029116801D0014300E081431160704719
:10442000134A64320029116801D0014300E081433E
:10443000116070470E4A0D320029117801D00143F6
:1044400000E081431170704709487430016841F001
:104450008071016070470146054A00200C321268E5
:104460000A4200D00120704701490E3108707047A0
:1044700000380240FFFFF6FE1030002400004742E3
:10448000800E47420000FFFF0024F400700100206E
:10449000FFFCFF0F10B501210C022046FFF78EFF35
:1044A0002046BDE810400021FFF788BF30B54268C4
:1044B000C84B0C791A400B6842EA0422134343604C
:1044C0008268C54B4D791A40D1E9034323438C6878
:1044D00044EA4504234313438360C26A097D22F4FE
:1044E0007002491EC9B242EA0151C16230BD0021C9
:1044F0000160017141718160C1600161012101753B
:104500007047B64B10B5D3F80423B5490A40D0E93B
:1045100000142143D0E90240044321431143C3F86E
:10452000041310BD0021016041608160C1607047CB
:104530000029816802D041F0010101E021F0010170
:10454000816070474268A74B1A400A434260704737
:10455000416282627047426822F01F020A43426051
:1045600070479E490028D1F8040302D040F40000AF
:1045700001E020F40000C1F80403704797490028C7
:10458000D1F8040302D040F4800001E020F4800060
:10459000C1F80403704770B5072409290AD9C56812
:1045A000A1F10A0606EB4606B440A543B3401D43FD
:1045B000C56007E0056901EB4106B440A543B3407F
:1045C0001D4305611F23072A09D2446B521E02EBCB
:1045D000820293409C4391400C43446370BD0D2A7A
:1045E00009D2046BD21F02EB820293409C4391409C
:1045F0000C43046370BDC46A0D3A02EB820293401F
:104600009C4391400C43C46270BD816841F080417D
:1046100081607047014600208968490200D5012069
:1046200070470029816802D041F4806101E021F4E3
:104630008061816070470029816802D041F00201E9
:1046400001E021F00201816070474268491E22F4B6
:10465000604242EA4131416070470029416802D01E
:1046600041F4006101E021F4006141607047C06CD9
:1046700080B270475948D0F8080370470029816814
:1046800002D041F4807101E021F4807181607047B3
:104690000029816802D041F4007101E021F4007129
:1046A000816070474D490028D1F8040302D040F4DE
:1046B000005001E020F40050C1F80403704770B5C9
:1046C000072409290AD9C568A1F10A0606EB46069E
:1046D000B440A543B3401D43C56007E0056901EB45
:1046E0004106B440A543B3401D430561836BC3F34A
:1046F0000154121B921C02EB82041F22A24093431E
:10470000A1400B43836370BD826B491E22F44012AB
:1047100042EA01518163704708B508440090026085
:1047200008BD826822F470220A4382607047826862
:1047300022F440120A4382607047816841F480018C
:1047400081607047014600208968490200D5012038
:1047500070470029416802D041F4806101E021F4F2
:104760008061416070470029416802D041F4805166
:1047700001E021F480514160704708B508442830B9
:104780000090006880B208BD01238B4041680AB1E7
:10479000194300E0994341607047024600201268C7
:1047A0000A4200D001207047C9430160704730B50C
:1047B0000246002053680C0A01258D4011682B40E9
:1047C000214202D0002B00D0012030BD6FEA112120
:1047D00001607047FFFEFFFCFDF7FFC000200140B5
:1047E000E030FCFFFFFD3FFF2DE9F043016821F0C1
:1047F000010101600021016041608160C1600161CF
:1048000021214161B849B84A3D251039904202D171
:104810008D60BDE8F083B44A4FF47466183290425C
:1048200001D18E60F5E7B04A4FF4741730329042F0
:1048300001D18F60EDE7AC4A4FF0746C4832904282
:1048400002D1C1F808C0E4E7A74BA84A60339842F8
:1048500001D1CA60DDE7A44CA54B7834A04201D158
:10486000CB60D6E7DFF88082A24C08F19008404583
:1048700001D1CC60CDE7DFF870824FF03D5908F1EF
:10488000A808404502D1C1F80C90C2E79A49DFF868
:1048900068820839404501D10D60BAE7964D183558
:1048A000A84201D10E60B4E7934D3035A84201D142
:1048B0000F60AEE7904D4835A84202D1C1F800C064
:1048C000A7E78D4D8C496035091FA84201D10A60C8
:1048D0009FE7894A7832904201D10B6099E7864A76
:1048E0009032904201D10C6093E7834AA832904203
:1048F0008FD1C1F800908CE730B503687F4ACC684F
:1049000013400A682243D1E905452C432243CC6970
:1049100022430C6A22434C6A22438C6A22434C6B2A
:1049200022438C6B22431A430260426922F0070340
:10493000D1E90B2422431A4342610A6942604A6862
:1049400082608968C16030BD002101604160816082
:10495000C160016141618161C16101624162816245
:10496000C16201634163816370470029016802D01D
:1049700041F0010101E021F00101016070470029CF
:10498000016802D041F4004101E021F400410160DE
:1049900070470029016802D041F0200101E021F0B8
:1049A00020010160704741607047406880B27047E5
:1049B000002A026802D042F4002201E022F4002220
:1049C0000260016170470029016802D041F4802132
:1049D00001E021F48021016070470AB10161704754
:1049E000C1607047014600200968090300D5012015
:1049F0007047014600200968C90700D001207047B0
:104A0000406900F03800704702463B4B00209A4254
:104A100002D2354A103A01E0374A103A8B0001D5EC
:104A2000526800E01268364B1A400A4200D001205A
:104A30007047314A904202D22B48103801E02E488C
:104A400010382F4A8B0001EA020101D5C16070477E
:104A5000816070470B0607D5436912B143F08003AC
:104A600001E023F080034361802908D0002A026816
:104A700001F01E0101D00A4300E08A430260704742
:104A800030B51D4A0024904202D2174B103B01E082
:104A9000194B103B1B4A114205D01E2202EAD125B8
:104AA00002682A4002E0406900F08002880001D5D7
:104AB000586800E01868124B1840084201D002B153
:104AC0000124204630BD0C4A904202D206481038DC
:104AD00001E0094810380A4A8B0001EA020101D5B9
:104AE000C160704781607047106002403D00002047
:104AF000400F002000003D20106402403F801CF069
:104B00007D0F7D0F3C0F3C0F374900200860091DC9
:104B10000860091D0860091D0860334933481431D5
:104B20000860704730B530498379026853B30B6829
:104B300093430B600A1D13680468A3431360027952
:104B40000A441368046823431360274A0832136831
:104B50000468A3431360131D1C680568AC431C6004
:104B60004479102C05D021440A68006802430A6089
:104B700030BD116804682143116019680068014361
:104B8000196030BD0079084401689143016030BD6F
:104B90000021016001710C2242718171704712493C
:104BA00010310A6802430A60704701460E4A00202D
:104BB000143212680A4200D0012070470A491431A9
:104BC00008607047084A014600201268064B0A40F8
:104BD00014331B680B4202D0002A00D0012070471A
:104BE0000149143108607047003C0140FFFF7F001D
:104BF000FE4910B5884206D101210846FFF7DEFBC9
:104C0000002101205BE0B0F1804F09D0F8498842D3
:104C10000DD101210220FFF7C7FB0021022070E027
:104C200001210846FFF7C0FB0021012069E0F1499E
:104C3000884206D101210420FFF7B6FB00210420A1
:104C40005FE0ED49884206D101210820FFF7ACFB67
:104C50000021082055E0E949884206D101211020B1
:104C6000FFF7A2FB002110204BE0E549884206D166
:104C700001212020FFF798FB0021202041E0E1499D
:104C8000884206D101210220FFF798FB0021022073
:104C900015E0DD49884202D101210C040AE0DB491C
:104CA000884202D101214C0404E0D94988420AD14A
:104CB00001218C042046FFF781FB00212046BDE83E
:104CC0001040FFF77BBBD349884206D10121402029
:104CD000FFF76AFB0021402013E0CF49884206D14C
:104CE00001218020FFF760FB0021802009E0CB49F3
:104CF00088420AD1841501212046FFF755FB002187
:104D00002046BDE81040FFF74FBB10BD30B502880C
:104D1000B64BBC4C98420DD0A0420BD0B0F1804FA6
:104D200008D0B34DA84205D0B24DA84202D0B24D32
:104D3000A84203D122F070054A882A43AF4DA84209
:104D400006D0AF4DA84203D022F440750A892A4309
:104D500002804A68C2620A880285984201D0A04255
:104D600001D1897A01860121818230BD4FF0FF3166
:104D7000416000210180018141808172704701857D
:104D800082827047028822F070020A4302807047D4
:104D900041627047C1627047406A7047008D70473A
:104DA0000029018802D041F0020101E021F0020156
:104DB000018070470029018802D041F0040101E020
:104DC00021F00401018070470029018802D041F0E0
:104DD000800101E021F0800101807047028822F00B
:104DE0000802028002880A4302807047028822F487
:104DF0004072028002880A430280704700290188BD
:104E000002D041F0010101E021F001010180704771
:104E100030B5028C22F001020284028C8388048B5C
:104E200022F0020224F073050C882C438D8915436F
:104E30004A882A436D4DA84202D0724DA8420DD136
:104E400022F00805CA8923F440732A4322F004059E
:104E50008A882A430D8A1D434B8A2B43838004830F
:104E600089684163028430BD70B5028C22F0100263
:104E70000284028C8488038B0D8823F4E6464FF667
:104E8000FF7303EA052535438E8922F0200203EAE9
:104E9000061616434A8803EA02123243534EB042C2
:104EA00002D0584EB04215D122F08006CA8924F4AF
:104EB000406403EA0212324322F040068A8803EA81
:104EC000021232430E8A03EA860626434C8A03EA1C
:104ED000840434438480058389688163028470BDBF
:104EE00070B5028C22F480720284028C8488838BD9
:104EF0000D8823F073031D4322F400738E894FF64F
:104F0000FF7202EA06261E434B8802EA032333435C
:104F1000364EB04202D03B4EB04215D123F400666B
:104F2000CB8924F4405402EA0323334323F48066FC
:104F30008B8802EA032333430E8A02EA06162643CD
:104F40004C8A02EA04143443848085838968C163EF
:104F5000038470BD70B5028C22F480520284048CEC
:104F60008288838B0D8823F4E6464FF6FF7303EAAD
:104F70000525354324F400568C8903EA0434344370
:104F80004E8803EA06362643184CA04202D01D4C38
:104F9000A04205D122F480440A8A03EA8212224305
:104FA0008280858389680164068470BD0021018048
:104FB0004180818081608181C1810182418270470D
:104FC00030B50124058C00F118038C40A5430584FD
:104FD00031B308292CD0091FC1F34E0018440168D1
:104FE00048F6FF731940016001681AE000000140B3
:104FF0000004004000080040000C00400010004089
:105000000014004000040140004001400044014001
:105010000048014000180040001C004000200040F3
:1050200006E04FF6FF7303EA02221143016030BD30
:1050300003EB510001684FF68F731940016001685E
:10504000F3E74163704781637047C1637047016450
:105050007047028B22F070020A4302837047028B72
:105060004FF6FF7322F4E04203EA0121114301836A
:105070007047828B22F070020A4382837047828BD2
:105080004FF6FF7322F4E04203EA012111438183CA
:105090007047028B22F008020A4302837047028B9A
:1050A0004FF6FF7322F4006203EA012111430183EA
:1050B0007047828B22F008020A4382837047828BFA
:1050C0004FF6FF7322F4006203EA0121114381834A
:1050D0007047028B22F004020A4302837047028B5E
:1050E0004FF6FF7322F4806203EA0121114301832A
:1050F0007047828B22F004020A4382837047828BBE
:105100004FF6FF7322F4806203EA01211143818389
:105110007047028B22F080020A4302837047028BA1
:105120004FF6FF73C2F30E0203EA0121114301831C
:105130007047828B22F080020A4382837047828B01
:105140004FF6FF73C2F30E0203EA0121114381837C
:105150007047028C22F002020A4302847047028CDC
:1051600022F008020A4302847047028C4FF6FF7354
:1051700022F0200203EA0111114301847047028CDE
:105180004FF6FF7322F0800203EA011111430184FC
:105190007047028C4FF6FF7322F4007203EA01217C
:1051A000114301847047028C4FF6FF7322F40062B2
:1051B00003EA0121114301847047028C4FF6FF730B
:1051C00022F4005203EA013111430184704710B503
:1051D0000123048C8B409C430484038C8A4013433A
:1051E000038410BD10B50423048C8B409C430484BD
:1051F000038C8A401343038410BD828B22F44062E7
:105200008283828B4FF6FF7303EA01210A43828374
:105210007047828B22F00C028283828B0A43828346
:105220007047028B22F440620283028B4FF6FF73B9
:1052300003EA01210A4302837047F0B5048C24F08D
:1052400010040484078B068C4FF6FF7404EA0115E2
:1052500027F4734704EA0331394304EA02220A437C
:1052600026F0A001294341F0100102830184F0BD22
:10527000028B22F00C020283028B0A4302837047E6
:105280002DE9F0410D460E884988AA882B890446ED
:105290000EB3042E26D0082E268C4FF6FF7028D091
:1052A00026F480562684A78B268C00EA022200EA88
:1052B000013127F473473A4300EA0330104326F4E0
:1052C00020420A4342F48051A0832184E988204689
:1052D000BDE8F04191E700F062F9E9882046BDE8B9
:1052E000F041C5E7FFF7A9FFE9882046BDE8F04196
:1052F00097E726F480762684A78B268C00EA012186
:1053000000EA0310104327F0F307384326F4206225
:105310000A4342F48071A0832184E9882046BDE8D5
:10532000F04176E700210180418001228280C18026
:10533000018170472DE9F0410C4600264988074657
:10534000012501B90226A288012A00D10225208860
:1053500023890028384610D0FFF76FFFE1883846D0
:10536000FFF75FFF23892A463146384600F017F9D8
:10537000E1883846BDE8F0417AE700F010F9E188AD
:105380003846FFF775FF23892A4631463846FFF72E
:1053900054FFE1883846BDE8F04142E7406B704772
:1053A000806B7047C06B7047006C704710B50A88FF
:1053B0004B88CC881A438B8823431A430B891A43A2
:1053C0004B8989891A430A43A0F8442010BD002163
:1053D000018041808180C18001814181818170474C
:1053E000002930F8441F02D041F4004101E0C1F32C
:1053F0000E01018070470029818802D041F004012C
:1054000001E021F00401818070470029818802D0E9
:1054100041F0010101E021F0010181807047002A83
:10542000828901D00A4300E08A43828170478182E9
:10543000704702460020128A0A4200D001207047BD
:10544000C9430182704702460020138A92890B42A9
:1054500002EA010202D0002A00D001207047C943AD
:10546000018270471143A0F848107047002A8289D2
:1054700001D00A4300E08A43828170470029818875
:1054800002D041F0080101E021F00801818070475D
:10549000018921F0070101817047028922F0700221
:1054A0000A430281704700B50346FFF7F6FF1889EB
:1054B00040F00700188100BD70B516460D46602902
:1054C00004464FF0010231460AD000F068F8294640
:1054D0002046FFF7E2FF208940F00700208170BDE1
:1054E000FFF7ABFEF3E730B504894FF6FF7505EA29
:1054F00003231343E4B20B432343038130BD10B5B0
:105500000446FFF7F0FF208940F07700208110BDAE
:1055100010B50446FFF7E7FF208940F48040208162
:1055200010BD828822F07002828082880A438280C5
:105530007047028922F00702028102890A43028130
:105540007047028922F08002028102890A430281A7
:10555000704770B50589048B068C25F007050D434F
:105560004FF6FC410C4040F201110C434FF6FF7125
:1055700001EA031126F02206114331430581048319
:10558000018470BD0029818802D041F0800101E0D2
:1055900021F0800181807047A0F85010704770B5ED
:1055A000048C24F001040484058B048C4FF6FF76F0
:1055B00006EA0313134325F0F3052B4324F00A02F4
:1055C0000A4342F001010383018470BDC74910B54D
:1055D000884206D101211020FEF7F0FE00211020A4
:1055E00028E0C349884202D101214C0410E0C1499E
:1055F000884202D101218C040AE0BF49884202D1CD
:105600000121CC0404E0BD4988420AD101210C05E6
:105610002046FEF7C9FE2046BDE810400021FEF7F7
:10562000C3BEB749884209D101212020FEF7C6FE3A
:1056300000212020BDE81040FEF7C0BE10BD7FB5A0
:105640000446008A0D4620F44051E8880843208231
:10565000A08941F20C618843A9882A8911436A898B
:1056600002431143A181A08A20F44071A889084314
:10567000A0826846FEF7E4FD9C48844202D0A04820
:10568000844201D1039800E00298A189090400EB4B
:10569000C00101EB0010296801D5490000E0890034
:1056A000B0FBF1F26420B2FBF0F109010B096FF0DD
:1056B00018056B4302EB8302A3891D044FF03203EC
:1056C00006D503EBC202B2FBF0F000F0070005E0E4
:1056D00003EB0212B2FBF0F000F00F000843208150
:1056E0007FBD4FF41651016000218180C18001818E
:1056F0000C2242818181704710B5028A4C8822F4C5
:1057000070630A8822438C88C9880C4322431A4359
:10571000028210BD0021018041808180C1807047DC
:105720000029818902D041F4005101E021F40051A7
:1057300081817047028B02F47F420283028B0A430D
:10574000028370470029818902D041F4004101E0C1
:10575000C1F30E01818170470029818A02D041F492
:10576000006101E021F4006181827047C1F308010A
:10577000818070478088C0F308007047028A22F059
:105780000F020282028A0A4302827047002981893D
:1057900002D041F0020101E021F002018181704755
:1057A000828922F40062828182890A438281704761
:1057B000028A22F020020282028A0A430282704791
:1057C0000029018A02D041F4804101E021F48041A6
:1057D00001827047818941F0010181817047002970
:1057E000818A02D041F0080101E021F008018182A4
:1057F0007047028BD2B20283028B42EA01210183FD
:1058000070470029818A02D041F0200101E021F097
:105810002001818270470029818A02D041F0100165
:1058200001E021F0100181827047828A22F0040297
:105830008282828A0A43828270470029818A02D04A
:1058400041F0020101E021F0020181827047002A4B
:10585000828A01D00A4300E08A438282704710B5F1
:10586000C1F3421301F01F040121A140012B07D015
:10587000022B07D01430002A026805D00A4304E046
:105880000C30F8E71030F6E78A43026010BD02469C
:10589000002012880A4200D001207047C9430180CD
:1058A000704730B501F01F0201240025C1F34213F7
:1058B00004FA02F2012B0FD0022B0FD0838A4FEA99
:1058C00011210088134204FA01F400EA040001D017
:1058D00000B10125284630BD8389F0E7038AEEE751
:1058E0000A0A01219140C94301807047001001401C
:1058F0000044004000480040004C00400050004080
:105900000014014010B501218C032046FEF756FD1E
:105910002046BDE810400021FEF750BD1349086045
:10592000704710B58A0721F003041149130F214471
:105930000F22D1F808489A409443C1F80848D1F89A
:10594000082898400243C1F8082810BD0949C1F849
:10595000DC00704708490860704704490020203186
:105960000968C90500D501207047000000380140D2
:105970000030014000002742000427422DE9F04199
:10598000054601F0A0F9FB4CA068401CA06020680F
:10599000F94F10B1606940B32DE02560A06801287F
:1059A00029D1002606EB860007EB800001F03CF8C9
:1059B000761C052EF6D3F048643001F035F8EE4839
:1059C000783001F031F8EC488C3001F02DF8EA48DD
:1059D000A03001F029F8E848B43001F025F8E64895
:1059E000643060631430A06305E02068E96AC06A2F
:1059F000884200D82560606A401C6062E96A012024
:105A0000226988401043206101EB810007EB800090
:105A1000291D01F017F801F072F9606900280CD017
:105A20002068E96AC06A884207D2D4494FF08050A2
:105A30000860BFF34F8FBFF36F8FBDE8F0812DE992
:105A4000FF5F8346DDE90E87994616468A46900039
:105A500001F030F805001AD0542001F02BF80400B2
:105A600012D025630021CDE90241CDE900874B46E4
:105A700032465146584600F071FF2046FFF77EFF40
:105A8000012004B0BDE8F09F284601F068F84FF00F
:105A9000FF30F6E770B5054601F015F9B54C05B9CC
:105AA0002568281D00F0F2FF58B9E86AB24A00EBF9
:105AB000800152F8211021B90121814020698843D9
:105AC0002061A86A18B105F1180000F0DFFF606AD4
:105AD000401C60622068854208D1A748291DA0307B
