:020000040800F2
:10000000F03A012021520008390200083B020008A2
:100010003D0200083F020008410200080000000005
:10002000000000000000000000000000A101000826
:100030004302000800000000E50100086981000893
:100040003B5200083B5200083B5200083B5200085C
:100050003B5200083B520008C50400083B52000810
:10006000C30400083B5200083B5200083303000859
:100070000D030008A1030008AB0300086902000893
:100080003B5200087F0300083B5200083B52000827
:100090003B5200083B5200083B520008CB040008CA
:1000A0003B520008110400083D0400083B520008C0
:1000B0003F0400085F0400087F0400083B5200086A
:1000C0003B5200083B5200083B520008BF040008A6
:1000D0003B520008490200083B5200083B5200080E
:1000E000030700083B5200083B5200083B5200083F
:1000F0003B5200083B5200083B52000855030008E1
:100100003B5200083B5200089F040008C10400084D
:100110003B5200083B520008D703000809040008BE
:100120009702000871020008BD0200083B52000857
:100130003B5200083B5200083B5200083B5200086B
:100140003B5200083B5200083B5200083B5200085B
:10015000030300083B5200083B5200083B520008D2
:100160003B5200083B5200083B5200083B5200083B
:100170003B5200083B5200083B5200083B5200082B
:100180003B5200083B520008DFF810D008F0C2FCD8
:1001900000480047F74F0008AFF30080F03A012015
:1001A000224B19680868B0E8F00F80F30988BFF3A4
:1001B0006F8F4FF0000080F311884EF00D0E7047E6
:1001C0000000000006480068006880F3088862B6F6
:1001D00061B6BFF34F8FBFF36F8F00DF00BF00BF6B
:1001E00008ED00E0EFF30980BFF36F8F0F4B1A6843
:1001F00020E9F00F106008B54FF0500080F311882F
:10020000BFF34F8FBFF36F8F07F090F84FF00000F0
:1002100080F31188BDE8084019680868B0E8F00F5D
:1002200080F30988BFF36F8F704700BF8C010020F7
:10023000EFF30580704700007047FEE7FEE7FEE73A
:10024000FEE770477047704710B5F84C40F22551F3
:10025000204606F04AFD002805D02046BDE81040A3
:10026000202106F03FBD10BDF149F24805F04FBE18
:1002700070B5F14CF14D2146284605F025FE0028C9
:1002800008D02146284605F042FE01F0DDFBEC498E
:100290000120087070BD70B5E84DEA4C183D21464C
:1002A000284605F011FE002807D001F0FBFE21468C
:1002B0002846BDE8704005F02ABE70BDDF4810B585
:1002C000E149183005F023FEE048417A0D2905D0B8
:1002D000BDE810400021D54806F046BC41780278C0
:1002E00041EA0221DA4A1180C178827841EA02218A
:1002F000D84A11804179007941EA0020D649088026
:1003000010BDCE48D549603005F001BE70B5C94D6D
:10031000C94C483D2146284605F0D6FD002807D0A7
:100320002146284605F0F3FDBDE8704000F0A7BB6C
:1003300070BD70B5BF4DC34C603D2146284605F0E9
:10034000C3FD002805D021462846BDE8704005F0D1
:10035000DEBD70BD70B5B74CC14D4834294620464E
:1003600005F0B2FD002809D00021204605F021FD4E
:1003700029462046BDE8704005F0C9BD70BD70B586
:10038000AC4DB84C30352146284605F09DFD00287F
:1003900005D021462846BDE8704005F0B8BD70BDC7
:1003A000A448A349303805F0B2BD10B5A14CAE4900
:1003B000183C204605F088FD00280BD04FF0C051B6
:1003C000204605F05AFD0021204605F0F2FCA74921
:1003D0000020086010BD10B50121A54806F063FAA1
:1003E000A4480078914CA08002F014FF0121A2489B
:1003F00006F0BAFB0121A14806F0B6FB2046BDE895
:100400001040012106F0B0BB01219D4806F04BBA17
:1004100010B59C4C0121204606F039FA00280CD07A
:100420000121204606F03FFA2088C106964801685F
:1004300001D5491E00E0491C016010BD704710B590
:1004400001218C07204606F02EFA2088C1068F482D
:10045000016801D5491E00E0491C016010BD10B5BE
:100460008B4C0121204606F01EFA2088C1068948DF
:10047000016801D5491E00E0491C016010BD10B59E
:10048000854C0121204606F00EFA2088C1068348DB
:10049000016801D5491E00E0491C016010BD10B57E
:1004A0007F4C0121204606F0FEF92088C1067D48D8
:1004B000016801D5491E00E0491C016010BD70476C
:1004C00070477047012005F0A1BD2DE9F05F4FF4A2
:1004D000807B754D5C465946284604F0D1FF07469F
:1004E0004FF4007A5146284604F0CAFF0646202100
:1004F0006E4804F0C5FF0546204605F087FD6C4CAC
:100500004FF0000948B3012F03D0B6B3012E38D005
:1005100020E0DFF86C81404605F062FE65490A681C
:1005200002EB421202EB42021044634A1060C1F82F
:1005300000900021404605F04FFE012E01D026B16B
:1005400008E03DB92068401C03E0012D02D120687D
:10055000401E2060584605F067FDD346504605F022
:1005600055FDDFF858814FF0010A90B3012E0BD0F2
:1005700098F80000012812D01BE0FFE7012DE1D020
:10058000E8E7002DE3D0E5E73D4805F029FEC8F88F
:10059000100088F800A087B1012F13D016E038486A
:1005A00005F01EFED8F81020801AC8F8080088F858
:1005B0000090012F1AD0E7B108E0012D06D1206884
:1005C000401C02E015B92068401E2060584605F026
:1005D0002BFD202005F01AFD002826D0012D0BD080
:1005E00098F801004546012811D018E0002DE6D00A
:1005F000ECE7012DE7D0E9E7214805F0F1FDC8F867
:10060000140088F801A0012F5AD067B161E01C489E
:1006100005F0E6FD6969401AE86085F801901FB1B0
:10062000012F5ED055E04FE058E05DE00010014042
:100630002080002070600240008800102864024082
:10064000190000202080001000802010EA090020FE
:1006500030000020340000203600002000880020F8
:100660000080002800802020008000186C000020FE
:10067000001000402000002000480040001401400D
:100680000014004000000140C8000020CC00002001
:1006900000040040D000002000080040D4000020EA
:1006A000000C0040D800002000080240001002406A
:1006B00064010020600100205C0100200000002097
:1006C0003EB92068401C03E0012E02D12068401E84
:1006D0002060BDE8F05F202005F0A6BC012EF0D020
:1006E000F7E7002EF2D0F4E7BDE8F09F074948682D
:1006F0008A68824200D98868CA68824200D9C8687C
:1007000070474FF4004005F081BC0000000000205D
:1007100070B5054607F084FD04462946FC4807F0FD
:1007200086FD002816D095222946F94807F06CFD71
:10073000F84D0021284605F03CFBF648F449B8384E
:10074000C0F8C410C0F8BC402846BDE87040012184
:1007500005F02FBB70BD70B5EF4D06460024315D2E
:1007600000290BD0284606F025FA8021284606F0FD
:10077000B2FA0028F9D0641CE4B2F0E770BD70B59D
:10078000E54E05460024002D0DD02946304606F0E2
:1007900011FA8021304606F09EFA0028F9D0641C38
:1007A000E4B2032CEFD370BD13B50C460020FFF765
:1007B000E6FFDAA0FFF7CFFFD5482346D8A296215F
:1007C000E63808F0F1F9D248E638FFF7C4FFD5A0C3
:1007D000FFF7C1FFCE48D2A29621E638009B08F071
:1007E000E3F9CB48E638FFF7B6FFD0A0FFF7B3FF39
:1007F000FF20FFF7C4FFFF20FFF7C1FFBDE81C404B
:10080000FF20BCE770B505460C46C4A0FFF7A3FF68
:10081000BF482246C2A1E63808F0E0F9BC48E638F5
:10082000FFF799FFBFA0FFF796FF2846FFF793FF5A
:10083000BEA0FFF790FFBDE87040FF209FE777B5AF
:10084000B8A185B00646D1E90001CDE90001B7A005
:10085000002200680390B1A0AD4D0068283DA5F1CD
:1008600028030290AA4C1146A3F19600A95499546A
:100870008154A154521CD2B21E2AF7D30A2101700E
:10088000FF2444708470C470A148A5A15038079A11
:1008900008F0A4F99E4902A8503907F0A9FC9C4829
:1008A00002A9E63807F0A4FC99486946E63807F043
:1008B0009FFC97483146E63807F09AFC944898A187
:1008C0005038069A08F08AF991495039A1F19600FA
:1008D00007F08EFC8E4803A9E63807F089FC8C49A6
:1008E0002C706C702839AC70A1F1BE0007F080FC50
:1008F0008748E638FFF70CFF08B070BD2DE9F741D7
:10090000884688A185B00646D1E90001CDE90001FD
:1009100086A000220068039080A07D4D0068283DDD
:10092000A5F1280102901446A1F19600AC548C5414
:100930008454521CD2B20A2AF8D30A210170FF272C
:1009400047708770C770724875A15038079A08F0D1
:1009500045F96F4902A8503907F04AFC6C4802A9D2
:10096000E63807F045FC6A486946E63807F040FC7F
:1009700067483146E63807F03BFC65484146E638B3
:1009800007F036FC624803A9E63807F031FC2F7007
:100990006F705F49AF70EC7028392C71A1F1BE0007
:1009A00007F026FC5A48E638FFF7B2FE08B0BDE86B
:1009B000F08101B58EB05EA2322168460E9B08F030
:1009C000F3F86846FFF7A4FE0FB000BD73B555A15C
:1009D00084B00646D1E90001CDE9000153A0002210
:1009E000006803904DA04A4D0068283DA5F12803FA
:1009F0000290474C1146A3F19600A9549954815492
:100A0000A154521CD2B21E2AF7D30A210170FF242E
:100A100044708470C4703E4841A15038059A08F073
:100A2000DDF83B4902A8503907F0E2FB384802A93B
:100A3000E63807F0DDFB36486946E63807F0D8FBB4
:100A400033483146E63807F0D3FB31495039A1F13C
:100A5000960007F0CDFB2E4803A9E63807F0C8FB47
:100A60002B492C706C702839AC70A1F1BE0007F0D6
:100A7000BFFB2748E638FFF74BFE06B070BDF0B568
:100A80002E4885B001784278C4780A4481780B19E1
:100A90001A4403791A4443791A4483791A44C3796E
:100AA0001344027A1344DBB202F00F0202938DF872
:100AB0000020407A984201D10D2A0AD09DF800000A
:100AC0000D2869D005B00021BDE8F0401C4806F0B3
:100AD0004BB8C1F17F0007F02BFE0546A4F1810061
:100AE00007F026FE044615F0FF4F4FF07E5000D170
:100AF000054614F0FF4F00D10446284607F032FEA9
:100B00000746204607F02EFE002F1BDB3A461AE070
:100B1000D6020020B860024000500040740000007F
:100B2000256400002E7478743D220000220000002D
:100B30006A302E76616C3D2564000000F9090020C2
:100B4000004800407A42011E00DA4142114401EBA4
:100B5000D1714910FE4EB165002800DA40423228BA
:100B600006DA380000D57842322801DA002012E097
:100B7000204607F02FFE07460C46284607F02AFEBF
:100B80003A46234608F05AFD4FF00042F14B07F079
:100B9000D7FC07F000FE706505B0F0BDEE48017AA5
:100BA00001F00F010D2904D10078C00701D00D20FC
:100BB000704700207047E8480078800701D5012081
:100BC00070470020704701B581B0019800EBC0006C
:100BD00040000090002801D0401EFAE70CBD01B58E
:100BE00081B044F25061019848430090002801D040
:100BF000401EFAE70CBD1CB501210F2004F0A8FD32
:100C00004CF6804000906946D44804F0D3FB4FF482
:100C1000034000906946D24804F0CCFB41F6031033
:100C2000009001208DF8040000218DF806108DF849
:100C3000070003208DF805006946CA4804F0BAFB96
:100C40004FF6C17000906946C74804F0B3FB1CBD65
:100C50001CB50121162004F07BFD00208DF8040056
:100C600001208DF8070002208DF805004FF4C040E8
:100C700000906946BA4804F09DFB03200090694645
:100C8000B64804F097FB4FF2FF5000906946B74812
:100C900004F090FB1CBD1FB54FF4E06004F0D2FAE5
:100CA00036208DF80C0002208DF80D008DF80E0016
:100CB00001208DF80F0003A804F0C9FA01211020CB
:100CC00004F064FD3220ADF8000040F2E7300190FE
:100CD0000020A74CADF80800ADF802006946204698
:100CE00005F038FA0121204605F0DDFD012211460C
:100CF000204605F0B8FD0021204605F06DFA0121DF
:100D0000204605F09FFA1FBD1FB54FF4E06004F0C8
:100D100099FA37208DF80C0000248DF80D408DF8DD
:100D20000E4001208DF80F0003A804F090FA012175
:100D3000202004F02BFD3220ADF80000ADF8084073
:100D4000ADF8024063208B4C01906946204605F0C7
:100D500001FA0121204605F0A6FD01221146204698
:100D600005F081FD0021204605F036FA01212046DC
:100D700005F068FA1FBD70B58AB00121042004F0A7
:100D800005FD01210D2004F0E3FC744E02220C212C
:100D9000304604F098FB02220D21304604F093FB0C
:100DA00002220E21304604F08EFB02220F21304633
:100DB00004F089FB4FF47040059002208DF8180074
:100DC00003208DF8190000248DF81A4001258DF8B4
:100DD0001B5005A9304604F0EDFAA420ADF81C0024
:100DE0002802654E0890ADF82400ADF81E4007A912
:100DF000304605F0AFF97020ADF80000ADF80250B4
:100E00000294ADF80C400121304605F01BFA002198
:100E1000304605F0E1F96946304605F01DFA6946AD
:100E2000304605F045FA6946304605F07DFA6946D8
:100E3000304605F0B3FA0AB070BD2DE9F047012144
:100E40008AB0084604F0A2FC0121022004F09EFCB6
:100E50000121032004F07CFCDFF8089101220F211E
:100E6000484604F030FBDFF80081012203214046B0
:100E700004F029FB02220421404604F024FB022254
:100E80000521404604F01FFB02268DF8046003276D
:100E900038208DF80570002400908DF8064001255B
:100EA0008DF807506946404604F084FA8DF80460D6
:100EB000E8038DF8057000908DF806408DF8075016
:100EC0006946484604F076FA4FF6FF70ADF80C40DC
:100ED00004904FF08049ADF81440ADF80E4003A9DE
:100EE000484605F037F9DFF894A003A9504605F00D
:100EF00031F94FF004081420ADF81880ADF8200047
:100F0000ADF81A60ADF81C5006A9484605F0DCFBA8
:100F100006A9504605F0D8FB02231A46032148468D
:100F200005F03BFD02231A460321504605F035FD2E
:100F30000121484605F0B7FC0121504605F0B3FCFD
:100F400001221146484605F08EFC0122114617E0A9
:100F500098000020A9E78140F9090020000C024018
:100F6000000802400000024000040240001002405D
:100F70000010004000140040000800400004004041
:100F8000504605F070FC0121484605F05BF901214F
:100F9000504605F057F90021484605F01DF900219B
:100FA000504605F019F9780204F04CF91D208DF82F
:100FB00008008DF809708DF80A408DF80B5002A8D2
:100FC00004F045F91C208DF808008DF809808DF893
:100FD0000A408DF80B5002A804F039F90AB0BDE8B8
:100FE000F0872DE9F04101218AB0084604F0D8FBD2
:100FF0000121102004F0ACFB4FF4206000904FF072
:10100000020803208DF8048000248DF805008DF877
:10101000064001258DF807506946FE4F384604F01A
:10102000C9F94FF6FF70FC4EADF808400390ADF8DB
:101030001040ADF80A4002A9304605F08BF80122B5
:101040000921384604F03FFA01220B21384604F00A
:101050003AFA0427C820ADF81470ADF81C00ADF8BA
:101060001680ADF8185005A9304605F02DFB022377
:101070001A460321304605F090FC0121304605F068
:1010800012FC01221146304605F0EDFB01213046ED
:1010900005F0D8F80021304605F09EF8B48235807E
:1010A0004FF4C06004F0CEF819208DF820008DF8C0
:1010B00021708DF822408DF8235008A804F0C7F85D
:1010C0000AB074E42DE9F0418AB00121042004F053
:1010D0005DFB0121082004F03BFB4FF44050022649
:1010E00000908DF8046003208DF805000024CB4F9C
:1010F0008DF8064001258DF807506946384604F002
:1011000059F94FF6FF70DFF81883ADF808400390E7
:10111000ADF81040ADF80A4002A9404605F01AF8B3
:1011200002220C21384604F0CEF902220D21384665
:1011300004F0C9F90427C820ADF81470ADF81C00FC
:10114000ADF81660ADF8185005A9404605F0BCFA98
:1011500002231A460321404605F01FFC01214046A8
:1011600005F0A1FB01221146404605F07CFB012160
:10117000404605F067F80021404605F02DF8A848E4
:1011800014300480A8F800504FF4C06004F05AF8FE
:101190001E208DF820008DF821708DF822408DF8EA
:1011A000235008A804F053F88AE72DE9F0418AB0EB
:1011B0000121082004F0EAFA0121084604F0C8FAE7
:1011C000032002268DF804608DF805000024954F59
:1011D00000908DF8064001258DF807506946384685
:1011E00004F0E8F84FF6FF70DFF83C82ADF80840F5
:1011F0000390ADF81040ADF80A4002A9404604F053
:10120000A9FF02220021384604F05DF902220121E3
:10121000384604F058F90427C820ADF81470ADF82A
:101220001C00ADF81660ADF8185005A9404605F051
:101230004BFA02231A460321404605F0AEFB01217A
:10124000404605F030FB01221146404605F00BFBFD
:101250000121404604F0F6FF0021404604F0BCFFA7
:10126000714814300480A8F800504FF4C06003F0B7
:10127000E9FF32208DF820008DF821708DF8224092
:101280008DF8235008A803F0E2FF19E72DE9F0419B
:101290009CB00121654804F05BFA01210E02304642
:1012A00004F07EFADFF8888101221021404604F024
:1012B000F5FD38208DF86C0000248DF86D408DF818
:1012C0006E4001258DF86F501BA803F0C0FF5948F0
:1012D00002A9CDE9004058480E2781E89100A802F4
:1012E000CDE90540400007908000CDE908060AA935
:1012F000000181E831000D94694640460E9404F0E7
:101300001FFD0121404604F054FD012004F04DFB77
:10131000FC2003260F908DF840608DF843400FA904
:10132000404804F047F830020F908DF840608DF887
:1013300043400FA9414804F03DF83F200F908DF83D
:1013400040608DF843400FA93D4804F033F8300465
:10135000CDE91740199417A81A9404F0F6FA1194DD
:10136000139414941594334C8DF848504C3C8DF8DC
:1013700049508DF8587011A9204604F0BBFA072394
:1013800001220221204604F02AFB07230222032126
:10139000204604F024FB072303220421204604F006
:1013A0001EFB072304220521204604F018FB072317
:1013B00005220621204604F012FB072306221946C7
:1013C000204604F00CFB07231A460821204604F0AF
:1013D00006FB072308220921204604F000FB07230F
:1013E00009220A21204604F0FAFA07230A220B21D7
:1013F000204604F0F4FA07230B220C21204604F0C7
:10140000EEFA07230C220D21204604F0E8FA072308
:101410000D2217E00010024000000140000C0240C5
:101420000008004000000240000C0040070040009F
:10143000106402404C2001406C0300200004024074
:10144000000802400E21204604F0C9FA07230E22AC
:101450000F21204604F0C3FA0121204604F03CFB92
:101460000121204604F02EFB0121204604F084FADD
:10147000204604F0EEFA1CB0BDE8F08170B50546D8
:1014800096B00121102004F08BF90121084604F0E8
:101490005FF90121880504F05BF94FF4C0601390F7
:1014A00002208DF8500000248DF852408DF85340F2
:1014B000FF4E8DF8510013A9304603F07BFF072241
:1014C0000921304603F0FFFF07220A21304603F0CE
:1014D000FAFF0F95ADF844400C20F64DADF84040B2
:1014E000ADF84600ADF84240ADF848400FA9284697
:1014F00005F0C9FA0121284605F036FB4FF4A0603B
:1015000003F0A0FE3A208DF8540001218DF855100B
:101510008DF856108DF8571015A803F098FEE64E7A
:10152000304604F085FB4FF000600090E348CDE9C1
:1015300002040A200490281D01900015CDE9054001
:101540008010CDE9084040020A9004200B900794D7
:101550000320CDE90C04694630460E9404F0F0FBFC
:1015600001224021284605F096FB01221021304639
:1015700004F094FC0121304604F01BFC16B070BD51
:101580002DE9F04F8046012197B0880404F0FEF861
:101590000121082004F0DCF80121480504F0D8F806
:1015A00002268DF8546000244FF440708DF85640A8
:1015B0000125C34F14908DF857508DF8556014A92C
:1015C000384603F0F7FE07220821384603F07BFF78
:1015D00007220921384603F076FFDFF8E8B2ADF8BC
:1015E0004440ADF848400C27CDF84080ADF8464067
:1015F000ADF84C40ADF84A7010A9584605F043FAD2
:101600000121584605F0B0FA4FF4A06003F01AFE2D
:101610008DF83C708DF83D508DF83E508DF83F5060
:101620000FA803F014FE0E208DF83C008DF83D60ED
:101630008DF83E408DF83F500FA803F008FEDFF80C
:1016400088A2504604F0F4FA9C48ED060F30CDE92C
:10165000020404A90A206F1481E8910008A84FF43D
:1016600080784FF40039079480E810030BF10406EA
:101670000B94CDE900566946504604F061FB012207
:101680004021584605F007FB01221021504604F086
:1016900005FC0121504604F08CFBDFF82CA20AF176
:1016A000300A504604F0C4FA844800952138CDE948
:1016B00001604020039004A9212081E8910008A83E
:1016C000079480E81003694650460B9404F038FBF9
:1016D00001228021584605F0DEFA012210215046F1
:1016E00004F0DCFB0121504604F063FB17B0BDE8B9
:1016F000F08FF0B50646012197B0C80404F046F813
:101700000121084604F024F80121480504F020F8DE
:1017100002208DF8500000248DF852408DF853407F
:10172000634F03258DF85100139513A9384603F034
:1017300041FE08220021384603F0C5FE082201219F
:10174000384603F0C0FE0F96ADF844400C205F4EC3
:10175000ADF84040ADF84600ADF84240ADF8484025
:101760000FA9304605F08FF90121304605F0FCF94C
:101770004FF4A06003F066FD0D208DF854008DF845
:1017800055408DF8564001208DF8570015A803F0FC
:101790005EFD4D4F1837384604F04AFA7805009040
:1017A000464869461E30CDE9020408200490301DE9
:1017B00001900015CDE905408010CDE908404002B8
:1017C00007940A900420CDE90C540B9038460E94EF
:1017D00004F0B6FA01224021304605F05CFA0122FD
:1017E0004021304605F057FA01221021384604F016
:1017F00055FB0121384604F0DCFA17B0F0BD2DE9A5
:10180000F0418046012196B0480503F0A1FF012177
:10181000080503F0BBFF01210C2003F099FF02250E
:101820008DF8405000248DF84240254F04268DF855
:1018300043400F968DF841500FA9384603F0BAFD8A
:101840008DF840508DF842408DF84340E8028DF805
:1018500041501F4D0F900FA9284603F0ABFD082201
:101860000221384603F02FFE08220C21284603F0FF
:101870002AFE4FF4A06003F0E5FC2F208DF8540001
:1018800005208DF855008DF8560001208DF8570081
:1018900015A803F0DCFCADF84840CDF84480ADF865
:1018A0004A40ADF84C40ADF850400C2012E000002A
:1018B000000002400010014040640240EA0900209C
:1018C000000C02400048004028600240004C0040EC
:1018D00000080240FF4DADF84E0011A9284605F062
:1018E000D2F80121284605F03FF9FB4F384604F0B5
:1018F0009FF97006009040200390F84802909520D0
:101900000490281D01900015CDE905408010CDE917
:1019100008404002CDE90A0607940320CDE90C04F3
:10192000694638460E9404F00BFA012280212846BD
:1019300005F0B1F901221021384604F0AFFA012177
:10194000384604F036FA16B096E5F0B5054697B07D
:101950000121202003F024FF0121042003F0F8FEE0
:101960000121880503F0F4FEC020139002208DF8B9
:10197000500000248DF852408DF85340D84E8DF819
:10198000510013A9304603F015FD08220621304608
:1019900003F099FD08220721304603F094FDADF8CD
:1019A00044400C20CF4EADF84040ADF846000F95B6
:1019B000ADF84240ADF848400FA9304605F063F855
:1019C0000121304605F0D0F84FF4A06003F03AFC56
:1019D00039208DF8540003258DF8555001218DF8DC
:1019E00056108DF8571015A803F031FCBE4F38463D
:1019F00004F01EF9B8050090BC48CDE902040F20A0
:101A00000490301D01900015CDE905408010CDE90E
:101A10000840400207940A900420CDE90C540B9032
:101A2000694638460E9404F08BF901224021304675
:101A300005F031F901221021384604F02FFA012176
:101A4000384604F0B6F9D8E618B5A84A50788DF8AB
:101A500000009DF80000104483789DF80000AA3033
:101A6000C1B2002004E01418A478401C2144C9B27B
:101A70009DF80040A042F6DB12789D48AA2A03D1C7
:101A80008B4201D1012100E00021417018BDF0B569
:101A90000646012197B0480503F05AFE01214D0486
:101AA000284603F073FE0121082003F051FE602058
:101AB000139002208DF8500000248DF852408DF8CC
:101AC00053408C4F8DF8510013A9384603F072FC37
:101AD00007220521384603F0F6FC07220621384686
:101AE00003F0F1FC0F96ADF844400C20824EADF8A7
:101AF0004040ADF84600ADF84240ADF848400FA96F
:101B0000304604F0C0FF0121304605F02DF84FF4B7
:101B1000A06003F097FB11208DF854008DF855401C
:101B20008DF8564001208DF8570015A803F08FFB63
:101B3000694F183F384604F07BF8A8020090402017
:101B400003906E4802903C200490301D01900015D7
:101B5000CDE905408010CDE908400420CDE90A50C8
:101B600007940320CDE90C04694638460E9404F02E
:101B7000E7F801228021304605F08DF8012280210E
:101B8000304605F088F801221021384604F086F925
:101B90000121384604F00DF92FE630B585B001215A
:101BA000142003F0D5FD0121880303F0F9FD002581
:101BB0004FF440708DF80450012400908DF80740D8
:101BC0006946474803F0F6FB6020009069464C48A0
:101BD00003F0F0FB0821022005F0C7F809210220DC
:101BE00005F0C3F80521042005F0BFF80621042004
:101BF00005F0BBF84FF4587002908DF80C5010208F
:101C00008DF80D008DF80E4002A804F0AFF91720F2
:101C10008DF810008DF811408DF812508DF813409A
:101C200004A803F014FB05B030BD10B5C378002242
:101C300002219B1CDBB204E0445C491C224492B2AA
:101C4000C9B28B42F8D2D0B2C0F1FF0010BD10B5BE
:101C50001C460346FF2020706070A3700720E070D0
:101C6000032020712A206071080AA071E171100A16
:101C7000207262722046FFF7D8FFA07210BD30B507
:101C80000C461A4B154601466F3BC8220120FFF750
:101C9000DEFF164BC822643B21460220FFF7D7FF28
:101CA000124BC822593B29460320FFF7D0FF0F48AB
:101CB000A738816BC0F85910C16BC0F85D10B0F83F
:101CC0004010A0F8611090F8421080F86310D0F82E
:101CD000431017E000500040B8600240D6020020D8
:101CE000000802400014014028640240170A002046
:101CF00018000020000C0240004400402001002099
:101D0000001002404166D0F847108166B0F84B10D1
:101D1000A0F86C1090F84D1080F86E10D0F84E10AE
:101D2000C0F86F10D0F85210C0F87310B0F8561009
:101D3000A0F8771090F8581080F8791030BD70B581
:101D4000FB4C606D002816D1E289A1896089FFF7FC
:101D500096FFF948F74941662121C165F64D4FF0DC
:101D6000C0515835284604F088F80121284604F06F
:101D700020F80120606570BD10B5012810D003283F
:101D800019D0042822D0052809D1EC4C204604F0B3
:101D900011FF4021204604F09EFF0028F9D010BD1D
:101DA000E74C204604F006FF4021204604F093FF54
:101DB0000028F9D010BDE34C204604F0FBFE402182
:101DC000204604F088FF0028F9D010BDDE4C2046E4
:101DD00004F0F0FE4021204604F07DFF0028F9D0F9
:101DE00010BD2DE9FC41D94E304604F0F9F9D04D33
:101DF0008035296BB04640EA014000244CF2503651
:101E00004FF6E8570190404604F0EAF9296B40EAA2
:101E1000014000900100019800D54942002800DAF5
:101E20004042081AB04200DA641C00980190BC429B
:101E300001DC022CE7DB0098BDE8FC812DE9FC41C8
:101E4000C24E304604F0CCF9B94D8035296BB0460E
:101E500040EA014000244CF250364FF6E85701901A
:101E6000404604F0BDF9296B40EA014000900100B2
:101E7000019800D54942002800DA4042081AB042D1
:101E800000DA641C00980190BC4201DC022CE7DB04
:101E90000098642190FBF1F0CEE72DE9FC414FF072
:101EA0008046304604F09CF9A14D8035696BB04600
:101EB00040EA014000244CF250364FF6E8570190BA
:101EC000404604F08DF9696B40EA01400090010042
:101ED000019800D54942002800DA4042081AB04271
:101EE00000DA641C00980190BC4201DC022CE7DBA4
:101EF0000098A1E72DE9FC41954E304604F070F9B9
:101F00008B4D8035A96BB04640EA014000244CF26D
:101F100050364FF6E8570190404604F061F9A96B3E
:101F200040EA014000900100019800D54942002894
:101F300000DA4042081AB04200DA641C00980190AE
:101F4000BC4201DC022CE7DB009875E72DE9FC417F
:101F5000804E304604F044F9754D8035E96BB0464B
:101F600040EA014000244CF250364FF6E857019009
:101F7000404604F035F9E96B40EA01400090010069
:101F8000019800D54942002800DA4042081AB042C0
:101F900000DA641C00980190BC4201DC022CE7DBF3
:101FA000009849E72DE9FC416B4E304604F018F9E2
:101FB0005F4D8035296CB04640EA014000244CF268
:101FC00050364FF6E8570190404604F009F9296C65
:101FD00040EA014000900100019800D549420028E4
:101FE00000DA4042081AB04200DA641C00980190FE
:101FF000BC4201DC022CE7DB00981DE74C4A0021C3
:10200000803201280CD002280ED0032811D00428D9
:1020100014D0052803D15048243001601164704762
:102020004A484162116370474FF0804041625163FA
:102030007047474824300160916370474548243019
:102040000160D16370473EB501680091416801911C
:102050000089ADF8080000206A46411C0C460AE0E1
:1020600032F8103032F81150AB4203D922F8105038
:1020700022F81130491C89B20529F1D3A0B20428F5
:10208000EBD3BDF804003EBD0022114630F81130FC
:10209000491C89B21A443229F8D33220B2FBF0F03D
:1020A00080B27047F0B52D4F214D002407F18C060A
:1020B00004EB8402042107EB420000BF00EB410364
:1020C00033F8023C20F81130491E0904090CF5D1FF
:1020D0002249383931F8141027F81210FFF7B3FFEE
:1020E00004EBC40101EB04112A7806EB8101641CA6
:1020F000A4B221F812000E2CDAD32878401CC0B20A
:102100002870322801D300202870144D00241C3D73
:1021100004EBC40000EB041006EB8000FFF7B4FFF3
:1021200025F81400641CA4B20E2CF1D3F0BD0000FD
:1021300018000020C9090020006002400050004043
:102140000010014000440040004C004000000140ED
:102150000004004000080040000C0040A4030020E0
:1021600010B5F84C00206072612020726420FEF7E8
:1021700036FD012060727A20207210BD10B5F14C3E
:1021800000206072612020726420FEF728FD01208B
:1021900060727A20207210BD2DE9F0410E4605468E
:1021A00006F018FB07460C46304606F013FB3A468D
:1021B000234607F043FAE44AE44B06F0C1F906F07F
:1021C000EAFAE04F8037F8653146084606F095F8A0
:1021D00004462946084606F090F8214606F035F8F0
:1021E00006F0F8FA07F0C4FC06F0D5FA3866BDE848
:1021F000F0812DE9F14F9AB00020D54A0090D14FDF
:102200001A9B8DF83C00DFF84CA3D34D9614D349AC
:102210004FF4004B07F180004FF480444FF4806886
:10222000252B7CD2DFE803F0132E32363A3E4246AD
:102230004A4E5256585F63676BD2FEFDFCFBFAF9BB
:10224000F8F7F6F5F4F3F2F1F0EFEEEDEC00022121
:10225000104603F015F950B101225946504603F0DB
:1022600027F98021284603F01FF900224BE10022C4
:102270005946504603F01CF98021284603F016F910
:1022800000224EE141680122B5A080E201680222ED
:10229000B8A07CE2F96F0322BBA078E2796F042238
:1022A000BEA074E2B96F0522C0A070E2396F0622A9
:1022B000C2A06CE2816A0722C4A068E2C16A082257
:1022C000C6A064E2416A0922C8A060E2416A0A220B
:1022D000CAA05CE20B2222E2B86E06F043FA014685
:1022E0000C22CAA053E281680D22CAA04FE2C16845
:1022F0000E22CDA04BE201690F22CFA047E20121BF
:10230000D24803F0BDF84FF400590E9049465746A5
:10231000504603F0B5F80D900221CC4800E038E2B9
:1023200003F0AEF80C902146384603F0A9F80B9064
:102330000421C64803F0A4F80A905946C34803F0A4
:102340009FF883460821C14803F09AF88246214647
:10235000BE4803F095F807901021BC4803F090F8B0
:1023600004464946B94803F08BF8814608212F46B8
:10237000284603F085F805463146B44803F080F856
:1023800003901021384603F07BF802904146AF4895
:1023900003F076F807468021AC4803F071F8064652
:1023A0004FF48071A94803F06BF80495CDE90594CA
:1023B0000346A7A228210FA8CDE90067CDE908AB05
:1023C00006F0F2FB10220FA9AAA0FBE180219246A1
:1023D000104603F05FF80E900121504603F05AF8C2
:1023E0000D904021504603F055F80C90D9465946BF
:1023F0002F46284603F04EF83146DFF880B212E04F
:10240000CAE1C1E1BCE1B7E1B2E1AAE1A4E19EE128
:1024100096E191E18CE186E180E18DE085E063E089
:102420005BE056E04FE00B90584603F033F80A901B
:1024300045464146504603F02DF84FF40068099098
:102440004146584603F026F808904146504603F0AE
:1024500021F807902946384603F01CF806903146CB
:10246000504603F017F805904146384603F012F83D
:1024700080464FF40051504603F00CF805462146C3
:10248000384603F007F807462146504603F002F8A5
:1024900004464FF48071584602F0FCFF0646494658
:1024A000504602F0F7FFCDE90064CDE9027503461E
:1024B00067A228210FA8CDF8108006F075FB112225
:1024C0000FA96FA07EE1FFF7E8FC014612226EA083
:1024D0005DE1816D132271A059E1F86D06F042F9BA
:1024E0000146142271A052E10221104602F0C8FFF9
:1024F00068B101225946504602F0DAFF8021284691
:1025000002F0D2FF1522B7F918106CA03FE10022AB
:102510005946504602F0CCFF8021284602F0C6FF03
:102520001522B7F918106CA031E1F86C06F01AF911
:102530000146162270A02AE1FFF7AFFC01461722E0
:1025400071A024E11800002078612288A9E7814069
:102550000004024000080240000C024088030020F2
:10256000736572766F5F76616C75655F70686169BF
:102570003A200000736572766F5F76616C75655FF7
:102580007361753A20000000736572766F5F766143
:102590006C75655F747261693A200000676F635FF4
:1025A00062616E685F706861693A2000676F635F9F
:1025B00062616E685F7361753A200000676F635FE8
:1025C00062616E685F747261693A200054D05F4244
:1025D000616E685F506861693A20000054D05F42C4
:1025E000616E685F5361753A2000000054D05F420D
:1025F000616E685F547261693A2000005F544F4316
:102600005F444F5F42543A200000000048554F4E4F
:10261000473A20006E616E675F6368616E5F747237
:1026200061693A20000000006E616E675F63686157
:102630006E5F7361753A20006E616E675F636861FB
:102640006E5F706861693A2000000000001002406F
:102650002564256425642564256425642564256432
:102660002564256425642564256425642564256422
:1026700000000000496E3A20000000000000024007
:102680004F55543A20000000524541445F454E43A7
:102690004F4445525F323A200000000048554F4EEB
:1026A000475F47414D455F43543A200043484159F5
:1026B0005F56415F584F41593A2000002D2D2D2083
:1026C000504147452031202D2D2D2053414E20448F
:1026D0004F20494D553A20002D2D2D205041474582
:1026E0002031202D2D2D2053414E2058414E482081
:1026F000494D553A2000000050574D5F446F776EAA
:102700005F55703A20000000524541445F454E43FA
:102710004F4445525F3228293A2000001822B7F969
:102720001A10E6A033E0B7F920101922E6A02EE037
:10273000816E1A22E9A02AE0C16C1B22EBA026E0E0
:10274000406E06F00FF801461C22EDA01FE0B7F91D
:102750001C101D22ECA01AE0B7F91E101E22ECA0DE
:1027600015E0F86E05F0FEFF01461F22EAA00EE01C
:10277000C98A2022EBA00AE0098B2122EFA006E003
:10278000498B2222F3A002E0898B2322F7A0FEF7D7
:1027900056F81BB0BDE8F08FFA48447A037AC27944
:1027A000817903AD85E81E0043790279C1788DE80F
:1027B0000E008378F4A228210FA806F0F5F9242250
:1027C0000FA9F8A0FEF79AF8E3E70121F84803F013
:1027D000F0BA11B4F748416C009A914201DD002132
:1027E00001E0416C491C4164406C18BC01E500BF2C
:1027F000FEF7D4F9012004F0FDFC012004F0FAFCFE
:10280000F6E70A2004F0F6FCFBE72920FFF7E1FFDA
:102810000A2004F0EFFCF8E707B5E64880380166C7
:1028200000998165C2650EBD2DE9FF411F460A9ED4
:10283000019805F07DFFDF4CDE4D803CA0660198DD
:10284000E86627660298A065009805F071FFE665C6
:10285000E06600206866B4F918002867304605F085
:1028600081FF6084B4F922000A2801DD0A2001E01A
:102870004FF4FA602084BDE8FF812DE9F84FC14A8A
:10288000DFF830831E3ACC485178CA4FCB0708F1A5
:1028900080084FF080494FEA817106D000290FDB94
:1028A0001E207867C8F804900EE0002908DAD17974
:1028B000192903D901207867C04803E0142100E0FA
:1028C00019217967C8F80400786F1530C8F800003E
:1028D000FEF764F90D2806D0BDE8F84F00224FF04E
:1028E0008141104698E71078B24C10F0480F4FF035
:1028F0000A064FF00005A4F1800435D1810633D4D7
:10290000C10631D411794FF0050AC82905D9BB6D2C
:10291000322B02DAA06C404205E0322924D2B96D94
:10292000322921DAA06CB4F9181000EBC00001EBD9
:1029300080006064BD670121D8F8040005F04DFDFA
:10294000D8F80010034691FBFAF29D480090B96F49
:10295000606CFFF769FFB4F918006064FE67B4F9B2
:1029600018006064BDE8F88F01074FEA406120D588
:1029700000293CDB81063AD4C10638D41179C82934
:1029800007D9B96D322932DAB4F91800A16C401AAE
:1029900008E032292BD2B96D322928DAB4F91800AF
:1029A000A16C08446064BD670095D8E90023B96F45
:1029B00078E200291BDA810619D4C10617D41179EF
:1029C000C82907D9B96D322911DAB4F91800A16CF8
:1029D000401A08E032290AD2B96D322907DAB4F96F
:1029E0001800A16C084460644FF4617043E110F07A
:1029F000480F4FF4E16135D183064FEAC06318D523
:102A0000002B2FDB1379C82B07D9BB6D322B29DAAA
:102A1000B4F91800A16C401A08E0322B22D2BB6D29
:102A2000322B1FDAB4F91800A16C084460646548C1
:102A300021E1002B16DA1379C82B07D9BB6D322B95
:102A400010DAB4F91800A26C801A08E0322B09D20F
:102A5000BB6D322B06DAB4F91800A26C1044606426
:102A6000B967A1E703074FF4E17ACAF1000B40F21E
:102A7000465E4FEA40631ED5002B4FEA80631BDAA7
:102A8000002B1ADBC30618D41379C82B07D9BB6DEA
:102A9000322B12DAB4F91800A16C401A08E0322B7C
:102AA0000BD2BB6D322B08DAB4F91800A16C0844C4
:102AB00060645046DFE0A2E086E0BDE048554F4E3E
:102AC000475F4C473A2000005F4D4F544F525F4CD8
:102AD0004F434B5F323030303A2000004D4F544F5F
:102AE000525F4C4F434B3A2000000000676F635F1A
:102AF00062616E685F706861695F63753A200000AB
:102B0000584F415920000000494D555F583A200068
:102B1000494D555F593A20004D41545F524F424F45
:102B2000542000005F414443325F46696C74657213
:102B300065645B31315D3A20000000005F41444331
:102B4000315F46696C74657265645B31325D3A2051
:102B5000000000005F414443315F46696C74657258
:102B600065645B31335D3A20000000005F414443FF
:102B7000315F46696C74657265645B31345D3A201F
:102B800000000000170A0020256420256420256429
:102B900020256420256420256420256420256420C8
:102BA000256425004269745F4553503A20000000B7
:102BB000A0600240980000206666263F9A99993FDF
:102BC0000000A0417CFCFFFF002B35DAC30633D4A4
:102BD0001379C82B07D9BB6D322B2DDAB4F9180045
:102BE000A16C401A08E0322B26D2BB6D322B23DABF
:102BF000B4F91800A16C0844606458463BE0002B0F
:102C00001ADA830618D4C30616D51379C82B07D948
:102C1000BB6D322B10DAB4F91800A16C401A08E031
:102C2000322B09D2BB6D322B06DAB4F91800A16C35
:102C30000844606470461EE0DFF890C410F0480F4E
:102C40001BD1830619D5C30617D51379C82B07D90D
:102C5000BB6D322B11DAB4F91800A16C401A08E0F0
:102C6000322B0AD2BB6D322B07DAB4F91800A16CF3
:102C7000084460646046B86796E6030707D54306D4
:102C800005D4830603D4C30601D4BD6707E010F062
:102C9000480F0ED183060CD4C3060AD5B967009538
:102CA000D8F804307A6FB96F606CFFF7BDFDFE672E
:102CB00058E6030708D4430606D5830604D4C306A2
:102CC00002D44FF461702EE010F0480F05D1830656
:102CD00003D5C30601D4FE4825E003074FEA40634D
:102CE0000FD5002B4FEA806305DA002B11DBC306FA
:102CF0000FD4504617E0002B0BDAC30609D4584610
:102D000011E0002B05DA830603D4C30601D5704613
:102D100009E010F0480F75D183064FEAC06004D572
:102D200000286FDA6046B867B9E700286ADB507997
:102D300092464FF07E5B32282BD2B4F918006064C3
:102D4000B846B967CDF800B0B96F5B460A22606C2F
:102D5000FFF76AFD4FF07C5957460EE00A2004F059
:102D600049FAF87920B14FF08042DA49642002E054
:102D7000D94A49461420FFF74FFD78793228EDD320
:102D8000B4F9180060644046C8F87C605B46009562
:102D900032E0C82837D9B4F9180060640021B84679
:102DA000B967CDF800B0B96F5D465B460A22606C2A
:102DB000FFF73AFD2F46DFF824B34FF07C59554614
:102DC0000EE00A2004F016FAE87920B14FF08042B4
:102DD0003946C82002E05A4649461420FFF71CFD38
:102DE0006879C828EDD8B4F9180060644046C8F87E
:102DF0007C6000213B460091816F0222606CFFF7EE
:102E000013FDAFE558E0B86D0A2834DD0095D8F819
:102E100004307A6F796D606CFFF706FDFE67AF4F87
:102E20005D464FF07C5654460DE00A2004F0E2F96E
:102E3000E07918B14A462946322002E03A46314646
:102E40001420FFF7E9FC20793228EED3A44F4FF08D
:102E500040482079C828D4D90A2004F0CBF9E07979
:102E600018B142462946322002E03A463146142043
:102E7000FFF7D2FCEDE7B86D32281DDD9AF80400AB
:102E8000C82804D9B4F91800A16C401A05E032280A
:102E90000CD2B4F91800A16C084460640095D8E91C
:102EA0000023796D606CFFF7BFFC57E50095D8F8FB
:102EB00004307A6F796DF7E6B4F918006064009514
:102EC00000221146D8F8043098E738B50220FFF701
:102ED00095F800204FF08043282201460090FFF72C
:102EE000A3FC00247F4D05E0FDF765FE50B90120ED
:102EF00004F080F9FEF7D1FF05F01AFCE96C05F04B
:102F000099FCF1D3641C642CF4DB00227649104652
:102F1000FFF782FCBDE838400220FFF76FB8734D21
:102F2000734E704C4FF4FA676878800601D5FFF74E
:102F3000CCFF6878400702D50220FFF75FF8687879
:102F4000010704D53146E06C05F07FF905E0C006C5
:102F500008D53146E06C05F0CAF9E064384604F063
:102F600049F901E0FFF789FC072004F043F9DBE7AA
:102F70007CB501200024CDE90004050223462A4641
:102F80005CA15F4803F07FFF0420CDE9000400232B
:102F90002A465CA15E4803F076FF0220CDE90004DA
:102FA00000232A465BA15F4803F06DFF0320CDE9B3
:102FB000000400232A465CA15F4803F064FFBDE8DB
:102FC0007C4004F0EABA2DE9F04791460E460446EB
:102FD00005F090F9054620F00040074616F0FF4F37
:102FE00001D0314601E04FF07E5105F0B8F93C497F
:102FF00005F083F905F0EEFB06F078FCDFF83C8184
:103000000022434605F099FA012205F07AFB05F00B
:10301000F4FB3149B5F5000F2DDB8F4207DD0121AF
:10302000484605F0DAF9214605F00FF91DE005F0F4
:10303000D1FB4FF0FF3205F064FB0022434605F060
:10304000D8F907460D46484605F0C4FB3A462B46DC
:1030500005F076FA07460D46204605F0BBFB3A46DA
:103060002B4605F0C6F905F0C8FB0446314605F0CD
:10307000EBFB70D26EE015F1FF4F6CD38F4207DD92
:103080000121484605F0A9F9214605F033F95CE035
:1030900005F0A0FB4FF03332294B05F051FA002226
:1030A000434605F0A6F907460D46484605F092FB53
:1030B0003A462B4605F044FA07460D46204605F0F1
:1030C00089FB3A462B4605F035FA3CE0BAFAFFFF99
:1030D0007CFCFFFFCDCC4C3D0000A0410000A04097
:1030E0000000A0C01800002000004040F9090020A6
:1030F000000020415461736B5F4D61696E000000F8
:103100001F2F00085461736B5F484D490000000099
:103110000B2800085461736B5F436F6E74726F6CA1
:103120005F310000032800085461736B5F436F6ECA
:1031300074726F6C5F320000EF2700080000F03FF0
:103140003333D33F07E005F058FB0446314605F022
:1031500071FB00D234462046BDE8F0872DE9F041EE
:10316000F84C4FF07E51606E05F06FF805466066D2
:10317000A4F180000027C16DBE1EB1F5000F1BDB5E
:103180008046284605F060FB3ED231464546D8F8D9
:10319000640005F022F90646E96E05F056F8E86687
:1031A000E06EB5F91810401A216F084405F0C0FA16
:1031B000314605F09CF825E011F1FF4F26D38046FB
:1031C000084605F0CFFA002800DA404205F0B0FAD0
:1031D000294605F02FFB17D231464546D8F8640042
:1031E00005F0FBF80646E96E05F084F8E866E06E47
:1031F000B5F918100844216F401A05F099FA3146C4
:1032000005F023F8A8666766BDE8F08101214162F8
:103210008162F9E72DE9F05FCA4C803CE06D05F072
:10322000A1FA400001D0FFF799FFA06D05F080FAE8
:103230000146D4E91820FFF7C6FE81466066E06DBE
:1032400005F090FA4000DFF80083C04DBD4FB4F99F
:1032500018004FF4E16614D005F06AFAE16E05F04B
:1032600046F8414605F049F805F07CFA3862386ABC
:10327000B04201DD3E6219E0386AA84216DA3D62CA
:1032800014E005F055FAE16E05F031F8414605F01D
:1032900034F805F067FA3862396A4FF461608142A8
:1032A00003DC396A4042814200DA3862A06EA849E4
:1032B000804605F054F805F055FA4FF46161484333
:1032C00005F036FA414605F015F805F04BFA608333
:1032D000386A00280BDDA06BB4F91A10401A786127
:1032E000E06BB4F91A10401AB861206C0DE0386A2E
:1032F00000280FDAE06AB4F91A10401A7861206BDE
:10330000B4F91A10401AB861606BB4F91A10401A77
:10331000F86105E0484605F025FAF862B86278627F
:103320007869B042786902DDA0F5616004E0A842E6
:1033300003DA786900F561607861B869B042B8690C
:1033400002DDA0F5616004E0A84203DAB86900F587
:103350006160B861F869B042F86902DDA0F56160AA
:1033600004E0A84203DAF86900F56160F861386AA0
:10337000B946002800DA4042764FDFF8DCB1B042AF
:1033800072DDD9F82000002800DA404205F0D9F9B2
:1033900080468A46D9F8140005F0D3F900225B462E
:1033A00005F040F94246534605F0CAF88246884681
:1033B000B4F91A0005F0C5F95246434605F019F86C
:1033C00005F0E9F92067D9F82000002800DA40422A
:1033D00005F0B7F980468A46D9F8180005F0B1F92A
:1033E00000225D4B05F01EF94246534605F0A8F851
:1033F00080468A46B4F91A0005F0A3F942465346BE
:1034000004F0F7FF05F0C7F96067D9F8200000283D
:1034100000DA404205F095F983468A46C846D9F855
:103420001C0005F08EF900224B4B05F0FBF85A46C4
:10343000534605F085F883468A46B4F91A0005F02C
:1034400080F95A46534604F0D4FF05F0A4F9A0676A
:10345000D8F84800216F401A40F68C21884204DDDC
:10346000206F00F5616009E088E0D8F84800226F1D
:10347000801AB84203DA206FA0F561602067D8F89F
:1034800048204046236F4FF46178D31AC8F10002F8
:10349000434503DD236F03F5E16309E0836CD4F852
:1034A00070C0A3EB0C03934203DA236FA3F5E1632F
:1034B0002367C36CD4F874C0A3EB0C038B4203DD09
:1034C000636F03F5616309E0C36CD4F874C0A3EBC8
:1034D0000C03BB4203DA636FA3F561636367C36CDC
:1034E000D4F874C0A3EB0C03434503DD636F03F50D
:1034F000E16309E0C36CD4F874C0A3EB0C039342FE
:1035000003DA636FA3F5E1636367036DD4F878C0F2
:10351000A3EB0C038B4203DDA16F01F5616107E0B2
:10352000016DA36FC91AB94203DAA16FA1F56161F8
:10353000A167016DA36FC91A41450FDDA16F01F5A8
:10354000E16113E09800002000004040F8F8FFFF20
:103550000000614574F5FFFF0020AC40016DA36FD2
:10356000C91A914203DAA16FA1F5E161A167216F48
:103570008164616FC164A16F0165F1E0B4F91A0063
:103580002067B4F91A006067B4F91A00A067D9F887
:1035900048104846226F40F68C28891A414503DDC1
:1035A000216F01F5616107E0816C226F891AB942D0
:1035B00003DA216FA1F561612167816C226F8B1A9B
:1035C00040F246514A428B4203DD236F03F5E1632B
:1035D00009E0836CD4F870C0A3EB0C03934203DAC8
:1035E000236FA3F5E1632367C36CD4F874C0A3EB26
:1035F0000C03434503DD636F03F5616309E0C36CAE
:10360000D4F874C0A3EB0C03BB4203DA636FA3F5D9
:1036100061636367C36CD4F874C0A3EB0C038B4283
:1036200003DD636F03F5E16309E0C36CD4F874C094
:10363000A3EB0C03934203DA636FA3F5E1636367C3
:10364000036DD4F878C0A3EB0C03434503DDA36FEF
:1036500003F5616309E0036DD4F878C0A3EB0C03B4
:10366000BB4203DAA36FA3F56163A367036DA76F82
:10367000DB1B8B4203DDA16F01F5E16107E0016D0A
:10368000A36FC91A914203DAA16FA1F5E161A167A5
:10369000216F8164616FC164A16F0165006A0028B8
:1036A00000DA404205F04DF807468846D9F8140084
:1036B00005F047F800225B4604F0B4FF3A46434663
:1036C00004F03EFF07468846206F05F03AF83A4678
:1036D000434604F08EFE05F05EF82067D9F820001E
:1036E000002800DA404205F02CF807468846D9F851
:1036F000180005F026F800225B4604F093FF4346CD
:103700003A4604F01DFF07468846606F05F019F839
:103710003A46434604F06DFE05F03DF86067D9F87F
:103720002000002800DA404205F00BF807468846E2
:10373000D9F81C0005F005F800225B4604F072FF82
:103740003A46434604F0FCFE80460F46A06F04F064
:10375000F8FF42463B4604F04CFE05F01CF8A0671B
:10376000206FA84201DA284602E0B04200DD304670
:10377000C0F5E162606FA84201DA284602E0B0427B
:1037800000DD3046C0F5E161A06FA84201DA2846AD
:1037900002E0B04200DD3046C0F5E163C2EB023228
:1037A0004FF4616092FBF0F2E267C1EB013191FBF3
:1037B000F0F14D46C9F80410C3EB033191FBF0F072
:1037C000C9F80000E06F6081D9F80000A081D9F845
:1037D0000400E081FEF7B3FA286A002800DA4042CC
:1037E000B2460A26FE4F50457EDD286A00283CDDA1
:1037F000606E04F0EFFF8046A06F8946216C401A8E
:1038000090FBF6F004F094FFBB46394604F075FDDA
:1038100004F0E0FF06F01CF842464B4604F090FE30
:1038200004F0B9FFE862606E04F0D4FF0746606FF1
:103830008846E16B401A90FBF6F004F079FF594698
:1038400004F05BFD04F0C6FF06F002F83A4643467A
:1038500004F076FE04F09FFFA862606E04F0BAFFE9
:103860000746206F8846A16B40E0286A002850DA9E
:10387000606E04F0AFFF8146A06F8846616B401A0E
:1038800090FBF6F004F054FFBB46394604F035FDDA
:1038900004F0A0FF05F0DCFF4A46434604F050FE6A
:1038A00004F079FFE862606E04F094FF0746606FF1
:1038B0008846216B401A90FBF6F004F039FF594618
:1038C00004F01BFD04F086FF05F0C2FF3A464346B4
:1038D00004F036FE04F05FFFA862606E04F07AFF29
:1038E00007468846206F00E01FE0E16A401A90FB1F
:1038F000F6F004F01DFF594604F0FFFC04F06AFFE7
:1039000005F0A6FF3A46434604F01AFE04F043FFD2
:103910006862606E4FF07E5290426BDCA96E0020B0
:10392000002942DCA866606646E0606E04F052FF43
:103930008146A06F8846B4F91A10401A90FBF6F041
:1039400004F0F6FEBB46394604F0D7FC04F042FF13
:1039500005F07EFF4A46434604F0F2FD04F01BFFEB
:10396000E862606E04F036FF0746606F8846B4F97F
:103970001A10401A90FBF6F004F0DAFE594604F0F3
:10398000BCFC04F027FF05F063FF3A46434604F011
:10399000D7FD04F000FFA862606E04F01BFF07462D
:1039A000206F8846B4F91A10A0E7491EA9660121C4
:1039B00062666962A962E962A96EB1F5FA7F1CDAF2
:1039C000A96C002900DA4942524691420BDAE96CAF
:1039D000002900DA4942914205DA296D002900DA0E
:1039E0004942514509DB2067A8646067E864A06725
:1039F000286502E0B4F92000A866686A4142794867
:103A00000171696A4942090AC170A96A0176A96A05
:103A1000090AC175E96A8173E96A090A4173BDE857
:103A2000F09FF8B50026704F00964FF08043B7F92D
:103A300018000A22314600F57A60FEF7F5FE0024F0
:103A40004FF47A7506E000BFFDF7B5F830B90120F4
:103A500003F0D0FBFEF721FAA842F5DB641C642CCE
:103A6000F8DB0220FEF7CAFA6048002100904FF010
:103A70007E5314220846FEF7D7FE002406E000BF5E
:103A8000FDF799F830B9012003F0B4FBFEF705FA11
:103A9000A842F5DB641C642CF8DB00224FF0814166
:103AA0001046FEF7B9FE3E65F8BDF8B500264FF0AA
:103AB00080473B460A224FF4617130460096FEF77C
:103AC000B3FE00244FF47A7506E000BFFDF773F8EB
:103AD00030B9012003F08EFBFEF7DFF9A842F5DBD9
:103AE000641C642CF8DB002241491046FEF794FE6A
:103AF0004CF2503003F07EFB0220FEF77FFA3A488A
:103B000000960A22B0F918003B46002100F57A60C1
:103B1000FEF78AFE002405E0FDF74DF830B90120DC
:103B200003F068FBFEF7B9F9A842F5DB641C642CCE
:103B3000F8DBBDE8F8400220FEF760BA38B5022095
:103B4000FEF75CFA2B480090274832224FF07E5354
:103B5000B0F918000021284C2044FEF765FE00242F
:103B60004FF47A7506E000BFFDF725F830B9012063
:103B700003F040FBFEF791F9A842F5DB641C642CCE
:103B8000F8DB00221A491046FEF746FEBDE8384031
:103B90000220FEF733BA38B50220FEF72FFA174895
:103BA000009011483C224FF07E53B0F918000021DC
:103BB000114C2044FEF738FE00244FF47A7505E0DE
:103BC000FCF7F9FF30B9012003F014FBFEF765F9AB
:103BD000A842F5DB641C642CF8DB002204490FE0EA
:103BE00035FA8E3C20010020180000200000A04182
:103BF0000000404000004842905F01000000704219
:103C00001046FEF709FEBDE838400220FEF7F6B97F
:103C10000022FA491046FEF7FFBD2DE9FF4182B0B0
:103C200015460C9C12F1FF4F01D382F000454FF076
:103C30007E56B4F5000F01DAF14C02E0B44200DD2B
:103C40003446DDE90201401A00D5404247F2F858F7
:103C5000009088B30599374688420ADA084604F08E
:103C600067FD0746009804F063FD394604F077FBD2
:103C700007462146304604F03AFB394604F03DFB46
:103C8000214604F0E2FA294604F037FB04462946AF
:103C900004F0DAFD00D22C46204605F09DFD04F02C
:103CA00061FD0190012801DA01200190DDE90001A8
:103CB000884206DC02980CE0FFE7424600210398A8
:103CC0000AE0DDE902108842019901DA084400E0C7
:103CD000401A42460021039006B0BDE8F04101F0D1
:103CE000DDB92DE9F84FC74D4FF4FA60C64E69793A
:103CF000C64F83064FF0010A40F6980C4FF4967EAB
:103D00004FF4C87B43F6C4384FF0000905F1800436
:103D100018297DD2DFE801F00C34516C8B9AB8D2AF
:103D2000FCFBFAF9F8F7F6F5F4F3F2F1F0EFEEED4B
:103D3000009621693223B8463A4647F2F85738468A
:103D4000FFF76BFF20610096A16832234246384698
:103D5000FFF763FFA0600096E168322342463846D1
:103D6000FFF75BFFE0602069B84251D1A068B8421C
:103D7000FBD1E068B842F8D1504685F803A06EE266
:103D800000211E4619220846CDF80090FEF74CFD92
:103D9000E87800283CD001219D4801F071FB002803
:103DA000E3D10022334611461046CDF80090FEF7CD
:103DB0003BFD85F80390022051E200962169E04620
:103DC00063463A460020FFF728FF20610096A1686D
:103DD00043463A460020FFF720FFA06020690028F4
:103DE000C3D1A0680028C0D185F804A0032036E222
:103DF00000211E4619220846CDF80090FEF714FD5A
:103E000028790028C6D00221814801F039FB00E062
:103E1000FAE10028A9D10022334611461046CDF818
:103E20000090FEF701FD85F80490042017E200964B
:103E3000E16863463A460020FFF7EFFEE060E06885
:103E4000002892D185F803A0052008E200211E4633
:103E500019220846CDF80090FEF7E6FCE878002825
:103E600098D04FF400416A4801F00AFB012897D12D
:103E70000022334611461046CDF80090FEF7D4FCE0
:103E800085F803900620EAE100962169C8233A46A6
:103E90004046FFF7C2FE20610096A168C8233A465B
:103EA0004046FFF7BAFEA0602069404598D1A0685F
:103EB000404595D185F804A00720D0E100211E4699
:103EC00019220846CDF80090FEF7AEFC28790028AC
:103ED00098D04FF400514F4801F0D2FA012899D1FF
:103EE0000022334611461046CDF80090FEF79CFCA8
:103EF0000FE093E179E16BE151E138E11EE1E5E0AA
:103F0000D5E0BBE0A1E087E06BE04DE031E013E0FD
:103F100003E085F804900820A1E10096E168C82339
:103F20003A464046FFF779FEE060E068404588D1B8
:103F300085F803A0092092E100211E4619220846B7
:103F4000CDF80090FEF770FCE878002888D00121B9
:103F50002F4801F095FA002889D1002233461146F6
:103F60001046CDF80090FEF75FFC85F803900A201C
:103F700075E100962169804603463A460020FFF726
:103F80004CFE20610096A16843463A460020FFF7A8
:103F900044FEA0602069002888D1A068002885D14F
:103FA00085F804A00B205AE100211E46192208467C
:103FB000CDF80090FEF738FC2879002888D002213F
:103FC000134801F05DFA002889D1002233461146DA
:103FD0001046CDF80090FEF727FC85F804900C20E1
:103FE0003DE10096E16803463A460020FFF715FEE2
:103FF000E060E06800289AD10D2030E100004040E8
:10400000CDCC4C3D18000020CDCCCC3D0000204153
:10401000001002400008024000211E4619220846F6
:10402000CDF80090FEF700FC4FF40041FE4801F08F
:1040300027FA012890D10022334611461046CDF8C8
:104040000090FEF7F1FB0E2009E100962169F14690
:1040500073463A464046FFF7E0FD20610096A168AE
:104060004B463A464046FFF7D8FDA06020694045E0
:1040700092D1A06840458FD10F20F0E000211E466C
:1040800019220846CDF80090FEF7CEFB4FF4005100
:10409000E64801F0F5F9012896D100223346114691
:1040A0001046CDF80090FEF7BFFB1020D7E0009639
:1040B000E16873463A464046FFF7AFFDE060E068CE
:1040C000404598D185F802A01120C8E0298ACDF892
:1040D0000090814208D2002119220846FEF7A4FB75
:1040E000288A401C2882BBE0002211461046FEF7B9
:1040F0009BFB009621695B463A460020FFF78DFD49
:1041000020610096A1685B463A460020FFF785FDD6
:10411000A0600096E1685B463A460020FFF77DFD0F
:10412000E060206900286FD1A06800286CD1E068A9
:10413000002869D1A5F81090122090E000211E46B9
:1041400019220846CDF80090FEF76EFB4FF40041AF
:10415000B54801F095F9012856D1002233461146A1
:104160001046CDF80090FEF75FFB132077E0009635
:104170002169FA233A464046FFF74FFD2061009639
:10418000A168FA233A464046FFF747FDA060206940
:10419000404565D1A068404562D114205FE0002110
:1041A0001E4619220846CDF80090FEF73DFB4FF45D
:1041B00000519E4801F064F9012851D10022334694
:1041C00011461046CDF80090FEF72EFB152046E074
:1041D0000096E168FA233A464046FFF71EFDE0608C
:1041E000E06840453CD1162039E0688A40F6340149
:1041F0008842CDF8009008D2002119220846FEF727
:1042000013FB688A401C68822AE00022114610468F
:10421000FEF70AFBA5F81290172020E0009621690E
:104220005B463A460020FFF7F8FC20610096A16843
:104230005B463A460020FFF7F0FCA0600096E1687C
:104240005B463A460020FFF7E8FCE060206938B999
:10425000A06828B9E06818B985F802A0182068712C
:10426000E168734880F82B10E168090A80F82A1089
:10427000A16880F82610A168090A00F8251F2169A5
:10428000C1722169090A8172BDE8F88F2DE9F84FE2
:10429000684D694F694AA87900264FF0010B4FF429
:1042A000FA6340F2DC5A43F6C43847F2F85C4FF048
:1042B000804905F180041E2833D2DFE800F00F3377
:1042C0004961778396C6F1EFEE32EDECEBEAE9E86F
:1042D000E7E6E5E4E3E2E1E0DFDEDDDC009721692B
:1042E000C82316464046FFF798FC20610097A16856
:1042F000C82332464046FFF790FCA0600097E16873
:10430000C82332464046FFF788FCE06020694045FC
:1043100007D1A0684045FBD1E0684045F8D185F859
:1043200006B09FE200214B46192208460096FEF790
:104330007BFA01213C4801F0A3F80028F1D10022CA
:104340004B46114610460096FEF76EFA022088E2B0
:1043500000972169984616460020FFF75EFC206111
:104360000097A168434632460020FFF756FCA06044
:1043700020690028D5D1A0680028D2D1032070E29E
:1043800000214B46192208460096FEF74DFA0221FD
:10439000254801F075F80028C3D100224B4611468C
:1043A00010460096FEF740FA04205AE20097E168B2
:1043B0000020FFF732FCE060E0680028B1D1AE8257
:1043C00005204EE200214B46192208460096FEF7D2
:1043D0002BFAA88A50457BD300224B461146104643
:1043E0000096FEF721FA06203BE200972169C823D8
:1043F00016464046FFF711FC20610097A168C823CC
:1044000032464046FFF709FCA0600097E168C823E8
:1044100032464046FFF701FCE060206940458DD1FF
:10442000A06840458AD10BE000100240000802401D
:104430002001002018000020CDCCCC3D0000204100
:10444000E068404596D107200BE200214B46192237
:1044500008460096FEF7E8F90121FE4801F010F841
:10446000002887D100224B46114610460096FEF7E1
:10447000DBF90820F5E1CEE1B7E1A8E18DE173E1D8
:104480005BE137E123E115E1FDE0E4E0CCE0C0E0F1
:10449000A8E08FE078E054E03EE030E019E0FFE78C
:1044A00000972169984616460020FFF7B6FB206169
:1044B0000097A168434632460020FFF7AEFBA0609C
:1044C00020690028ABD1A0680028A8D10920C8E144
:1044D0009EE000214B46192208460096FEF7A4F9FB
:1044E0000221DC4800F0CCFF002898D100224B4686
:1044F000114610460096FEF797F90A20B1E10097A1
:10450000E1680020FFF789FBE060E068002886D1C1
:1045100085F802B00C20A4E100214B461922084680
:104520000096FEF781F9A88A40F6C41188426FD33D
:1045300000224B46114610460096FEF775F90D20F5
:104540008FE100972169C82316464046FFF765FBB7
:1045500020610097A168C82332464046FFF75DFB03
:10456000A0600097E168C82332464046FFF755FB3C
:10457000E06020694045A5D1A0684045A2D1E0682F
:1045800040459FD10E206CE100214B461922084680
:104590000096FEF749F90121AE4800F071FF0028AE
:1045A00090D100224B46114610460096FEF73CF98A
:1045B0000F2056E100972169984616460020FFF724
:1045C0002CFB20610097A168434632460020FFF78C
:1045D00024FBA0602069002887D1A068002884D12E
:1045E00010203EE100214B46192208460096FEF7B6
:1045F0001BF90221974800F043FF002887D10022D1
:104600004B46114610460096FEF70EF9112028E1A0
:10461000D8E00097E1680020FFF7FFFAE060E0686B
:104620000028A8D112201CE100214B46192208467F
:104630000096FEF7F9F84FF40041864800F020FF9D
:10464000012898D100224B46114610460096FEF7ED
:10465000EBF8132005E100972169C8231646404670
:10466000FFF7DBFA20610097A168C8233246404675
:10467000FFF7D3FAA0602069404591D1A06840457A
:104680008ED11420EDE000214B46192208460096F9
:10469000FEF7CAF84FF400516F4800F0F1FE012810
:1046A0009AD100224B46114610460096FEF7BCF800
:1046B0001520D6E00097E168C8234046FFF7ADFA21
:1046C000E060E06840457CD1AE821620C9E0002160
:1046D0004B46192208460096FEF7A6F8A88A5045D0
:1046E00070D300224B46114610460096FEF79CF808
:1046F0001720B6E000972169984616460020FFF77C
:104700008CFA20610097A168434632460020FFF7EB
:1047100084FAA0600097E168434632460020FFF724
:104720007CFAE060206900284BD1A068002848D1BD
:10473000E068002845D1182093E000214B4619225B
:1047400008460096FEF770F84FF40041414800F02B
:1047500097FE012835D100224B461146104600969F
:10476000FEF762F819207CE000972169C823904683
:1047700066466046FFF751FA20610097A168C8239A
:1047800042463046FFF749FAA0602069B04269D13D
:10479000A068B04266D11A2063E000214B4619227E
:1047A00008460096FEF740F84FF400512A4800F002
:1047B00067FE012856D100224B461146104600964E
:1047C00001E01EE01BE0FEF72FF81B2049E00097F8
:1047D000E168C82367466046FFF71FFAE060E068BB
:1047E000B8423FD1AE821C203BE000214B4619224B
:1047F00008460096FEF718F8A88A504502D2401CD9
:10480000A8822FE000224B46114610460096FEF784
:104810000BF81D2025E000972169984616460020D8
:10482000FFF7FBF920610097A1684346324600205C
:10483000FFF7F3F9A0600097E16843463246002095
:10484000FFF7EBF9E060206960B9A06850B9E06853
:1048500040B903E0001002400008024085F802B0B1
:104860001E20A871E168FE4880F82B10E168090A53
:1048700080F82A10A16880F82610A168090A00F8BB
:10488000251F2169C1722169090A8172FCE42DE9A1
:10489000F84FF44DF44FF54AE97900264FF0010A3C
:1048A0004FF4FA6340F2DC594FF4004B43F6C43046
:1048B0004FF0804805F180041D2935D2DFE801F072
:1048C0000F354B63798598BDD3FDFCFBFAF9F8F7FA
:1048D000F6F5F4F3F2F1F0EFEEEDECEBEA00009711
:1048E0002169C823904647F2F8563046FFF795F9FC
:1048F00020610097A168C82342463046FFF78DF932
:10490000A0600097E168C82342463046FFF785F96A
:10491000E0602069B04207D1A068B042FBD1E068F6
:10492000B042F8D185F807A094E20021434619224D
:1049300008460096FDF778FF0121CD4800F0A0FD64
:104940000028F1D100224346114610460096FDF79B
:104950006BFF02207DE200972169984616460020F1
:10496000FFF75BF920610097A168434632460020BB
:10497000FFF753F9A06020690028D5D1A06800286E
:10498000D2D1032065E20021434619220846009651
:10499000FDF74AFF0221B64800F072FD0028C3D19E
:1049A00000224346114610460096FDF73DFF0420C5
:1049B0004FE20097E1680020FFF72FF9E060E06820
:1049C0000028B1D1EE82052043E20021434619229E
:1049D00008460096FDF728FFE88A48456ED3002276
:1049E0004346114610460096FDF71EFF062030E2B2
:1049F00000974FF4967921694B4690460646FFF79B
:104A00000CF920610097A1684B4642463046FFF7FB
:104A100004F9A0600097E1684B4642463046FFF734
:104A2000FCF8E0602069B0428BD1A068B04288D128
:104A3000E068B04285D107200BE2002143461922ED
:104A400008460096FDF7F0FE0121894800F018FDA8
:104A5000002892D100224346114610460096FDF7E9
:104A6000E3FE0820F5E100972169984616460020EC
:104A7000FFF7D3F820610097A16843463246002033
:104A8000FFF7CBF8A0602069002888D1A068002833
:104A900085D114E0BCE1A5E199E17FE166E14FE158
:104AA0002BE117E109E1F0E0CAE0B3E08FE07BE041
:104AB0006DE055E03CE025E019E002E0FCE0092073
:104AC000C7E100214346192208460096FDF7ACFED7
:104AD0000221674800F0D4FC0028A5D100224346FB
:104AE000114610460096FDF79FFE0A20B1E100979F
:104AF000E1680020FFF791F8E060E068002893D1BA
:104B00000B20A6E100214346192208460096FDF736
:104B10008BFE5946564800F0B3FC012884D1002290
:104B20004346114610460096FDF77EFE0C2090E1AC
:104B300000972169C82390460646FFF76EF820616A
:104B40000097A168C82342463046FFF766F8A06088
:104B50002069B04299D1A068B04296D10D2078E189
:104B600000214346192208460096FDF75DFE4FF4EA
:104B70000051404800F084FC012886D100224346C1
:104B8000114610460096FDF74FFE0E2061E100979A
:104B9000E168C8230746FFF740F8E060E068B842E4
:104BA0009BD1EE820F2054E1002143461922084692
:104BB0000096FDF739FEE88A48457DD3002243463A
:104BC000114610460096FDF72FFE102041E1009798
:104BD0002169984616460020FFF71FF820610097CC
:104BE000A168434632460020FFF717F8A0600097FF
:104BF000E168434632460020FFF70FF8E060206985
:104C000000288BD1A068002888D1E068002885D1D1
:104C100011201EE100214346192208460096FDF7A7
:104C200003FE5946124800F02BFC012892D10022C5
:104C30004346114610460096FDF7F6FD122008E1A6
:104C400000972169C82390460646FEF7E6FF2061DB
:104C50000097A168C82342463046FEF7DEFF0BE00E
:104C60002001002018000020CDCCCC3D00002041C8
:104C70000010024000080240A0602069B0428FD1BD
:104C8000A068B0428CD11320E3E0002143461922F2
:104C900008460096FDF7C8FD4FF40051F74800F0B4
:104CA000EFFB0128ADD10022434611461046009685
:104CB000FDF7BAFD1420CCE088E00097E168C82336
:104CC0000746FEF7AAFFE060E068B8427DD1EE82B9
:104CD0001520BEE000214346192208460096FDF744
:104CE000A3FDE88A484571D3002243461146104689
:104CF0000096FDF799FD1620ABE0009721699846D4
:104D000016460020FEF789FF20610097A168434600
:104D100032460020FEF781FFA0600097E16843461D
:104D200032460020FEF779FFE060206900284CD170
:104D3000A068002849D1E068002846D1172088E003
:104D400000214346192208460096FDF76DFD59469D
:104D5000CB4800F095FB01287CD100224346114648
:104D600010460096FDF760FD182072E0009721695B
:104D7000C82390460646FEF750FF20610097A168C1
:104D8000C82342463046FEF748FFA0602069B04283
:104D900060D1A068B0425DD119205AE0002143469D
:104DA000192208460096FDF73FFD4FF40051B34825
:104DB00000F066FB01284DD1002243461146104603
:104DC0000096FDF731FD1A2043E043E014E0009720
:104DD000C823E168FEF721FFE060E068D0BBEE8207
:104DE0001B2036E000214346192208460096FDF7B5
:104DF0001BFDE88A484502D2401CE8822AE00022D6
:104E00004346114610460096FDF70EFD1C2020E09B
:104E100000972169984616460020FEF7FEFE2061A5
:104E20000097A168434632460020FEF7F6FEA060D8
:104E30000097E168434632460020FEF7EEFEE06050
:104E4000206938B9A06828B9E06818B985F802A0C7
:104E50001D20E871E1688B4880F82B10E168090A91
:104E600080F82A10A16880F82610A168090A00F8C5
:104E7000251F2169C1722169090A817206E52DE9A0
:104E8000F84FDFF80082804DA8F188087F4E00952A
:104E9000D8F81010C8233246444647F2F85738462F
:104EA000FEF7BBFE20610095A168C8233246384654
:104EB000FEF7B3FEA0600095E168C823324638468D
:104EC000FEF7ABFEE060B9460024474606E000BFAF
:104ED000FBF771FE48B9012002F08CF9386920B166
:104EE000B86810B1F9684945F2DA641C642CF5DB46
:104EF000674CA078DFF884A14FF400594FF0000808
:104F00004FF0804B012806D1E07820B94946504641
:104F100000F0B6FA18B1A078012809D015E00021F8
:104F20005B4614220846CDF80080FDF77DFC0CE0BE
:104F3000E078012809D14946504600F0A1FA20B98D
:104F4000002254491046FDF767FC0024DFF8309139
:104F500006E000BFFBF72FFE40B9012002F04AF93E
:104F60000121484600F08CFA0028F3D0641C642C20
:104F7000F6DB00954FF4FA64396923463246002087
:104F8000FEF74BFE38610095B96823463246002093
:104F9000FEF743FEB860002406E000BFFBF70BFEFF
:104FA00048B9012002F026F9386920B1B86810B17B
:104FB000F8680028F2D0641C642CF5DB00215B4605
:104FC00014220846CDF80080FDF72EFCF9682D4824
:104FD00080F82B10F968090A80F82A10B96880F85F
:104FE0002610B968090A00F8251F3969C1723969A4
:104FF000090A81724AE438B5FBF7FDFDFBF728FE8C
:10500000FBF7EFFFFBF719FFFCF75CF8FCF7CDF8B7
:10501000FCF73CF9FBF73FFE1F4C0021204601F056
:1050200011F94FF4E1352846FCF728FA2846FCF739
:10503000A7FA2846FCF789FCE800FCF7E0FB2846C5
:10504000FCF725FD0A20FBF7CAFD0121204601F0EF
:10505000F9F80A20FBF7C3FDFDF782F800204FF0B6
:105060007E53024601460090FDF7DEFB6420FBF70D
:10507000B6FDFDF77DFF002038BD000000080240AE
:105080000010024020010020CDCCCC3D000020418A
:10509000170A0020000040400010004007B5DDE97D
:1050A0000001884202DB0299884200DD08460EBDFD
:1050B0000CB500205149019000900A6842F48032FA
:1050C0000A604FF4A0630A6802F400320092019A69
:1050D000521C0192009A12B9019A9A42F3D10A68BD
:1050E000920334D50120009044484030026842F0D9
:1050F000805202604248026842F4804202603F48A7
:10510000083002680260026842F4004202600268ED
:1051100042F4A0520260031F3A4A1A600A6842F041
:1051200080720A600A689201FCD5374A40F2056134
:105130001160016821F003010160016841F0020182
:1051400001600168C1F381010229FAD10CBD009010
:105150000CBD2A4810B5016841F001010160274AE1
:105160000021083211600268284B1A400260031DBA
:10517000274A1A60026822F4802202601F480C301D
:105180000160FFF795FF23494FF00060086010BDF4
:1051900070B51A4C083420681F4A10F00C011F48E3
:1051A00004D05510042903D0082903D002601BE065
:1051B000056019E01149091D0B68C3F380560B689F
:1051C00003F03F0316B1B5FBF3F201E0B2FBF3F2DB
:1051D0000B680968C3F388135A43C1F30141491CA2
:1051E0004900B2FBF1F1016021680C4AC1F30311DF
:1051F000121D515C0268CA40026070BD0038024056
:105200000070004008544007003C0240FFFFF6FEDB
:105210001030002408ED00E00024F40068010020B4
:105220000648804706480047FEE7FEE7FEE7FEE740
:10523000FEE7FEE7FEE7FEE7FEE7FEE75351000864
:10524000890100082849084328490860704730B59B
:105250000F22C47801780123FCB1244C246801F1A9
:10526000E02104F4E064C4F5E064C4F30724C4F16D
:105270000405E2404478AC408578154025432A0176
:1052800081F80024007800F01F018B404009800065
:1052900000F1E020C0F8003130BD01F01F00834074
:1052A0004809800000F1E020C0F8803130BD104A8C
:1052B000114001430D48001F016070470B4A121D49
:1052C0000029116801D0014300E08143116070475B
:1052D0004FF0E0210428086903D020F004000861A1
:1052E000704740F00400FAE70000FA050CED00E01A
:1052F00080FFFF1F7C4910B5884206D10121084676
:1053000000F058FA002101204FE07849884206D188
:105310000121022000F04EFA0021022045E07449EC
:10532000884206D10121042000F044FA0021042023
:105330003BE07049884206D10121082000F03AFA8A
:105340000021082031E06C49884206D1012110205B
:1053500000F030FA0021102027E06849884206D189
:105360000121202000F026FA002120201DE06449C0
:10537000884206D10121402000F01CFA0021402083
:1053800013E06049884206D10121802000F012FA22
:105390000021802009E05C4988420AD1841501215E
:1053A000204600F007FA00212046BDE8104000F03A
:1053B00001BA10BDF0B50023012403270D6804FADB
:1053C00003F21540954242D1D0F800C05E0007FAC2
:1053D00006F52CEA050CC0F800C091F804C0D0F81E
:1053E00000E00CFA06FC4CEA0E0CC0F800C091F884
:1053F00004C0BCF1010F02D0BCF1020F1FD1D0F8E4
:1054000008C02CEA050CC0F808C091F805C0D0F817
:1054100008E00CFA06FC4CEA0E0CC0F808C0D0F804
:1054200004C02CEA020CC0F804C0426891F806C01F
:105430000CFA03FC1FFA8CFC42EA0C024260C268C0
:10544000AA43C260CA79C568B2402A43C2605B1CE5
:10545000102BB3D3F0BD4FF6FF7101600021017135
:1054600041718171C171704708B541F48032009279
:10547000C261C1610099C161C169C069009008BD84
:105480000246002012690A4200D0012070470069DC
:1054900080B270470246002052690A4200D00120C3
:1054A0007047406980B270470183704741837047FD
:1054B0000AB1018370474183704741617047426977
:1054C0004A40426170474B07DB0E9A40C90810B54D
:1054D00000EB8100016A0F249C40A1430162016A34
:1054E0001143016210BD00000000024000040240B0
:1054F00000080240000C024000100240001402406C
:1055000000180240001C024000200240EA480168E6
:1055100041F001010160E84A00210832116002688F
:10552000E64B1A400260031DE54A1A60026822F445
:1055300080220260E0480C3001607047DE490022A2
:10554000891C0A7008707047024600205109012921
:105550000CD002290CD0D8497431096802F01F021E
:10556000012393400B4200D001207047D249F4E759
:10557000D1497031F1E718B500204FF4A0640090D4
:105580003120FFF7E1FF0099491C0091A14201D0B1
:105590000028F5D03120FFF7D7FF002800D00120E8
:1055A00018BDC5490A6822F0F80242EAC000086046
:1055B0007047C44908607047BF49002270310A70C3
:1055C0000A70012802D0042801D105200870704714
:1055D000BD490860704741EA82115A0810B5BB4BBB
:1055E000029C03EB02421143014341EA0460B249C9
:1055F000091D086010BDB34908667047800140EA84
:105600000170AD49843108607047AE4988667047C3
:10561000AC49C8647047A84A08321368084323F0AD
:10562000EC63184310607047A34A083213680843BC
:1056300023F078431843106070479F4A083211687E
:1056400021F003010143116070479B480830006856
:1056500000F00C007047984A0832116821F0F00100
:10566000014311607047944A0832116821F4E051F7
:10567000014311607047904908310A6822F4604282
:1056800042EAC0000860704770B58B4A0832116862
:105690008F4C11F00C0104D06610042903D00829A6
:1056A00003D004601BE0066019E08349091D0B6804
:1056B000C3F380550B6803F03F0315B1B6FBF3F35A
:1056C00001E0B4FBF3F30C680968C4F38814634386
:1056D000C1F30141491C4900B3FBF1F101601168BC
:1056E0000F2303EA11117B4B5C5C0168E1404160D0
:1056F0001468072505EA94241C5D21FA04F48460EB
:10570000126805EA52329A5CD140C16070BDC0F3A4
:105710000121032908D1684A0832116821F4F813DD
:105720006D49014019431160634970310A68C0F343
:105730000B0002430A6070476349443908607047B0
:1057400061494039086070475E49C1F85C017047A3
:10575000594A30320029116801D0014300E08143E9
:1057600011607047544A34320029116801D0014356
:1057700000E08143116070474F4A383200291168B8
:1057800001D0014300E08143116070474A4A403232
:105790000029116801D0014300E081431160704786
:1057A000454A44320029116801D0014300E0814399
:1057B00011607047404A10320029116801D001433E
:1057C00000E08143116070473B4A143200291168A0
:1057D00001D0014300E0814311607047364A18321E
:1057E0000029116801D0014300E081431160704736
:1057F000314A20320029116801D0014300E0814381
:10580000116070472C4A24320029116801D00143ED
:1058100000E0814311607047274A50320029116827
:1058200001D0014300E0814311607047224A5432A5
:105830000029116801D0014300E0814311607047E5
:105840001D4A58320029116801D0014300E081430C
:1058500011607047184A60320029116801D0014375
:1058600000E0814311607047134A643200291168D7
:1058700001D0014300E08143116070470E4A0D32B0
:105880000029117801D0014300E081431170704775
:1058900009487430016841F0807101607047014629
:1058A000054A00200C3212680A4200D001207047DD
:1058B00001490E310870704700380240FFFFF6FEC4
:1058C0001030002400004742800E47420000FFFFD6
:1058D0000024F4007C010020FFFCFF0F10B5012123
:1058E0000C022046FFF78EFF2046BDE81040002145
:1058F000FFF788BF30B54268C84B0C791A400B6877
:1059000042EA0422134343608268C54B4D791A4032
:10591000D1E9034323438C6844EA450423431343FA
:105920008360C26A097D22F47002491EC9B242EA4C
:105930000151C16230BD002101600171417181607E
:10594000C1600161012101757047B64B10B5D3F8F4
:105950000423B5490A40D0E900142143D0E90240AC
:10596000044321431143C3F8041310BD0021016017
:1059700041608160C16070470029816802D041F0B8
:10598000010101E021F00101816070474268A74BED
:105990001A400A434260704741628262704742681F
:1059A00022F01F020A43426070479E490028D1F846
:1059B000040302D040F4000001E020F40000C1F82C
:1059C0000403704797490028D1F8040302D040F43B
:1059D000800001E020F48000C1F80403704770B536
:1059E000072409290AD9C568A1F10A0606EB46066B
:1059F000B440A543B3401D43C56007E0056901EB12
:105A00004106B440A543B3401D4305611F23072A47
:105A100009D2446B521E02EB820293409C43914098
:105A20000C43446370BD0D2A09D2046BD21F02EBF4
:105A3000820293409C4391400C43046370BDC46A4E
:105A40000D3A02EB820293409C4391400C43C462A6
:105A500070BD816841F0804181607047014600203F
:105A60008968490200D5012070470029816802D069
:105A700041F4806101E021F4806181607047002978
:105A8000816802D041F0020101E021F00201816051
:105A900070474268491E22F4604242EA4131416047
:105AA00070470029416802D041F4006101E021F40F
:105AB000006141607047C06C80B270475948D0F8AF
:105AC000080370470029816802D041F4807101E029
:105AD00021F48071816070470029816802D041F40F
