:020000040800F2
:10000000403400203D560008450200084702000821
:100010004B0200084F0200085302000800000000D5
:100020000000000000000000000000009D0100082A
:100030005702000800000000E10100085786000890
:1000400057560008575600085756000857560008DC
:1000500057560008575600085756000857560008CC
:1000600063040008A70400085756000805030008A9
:10007000E70200084303000857560008750200080D
:1000800057560008810200085756000857560008C6
:10009000575600085756000857560008575600088C
:1000A000575600087F030008AB03000857560008A6
:1000B000AD030008DB0300080704000857560008DA
:1000C0005756000857560008575600085F040008A6
:1000D000575600085D02000857560008575600089A
:1000E000575600085756000857560008575600083C
:1000F0005756000857560008575600081F030008B7
:1001000057560008575600083304000861040008D9
:100110005756000857560008510300085D030008B1
:10012000575600089B020008B902000857560008FD
:1001300057560008575600085756000857560008EB
:1001400057560008575600085756000857560008DB
:10015000D90200085756000857560008575600089D
:1001600057560008575600085756000857560008BB
:1001700057560008575600085756000857560008AB
:100180005756000857560008DFF80CD009F0AEFDAE
:10019000004800475753000840340020234B19689B
:1001A0000868B0E8F04F80F309884FF0000080F352
:1001B000118870470000000003480068006880F361
:1001C000088862B600DF00BF08ED00E0DFF80C0031
:1001D000016841F470010160704700BF88ED00E0E4
:1001E000EFF30980114B1A681EF0100F08BF20EDC5
:1001F000108A20E9F04F106008B54FF0140080F32A
:10020000118808F0F0FD4FF0000080F31188BDE880
:10021000084019680868B0E8F04F1EF0100F08BFDA
:10022000B0EC108A80F30988704700BF7C0400207E
:10023000EFF311804FF0140181F31188704780F3C0
:1002400011887047704700BFFEE700BFFEE700BFA0
:10025000FEE700BFFEE770477047704710B540F2F9
:100260002551914807F00BFB18B120218E4807F06B
:10027000FDFA10BD10B58D498D4806F035FA10BD58
:1002800010B58C498A48303006F004FA20B189490B
:100290008748303006F028FA10BD10B586498748E7
:1002A00006F0F8F938B18449844806F01DFA01F0E7
:1002B000A6FD01F093FD10BD10B581497F481830AF
:1002C00006F012FA7F4840787E49097840EA01201A
:1002D00000B27D49088010BD10B57C497748603078
:1002E00006F002FA10BD10B573497148483806F09F
:1002F000D1F930B170496E48483806F0F5F900F090
:100300009FFA10BD10B572496948603806F0C2F90D
:1003100020B16F496648603806F0E6F910BD10B5A7
:100320006C496348483006F0B5F948B1002160488F
:10033000483006F005F967495D48483006F0D4F9C1
:1003400010BD10B559495A48303806F0CDF910BDE6
:1003500010B50121604806F0EFFF10BD10B5012176
:100360005E4806F0E9FF7A204F49888001215C4809
:1003700007F094F901215B4807F090F910BD10B522
:100380000121594806F0D8FF5748008800F01000B6
:1003900028B156480068401E5449086004E053489C
:1003A0000068401C5149086010BD704710B501211C
:1003B000880706F0C1FF4FF08040008800F0100071
:1003C00028B14B480068401E4949086004E048488D
:1003D0000068401C4649086010BD10B50121454821
:1003E00006F0AAFF4348008800F0100028B14248F8
:1003F0000068401E4049086004E03F480068401C17
:100400003D49086010BD10B501213C4806F094FF3D
:100410003A48008800F0100028B139480068401EB2
:100420003749086004E036480068401C34490860D9
:1004300010BD10B50121334806F07EFF3148008819
:1004400000F0100028B130480068401E2E490860B6
:1004500004E02D480068401C2B49086010BD70471F
:10046000704710B5042006F0D7F9D8B120212748ED
:1004700005F05BFA0421264805F032FA012804D180
:100480000021164806F0D8FA09E00421204805F0BA
:1004900027FA20B9114806F0D3FA1E490860042053
:1004A0001D49086010BD70470010014020800020E9
:1004B0007060024000802020008800102864024004
:1004C00000802010980600208C000020008800206A
:1004D0002080001000800028001000400014004020
:1004E0000048004000140140000001406C00002062
:1004F000700000200004004074000020000800404C
:1005000088000020000C004078000020000002401D
:10051000000C024068000020143C014070B5044605
:10052000204609F049F805462146FE4809F04BF8F7
:10053000A0B195222146FB4809F032F80021FA4883
:1005400005F0FEFFF748F8490C310860F648B83866
:10055000C0F8BC500121F44805F0F2FF70BD70B541
:100560000446002510E0605D68B1615DEF4807F06A
:10057000C0F800BF8021ED4807F06BF90028F9D0E2
:10058000681CC5B200E070BDEDE770B504460025FB
:100590000FE05CB12146E54807F0ABF800BF8021D1
:1005A000E24807F056F90028F9D000E070BD681C59
:1005B000C5B2032DEDDB00BFF8E713B50C460020F4
:1005C000FFF7E3FFDAA0FFF7CAFF2346D9A296217F
:1005D000D94809F0D5FBD848FFF7C1FFD7A0FFF7EE
:1005E000BEFFD4A29621D448009B09F0C9FBD24893
:1005F000FFF7B5FFD3A0FFF7B2FFFF20FFF7C5FF5E
:10060000FF20FFF7C2FFFF20FFF7BFFF1CBD70B543
:1006100005460C46C6A0FFF7A2FF2246C5A1C64864
:1006200009F0C6FBC448FFF79AFFC4A0FFF797FF85
:100630002846FFF794FFC3A0FFF791FFFF20FFF7C5
:10064000A4FF70BD77B585B00546FF26BBA103C9E1
:10065000CDE90301BBA000680290B5A0006801903D
:1006600000240AE00020B8490855B8490855B249A5
:100670000855AC490855601CC4B21E2CF2DB0A2098
:10068000AD490870FF2048708870C870A9A1AF48B4
:10069000079A09F08DFBAD4901A808F075FF01A983
:1006A000A54808F071FF03A9A34808F06DFF29468B
:1006B000A14808F069FF9FA1A448069A09F078FBB9
:1006C000A2499D4808F060FF02A99B4808F05CFF22
:1006D000FF209D49087048708870974808F054FFC3
:1006E0009548FFF71BFF08B070BDF7B584B005460D
:1006F0000E46FF2791A103C9CDE9020191A0006830
:1007000001908BA000680090002408E000208E4932
:1007100008558E49085588490855601CC4B20A2CF2
:10072000F4DB0A2084490870FF2048708870C87084
:1007300080A18648069A09F03BFB8449684608F088
:1007400023FF69467C4808F01FFF02A97A4808F099
:100750001BFF2946784808F017FF3146764808F015
:1007600013FF01A9744808F00FFFFF2076490870B5
:10077000487088700020C87008716F4808F004FF46
:100780006D48FFF7CBFE07B0F0BD01B58EB070A28B
:10079000322101A80E9B09F0F3FA01A8FFF7BEFE73
:1007A0000FB000BD73B584B00546FF2663A103C931
:1007B000CDE9020163A0006801905DA0006800908F
:1007C00000240AE0002060490855604908555A494C
:1007D000085554490855601CC4B21E2CF2DB0A208F
:1007E00055490870FF2048708870C87051A157485B
:1007F000059A09F0DDFA5549684608F0C5FE6946D4
:100800004D4808F0C1FE02A94B4808F0BDFE29463C
:10081000494808F0B9FE4D49474808F0B5FE01A91E
:10082000454808F0B1FEFF204749087048708870BD
:10083000414808F0A9FE4048FFF770FE06B070BDC1
:100840001CB54648007845494978084443498978A9
:1008500008444249C97808444049097908443F4955
:10086000497908443D49897908443C49C979084493
:100870003A49097A0844C0B201903848007A00F039
:100880000F0000909DF800000D2803D0002134488F
:1008900006F004FF1CBD3148007A00F00F000D285F
:1008A00006D12E48007800F0010008B10D207047F5
:1008B0000020FCE72948007800F0020008B1012080
:1008C00070470020FCE730B52DED048B83B0254840
:1008D00006F0B6F82449096840EA0145284609F0BF
:1008E00008F841EC190B9FED210B53EC102B08F08D
:1008F00091FF41EC180B09F00DF8019000244DE038
:10090000184806F09DF81849096840EA014528464C
:1009100008F0EFFF41EC190B9FED140B53EC102B7B
:1009200028E00000F2050020B860024000500040BE
:100930007400000025640000BC0400202E7478744C
:100940003D22000022000000A20500207A050020C0
:100950006A302E76616C3D2564000000D4060020CC
:10096000004800400004004074000020B81E85EBE1
:1009700051B81C4008F04EFF41EC180B08F0CAFFBC
:100980000290DDE90121881A002801DB014600E020
:100990004142052900DA641C02980190022CAFDB69
:1009A0000298404203B0BDEC048B30BD30B52DED54
:1009B000048B83B0FE4806F043F8FE49096840EA1C
:1009C0000145284608F095FF41EC190B1FED190B66
:1009D00053EC102B08F01EFF41EC180B08F09AFFA7
:1009E0000190002423E0F24806F02AF8F149096852
:1009F00040EA0145284608F07CFF41EC190B1FED49
:100A0000250B53EC102B08F005FF41EC180B08F0F8
:100A100081FF0290DDE90121881A002801DB0146EF
:100A200000E04142052900DA641C02980190022C82
:100A3000D9DB0298404203B0BDEC048B30BD30B529
:100A40002DED048B83B04FF0804005F0F9FFDA49BB
:100A5000096840EA0145284608F04BFF41EC190BB4
:100A60001FED3E0B53EC102B08F0D4FE41EC180B9D
:100A700008F050FF0190002424E04FF0804005F082
:100A8000DFFFCD49096840EA0145284608F031FFFB
:100A900041EC190B1FED4B0B53EC102B08F0BAFE79
:100AA00041EC180B08F036FF0290DDE90121881AAD
:100AB000002801DB014600E04142052900DA641C00
:100AC00002980190022CD8DB0298404203B0BDECA2
:100AD000048B30BD30B52DED048B83B0B74805F0E5
:100AE000AFFFB749096840EA0145284608F001FF11
:100AF00041EC190B9FEDB30B53EC102B08F08AFE61
:100B000041EC180B08F006FF0190002423E0AB48ED
:100B100005F096FFAA49096840EA0145284608F011
:100B2000E8FE41EC190B9FEDA70B53EC102B08F0DE
:100B300071FE41EC180B08F0EDFE0290DDE9012199
:100B4000881A002801DB014600E04142322900DA20
:100B5000641C02980190022CD9DB029803B0BDEC12
:100B6000048B30BD01B581B000200090019800EBEE
:100B7000C0004000009002E00098401E00900098E5
:100B80000028F9D10CBD01B581B00020009044F2DD
:100B9000506101984843009002E00098401E009088
:100BA00000980028F9D10CBD1CB501211F2005F0CB
:100BB0007BF84FF6FF70009001208DF804000020B4
:100BC0008DF8060001208DF8070003208DF8050040
:100BD00069467E4804F022FE4FF6FF700090012027
:100BE0008DF8040000208DF8060001208DF8070024
:100BF00003208DF805006946754804F00FFE4FF696
:100C0000FF70009001208DF8040000208DF8060090
:100C100001208DF8070003208DF8050069466D4816
:100C200004F0FCFD1CBD1CB501217E2005F03CF844
:100C3000C020009000208DF8040001208DF80700EE
:100C400002208DF805006946634804F0E7FD0620A0
:100C5000009000208DF8040001208DF8070002208C
:100C60008DF805006946594804F0D8FD042000902D
:100C700000208DF8040001208DF8070002208DF877
:100C800005006946524804F0C9FD1CBD1FB54FF46C
:100C9000E06004F0E5FC36208DF8000000208DF8BF
:100CA00001008DF8020001208DF80300684604F071
:100CB000DCFC0121102005F02AF83220ADF80400F8
:100CC00040F2E73002900020ADF80C00ADF80600CD
:100CD00001A9424805F067FE0121404806F02CFBBF
:100CE000012211463D4806F0FFFA00213B4805F07D
:100CF000A3FE0121394805F0DFFE1FBD1FB54FF4EB
:100D0000E06004F0ADFC37208DF8000000208DF885
:100D100001008DF8020001208DF80300684604F000
:100D2000A4FC0121202004F0F2FF3220ADF80400E1
:100D300040F2E73002900020ADF80C00ADF806005C
:100D400001A9274805F02FFE0121254806F0F4FAF5
:100D500001221146224806F0C7FA0021204805F07A
:100D60006BFE01211E4805F0A7FE1FBD00B58BB02C
:100D70000121022004F0DCFF01210C2004F094FF8B
:100D800003220621124804F0D4FD03220721104853
:100D900004F0CFFD032208210D4804F0CAFD032210
:100DA00009210B4804F0C5FD4FF47070069019E05E
:100DB000000C00407800002070000020000001407E
:100DC0006C0000206666666666A64E40000402401F
:100DD00000080240000C02400000024000100040E9
:100DE0000014004002208DF81C0003208DF81D0027
:100DF00000208DF81E0001208DF81F0006A9FE4876
:100E000004F00CFDA420ADF8200040F6B8300990A5
:100E10004FF48070ADF828000020ADF8220008A93A
:100E2000F64805F0C0FD6020ADF804000120ADF8E3
:100E3000060000200390ADF810000121EF4805F0F6
:100E40003BFE0021ED4805F0F7FD01A9EB4805F058
:100E50003FFE01A9E94805F074FE01A9E74805F045
:100E6000BDFE01A9E54805F01FFF0121E34806F09A
:100E700014FA0BB000BD00B58BB00121082004F0BE
:100E800046FF0121084604F00FFF02220021DC4842
:100E900004F04FFD02220121D94804F04AFD02224C
:100EA0001146D74804F045FD02220321D44804F03E
:100EB00040FD0F20069002208DF81C0003208DF8C5
:100EC0001D0000208DF81E0001208DF81F0006A9CE
:100ED000CB4804F0A3FCBA20ADF8200042F2107019
:100EE00009900020ADF82800ADF8220008A9C548F7
:100EF00005F059FD6020ADF804000120ADF80600B2
:100F000000200390ADF810000121BE4805F0D4FD8B
:100F10000021BC4805F090FD01A9BA4805F0D8FDB4
:100F200001A9B84805F00DFE01A9B64805F056FE26
:100F300001A9B44805F0B8FE0121B24806F0ADF9A8
:100F40000BB000BD00B58BB00121042004F0DFFE22
:100F500001210D2004F0A8FE02220C21AA4804F071
:100F6000E8FC02220D21A84804F0E3FC02220E2135
:100F7000A54804F0DEFC02220F21A34804F0D9FCAE
:100F80004FF47040069002208DF81C0003208DF86D
:100F90001D0000208DF81E0001208DF81F0006A9FD
:100FA000994804F03BFCA420ADF8200040F6B8308E
:100FB00009904FF48070ADF828000020ADF82200B1
:100FC00008A9924805F0EFFC6020ADF8040001206C
:100FD000ADF8060000200390ADF8100001218B4809
:100FE00005F06AFD0021894805F026FD01A9874822
:100FF00005F06EFD01A9854805F0A3FD01A9834810
:1010000005F0ECFD01A9814805F04EFE0BB000BDD6
:1010100000B589B00121080404F08AFE01210846C8
:1010200004F042FE03221146754804F082FC0322BC
:101030000221734804F07DFC0C20019002208DF801
:10104000080003208DF8090000208DF80A00012017
:101050008DF80B0001A96A4804F0E0FB0020ADF810
:1010600018004FF6FF7007900020ADF82000ADF893
:101070001A0006A9664805F096FC0420ADF80C009D
:101080000020ADF80E00C820ADF814000120ADF826
:10109000100003A95E4806F05DF800231A460321FC
:1010A0005C4806F0F4F901215A4806F045F901229E
:1010B0001146584806F018F90121554805F0FCFC86
:1010C0000021544805F0B8FC09B000BD00B589B056
:1010D0000121084604F01BFE0121022004F017FE46
:1010E0000121032004F0E0FD01220F21444804F017
:1010F00020FC01220321484804F01BFC02220421A9
:10110000454804F016FC02220521434804F011FC76
:101110003820019002208DF8080003208DF8090086
:1011200000208DF80A0001208DF80B0001A93A4833
:1011300004F074FB4FF40040019002208DF8080089
:1011400003208DF8090000208DF80A0001208DF899
:101150000B0001A92A4804F061FB0020ADF818003B
:101160004FF6FF7007900020ADF82000ADF81A0090
:1011700006A94FF0804005F016FC06A9274805F0A7
:1011800012FC0420ADF80C000220ADF80E00142073
:10119000ADF814000120ADF8100003A9800705F098
:1011A000D9FF03A91D4805F0D5FF02231A460321E4
:1011B000580706F06CF902231A460321174806F077
:1011C00066F90121880706F0B7F80121134806F0F7
:1011D000B3F801221146900706F086F80122114665
:1011E0000E4806F081F80121880705F065FC012111
:1011F0000A4805F061FC13E00008024000040140C9
:1012000000000240000C0040000C024000080040BA
:101210000000014000400140000402400004004082
:1012200000214FF0804005F007FC0021FE4805F04A
:1012300003FC4FF4C06004F013FA1D208DF8000089
:1012400003208DF8010000208DF8020001208DF8A8
:101250000300684604F009FA1C208DF80000042001
:101260008DF8010000208DF8020001208DF80300A8
:10127000684604F0FAF909B000BD00B589B0012153
:10128000084604F055FD0121102004F00DFD4FF437
:101290002060019002208DF8080003208DF80900DD
:1012A00000208DF80A0001208DF80B0001A9DF480D
:1012B00004F0B4FA01220921DC4804F03AFB0122CF
:1012C0000B21DA4804F035FB0020ADF818004FF68A
:1012D000FF7007900020ADF82000ADF81A0006A9B5
:1012E000D34805F060FB0420ADF80C000020ADF8F9
:1012F0000E000A20ADF814000120ADF8100003A97B
:10130000CB4805F027FF00231A460321C84806F002
:10131000BEF80121C64806F00FF801221146C44864
:1013200005F0E2FF0121C24806F006F8012211464D
:10133000BF4805F0D9FF0121BD4805F0BDFB0021E4
:10134000BB4805F079FB4FF4C06004F089F919201F
:101350008DF8000001208DF8010000208DF80200BA
:1013600001208DF80300684604F07FF909B000BD44
:1013700000B589B00121042004F0C9FC0121082036
:1013800004F092FC4FF44050019002208DF80800C8
:1013900003208DF8090000208DF80A0001208DF847
:1013A0000B0001A9A34804F039FA0020ADF8180099
:1013B0004FF6FF7007900020ADF82000ADF81A003E
:1013C00006A99D4805F0EFFA02220C21994804F085
:1013D000B0FA02220D21974804F0ABFA0420ADF8D0
:1013E0000C000220ADF80E00C820ADF8140001205A
:1013F000ADF8100003A9904805F0ACFE02231A4690
:1014000003218D4806F043F801218B4805F094FF35
:1014100001221146884805F067FF0121864805F042
:101420004BFB0021844805F007FB00208249143162
:1014300008800120804908804FF4C06004F010F952
:101440001E208DF8000004208DF8010000208DF88A
:10145000020001208DF80300684604F006F909B087
:1014600000BD00B589B00121082004F050FC012125
:10147000084604F019FC0320019002208DF80800B2
:1014800003208DF8090000208DF80A0001208DF856
:101490000B0001A9694804F0C1F90020ADF818005B
:1014A0004FF6FF7007900020ADF82000ADF81A004D
:1014B00006A9634805F077FA022200215F4804F08C
:1014C00038FA022201215D4804F033FA0420ADF815
:1014D0000C000220ADF80E00C820ADF81400012069
:1014E000ADF8100003A9564805F034FE02231A4651
:1014F0000321534805F0CBFF0121514805F01CFFA3
:10150000012211464E4805F0EFFE01214C4805F03E
:10151000D3FA00214A4805F08FFA002048491431D7
:1015200008800120464908804FF4C06004F098F814
:1015300032208DF8000004208DF8010000208DF885
:10154000020001208DF80300684604F08EF809B00F
:1015500000BD00B59BB001213A4804F0A5FB012174
:10156000080204F0E5FB002002903748039037485A
:1015700004900020059008200690002007904FF46A
:10158000806008904000099080000A9040110B9004
:1015900040020C9000200D9001200E9000200F9032
:1015A000109002A92A4804F091FF0121284804F074
:1015B000C7FF3C20009003208DF8040000208DF828
:1015C000070069461D4804F029F93C2000900320DB
:1015D0008DF8040000208DF8070069461D4804F0CE
:1015E0001DF90020119012901390149011A804F08E
:1015F000D3FC4FF08070159001208DF858008DF8C5
:101600005900002017901890199008208DF8680054
:1016100015A90D484C3804F090FC0023012202214A
:1016200009484C3818E00000000400400010024057
:1016300000000140000C0240000800400000024091
:10164000000C0040050040004C20014088060020AE
:10165000106402400008024004F0F5FC002302225E
:101660000321FA4804F0EFFC002303220421F74889
:1016700004F0E9FC002304220521F44804F0E3FC13
:10168000002305220C21F14804F0DDFC0023062292
:101690000D21EE4804F0D7FC002307220E21EB4871
:1016A00004F0D1FC002308220F21E84804F0CBFC11
:1016B0000121E64804F072FD0121E44804F063FDD5
:1016C0000121E24804F07FFCE04804F018FD1BB063
:1016D00000BD08B54FF4E06003F0C2FF25208DF88F
:1016E000000000208DF801008DF8020001208DF827
:1016F0000300684603F0B9FF08BD10B596B0044674
:101700000121102004F014FB0121084604F0CCFA5A
:101710000121880504F0C8FA4FF4C060009002204F
:101720008DF8040000208DF806008DF807000220D7
:101730008DF805006946C64804F070F807220921B3
:10174000C34804F0F6F807220A21C14804F0F1F872
:1017500002940020ADF80C00ADF80E00ADF81000BA
:10176000ADF814000C20ADF8120002A9B94805F03C
:101770000DFF0121B74805F091FF4FF4A06003F081
:101780006FFF3A208DF8180000208DF819008DF8B1
:101790001A0001208DF81B0006A803F066FFAE4872
:1017A00004F0F2FD4FF00060079000200A90AB4873
:1017B00009900A200B90A748001D089000200C906B
:1017C0004FF480600D9000200E900F904FF48070C9
:1017D00010904002119004201290032013900020DA
:1017E0001490159007A99C4804F070FE0122402136
:1017F000984806F000F801221021974804F02DFFC8
:101800000121954804F09CFE16B010BD10B596B0AD
:1018100004460121480504F047FA0121480404F078
:1018200076FA0121082004F03FFA6020009002209F
:101830008DF8040000208DF806008DF807000220C6
:101840008DF805006946864803F0E8FF0722052168
:10185000834804F06EF807220621814804F069F8F5
:1018600002940020ADF80C00ADF80E00ADF81000A9
:10187000ADF814000C20ADF8120002A9794805F06B
:1018800085FE0121774805F009FF4FF4A06003F0C1
:10189000E7FE11208DF8180000208DF819008DF852
:1018A0001A0001208DF81B0006A803F0DEFE6E482A
:1018B00004F06AFD4FF00060079040200A906B48EA
:1018C000099050200B906748001D089000200C9054
:1018D0004FF480600D9000200E900F904FF48070B8
:1018E00010904002119004201290032013900020C9
:1018F0001490159007A95C4804F0E8FD01228021AE
:10190000584805F078FF01228021564805F073FF02
:1019100001221021544804F0A0FE0121524804F095
:101920000FFE16B010BD10B596B004460121880414
:1019300004F0EDF90121082004F0B6F90121480571
:1019400004F0B2F94FF44070009002208DF80400CA
:1019500000208DF806008DF8070002208DF80500A4
:1019600069463F4803F05AFF072208213C4803F02C
:10197000E0FF072209213A4803F0DBFF0294002030
:10198000ADF80C00ADF80E00ADF81000ADF8140085
:101990000C20ADF8120002A9354805F0F7FD012131
:1019A000334805F07BFE4FF4A06003F059FE0C2095
:1019B0008DF8180000208DF819008DF81A0001200C
:1019C0008DF81B0006A803F050FE2748783804F075
:1019D000DBFC4FF00060079000200A90254809903A
:1019E0000A200B902248001D089000200C904FF414
:1019F00080600D9000200E900F904FF4807010903A
:101A000040021190042012900320139000201490A3
:101A1000159007A91448783804F058FD0122402198
:101A2000134805F0E8FE01224021114805F0E3FECD
:101A3000012210210C48783804F00FFE01210A48D9
:101A4000783804F07DFD16B010BD00000020014084
:101A5000000002400010014040640240980600204F
:101A6000000C024000440040A0600240040000203E
:101A700000480040D406002010B596B0044601216D
:101A8000C80404F044F90121084604F00DF90121CD
:101A9000480504F009F90320009002208DF80400A5
:101AA00000208DF806008DF8070002208DF8050053
:101AB0006946FB4803F0B2FE08220021F84803F013
:101AC00038FF08220121F64803F033FF029400207A
:101AD000ADF80C00ADF80E00ADF81000ADF8140034
:101AE0000C20ADF8120002A9EE4805F04FFD0121CF
:101AF000EC4805F0D3FD4FF4A06003F0B1FD0D20DC
:101B00008DF8180000208DF819008DF81A000120BA
:101B10008DF81B0006A803F0A8FDE34804F034FC90
:101B20004FF00060079000200A90E04809900820DC
:101B30000B90DC48001D089000200C904FF4806052
:101B40000D9000200E900F904FF480701090400286
:101B500011900420129003201390002014901590EF
:101B600007A9D14804F0B2FC01224021CD4805F07C
:101B700042FE01224021CB4805F03DFE012210210A
:101B8000C94804F06AFD0121C74804F0D9FC16B029
:101B900010BD10B596B004460121480504F084F844
:101BA0000121080504F0B3F801210C2004F07CF8B1
:101BB0000420009002208DF8040000208DF806001B
:101BC0008DF8070002208DF805006946B84803F03B
:101BD00025FE4FF48050009002208DF80400002074
:101BE0008DF806008DF8070002208DF80500694683
:101BF000B04803F013FE08220221AD4803F099FE1D
:101C000008220C21AB4803F094FE4FF4A06003F0CF
:101C100027FD2F208DF8180005208DF819008DF86C
:101C20001A0001208DF81B0006A803F01EFD029487
:101C30000020ADF80C00ADF80E00ADF81000ADF8C6
:101C400014000C20ADF8120002A99B4805F09EFC80
:101C50000121994805F022FD9348783004F094FB67
:101C60004FF00060079040200A9094480990962019
:101C70000B909148001D089000200C904FF480605C
:101C80000D9000200E900F9010904FF400301190A6
:101C9000002012900320139000201490159007A9A3
:101CA0008148783004F012FC01228021824805F03E
:101CB000A2FD012210217C48783004F0CEFC0121E5
:101CC0007948783004F03CFC16B010BD10B596B0E1
:101CD00004460121202004F02BF80121042003F008
:101CE000E3FF0121880503F0DFFFC0200090022000
:101CF0008DF8040000208DF806008DF80700022002
:101D00008DF8050069466B4803F088FD082206211E
:101D1000684803F00EFE08220721664803F009FE1A
:101D200002940020ADF80C00ADF80E00ADF81000E4
:101D3000ADF814000C20ADF8120002A9604805F0BF
:101D400025FC01215E4805F0A9FC4FF4A06003F0DA
:101D500087FC39208DF8180003208DF81900012028
:101D60008DF81A008DF81B0006A803F07EFC55487C
:101D700004F00AFB4FF02060079000200A905248C0
:101D8000099006200B904E48001D089000200C90F2
:101D90004FF480600D9000200E900F904FF48070F3
:101DA0001090400211900420129003201390002004
:101DB0001490159007A9434804F088FB01224021A4
:101DC0003F4805F018FD012210213E4804F045FC73
:101DD00001213C4804F0B4FB16B010BD3A4800782D
:101DE00011280BD1384840783749897840EA0120DA
:101DF000364908600846006835490860704732482F
:101E00000078AA2813D13048407855280FD12E49A0
:101E1000497909062C4A127941EA02412A4AD278C4
:101E200041EA0221284A927841EA020000BF704745
:101E300000B585B00121082003F036FF0121880399
:101E400003F076FF00208DF8100001208DF81300BC
:101E50000C20039003A9164803F0E0FC02210320A4
:101E600005F062FD0420009000208DF80400102091
:101E70008DF8050001208DF80600684604F066FC28
:101E800008208DF8080000208DF809008DF80A0060
:101E900001208DF80B0002A803F0E7FB05B000BDA0
:101EA00000000240004C004040600240A7060020B5
:101EB000000C02400008024000500040F2050020E3
:101EC00000140140286402409B010020A40100206E
:101ED000A801002070B504460D46012C0BD12946FF
:101EE000FE4805F006FC00BF4021FC4805F0B1FCAF
:101EF0000028F9D028E0032C0BD12946F84805F03A
:101F0000F8FB00BF4021F64805F0A3FC0028F9D0FB
:101F10001AE0042C0BD12946F24805F0EAFB00BF79
:101F20004021F04805F095FC0028F9D00CE0052C84
:101F30000AD12946EC4805F0DCFB00BF4021EA4805
:101F400005F087FC0028F9D070BD0020E749486201
:101F5000E7490860E7490860E749086070470020E2
:101F6000E2494862E24908604FF080414862E34933
:101F70000860E3490860E3490860DE490860DE491B
:101F80000860E1490860E1490860704700204FF0AF
:101F900080414862D949086070470020D8490860EC
:101FA000D8490860704710B50020D949087000244E
:101FB00007E061210120FFF78DFF3220FEF7E3FDEE
:101FC000641C022CF5D30120D14908707A20D14934
:101FD000087010BD10B50020CF490870002407E03C
:101FE00061210320FFF776FF3220FEF7CCFD641C51
:101FF000022CF5D30120C84908707A20C74908701F
:1020000010BD2DE9F14FAEB0C5A02D9000202C9051
:102010008DF888008DF860002E98122831D2DFE804
:1020200000F00931394A565E656E757C838A919D50
:10203000A4ABB2FD0221C34803F052FC88B10022D8
:102040004FF40041C04803F069FC4FF40041BE4822
:1020500003F053FC044600222146BCA0FEF7F2FA2E
:102060000FE00122D103B84803F058FC4FF40041BF
:10207000B54803F042FC044600222146BBA0FEF70F
:10208000E1FA7AE20122C148B0F90010C0A0FEF7DF
:10209000D9FA72E2C04890ED000AC048D0ED000ABB
:1020A00030EE200ABDEEC00A10EE101A0222BCA0CB
:1020B000FEF7C8FA61E20322B84890ED000ABDEECF
:1020C000C00A10EE101AB9A0FEF7BCFA55E2BA48E1
:1020D00090F83B100422B9A0FEF7B4FA4DE20522B5
:1020E000BA480168BAA0FEF7ADFA46E2FEF7EBFB8C
:1020F000044606222146B9A0FEF7A4FA3DE20722D3
:10210000B9480168B9A0FEF79DFA36E20822BC483A
:102110000168BCA0FEF796FA2FE20922BC480168CC
:10212000BCA0FEF78FFA28E20A22BE480168BEA0D2
:10213000FEF788FA21E20B22B5480168BEA0FEF73F
:1021400081FA1AE20C22BF4890ED000ABDEEC00AE7
:1021500010EE101ABCA0FEF775FA0EE20D22BE4872
:102160000168BEA0FEF76EFA07E20E22C0480168C1
:10217000C0A0FEF767FA00E20F22C3480168C3A0BF
:10218000FEF760FAF9E10121C54803F0A9FB4FF41D
:10219000005117906C4803F0A3FB04460221C0488D
:1021A00003F09EFB05464FF48041674803F098FB1F
:1021B00006460421BA4803F093FB4FF40041169001
:1021C000B74803F08DFB07460821B54803F088FBAC
:1021D00080464FF48041B24803F082FB81461021D3
:1021E000AF4803F07DFB4FF400511590AC4803F06D
:1021F00077FB82460821AB4803F072FB4FF4805115
:102200001490A74803F06CFB10211390A54803F02D
:1022100067FB4FF480611290A14800E02FE003F0CB
:102220005FFB834680219E4803F05AFB4FF4807188
:1022300011909B4803F054FB10901798CDE90B6563
:10224000CDE90D401698CDE90798CDE90970DDE993
:1022500013121598CDE9042A03910690DDE91110B7
:10226000CDE9001B029090A2282122A8109B07F024
:1022700087FD102222A995A0FEF737FA7DE1802183
:10228000304803F03AFB044601212E4803F035FBA9
:10229000054640212B4803F030FB06464FF4004131
:1022A000804803F02AFB07464FF48051884803F02A
:1022B00024FB80464FF48061224803F01EFB8146D8
:1022C0004FF40061824803F018FB4FF4006117904F
:1022D0001C4803F012FB8246FCE0000000100140A5
:1022E00000480040004C0040005000400000014009
:1022F0006C000020240800408800002070000020AE
:102300002404004074000020240C004078000020C9
:1023100091000020900000209300002092000020F7
:10232000313131313131313131313131313131319D
:10233000313131313131303131313131313131318E
:10234000000000000004024000080240524F424FCB
:102350005420322044414E472043484159205341A4
:102360004E2058414E483A2020200000524F424F04
:102370005420322044414E47204348415920534184
:102380004E20444F3A202020000000008C00002006
:10239000494D553A00000000500100204C0100203A
:1023A0004C75635475446F6E673A000042755F74F4
:1023B00072755F6C7563200004000020546F635FCA
:1023C000646F5F6E616E6768613A20005803002099
:1023D0006B635F6C617365723A200000454E434F3A
:1023E0004445525F304820005C0300206C617A65F0
:1023F0005472616956616C75655F42616E000000E0
:10240000A80100204B2F435F43687579656E20005B
:10241000AC0000204254204E616E675F4861203A54
:1024200000000000A00000206C617A6554726169B0
:1024300056616C7565203A0042545F4E616E675F6D
:1024400048613A00540100204C7563204368757957
:10245000656E3A20000000007C020020205F346896
:102460005F576865656C5F416E676C653A20000078
:102470008C0200205F38685F576865656C5F416E4D
:10248000676C65203A200000840200205F30685F9E
:10249000576865656C5F416E676C653A20000000A7
:1024A00000100240000C0240256425642564256468
:1024B00025642564256425642564256425642564D4
:1024C000256425642564256400000000493A000065
:1024D000000002404FF48061F74803F00EFA834693
:1024E0004FF48051F54803F008FA4FF4006116905C
:1024F000F14803F002FA4FF400511590EF4803F051
:10250000FCF94FF480411490EB4803F0F6F94FF4D6
:1025100080411390E94803F0F0F94FF48071129074
:10252000E74803F0EAF94FF400411190E34803F063
:10253000E4F9CDE90B76CDE90D5410901798CDE96B
:1025400007A0CDE90998DDE914121698CDE9050B2D
:10255000CDE90312DDE911121398CDE900120290C2
:10256000AFF2BC02282122A8109B07F009FC11221F
:1025700022A9D4A0FEF7B9F800BF00BF2FB0BDE874
:10258000F08F10B50121D14803F0DAFF10BD01B57D
:10259000CF4800680099884203DD0020CC490860DC
:1025A00004E0CB480068401CC9490860C84800687E
:1025B000FFF727FD08BD10B5FEF785F9C54908608E
:1025C000FEF7F4F9C4490860FEF739FAC349086018
:1025D00010BD2DE9F0412DED088B06460F46304623
:1025E00007F087F941EC190B9FEDBD1BB0EE490ACE
:1025F000F0EE690A08F00CF8B0EE408AF0EE608A5E
:1026000051EC180B07F086F90446002C02DBA4F508
:10261000E16401E004F5E164384607F06AF941EC51
:102620001B0B9FEDAF1BB0EE4B0AF0EE6B0A07F0F1
:10263000EFFFB0EE409AF0EE609A304607F059F99D
:1026400041EC1B0B9FEDA61BB0EE4B0AF0EE6B0AA4
:1026500007F0DEFFB0EE40AAF0EE60AA53EC192BB3
:1026600051EC1A0B07F05EF841EC180B07F052F929
:1026700005462846211E01DB0A4600E04A420028A2
:1026800001DB034600E043429A4205DA25464FF05B
:10269000FF309549086003E0354601209249086003
:1026A0002846BDEC088BBDE8F0810146FA2901DD22
:1026B000FA2102E0042900DC0421C8B2704710B5F9
:1026C00004460B4624B9894800788949C87116E048
:1026D000884890ED000AB5EEC00AF1EE10FA07DD69
:1026E0002046FFF7E2FF8249C8710020887106E0AA
:1026F0006042FFF7DAFF7E49C8710120887123B973
:102700007A4800787A49C87516E07B4890ED000A4F
:10271000B5EEC00AF1EE10FA07DD1846FFF7C5FF67
:102720007349C8750020887506E05842FFF7BDFF61
:102730006F49C8750120887522B96C4800786C49CA
:10274000C87316E06D4890ED000AB5EEC00AF1EED0
:1027500010FA07DD1046FFF7A8FF6549C87300208F
:10276000887306E05042FFF7A0FF6149C87301205B
:10277000887310BD624B1860624B1960624B1A601F
:1027800070475B4AD071D075D07370475848C07994
:10279000032809DA5648C07D032805DA5448C07B6F
:1027A000032801DA012070470020FCE70120574987
:1027B000086070475648006847F23051884201D09F
:1027C000012070470020FCE710B5FFF7ECFB10BDBF
:1027D0005048B0F9000040427047B5EEC00AF1EE33
:1027E00010FA09D24C48D0ED000A70EE600AFDEEF6
:1027F000E00A10EE900A70474748D0ED000A70EEEC
:10280000200AFDEEE00A10EE900AF4E710B52DED77
:10281000088B044624B99FED410ABDEC088B10BD1E
:10282000002C1DDA3E48006807F063F841EC190BF4
:10283000204607F05EF841EC1B0B9FED3A0B53EC82
:10284000102B06F06FFF41EC1A0B53EC192B06F01E
:10285000E1FF41EC180B07F08FF800EE100ADCE7FF
:102860002F48006807F045F841EC190B204607F0A7
:1028700040F841EC1B0B9FED2B0B53EC102B06F09B
:10288000B0FE41EC1A0B53EC192B06F0C3FF41ECE0
:10289000180B07F071F800EE100ABEE7F0EE400AE0
:1028A000F5EEC00AF1EE10FA02DBB0EE600A7047F6
:1028B000B1EE600AFBE70000000C02400004024099
:1028C000000002404F55543A00000000A060024052
:1028D00084000020E0030020E4030020E80300203F
:1028E000000000000020AC409C020020F801002005
:1028F0000400002060020020640200206802002022
:1029000084020020880200208C020020D8020020CF
:10291000240200208C000020B801002000000000EC
:10292000100200209A9999999999B93F0146002976
:1029300001DB084670474842FCE70146FE48D0EDFF
:10294000000AF1EE600AFD48D0ED001A80EEA11AEF
:1029500000EE901AF8EEE01AF748D0ED000A41EECA
:10296000210AB0EE600AFDEEC00A10EE900A704730
:10297000F0EE401A9FEDF22AB0EE420AF5EEC01AD0
:10298000F1EE10FA03D2B1EE612AF0EE421AF5EE42
:10299000C00AF1EE10FA03D2B1EE602AF0EE420A5C
:1029A000B5EEC01AF1EE10FA03D2B1EE412AB0EE44
:1029B000421AF4EEC01AF1EE10FA01DDB0EE610A2F
:1029C000F4EEC00AF1EE10FA01DDB0EE600AB4EEEA
:1029D000C01AF1EE10FA01DDB0EE410A7047D94895
:1029E00000687047D8480068704710B52DED0A8B15
:1029F000F0EE408A18EE900A06F0ABFF41EC1C0B9B
:102A00001FED491BB0EE4C0AF0EE6C0A07F000FE19
:102A1000B0EE40BAF0EE60BA1FED4F0B53EC102B46
:102A200051EC1B0B06F0DDFD41EC1A0B1FED541BA6
:102A3000B0EE4A0AF0EE6A0A07F0EAFDB0EE409AFC
:102A4000F0EE609A51EC190B06F096FF08EE100AB2
:102A50009FEDBE0AB4EEC08AF1EE10FA06DD9FEDDE
:102A6000BC0AB4EEC08AF1EE10FA0BD3B5EEC08A00
:102A7000F1EE10FA0ADB9FEDB70AB4EEC08AF1EE70
:102A800010FA03D80120BDEC0A8B10BD9FEDB20AED
:102A9000B4EEC08AF1EE10FA01D80220F3E79FED00
:102AA000AF0AB4EEC08AF1EE10FA01D80320EAE7CB
:102AB0000420E8E710B52DED108B8AB0B0EE408A07
:102AC000F0EE608AB0EE419AA54890ED000A28EE3B
:102AD000000ADFEDA40A80EE201A11EE104A20460B
:102AE00006F037FFCDE908019DED080B07F02CFD3E
:102AF000B0EE40FAF0EE60FA18EE900A06F029FF08
:102B000041EC1E0B53EC1F2B06F012FE41EC1C0B8C
:102B100006F032FF0AEE900A19EE100A06F019FFCD
:102B2000CDE906018E4890ED000A28EE000ADFED9F
:102B30008D0A80EE201A11EE104A204606F009FF99
:102B400041EC1E0BB0EE4E0AF0EE6E0A08F00CFCE3
:102B50008DED040B18EE900A06F0FBFE41EC1C0B09
:102B60009DED040B53EC102B06F0E2FD41EC1F0B26
:102B70009DED060B53EC102B06F033FDCDE908015B
:102B80009DED080B51EC100B06F0F6FE0BEE100A53
:102B90009FED750A38EE400A7148D0ED000A20EE2C
:102BA000200ADFED700A80EE201A11EE104A20464E
:102BB00006F0CFFECDE908019DED080B07F0C4FC3F
:102BC000B0EE40FAF0EE60FA18EE900A06F0C1FEA0
:102BD00041EC1E0B53EC1F2B06F0AAFD41EC1C0B25
:102BE00006F0CAFE0BEE900A19EE100A06F0B1FECE
:102BF00041EC1F0B9FED5C0A38EE400A5848D0EDBF
:102C0000000A20EE200ADFED570A80EE201A11EEAE
:102C1000104A204606F09DFE41EC1E0BB0EE4E0A17
:102C2000F0EE6E0A08F0A0FB8DED040B18EE900A92
:102C300006F08FFE41EC1C0B9DED040B53EC102BAA
:102C400006F076FD53EC1F2BCDE906019DED060B3A
:102C500051EC100B06F0C5FCCDE908019DED080B09
:102C600051EC100B06F088FE0DEE100A9FED3F0AA6
:102C700038EE400A3A48D0ED000A20EE200ADFED97
:102C8000390A80EE201A11EE104A204606F061FE45
:102C900041EC1E0BB0EE4E0AF0EE6E0A07F054FC4B
:102CA000B0EE40FAF0EE60FA18EE900A06F051FE2F
:102CB00041EC1C0B53EC1F2B06F03AFDCDE908014B
:102CC0009DED080B51EC100B06F056FE09EE900A34
:102CD00019EE100A06F03DFE9FED240A38EE400A78
:102CE000CDE906011E48D0ED000A20EE200ADFEDF6
:102CF0001D0A80EE201A11EE104A204606F029FE29
:102D000041EC1E0BB0EE4E0AF0EE6E0A08F02CFB02
:102D1000B0EE40CAF0EE60CA18EE900A06F019FE56
:102D200041EC1F0B53EC1C2B06F002FDCDE9040116
:102D30009DED060B1CE00000F0010020F4010020D6
:102D40006F12833A100200204002002000E0444548
:102D5000000061450000E14300C0A84400A00C450C
:102D6000040200200000E1440000964400001645E3
:102D700053EC102B9DED040B51EC100B06F031FCC5
:102D8000CDE908019DED080B51EC100B06F0F4FDA8
:102D90000AEE100AF0EE6A0AB0EE4B0A07F0ACFA3F
:102DA0005FED100A20EE200AF848D0ED000A80EE10
:102DB000201AF74880ED001AF6480168F44890EDB3
:102DC000000ABDEEC00A10EE100AFFF702FC00EE8A
:102DD000100AB8EEC00AEE4880ED000AEE4890ED09
:102DE000000AB8EEC00AED4880ED000AEA48006823
:102DF00006F07FFDCDE906011BEE100A06F0A9FDE5
:102E000041EC1E0B9FEDE61BB0EE4E0AF0EE6E0A93
:102E100007F082FCB0EE40FAF0EE60FA1AEE900A8B
:102E200006F097FD41EC1E0B9FEDDD1BB0EE4E0A48
:102E3000F0EE6E0A07F070FC8DED000B53EC1F2BCB
:102E40009DED000B51EC100B06F0CBFBCDE9020120
:102E50009DED020B08F0ECFAB0EE40CAF0EE60CA4D
:102E60009FEDD10B53EC102B51EC1C0B06F0D2FC58
:102E7000CDE904019DED060B53EC102B9DED040BE9
:102E800051EC100B06F054FCCDE908019DED080B48
:102E900051EC100B06F070FDC5490860F0EE6B0AAE
:102EA000B0EE4D0A07F028FA5FED520A20EE200A34
:102EB000B648D0ED000A80EE201ABE4880ED001A18
:102EC000BD480168BB4890ED000ABDEEC00A10EE97
:102ED000100AFFF77EFB00EE100AB8EEC00AB548F4
:102EE00080ED000AAC4890ED000AB8EEC00AB34885
:102EF00080ED000AA848006806F0FBFCCDE9060159
:102F00001DEE100A06F025FD41EC1E0B9FEDA41BE3
:102F1000B0EE4E0AF0EE6E0A07F0FEFB8DED020BEE
:102F20001BEE900A06F015FD41EC1E0B9FED9C1B5D
:102F3000B0EE4E0AF0EE6E0A07F0EEFB8DED000BE0
:102F40009DED020B53EC102B9DED000B51EC100B83
:102F500006F047FB41EC1C0BB0EE4C0AF0EE6C0A9D
:102F600008F066FAB0EE40FAF0EE60FA9FED8E0BD4
:102F700053EC102B51EC1F0B06F04CFCCDE9040177
:102F80009DED060B53EC102B9DED040B51EC100B3B
:102F900006F0CEFBCDE908019DED080B51EC100BBE
:102FA00006F0EAFC86490860F0EE690AB0EE4A0ACB
:102FB00007F0A2F95FED950A20EE200A7348D0EDE4
:102FC000000A80EE201A7F4880ED001A7E480168D2
:102FD0007C4890ED000ABDEEC00A10EE100AFFF723
:102FE000F8FA00EE100AB8EEC00A764880ED000A42
:102FF000694890ED000AB8EEC00A744880ED000AF6
:103000006548006806F075FC41EC1F0B1AEE100ACB
:1030100006F09FFC41EC1E0B9FED611BB0EE4E0ACB
:10302000F0EE6E0A07F078FB8DED000B19EE900ABA
:1030300006F08FFC41EC1E0B9FED591BB0EE4E0AC3
:10304000F0EE6E0A07F068FBB0EE40CAF0EE60CA20
:103050009DED000B53EC102B51EC1C0B06F0C1FA4C
:10306000CDE902019DED020B08F0E2F98DED040BB4
:103070009FED4D0B53EC102B9DED040B51EC100B01
:1030800006F0C8FB53EC1F2BCDE906019DED060BA6
:1030900051EC100B06F04CFBCDE908019DED080B3F
:1030A00051EC100B06F068FC494908601AEE100A52
:1030B00006F04FFC41EC1F0B9FED391BB0EE4F0AA1
:1030C000F0EE6F0A07F028FB8DED080B19EE900A61
:1030D00006F03FFC41EC1F0B9FED311BB0EE4F0A99
:1030E000F0EE6F0A07F018FB8DED060B9DED080B57
:1030F00053EC102B9DED060B51EC100B06F071FA02
:1031000041EC1C0BB0EE4C0AF0EE6C0A08F090F9A2
:10311000B0EE40EAF0EE60EA51EC1E0B06F0FAFB6E
:103120002C490860264890ED000ABDEEC00A2A48E6
:1031300080ED000A294890ED000AB8EEC00AFFF7BA
:1031400054FC274908600AB0BDEC108B10BDF0EEAE
:10315000400AB0EE600ABAEE0E1AF4EEC10AF1EEC1
:1031600010FA04D2BAEE0E1AB0EE410A0DE0184879
:1031700090ED001AF2EE0E1AB4EEE11AF1EE10FA2A
:1031800003DDB2EE0E1AB0EE410A704704020020D1
:103190006C020020E00300209C020020600200205E
:1031A000000000000000004000000000000034406B
:1031B0005402002070020020E4030020640200207A
:1031C0005802002074020020E8030020680200205A
:1031D0005C020020780200207C02002024020020F3
:1031E00080020020F948D0ED000AF5EEC00AF1EEA9
:1031F00010FA06DDD0ED000A70EEC00AC0ED000A3C
:1032000006E0F248D0ED000A70EE800AC0ED000A38
:10321000EE48D0ED000ABAEE0E1AF4EEC10AF1EE55
:1032200010FA04D2FAEE0E0AC0ED000A0DE0E748EB
:10323000D0ED000AB2EE0E1AF4EEC10AF1EE10FA69
:1032400003DDF2EE0E0AC0ED000A7047DF48D0ED54
:10325000000AF5EEC00AF1EE10FA06DDD0ED000A24
:1032600070EE800AC0ED000A06E0D848D0ED000AF2
:1032700070EEC00AC0ED000AD448D0ED000ABAEEE4
:103280000E1AF4EEC10AF1EE10FA04D2FAEE0E0AAA
:10329000C0ED000A0DE0CD48D0ED000AB2EE0E1AE6
:1032A000F4EEC10AF1EE10FA03DDF2EE0E0AC0ED03
:1032B000000A7047C648D0ED000AF5EEC00AF1EEEC
:1032C00010FA06DDD0ED000A70EEC00AC0ED000A6B
:1032D00006E0BF48D0ED000A70EE800AC0ED000A9B
:1032E000BB48D0ED000ABAEE0E1AF4EEC10AF1EEB8
:1032F00010FA04D2FAEE0E0AC0ED000A0DE0B4484E
:10330000D0ED000AB2EE0E1AF4EEC10AF1EE10FA98
:1033100003DDF2EE0E0AC0ED000A7047AC48D0EDB6
:10332000000AF5EEC00AF1EE10FA06DDD0ED000A53
:1033300070EE800AC0ED000A06E0A548D0ED000A54
:1033400070EEC00AC0ED000AA148D0ED000ABAEE46
:103350000E1AF4EEC10AF1EE10FA04D2FAEE0E0AD9
:10336000C0ED000A0DE09A48D0ED000AB2EE0E1A48
:10337000F4EEC10AF1EE10FA03DDF2EE0E0AC0ED32
:10338000000A70479348D0ED000AF5EEC00AF1EE4E
:1033900010FA06DDD0ED000A70EEC00AC0ED000A9A
:1033A00006E08C48D0ED000A70EE800AC0ED000AFD
:1033B0008848D0ED000ABAEE0E1AF4EEC10AF1EE1A
:1033C00010FA04D2FAEE0E0AC0ED000A0DE08148B0
:1033D000D0ED000AB2EE0E1AF4EEC10AF1EE10FAC8
:1033E00003DDF2EE0E0AC0ED000A70477948D0ED19
:1033F000000AF5EEC00AF1EE10FA06DDD0ED000A83
:1034000070EE800AC0ED000A06E07248D0ED000AB6
:1034100070EEC00AC0ED000A6E48D0ED000ABAEEA8
:103420000E1AF4EEC10AF1EE10FA04D2FAEE0E0A08
:10343000C0ED000A0DE06748D0ED000AB2EE0E1AAA
:10344000F4EEC10AF1EE10FA03DDF2EE0E0AC0ED61
:10345000000A704710B52DED068BB0EE408A0020B3
:103460005D49086018EE100A06F073FA41EC1A0B79
:103470009FED5A0B53EC102B06F05AF941EC190B47
:1034800006F07AFA08EE900A5648006847F2305182
:1034900088420FD1B2EE040A28EE000A524880EDAD
:1034A000000A90ED001ADFED510A9FED500AFFF778
:1034B00001FB24E04E4800684E490968401A49491A
:1034C0000968081A00EE100AB8EEC00A4A4880EDF2
:1034D000000A4A4890ED000AF2EE080A20EE200A9F
:1034E000414880ED000A90ED001A454890ED000A31
:1034F000F8EEC00A404890ED000AFFF7DBFAB5EE9F
:10350000C08AF1EE10FA3AD03648006847F23051DE
:10351000884234D0334890ED000AB8EEC00AFFF775
:1035200064FA012806D002280DD0032814D00428FC
:1035300024D11AE0B0EE680AFFF7BCFEB0EE680ACC
:10354000FFF784FE1AE0B0EE680AFFF74FFFB0EE17
:10355000680AFFF7AFFE11E0B0EE680AFFF7DEFE83
:10356000B0EE680AFFF73EFE08E0B0EE680AFFF72B
:1035700009FFB0EE680AFFF769FE00BF00BF1348FD
:1035800090ED001A1248D0ED000A124890ED000AA2
:10359000FFF7EEF91B48D0ED000AF8EEE00A80EEE6
:1035A000801ABDEEC10A184880ED000A174800686D
:1035B00015490968884203DD13480068134908600B
:1035C000012013490860BDEC068B10BD5C02002091
:1035D0005802002054020020E40200207B14AE4771
:1035E000E17AB43F24020020C00200200000000065
:1035F0004802002030020020B001002038020020E4
:1036000014020020B4010020180200201002002043
:10361000080200200121FA4A11600021F94A1160D4
:10362000F9490860D8B90021F84A11601FED110A64
:10363000F74981ED000A47F23051F64A1160F64A27
:1036400011601FED160AF54981ED000A0021F44AC8
:103650001160F44A1160F44A1160F44A1160704735
:1036600010B5EE4890ED000AB5EEC00AF1EE10FA82
:1036700005D1EB48006810B9EA48006890B11FED29
:10368000250AE64880ED000A0020E5490860E54982
:103690000860E7480068E7490860E04890ED000AE4
:1036A000FFF7D8FE10BDE448C0ED000AE34880ED06
:1036B000000A704770B52DED028B05460C46B0EE42
:1036C000408AD4480068A8420BD1CE480068A04286
:1036D00007D1CF4890ED000AB4EE480AF1EE10FA97
:1036E00018D0C8480460C948006810B90520C74907
:1036F0000860CF480068CF490860C54880ED008A5F
:10370000C44805600020CE490860C44890ED000A16
:10371000FFF7A0FEBDEC028B70BD70B52DED028BE6
:103720000446B0EE408A0D46BE480068A0420BD168
:10373000BA4890ED000AB4EE480AF1EE10FA03D14F
:10374000B7480068A84237D0B248006847F2305105
:10375000884222D12820AB4908600720AB49086085
:1037600047F23050844218DA0120AF490860B5EEC4
:10377000C08AF1EE10FA03DDAD480068A04208DC13
:10378000B5EEC08AF1EE10FA07D2A9480068A0424F
:1037900003DAB1EE480AB0EE408AA2480460A048BD
:1037A00005609E4880ED008A0020A54908609B487E
:1037B00090ED000AFFF74EFEBDEC028B70BD10B518
:1037C0002DED028BB0EE408A04462146B0EE480A49
:1037D00047F23050FFF7A1FFBDEC028B10BD012076
:1037E000984908604FF461709749086097490860EC
:1037F00097490860B5EEC00AF1EE10FA05DD012028
:10380000944988718875887304E000209149887113
:1038100088758873FDEEC00A10EE900A002801DB5F
:10382000014600E041428B4AD171FDEEC00A10EE24
:10383000900A002801DB014600E04142854AD1752B
:10384000FDEEC00A10EE900A002801DB014600E000
:103850004142804AD173704770B504460D461FED52
:103860009D0A29462046FFF725FF70BD10B52DEDB6
:10387000088BF0EE408A0446B0EE608AB0EE419AC2
:10388000654890ED000AB8EEC00AB4EE680AF1EEA1
:1038900010FA0DD15B480068A04209D1614890ED53
:1038A000000AB8EEC00AB4EE480AF1EE10FA5ED093
:1038B000BDEEE80A584880ED000A5D4991ED000A26
:1038C000B8EEC00A38EEC00ABDEEC00A10EE100A0B
:1038D0001FEDBA0A2146FFF7EDFE5548D0ED000A6C
:1038E000F8EEE00A78EE600AB0EE600AFEF7D6FF66
:1038F000DFED590AB4EEE00AF1EE10FA14DD4C489F
:1039000090ED000AB8EEC00AB4EEC08AF1EE10FAEB
:1039100002DDB0EE490A01E0B1EE490A10EE101ADC
:10392000084606F016F813E0414890ED000AB8EE9C
:10393000C00A38EE400A10EE101A084606F009F8E0
:1039400041EC1B0B9FED450B53EC102B05F0F0FEEB
:1039500041EC1A0B06F010F809EE900A0021B0EEC7
:10396000690AFDEEC80A10EE900AFFF7D6FEBDEC1C
:10397000088B10BD10B52C48006801283DDD294991
:1039800009682B4A1268881AFEF7D0FF05280CDA5E
:10399000254801680068401C234A1060B1F5FA7F91
:1039A0002BDD0020FFF736FE10BD1F480068FA2807
:1039B00008DD05201349086014490860FB201A49F6
:1039C000086004E005200F490860104908601848A5
:1039D000006814490968884205DDBFEE000A0F48F7
:1039E00080ED000A04E0B7EE000A0C4880ED000A02
:1039F0000A4890ED000AFFF72DFD00BFD4E7000054
:103A0000E4020020140200201C020020100200200A
:103A10003C0200202402002028020020380200205E
:103A20000C0200202C02002040020020D8020020BE
:103A30004802002030020020F0010020F4010020A4
:103A400020020020E00200208402002088020020E2
:103A50008C0200200400002000004842FCA9F1D2A2
:103A60004D62403F10B52DED028BFE4890ED000AEF
:103A7000B5EEC00AF1EE10FA0BD1FB48006840B178
:103A8000FA48006847F23051884202DAF848006884
:103A900010B1BDEC028B10BDF6490968F64A1268F8
:103AA000881AFEF7B3FEB0EE408AFFF7D3FC00BFE2
:103AB000EFE700B5F1480068022815DA9FEDF00A3B
:103AC000E84880ED000A9FEDEE0AEE4880ED000A1E
:103AD0000020ED49086047F23050EC490860EC499D
:103AE00008600020E1490860EA480068401CE94994
:103AF0000860E9490968884204DAE8480068FEF786
:103B000040FE0EE0E4480068E2490860E4480068CE
:103B100020B1E2480068FEF734FE02E00020FEF724
:103B200030FE00BDDB4A1268521CDA4B1A6082423A
:103B300007DDCD4A12680A44CB4B1A600022D54BF0
:103B40001A60704770B5FEF743FECB490860FFF777
:103B500011FFD4480068002821DDC3480068D1491E
:103B60000968884229D0C0480068CE49096888425F
:103B70000EDABD480068CC49096888421DDABA48A7
:103B80000068FEF7DAFE04460121FFF7CBFF14E0E0
:103B90004FF0FF31C5480068FFF7C4FF0DE0B248A1
:103BA0000068002806DD4FF0FF31C1480068FFF7CC
:103BB000B9FF02E0FFF77DFF70BDBE480068AE4967
:103BC0000968884205D0FFF74DFFAB480068B94946
:103BD0000860B9480068E8B3A348D0ED000AF8EEE1
:103BE000E00AB64890ED001A60EE810AB0EE600A75
:103BF000FEF7F3FD04469C48D0ED000AF8EEE00A1B
:103C0000AF4890ED001A60EE810AB0EE600AFEF750
:103C1000E4FD05469448D0ED000AF8EEE00AA94814
:103C200090ED001A60EE810AB0EE600AFEF7D5FD55
:103C3000064622462946FEF742FDA34890ED000ABB
:103C4000BDEEC00A10EE102AA04890ED000ABDEEAD
:103C5000C00A00E00AE010EE101A9D4890ED000A3C
:103C6000BDEEC00A10EE100AFEF784FD00BFA3E708
:103C700010B59848407800F0020088B19548407827
:103C800000F0080060B1944890ED000AF7EE000AD9
:103C900030EE200A80ED000A4FF4FA6005F020F8BB
:103CA0008C48407800F0020088B18A48407800F0E3
:103CB000040060B1884890ED000AF7EE000A30EE8B
:103CC000600A80ED000A4FF4FA6005F009F810BDB3
:103CD000DFED6B2AB0EE620ADFED802AF0EE620AB9
:103CE000DFED7F2AB0EE621AF1EE002AF0EE621AE2
:103CF000F7EE002AB0EE622A7A48D0ED002AF8EEFC
:103D0000E22A72EEC12A82EEA13AF0EE602A43EE78
:103D1000022AB0EE620A0068B0F5AF7F0BDBFDEE61
:103D2000C02AF8EEE22AB0EE620AF2EE0A2A70EE3B
:103D3000222AB0EE620A684880ED000AF0EE002AFE
:103D400070EE622A6848C0ED002A704761484078EA
:103D500000F0400018B1654800686249086070478B
:103D6000DFED472AB0EE620ADFED612AF0EE620A6B
:103D7000DFED602AB0EE621AF1EE002AF0EE621A70
:103D8000F7EE002AB0EE622A5B48D0ED002AF8EE8A
:103D9000E22A72EEC12A82EEA13AF0EE602A43EEE8
:103DA000022AB0EE620A0068B0F5967F0BDBFDEEEA
:103DB000C02AF8EEE22AB0EE620AF2EE042A70EEB1
:103DC000222AB0EE620A4D4880ED000A704710B515
:103DD0000D204B4981F82F0081F82B0081F8270036
:103DE000002081F82600012081F82A0081F82E00A9
:103DF00000204449086013E006E0FCF75BFD00B1D9
:103E000008E0012004F06CFF08213F4801F068FD44
:103E10000128F2D000BF3B480068401C39490860C7
:103E2000384800686428E7DB42F2107004F058FF5D
:103E30000020334981F8270081F82B0081F82F00FA
:103E400081F82600012081F82A0081F82E00002246
:103E500041032E4801F062FDB820294981F837005E
:103E6000002055E03C020020100200202C0200201F
:103E7000E40200203002002048020020400200201E
:103E800000000000380200200C0200202402002064
:103E90002802002020020020FC010020F801002060
:103EA000D802002014020020180200205002002036
:103EB0001C0200204C020020080200205C020020AE
:103EC00058020020540200207402002070020020DA
:103ED0006C020020D4060020500100200000AC42FB
:103EE000000066435C03002058010020A000002071
:103EF0000000204200000143A801002054010020DE
:103F000004000020140300200010024000040240BE
:103F100081F836000120F949086010BD10B5FFF79F
:103F2000A7FEF74800683038F6490860FFF7D0FE72
:103F30000120F54981F82600002081F82A0081F847
:103F40002E00F24890ED000AF148D0ED000A30EE64
:103F5000200ABCEEC00A10EE100AC0B281F82F0091
:103F600081F82B0081F8270010BD00B5E4480068F7
:103F70004638E4490860FFF7ABFEE44890ED000ADC
:103F8000BCEEC00A10EE100AC0B2DF4981F82F0063
:103F900081F82B0081F82700012081F826000020FD
:103FA00081F82A0081F82E0000BD00B5D4480068D1
:103FB0000F30D4490860FFF78BFED44890ED000A1B
:103FC000BCEEC00A10EE100AC0B2CF4981F82F0033
:103FD00081F82B0081F82700012081F826000020BD
:103FE00081F82A0081F82E0000BD00B5FFF7B8FE69
:103FF0000120C54981F82600002081F82A0081F8B7
:104000002E00C44890ED000ABCEEC00A10EE100A63
:10401000C0B281F82F0081F82B0081F8270000BD85
:1040200000B5B7480068B7490860FFF751FEB748C8
:1040300090ED000ABCEEC00A10EE100AC0B2B24900
:1040400081F82F0081F82B0081F82700012081F8EA
:104050002600002081F82A0081F82E0000BDAE481D
:10406000407800F00800B8B1A94890ED000ABCEE15
:10407000C00A10EE100AC0B2A34981F82F0081F8DF
:104080002B0081F82700012081F82600002081F80C
:104090002A0081F82E000CE09F48407800F01000C4
:1040A00038B10020984981F82F0081F82B0081F861
:1040B0002700704701B59848407800F0100040B1E3
:1040C0009DF80000904981F83300002081F832000B
:1040D00011E09148407800F0080040B19DF80000E0
:1040E000894981F83300012081F8320003E0022081
:1040F000854981F8330008BD10B58748407800F045
:104100008000002834D00D207F4981F82F0081F8ED
:104110002B0081F82700002081F82600012081F87B
:104120002A0081F82E0000240FE006E0FCF7C2FB15
:1041300000B108E0012004F0D3FD0821774801F028
:10414000CFFB0128F2D000BF641C642CEDDB40F6ED
:10415000B83004F0C5FDB8206B4981F83700002065
:1041600081F8360081F82F0081F82B0081F82700B4
:1041700010BD6B4801680068401C694A10606429E2
:1041800007D2684800896849096808446649086098
:104190000BE0654800686421B0FBF1F063490860FA
:1041A00000205F4908606049086061480168006854
:1041B000401C5F4A1060642907D25A48C0895D4993
:1041C000096808445B4908600BE05A4800686421AC
:1041D000B0FBF1F058490860002055490860554986
:1041E0000860564801680068401C544A1060642901
:1041F00007D24C48808952490968084450490860F0
:104200000BE04F4800686421B0FBF1F04D490860B5
:1042100000204A4908604A4908604B480168006824
:10422000401C494A1060782907D23E4840894749D6
:1042300009680844454908600BE044480068782153
:10424000B0FBF1F02E49086000203F4908603F496B
:1042500008603F4801680068401C3D4A10600A2918
:1042600007D23048C0883B4909680844394908608A
:104270000BE0384800680A21B0FBF1F036490860CD
:1042800000203349086033490860344801680068F9
:10429000401C324A1060322907D2224880883049B7
:1042A000096808442E4908600BE02D480068322157
:1042B000B0FBF1F02B49086000202849086028492C
:1042C0000860294801680068401C274A10603229AC
:1042D00007D2144800882549096808442349086022
:1042E0000BE0224800683221B0FBF1F02049086061
:1042F00000201D4908601D4908607047AC0300207C
:10430000A00000205C0300200400002050010020D9
:104310004C01002054010020D4060020001002406F
:10432000F403002088060020F803002098000020F5
:10433000FC030020000400209C0000200404002056
:1043400008040020A40000200C0400201004002019
:104350001404002018040020B40000201C040020D5
:1043600020040020AC0000202404002028040020A9
:10437000B0000020FE4800684E2802DA4E20FC49BA
:104380000860FB48006840F2D931884202DD0846E7
:10439000F7490860F7490968F54A1268881A002841
:1043A00001DB014600E0414205292EDDF1480068AD
:1043B000EF490968884204DD0120EF4981F83A009D
:1043C00003E00020EC4981F83A00EA490968E84A2C
:1043D0001268881A002801DB014600E04142E74AE2
:1043E000116010460068FA2802DDFA2011460860C4
:1043F000E2480068FA2802DAFA20E0490860DF485B
:104400000078DD4981F83B0003E00220DA4981F8B9
:104410003B00D848006840F28A21884203DD002032
:10442000D54981F83B00D3480068B0F5027F03DA34
:104430000020D14981F83B007047D1480068D1493C
:104440000968884203DACF480068CD490860CC4843
:104450000068CD490968884203DDCB480068C84937
:104460000860CA490968C64A1268881A002801DB30
:10447000014600E0414203293EDDC4480068C049CE
:104480000968884204DD0120BB4981F8220003E06D
:104490000020B94981F82200BC490968B84A12686D
:1044A000881A002801DB014600E041424900B34A76
:1044B000116010460068FA2802DDFA2011460860F3
:1044C000AE4800681E2802DA1E20AC490860AF48DA
:1044D0000068462803DA1420A849086006E0AB48C3
:1044E0000068642802DA3220A4490860A3480078F2
:1044F000A14981F8230003E002209F4981F82300AD
:10450000A348006818B900209B4981F82300704730
:1045100010B5A048C079A0B19E48407800F00400D2
:1045200078B19748006898490968884209DA944840
:104530000068401C924908604FF4967004F0D0FB6C
:1045400016E09448C07998B19248407800F0200075
:1045500070B18B4800688B490968884208DD88483B
:104560000068401E864908604FF4C87004F0B8FB2C
:1045700010BD10B58748407800F0080078B1864833
:10458000006886490968884209DA83480068401C47
:104590008149086040F28A2004F0A2FB13E07D48C4
:1045A000407800F0100070B17B4800687C490968D1
:1045B000884208DD78480068401E7749086040F26C
:1045C0008A2004F08DFB10BD694800684E2802DA8D
:1045D0004E20674908606648006840F2D931884239
:1045E00002DD08466249086062490968604A12684B
:1045F000881A002801DB014600E0414205294CDD14
:1046000068490978002948D15A490968584A126806
:10461000881A002801DB014600E0414201EB41011C
:10462000564A1160534800685149096888421CDDA8
:104630000120514981F83A004E48006840F2A73104
:10464000884203DB64201146086020E04B48006884
:10465000FA2802DDFA2049490860484800681E2807
:1046600015DA1E204549086011E00020424981F812
:104670003A0042480068DC2802DDDC203F4908603F
:104680003E4800680A2802DA0A203C4908603B4894
:104690000078394981F83B0006E00520364981F869
:1046A0003B0001203F4908703948006818B90020D4
:1046B000314981F83B00704710B53648407800F02A
:1046C0000200B0B93348407800F0200088B10120E2
:1046D0002F4908600020344908605F2024490860A1
:1046E00000203049087001221146304801F016F9C7
:1046F0002AE02848407800F0020088B92548407830
:1047000000F0040060B140F2CF3019490860002089
:104710002449087000220121244801F0FFF813E029
:104720001348006840F2A73188420DDB1E4800683C
:1047300050B910480068B0F56A7F05DB00201449C5
:10474000086001201849086010BD70B506460C4687
:1047500015461048C07950B101221146134801F0A6
:10476000DDF80120044981F82600002020E029E03E
:1047700040010020AC00002004000020CC030020F9
:10478000600100206401002068010020B0000020CA
:1047900044010020D4060020340100203C01002008
:1047A0003801002078030020480100200004024066
:1047B00081F82A0081F82E0081F8276081F82B40CB
:1047C00081F82F5070BD10B5FC48007800F08000D3
:1047D00038B301225103FA4801F0A0F841F65830ED
:1047E00004F07EFA00224FF40051F54801F096F8EB
:1047F0000120F44981F82600002081F82A0081F880
:104800002E0081F8270081F82B0081F82F0081F815
:10481000370081F83600EC490860EC490860EC4943
:10482000086010BD10B5E548007800F0020090B1B6
:104830000020E44981F82F0081F82B0081F827003F
:10484000E4490860E0490860E0490860002201216D
:10485000DB4801F063F8D948007800F00200C0B1ED
:104860000821DD4801F03CF8012812D10020D5498B
:1048700081F82F0081F82B0081F82700D5490860C6
:10488000D04981F83700012081F836000020CE4958
:10489000086010BD2DE9F0472DED088B06460F4648
:1048A0004FF07D09A6F17D08A7F17D04204605F0B3
:1048B00020F841EC1A0B404605F01BF841EC1B0BAD
:1048C000B0EE4A1AF0EE6A1AB0EE4B0AF0EE6B0A3E
:1048D00005F01AFCB0EE409AF0EE609A9FEDBF0B27
:1048E00053EC102B51EC190B04F022FF41EC180B88
:1048F00005F010F80546002D01DA05F56165B948A7
:10490000056008FB08F104FB041004F0F2FF41EC21
:10491000190BB0EE490AF0EE690A06F089FDB0EE17
:10492000408AF0EE608A51EC180B04F0F3FFAE49B8
:104930000860BDEC088BBDE8F087A048407800F027
:10494000080038B1FE209F4981F83700002081F827
:10495000360006E000209B4981F83700012081F8ED
:104960003600704710B59548407800F0020008BB4B
:104970009248407800F00800E0B19C48006840F29E
:104980008E31884216DD01208F4908600020984949
:1049900008600120974908600020974908605F205F
:1049A0009649086000209649087001221146844803
:1049B00000F0B4FF10BD30B5B5B00546682291498E
:1049C0001BA804F0BDFD68228E49683101A804F0DF
:1049D000B7FD002447E01BA850F82400A84241DCA2
:1049E0001BA9601C51F82000A8423BDBB5F5C37F32
:1049F0001EDBB5F5CD7F1BDC01A9601C51F8200042
:104A000051F82410401A1BA951F82410691A484380
:104A10001BAA611C52F8211052F82420891A90FB1D
:104A2000F1F001A951F824100844401F35B030BD01
:104A300001A9601C51F8200051F82410401A1BA94C
:104A400051F82410691A48431BAA611C52F821101E
:104A500052F82420891A90FBF1F001A951F8241092
:104A60000844E3E7641C192CB5DB6320DEE773B56B
:104A70002DED028B14269FED640AB0EE408A4F485C
:104A80000079322805DB4D480079962801DC0120A9
:104A900000E0002004464948807873280DDB474831
:104AA0008078872809DC4548C078732805DB4348AF
:104AB000C078872801DC012000E0002005460020A6
:104AC000524908603D48007800F00800B0B93B4802
:104AD000007800F0100088B93848007800F0200015
:104AE00060B93648007800F0400038B934B12DB1D3
:104AF0001920FEF78FFDBDEC028B7CBD2F4840785E
:104B000000F0010030B19DF80C609FED410AB0EE5D
:104B1000408A05E09DF808609FED3E0AB0EE408AAD
:104B20002648007800F0080098B12448007800F08A
:104B3000100070B92148007800F0200048B91F48E3
:104B4000007800F0400020B931460020FEF784FED6
:104B5000EBE01A48007800F00800A0B91748007888
:104B600000F0100078B11548007800F0200050B92E
:104B70001248007800F0400028B931464FF4E16057
:104B8000FEF76AFED1E00D48007800F00800A0B9F9
:104B90000A48007800F0100078B90848007800F062
:104BA000200050B10548007800F0400028B9314697
:104BB0004FF46170FEF750FEB7E02DE0D406002000
:104BC0000004024004000020B8030020A8030020D5
:104BD000AC030020B0030020001002408B38D690B8
:104BE000A9E78140C0030020C4030020AC000020DE
:104BF000540300204401002048010020400100200F
:104C000078030020F8BF000800000000E002002048
:104C10009A9979400AD7233CFA48007800F00800B6
:104C200098B9F848007800F0100070B9F54800789D
:104C300000F0200048B9F348007800F0400020B1AF
:104C40003146F148FEF708FE6FE0EE48007800F0CC
:104C50000800A0B1EB48007800F0100078B9E948EE
:104C6000007800F0200050B1E648007800F04000E5
:104C700028B931464FF4E170FEF7EEFD55E0E1480A
:104C8000007800F0080098B1DE48007800F01000CD
:104C900070B9DC48007800F0200048B9D9480078A5
:104CA00000F0400020B13146D848FEF7D5FD3CE089
:104CB000D448007800F00800A0B9D248007800F08D
:104CC000100078B1CF48007800F0200050B1CD48F6
:104CD000007800F0400028B9314640F24650FEF717
:104CE000BBFD22E0C748007800F0080098B9C5482D
:104CF000007800F0100070B1C248007800F0200089
:104D000048B9C048007800F0400020B13146C048A2
:104D1000FEF7A2FD09E045B93146BE480068FEF73E
:104D20009BFD9FEDBD0AB0EE408AB648007800F0CA
:104D30000800B0B9B348007800F0100088B9B14855
:104D4000007800F0200060B9AE48007800F0400024
:104D500038B934B12DB1FDF72DFD10B11B20FEF790
:104D600059FC14B1FEF77CFC39E0A64800793228E2
:104D700017DAFDF71FFD28B10020B1EE480AFEF753
:104D80001EFD2CE09F48407800F0010020B19FED0F
:104D9000A30AFEF724FD22E0B1EE000AFEF71FFD94
:104DA0001DE098480079962817DDFDF703FD28B12E
:104DB0000020B0EE480AFEF702FD10E0914840786E
:104DC00000F0010020B19FED960AFEF708FD06E015
:104DD000B9EE000AFEF703FD01E0FEF741FC00BF5B
:104DE00089E610B501208F49887001218E4800F0B6
:104DF00077FD012804D102208A49C870012010BD26
:104E000064208849C8700020F9E710B50121864860
:104E100000F066FD01280BD18448007840B9642079
:104E20008049C8700020824908608249086010BD2E
:104E3000FBF749FD041E01DB204600E060427E498D
:104E40000968884208DD79480078012804D10220E9
:104E50007449C8700120EAE71E207249C870012019
:104E6000724908700020E2E710B501206D4988748E
:104E700002216D4800F034FD012804D10220694967
:104E8000C874012010BD64206649C8740020F9E789
:104E900010B50221644800F023FD01280BD16748BA
:104EA000007840B964205F49C874002064490860F4
:104EB0006449086010BDFBF779FD041E01DB204644
:104EC00000E0604260490968884208DD5B4800787C
:104ED000012804D102205349C8740120EAE71E20AA
:104EE0005049C8740120554908700020E2E710B508
:104EF00001204C49887204214B4800F0F1FC012844
:104F000004D102204749C872012010BD64204549E0
:104F1000C8720020F9E710B50421434800F0E0FC16
:104F200001280CD14948007848B964203D49C8722D
:104F300000204FF0804148624549086010BDFBF7F2
:104F40007EFD041E01DB204600E060424149096805
:104F5000884208DD3D480078012804D1022031490B
:104F6000C8720120EAE71E202E49C8720120374985
:104F700008700020E2E710B5FBF7A5FC3649096888
:104F8000441A002C01DB204600E0604205282ADD9F
:104F9000FBF799FC30490968884203DD002021496C
:104FA000887002E001201F498870FBF78CFC2A49B9
:104FB0000968441A002C01DB204600E060422749C2
:104FC000086008460068962801DD9620086023489E
:104FD00000680A2802DA0A20204908601F48007881
:104FE0001049C87002E002200E49C87010BD10B50B
:104FF000FBF7DCFC1A490968441A002C32DB204616
:1050000031E00000D40600207CFCFFFF3EFEFFFFE5
:10501000BAFAFFFFC00300209A99993F000020428E
:10502000000020C20400002000100240C80300203D
:105030002404004074000020D4030020C903002091
:10504000240C004078000020D8030020CB0300206F
:1050500070000020DC03002084020020CC0300202C
:1050600088020020604205282ADDFBF79FFCC94921
:105070000968884203DD0020C749887402E00120E6
:10508000C5498874FBF792FCC2490968441A002C90
:1050900001DB204600E06042C04908600846006825
:1050A000962801DD96200860BC4800680A2802DACC
:1050B0000A20BA490860B9480078B749C87402E0C4
:1050C0000220B549C87410BD10B5FBF7B8FCB4494F
:1050D0000968441A002C01DB204600E060420528E4
:1050E0002ADDFBF7ACFCAE490968884203DD0020ED
:1050F000A949887202E00120A7498872FBF79FFC4A
:10510000A7490968441A002C01DB204600E06042F0
:10511000A249086008460068962801DD96200860CC
:105120009E4800680A2802DA0A209C4908609B48C9
:1051300000789949C87202E002209749C87210BDF0
:105140000DE01120FDF723FA0121964802F0A6FA9E
:105150000F2003F0C5FD0A21934802F0CAFAF0E7D8
:1051600004E0FFF731FA032003F0BAFDF9E717E096
:105170008E48007800F0010020B132211920FFF79D
:1051800076FC02E00A20FEF745FAFFF7F4FEFFF78F
:105190002EFFFFF799FFFEF7ECFF032003F0A0FDC1
:1051A000E6E709E0FDF707FA8148006808B9FEF76D
:1051B000C9FC042003F094FDF4E71FB5FBF7F4FCF1
:1051C000FBF731FDFBF782FFFCF757F8FCF749F9D5
:1051D000FCF7CEF8FCF7BDF9FBF790FD4FF4E1309A
:1051E000FCF78BFA4FF4E130FCF710FB4FF4E130A1
:1051F000FCF799FB4FF46120FCF7CBFC4FF4E13056
:10520000FCF764FDFDF7E0FA00BFFFF7EAFD08B91F
:10521000012400E00024FFF727FE08B9012000E088
:1052200000200443FFF763FE08B9012000E00020DE
:105230000443002CE9D100BFFFF7E7FD08B90124C2
:1052400000E00024FFF724FE08B9012000E0002060
:105250000443FFF760FE08B9012000E0002004438A
:10526000002CE9D1002053490860FCF778FE0020AB
:1052700000900190029003464FF480724EA103907B
:10528000524803F0EEFA002000900190029003468D
:105290004FF480724EA10390524803F0E2FA0020CE
:1052A00000900190029003464FF480724EA103904B
:1052B000524803F0D6FA40F2D63051490860002037
:1052C000504908705049086044E03AE0FFF7F4F9AB
:1052D0003648407800F0020050B93448807938B937
:1052E0003248407800F0080010B1012047490860BA
:1052F000FFF738FB45480068012801D1FEF775FE2D
:105300000821434800F0ECFA20B94248006808B987
:10531000FEF75DFD2548407800F0100008B1FEF76B
:1053200024FEFEF7A5FC3C480068B0F5487F04DD8C
:105330001422C8211620FFF708FAFFF773FAFFF7C7
:1053400042FA1A48007800F001000028BED10A2075
:10535000FEF760F9B9E71FB50020009001900290B8
:1053600003464FF480722DA103902F4803F079FA81
:10537000002000900190029003464FF480722BA110
:1053800003902D4803F06DFA03F084FE002004B072
:1053900010BD00008802002004000020CC03002083
:1053A0008C02002000480040004C0040D406002041
:1053B000E0020020D00000207461736B526F626FB6
:1053C00074416E616C79746963730000A3510008C5
:1053D0007461736B446965754B6869656E436F43AF
:1053E000617500006F5100087461736B44696575E5
:1053F0004B6869656E436F43617531006151000808
:10540000400100207803002044010020B803002060
:1054100000100240AC030020AC0000207461736BEC
:105420004D61696E00000000BB5100087461736B30
:105430004779726F00000000415100080CB5002050
:10544000019000907248006840F480307049086014
:1054500000BF6F48006800F4003000900198401CC5
:105460000190009818B90198B0F5A06FF1D1684883
:10547000006800F4003010B10120009001E000202D
:1054800000900098012846D161484030006840F003
:1054900080505F49403108605E48006840F48040B9
:1054A0005C4908605A48083000685949083108606A
:1054B0000846006840F4004008600846006840F470
:1054C000A05008605448091F0860081F006840F099
:1054D0008070091F086000BF4D48006800F0007030
:1054E0000028F9D040F205604C490860484808306F
:1054F000006820F00300464908310860084600684B
:1055000040F00200086000BF41480830006800F029
:105510000C000828F8D10CBD10B53D48006840F0DB
:1055200001003B49086000203949083108603848CB
:1055300000683B490840364908603A48091D086040
:10554000081F006820F48020091F086000203049EF
:105550000C310860FFF772FF4FF0006032490860BD
:1055600010BD70B500200022022300240221284D26
:1055700008352D6805F00C0020B1042806D0082855
:1055800034D107E0294D2A4E356033E0294D284EAD
:1055900035602FE01E4D2D1D2D68C5F380541C4D28
:1055A0002D1D2D6805F03F0154B1224DB5FBF1F5DD
:1055B000174E361D3668C6F3881605FB06F209E05D
:1055C0001A4DB5FBF1F5124E361D3668C6F3881636
:1055D00005FB06F20E4D2D1D2D68C5F301456D1C12
:1055E0006B00B2FBF3F5124E356003E00F4D104E29
:1055F000356000BF00BF064D08352D68C5F30315A3
:105600000D4E705D0A4D2D68C540094E356070BD68
:10561000003802400070004008544007003C02403F
:10562000FFFFF6FE1030002408ED00E00024F40037
:105630002C04002000127A00300400200648804725
:1056400006480047FEE7FEE7FEE7FEE7FEE7FEE767
:10565000FEE7FEE7FEE7FEE71955000889010008AE
:1056600032490143324A1160704770B5002100236E
:105670000F22C4781CB32E4C246804F4E064C4F5F3
:10568000E064C4F30721C1F10404E3B20A414478A1
:105690009C40E1B28478144021430C07210E254C34
:1056A00005786155047804F01F050124AC400578A5
:1056B0006D11AD0005F1E025C5F8004109E0047861
:1056C00004F01F050124AC401B4D0678761145F807
:1056D000264070BD194A0A400243154B1B1F1A6031
:1056E000704739B1124A121D12680243104B1B1D3C
:1056F0001A6006E00E4A121D126882430C4B1B1DF5
:105700001A607047042808D14FF0E021096941F080
:1057100004014FF0E022116107E04FF0E021096938
:1057200021F004014FF0E022116170470000FA05FA
:105730000CED00E000E400E080E100E080FFFF1FEE
:1057400010B504468C48844208D10121084600F077
:1057500000FB0021012000F0FCFA5EE08748844253
:1057600008D10121022000F0F4FA0021022000F00B
:10577000F0FA52E08248844208D10121042000F06E
:10578000E8FA0021042000F0E4FA46E07D48844273
:1057900008D10121082000F0DCFA0021082000F0E7
:1057A000D8FA3AE07848844208D10121102000F06C
:1057B000D0FA0021102000F0CCFA2EE07348844289
:1057C00008D10121202000F0C4FA0021202000F09F
:1057D000C0FA22E06E48844208D10121402000F046
:1057E000B8FA0021402000F0B4FA16E0694884427B
:1057F00008D10121802000F0ACFA0021802000F0C7
:10580000A8FA0AE06448844207D10121801500F01B
:10581000A0FA0021A01500F09CFA10BDF0B50A46D0
:1058200000210023002400BF3DE0012505FA01F31B
:10583000156805EA03049C4234D105684F0003262D
:10584000BE40B543056015794E00B5400668354346
:1058500005601579012D02D01579022D16D18568C4
:105860004F000326BE40B543856055794E00B540D4
:10587000866835438560456801268E40B54345609E
:10588000456896798E40B6B235434560C5684F008D
:105890000326BE40B543C560D5794E00B540C66805
:1058A0003543C560491C1029BFD3F0BD4FF6FF71C9
:1058B00001600021017141718171C171704708B5AA
:1058C0004FF480320092009A0A430092009AC2611B
:1058D000C161009AC261C2690092C269009208BDAA
:1058E0000246002013690B400BB1012000E00020AC
:1058F00070470146086980B270470246002053692C
:105900000B400BB1012000E00020704701464869C0
:1059100080B2704701837047418370470AB10183A9
:1059200000E0418370474161704742694A404261EB
:105930007047F0B5002300244D07ED0E02FA05F381
:10594000CE1000F1200555F826504E07F70E0F2611
:10595000BE40B543CF1000F1200646F82750CE10C8
:1059600000F1200555F8265045EA0304CE1000F159
:10597000200545F82640F0BD00000240000402402A
:1059800000080240000C02400010024000140240D7
:1059900000180240001C024000200240FA48006843
:1059A00040F00100F84908600020F749083108601C
:1059B000F5480068F5490840F3490860F448091DB6
:1059C0000860081F006820F48020091F086000207C
:1059D000ED490C31086070470021EB4A921C1170B0
:1059E00011460870704710B50146002200230020C0
:1059F0004A11012A02D1E44C236808E0022A03D1AB
:105A0000E14C7034236802E0DF4C7434236801F009
:105A10001F02012494401C400CB1012000E0002032
:105A200010BD38B5002000900024002500BF3120B3
:105A3000FFF7D9FF05460098401C00900098B0F58C
:105A4000A06F01D0002DF2D03120FFF7CCFF08B1BC
:105A5000012400E00024204638BD01460020CA4A47
:105A6000106820F0F80040EAC10010607047C94992
:105A7000086070470021C44A70321170117001280B
:105A800002D004280AD104E00121BF4A703211700B
:105A900005E00521BC4A7032117000E000BF00BF74
:105AA0007047BD490860704770B5049C41EA821593
:105AB0000126C6EB530645EA0645054345EA04655B
:105AC000B14E361D356070BDB2490866704782011F
:105AD00042EA0172AC4B84331A607047AD49886664
