:020000040800F2
:10000000E83A0120E9400008390200083B020008F4
:100010003D0200083F020008410200080000000005
:10002000000000000000000000000000A101000826
:100030004302000800000000E501000831700008DC
:100040000341000803410008034100080341000880
:100050000341000803410008C504000803410008EB
:10006000C3040008034100080341000833030008EB
:100070000D030008A1030008AB0300086902000893
:10008000034100087F030008034100080341000802
:10009000034100080341000803410008CB040008A5
:1000A00003410008110400083D0400080341000852
:1000B0003F0400085F0400087F04000803410008B3
:1000C000034100080341000803410008BF04000881
:1000D00003410008490200080341000803410008E9
:1000E000030700080341000803410008034100081A
:1000F00003410008034100080341000855030008BC
:1001000003410008034100089F040008C1040008DF
:100110000341000803410008D70300080904000850
:100120009702000871020008BD02000803410008A0
:10013000034100080341000803410008034100088F
:10014000034100080341000803410008034100087F
:1001500003030008034100080341000803410008AD
:10016000034100080341000803410008034100085F
:10017000034100080341000803410008034100084F
:100180000341000803410008DFF810D007F026FC07
:1001900000480047C73E0008AFF30080E83A01205E
:1001A000224B19680868B0E8F00F80F30988BFF3A4
:1001B0006F8F4FF0000080F311884EF00D0E7047E6
:1001C0000000000006480068006880F3088862B6F6
:1001D00061B6BFF34F8FBFF36F8F00DF00BF00BF6B
:1001E00008ED00E0EFF30980BFF36F8F0F4B1A6843
:1001F00020E9F00F106008B54FF0500080F311882F
:10020000BFF34F8FBFF36F8F05F0F4FF4FF0000087
:1002100080F31188BDE8084019680868B0E8F00F5D
:1002200080F30988BFF36F8F704700BF84010020FF
:10023000EFF30580704700007047FEE7FEE7FEE73A
:10024000FEE770477047704710B5F84C40F22551F3
:10025000204605F0AEFC002805D02046BDE8104041
:10026000202105F0A3BC10BDF149F24804F0B3BD54
:1002700070B5F14CF14D2146284604F089FD002867
:1002800008D02146284604F0A6FD01F0DDFBEC492C
:100290000120087070BD70B5E84DEA4C183D21464C
:1002A000284604F075FD002807D001F0FBFE21462A
:1002B0002846BDE8704004F08EBD70BDDF4810B523
:1002C000E149183004F087FDE048417A0D2905D056
:1002D000BDE810400021D54805F0AABB417802785E
:1002E00041EA0221DA4A1180C178827841EA02218A
:1002F000D84A11804179007941EA0020D649088026
:1003000010BDCE48D549603004F065BD70B5C94D0B
:10031000C94C483D2146284604F03AFD002807D044
:100320002146284604F057FDBDE8704000F0A7BB09
:1003300070BD70B5BF4DC34C603D2146284604F0EA
:1003400027FD002805D021462846BDE8704004F06E
:1003500042BD70BD70B5B74CC14D483429462046EA
:1003600004F016FD002809D00021204604F085FC89
:1003700029462046BDE8704004F02DBD70BD70B523
:10038000AC4DB84C30352146284604F001FD00281C
:1003900005D021462846BDE8704004F01CBD70BD64
:1003A000A448A349303804F016BD10B5A14CAE499D
:1003B000183C204604F0ECFC00280BD04FF0C05154
:1003C000204604F0BEFC0021204604F056FCA7495C
:1003D0000020086010BD10B50121A54805F0C7F93F
:1003E000A4480078914CA08003F0D5F80121A248E0
:1003F00005F01EFB0121A14805F01AFB2046BDE8CF
:100400001040012105F014BB01219D4805F0AFB952
:1004100010B59C4C0121204605F09DF900280CD018
:100420000121204605F0A3F92088C10696480168FD
:1004300001D5491E00E0491C016010BD704710B590
:1004400001218C07204605F092F92088C1068F48CB
:10045000016801D5491E00E0491C016010BD10B5BE
:100460008B4C0121204605F082F92088C10689487D
:10047000016801D5491E00E0491C016010BD10B59E
:10048000854C0121204605F072F92088C106834879
:10049000016801D5491E00E0491C016010BD10B57E
:1004A0007F4C0121204605F062F92088C1067D4875
:1004B000016801D5491E00E0491C016010BD70476C
:1004C00070477047012004F005BD2DE9F05F4FF43F
:1004D000807B754D5C465946284603F035FF07463C
:1004E0004FF4007A5146284603F02EFF064620219D
:1004F0006E4803F029FF0546204604F0EBFC6C4CE7
:100500004FF0000948B3012F03D0B6B3012E38D005
:1005100020E0DFF86C81404604F0C6FD65490A68BA
:1005200002EB421202EB42021044634A1060C1F82F
:1005300000900021404604F0B3FD012E01D026B109
:1005400008E03DB92068401C03E0012D02D120687D
:10055000401E2060584604F0CBFCD346504604F0C1
:10056000B9FCDFF858814FF0010A90B3012E0BD08F
:1005700098F80000012812D01BE0FFE7012DE1D020
:10058000E8E7002DE3D0E5E73D4804F08DFDC8F82D
:10059000100088F800A087B1012F13D016E038486A
:1005A00004F082FDD8F81020801AC8F8080088F8F6
:1005B0000090012F1AD0E7B108E0012D06D1206884
:1005C000401C02E015B92068401E2060584604F027
:1005D0008FFC202004F07EFC002826D0012D0BD0BB
:1005E00098F801004546012811D018E0002DE6D00A
:1005F000ECE7012DE7D0E9E7214804F055FDC8F804
:10060000140088F801A0012F5AD067B161E01C489E
:1006100004F04AFD6969401AE86085F801901FB14D
:10062000012F5ED055E04FE058E05DE00010014042
:100630002080002070600240008800102864024082
:10064000190000202080001000802010E209002006
:1006500024000020280000202A000020008800201C
:100660000080002800802020008000186400002006
:10067000001000401C000020004800400014014011
:100680000014004000000140C0000020C400002011
:1006900000040040C800002000080040CC000020FA
:1006A000000C0040D0000020000802400010024072
:1006B0005C010020580100205401002000000020AF
:1006C0003EB92068401C03E0012E02D12068401E84
:1006D0002060BDE8F05F202004F00ABC012EF0D0BD
:1006E000F7E7002EF2D0F4E7BDE8F09F074948682D
:1006F0008A68824200D98868CA68824200D9C8687C
:1007000070474FF4004004F0E5BB000000000020FB
:1007100070B5054606F0E8FC04462946FC4806F09C
:10072000EAFC002816D095222946F94806F0D0FCAC
:10073000F84D0021284604F0A0FAF648F449B838EC
:10074000C0F8C410C0F8BC402846BDE87040012184
:1007500004F093BA70BD70B5EF4D06460024315DCC
:1007600000290BD0284605F089F98021284605F09C
:1007700016FA0028F9D0641CE4B2F0E770BD70B539
:10078000E54E05460024002D0DD02946304605F0E3
:1007900075F98021304605F002FA0028F9D0641C72
:1007A000E4B2032CEFD370BD13B50C460020FFF765
:1007B000E6FFDAA0FFF7CFFFD5482346D8A296215F
:1007C000E63807F055F9D248E638FFF7C4FFD5A060
:1007D000FFF7C1FFCE48D2A29621E638009B07F072
:1007E00047F9CB48E638FFF7B6FFD0A0FFF7B3FFD5
:1007F000FF20FFF7C4FFFF20FFF7C1FFBDE81C404B
:10080000FF20BCE770B505460C46C4A0FFF7A3FF68
:10081000BF482246C2A1E63807F044F9BC48E63892
:10082000FFF799FFBFA0FFF796FF2846FFF793FF5A
:10083000BEA0FFF790FFBDE87040FF209FE777B5AF
:10084000B8A185B00646D1E90001CDE90001B7A005
:10085000002200680390B1A0AD4D0068283DA5F1CD
:1008600028030290AA4C1146A3F19600A95499546A
:100870008154A154521CD2B21E2AF7D30A2101700E
:10088000FF2444708470C470A148A5A15038079A11
:1008900007F008F99E4902A8503906F00DFC9C4863
:1008A00002A9E63806F008FC99486946E63806F0E1
:1008B00003FC97483146E63806F0FEFB944898A1C1
:1008C0005038069A07F0EEF891495039A1F1960098
:1008D00006F0F2FB8E4803A9E63806F0EDFB8C49E2
:1008E0002C706C702839AC70A1F1BE0006F0E4FBEE
:1008F0008748E638FFF70CFF08B070BD2DE9F741D7
:10090000884688A185B00646D1E90001CDE90001FD
:1009100086A000220068039080A07D4D0068283DDD
:10092000A5F1280102901446A1F19600AC548C5414
:100930008454521CD2B20A2AF8D30A210170FF272C
:1009400047708770C770724875A15038079A07F0D2
:10095000A9F86F4902A8503906F0AEFB6C4802A90D
:10096000E63806F0A9FB6A486946E63806F0A4FBBB
:1009700067483146E63806F09FFB65484146E63851
:1009800006F09AFB624803A9E63806F095FB2F7043
:100990006F705F49AF70EC7028392C71A1F1BE0007
:1009A00006F08AFB5A48E638FFF7B2FE08B0BDE809
:1009B000F08101B58EB05EA2322168460E9B07F031
:1009C00057F86846FFF7A4FE0FB000BD73B555A1F8
:1009D00084B00646D1E90001CDE9000153A0002210
:1009E000006803904DA04A4D0068283DA5F12803FA
:1009F0000290474C1146A3F19600A9549954815492
:100A0000A154521CD2B21E2AF7D30A210170FF242E
:100A100044708470C4703E4841A15038059A07F074
:100A200041F83B4902A8503906F046FB384802A974
:100A3000E63806F041FB36486946E63806F03CFBEE
:100A400033483146E63806F037FB31495039A1F1D9
:100A5000960006F031FB2E4803A9E63806F02CFB81
:100A60002B492C706C702839AC70A1F1BE0006F0D7
:100A700023FB2748E638FFF74BFE06B070BDF0B504
:100A80002E4885B001784278C4780A4481780B19E1
:100A90001A4403791A4443791A4483791A44C3796E
:100AA0001344027A1344DBB202F00F0202938DF872
:100AB0000020407A984201D10D2A0AD09DF800000A
:100AC0000D2869D005B00021BDE8F0401C4804F0B5
:100AD000AFBFC1F17F0006F08FFD0546A4F1810094
:100AE00006F08AFD044615F0FF4F4FF07E5000D10E
:100AF000054614F0FF4F00D10446284606F096FD47
:100B00000746204606F092FD002F1BDB3A461AE00E
:100B1000CE020020B8600240005000407400000087
:100B2000256400002E7478743D220000220000002D
:100B30006A302E76616C3D2564000000F1090020CA
:100B4000004800407A42011E00DA4142114401EBA4
:100B5000D1714910FE4E3165002800DA404232283A
:100B600006DA380000D57842322801DA002012E097
:100B7000204606F093FD07460C46284606F08EFDFB
:100B80003A46234607F0BEFC4FF00042F14B06F018
:100B90003BFC06F064FDF06405B0F0BDEE48017A60
:100BA00001F00F010D2904D10078C00701D00D20FC
:100BB000704700207047E8480078800701D5012081
:100BC00070470020704701B581B0019800EBC0006C
:100BD00040000090002801D0401EFAE70CBD01B58E
:100BE00081B044F25061019848430090002801D040
:100BF000401EFAE70CBD1CB501210F2003F00CFDCF
:100C00004CF6804000906946D44803F037FB4FF41F
:100C1000034000906946D24803F030FB41F60310D0
:100C2000009001208DF8040000218DF806108DF849
:100C3000070003208DF805006946CA4803F01EFB33
:100C40004FF6C17000906946C74803F017FB1CBD02
:100C50001CB50121162003F0DFFC00208DF80400F4
:100C600001208DF8070002208DF805004FF4C040E8
:100C700000906946BA4803F001FB032000906946E2
:100C8000B64803F0FBFA4FF2FF5000906946B748B0
:100C900003F0F4FA1CBD1FB54FF4E06003F036FA20
:100CA00036208DF80C0002208DF80D008DF80E0016
:100CB00001208DF80F0003A803F02DFA0121102068
:100CC00003F0C8FC3220ADF8000040F2E73001909C
:100CD0000020A74CADF80800ADF802006946204698
:100CE00004F09CF90121204604F041FD0122114647
:100CF000204604F01CFD0021204604F0D1F901211A
:100D0000204604F003FA1FBD1FB54FF4E06003F066
:100D1000FDF937208DF80C0000248DF80D408DF87A
:100D20000E4001208DF80F0003A803F0F4F9012113
:100D3000202003F08FFC3220ADF80000ADF8084011
:100D4000ADF8024063208B4C01906946204604F0C8
:100D500065F90121204604F00AFD012211462046D2
:100D600004F0E5FC0021204604F09AF90121204618
:100D700004F0CCF91FBD70B58AB00121042003F046
:100D800069FC01210D2003F047FC744E02220C2166
:100D9000304603F0FCFA02220D21304603F0F7FA48
:100DA00002220E21304603F0F2FA02220F213046D1
:100DB00003F0EDFA4FF47040059002208DF8180012
:100DC00003208DF8190000248DF81A4001258DF8B4
:100DD0001B5005A9304603F051FAA420ADF81C00C1
:100DE0002802654E0890ADF82400ADF81E4007A912
:100DF000304604F013F97020ADF80000ADF8025051
:100E00000294ADF80C400121304604F07FF9002136
:100E1000304604F045F96946304604F081F96946E8
:100E2000304604F0A9F96946304604F0E1F9694614
:100E3000304604F017FA0AB070BD2DE9F0470121E1
:100E40008AB0084603F006FC0121022003F002FCF0
:100E50000121032003F0E0FBDFF8089101220F21BC
:100E6000484603F094FADFF800810122032140464E
:100E700003F08DFA02220421404603F088FA022290
:100E80000521404603F083FA02268DF8046003270B
:100E900038208DF80570002400908DF8064001255B
:100EA0008DF807506946404603F0E8F98DF8046074
:100EB000E8038DF8057000908DF806408DF8075016
:100EC0006946484603F0DAF94FF6FF70ADF80C407A
:100ED00004904FF08049ADF81440ADF80E4003A9DE
:100EE000484604F09BF8DFF894A003A9504604F0AC
:100EF00095F84FF004081420ADF81880ADF82000E4
:100F0000ADF81A60ADF81C5006A9484604F040FB45
:100F100006A9504604F03CFB02231A46032148462A
:100F200004F09FFC02231A460321504604F099FC6A
:100F30000121484604F01BFC0121504604F017FC37
:100F400001221146484604F0F2FB0122114617E047
:100F500098000020A9E78140F1090020000C024020
:100F6000000802400000024000040240001002405D
:100F70000010004000140040000800400004004041
:100F8000504604F0D4FB0121484604F0BFF801218B
:100F9000504604F0BBF80021484604F081F80021D7
:100FA000504604F07DF8780203F0B0F81D208DF86B
:100FB00008008DF809708DF80A408DF80B5002A8D2
:100FC00003F0A9F81C208DF808008DF809808DF831
:100FD0000A408DF80B5002A803F09DF80AB0BDE856
:100FE000F0872DE9F04101218AB0084603F03CFB6F
:100FF0000121102003F010FB4FF4206000904FF00F
:10100000020803208DF8048000248DF805008DF877
:10101000064001258DF807506946FE4F384603F01B
:101020002DF94FF6FF70FC4EADF808400390ADF877
:101030001040ADF80A4002A9304603F0EFFF01224C
:101040000921384603F0A3F901220B21384603F0A9
:101050009EF90427C820ADF81470ADF81C00ADF857
:101060001680ADF8185005A9304604F091FA022315
:101070001A460321304604F0F4FB0121304604F007
:1010800076FB01221146304604F051FB0121304627
:1010900004F03CF80021304604F002F8B4823580B8
:1010A0004FF4C06003F032F819208DF820008DF85D
:1010B00021708DF822408DF8235008A803F02BF8FA
:1010C0000AB074E42DE9F0418AB00121042003F054
:1010D000C1FA0121082003F09FFA4FF44050022684
:1010E00000908DF8046003208DF805000024CB4F9C
:1010F0008DF8064001258DF807506946384603F003
:10110000BDF84FF6FF70DFF81883ADF80840039084
:10111000ADF81040ADF80A4002A9404603F07EFF4A
:1011200002220C21384603F032F902220D21384602
:1011300003F02DF90427C820ADF81470ADF81C0099
:10114000ADF81660ADF8185005A9404604F020FA35
:1011500002231A460321404604F083FB0121404646
:1011600004F005FB01221146404604F0E0FA01219B
:10117000404603F0CBFF0021404603F091FFA84812
:1011800014300480A8F800504FF4C06002F0BEFF95
:101190001E208DF820008DF821708DF822408DF8EA
:1011A000235008A802F0B7FF8AE72DE9F0418AB082
:1011B0000121082003F04EFA0121084603F02CFA21
:1011C000032002268DF804608DF805000024954F59
:1011D00000908DF8064001258DF807506946384685
:1011E00003F04CF84FF6FF70DFF83C82ADF8084092
:1011F0000390ADF81040ADF80A4002A9404603F054
:101200000DFF02220021384603F0C1F8022201211D
:10121000384603F0BCF80427C820ADF81470ADF8C8
:101220001C00ADF81660ADF8185005A9404604F052
:10123000AFF902231A460321404604F012FB0121B4
:10124000404604F094FA01221146404604F06FFA39
:101250000121404603F05AFF0021404603F020FFE1
:10126000714814300480A8F800504FF4C06002F0B8
:101270004DFF32208DF820008DF821708DF822402E
:101280008DF8235008A802F046FF19E72DE9F04138
:101290009CB00121654803F0BFF901210E023046E0
:1012A00003F0E2F9DFF8888101221021404603F0C3
:1012B00059FD38208DF86C0000248DF86D408DF8B4
:1012C0006E4001258DF86F501BA802F024FF59488D
:1012D00002A9CDE9004058480E2781E89100A802F4
:1012E000CDE90540400007908000CDE908060AA935
:1012F000000181E831000D94694640460E9403F0E8
:1013000083FC0121404603F0B8FC012003F0B1FA50
:10131000FC2003260F908DF840608DF843400FA904
:10132000404802F0ABFF30020F908DF840608DF81E
:1013300043400FA9414802F0A1FF3F200F908DF8D4
:1013400040608DF843400FA93D4802F097FF3004FC
:10135000CDE91740199417A81A9403F05AFA11947A
:10136000139414941594334C8DF848504C3C8DF8DC
:1013700049508DF8587011A9204603F01FFA072331
:1013800001220221204603F08EFA072302220321C4
:10139000204603F088FA072303220421204603F0A5
:1013A00082FA072304220521204603F07CFA072352
:1013B00005220621204603F076FA07230622194665
:1013C000204603F070FA07231A460821204603F04E
:1013D0006AFA072308220921204603F064FA07234A
:1013E00009220A21204603F05EFA07230A220B2174
:1013F000204603F058FA07230B220C21204603F065
:1014000052FA07230C220D21204603F04CFA072341
:101410000D2217E00010024000000140000C0240C5
:101420000008004000000240000C0040070040009F
:10143000106402404C20014064030020000402407C
:10144000000802400E21204603F02DFA07230E2249
:101450000F21204603F027FA0121204603F0A0FACD
:101460000121204603F092FA0121204603F0E8F919
:10147000204603F052FA1CB0BDE8F08170B5054675
:1014800096B00121102003F0EFF80121084603F087
:10149000C3F80121880503F0BFF84FF4C060139032
:1014A00002208DF8500000248DF852408DF85340F2
:1014B000FF4E8DF8510013A9304602F0DFFE0722DF
:1014C0000921304602F063FF07220A21304602F06C
:1014D0005EFF0F95ADF844400C20F64DADF840404E
:1014E000ADF84600ADF84240ADF848400FA9284697
:1014F00004F02DFA0121284604F09AFA4FF4A06076
:1015000002F004FE3A208DF8540001218DF85510A8
:101510008DF856108DF8571015A802F0FCFDE64E18
:10152000304603F0E9FA4FF000600090E348CDE95F
:1015300002040A200490281D01900015CDE9054001
:101540008010CDE9084040020A9004200B900794D7
:101550000320CDE90C04694630460E9403F054FB99
:1015600001224021284604F0FAFA012210213046D7
:1015700003F0F8FB0121304603F07FFB16B070BD8D
:101580002DE9F04F8046012197B0880403F062F8FE
:101590000121082003F040F80121480503F03CF840
:1015A00002268DF8546000244FF440708DF85640A8
:1015B0000125C34F14908DF857508DF8556014A92C
:1015C000384602F05BFE07220821384602F0DFFEB3
:1015D00007220921384602F0DAFEDFF8E8B2ADF85A
:1015E0004440ADF848400C27CDF84080ADF8464067
:1015F000ADF84C40ADF84A7010A9584604F0A7F970
:101600000121584604F014FA4FF4A06002F07EFD68
:101610008DF83C708DF83D508DF83E508DF83F5060
:101620000FA802F078FD0E208DF83C008DF83D608B
:101630008DF83E408DF83F500FA802F06CFDDFF8AA
:1016400088A2504603F058FA9C48ED060F30CDE9C9
:10165000020404A90A206F1481E8910008A84FF43D
:1016600080784FF40039079480E810030BF10406EA
:101670000B94CDE900566946504603F0C5FA0122A5
:101680004021584604F06BFA01221021504603F025
:1016900069FB0121504603F0F0FADFF82CA20AF1B1
:1016A000300A504603F028FA844800952138CDE9E5
:1016B00001604020039004A9212081E8910008A83E
:1016C000079480E81003694650460B9403F09CFA97
:1016D00001228021584604F042FA0122102150468E
:1016E00003F040FB0121504603F0C7FA17B0BDE8F4
:1016F000F08FF0B50646012197B0C80402F0AAFFAA
:101700000121084602F088FF0121480502F084FF0C
:1017100002208DF8500000248DF852408DF853407F
:10172000634F03258DF85100139513A9384602F035
:10173000A5FD08220021384602F029FE08220121D9
:10174000384602F024FE0F96ADF844400C205F4E60
:10175000ADF84040ADF84600ADF84240ADF8484025
:101760000FA9304604F0F3F80121304604F060F987
:101770004FF4A06002F0CAFC0D208DF854008DF8E3
:1017800055408DF8564001208DF8570015A802F0FD
:10179000C2FC4D4F1837384603F0AEF9780500907B
:1017A000464869461E30CDE9020408200490301DE9
:1017B00001900015CDE905408010CDE908404002B8
:1017C00007940A900420CDE90C540B9038460E94EF
:1017D00003F01AFA01224021304604F0C0F9012238
:1017E0004021304604F0BBF901221021384603F0B5
:1017F000B9FA0121384603F040FA17B0F0BD2DE9DF
:10180000F0418046012196B0480502F005FF012114
:10181000080502F01FFF01210C2002F0FDFE022549
:101820008DF8405000248DF84240254F04268DF855
:1018300043400F968DF841500FA9384602F01EFD27
:101840008DF840508DF842408DF84340E8028DF805
:1018500041501F4D0F900FA9284602F00FFD08229E
:101860000221384602F093FD08220C21284602F09E
:101870008EFD4FF4A06002F049FC2F208DF854003B
:1018800005208DF855008DF8560001208DF8570081
:1018900015A802F040FCADF84840CDF84480ADF802
:1018A0004A40ADF84C40ADF850400C2012E000002A
:1018B000000002400010014040640240E2090020A4
:1018C000000C02400048004028600240004C0040EC
:1018D00000080240FF4DADF84E0011A9284604F063
:1018E00036F80121284604F0A3F8FB4F384603F0F0
:1018F00003F97006009040200390F848029095206C
:101900000490281D01900015CDE905408010CDE917
:1019100008404002CDE90A0607940320CDE90C04F3
:10192000694638460E9403F06FF90122802128465B
:1019300004F015F901221021384603F013FA0121B1
:10194000384603F09AF916B096E5F0B5054697B01B
:101950000121202002F088FE0121042002F05CFE1B
:101960000121880502F058FEC020139002208DF856
:10197000500000248DF852408DF85340D84E8DF819
:10198000510013A9304602F079FC082206213046A6
:1019900002F0FDFC08220721304602F0F8FCADF809
:1019A00044400C20CF4EADF84040ADF846000F95B6
:1019B000ADF84240ADF848400FA9304603F0C7FFEC
:1019C0000121304604F034F84FF4A06002F09EFB91
:1019D00039208DF8540003258DF8555001218DF8DC
:1019E00056108DF8571015A802F095FBBE4F3846DB
:1019F00003F082F8B8050090BC48CDE902040F203E
:101A00000490301D01900015CDE905408010CDE90E
:101A10000840400207940A900420CDE90C540B9032
:101A2000694638460E9403F0EFF801224021304613
:101A300004F095F801221021384603F093F90121B2
:101A4000384603F01AF9D8E618B5A84A50788DF848
:101A500000009DF80000104483789DF80000AA3033
:101A6000C1B2002004E01418A478401C2144C9B27B
:101A70009DF80040A042F6DB12789D48AA2A03D1C7
:101A80008B4201D1012100E00021417018BDF0B569
:101A90000646012197B0480502F0BEFD01214D0424
:101AA000284602F0D7FD0121082002F0B5FD602094
:101AB000139002208DF8500000248DF852408DF8CC
:101AC00053408C4F8DF8510013A9384602F0D6FBD5
:101AD00007220521384602F05AFC07220621384623
:101AE00002F055FC0F96ADF844400C20824EADF844
:101AF0004040ADF84600ADF84240ADF848400FA96F
:101B0000304603F024FF0121304603F091FF4FF4EB
:101B1000A06002F0FBFA11208DF854008DF85540BA
:101B20008DF8564001208DF8570015A802F0F3FA01
:101B3000694F183F384602F0DFFFA80200904020AE
:101B400003906E4802903C200490301D01900015D7
:101B5000CDE905408010CDE908400420CDE90A50C8
:101B600007940320CDE90C04694638460E9403F02F
:101B70004BF801228021304603F0F1FF0122802141
:101B8000304603F0ECFF01221021384603F0EAF85A
:101B90000121384603F071F82FE630B585B00121F8
:101BA000142002F039FD0121880302F05DFD0025BB
:101BB0004FF440708DF80450012400908DF80740D8
:101BC0006946474802F05AFB6020009069464C483D
:101BD00002F054FB0821022004F02BF80921022016
:101BE00004F027F80521042004F023F8062104203E
:101BF00004F01FF84FF4587002908DF80C5010202C
:101C00008DF80D008DF80E4002A803F013F917208F
:101C10008DF810008DF811408DF812508DF813409A
:101C200004A802F078FA05B030BD10B5C3780022E0
:101C300002219B1CDBB204E0445C491C224492B2AA
:101C4000C9B28B42F8D2D0B2C0F1FF0010BD10B5BE
:101C50001C460346FF2020706070A3700720E070D0
:101C6000032020712A206071080AA071E171100A16
:101C7000207262722046FFF7D8FFA07210BD30B507
:101C80000C461A4B154601466F3BC8220120FFF750
:101C9000DEFF164BC822643B21460220FFF7D7FF28
:101CA000124BC822593B29460320FFF7D0FF0F48AB
:101CB000A738816BC0F85910C16BC0F85D10B0F83F
:101CC0004010A0F8611090F8421080F86310D0F82E
:101CD000431017E000500040B8600240CE020020E0
:101CE0000008024000140140286402400F0A00204E
:101CF00018000020000C02400044004018010020A1
:101D0000001002404166D0F847108166B0F84B10D1
:101D1000A0F86C1090F84D1080F86E10D0F84E10AE
:101D2000C0F86F10D0F85210C0F87310B0F8561009
:101D3000A0F8771090F8581080F8791030BD70B581
:101D4000FB4CE06C002816D162892189E088FFF7FE
:101D500096FFF948F74941662121C165F64D4FF0DC
:101D6000C0515835284602F0ECFF0121284602F008
:101D700084FF0120E06470BD10B5012810D0032855
:101D800019D0042822D0052809D1EC4C204603F0B4
:101D900075FE4021204603F002FF0028F9D010BD57
:101DA000E74C204603F06AFE4021204603F0F7FE90
:101DB0000028F9D010BDE34C204603F05FFE40211F
:101DC000204603F0ECFE0028F9D010BDDE4C204682
:101DD00003F054FE4021204603F0E1FE0028F9D034
:101DE00010BD2DE9FC41D94E304603F05DF9D04DD0
:101DF0008035A96AB04640EA014000244CF25036D2
:101E00004FF6E8570190404603F04EF9A96A40EAC0
:101E1000014000900100019800D54942002800DAF5
:101E20004042081AB04200DA641C00980190BC429B
:101E300001DC022CE7DB0098BDE8FC812DE9FC41C8
:101E4000C24E304603F030F9B94D8035A96AB0462C
:101E500040EA014000244CF250364FF6E85701901A
:101E6000404603F021F9A96A40EA014000900100D0
:101E7000019800D54942002800DA4042081AB042D1
:101E800000DA641C00980190BC4201DC022CE7DB04
:101E90000098642190FBF1F0CEE72DE9FC414FF072
:101EA0008046304603F000F9A14D8035E96AB0461E
:101EB00040EA014000244CF250364FF6E8570190BA
:101EC000404603F0F1F8E96A40EA01400090010061
:101ED000019800D54942002800DA4042081AB04271
:101EE00000DA641C00980190BC4201DC022CE7DBA4
:101EF0000098A1E72DE9FC41954E304603F0D4F857
:101F00008B4D8035296BB04640EA014000244CF2ED
:101F100050364FF6E8570190404603F0C5F8296B5C
:101F200040EA014000900100019800D54942002894
:101F300000DA4042081AB04200DA641C00980190AE
:101F4000BC4201DC022CE7DB009875E72DE9FC417F
:101F5000804E304603F0A8F8754D8035696BB04669
:101F600040EA014000244CF250364FF6E857019009
:101F7000404603F099F8696B40EA01400090010087
:101F8000019800D54942002800DA4042081AB042C0
:101F900000DA641C00980190BC4201DC022CE7DBF3
:101FA000009849E72DE9FC416B4E304603F07CF880
:101FB0005F4D8035A96BB04640EA014000244CF2E9
:101FC00050364FF6E8570190404603F06DF8A96B84
:101FD00040EA014000900100019800D549420028E4
:101FE00000DA4042081AB04200DA641C00980190FE
:101FF000BC4201DC022CE7DB00981DE74C4A0021C3
:10200000803201280CD002280ED0032811D00428D9
:1020100014D0052803D150482430016091637047E3
:102020004A484162916270474FF080404162D162FC
:102030007047474824300160116370474548243099
:102040000160516370473EB501680091416801919C
:102050000089ADF8080000206A46411C0C460AE0E1
:1020600032F8103032F81150AB4203D922F8105038
:1020700022F81130491C89B20529F1D3A0B20428F5
:10208000EBD3BDF804003EBD0022114630F81130FC
:10209000491C89B21A443229F8D33220B2FBF0F03D
:1020A00080B27047F0B52D4F214D002407F18C060A
:1020B00004EB8402042107EB420000BF00EB410364
:1020C00033F8023C20F81130491E0904090CF5D1FF
:1020D0002249383931F8141027F81210FFF7B3FFEE
:1020E00004EBC40101EB04112A7806EB8101641CA6
:1020F000A4B221F812000E2CDAD32878401CC0B20A
:102100002870322801D300202870144D00241C3D73
:1021100004EBC40000EB041006EB8000FFF7B4FFF3
:1021200025F81400641CA4B20E2CF1D3F0BD0000FD
:1021300018000020C109002000600240005000404B
:102140000010014000440040004C004000000140ED
:102150000004004000080040000C00409C030020E8
:1021600010B5FA4C00206071612020716420FEF7E8
:1021700036FD012060717A20207110BD10B5F34C3E
:1021800000206071612020716420FEF728FD01208D
:1021900060717A20207110BD2DE9F0410E46054690
:1021A00005F07CFA07460C46304605F077FA3A46C9
:1021B000234606F0A7F9E64AE64B05F025F905F0B7
:1021C0004EFAE24F803778653146084604F0F9FF51
:1021D00004462946084604F0F4FF214604F099FF1E
:1021E00005F05CFA06F028FC05F039FAB865BDE8A0
:1021F000F0812DE9F14F9AB00020DA490090D64ADB
:102200008DF83C00D14FDDF868C0DFF850A3D44D05
:1022100096148B8A4FF4004B07F180004FF48044F2
:102220004FF48069BCF1260F7DD2DFE80CF0132E4D
:1022300032363A3E4246484C5054585C5E6062CB5F
:10224000FDFCFBFAF9F8F7F6F5F47CF3F2F1F0EFA8
:10225000EEEDECEB0221104602F076F850B10122CF
:102260005946504602F088F88021284602F080F84E
:10227000002244E100225946504602F07DF88021B8
:10228000284602F077F8002247E1F96F0122B6A054
:1022900084E2B96F0222B9A080E2796F0322BCA068
:1022A0007CE2F96E0422BFA078E2396F0522C1A05A
:1022B00074E2B96E0622C3A070E207220DE1416A02
:1022C0000822BDA06AE2C1690922BFA066E20A2213
:1022D0001946C0A062E2398B0B22C4A05EE2C98815
:1022E0000C22C6A05AE20D221CE10E221EE10F2292
:1022F00020E10121C64802F027F84FF400580E9063
:1023000041465746504602F01FF80D900221C04842
:1023100002F01AF80C902146384602F015F80B909E
:102320000421BB4800E031E202F00EF80A90594661
:10233000B74802F009F883460821B54802F004F8CE
:1023400082462146B24801F0FFFF07901021B048B5
:1023500001F0FAFF04464146AD4801F0F5FF804622
:1023600008212F46284601F0EFFF05463146A848D0
:1023700001F0EAFF03901021384601F0E5FF0190DB
:102380004946A34801F0E0FF07468021A04801F03C
:10239000DBFF06464FF480719D4801F0D5FF0495A0
:1023A000CDE9058403460198CDE908AB0096CDE957
:1023B000017098A228210FA805F05AFB10220FA93E
:1023C0009DA0E1E180219246104601F0C7FF0E90EA
:1023D0000121504601F0C2FF0D904021504601F00E
:1023E000BDFF0C90D8465946284601F0B7FFDFF8EC
:1023F00050B20B903146584601F0B0FF4F46494667
:102400000A9012E0C5E1A9E1A4E19FE19AE195E11A
:1024100090E18AE184E17AE170E18EE089E084E094
:102420007FE05DE058E051E04AE0504601F096FF61
:102430004FF4006909904946584601F08FFF079014
:102440004946504601F08AFF08903946284601F077
:1024500085FF06903146504601F080FF05904946C1
:10246000284601F07BFF04904FF40051504601F0E4
:1024700075FF81462146284601F070FF054621463A
:10248000504601F06BFF06464FF48071584601F04C
:1024900065FF04464146504601F060FFDDE9071242
:1024A000CDE90721CDE90046CDE90259034659A2FD
:1024B00028210FA805F0DCFA11220FA961A063E121
:1024C000FFF7EBFC0146122260A067E1FFF712FD67
:1024D0000146132262A061E11422016A32A05DE18B
:1024E0000221104601F030FF68B1012259465046E2
:1024F00001F042FF8021284601F03AFF1522B7F98A
:102500000C105CA04AE100225946504601F034FF0D
:102510008021284601F02EFF1522B7F90C105CA08F
:102520003CE11622016862A038E11722416865A0EB
:1025300034E11822816867A030E1FFF7DBFC002856
:1025400000DA40420146192267A027E11800002066
:1025500078612288A9E78140000402400008024017
:10256000000C024080030020736572766F5F766115
:102570006C75655F706861693A20000073657276FA
:102580006F5F76616C75655F7361753A200000005E
:10259000736572766F5F76616C75655F7472616981
:1025A0003A200000676F635F62616E685F70686108
:1025B000693A2000676F635F62616E685F7361757F
:1025C0003A200000676F635F62616E685F747261DA
:1025D000693A20005F414443315F46696C7465721B
:1025E00065645B31305D203A200000006C617365EA
:1025F000725F7472756F633A200000005F4144435C
:10260000315F46696C74657265643A2000000000B1
:102610000010024025642564256425642564256432
:102620002564256425642564256425642564256462
:102630002564256400000000496E3A200000000077
:10264000000002404F55543A2000000052454144DA
:102650005F454E434F4445525F323A200000000030
:10266000524541445F454E434F4445525F333A2003
:10267000000000002D2D2D20504147452031202DF8
:102680002D2D2053414E20444F20494D553A2000D6
:102690002D2D2D20504147452031202D2D2D20530B
:1026A000414E2058414E4820494D553A20000000E7
:1026B0006E616E675F6368616E5F747261693A2014
:1026C000000000006E616E675F6368616E5F73613A
:1026D000753A20006E616E675F6368616E5F706857
:1026E00061693A2000000000454E434F4445525F67
:1026F00042414E485F504841493A2000FFF7CDFB28
:10270000002800DA404201461A22E7A046E0FFF71F
:1027100068FB002800DA404201461B22E7A03DE0AA
:10272000B7F910101D22EAA038E0B7F912101E22E6
:10273000E9A033E01F221946E9A02FE0C98A202230
:10274000EDA02BE0098B2122F1A027E0498B22226A
:10275000F5A023E0898B2322F9A01FE0FE48447AEC
:10276000037AC279817903AD85E81E004379027945
:10277000C1788DE80E008378F8A228210FA805F013
:1027800077F924220FA9FCA0FEF7B8F81BB0BDE82A
:10279000F08FFFF782FB01462522FAA0FEF74FF8E3
:1027A000F4E70121F94802F068BA11B4F848C16BA6
:1027B000009A914201DD002101E0C16B491CC16317
:1027C000C06B18BC15E500BFFEF7E8F9012003F067
:1027D00075FC012003F072FCF6E707B5EC48803881
:1027E00081650099016542650EBD2DE9FF411E46D8
:1027F0000A9F019804F000FFE54CE54D803C2066FF
:1028000001986866A66502982065009804F0F4FEB9
:10281000606600206065E865B4F90C00A86638467B
:1028200004F004FFE082B4F916000A2801DD0A2052
:1028300001E04FF4FA60A082BDE8FF812DE9F84F76
:10284000C54ED44A1E3EDFF8488370784FF01E0113
:10285000C3074FF080474FEA807006D0002814DB92
:10286000C8F86C10C8F87C7013E000280DDAF07915
:10287000192806D90120C8F86C00C748C8F87C00A0
:1028800007E01420C8F86C0001E0C8F86C10C8F824
:102890007C20D8F86C001530C8F87800FEF77EF977
:1028A0000D2806D0BDE8F84F00224FF081411046B8
:1028B00093E73078DFF8D89210F0480F4FF00A0510
:1028C0004FF00004A9F1800940D181063ED4C10631
:1028D0003CD431794FF0050AC82907D9D8F85020DF
:1028E000322A03DAD9F84000404207E032292DD2DB
:1028F000D8F85010322929DAD9F84000B9F90C106B
:1029000000EBC00001EB8000C9F83C00C8F8704043
:102910000121D8F87C0004F0C4FCD8F878100346F4
:1029200091FBFAF29D480090D8F87010D9F83C005D
:10293000FFF75BFFB9F90C00C9F83C00C8F8745008
:10294000B9F90C00C9F83C00BDE8F88F01074FF455
:10295000617E4FEA406127D5002947DB810645D4D7
:10296000C10643D43179C82909D9D8F85010322981
:102970003CDAB9F90C00D9F84010401A0AE03229C3
:1029800034D2D8F85010322930DAB9F90C00D9F81D
:1029900040100844C9F83C00C8F870400094D8E9D9
:1029A0001E23D8F87010ACE200291FDA81061DD46E
:1029B000C1061BD43179C82909D9D8F85010322959
:1029C00014DAB9F90C00D9F84010401A0AE032299B
:1029D0000CD2D8F85010322908DAB9F90C00D9F81D
:1029E00040100844C9F83C00704637E110F0480F29
:1029F0004FF4E16240D181064FEAC0611DD5002944
:102A00003ADB3179C82909D9D8F85010322933DA9C
:102A1000B9F90C00D9F84010401A0AE032292BD23B
:102A2000D8F85010322927DAB9F90C00D9F840103B
:102A30000844C9F83C005A4810E100291CDA3179F1
:102A4000C82909D9D8F85010322915DAB9F90C007B
:102A5000D9F84010401A0AE032290DD2D8F85010A7
:102A6000322909DAB9F90C00D9F840100844C9F83C
:102A70003C00C8F8702091E701074FF4E17ACAF1F1
:102A8000000B40F2465C4FEA406109D500294FEA4D
:102A9000806106DA002905DBC10603D4317981E0C3
:102AA000BBE09AE0DDE00000454E434F4445525FF5
:102AB00042414E485F5341553A200000454E434F36
:102AC0004445525F42414E485F545241493A2000CA
:102AD000494D555F583A2000494D555F593A2000FD
:102AE0005F414443315F46696C74657265645B3174
:102AF000305D3A20000000005F414443325F466988
:102B00006C74657265645B31315D3A2000000000D1
:102B10005F414443315F46696C74657265645B3143
:102B2000325D3A20000000005F414443315F466956
:102B30006C74657265645B31335D3A20000000009F
:102B40005F414443315F46696C74657265645B3113
:102B5000345D3A20000000000F0A00202564202583
:102B600064202564202564202564202564202564B4
:102B700020256420256425004269745F4553503A3E
:102B800020000000454344323A200000A06002408B
:102B9000980000206666263F9A99993F0000A04160
:102BA0007CFCFFFFC82909D9D8F85010322958DA1F
:102BB000B9F90C00D9F84010401A0AE0322950D275
:102BC000D8F8501032294CDAB9F90C00D9F8401075
:102BD0000844C9F83C00504640E0002941DAC106EB
:102BE0003FD43179C82909D9D8F85010322938DAB8
:102BF000B9F90C00D9F84010401A0AE0322930D255
:102C0000D8F8501032292CDAB9F90C00D9F8401054
:102C10000844C9F83C00584620E0002921DA810622
:102C20001FD4C1061DD53179C82909D9D8F850104B
:102C3000322916DAB9F90C00D9F84010401A0AE026
:102C400032290ED2D8F8501032290ADAB9F90C001C
:102C5000D9F840100844C9F83C006046C8F8700034
:102C60009CE6FB4910F0480F20D183061ED5C30611
:102C70001CD53379C82B09D9D8F85030322B15DA46
:102C8000B9F90C00D9F84020801A0AE0322B0DD295
:102C9000D8F85030322B09DAB9F90C00D9F84020B5
:102CA0001044C9F83C00C8F8701077E6030708D54F
:102CB000430606D4830604D4C30602D4C8F8704081
:102CC00008E010F0480F14D1830612D4C30610D5C3
:102CD000C8F870200094D8F87C30D8F86C20D8F868
:102CE000701000BFD9F83C00FFF77FFDC8F87450A2
:102CF0002AE6030707D4430605D5830603D4C30693
:102D000001D4704623E010F0480F05D1830603D5A7
:102D1000C30601D4CF481AE003074FEA40630FD53A
:102D2000002B4FEA806305DA002B13DBC30611D4B6
:102D300050460CE0002B0DDAC3060BD4584606E0D3
:102D4000002B07DA830605D4C30603D56046C8F80E
:102D50007000BFE710F0480F7BD183064FEAC060D8
:102D600004D5002875DAC8F87010B3E7002870DBC6
:102D700070794FF07E5A4FF07C5B322830D2B9F92F
:102D80000C10C9F83C10C8F87020CDF800A0D8F895
:102D9000701053460A22D9F83C00FFF726FD5F4623
:102DA0000EE00A2003F08AF9F07920B14FF080425A
:102DB000A949642002E0A94A39461420FFF70DFD15
:102DC00070793228EDD3B9F90C104846C9F83C1097
:102DD000C8F87450009453460222D8F8701034E0BA
:102DE000C82837D9B9F90C10C9F83C100021C8F827
:102DF0007010CDF800A0D8F87010544653460A223F
:102E0000D9F83C00FFF7F1FCBA46954F0DE00A20D7
:102E100003F054F9F07918B152462146C82002E077
:102E20003A4659461420FFF7D8FC7079C828EED8E6
:102E3000B9F90C104846C9F83C10C8F87450002184
:102E40000091D8F8701023460222C06BFFF7CDFC2A
:102E50007AE563E0D8F850000A2837DD0094D8F806
:102E60007C30D8F86C20D8F84C10D9F83C00FFF72B
:102E7000BCFCC8F87450B846794F54465D460DE026
:102E80000A2003F01BF9F07918B14246214632209E
:102E900002E03A4629461420FFF79FFC3079322899
:102EA000EED3704F4FF040483079C828D0D90A206F
:102EB00003F004F9F07918B142462146322002E0CD
:102EC0003A4629461420FFF788FCEDE7D8F8500071
:102ED000322823DD3079C82805D9B9F90C00D9F892
:102EE0004010401A06E0322810D2B9F90C00D9F887
:102EF00040100844C9F83C000094D8E91E23D8F8D3
:102F00004C10D9F83C00FFF770FC17E50094D8F896
:102F10007C30D8F86C20D8F84C10E3E6B9F90C00F6
:102F2000C9F83C00009400221146D8F87C30D9F84A
:102F30003C008BE770B54C4CA07801264B4D022825
:102F400001D1E07830B3A078022817D1E0780128C9
:102F500014D1288B0F2811D3288B28280ED80022B3
:102F600043491046FFF739FCA078022805D1E078E4
:102F7000012802D1288B64280CD870BDA0780228C3
:102F8000FBD1E0780228F8D1288B3228F5D3288BA2
:102F90005A28F2D86E6470BD2DE9FF4182B0154603
:102FA0000C9C12F1FF4F01D382F000454FF07E568A
:102FB000B4F5000F01DA284C02E0B44200DD3446DB
:102FC000DDE90201401A00D5404247F2F85800906E
:102FD00088B30599374688420ADA084604F00CFBA4
:102FE0000746009804F008FB394604F01CF9074630
:102FF0002146304604F0DFF8394604F0E2F8214675
:1030000004F087F8294604F0DCF80446294604F069
:103010007FFB00D22C46204605F042FB04F006FB65
:103020000190012801DA01200190DDE900018842C8
:1030300006DC02981FE0FFE74246002103981DE0EE
:10304000DDE902108842019914DA084413E0000017
:10305000BAFAFFFF7CFCFFFFCDCC4C3D0000A04145
:103060000000A0400000A0C00F0A002018000020AF
:1030700000004040401A42460021039006B0BDE8DF
:10308000F04100F06FBF2DE9F843FA4CF74DF84FCF
:10309000009541F26806A16833463A4644F6206836
:1030A0004046FFF779FFA0600095216833463A4615
:1030B0004046FFF771FF20600095616833463A464D
:1030C0004046FFF769FF6060A16804F1800080F866
:1030D0003010A168090A80F82F10216880F82610A6
:1030E0002168090A00F8251F616881716168090A71
:1030F0004171BDE8F883F8B500254FF080463346AE
:103100001E22294628460095FFF76FFB00244FF446
:10311000C87705E0FDF74FFD30B9012002F0CEFF82
:10312000FEF7BBFEB842F5DB641C642CF8DBFFF74E
:10313000AAFF00244FF4E17706E000BFFDF73BFD56
:1031400030B9012002F0BAFFFEF7A7FEB842F5DB66
:10315000641C642CF8DBC84F002239461046FFF788
:103160003CFBFFF7E7FE002133461E220846009590
:10317000FFF73BFB00244FF47A7505E0FDF71BFDDC
:1031800030B9012002F09AFFFEF787FEA842F5DB76
:10319000641C642CF8DB3946BDE8F8400022104678
:1031A000FFF71BBB2DE9F041054640F28620854222
:1031B00039DD40F60E10854202DBB420BDE8F08117
:1031C000AE48002450F82410A94229DC00EB840109
:1031D0004968A94224DB00EB840150F82470496857
:1031E000C81B04F009FA0646E81B04F005FA31464C
:1031F00004F019F80546A148903800EB840150F816
:1032000024404968081B04F0F7F9294603F0D9FF68
:103210004FF07C5103F07DFF04F008FA2044CDE725
:10322000641C232CCEDB0520C8E7954810B5808AA6
:10323000FFF7B8FF8F498039088310BD914E8E4D3E
:1032400006F11E04FFF7F1FF3078800704D5002255
:1032500029461046FFF7C1FAA078022805D0FFF7EB
:10326000EDFA0A2002F02AFFECE7FFF744FFF8E747
:103270002920FFF79AFA0A2002F020FFF8E7F8B5B4
:103280007C4C7A4D7A4F009540F69806A1683346FB
:103290003A460020FFF780FEA06000952168334683
:1032A0003A460020FFF778FE2060009561683346BB
:1032B0003A460020FFF770FE6060616804F180000C
:1032C00080F82B106168090A80F82A10216880F8BC
:1032D00026102168090A00F8251FA168C172A1689B
:1032E000090A8172F8BD634C803CA06C012801D1B1
:1032F000FFF7C5FF072002F0E1FEF6E77CB50120ED
:103300000024CDE90004050223462A465EA1614857
:1033100002F01DFD0420CDE9000400232A465EA131
:10332000604802F014FD0220CDE9000400232A4683
:103330005DA1614802F00BFD0320CDE900040023EC
:103340002A465EA1614802F002FDBDE87C4003F020
:1033500088B82DE9F04791460E46044603F02EFF4B
:10336000054620F00040074616F0FF4F01D03146D9
:1033700001E04FF07E5103F056FF554903F021FF65
:1033800004F08CF905F016FADFF848810022434674
:1033900004F037F8012204F018F904F092F94E49CC
:1033A000B5F5000F2DDB8F4207DD0121484603F004
:1033B00078FF214603F0ADFE1DE004F06FF94FF0F9
:1033C000FF3204F002F90022434603F076FF07467D
:1033D0000D46484604F062F93A462B4604F014F8CC
:1033E00007460D46204604F059F93A462B4603F0AD
:1033F00064FF04F066F90446314604F089F932D2DC
:1034000030E015F1FF4F2ED38F4207DD01214846F2
:1034100003F047FF214603F0D1FE1EE004F03EF921
:103420004FF033322D4B03F0EFFF0022434603F001
:1034300044FF07460D46484604F030F93A462B460D
:1034400003F0E2FF07460D46204604F027F93A460E
:103450002B4603F0D3FF04F034F90446314604F060
:103460004DF900D234462046BDE8F087CDCCCC3DA6
:10347000000020419800002000004040148B00080C
:1034800080030020F10900205461736B5F4D616976
:103490006E000000E73200085461736B5F484D49CD
:1034A00000000000713200085461736B5F436F6E5F
:1034B00074726F6C5F3100003D3200085461736BB1
:1034C0005F436F6E74726F6C5F320000C727000835
:1034D0000000A0C00000F03F0000A0413333D33F04
:1034E0002DE9F041F84C4FF07E51E06D03F011FEF4
:1034F0000546E065A4F180000027416DBE1EB1F5D0
:10350000000F1BDB8046284604F002F93ED231460C
:103510004546D8F85C0003F0C4FE0646696E03F029
:10352000F8FD6866606EB5F90C10401AA16E08448B
:1035300004F062F8314603F03EFE25E011F1FF4F42
:1035400025D38046084604F071F8002800DA40428E
:1035500004F052F8294604F0D1F817D23146454616
:10356000D8F85C0003F09DFE0646696E03F026FE67
:103570006866606EB5F90C100844A16E401A04F03C
:103580003BF8314603F0C5FD2866E76516E60121E4
:10359000C161016212E62DE9F05FCB4C803C606DA9
:1035A00004F044F8400001D0FFF79AFF206D04F0CA
:1035B00023F80146D4E91620FFF7CBFE8146E065EB
:1035C000606D04F033F84000DFF80083C04DBE4F5B
:1035D000B4F90C004FF4E16614D004F00DF8616EFC
:1035E00003F0E9FD414603F0ECFD04F01FF8B8617B
:1035F000B869B04201DDBE6119E0B869A84216DAC7
:10360000BD6114E003F0F8FF616E03F0D4FD4146A4
:1036100003F0D7FD04F00AF8B861B9694FF46160AE
:10362000814203DCB9694042814200DAB861206E10
:10363000A849804603F0F7FD03F0F8FF4FF46161FD
:10364000484303F0D9FF414603F0B8FD03F0EEFF15
:10365000E081B86900280BDD206BB4F90E10401A28
:10366000F860606BB4F90E10401A3861A06B0DE081
:10367000B86900280FDA606AB4F90E10401AF860D1
:10368000A06AB4F90E10401A3861E06AB4F90E105D
:10369000401A786105E0484603F0C8FF7862386256
:1036A000F861F868B042F86802DDA0F5616004E0F6
:1036B000A84203DAF86800F56160F8603869B04242
:1036C000386902DDA0F5616004E0A84203DA3869D8
:1036D00000F5616038617869B042786902DDA0F573
:1036E000616004E0A84203DA786900F561607861FE
:1036F000B869B946002800DA4042774FDFF8DCB1FC
:10370000B04272DDD9F81800002800DA404203F018
:103710007CFF80468A46D9F80C0003F076FF002231
:103720005B4603F0E3FE4246534603F06DFE8046DF
:103730008A46B4F90E0003F068FF4246534603F090
:10374000BCFD03F08CFFA066D9F81800002800DA51
:10375000404203F05AFF80468A46D9F8100003F031
:1037600054FF00225D4B03F0C1FE4246534603F076
:103770004BFE80468A46B4F90E0003F046FF4246EF
:10378000534603F09AFD03F06AFFE066D9F818008B
:10379000002800DA404203F038FF82468B46C846D4
:1037A000D9F8140003F031FF00224C4B03F09EFEC9
:1037B00052465B4603F028FE82468B46B4F90E0063
:1037C00003F023FF52465B4603F077FD03F047FF0B
:1037D0002067D8F84000A16E401A40F68C2188423C
:1037E00004DDA06E00F5616009E089E0D8F84000D2
:1037F000A26E801AB84203DAA06EA0F56160A066DE
:10380000D8F840204046A36E4FF46178D31AC8F12F
:103810000002434503DDA36E03F5E16309E0036C99
:10382000D4F868C0A3EB0C03934203DAA36EA3F5AC
:10383000E163A366436CD4F86CC0A3EB0C038B422A
:1038400003DDE36E03F5616309E0436CD4F86CC0FB
:10385000A3EB0C03BB4203DAE36EA3F56163E366FB
:10386000436CD4F86CC0A3EB0C03434503DDE36E5B
:1038700003F5E16309E0436CD4F86CC0A3EB0C03DF
:10388000934203DAE36EA3F5E163E366836CD4F855
:1038900070C0A3EB0C038B4203DD216F01F5616166
:1038A00007E0816C236FC91AB94203DA216FA1F5D1
:1038B00061612167816C236FC91A414510DD216F59
:1038C00001F5E16114E00000980000200000404094
:1038D000F8F8FFFF0000614574F5FFFF0020AC40E1
:1038E000816C236FC91A914203DA216FA1F5E1615E
:1038F0002167A16E0164E16E4164216F8164F1E092
:10390000B4F90E00A066B4F90E00E066B4F90E003A
:103910002067D9F840104846A26E40F68C28891AD4
:10392000414503DDA16E01F5616107E0016CA26E06
:10393000891AB94203DAA16EA1F56161A166016C31
:10394000A26E8B1A40F246514A428B4203DDA36EAF
:1039500003F5E16309E0036CD4F868C0A3EB0C0342
:10396000934203DAA36EA3F5E163A366436CD4F834
:103970006CC0A3EB0C03434503DDE36E03F5616309
:1039800009E0436CD4F86CC0A3EB0C03BB4203DA30
:10399000E36EA3F56163E366436CD4F86CC0A3EBFC
:1039A0000C038B4203DDE36E03F5E16309E0436C36
:1039B000D4F86CC0A3EB0C03934203DAE36EA3F5D7
:1039C000E163E366836CD4F870C0A3EB0C0343455A
:1039D00003DD236F03F5616309E0836CD4F870C0E5
:1039E000A3EB0C03BB4203DA236FA3F561632367E8
:1039F000836C276FDB1B8B4203DD216F01F5E161D7
:103A000007E0816C236FC91A914203DA216FA1F597
:103A1000E1612167A16E0164E16E4164216F8164FF
:103A20008069002800DA404203F0EFFD074688462F
:103A3000D9F80C0003F0E9FD00225B4603F056FDC7
:103A40003A46434603F0E0FC07468846A06E03F082
:103A5000DCFD3A46434603F030FC03F000FEA0666E
:103A6000D9F81800002800DA404203F0CEFD804665
:103A70000F46D9F8100003F0C8FD00225B4603F0A2
:103A800035FD42463B4603F0BFFC80460F46E06EE4
:103A900003F0BBFD42463B4603F00FFC03F0DFFDA5
:103AA000E066D9F81800002800DA404203F0ADFDC6
:103AB00007468846D9F8140003F0A7FD00225B46AC
:103AC00003F014FD43463A4603F09EFC80460F4641
:103AD000206F03F09AFD42463B4603F0EEFB03F0F5
:103AE000BEFD2067A06EA84201DA284602E0B0427F
:103AF00000DD3046C0F5E162E06EA84201DA2846FA
:103B000002E0B04200DD3046C0F5E161206FA8421E
:103B100001DA284602E0B04200DD3046C0F5E1633C
:103B2000C2EB02324FF4616092FBF0F20A3262673C
:103B3000C1EB013191FBF0F10A31E167C3EB0331D5
:103B400091FBF0F01438A067606FE080A06F2081D7
:103B5000E06F6081FEF7F3F8D9F818004D460028B1
:103B600000DA4042B2460A26F84F50457DDDA8698A
:103B700000284ADDE06D03F091FD8046206F894604
:103B8000A16B401A90FBF6F003F036FDBB463946B8
:103B900003F017FB03F082FD04F0BEFD42464B46E6
:103BA00003F032FC03F05BFD6862E06D03F076FD2C
:103BB0008046E06E0F46616B401A90FBF6F003F012
:103BC0001BFD594603F0FDFA03F068FD04F0A4FD67
:103BD00042463B4603F018FC03F041FD2862E06DCD
:103BE00003F05CFD0746A06E8846216B401A90FBEF
:103BF000F6F003F001FD594603F0E3FA03F04EFD41
:103C000004F08AFD43463A464EE0A869002850DA9F
:103C1000E06D03F043FD8046206F8946E16A401A5B
:103C200090FBF6F003F0E8FCBB46394603F0C9FA16
:103C300003F034FD04F070FD42464B4603F0E4FB14
:103C400003F00DFD6862E06D03F028FD8046E06E34
:103C50000F46A16A401A90FBF6F003F0CDFC5946DE
:103C600003F0AFFA03F01AFD00E02EE004F054FD7B
:103C700042463B4603F0C8FB03F0F1FC2862E06DCE
:103C800003F00CFD0746A06E8846616A401A90FB5F
:103C9000F6F003F0B1FC594603F093FA03F0FEFC92
:103CA00004F03AFD3A46434603F0AEFB03F0D7FC7E
:103CB000E861E06D4FF07E5290426BDC296E00208F
:103CC000002942DC2866E06546E0E06D03F0E6FC92
:103CD0008146206F8846B4F90E10401A90FBF6F02A
:103CE00003F08AFCBB46394603F06BFA03F0D6FCBE
:103CF00004F012FD4A46434603F086FB03F0AFFC96
:103D00006862E06D03F0CAFC0746E06E8846B4F9CD
:103D10000E10401A90FBF6F003F06EFC594603F0CB
:103D200050FA03F0BBFC04F0F7FC3A46434603F0BC
:103D30006BFB03F094FC2862E06D03F0AFFC0746D8
:103D4000A06E8846B4F90E10A0E7491E296601212D
:103D5000E265E96129626962296EB1F5FA7F1CDAD0
:103D6000296C002900DA4942524691420BDA696C0B
:103D7000002900DA4942914205DAA96C002900DAEB
:103D80004942514509DBA0662864E0666864206703
:103D9000A86402E0B4F914002866E86941426C485E
:103DA0000171E9694942090AC170296A0176296AE3
:103DB000090AC175696A8173696A090A4173BDE8B4
:103DC000F09F2DE9F84FFFF730FA624D2B8B01225F
:103DD000614E6248002741F2680105F18004462BDC
:103DE00005D32B8B822B02D8EA70AF700FE02B8BA0
:103DF000462B05D22B8B822B02D9AA70EF7020E0C4
:103E0000EA78012A03D0AA78012A1AD033E088463A
:103E10000B460096A1688146024644F6206A504649
:103E2000FFF7BAF8A0600096216843464A4650461C
:103E3000FFF7B2F820600096616843464A46504654
:103E400016E088460B460096A1688146024600208F
:103E5000FFF7A2F8A0600096216843464A4600207A
:103E6000FFF79AF820600096616843464A460020B2
:103E7000FFF792F86060288B4FF08043372802D319
:103E80001E22009704E0288B372805D201220097D4
:103E900000210846FEF7A9FCA1682D4880F83010E3
:103EA000A168090A80F82F10216880F8261021687F
:103EB000090A00F8251F616881716168090A41716A
:103EC000BDE8F88F704738B5FCF795FEFCF7C0FEEB
:103ED000FDF787F8FCF7B1FFFDF7F4F8FDF765F99A
:103EE000FDF7D4F9FCF7D7FE1D4C0021204601F068
:103EF0000DF94FF4E1352846FDF7C0FA2846FDF7E5
:103F00003FFB2846FDF721FDE800FDF778FC284639
:103F1000FDF7BDFD0A20FCF762FE0121204601F0FD
:103F2000F5F80A20FCF75BFEFEF71AF900204FF0C7
:103F30007E53024601460090FEF757FC6420FCF7D2
:103F40004EFEFFF7DBF9002038BD000035FA8E3C4D
:103F50001801002018000020CDCCCC3D00002041ED
:103F60000010004007B5DDE90001884202DB02993C
:103F7000884200DD08460EBD0CB500205149019075
:103F800000900A6842F480320A604FF4A0630A6825
:103F900002F400320092019A521C0192009A12B966
:103FA000019A9A42F3D10A68920334D50120009015
:103FB00044484030026842F0805202604248026841
:103FC00042F4804202603F480830026802600268A2
:103FD00042F400420260026842F4A0520260031FF1
:103FE0003A4A1A600A6842F080720A600A689201CE
:103FF000FCD5374A40F205611160016821F00301E8
:104000000160016841F0020101600168C1F38101B2
:104010000229FAD10CBD00900CBD2A4810B50168E8
:1040200041F001010160274A002108321160026855
:10403000284B1A400260031D274A1A60026822F4C6
:10404000802202601F480C300160FFF795FF234972
:104050004FF00060086010BD70B51A4C083420683D
:104060001F4A10F00C011F4804D05510042903D03A
:10407000082903D002601BE0056019E01149091D01
:104080000B68C3F380560B6803F03F0316B1B5FB12
:10409000F3F201E0B2FBF3F20B680968C3F3881393
:1040A0005A43C1F30141491C4900B2FBF1F10160DF
:1040B00021680C4AC1F30311121D515C0268CA4009
:1040C000026070BD00380240007000400854400794
:1040D000003C0240FFFFF6FE1030002408ED00E037
:1040E0000024F4006001002006488047064800478D
:1040F000FEE7FEE7FEE7FEE7FEE7FEE7FEE7FEE798
:10410000FEE7FEE71B400008890100082849084334
:1041100028490860704730B50F22C4780178012320
:10412000FCB1244C246801F1E02104F4E064C4F5FE
:10413000E064C4F30724C4F10405E2404478AC40D1
:104140008578154025432A0181F80024007800F085
:104150001F018B404009800000F1E020C0F80031D1
:1041600030BD01F01F0083404809800000F1E020CD
:10417000C0F8803130BD104A114001430D48001F86
:10418000016070470B4A121D0029116801D00143DC
:1041900000E08143116070474FF0E0210428086976
:1041A00003D020F004000861704740F00400FAE7F3
:1041B0000000FA050CED00E080FFFF1F7C4910B500
:1041C000884206D10121084600F058FA002101205A
:1041D0004FE07849884206D10121022000F04EFAD2
:1041E0000021022045E07449884206D101210420C3
:1041F00000F044FA002104203BE07049884206D1D7
:104200000121082000F03AFA0021082031E06C4931
:10421000884206D10121102000F030FA0021102040
:1042200027E06849884206D10121202000F026FAC3
:10423000002120201DE06449884206D10121402050
:1042400000F01CFA0021402013E06049884206D1AA
:104250000121802000F012FA0021802009E05C4951
:1042600088420AD184150121204600F007FA002176
:104270002046BDE8104000F001BA10BDF0B50023A3
:10428000012403270D6804FA03F21540954242D138
:10429000D0F800C05E0007FA06F52CEA050CC0F85D
:1042A00000C091F804C0D0F800E00CFA06FC4CEA1B
:1042B0000E0CC0F800C091F804C0BCF1010F02D090
:1042C000BCF1020F1FD1D0F808C02CEA050CC0F8D1
:1042D00008C091F805C0D0F808E00CFA06FC4CEADA
:1042E0000E0CC0F808C0D0F804C02CEA020CC0F8CC
:1042F00004C0426891F806C00CFA03FC1FFA8CFC5B
:1043000042EA0C024260C268AA43C260CA79C56828
:10431000B2402A43C2605B1C102BB3D3F0BD4FF6F2
:10432000FF7101600021017141718171C17170479C
:1043300008B541F480320092C261C1610099C16147
:10434000C169C069009008BD0246002012690A4296
:1043500000D001207047006980B2704702460020FB
:1043600052690A4200D001207047406980B270470C
:1043700001837047418370470AB1018370474183CD
:1043800070474161704742694A40426170474B073C
:10439000DB0E9A40C90810B500EB8100016A0F24BA
:1043A0009C40A1430162016A1143016210BD0000FB
:1043B000000002400004024000080240000C0240DD
:1043C000001002400014024000180240001C02408D
:1043D00000200240EA48016841F001010160E84A1A
:1043E0000021083211600268E64B1A400260031D8A
:1043F000E54A1A60026822F480220260E0480C302C
:1044000001607047DE490022891C0A7008707047FD
:1044100002460020510901290CD002290CD0D849AC
:104420007431096802F01F02012393400B4200D04F
:1044300001207047D249F4E7D1497031F1E718B54E
:1044400000204FF4A06400903120FFF7E1FF0099B5
:10445000491C0091A14201D00028F5D03120FFF77E
:10446000D7FF002800D0012018BDC5490A6822F0F6
:10447000F80242EAC00008607047C449086070470B
:10448000BF49002270310A700A70012802D0042846
:1044900001D1052008707047BD490860704741EAA6
:1044A00082115A0810B5BB4B029C03EB0242114328
:1044B000014341EA0460B249091D086010BDB349D7
:1044C00008667047800140EA0170AD498431086098
:1044D0007047AE4988667047AC49C8647047A84ABF
:1044E00008321368084323F0EC63184310607047E8
:1044F000A34A08321368084323F078431843106036
:1045000070479F4A0832116821F00301014311608E
:1045100070479B480830006800F00C007047984ACC
:104520000832116821F0F001014311607047944A8C
:104530000832116821F4E05101431160704790493D
:1045400008310A6822F4604242EAC00008607047FD
:1045500070B58B4A083211688F4C11F00C0104D0F1
:104560006610042903D0082903D004601BE006600C
:1045700019E08349091D0B68C3F380550B6803F0EC
:104580003F0315B1B6FBF3F301E0B4FBF3F30C68A2
:104590000968C4F388146343C1F30141491C49000D
:1045A000B3FBF1F1016011680F2303EA11117B4B9A
:1045B0005C5C0168E14041601468072505EA9424C9
:1045C0001C5D21FA04F48460126805EA52329A5C98
:1045D000D140C16070BDC0F30121032908D1684AF0
:1045E0000832116821F4F8136D4901401943116034
:1045F000634970310A68C0F30B0002430A607047D8
:104600006349443908607047614940390860704720
:104610005E49C1F85C017047594A3032002911687F
:1046200001D0014300E0814311607047544A3432A5
:104630000029116801D0014300E0814311607047F7
:104640004F4A38320029116801D0014300E081430C
:10465000116070474A4A40320029116801D0014375
:1046600000E0814311607047454A443200291168D7
:1046700001D0014300E0814311607047404A10328D
:104680000029116801D0014300E0814311607047A7
:104690003B4A14320029116801D0014300E08143F4
:1046A00011607047364A18320029116801D0014361
:1046B00000E0814311607047314A203200291168BF
:1046C00001D0014300E08143116070472C4A24323D
:1046D0000029116801D0014300E081431160704757
:1046E000274A50320029116801D0014300E081437C
:1046F00011607047224A54320029116801D00143E9
:1047000000E08143116070471D4A5832002911684A
:1047100001D0014300E0814311607047184A6032C4
:104720000029116801D0014300E081431160704706
:10473000134A64320029116801D0014300E081432B
:10474000116070470E4A0D320029117801D00143E3
:1047500000E081431170704709487430016841F0EE
:104760008071016070470146054A00200C321268D2
:104770000A4200D00120704701490E31087070478D
:1047800000380240FFFFF6FE1030002400004742D0
:10479000800E47420000FFFF0024F4007401002057
:1047A000FFFCFF0F10B501210C022046FFF78EFF22
:1047B0002046BDE810400021FFF788BF30B54268B1
:1047C000C84B0C791A400B6842EA04221343436039
:1047D0008268C54B4D791A40D1E9034323438C6865
:1047E00044EA4504234313438360C26A097D22F4EB
:1047F0007002491EC9B242EA0151C16230BD0021B6
:104800000160017141718160C16001610121017527
:104810007047B64B10B5D3F80423B5490A40D0E928
:1048200000142143D0E90240044321431143C3F85B
:10483000041310BD0021016041608160C1607047B8
:104840000029816802D041F0010101E021F001015D
:10485000816070474268A74B1A400A434260704724
:10486000416282627047426822F01F020A4342603E
:1048700070479E490028D1F8040302D040F400009C
:1048800001E020F40000C1F80403704797490028B4
:10489000D1F8040302D040F4800001E020F480004D
:1048A000C1F80403704770B5072409290AD9C568FF
:1048B000A1F10A0606EB4606B440A543B3401D43EA
:1048C000C56007E0056901EB4106B440A543B3406C
:1048D0001D4305611F23072A09D2446B521E02EBB8
:1048E000820293409C4391400C43446370BD0D2A67
:1048F00009D2046BD21F02EB820293409C43914089
:104900000C43046370BDC46A0D3A02EB820293400B
:104910009C4391400C43C46270BD816841F080416A
:1049200081607047014600208968490200D5012056
:1049300070470029816802D041F4806101E021F4D0
:104940008061816070470029816802D041F00201D6
:1049500001E021F00201816070474268491E22F4A3
:10496000604242EA4131416070470029416802D00B
:1049700041F4006101E021F4006141607047C06CC6
:1049800080B270475948D0F8080370470029816801
:1049900002D041F4807101E021F4807181607047A0
:1049A0000029816802D041F4007101E021F4007116
:1049B000816070474D490028D1F8040302D040F4CB
:1049C000005001E020F40050C1F80403704770B5B6
:1049D000072409290AD9C568A1F10A0606EB46068B
:1049E000B440A543B3401D43C56007E0056901EB32
:1049F0004106B440A543B3401D430561836BC3F337
:104A00000154121B921C02EB82041F22A24093430A
:104A1000A1400B43836370BD826B491E22F4401298
:104A200042EA01518163704708B508440090026072
:104A300008BD826822F470220A438260704782684F
:104A400022F440120A4382607047816841F4800179
:104A500081607047014600208968490200D5012025
:104A600070470029416802D041F4806101E021F4DF
:104A70008061416070470029416802D041F4805153
:104A800001E021F480514160704708B508442830A6
:104A90000090006880B208BD01238B4041680AB1D4
:104AA000194300E0994341607047024600201268B4
:104AB0000A4200D001207047C9430160704730B5F9
:104AC0000246002053680C0A01258D4011682B40D6
:104AD000214202D0002B00D0012030BD6FEA11210D
:104AE00001607047FFFEFFFCFDF7FFC000200140A2
:104AF000E030FCFFFFFD3FFF2DE9F043016821F0AE
:104B0000010101600021016041608160C1600161BB
:104B100021214161B849B84A3D251039904202D15E
:104B20008D60BDE8F083B44A4FF474661832904249
:104B300001D18E60F5E7B04A4FF4741730329042DD
:104B400001D18F60EDE7AC4A4FF0746C483290426F
:104B500002D1C1F808C0E4E7A74BA84A60339842E5
:104B600001D1CA60DDE7A44CA54B7834A04201D145
:104B7000CB60D6E7DFF88082A24C08F19008404570
:104B800001D1CC60CDE7DFF870824FF03D5908F1DC
:104B9000A808404502D1C1F80C90C2E79A49DFF855
:104BA00068820839404501D10D60BAE7964D183545
:104BB000A84201D10E60B4E7934D3035A84201D12F
:104BC0000F60AEE7904D4835A84202D1C1F800C051
:104BD000A7E78D4D8C496035091FA84201D10A60B5
:104BE0009FE7894A7832904201D10B6099E7864A63
:104BF0009032904201D10C6093E7834AA8329042F0
:104C00008FD1C1F800908CE730B503687F4ACC683B
:104C100013400A682243D1E905452C432243CC695D
:104C200022430C6A22434C6A22438C6A22434C6B17
:104C300022438C6B22431A430260426922F007032D
:104C4000D1E90B2422431A4342610A6942604A684F
:104C500082608968C16030BD00210160416081606F
:104C6000C160016141618161C16101624162816232
:104C7000C16201634163816370470029016802D00A
:104C800041F0010101E021F00101016070470029BC
:104C9000016802D041F4004101E021F400410160CB
:104CA00070470029016802D041F0200101E021F0A5
:104CB00020010160704741607047406880B27047D2
:104CC000002A026802D042F4002201E022F400220D
:104CD0000260016170470029016802D041F480211F
:104CE00001E021F48021016070470AB10161704741
:104CF000C1607047014600200968090300D5012002
:104D00007047014600200968C90700D0012070479C
:104D1000406900F03800704702463B4B00209A4241
:104D200002D2354A103A01E0374A103A8B0001D5D9
:104D3000526800E01268364B1A400A4200D0012047
:104D40007047314A904202D22B48103801E02E4879
:104D500010382F4A8B0001EA020101D5C16070476B
:104D6000816070470B0607D5436912B143F0800399
:104D700001E023F080034361802908D0002A026803
:104D800001F01E0101D00A4300E08A43026070472F
:104D900030B51D4A0024904202D2174B103B01E06F
:104DA000194B103B1B4A114205D01E2202EAD125A5
:104DB00002682A4002E0406900F08002880001D5C4
:104DC000586800E01868124B1840084201D002B140
:104DD0000124204630BD0C4A904202D206481038C9
:104DE00001E0094810380A4A8B0001EA020101D5A6
:104DF000C160704781607047106002403D00002034
:104E0000400F002000003D20106402403F801CF055
:104E10007D0F7D0F3C0F3C0F374900200860091DB6
:104E20000860091D0860091D0860334933481431C2
:104E30000860704730B530498379026853B30B6816
:104E400093430B600A1D13680468A343136002793F
:104E50000A441368046823431360274A083213681E
:104E60000468A3431360131D1C680568AC431C60F1
:104E70004479102C05D021440A68006802430A6076
:104E800030BD11680468214311601968006801434E
:104E9000196030BD0079084401689143016030BD5C
:104EA0000021016001710C22427181717047124929
:104EB00010310A6802430A60704701460E4A00201A
:104EC000143212680A4200D0012070470A49143196
:104ED00008607047084A014600201268064B0A40E5
:104EE00014331B680B4202D0002A00D00120704707
:104EF0000149143108607047003C0140FFFF7F000A
:104F0000FE4910B5884206D101210846FFF7DEFBB5
:104F1000002101205BE0B0F1804F09D0F8498842C0
:104F20000DD101210220FFF7C7FB0021022070E014
:104F300001210846FFF7C0FB0021012069E0F1498B
:104F4000884206D101210420FFF7B6FB002104208E
:104F50005FE0ED49884206D101210820FFF7ACFB54
:104F60000021082055E0E949884206D1012110209E
:104F7000FFF7A2FB002110204BE0E549884206D153
:104F800001212020FFF798FB0021202041E0E1498A
:104F9000884206D101210220FFF798FB0021022060
:104FA00015E0DD49884202D101210C040AE0DB4909
:104FB000884202D101214C0404E0D94988420AD137
:104FC00001218C042046FFF781FB00212046BDE82B
:104FD0001040FFF77BBBD349884206D10121402016
:104FE000FFF76AFB0021402013E0CF49884206D139
:104FF00001218020FFF760FB0021802009E0CB49E0
:1050000088420AD1841501212046FFF755FB002173
:105010002046BDE81040FFF74FBB10BD30B50288F9
:10502000B64BBC4C98420DD0A0420BD0B0F1804F93
:1050300008D0B34DA84205D0B24DA84202D0B24D1F
:10504000A84203D122F070054A882A43AF4DA842F6
:1050500006D0AF4DA84203D022F440750A892A43F6
:1050600002804A68C2620A880285984201D0A04242
:1050700001D1897A01860121818230BD4FF0FF3153
:10508000416000210180018141808172704701856A
:1050900082827047028822F070020A4302807047C1
:1050A00041627047C1627047406A7047008D704727
:1050B0000029018802D041F0020101E021F0020143
:1050C000018070470029018802D041F0040101E00D
:1050D00021F00401018070470029018802D041F0CD
:1050E000800101E021F0800101807047028822F0F8
:1050F0000802028002880A4302807047028822F474
:105100004072028002880A430280704700290188A9
:1051100002D041F0010101E021F00101018070475E
:1051200030B5028C22F001020284028C8388048B49
:1051300022F0020224F073050C882C438D8915435C
:105140004A882A436D4DA84202D0724DA8420DD123
:1051500022F00805CA8923F440732A4322F004058B
:105160008A882A430D8A1D434B8A2B4383800483FC
:1051700089684163028430BD70B5028C22F0100250
:105180000284028C8488038B0D8823F4E6464FF654
:10519000FF7303EA052535438E8922F0200203EAD6
:1051A000061616434A8803EA02123243534EB042AF
:1051B00002D0584EB04215D122F08006CA8924F49C
:1051C000406403EA0212324322F040068A8803EA6E
:1051D000021232430E8A03EA860626434C8A03EA09
:1051E000840434438480058389688163028470BDAC
:1051F00070B5028C22F480720284028C8488838BC6
:105200000D8823F073031D4322F400738E894FF63B
:10521000FF7202EA06261E434B8802EA0323334349
:10522000364EB04202D03B4EB04215D123F4006658
:10523000CB8924F4405402EA0323334323F48066E9
:105240008B8802EA032333430E8A02EA06162643BA
:105250004C8A02EA04143443848085838968C163DC
:10526000038470BD70B5028C22F480520284048CD9
:105270008288838B0D8823F4E6464FF6FF7303EA9A
:105280000525354324F400568C8903EA043434435D
:105290004E8803EA06362643184CA04202D01D4C25
:1052A000A04205D122F480440A8A03EA82122243F2
:1052B0008280858389680164068470BD0021018035
:1052C0004180818081608181C181018241827047FA
:1052D00030B50124058C00F118038C40A5430584EA
:1052E00031B308292CD0091FC1F34E0018440168BE
:1052F00048F6FF731940016001681AE000000140A0
:105300000004004000080040000C00400010004075
:1053100000140040000401400040014000440140EE
:105320000048014000180040001C004000200040E0
:1053300006E04FF6FF7303EA02221143016030BD1D
:1053400003EB510001684FF68F731940016001684B
:10535000F3E74163704781637047C163704701643D
:105360007047028B22F070020A4302837047028B5F
:105370004FF6FF7322F4E04203EA01211143018357
:105380007047828B22F070020A4382837047828BBF
:105390004FF6FF7322F4E04203EA012111438183B7
:1053A0007047028B22F008020A4302837047028B87
:1053B0004FF6FF7322F4006203EA012111430183D7
:1053C0007047828B22F008020A4382837047828BE7
:1053D0004FF6FF7322F4006203EA01211143818337
:1053E0007047028B22F004020A4302837047028B4B
:1053F0004FF6FF7322F4806203EA01211143018317
:105400007047828B22F004020A4382837047828BAA
:105410004FF6FF7322F4806203EA01211143818376
:105420007047028B22F080020A4302837047028B8E
:105430004FF6FF73C2F30E0203EA01211143018309
:105440007047828B22F080020A4382837047828BEE
:105450004FF6FF73C2F30E0203EA01211143818369
:105460007047028C22F002020A4302847047028CC9
:1054700022F008020A4302847047028C4FF6FF7341
:1054800022F0200203EA0111114301847047028CCB
:105490004FF6FF7322F0800203EA011111430184E9
:1054A0007047028C4FF6FF7322F4007203EA012169
:1054B000114301847047028C4FF6FF7322F400629F
:1054C00003EA0121114301847047028C4FF6FF73F8
:1054D00022F4005203EA013111430184704710B5F0
:1054E0000123048C8B409C430484038C8A40134327
:1054F000038410BD10B50423048C8B409C430484AA
:10550000038C8A401343038410BD828B22F44062D3
:105510008283828B4FF6FF7303EA01210A43828361
:105520007047828B22F00C028283828B0A43828333
:105530007047028B22F440620283028B4FF6FF73A6
:1055400003EA01210A4302837047F0B5048C24F07A
:1055500010040484078B068C4FF6FF7404EA0115CF
:1055600027F4734704EA0331394304EA02220A4369
:1055700026F0A001294341F0100102830184F0BD0F
:10558000028B22F00C020283028B0A4302837047D3
:105590002DE9F0410D460E884988AA882B890446DA
:1055A0000EB3042E26D0082E268C4FF6FF7028D07E
:1055B00026F480562684A78B268C00EA022200EA75
:1055C000013127F473473A4300EA0330104326F4CD
:1055D00020420A4342F48051A0832184E988204676
:1055E000BDE8F04191E700F062F9E9882046BDE8A6
:1055F000F041C5E7FFF7A9FFE9882046BDE8F04183
:1056000097E726F480762684A78B268C00EA012172
:1056100000EA0310104327F0F307384326F4206212
:105620000A4342F48071A0832184E9882046BDE8C2
:10563000F04176E700210180418001228280C18013
:10564000018170472DE9F0410C4600264988074644
:10565000012501B90226A288012A00D1022520884D
:1056600023890028384610D0FFF76FFFE1883846BD
:10567000FFF75FFF23892A463146384600F017F9C5
:10568000E1883846BDE8F0417AE700F010F9E1889A
:105690003846FFF775FF23892A4631463846FFF71B
:1056A00054FFE1883846BDE8F04142E7406B70475F
:1056B000806B7047C06B7047006C704710B50A88EC
:1056C0004B88CC881A438B8823431A430B891A438F
:1056D0004B8989891A430A43A0F8442010BD002150
:1056E000018041808180C180018141818181704739
:1056F000002930F8441F02D041F4004101E0C1F319
:105700000E01018070470029818802D041F0040118
:1057100001E021F00401818070470029818802D0D6
:1057200041F0010101E021F0010181807047002A70
:10573000828901D00A4300E08A43828170478182D6
:10574000704702460020128A0A4200D001207047AA
:10575000C9430182704702460020138A92890B4296
:1057600002EA010202D0002A00D001207047C9439A
:10577000018270471143A0F848107047002A8289BF
:1057800001D00A4300E08A43828170470029818862
:1057900002D041F0080101E021F00801818070474A
:1057A000018921F0070101817047028922F070020E
:1057B0000A430281704700B50346FFF7F6FF1889D8
:1057C00040F00700188100BD70B516460D466029EF
:1057D00004464FF0010231460AD000F068F829462D
:1057E0002046FFF7E2FF208940F00700208170BDCE
:1057F000FFF7ABFEF3E730B504894FF6FF7505EA16
:1058000003231343E4B20B432343038130BD10B59C
:105810000446FFF7F0FF208940F07700208110BD9B
:1058200010B50446FFF7E7FF208940F4804020814F
:1058300010BD828822F07002828082880A438280B2
:105840007047028922F00702028102890A4302811D
:105850007047028922F08002028102890A43028194
:10586000704770B50589048B068C25F007050D433C
:105870004FF6FC410C4040F201110C434FF6FF7112
:1058800001EA031126F02206114331430581048306
:10589000018470BD0029818802D041F0800101E0BF
:1058A00021F0800181807047A0F85010704770B5DA
:1058B000048C24F001040484058B048C4FF6FF76DD
:1058C00006EA0313134325F0F3052B4324F00A02E1
:1058D0000A4342F001010383018470BDC74910B53A
:1058E000884206D101211020FEF7F0FE0021102091
:1058F00028E0C349884202D101214C0410E0C1498B
:10590000884202D101218C040AE0BF49884202D1B9
:105910000121CC0404E0BD4988420AD101210C05D3
:105920002046FEF7C9FE2046BDE810400021FEF7E4
:10593000C3BEB749884209D101212020FEF7C6FE27
:1059400000212020BDE81040FEF7C0BE10BD7FB58D
:105950000446008A0D4620F44051E888084320821E
:10596000A08941F20C618843A9882A8911436A8978
:1059700002431143A181A08A20F44071A889084301
:10598000A0826846FEF7E4FD9C48844202D0A0480D
:10599000844201D1039800E00298A189090400EB38
:1059A000C00101EB0010296801D5490000E0890021
:1059B000B0FBF1F26420B2FBF0F109010B096FF0CA
:1059C00018056B4302EB8302A3891D044FF03203D9
:1059D00006D503EBC202B2FBF0F000F0070005E0D1
:1059E00003EB0212B2FBF0F000F00F00084320813D
:1059F0007FBD4FF41651016000218180C18001817B
:105A00000C2242818181704710B5028A4C8822F4B1
:105A100070630A8822438C88C9880C4322431A4346
:105A2000028210BD0021018041808180C1807047C9
:105A30000029818902D041F4005101E021F4005194
:105A400081817047028B02F47F420283028B0A43FA
:105A5000028370470029818902D041F4004101E0AE
:105A6000C1F30E01818170470029818A02D041F47F
:105A7000006101E021F4006181827047C1F30801F7
:105A8000818070478088C0F308007047028A22F046
:105A90000F020282028A0A4302827047002981892A
:105AA00002D041F0020101E021F002018181704742
:105AB000828922F40062828182890A43828170474E
:105AC000028A22F020020282028A0A43028270477E
:105AD0000029018A02D041F4804101E021F4804193
